{
	"Twitter_dummy.sol": {
		"Twitter": {
			"abi": [
				{
					"inputs": [],
					"stateMutability": "nonpayable",
					"type": "constructor"
				},
				{
					"inputs": [],
					"name": "MAX_TWEET_LENGTH",
					"outputs": [
						{
							"internalType": "uint16",
							"name": "",
							"type": "uint16"
						}
					],
					"stateMutability": "view",
					"type": "function"
				},
				{
					"inputs": [
						{
							"internalType": "string",
							"name": "_tweet",
							"type": "string"
						}
					],
					"name": "createTweet",
					"outputs": [],
					"stateMutability": "nonpayable",
					"type": "function"
				},
				{
					"inputs": [
						{
							"internalType": "address",
							"name": "_owner",
							"type": "address"
						}
					],
					"name": "getAllTweets",
					"outputs": [
						{
							"components": [
								{
									"internalType": "address",
									"name": "author",
									"type": "address"
								},
								{
									"internalType": "string",
									"name": "content",
									"type": "string"
								},
								{
									"internalType": "uint256",
									"name": "timestamp",
									"type": "uint256"
								},
								{
									"internalType": "uint256",
									"name": "likes",
									"type": "uint256"
								}
							],
							"internalType": "struct Twitter.Tweet[]",
							"name": "",
							"type": "tuple[]"
						}
					],
					"stateMutability": "view",
					"type": "function"
				},
				{
					"inputs": [],
					"name": "owner",
					"outputs": [
						{
							"internalType": "address",
							"name": "",
							"type": "address"
						}
					],
					"stateMutability": "view",
					"type": "function"
				},
				{
					"inputs": [
						{
							"internalType": "address",
							"name": "_author",
							"type": "address"
						},
						{
							"internalType": "uint256",
							"name": "_index",
							"type": "uint256"
						}
					],
					"name": "toggleLike",
					"outputs": [],
					"stateMutability": "nonpayable",
					"type": "function"
				},
				{
					"inputs": [
						{
							"internalType": "address",
							"name": "",
							"type": "address"
						},
						{
							"internalType": "uint256",
							"name": "",
							"type": "uint256"
						},
						{
							"internalType": "address",
							"name": "",
							"type": "address"
						}
					],
					"name": "tweetLikes",
					"outputs": [
						{
							"internalType": "uint8",
							"name": "",
							"type": "uint8"
						}
					],
					"stateMutability": "view",
					"type": "function"
				},
				{
					"inputs": [
						{
							"internalType": "address",
							"name": "",
							"type": "address"
						},
						{
							"internalType": "uint256",
							"name": "",
							"type": "uint256"
						}
					],
					"name": "tweets",
					"outputs": [
						{
							"internalType": "address",
							"name": "author",
							"type": "address"
						},
						{
							"internalType": "string",
							"name": "content",
							"type": "string"
						},
						{
							"internalType": "uint256",
							"name": "timestamp",
							"type": "uint256"
						},
						{
							"internalType": "uint256",
							"name": "likes",
							"type": "uint256"
						}
					],
					"stateMutability": "view",
					"type": "function"
				}
			],
			"devdoc": {
				"kind": "dev",
				"methods": {},
				"version": 1
			},
			"evm": {
				"assembly": "    /* \"Twitter_dummy.sol\":60:1522  contract Twitter {... */\n  mstore(0x40, 0x80)\n    /* \"Twitter_dummy.sol\":119:122  280 */\n  0x0118\n    /* \"Twitter_dummy.sol\":86:122  uint16 public MAX_TWEET_LENGTH = 280 */\n  0x00\n  exp(0x0100, 0x00)\n  dup2\n  sload\n  dup2\n  0xffff\n  mul\n  not\n  and\n  swap1\n  dup4\n  0xffff\n  and\n  mul\n  or\n  swap1\n  sstore\n  pop\n    /* \"Twitter_dummy.sol\":463:514  constructor() {... */\n  callvalue\n  dup1\n  iszero\n  tag_1\n  jumpi\n  revert(0x00, 0x00)\ntag_1:\n  pop\n    /* \"Twitter_dummy.sol\":496:506  msg.sender */\n  caller\n    /* \"Twitter_dummy.sol\":488:493  owner */\n  0x03\n  0x00\n    /* \"Twitter_dummy.sol\":488:506  owner = msg.sender */\n  0x0100\n  exp\n  dup2\n  sload\n  dup2\n  0xffffffffffffffffffffffffffffffffffffffff\n  mul\n  not\n  and\n  swap1\n  dup4\n  0xffffffffffffffffffffffffffffffffffffffff\n  and\n  mul\n  or\n  swap1\n  sstore\n  pop\n    /* \"Twitter_dummy.sol\":60:1522  contract Twitter {... */\n  dataSize(sub_0)\n  dup1\n  dataOffset(sub_0)\n  0x00\n  codecopy\n  0x00\n  return\nstop\n\nsub_0: assembly {\n        /* \"Twitter_dummy.sol\":60:1522  contract Twitter {... */\n      mstore(0x40, 0x80)\n      callvalue\n      dup1\n      iszero\n      tag_1\n      jumpi\n      revert(0x00, 0x00)\n    tag_1:\n      pop\n      jumpi(tag_2, lt(calldatasize, 0x04))\n      shr(0xe0, calldataload(0x00))\n      dup1\n      0x5d2de0c1\n      gt\n      tag_10\n      jumpi\n      dup1\n      0x5d2de0c1\n      eq\n      tag_6\n      jumpi\n      dup1\n      0x6eb10797\n      eq\n      tag_7\n      jumpi\n      dup1\n      0x7c9cd2bc\n      eq\n      tag_8\n      jumpi\n      dup1\n      0x8da5cb5b\n      eq\n      tag_9\n      jumpi\n      jump(tag_2)\n    tag_10:\n      dup1\n      0x05a1b4a9\n      eq\n      tag_3\n      jumpi\n      dup1\n      0x12e7ee1c\n      eq\n      tag_4\n      jumpi\n      dup1\n      0x17bb08c3\n      eq\n      tag_5\n      jumpi\n    tag_2:\n      revert(0x00, 0x00)\n        /* \"Twitter_dummy.sol\":262:303  mapping(address => Tweet[]) public tweets */\n    tag_3:\n      tag_11\n      0x04\n      dup1\n      calldatasize\n      sub\n      dup2\n      add\n      swap1\n      tag_12\n      swap2\n      swap1\n      tag_13\n      jump\t// in\n    tag_12:\n      tag_14\n      jump\t// in\n    tag_11:\n      mload(0x40)\n      tag_15\n      swap5\n      swap4\n      swap3\n      swap2\n      swap1\n      tag_16\n      jump\t// in\n    tag_15:\n      mload(0x40)\n      dup1\n      swap2\n      sub\n      swap1\n      return\n        /* \"Twitter_dummy.sol\":888:1003  function getAllTweets(address _owner) public view returns (Tweet[] memory) {... */\n    tag_4:\n      tag_17\n      0x04\n      dup1\n      calldatasize\n      sub\n      dup2\n      add\n      swap1\n      tag_18\n      swap2\n      swap1\n      tag_19\n      jump\t// in\n    tag_18:\n      tag_20\n      jump\t// in\n    tag_17:\n      mload(0x40)\n      tag_21\n      swap2\n      swap1\n      tag_22\n      jump\t// in\n    tag_21:\n      mload(0x40)\n      dup1\n      swap2\n      sub\n      swap1\n      return\n        /* \"Twitter_dummy.sol\":1040:1519  function toggleLike(address _author, uint _index) public {... */\n    tag_5:\n      tag_23\n      0x04\n      dup1\n      calldatasize\n      sub\n      dup2\n      add\n      swap1\n      tag_24\n      swap2\n      swap1\n      tag_13\n      jump\t// in\n    tag_24:\n      tag_25\n      jump\t// in\n    tag_23:\n      stop\n        /* \"Twitter_dummy.sol\":345:425  mapping(address => mapping(uint => mapping(address => uint8))) public tweetLikes */\n    tag_6:\n      tag_26\n      0x04\n      dup1\n      calldatasize\n      sub\n      dup2\n      add\n      swap1\n      tag_27\n      swap2\n      swap1\n      tag_28\n      jump\t// in\n    tag_27:\n      tag_29\n      jump\t// in\n    tag_26:\n      mload(0x40)\n      tag_30\n      swap2\n      swap1\n      tag_31\n      jump\t// in\n    tag_30:\n      mload(0x40)\n      dup1\n      swap2\n      sub\n      swap1\n      return\n        /* \"Twitter_dummy.sol\":86:122  uint16 public MAX_TWEET_LENGTH = 280 */\n    tag_7:\n      tag_32\n      tag_33\n      jump\t// in\n    tag_32:\n      mload(0x40)\n      tag_34\n      swap2\n      swap1\n      tag_35\n      jump\t// in\n    tag_34:\n      mload(0x40)\n      dup1\n      swap2\n      sub\n      swap1\n      return\n        /* \"Twitter_dummy.sol\":636:880  function createTweet(string memory _tweet) public {... */\n    tag_8:\n      tag_36\n      0x04\n      dup1\n      calldatasize\n      sub\n      dup2\n      add\n      swap1\n      tag_37\n      swap2\n      swap1\n      tag_38\n      jump\t// in\n    tag_37:\n      tag_39\n      jump\t// in\n    tag_36:\n      stop\n        /* \"Twitter_dummy.sol\":434:454  address public owner */\n    tag_9:\n      tag_40\n      tag_41\n      jump\t// in\n    tag_40:\n      mload(0x40)\n      tag_42\n      swap2\n      swap1\n      tag_43\n      jump\t// in\n    tag_42:\n      mload(0x40)\n      dup1\n      swap2\n      sub\n      swap1\n      return\n        /* \"Twitter_dummy.sol\":262:303  mapping(address => Tweet[]) public tweets */\n    tag_14:\n      mstore(0x20, 0x01)\n      dup2\n      0x00\n      mstore\n      keccak256(0x00, 0x40)\n      dup2\n      dup2\n      sload\n      dup2\n      lt\n      tag_44\n      jumpi\n      0x00\n      dup1\n      revert\n    tag_44:\n      swap1\n      0x00\n      mstore\n      keccak256(0x00, 0x20)\n      swap1\n      0x04\n      mul\n      add\n      0x00\n      swap2\n      pop\n      swap2\n      pop\n      pop\n      dup1\n      0x00\n      add\n      0x00\n      swap1\n      sload\n      swap1\n      0x0100\n      exp\n      swap1\n      div\n      0xffffffffffffffffffffffffffffffffffffffff\n      and\n      swap1\n      dup1\n      0x01\n      add\n      dup1\n      sload\n      tag_46\n      swap1\n      tag_47\n      jump\t// in\n    tag_46:\n      dup1\n      0x1f\n      add\n      0x20\n      dup1\n      swap2\n      div\n      mul\n      0x20\n      add\n      mload(0x40)\n      swap1\n      dup2\n      add\n      0x40\n      mstore\n      dup1\n      swap3\n      swap2\n      swap1\n      dup2\n      dup2\n      mstore\n      0x20\n      add\n      dup3\n      dup1\n      sload\n      tag_48\n      swap1\n      tag_47\n      jump\t// in\n    tag_48:\n      dup1\n      iszero\n      tag_49\n      jumpi\n      dup1\n      0x1f\n      lt\n      tag_50\n      jumpi\n      0x0100\n      dup1\n      dup4\n      sload\n      div\n      mul\n      dup4\n      mstore\n      swap2\n      0x20\n      add\n      swap2\n      jump(tag_49)\n    tag_50:\n      dup3\n      add\n      swap2\n      swap1\n      0x00\n      mstore\n      keccak256(0x00, 0x20)\n      swap1\n    tag_51:\n      dup2\n      sload\n      dup2\n      mstore\n      swap1\n      0x01\n      add\n      swap1\n      0x20\n      add\n      dup1\n      dup4\n      gt\n      tag_51\n      jumpi\n      dup3\n      swap1\n      sub\n      0x1f\n      and\n      dup3\n      add\n      swap2\n    tag_49:\n      pop\n      pop\n      pop\n      pop\n      pop\n      swap1\n      dup1\n      0x02\n      add\n      sload\n      swap1\n      dup1\n      0x03\n      add\n      sload\n      swap1\n      pop\n      dup5\n      jump\t// out\n        /* \"Twitter_dummy.sol\":888:1003  function getAllTweets(address _owner) public view returns (Tweet[] memory) {... */\n    tag_20:\n        /* \"Twitter_dummy.sol\":947:961  Tweet[] memory */\n      0x60\n        /* \"Twitter_dummy.sol\":981:987  tweets */\n      0x01\n        /* \"Twitter_dummy.sol\":981:995  tweets[_owner] */\n      0x00\n        /* \"Twitter_dummy.sol\":988:994  _owner */\n      dup4\n        /* \"Twitter_dummy.sol\":981:995  tweets[_owner] */\n      0xffffffffffffffffffffffffffffffffffffffff\n      and\n      0xffffffffffffffffffffffffffffffffffffffff\n      and\n      dup2\n      mstore\n      0x20\n      add\n      swap1\n      dup2\n      mstore\n      0x20\n      add\n      0x00\n      keccak256\n        /* \"Twitter_dummy.sol\":974:995  return tweets[_owner] */\n      dup1\n      sload\n      dup1\n      0x20\n      mul\n      0x20\n      add\n      mload(0x40)\n      swap1\n      dup2\n      add\n      0x40\n      mstore\n      dup1\n      swap3\n      swap2\n      swap1\n      dup2\n      dup2\n      mstore\n      0x20\n      add\n      0x00\n      swap1\n    tag_53:\n      dup3\n      dup3\n      lt\n      iszero\n      tag_54\n      jumpi\n      dup4\n      dup3\n      swap1\n      0x00\n      mstore\n      keccak256(0x00, 0x20)\n      swap1\n      0x04\n      mul\n      add\n      mload(0x40)\n      dup1\n      0x80\n      add\n      0x40\n      mstore\n      swap1\n      dup2\n      0x00\n      dup3\n      add\n      0x00\n      swap1\n      sload\n      swap1\n      0x0100\n      exp\n      swap1\n      div\n      0xffffffffffffffffffffffffffffffffffffffff\n      and\n      0xffffffffffffffffffffffffffffffffffffffff\n      and\n      0xffffffffffffffffffffffffffffffffffffffff\n      and\n      dup2\n      mstore\n      0x20\n      add\n      0x01\n      dup3\n      add\n      dup1\n      sload\n      tag_56\n      swap1\n      tag_47\n      jump\t// in\n    tag_56:\n      dup1\n      0x1f\n      add\n      0x20\n      dup1\n      swap2\n      div\n      mul\n      0x20\n      add\n      mload(0x40)\n      swap1\n      dup2\n      add\n      0x40\n      mstore\n      dup1\n      swap3\n      swap2\n      swap1\n      dup2\n      dup2\n      mstore\n      0x20\n      add\n      dup3\n      dup1\n      sload\n      tag_57\n      swap1\n      tag_47\n      jump\t// in\n    tag_57:\n      dup1\n      iszero\n      tag_58\n      jumpi\n      dup1\n      0x1f\n      lt\n      tag_59\n      jumpi\n      0x0100\n      dup1\n      dup4\n      sload\n      div\n      mul\n      dup4\n      mstore\n      swap2\n      0x20\n      add\n      swap2\n      jump(tag_58)\n    tag_59:\n      dup3\n      add\n      swap2\n      swap1\n      0x00\n      mstore\n      keccak256(0x00, 0x20)\n      swap1\n    tag_60:\n      dup2\n      sload\n      dup2\n      mstore\n      swap1\n      0x01\n      add\n      swap1\n      0x20\n      add\n      dup1\n      dup4\n      gt\n      tag_60\n      jumpi\n      dup3\n      swap1\n      sub\n      0x1f\n      and\n      dup3\n      add\n      swap2\n    tag_58:\n      pop\n      pop\n      pop\n      pop\n      pop\n      dup2\n      mstore\n      0x20\n      add\n      0x02\n      dup3\n      add\n      sload\n      dup2\n      mstore\n      0x20\n      add\n      0x03\n      dup3\n      add\n      sload\n      dup2\n      mstore\n      pop\n      pop\n      dup2\n      mstore\n      0x20\n      add\n      swap1\n      0x01\n      add\n      swap1\n      jump(tag_53)\n    tag_54:\n      pop\n      pop\n      pop\n      pop\n      swap1\n      pop\n        /* \"Twitter_dummy.sol\":888:1003  function getAllTweets(address _owner) public view returns (Tweet[] memory) {... */\n      swap2\n      swap1\n      pop\n      jump\t// out\n        /* \"Twitter_dummy.sol\":1040:1519  function toggleLike(address _author, uint _index) public {... */\n    tag_25:\n        /* \"Twitter_dummy.sol\":1125:1131  tweets */\n      0x01\n        /* \"Twitter_dummy.sol\":1125:1140  tweets[_author] */\n      0x00\n        /* \"Twitter_dummy.sol\":1132:1139  _author */\n      dup4\n        /* \"Twitter_dummy.sol\":1125:1140  tweets[_author] */\n      0xffffffffffffffffffffffffffffffffffffffff\n      and\n      0xffffffffffffffffffffffffffffffffffffffff\n      and\n      dup2\n      mstore\n      0x20\n      add\n      swap1\n      dup2\n      mstore\n      0x20\n      add\n      0x00\n      keccak256\n        /* \"Twitter_dummy.sol\":1125:1147  tweets[_author].length */\n      dup1\n      sload\n      swap1\n      pop\n        /* \"Twitter_dummy.sol\":1116:1122  _index */\n      dup2\n        /* \"Twitter_dummy.sol\":1116:1147  _index < tweets[_author].length */\n      lt\n        /* \"Twitter_dummy.sol\":1108:1167  require(_index < tweets[_author].length, \"Tweet not found\") */\n      tag_62\n      jumpi\n      mload(0x40)\n      0x08c379a000000000000000000000000000000000000000000000000000000000\n      dup2\n      mstore\n      0x04\n      add\n      tag_63\n      swap1\n      tag_64\n      jump\t// in\n    tag_63:\n      mload(0x40)\n      dup1\n      swap2\n      sub\n      swap1\n      revert\n    tag_62:\n        /* \"Twitter_dummy.sol\":1227:1228  0 */\n      0x00\n        /* \"Twitter_dummy.sol\":1184:1194  tweetLikes */\n      0x02\n        /* \"Twitter_dummy.sol\":1184:1203  tweetLikes[_author] */\n      0x00\n        /* \"Twitter_dummy.sol\":1195:1202  _author */\n      dup5\n        /* \"Twitter_dummy.sol\":1184:1203  tweetLikes[_author] */\n      0xffffffffffffffffffffffffffffffffffffffff\n      and\n      0xffffffffffffffffffffffffffffffffffffffff\n      and\n      dup2\n      mstore\n      0x20\n      add\n      swap1\n      dup2\n      mstore\n      0x20\n      add\n      0x00\n      keccak256\n        /* \"Twitter_dummy.sol\":1184:1211  tweetLikes[_author][_index] */\n      0x00\n        /* \"Twitter_dummy.sol\":1204:1210  _index */\n      dup4\n        /* \"Twitter_dummy.sol\":1184:1211  tweetLikes[_author][_index] */\n      dup2\n      mstore\n      0x20\n      add\n      swap1\n      dup2\n      mstore\n      0x20\n      add\n      0x00\n      keccak256\n        /* \"Twitter_dummy.sol\":1184:1223  tweetLikes[_author][_index][msg.sender] */\n      0x00\n        /* \"Twitter_dummy.sol\":1212:1222  msg.sender */\n      caller\n        /* \"Twitter_dummy.sol\":1184:1223  tweetLikes[_author][_index][msg.sender] */\n      0xffffffffffffffffffffffffffffffffffffffff\n      and\n      0xffffffffffffffffffffffffffffffffffffffff\n      and\n      dup2\n      mstore\n      0x20\n      add\n      swap1\n      dup2\n      mstore\n      0x20\n      add\n      0x00\n      keccak256\n      0x00\n      swap1\n      sload\n      swap1\n      0x0100\n      exp\n      swap1\n      div\n      0xff\n      and\n        /* \"Twitter_dummy.sol\":1184:1228  tweetLikes[_author][_index][msg.sender] == 0 */\n      0xff\n      and\n      sub\n        /* \"Twitter_dummy.sol\":1180:1512  if (tweetLikes[_author][_index][msg.sender] == 0) {... */\n      tag_65\n      jumpi\n        /* \"Twitter_dummy.sol\":1266:1272  tweets */\n      0x01\n        /* \"Twitter_dummy.sol\":1266:1281  tweets[_author] */\n      0x00\n        /* \"Twitter_dummy.sol\":1273:1280  _author */\n      dup4\n        /* \"Twitter_dummy.sol\":1266:1281  tweets[_author] */\n      0xffffffffffffffffffffffffffffffffffffffff\n      and\n      0xffffffffffffffffffffffffffffffffffffffff\n      and\n      dup2\n      mstore\n      0x20\n      add\n      swap1\n      dup2\n      mstore\n      0x20\n      add\n      0x00\n      keccak256\n        /* \"Twitter_dummy.sol\":1282:1288  _index */\n      dup2\n        /* \"Twitter_dummy.sol\":1266:1289  tweets[_author][_index] */\n      dup2\n      sload\n      dup2\n      lt\n      tag_66\n      jumpi\n      tag_67\n      tag_68\n      jump\t// in\n    tag_67:\n    tag_66:\n      swap1\n      0x00\n      mstore\n      keccak256(0x00, 0x20)\n      swap1\n      0x04\n      mul\n      add\n        /* \"Twitter_dummy.sol\":1266:1295  tweets[_author][_index].likes */\n      0x03\n      add\n      0x00\n        /* \"Twitter_dummy.sol\":1266:1297  tweets[_author][_index].likes++ */\n      dup2\n      sload\n      dup1\n      swap3\n      swap2\n      swap1\n      tag_70\n      swap1\n      tag_71\n      jump\t// in\n    tag_70:\n      swap2\n      swap1\n      pop\n      sstore\n      pop\n        /* \"Twitter_dummy.sol\":1354:1355  1 */\n      0x01\n        /* \"Twitter_dummy.sol\":1312:1322  tweetLikes */\n      0x02\n        /* \"Twitter_dummy.sol\":1312:1331  tweetLikes[_author] */\n      0x00\n        /* \"Twitter_dummy.sol\":1323:1330  _author */\n      dup5\n        /* \"Twitter_dummy.sol\":1312:1331  tweetLikes[_author] */\n      0xffffffffffffffffffffffffffffffffffffffff\n      and\n      0xffffffffffffffffffffffffffffffffffffffff\n      and\n      dup2\n      mstore\n      0x20\n      add\n      swap1\n      dup2\n      mstore\n      0x20\n      add\n      0x00\n      keccak256\n        /* \"Twitter_dummy.sol\":1312:1339  tweetLikes[_author][_index] */\n      0x00\n        /* \"Twitter_dummy.sol\":1332:1338  _index */\n      dup4\n        /* \"Twitter_dummy.sol\":1312:1339  tweetLikes[_author][_index] */\n      dup2\n      mstore\n      0x20\n      add\n      swap1\n      dup2\n      mstore\n      0x20\n      add\n      0x00\n      keccak256\n        /* \"Twitter_dummy.sol\":1312:1351  tweetLikes[_author][_index][msg.sender] */\n      0x00\n        /* \"Twitter_dummy.sol\":1340:1350  msg.sender */\n      caller\n        /* \"Twitter_dummy.sol\":1312:1351  tweetLikes[_author][_index][msg.sender] */\n      0xffffffffffffffffffffffffffffffffffffffff\n      and\n      0xffffffffffffffffffffffffffffffffffffffff\n      and\n      dup2\n      mstore\n      0x20\n      add\n      swap1\n      dup2\n      mstore\n      0x20\n      add\n      0x00\n      keccak256\n      0x00\n        /* \"Twitter_dummy.sol\":1312:1355  tweetLikes[_author][_index][msg.sender] = 1 */\n      0x0100\n      exp\n      dup2\n      sload\n      dup2\n      0xff\n      mul\n      not\n      and\n      swap1\n      dup4\n      0xff\n      and\n      mul\n      or\n      swap1\n      sstore\n      pop\n        /* \"Twitter_dummy.sol\":1180:1512  if (tweetLikes[_author][_index][msg.sender] == 0) {... */\n      jump(tag_72)\n    tag_65:\n        /* \"Twitter_dummy.sol\":1411:1417  tweets */\n      0x01\n        /* \"Twitter_dummy.sol\":1411:1426  tweets[_author] */\n      0x00\n        /* \"Twitter_dummy.sol\":1418:1425  _author */\n      dup4\n        /* \"Twitter_dummy.sol\":1411:1426  tweets[_author] */\n      0xffffffffffffffffffffffffffffffffffffffff\n      and\n      0xffffffffffffffffffffffffffffffffffffffff\n      and\n      dup2\n      mstore\n      0x20\n      add\n      swap1\n      dup2\n      mstore\n      0x20\n      add\n      0x00\n      keccak256\n        /* \"Twitter_dummy.sol\":1427:1433  _index */\n      dup2\n        /* \"Twitter_dummy.sol\":1411:1434  tweets[_author][_index] */\n      dup2\n      sload\n      dup2\n      lt\n      tag_73\n      jumpi\n      tag_74\n      tag_68\n      jump\t// in\n    tag_74:\n    tag_73:\n      swap1\n      0x00\n      mstore\n      keccak256(0x00, 0x20)\n      swap1\n      0x04\n      mul\n      add\n        /* \"Twitter_dummy.sol\":1411:1440  tweets[_author][_index].likes */\n      0x03\n      add\n      0x00\n        /* \"Twitter_dummy.sol\":1411:1442  tweets[_author][_index].likes-- */\n      dup2\n      sload\n      dup1\n      swap3\n      swap2\n      swap1\n      tag_76\n      swap1\n      tag_77\n      jump\t// in\n    tag_76:\n      swap2\n      swap1\n      pop\n      sstore\n      pop\n        /* \"Twitter_dummy.sol\":1499:1500  0 */\n      0x00\n        /* \"Twitter_dummy.sol\":1457:1467  tweetLikes */\n      0x02\n        /* \"Twitter_dummy.sol\":1457:1476  tweetLikes[_author] */\n      0x00\n        /* \"Twitter_dummy.sol\":1468:1475  _author */\n      dup5\n        /* \"Twitter_dummy.sol\":1457:1476  tweetLikes[_author] */\n      0xffffffffffffffffffffffffffffffffffffffff\n      and\n      0xffffffffffffffffffffffffffffffffffffffff\n      and\n      dup2\n      mstore\n      0x20\n      add\n      swap1\n      dup2\n      mstore\n      0x20\n      add\n      0x00\n      keccak256\n        /* \"Twitter_dummy.sol\":1457:1484  tweetLikes[_author][_index] */\n      0x00\n        /* \"Twitter_dummy.sol\":1477:1483  _index */\n      dup4\n        /* \"Twitter_dummy.sol\":1457:1484  tweetLikes[_author][_index] */\n      dup2\n      mstore\n      0x20\n      add\n      swap1\n      dup2\n      mstore\n      0x20\n      add\n      0x00\n      keccak256\n        /* \"Twitter_dummy.sol\":1457:1496  tweetLikes[_author][_index][msg.sender] */\n      0x00\n        /* \"Twitter_dummy.sol\":1485:1495  msg.sender */\n      caller\n        /* \"Twitter_dummy.sol\":1457:1496  tweetLikes[_author][_index][msg.sender] */\n      0xffffffffffffffffffffffffffffffffffffffff\n      and\n      0xffffffffffffffffffffffffffffffffffffffff\n      and\n      dup2\n      mstore\n      0x20\n      add\n      swap1\n      dup2\n      mstore\n      0x20\n      add\n      0x00\n      keccak256\n      0x00\n        /* \"Twitter_dummy.sol\":1457:1500  tweetLikes[_author][_index][msg.sender] = 0 */\n      0x0100\n      exp\n      dup2\n      sload\n      dup2\n      0xff\n      mul\n      not\n      and\n      swap1\n      dup4\n      0xff\n      and\n      mul\n      or\n      swap1\n      sstore\n      pop\n        /* \"Twitter_dummy.sol\":1180:1512  if (tweetLikes[_author][_index][msg.sender] == 0) {... */\n    tag_72:\n        /* \"Twitter_dummy.sol\":1040:1519  function toggleLike(address _author, uint _index) public {... */\n      pop\n      pop\n      jump\t// out\n        /* \"Twitter_dummy.sol\":345:425  mapping(address => mapping(uint => mapping(address => uint8))) public tweetLikes */\n    tag_29:\n      mstore(0x20, 0x02)\n      dup3\n      0x00\n      mstore\n      mstore(0x20, keccak256(0x00, 0x40))\n      dup2\n      0x00\n      mstore\n      mstore(0x20, keccak256(0x00, 0x40))\n      dup1\n      0x00\n      mstore\n      keccak256(0x00, 0x40)\n      0x00\n      swap3\n      pop\n      swap3\n      pop\n      pop\n      swap1\n      sload\n      swap1\n      0x0100\n      exp\n      swap1\n      div\n      0xff\n      and\n      dup2\n      jump\t// out\n        /* \"Twitter_dummy.sol\":86:122  uint16 public MAX_TWEET_LENGTH = 280 */\n    tag_33:\n      0x00\n      0x00\n      swap1\n      sload\n      swap1\n      0x0100\n      exp\n      swap1\n      div\n      0xffff\n      and\n      dup2\n      jump\t// out\n        /* \"Twitter_dummy.sol\":636:880  function createTweet(string memory _tweet) public {... */\n    tag_39:\n        /* \"Twitter_dummy.sol\":729:745  MAX_TWEET_LENGTH */\n      0x00\n      0x00\n      swap1\n      sload\n      swap1\n      0x0100\n      exp\n      swap1\n      div\n      0xffff\n      and\n        /* \"Twitter_dummy.sol\":705:745  bytes(_tweet).length <= MAX_TWEET_LENGTH */\n      0xffff\n      and\n        /* \"Twitter_dummy.sol\":711:717  _tweet */\n      dup2\n        /* \"Twitter_dummy.sol\":705:725  bytes(_tweet).length */\n      mload\n        /* \"Twitter_dummy.sol\":705:745  bytes(_tweet).length <= MAX_TWEET_LENGTH */\n      gt\n      iszero\n        /* \"Twitter_dummy.sol\":697:765  require(bytes(_tweet).length <= MAX_TWEET_LENGTH, \"Tweet too long!\") */\n      tag_79\n      jumpi\n      mload(0x40)\n      0x08c379a000000000000000000000000000000000000000000000000000000000\n      dup2\n      mstore\n      0x04\n      add\n      tag_80\n      swap1\n      tag_81\n      jump\t// in\n    tag_80:\n      mload(0x40)\n      dup1\n      swap2\n      sub\n      swap1\n      revert\n    tag_79:\n        /* \"Twitter_dummy.sol\":778:784  tweets */\n      0x01\n        /* \"Twitter_dummy.sol\":778:796  tweets[msg.sender] */\n      0x00\n        /* \"Twitter_dummy.sol\":785:795  msg.sender */\n      caller\n        /* \"Twitter_dummy.sol\":778:796  tweets[msg.sender] */\n      0xffffffffffffffffffffffffffffffffffffffff\n      and\n      0xffffffffffffffffffffffffffffffffffffffff\n      and\n      dup2\n      mstore\n      0x20\n      add\n      swap1\n      dup2\n      mstore\n      0x20\n      add\n      0x00\n      keccak256\n        /* \"Twitter_dummy.sol\":816:861  Tweet(msg.sender, _tweet, block.timestamp, 0) */\n      mload(0x40)\n      dup1\n      0x80\n      add\n      0x40\n      mstore\n      dup1\n        /* \"Twitter_dummy.sol\":822:832  msg.sender */\n      caller\n        /* \"Twitter_dummy.sol\":816:861  Tweet(msg.sender, _tweet, block.timestamp, 0) */\n      0xffffffffffffffffffffffffffffffffffffffff\n      and\n      dup2\n      mstore\n      0x20\n      add\n        /* \"Twitter_dummy.sol\":834:840  _tweet */\n      dup4\n        /* \"Twitter_dummy.sol\":816:861  Tweet(msg.sender, _tweet, block.timestamp, 0) */\n      dup2\n      mstore\n      0x20\n      add\n        /* \"Twitter_dummy.sol\":842:857  block.timestamp */\n      timestamp\n        /* \"Twitter_dummy.sol\":816:861  Tweet(msg.sender, _tweet, block.timestamp, 0) */\n      dup2\n      mstore\n      0x20\n      add\n        /* \"Twitter_dummy.sol\":859:860  0 */\n      0x00\n        /* \"Twitter_dummy.sol\":816:861  Tweet(msg.sender, _tweet, block.timestamp, 0) */\n      dup2\n      mstore\n      pop\n        /* \"Twitter_dummy.sol\":778:872  tweets[msg.sender].push(... */\n      swap1\n      dup1\n      0x01\n      dup2\n      sload\n      add\n      dup1\n      dup3\n      sstore\n      dup1\n      swap2\n      pop\n      pop\n      0x01\n      swap1\n      sub\n      swap1\n      0x00\n      mstore\n      keccak256(0x00, 0x20)\n      swap1\n      0x04\n      mul\n      add\n      0x00\n      swap1\n      swap2\n      swap1\n      swap2\n      swap1\n      swap2\n      pop\n      0x00\n      dup3\n      add\n      mload\n      dup2\n      0x00\n      add\n      exp(0x0100, 0x00)\n      dup2\n      sload\n      dup2\n      0xffffffffffffffffffffffffffffffffffffffff\n      mul\n      not\n      and\n      swap1\n      dup4\n      0xffffffffffffffffffffffffffffffffffffffff\n      and\n      mul\n      or\n      swap1\n      sstore\n      pop\n      0x20\n      dup3\n      add\n      mload\n      dup2\n      0x01\n      add\n      swap1\n      dup2\n      tag_83\n      swap2\n      swap1\n      tag_84\n      jump\t// in\n    tag_83:\n      pop\n      0x40\n      dup3\n      add\n      mload\n      dup2\n      0x02\n      add\n      sstore\n      0x60\n      dup3\n      add\n      mload\n      dup2\n      0x03\n      add\n      sstore\n      pop\n      pop\n        /* \"Twitter_dummy.sol\":636:880  function createTweet(string memory _tweet) public {... */\n      pop\n      jump\t// out\n        /* \"Twitter_dummy.sol\":434:454  address public owner */\n    tag_41:\n      0x03\n      0x00\n      swap1\n      sload\n      swap1\n      0x0100\n      exp\n      swap1\n      div\n      0xffffffffffffffffffffffffffffffffffffffff\n      and\n      dup2\n      jump\t// out\n        /* \"#utility.yul\":7:82   */\n    tag_85:\n        /* \"#utility.yul\":40:46   */\n      0x00\n        /* \"#utility.yul\":73:75   */\n      0x40\n        /* \"#utility.yul\":67:76   */\n      mload\n        /* \"#utility.yul\":57:76   */\n      swap1\n      pop\n        /* \"#utility.yul\":7:82   */\n      swap1\n      jump\t// out\n        /* \"#utility.yul\":88:205   */\n    tag_86:\n        /* \"#utility.yul\":197:198   */\n      0x00\n        /* \"#utility.yul\":194:195   */\n      0x00\n        /* \"#utility.yul\":187:199   */\n      revert\n        /* \"#utility.yul\":211:328   */\n    tag_87:\n        /* \"#utility.yul\":320:321   */\n      0x00\n        /* \"#utility.yul\":317:318   */\n      0x00\n        /* \"#utility.yul\":310:322   */\n      revert\n        /* \"#utility.yul\":334:460   */\n    tag_88:\n        /* \"#utility.yul\":371:378   */\n      0x00\n        /* \"#utility.yul\":411:453   */\n      0xffffffffffffffffffffffffffffffffffffffff\n        /* \"#utility.yul\":404:409   */\n      dup3\n        /* \"#utility.yul\":400:454   */\n      and\n        /* \"#utility.yul\":389:454   */\n      swap1\n      pop\n        /* \"#utility.yul\":334:460   */\n      swap2\n      swap1\n      pop\n      jump\t// out\n        /* \"#utility.yul\":466:562   */\n    tag_89:\n        /* \"#utility.yul\":503:510   */\n      0x00\n        /* \"#utility.yul\":532:556   */\n      tag_153\n        /* \"#utility.yul\":550:555   */\n      dup3\n        /* \"#utility.yul\":532:556   */\n      tag_88\n      jump\t// in\n    tag_153:\n        /* \"#utility.yul\":521:556   */\n      swap1\n      pop\n        /* \"#utility.yul\":466:562   */\n      swap2\n      swap1\n      pop\n      jump\t// out\n        /* \"#utility.yul\":568:690   */\n    tag_90:\n        /* \"#utility.yul\":641:665   */\n      tag_155\n        /* \"#utility.yul\":659:664   */\n      dup2\n        /* \"#utility.yul\":641:665   */\n      tag_89\n      jump\t// in\n    tag_155:\n        /* \"#utility.yul\":634:639   */\n      dup2\n        /* \"#utility.yul\":631:666   */\n      eq\n        /* \"#utility.yul\":621:684   */\n      tag_156\n      jumpi\n        /* \"#utility.yul\":680:681   */\n      0x00\n        /* \"#utility.yul\":677:678   */\n      0x00\n        /* \"#utility.yul\":670:682   */\n      revert\n        /* \"#utility.yul\":621:684   */\n    tag_156:\n        /* \"#utility.yul\":568:690   */\n      pop\n      jump\t// out\n        /* \"#utility.yul\":696:835   */\n    tag_91:\n        /* \"#utility.yul\":742:747   */\n      0x00\n        /* \"#utility.yul\":780:786   */\n      dup2\n        /* \"#utility.yul\":767:787   */\n      calldataload\n        /* \"#utility.yul\":758:787   */\n      swap1\n      pop\n        /* \"#utility.yul\":796:829   */\n      tag_158\n        /* \"#utility.yul\":823:828   */\n      dup2\n        /* \"#utility.yul\":796:829   */\n      tag_90\n      jump\t// in\n    tag_158:\n        /* \"#utility.yul\":696:835   */\n      swap3\n      swap2\n      pop\n      pop\n      jump\t// out\n        /* \"#utility.yul\":841:918   */\n    tag_92:\n        /* \"#utility.yul\":878:885   */\n      0x00\n        /* \"#utility.yul\":907:912   */\n      dup2\n        /* \"#utility.yul\":896:912   */\n      swap1\n      pop\n        /* \"#utility.yul\":841:918   */\n      swap2\n      swap1\n      pop\n      jump\t// out\n        /* \"#utility.yul\":924:1046   */\n    tag_93:\n        /* \"#utility.yul\":997:1021   */\n      tag_161\n        /* \"#utility.yul\":1015:1020   */\n      dup2\n        /* \"#utility.yul\":997:1021   */\n      tag_92\n      jump\t// in\n    tag_161:\n        /* \"#utility.yul\":990:995   */\n      dup2\n        /* \"#utility.yul\":987:1022   */\n      eq\n        /* \"#utility.yul\":977:1040   */\n      tag_162\n      jumpi\n        /* \"#utility.yul\":1036:1037   */\n      0x00\n        /* \"#utility.yul\":1033:1034   */\n      0x00\n        /* \"#utility.yul\":1026:1038   */\n      revert\n        /* \"#utility.yul\":977:1040   */\n    tag_162:\n        /* \"#utility.yul\":924:1046   */\n      pop\n      jump\t// out\n        /* \"#utility.yul\":1052:1191   */\n    tag_94:\n        /* \"#utility.yul\":1098:1103   */\n      0x00\n        /* \"#utility.yul\":1136:1142   */\n      dup2\n        /* \"#utility.yul\":1123:1143   */\n      calldataload\n        /* \"#utility.yul\":1114:1143   */\n      swap1\n      pop\n        /* \"#utility.yul\":1152:1185   */\n      tag_164\n        /* \"#utility.yul\":1179:1184   */\n      dup2\n        /* \"#utility.yul\":1152:1185   */\n      tag_93\n      jump\t// in\n    tag_164:\n        /* \"#utility.yul\":1052:1191   */\n      swap3\n      swap2\n      pop\n      pop\n      jump\t// out\n        /* \"#utility.yul\":1197:1671   */\n    tag_13:\n        /* \"#utility.yul\":1265:1271   */\n      0x00\n        /* \"#utility.yul\":1273:1279   */\n      0x00\n        /* \"#utility.yul\":1322:1324   */\n      0x40\n        /* \"#utility.yul\":1310:1319   */\n      dup4\n        /* \"#utility.yul\":1301:1308   */\n      dup6\n        /* \"#utility.yul\":1297:1320   */\n      sub\n        /* \"#utility.yul\":1293:1325   */\n      slt\n        /* \"#utility.yul\":1290:1409   */\n      iszero\n      tag_166\n      jumpi\n        /* \"#utility.yul\":1328:1407   */\n      tag_167\n      tag_86\n      jump\t// in\n    tag_167:\n        /* \"#utility.yul\":1290:1409   */\n    tag_166:\n        /* \"#utility.yul\":1448:1449   */\n      0x00\n        /* \"#utility.yul\":1473:1526   */\n      tag_168\n        /* \"#utility.yul\":1518:1525   */\n      dup6\n        /* \"#utility.yul\":1509:1515   */\n      dup3\n        /* \"#utility.yul\":1498:1507   */\n      dup7\n        /* \"#utility.yul\":1494:1516   */\n      add\n        /* \"#utility.yul\":1473:1526   */\n      tag_91\n      jump\t// in\n    tag_168:\n        /* \"#utility.yul\":1463:1526   */\n      swap3\n      pop\n        /* \"#utility.yul\":1419:1536   */\n      pop\n        /* \"#utility.yul\":1575:1577   */\n      0x20\n        /* \"#utility.yul\":1601:1654   */\n      tag_169\n        /* \"#utility.yul\":1646:1653   */\n      dup6\n        /* \"#utility.yul\":1637:1643   */\n      dup3\n        /* \"#utility.yul\":1626:1635   */\n      dup7\n        /* \"#utility.yul\":1622:1644   */\n      add\n        /* \"#utility.yul\":1601:1654   */\n      tag_94\n      jump\t// in\n    tag_169:\n        /* \"#utility.yul\":1591:1654   */\n      swap2\n      pop\n        /* \"#utility.yul\":1546:1664   */\n      pop\n        /* \"#utility.yul\":1197:1671   */\n      swap3\n      pop\n      swap3\n      swap1\n      pop\n      jump\t// out\n        /* \"#utility.yul\":1677:1795   */\n    tag_95:\n        /* \"#utility.yul\":1764:1788   */\n      tag_171\n        /* \"#utility.yul\":1782:1787   */\n      dup2\n        /* \"#utility.yul\":1764:1788   */\n      tag_89\n      jump\t// in\n    tag_171:\n        /* \"#utility.yul\":1759:1762   */\n      dup3\n        /* \"#utility.yul\":1752:1789   */\n      mstore\n        /* \"#utility.yul\":1677:1795   */\n      pop\n      pop\n      jump\t// out\n        /* \"#utility.yul\":1801:1900   */\n    tag_96:\n        /* \"#utility.yul\":1853:1859   */\n      0x00\n        /* \"#utility.yul\":1887:1892   */\n      dup2\n        /* \"#utility.yul\":1881:1893   */\n      mload\n        /* \"#utility.yul\":1871:1893   */\n      swap1\n      pop\n        /* \"#utility.yul\":1801:1900   */\n      swap2\n      swap1\n      pop\n      jump\t// out\n        /* \"#utility.yul\":1906:2075   */\n    tag_97:\n        /* \"#utility.yul\":1990:2001   */\n      0x00\n        /* \"#utility.yul\":2024:2030   */\n      dup3\n        /* \"#utility.yul\":2019:2022   */\n      dup3\n        /* \"#utility.yul\":2012:2031   */\n      mstore\n        /* \"#utility.yul\":2064:2068   */\n      0x20\n        /* \"#utility.yul\":2059:2062   */\n      dup3\n        /* \"#utility.yul\":2055:2069   */\n      add\n        /* \"#utility.yul\":2040:2069   */\n      swap1\n      pop\n        /* \"#utility.yul\":1906:2075   */\n      swap3\n      swap2\n      pop\n      pop\n      jump\t// out\n        /* \"#utility.yul\":2081:2220   */\n    tag_98:\n        /* \"#utility.yul\":2170:2176   */\n      dup3\n        /* \"#utility.yul\":2165:2168   */\n      dup2\n        /* \"#utility.yul\":2160:2163   */\n      dup4\n        /* \"#utility.yul\":2154:2177   */\n      mcopy\n        /* \"#utility.yul\":2211:2212   */\n      0x00\n        /* \"#utility.yul\":2202:2208   */\n      dup4\n        /* \"#utility.yul\":2197:2200   */\n      dup4\n        /* \"#utility.yul\":2193:2209   */\n      add\n        /* \"#utility.yul\":2186:2213   */\n      mstore\n        /* \"#utility.yul\":2081:2220   */\n      pop\n      pop\n      pop\n      jump\t// out\n        /* \"#utility.yul\":2226:2328   */\n    tag_99:\n        /* \"#utility.yul\":2267:2273   */\n      0x00\n        /* \"#utility.yul\":2318:2320   */\n      0x1f\n        /* \"#utility.yul\":2314:2321   */\n      not\n        /* \"#utility.yul\":2309:2311   */\n      0x1f\n        /* \"#utility.yul\":2302:2307   */\n      dup4\n        /* \"#utility.yul\":2298:2312   */\n      add\n        /* \"#utility.yul\":2294:2322   */\n      and\n        /* \"#utility.yul\":2284:2322   */\n      swap1\n      pop\n        /* \"#utility.yul\":2226:2328   */\n      swap2\n      swap1\n      pop\n      jump\t// out\n        /* \"#utility.yul\":2334:2711   */\n    tag_100:\n        /* \"#utility.yul\":2422:2425   */\n      0x00\n        /* \"#utility.yul\":2450:2489   */\n      tag_177\n        /* \"#utility.yul\":2483:2488   */\n      dup3\n        /* \"#utility.yul\":2450:2489   */\n      tag_96\n      jump\t// in\n    tag_177:\n        /* \"#utility.yul\":2505:2576   */\n      tag_178\n        /* \"#utility.yul\":2569:2575   */\n      dup2\n        /* \"#utility.yul\":2564:2567   */\n      dup6\n        /* \"#utility.yul\":2505:2576   */\n      tag_97\n      jump\t// in\n    tag_178:\n        /* \"#utility.yul\":2498:2576   */\n      swap4\n      pop\n        /* \"#utility.yul\":2585:2650   */\n      tag_179\n        /* \"#utility.yul\":2643:2649   */\n      dup2\n        /* \"#utility.yul\":2638:2641   */\n      dup6\n        /* \"#utility.yul\":2631:2635   */\n      0x20\n        /* \"#utility.yul\":2624:2629   */\n      dup7\n        /* \"#utility.yul\":2620:2636   */\n      add\n        /* \"#utility.yul\":2585:2650   */\n      tag_98\n      jump\t// in\n    tag_179:\n        /* \"#utility.yul\":2675:2704   */\n      tag_180\n        /* \"#utility.yul\":2697:2703   */\n      dup2\n        /* \"#utility.yul\":2675:2704   */\n      tag_99\n      jump\t// in\n    tag_180:\n        /* \"#utility.yul\":2670:2673   */\n      dup5\n        /* \"#utility.yul\":2666:2705   */\n      add\n        /* \"#utility.yul\":2659:2705   */\n      swap2\n      pop\n        /* \"#utility.yul\":2426:2711   */\n      pop\n        /* \"#utility.yul\":2334:2711   */\n      swap3\n      swap2\n      pop\n      pop\n      jump\t// out\n        /* \"#utility.yul\":2717:2835   */\n    tag_101:\n        /* \"#utility.yul\":2804:2828   */\n      tag_182\n        /* \"#utility.yul\":2822:2827   */\n      dup2\n        /* \"#utility.yul\":2804:2828   */\n      tag_92\n      jump\t// in\n    tag_182:\n        /* \"#utility.yul\":2799:2802   */\n      dup3\n        /* \"#utility.yul\":2792:2829   */\n      mstore\n        /* \"#utility.yul\":2717:2835   */\n      pop\n      pop\n      jump\t// out\n        /* \"#utility.yul\":2841:3485   */\n    tag_16:\n        /* \"#utility.yul\":3038:3042   */\n      0x00\n        /* \"#utility.yul\":3076:3079   */\n      0x80\n        /* \"#utility.yul\":3065:3074   */\n      dup3\n        /* \"#utility.yul\":3061:3080   */\n      add\n        /* \"#utility.yul\":3053:3080   */\n      swap1\n      pop\n        /* \"#utility.yul\":3090:3161   */\n      tag_184\n        /* \"#utility.yul\":3158:3159   */\n      0x00\n        /* \"#utility.yul\":3147:3156   */\n      dup4\n        /* \"#utility.yul\":3143:3160   */\n      add\n        /* \"#utility.yul\":3134:3140   */\n      dup8\n        /* \"#utility.yul\":3090:3161   */\n      tag_95\n      jump\t// in\n    tag_184:\n        /* \"#utility.yul\":3208:3217   */\n      dup2\n        /* \"#utility.yul\":3202:3206   */\n      dup2\n        /* \"#utility.yul\":3198:3218   */\n      sub\n        /* \"#utility.yul\":3193:3195   */\n      0x20\n        /* \"#utility.yul\":3182:3191   */\n      dup4\n        /* \"#utility.yul\":3178:3196   */\n      add\n        /* \"#utility.yul\":3171:3219   */\n      mstore\n        /* \"#utility.yul\":3236:3314   */\n      tag_185\n        /* \"#utility.yul\":3309:3313   */\n      dup2\n        /* \"#utility.yul\":3300:3306   */\n      dup7\n        /* \"#utility.yul\":3236:3314   */\n      tag_100\n      jump\t// in\n    tag_185:\n        /* \"#utility.yul\":3228:3314   */\n      swap1\n      pop\n        /* \"#utility.yul\":3324:3396   */\n      tag_186\n        /* \"#utility.yul\":3392:3394   */\n      0x40\n        /* \"#utility.yul\":3381:3390   */\n      dup4\n        /* \"#utility.yul\":3377:3395   */\n      add\n        /* \"#utility.yul\":3368:3374   */\n      dup6\n        /* \"#utility.yul\":3324:3396   */\n      tag_101\n      jump\t// in\n    tag_186:\n        /* \"#utility.yul\":3406:3478   */\n      tag_187\n        /* \"#utility.yul\":3474:3476   */\n      0x60\n        /* \"#utility.yul\":3463:3472   */\n      dup4\n        /* \"#utility.yul\":3459:3477   */\n      add\n        /* \"#utility.yul\":3450:3456   */\n      dup5\n        /* \"#utility.yul\":3406:3478   */\n      tag_101\n      jump\t// in\n    tag_187:\n        /* \"#utility.yul\":2841:3485   */\n      swap6\n      swap5\n      pop\n      pop\n      pop\n      pop\n      pop\n      jump\t// out\n        /* \"#utility.yul\":3491:3820   */\n    tag_19:\n        /* \"#utility.yul\":3550:3556   */\n      0x00\n        /* \"#utility.yul\":3599:3601   */\n      0x20\n        /* \"#utility.yul\":3587:3596   */\n      dup3\n        /* \"#utility.yul\":3578:3585   */\n      dup5\n        /* \"#utility.yul\":3574:3597   */\n      sub\n        /* \"#utility.yul\":3570:3602   */\n      slt\n        /* \"#utility.yul\":3567:3686   */\n      iszero\n      tag_189\n      jumpi\n        /* \"#utility.yul\":3605:3684   */\n      tag_190\n      tag_86\n      jump\t// in\n    tag_190:\n        /* \"#utility.yul\":3567:3686   */\n    tag_189:\n        /* \"#utility.yul\":3725:3726   */\n      0x00\n        /* \"#utility.yul\":3750:3803   */\n      tag_191\n        /* \"#utility.yul\":3795:3802   */\n      dup5\n        /* \"#utility.yul\":3786:3792   */\n      dup3\n        /* \"#utility.yul\":3775:3784   */\n      dup6\n        /* \"#utility.yul\":3771:3793   */\n      add\n        /* \"#utility.yul\":3750:3803   */\n      tag_91\n      jump\t// in\n    tag_191:\n        /* \"#utility.yul\":3740:3803   */\n      swap2\n      pop\n        /* \"#utility.yul\":3696:3813   */\n      pop\n        /* \"#utility.yul\":3491:3820   */\n      swap3\n      swap2\n      pop\n      pop\n      jump\t// out\n        /* \"#utility.yul\":3826:3961   */\n    tag_102:\n        /* \"#utility.yul\":3914:3920   */\n      0x00\n        /* \"#utility.yul\":3948:3953   */\n      dup2\n        /* \"#utility.yul\":3942:3954   */\n      mload\n        /* \"#utility.yul\":3932:3954   */\n      swap1\n      pop\n        /* \"#utility.yul\":3826:3961   */\n      swap2\n      swap1\n      pop\n      jump\t// out\n        /* \"#utility.yul\":3967:4172   */\n    tag_103:\n        /* \"#utility.yul\":4087:4098   */\n      0x00\n        /* \"#utility.yul\":4121:4127   */\n      dup3\n        /* \"#utility.yul\":4116:4119   */\n      dup3\n        /* \"#utility.yul\":4109:4128   */\n      mstore\n        /* \"#utility.yul\":4161:4165   */\n      0x20\n        /* \"#utility.yul\":4156:4159   */\n      dup3\n        /* \"#utility.yul\":4152:4166   */\n      add\n        /* \"#utility.yul\":4137:4166   */\n      swap1\n      pop\n        /* \"#utility.yul\":3967:4172   */\n      swap3\n      swap2\n      pop\n      pop\n      jump\t// out\n        /* \"#utility.yul\":4178:4331   */\n    tag_104:\n        /* \"#utility.yul\":4266:4270   */\n      0x00\n        /* \"#utility.yul\":4289:4292   */\n      dup2\n        /* \"#utility.yul\":4281:4292   */\n      swap1\n      pop\n        /* \"#utility.yul\":4319:4323   */\n      0x20\n        /* \"#utility.yul\":4314:4317   */\n      dup3\n        /* \"#utility.yul\":4310:4324   */\n      add\n        /* \"#utility.yul\":4302:4324   */\n      swap1\n      pop\n        /* \"#utility.yul\":4178:4331   */\n      swap2\n      swap1\n      pop\n      jump\t// out\n        /* \"#utility.yul\":4337:4445   */\n    tag_105:\n        /* \"#utility.yul\":4414:4438   */\n      tag_196\n        /* \"#utility.yul\":4432:4437   */\n      dup2\n        /* \"#utility.yul\":4414:4438   */\n      tag_89\n      jump\t// in\n    tag_196:\n        /* \"#utility.yul\":4409:4412   */\n      dup3\n        /* \"#utility.yul\":4402:4439   */\n      mstore\n        /* \"#utility.yul\":4337:4445   */\n      pop\n      pop\n      jump\t// out\n        /* \"#utility.yul\":4451:4610   */\n    tag_106:\n        /* \"#utility.yul\":4525:4536   */\n      0x00\n        /* \"#utility.yul\":4559:4565   */\n      dup3\n        /* \"#utility.yul\":4554:4557   */\n      dup3\n        /* \"#utility.yul\":4547:4566   */\n      mstore\n        /* \"#utility.yul\":4599:4603   */\n      0x20\n        /* \"#utility.yul\":4594:4597   */\n      dup3\n        /* \"#utility.yul\":4590:4604   */\n      add\n        /* \"#utility.yul\":4575:4604   */\n      swap1\n      pop\n        /* \"#utility.yul\":4451:4610   */\n      swap3\n      swap2\n      pop\n      pop\n      jump\t// out\n        /* \"#utility.yul\":4616:4973   */\n    tag_107:\n        /* \"#utility.yul\":4694:4697   */\n      0x00\n        /* \"#utility.yul\":4722:4761   */\n      tag_199\n        /* \"#utility.yul\":4755:4760   */\n      dup3\n        /* \"#utility.yul\":4722:4761   */\n      tag_96\n      jump\t// in\n    tag_199:\n        /* \"#utility.yul\":4777:4838   */\n      tag_200\n        /* \"#utility.yul\":4831:4837   */\n      dup2\n        /* \"#utility.yul\":4826:4829   */\n      dup6\n        /* \"#utility.yul\":4777:4838   */\n      tag_106\n      jump\t// in\n    tag_200:\n        /* \"#utility.yul\":4770:4838   */\n      swap4\n      pop\n        /* \"#utility.yul\":4847:4912   */\n      tag_201\n        /* \"#utility.yul\":4905:4911   */\n      dup2\n        /* \"#utility.yul\":4900:4903   */\n      dup6\n        /* \"#utility.yul\":4893:4897   */\n      0x20\n        /* \"#utility.yul\":4886:4891   */\n      dup7\n        /* \"#utility.yul\":4882:4898   */\n      add\n        /* \"#utility.yul\":4847:4912   */\n      tag_98\n      jump\t// in\n    tag_201:\n        /* \"#utility.yul\":4937:4966   */\n      tag_202\n        /* \"#utility.yul\":4959:4965   */\n      dup2\n        /* \"#utility.yul\":4937:4966   */\n      tag_99\n      jump\t// in\n    tag_202:\n        /* \"#utility.yul\":4932:4935   */\n      dup5\n        /* \"#utility.yul\":4928:4967   */\n      add\n        /* \"#utility.yul\":4921:4967   */\n      swap2\n      pop\n        /* \"#utility.yul\":4698:4973   */\n      pop\n        /* \"#utility.yul\":4616:4973   */\n      swap3\n      swap2\n      pop\n      pop\n      jump\t// out\n        /* \"#utility.yul\":4979:5087   */\n    tag_108:\n        /* \"#utility.yul\":5056:5080   */\n      tag_204\n        /* \"#utility.yul\":5074:5079   */\n      dup2\n        /* \"#utility.yul\":5056:5080   */\n      tag_92\n      jump\t// in\n    tag_204:\n        /* \"#utility.yul\":5051:5054   */\n      dup3\n        /* \"#utility.yul\":5044:5081   */\n      mstore\n        /* \"#utility.yul\":4979:5087   */\n      pop\n      pop\n      jump\t// out\n        /* \"#utility.yul\":5145:6092   */\n    tag_109:\n        /* \"#utility.yul\":5246:5249   */\n      0x00\n        /* \"#utility.yul\":5282:5286   */\n      0x80\n        /* \"#utility.yul\":5277:5280   */\n      dup4\n        /* \"#utility.yul\":5273:5287   */\n      add\n        /* \"#utility.yul\":5371:5375   */\n      0x00\n        /* \"#utility.yul\":5364:5369   */\n      dup4\n        /* \"#utility.yul\":5360:5376   */\n      add\n        /* \"#utility.yul\":5354:5377   */\n      mload\n        /* \"#utility.yul\":5390:5453   */\n      tag_206\n        /* \"#utility.yul\":5447:5451   */\n      0x00\n        /* \"#utility.yul\":5442:5445   */\n      dup7\n        /* \"#utility.yul\":5438:5452   */\n      add\n        /* \"#utility.yul\":5424:5436   */\n      dup3\n        /* \"#utility.yul\":5390:5453   */\n      tag_105\n      jump\t// in\n    tag_206:\n        /* \"#utility.yul\":5297:5463   */\n      pop\n        /* \"#utility.yul\":5548:5552   */\n      0x20\n        /* \"#utility.yul\":5541:5546   */\n      dup4\n        /* \"#utility.yul\":5537:5553   */\n      add\n        /* \"#utility.yul\":5531:5554   */\n      mload\n        /* \"#utility.yul\":5601:5604   */\n      dup5\n        /* \"#utility.yul\":5595:5599   */\n      dup3\n        /* \"#utility.yul\":5591:5605   */\n      sub\n        /* \"#utility.yul\":5584:5588   */\n      0x20\n        /* \"#utility.yul\":5579:5582   */\n      dup7\n        /* \"#utility.yul\":5575:5589   */\n      add\n        /* \"#utility.yul\":5568:5606   */\n      mstore\n        /* \"#utility.yul\":5627:5700   */\n      tag_207\n        /* \"#utility.yul\":5695:5699   */\n      dup3\n        /* \"#utility.yul\":5681:5693   */\n      dup3\n        /* \"#utility.yul\":5627:5700   */\n      tag_107\n      jump\t// in\n    tag_207:\n        /* \"#utility.yul\":5619:5700   */\n      swap2\n      pop\n        /* \"#utility.yul\":5473:5711   */\n      pop\n        /* \"#utility.yul\":5798:5802   */\n      0x40\n        /* \"#utility.yul\":5791:5796   */\n      dup4\n        /* \"#utility.yul\":5787:5803   */\n      add\n        /* \"#utility.yul\":5781:5804   */\n      mload\n        /* \"#utility.yul\":5817:5880   */\n      tag_208\n        /* \"#utility.yul\":5874:5878   */\n      0x40\n        /* \"#utility.yul\":5869:5872   */\n      dup7\n        /* \"#utility.yul\":5865:5879   */\n      add\n        /* \"#utility.yul\":5851:5863   */\n      dup3\n        /* \"#utility.yul\":5817:5880   */\n      tag_108\n      jump\t// in\n    tag_208:\n        /* \"#utility.yul\":5721:5890   */\n      pop\n        /* \"#utility.yul\":5973:5977   */\n      0x60\n        /* \"#utility.yul\":5966:5971   */\n      dup4\n        /* \"#utility.yul\":5962:5978   */\n      add\n        /* \"#utility.yul\":5956:5979   */\n      mload\n        /* \"#utility.yul\":5992:6055   */\n      tag_209\n        /* \"#utility.yul\":6049:6053   */\n      0x60\n        /* \"#utility.yul\":6044:6047   */\n      dup7\n        /* \"#utility.yul\":6040:6054   */\n      add\n        /* \"#utility.yul\":6026:6038   */\n      dup3\n        /* \"#utility.yul\":5992:6055   */\n      tag_108\n      jump\t// in\n    tag_209:\n        /* \"#utility.yul\":5900:6065   */\n      pop\n        /* \"#utility.yul\":6082:6086   */\n      dup1\n        /* \"#utility.yul\":6075:6086   */\n      swap2\n      pop\n        /* \"#utility.yul\":5251:6092   */\n      pop\n        /* \"#utility.yul\":5145:6092   */\n      swap3\n      swap2\n      pop\n      pop\n      jump\t// out\n        /* \"#utility.yul\":6098:6338   */\n    tag_110:\n        /* \"#utility.yul\":6209:6219   */\n      0x00\n        /* \"#utility.yul\":6244:6332   */\n      tag_211\n        /* \"#utility.yul\":6328:6331   */\n      dup4\n        /* \"#utility.yul\":6320:6326   */\n      dup4\n        /* \"#utility.yul\":6244:6332   */\n      tag_109\n      jump\t// in\n    tag_211:\n        /* \"#utility.yul\":6230:6332   */\n      swap1\n      pop\n        /* \"#utility.yul\":6098:6338   */\n      swap3\n      swap2\n      pop\n      pop\n      jump\t// out\n        /* \"#utility.yul\":6344:6478   */\n    tag_111:\n        /* \"#utility.yul\":6435:6439   */\n      0x00\n        /* \"#utility.yul\":6467:6471   */\n      0x20\n        /* \"#utility.yul\":6462:6465   */\n      dup3\n        /* \"#utility.yul\":6458:6472   */\n      add\n        /* \"#utility.yul\":6450:6472   */\n      swap1\n      pop\n        /* \"#utility.yul\":6344:6478   */\n      swap2\n      swap1\n      pop\n      jump\t// out\n        /* \"#utility.yul\":6540:7619   */\n    tag_112:\n        /* \"#utility.yul\":6701:6704   */\n      0x00\n        /* \"#utility.yul\":6730:6805   */\n      tag_214\n        /* \"#utility.yul\":6799:6804   */\n      dup3\n        /* \"#utility.yul\":6730:6805   */\n      tag_102\n      jump\t// in\n    tag_214:\n        /* \"#utility.yul\":6821:6928   */\n      tag_215\n        /* \"#utility.yul\":6921:6927   */\n      dup2\n        /* \"#utility.yul\":6916:6919   */\n      dup6\n        /* \"#utility.yul\":6821:6928   */\n      tag_103\n      jump\t// in\n    tag_215:\n        /* \"#utility.yul\":6814:6928   */\n      swap4\n      pop\n        /* \"#utility.yul\":6954:6957   */\n      dup4\n        /* \"#utility.yul\":6999:7003   */\n      0x20\n        /* \"#utility.yul\":6991:6997   */\n      dup3\n        /* \"#utility.yul\":6987:7004   */\n      mul\n        /* \"#utility.yul\":6982:6985   */\n      dup6\n        /* \"#utility.yul\":6978:7005   */\n      add\n        /* \"#utility.yul\":7029:7106   */\n      tag_216\n        /* \"#utility.yul\":7100:7105   */\n      dup6\n        /* \"#utility.yul\":7029:7106   */\n      tag_104\n      jump\t// in\n    tag_216:\n        /* \"#utility.yul\":7129:7136   */\n      dup1\n        /* \"#utility.yul\":7160:7161   */\n      0x00\n        /* \"#utility.yul\":7145:7574   */\n    tag_217:\n        /* \"#utility.yul\":7170:7176   */\n      dup6\n        /* \"#utility.yul\":7167:7168   */\n      dup2\n        /* \"#utility.yul\":7164:7177   */\n      lt\n        /* \"#utility.yul\":7145:7574   */\n      iszero\n      tag_219\n      jumpi\n        /* \"#utility.yul\":7241:7250   */\n      dup5\n        /* \"#utility.yul\":7235:7239   */\n      dup5\n        /* \"#utility.yul\":7231:7251   */\n      sub\n        /* \"#utility.yul\":7226:7229   */\n      dup10\n        /* \"#utility.yul\":7219:7252   */\n      mstore\n        /* \"#utility.yul\":7292:7298   */\n      dup2\n        /* \"#utility.yul\":7286:7299   */\n      mload\n        /* \"#utility.yul\":7320:7426   */\n      tag_220\n        /* \"#utility.yul\":7421:7425   */\n      dup6\n        /* \"#utility.yul\":7406:7419   */\n      dup3\n        /* \"#utility.yul\":7320:7426   */\n      tag_110\n      jump\t// in\n    tag_220:\n        /* \"#utility.yul\":7312:7426   */\n      swap5\n      pop\n        /* \"#utility.yul\":7449:7530   */\n      tag_221\n        /* \"#utility.yul\":7523:7529   */\n      dup4\n        /* \"#utility.yul\":7449:7530   */\n      tag_111\n      jump\t// in\n    tag_221:\n        /* \"#utility.yul\":7439:7530   */\n      swap3\n      pop\n        /* \"#utility.yul\":7559:7563   */\n      0x20\n        /* \"#utility.yul\":7554:7557   */\n      dup11\n        /* \"#utility.yul\":7550:7564   */\n      add\n        /* \"#utility.yul\":7543:7564   */\n      swap10\n      pop\n        /* \"#utility.yul\":7205:7574   */\n      pop\n        /* \"#utility.yul\":7192:7193   */\n      0x01\n        /* \"#utility.yul\":7189:7190   */\n      dup2\n        /* \"#utility.yul\":7185:7194   */\n      add\n        /* \"#utility.yul\":7180:7194   */\n      swap1\n      pop\n        /* \"#utility.yul\":7145:7574   */\n      jump(tag_217)\n    tag_219:\n        /* \"#utility.yul\":7149:7163   */\n      pop\n        /* \"#utility.yul\":7590:7594   */\n      dup3\n        /* \"#utility.yul\":7583:7594   */\n      swap8\n      pop\n        /* \"#utility.yul\":7610:7613   */\n      dup8\n        /* \"#utility.yul\":7603:7613   */\n      swap6\n      pop\n        /* \"#utility.yul\":6706:7619   */\n      pop\n      pop\n      pop\n      pop\n      pop\n        /* \"#utility.yul\":6540:7619   */\n      swap3\n      swap2\n      pop\n      pop\n      jump\t// out\n        /* \"#utility.yul\":7625:8082   */\n    tag_22:\n        /* \"#utility.yul\":7810:7814   */\n      0x00\n        /* \"#utility.yul\":7848:7850   */\n      0x20\n        /* \"#utility.yul\":7837:7846   */\n      dup3\n        /* \"#utility.yul\":7833:7851   */\n      add\n        /* \"#utility.yul\":7825:7851   */\n      swap1\n      pop\n        /* \"#utility.yul\":7897:7906   */\n      dup2\n        /* \"#utility.yul\":7891:7895   */\n      dup2\n        /* \"#utility.yul\":7887:7907   */\n      sub\n        /* \"#utility.yul\":7883:7884   */\n      0x00\n        /* \"#utility.yul\":7872:7881   */\n      dup4\n        /* \"#utility.yul\":7868:7885   */\n      add\n        /* \"#utility.yul\":7861:7908   */\n      mstore\n        /* \"#utility.yul\":7925:8075   */\n      tag_223\n        /* \"#utility.yul\":8070:8074   */\n      dup2\n        /* \"#utility.yul\":8061:8067   */\n      dup5\n        /* \"#utility.yul\":7925:8075   */\n      tag_112\n      jump\t// in\n    tag_223:\n        /* \"#utility.yul\":7917:8075   */\n      swap1\n      pop\n        /* \"#utility.yul\":7625:8082   */\n      swap3\n      swap2\n      pop\n      pop\n      jump\t// out\n        /* \"#utility.yul\":8088:8707   */\n    tag_28:\n        /* \"#utility.yul\":8165:8171   */\n      0x00\n        /* \"#utility.yul\":8173:8179   */\n      0x00\n        /* \"#utility.yul\":8181:8187   */\n      0x00\n        /* \"#utility.yul\":8230:8232   */\n      0x60\n        /* \"#utility.yul\":8218:8227   */\n      dup5\n        /* \"#utility.yul\":8209:8216   */\n      dup7\n        /* \"#utility.yul\":8205:8228   */\n      sub\n        /* \"#utility.yul\":8201:8233   */\n      slt\n        /* \"#utility.yul\":8198:8317   */\n      iszero\n      tag_225\n      jumpi\n        /* \"#utility.yul\":8236:8315   */\n      tag_226\n      tag_86\n      jump\t// in\n    tag_226:\n        /* \"#utility.yul\":8198:8317   */\n    tag_225:\n        /* \"#utility.yul\":8356:8357   */\n      0x00\n        /* \"#utility.yul\":8381:8434   */\n      tag_227\n        /* \"#utility.yul\":8426:8433   */\n      dup7\n        /* \"#utility.yul\":8417:8423   */\n      dup3\n        /* \"#utility.yul\":8406:8415   */\n      dup8\n        /* \"#utility.yul\":8402:8424   */\n      add\n        /* \"#utility.yul\":8381:8434   */\n      tag_91\n      jump\t// in\n    tag_227:\n        /* \"#utility.yul\":8371:8434   */\n      swap4\n      pop\n        /* \"#utility.yul\":8327:8444   */\n      pop\n        /* \"#utility.yul\":8483:8485   */\n      0x20\n        /* \"#utility.yul\":8509:8562   */\n      tag_228\n        /* \"#utility.yul\":8554:8561   */\n      dup7\n        /* \"#utility.yul\":8545:8551   */\n      dup3\n        /* \"#utility.yul\":8534:8543   */\n      dup8\n        /* \"#utility.yul\":8530:8552   */\n      add\n        /* \"#utility.yul\":8509:8562   */\n      tag_94\n      jump\t// in\n    tag_228:\n        /* \"#utility.yul\":8499:8562   */\n      swap3\n      pop\n        /* \"#utility.yul\":8454:8572   */\n      pop\n        /* \"#utility.yul\":8611:8613   */\n      0x40\n        /* \"#utility.yul\":8637:8690   */\n      tag_229\n        /* \"#utility.yul\":8682:8689   */\n      dup7\n        /* \"#utility.yul\":8673:8679   */\n      dup3\n        /* \"#utility.yul\":8662:8671   */\n      dup8\n        /* \"#utility.yul\":8658:8680   */\n      add\n        /* \"#utility.yul\":8637:8690   */\n      tag_91\n      jump\t// in\n    tag_229:\n        /* \"#utility.yul\":8627:8690   */\n      swap2\n      pop\n        /* \"#utility.yul\":8582:8700   */\n      pop\n        /* \"#utility.yul\":8088:8707   */\n      swap3\n      pop\n      swap3\n      pop\n      swap3\n      jump\t// out\n        /* \"#utility.yul\":8713:8799   */\n    tag_113:\n        /* \"#utility.yul\":8748:8755   */\n      0x00\n        /* \"#utility.yul\":8788:8792   */\n      0xff\n        /* \"#utility.yul\":8781:8786   */\n      dup3\n        /* \"#utility.yul\":8777:8793   */\n      and\n        /* \"#utility.yul\":8766:8793   */\n      swap1\n      pop\n        /* \"#utility.yul\":8713:8799   */\n      swap2\n      swap1\n      pop\n      jump\t// out\n        /* \"#utility.yul\":8805:8917   */\n    tag_114:\n        /* \"#utility.yul\":8888:8910   */\n      tag_232\n        /* \"#utility.yul\":8904:8909   */\n      dup2\n        /* \"#utility.yul\":8888:8910   */\n      tag_113\n      jump\t// in\n    tag_232:\n        /* \"#utility.yul\":8883:8886   */\n      dup3\n        /* \"#utility.yul\":8876:8911   */\n      mstore\n        /* \"#utility.yul\":8805:8917   */\n      pop\n      pop\n      jump\t// out\n        /* \"#utility.yul\":8923:9137   */\n    tag_31:\n        /* \"#utility.yul\":9012:9016   */\n      0x00\n        /* \"#utility.yul\":9050:9052   */\n      0x20\n        /* \"#utility.yul\":9039:9048   */\n      dup3\n        /* \"#utility.yul\":9035:9053   */\n      add\n        /* \"#utility.yul\":9027:9053   */\n      swap1\n      pop\n        /* \"#utility.yul\":9063:9130   */\n      tag_234\n        /* \"#utility.yul\":9127:9128   */\n      0x00\n        /* \"#utility.yul\":9116:9125   */\n      dup4\n        /* \"#utility.yul\":9112:9129   */\n      add\n        /* \"#utility.yul\":9103:9109   */\n      dup5\n        /* \"#utility.yul\":9063:9130   */\n      tag_114\n      jump\t// in\n    tag_234:\n        /* \"#utility.yul\":8923:9137   */\n      swap3\n      swap2\n      pop\n      pop\n      jump\t// out\n        /* \"#utility.yul\":9143:9232   */\n    tag_115:\n        /* \"#utility.yul\":9179:9186   */\n      0x00\n        /* \"#utility.yul\":9219:9225   */\n      0xffff\n        /* \"#utility.yul\":9212:9217   */\n      dup3\n        /* \"#utility.yul\":9208:9226   */\n      and\n        /* \"#utility.yul\":9197:9226   */\n      swap1\n      pop\n        /* \"#utility.yul\":9143:9232   */\n      swap2\n      swap1\n      pop\n      jump\t// out\n        /* \"#utility.yul\":9238:9353   */\n    tag_116:\n        /* \"#utility.yul\":9323:9346   */\n      tag_237\n        /* \"#utility.yul\":9340:9345   */\n      dup2\n        /* \"#utility.yul\":9323:9346   */\n      tag_115\n      jump\t// in\n    tag_237:\n        /* \"#utility.yul\":9318:9321   */\n      dup3\n        /* \"#utility.yul\":9311:9347   */\n      mstore\n        /* \"#utility.yul\":9238:9353   */\n      pop\n      pop\n      jump\t// out\n        /* \"#utility.yul\":9359:9577   */\n    tag_35:\n        /* \"#utility.yul\":9450:9454   */\n      0x00\n        /* \"#utility.yul\":9488:9490   */\n      0x20\n        /* \"#utility.yul\":9477:9486   */\n      dup3\n        /* \"#utility.yul\":9473:9491   */\n      add\n        /* \"#utility.yul\":9465:9491   */\n      swap1\n      pop\n        /* \"#utility.yul\":9501:9570   */\n      tag_239\n        /* \"#utility.yul\":9567:9568   */\n      0x00\n        /* \"#utility.yul\":9556:9565   */\n      dup4\n        /* \"#utility.yul\":9552:9569   */\n      add\n        /* \"#utility.yul\":9543:9549   */\n      dup5\n        /* \"#utility.yul\":9501:9570   */\n      tag_116\n      jump\t// in\n    tag_239:\n        /* \"#utility.yul\":9359:9577   */\n      swap3\n      swap2\n      pop\n      pop\n      jump\t// out\n        /* \"#utility.yul\":9583:9700   */\n    tag_117:\n        /* \"#utility.yul\":9692:9693   */\n      0x00\n        /* \"#utility.yul\":9689:9690   */\n      0x00\n        /* \"#utility.yul\":9682:9694   */\n      revert\n        /* \"#utility.yul\":9706:9823   */\n    tag_118:\n        /* \"#utility.yul\":9815:9816   */\n      0x00\n        /* \"#utility.yul\":9812:9813   */\n      0x00\n        /* \"#utility.yul\":9805:9817   */\n      revert\n        /* \"#utility.yul\":9829:10009   */\n    tag_119:\n        /* \"#utility.yul\":9877:9954   */\n      0x4e487b7100000000000000000000000000000000000000000000000000000000\n        /* \"#utility.yul\":9874:9875   */\n      0x00\n        /* \"#utility.yul\":9867:9955   */\n      mstore\n        /* \"#utility.yul\":9974:9978   */\n      0x41\n        /* \"#utility.yul\":9971:9972   */\n      0x04\n        /* \"#utility.yul\":9964:9979   */\n      mstore\n        /* \"#utility.yul\":9998:10002   */\n      0x24\n        /* \"#utility.yul\":9995:9996   */\n      0x00\n        /* \"#utility.yul\":9988:10003   */\n      revert\n        /* \"#utility.yul\":10015:10296   */\n    tag_120:\n        /* \"#utility.yul\":10098:10125   */\n      tag_244\n        /* \"#utility.yul\":10120:10124   */\n      dup3\n        /* \"#utility.yul\":10098:10125   */\n      tag_99\n      jump\t// in\n    tag_244:\n        /* \"#utility.yul\":10090:10096   */\n      dup2\n        /* \"#utility.yul\":10086:10126   */\n      add\n        /* \"#utility.yul\":10228:10234   */\n      dup2\n        /* \"#utility.yul\":10216:10226   */\n      dup2\n        /* \"#utility.yul\":10213:10235   */\n      lt\n        /* \"#utility.yul\":10192:10210   */\n      0xffffffffffffffff\n        /* \"#utility.yul\":10180:10190   */\n      dup3\n        /* \"#utility.yul\":10177:10211   */\n      gt\n        /* \"#utility.yul\":10174:10236   */\n      or\n        /* \"#utility.yul\":10171:10259   */\n      iszero\n      tag_245\n      jumpi\n        /* \"#utility.yul\":10239:10257   */\n      tag_246\n      tag_119\n      jump\t// in\n    tag_246:\n        /* \"#utility.yul\":10171:10259   */\n    tag_245:\n        /* \"#utility.yul\":10279:10289   */\n      dup1\n        /* \"#utility.yul\":10275:10277   */\n      0x40\n        /* \"#utility.yul\":10268:10290   */\n      mstore\n        /* \"#utility.yul\":10058:10296   */\n      pop\n        /* \"#utility.yul\":10015:10296   */\n      pop\n      pop\n      jump\t// out\n        /* \"#utility.yul\":10302:10431   */\n    tag_121:\n        /* \"#utility.yul\":10336:10342   */\n      0x00\n        /* \"#utility.yul\":10363:10383   */\n      tag_248\n      tag_85\n      jump\t// in\n    tag_248:\n        /* \"#utility.yul\":10353:10383   */\n      swap1\n      pop\n        /* \"#utility.yul\":10392:10425   */\n      tag_249\n        /* \"#utility.yul\":10420:10424   */\n      dup3\n        /* \"#utility.yul\":10412:10418   */\n      dup3\n        /* \"#utility.yul\":10392:10425   */\n      tag_120\n      jump\t// in\n    tag_249:\n        /* \"#utility.yul\":10302:10431   */\n      swap2\n      swap1\n      pop\n      jump\t// out\n        /* \"#utility.yul\":10437:10745   */\n    tag_122:\n        /* \"#utility.yul\":10499:10503   */\n      0x00\n        /* \"#utility.yul\":10589:10607   */\n      0xffffffffffffffff\n        /* \"#utility.yul\":10581:10587   */\n      dup3\n        /* \"#utility.yul\":10578:10608   */\n      gt\n        /* \"#utility.yul\":10575:10631   */\n      iszero\n      tag_251\n      jumpi\n        /* \"#utility.yul\":10611:10629   */\n      tag_252\n      tag_119\n      jump\t// in\n    tag_252:\n        /* \"#utility.yul\":10575:10631   */\n    tag_251:\n        /* \"#utility.yul\":10649:10678   */\n      tag_253\n        /* \"#utility.yul\":10671:10677   */\n      dup3\n        /* \"#utility.yul\":10649:10678   */\n      tag_99\n      jump\t// in\n    tag_253:\n        /* \"#utility.yul\":10641:10678   */\n      swap1\n      pop\n        /* \"#utility.yul\":10733:10737   */\n      0x20\n        /* \"#utility.yul\":10727:10731   */\n      dup2\n        /* \"#utility.yul\":10723:10738   */\n      add\n        /* \"#utility.yul\":10715:10738   */\n      swap1\n      pop\n        /* \"#utility.yul\":10437:10745   */\n      swap2\n      swap1\n      pop\n      jump\t// out\n        /* \"#utility.yul\":10751:10899   */\n    tag_123:\n        /* \"#utility.yul\":10849:10855   */\n      dup3\n        /* \"#utility.yul\":10844:10847   */\n      dup2\n        /* \"#utility.yul\":10839:10842   */\n      dup4\n        /* \"#utility.yul\":10826:10856   */\n      calldatacopy\n        /* \"#utility.yul\":10890:10891   */\n      0x00\n        /* \"#utility.yul\":10881:10887   */\n      dup4\n        /* \"#utility.yul\":10876:10879   */\n      dup4\n        /* \"#utility.yul\":10872:10888   */\n      add\n        /* \"#utility.yul\":10865:10892   */\n      mstore\n        /* \"#utility.yul\":10751:10899   */\n      pop\n      pop\n      pop\n      jump\t// out\n        /* \"#utility.yul\":10905:11330   */\n    tag_124:\n        /* \"#utility.yul\":10983:10988   */\n      0x00\n        /* \"#utility.yul\":11008:11074   */\n      tag_256\n        /* \"#utility.yul\":11024:11073   */\n      tag_257\n        /* \"#utility.yul\":11066:11072   */\n      dup5\n        /* \"#utility.yul\":11024:11073   */\n      tag_122\n      jump\t// in\n    tag_257:\n        /* \"#utility.yul\":11008:11074   */\n      tag_121\n      jump\t// in\n    tag_256:\n        /* \"#utility.yul\":10999:11074   */\n      swap1\n      pop\n        /* \"#utility.yul\":11097:11103   */\n      dup3\n        /* \"#utility.yul\":11090:11095   */\n      dup2\n        /* \"#utility.yul\":11083:11104   */\n      mstore\n        /* \"#utility.yul\":11135:11139   */\n      0x20\n        /* \"#utility.yul\":11128:11133   */\n      dup2\n        /* \"#utility.yul\":11124:11140   */\n      add\n        /* \"#utility.yul\":11173:11176   */\n      dup5\n        /* \"#utility.yul\":11164:11170   */\n      dup5\n        /* \"#utility.yul\":11159:11162   */\n      dup5\n        /* \"#utility.yul\":11155:11171   */\n      add\n        /* \"#utility.yul\":11152:11177   */\n      gt\n        /* \"#utility.yul\":11149:11261   */\n      iszero\n      tag_258\n      jumpi\n        /* \"#utility.yul\":11180:11259   */\n      tag_259\n      tag_118\n      jump\t// in\n    tag_259:\n        /* \"#utility.yul\":11149:11261   */\n    tag_258:\n        /* \"#utility.yul\":11270:11324   */\n      tag_260\n        /* \"#utility.yul\":11317:11323   */\n      dup5\n        /* \"#utility.yul\":11312:11315   */\n      dup3\n        /* \"#utility.yul\":11307:11310   */\n      dup6\n        /* \"#utility.yul\":11270:11324   */\n      tag_123\n      jump\t// in\n    tag_260:\n        /* \"#utility.yul\":10989:11330   */\n      pop\n        /* \"#utility.yul\":10905:11330   */\n      swap4\n      swap3\n      pop\n      pop\n      pop\n      jump\t// out\n        /* \"#utility.yul\":11350:11690   */\n    tag_125:\n        /* \"#utility.yul\":11406:11411   */\n      0x00\n        /* \"#utility.yul\":11455:11458   */\n      dup3\n        /* \"#utility.yul\":11448:11452   */\n      0x1f\n        /* \"#utility.yul\":11440:11446   */\n      dup4\n        /* \"#utility.yul\":11436:11453   */\n      add\n        /* \"#utility.yul\":11432:11459   */\n      slt\n        /* \"#utility.yul\":11422:11544   */\n      tag_262\n      jumpi\n        /* \"#utility.yul\":11463:11542   */\n      tag_263\n      tag_117\n      jump\t// in\n    tag_263:\n        /* \"#utility.yul\":11422:11544   */\n    tag_262:\n        /* \"#utility.yul\":11580:11586   */\n      dup2\n        /* \"#utility.yul\":11567:11587   */\n      calldataload\n        /* \"#utility.yul\":11605:11684   */\n      tag_264\n        /* \"#utility.yul\":11680:11683   */\n      dup5\n        /* \"#utility.yul\":11672:11678   */\n      dup3\n        /* \"#utility.yul\":11665:11669   */\n      0x20\n        /* \"#utility.yul\":11657:11663   */\n      dup7\n        /* \"#utility.yul\":11653:11670   */\n      add\n        /* \"#utility.yul\":11605:11684   */\n      tag_124\n      jump\t// in\n    tag_264:\n        /* \"#utility.yul\":11596:11684   */\n      swap2\n      pop\n        /* \"#utility.yul\":11412:11690   */\n      pop\n        /* \"#utility.yul\":11350:11690   */\n      swap3\n      swap2\n      pop\n      pop\n      jump\t// out\n        /* \"#utility.yul\":11696:12205   */\n    tag_38:\n        /* \"#utility.yul\":11765:11771   */\n      0x00\n        /* \"#utility.yul\":11814:11816   */\n      0x20\n        /* \"#utility.yul\":11802:11811   */\n      dup3\n        /* \"#utility.yul\":11793:11800   */\n      dup5\n        /* \"#utility.yul\":11789:11812   */\n      sub\n        /* \"#utility.yul\":11785:11817   */\n      slt\n        /* \"#utility.yul\":11782:11901   */\n      iszero\n      tag_266\n      jumpi\n        /* \"#utility.yul\":11820:11899   */\n      tag_267\n      tag_86\n      jump\t// in\n    tag_267:\n        /* \"#utility.yul\":11782:11901   */\n    tag_266:\n        /* \"#utility.yul\":11968:11969   */\n      0x00\n        /* \"#utility.yul\":11957:11966   */\n      dup3\n        /* \"#utility.yul\":11953:11970   */\n      add\n        /* \"#utility.yul\":11940:11971   */\n      calldataload\n        /* \"#utility.yul\":11998:12016   */\n      0xffffffffffffffff\n        /* \"#utility.yul\":11990:11996   */\n      dup2\n        /* \"#utility.yul\":11987:12017   */\n      gt\n        /* \"#utility.yul\":11984:12101   */\n      iszero\n      tag_268\n      jumpi\n        /* \"#utility.yul\":12020:12099   */\n      tag_269\n      tag_87\n      jump\t// in\n    tag_269:\n        /* \"#utility.yul\":11984:12101   */\n    tag_268:\n        /* \"#utility.yul\":12125:12188   */\n      tag_270\n        /* \"#utility.yul\":12180:12187   */\n      dup5\n        /* \"#utility.yul\":12171:12177   */\n      dup3\n        /* \"#utility.yul\":12160:12169   */\n      dup6\n        /* \"#utility.yul\":12156:12178   */\n      add\n        /* \"#utility.yul\":12125:12188   */\n      tag_125\n      jump\t// in\n    tag_270:\n        /* \"#utility.yul\":12115:12188   */\n      swap2\n      pop\n        /* \"#utility.yul\":11911:12198   */\n      pop\n        /* \"#utility.yul\":11696:12205   */\n      swap3\n      swap2\n      pop\n      pop\n      jump\t// out\n        /* \"#utility.yul\":12211:12433   */\n    tag_43:\n        /* \"#utility.yul\":12304:12308   */\n      0x00\n        /* \"#utility.yul\":12342:12344   */\n      0x20\n        /* \"#utility.yul\":12331:12340   */\n      dup3\n        /* \"#utility.yul\":12327:12345   */\n      add\n        /* \"#utility.yul\":12319:12345   */\n      swap1\n      pop\n        /* \"#utility.yul\":12355:12426   */\n      tag_272\n        /* \"#utility.yul\":12423:12424   */\n      0x00\n        /* \"#utility.yul\":12412:12421   */\n      dup4\n        /* \"#utility.yul\":12408:12425   */\n      add\n        /* \"#utility.yul\":12399:12405   */\n      dup5\n        /* \"#utility.yul\":12355:12426   */\n      tag_95\n      jump\t// in\n    tag_272:\n        /* \"#utility.yul\":12211:12433   */\n      swap3\n      swap2\n      pop\n      pop\n      jump\t// out\n        /* \"#utility.yul\":12439:12619   */\n    tag_126:\n        /* \"#utility.yul\":12487:12564   */\n      0x4e487b7100000000000000000000000000000000000000000000000000000000\n        /* \"#utility.yul\":12484:12485   */\n      0x00\n        /* \"#utility.yul\":12477:12565   */\n      mstore\n        /* \"#utility.yul\":12584:12588   */\n      0x22\n        /* \"#utility.yul\":12581:12582   */\n      0x04\n        /* \"#utility.yul\":12574:12589   */\n      mstore\n        /* \"#utility.yul\":12608:12612   */\n      0x24\n        /* \"#utility.yul\":12605:12606   */\n      0x00\n        /* \"#utility.yul\":12598:12613   */\n      revert\n        /* \"#utility.yul\":12625:12945   */\n    tag_47:\n        /* \"#utility.yul\":12669:12675   */\n      0x00\n        /* \"#utility.yul\":12706:12707   */\n      0x02\n        /* \"#utility.yul\":12700:12704   */\n      dup3\n        /* \"#utility.yul\":12696:12708   */\n      div\n        /* \"#utility.yul\":12686:12708   */\n      swap1\n      pop\n        /* \"#utility.yul\":12753:12754   */\n      0x01\n        /* \"#utility.yul\":12747:12751   */\n      dup3\n        /* \"#utility.yul\":12743:12755   */\n      and\n        /* \"#utility.yul\":12774:12792   */\n      dup1\n        /* \"#utility.yul\":12764:12845   */\n      tag_275\n      jumpi\n        /* \"#utility.yul\":12830:12834   */\n      0x7f\n        /* \"#utility.yul\":12822:12828   */\n      dup3\n        /* \"#utility.yul\":12818:12835   */\n      and\n        /* \"#utility.yul\":12808:12835   */\n      swap2\n      pop\n        /* \"#utility.yul\":12764:12845   */\n    tag_275:\n        /* \"#utility.yul\":12892:12894   */\n      0x20\n        /* \"#utility.yul\":12884:12890   */\n      dup3\n        /* \"#utility.yul\":12881:12895   */\n      lt\n        /* \"#utility.yul\":12861:12879   */\n      dup2\n        /* \"#utility.yul\":12858:12896   */\n      sub\n        /* \"#utility.yul\":12855:12939   */\n      tag_276\n      jumpi\n        /* \"#utility.yul\":12911:12929   */\n      tag_277\n      tag_126\n      jump\t// in\n    tag_277:\n        /* \"#utility.yul\":12855:12939   */\n    tag_276:\n        /* \"#utility.yul\":12676:12945   */\n      pop\n        /* \"#utility.yul\":12625:12945   */\n      swap2\n      swap1\n      pop\n      jump\t// out\n        /* \"#utility.yul\":12951:13116   */\n    tag_127:\n        /* \"#utility.yul\":13091:13108   */\n      0x5477656574206e6f7420666f756e640000000000000000000000000000000000\n        /* \"#utility.yul\":13087:13088   */\n      0x00\n        /* \"#utility.yul\":13079:13085   */\n      dup3\n        /* \"#utility.yul\":13075:13089   */\n      add\n        /* \"#utility.yul\":13068:13109   */\n      mstore\n        /* \"#utility.yul\":12951:13116   */\n      pop\n      jump\t// out\n        /* \"#utility.yul\":13122:13488   */\n    tag_128:\n        /* \"#utility.yul\":13264:13267   */\n      0x00\n        /* \"#utility.yul\":13285:13352   */\n      tag_280\n        /* \"#utility.yul\":13349:13351   */\n      0x0f\n        /* \"#utility.yul\":13344:13347   */\n      dup4\n        /* \"#utility.yul\":13285:13352   */\n      tag_97\n      jump\t// in\n    tag_280:\n        /* \"#utility.yul\":13278:13352   */\n      swap2\n      pop\n        /* \"#utility.yul\":13361:13454   */\n      tag_281\n        /* \"#utility.yul\":13450:13453   */\n      dup3\n        /* \"#utility.yul\":13361:13454   */\n      tag_127\n      jump\t// in\n    tag_281:\n        /* \"#utility.yul\":13479:13481   */\n      0x20\n        /* \"#utility.yul\":13474:13477   */\n      dup3\n        /* \"#utility.yul\":13470:13482   */\n      add\n        /* \"#utility.yul\":13463:13482   */\n      swap1\n      pop\n        /* \"#utility.yul\":13122:13488   */\n      swap2\n      swap1\n      pop\n      jump\t// out\n        /* \"#utility.yul\":13494:13913   */\n    tag_64:\n        /* \"#utility.yul\":13660:13664   */\n      0x00\n        /* \"#utility.yul\":13698:13700   */\n      0x20\n        /* \"#utility.yul\":13687:13696   */\n      dup3\n        /* \"#utility.yul\":13683:13701   */\n      add\n        /* \"#utility.yul\":13675:13701   */\n      swap1\n      pop\n        /* \"#utility.yul\":13747:13756   */\n      dup2\n        /* \"#utility.yul\":13741:13745   */\n      dup2\n        /* \"#utility.yul\":13737:13757   */\n      sub\n        /* \"#utility.yul\":13733:13734   */\n      0x00\n        /* \"#utility.yul\":13722:13731   */\n      dup4\n        /* \"#utility.yul\":13718:13735   */\n      add\n        /* \"#utility.yul\":13711:13758   */\n      mstore\n        /* \"#utility.yul\":13775:13906   */\n      tag_283\n        /* \"#utility.yul\":13901:13905   */\n      dup2\n        /* \"#utility.yul\":13775:13906   */\n      tag_128\n      jump\t// in\n    tag_283:\n        /* \"#utility.yul\":13767:13906   */\n      swap1\n      pop\n        /* \"#utility.yul\":13494:13913   */\n      swap2\n      swap1\n      pop\n      jump\t// out\n        /* \"#utility.yul\":13919:14099   */\n    tag_68:\n        /* \"#utility.yul\":13967:14044   */\n      0x4e487b7100000000000000000000000000000000000000000000000000000000\n        /* \"#utility.yul\":13964:13965   */\n      0x00\n        /* \"#utility.yul\":13957:14045   */\n      mstore\n        /* \"#utility.yul\":14064:14068   */\n      0x32\n        /* \"#utility.yul\":14061:14062   */\n      0x04\n        /* \"#utility.yul\":14054:14069   */\n      mstore\n        /* \"#utility.yul\":14088:14092   */\n      0x24\n        /* \"#utility.yul\":14085:14086   */\n      0x00\n        /* \"#utility.yul\":14078:14093   */\n      revert\n        /* \"#utility.yul\":14105:14285   */\n    tag_129:\n        /* \"#utility.yul\":14153:14230   */\n      0x4e487b7100000000000000000000000000000000000000000000000000000000\n        /* \"#utility.yul\":14150:14151   */\n      0x00\n        /* \"#utility.yul\":14143:14231   */\n      mstore\n        /* \"#utility.yul\":14250:14254   */\n      0x11\n        /* \"#utility.yul\":14247:14248   */\n      0x04\n        /* \"#utility.yul\":14240:14255   */\n      mstore\n        /* \"#utility.yul\":14274:14278   */\n      0x24\n        /* \"#utility.yul\":14271:14272   */\n      0x00\n        /* \"#utility.yul\":14264:14279   */\n      revert\n        /* \"#utility.yul\":14291:14524   */\n    tag_71:\n        /* \"#utility.yul\":14330:14333   */\n      0x00\n        /* \"#utility.yul\":14353:14377   */\n      tag_287\n        /* \"#utility.yul\":14371:14376   */\n      dup3\n        /* \"#utility.yul\":14353:14377   */\n      tag_92\n      jump\t// in\n    tag_287:\n        /* \"#utility.yul\":14344:14377   */\n      swap2\n      pop\n        /* \"#utility.yul\":14399:14465   */\n      0xffffffffffffffffffffffffffffffffffffffffffffffffffffffffffffffff\n        /* \"#utility.yul\":14392:14397   */\n      dup3\n        /* \"#utility.yul\":14389:14466   */\n      sub\n        /* \"#utility.yul\":14386:14489   */\n      tag_288\n      jumpi\n        /* \"#utility.yul\":14469:14487   */\n      tag_289\n      tag_129\n      jump\t// in\n    tag_289:\n        /* \"#utility.yul\":14386:14489   */\n    tag_288:\n        /* \"#utility.yul\":14516:14517   */\n      0x01\n        /* \"#utility.yul\":14509:14514   */\n      dup3\n        /* \"#utility.yul\":14505:14518   */\n      add\n        /* \"#utility.yul\":14498:14518   */\n      swap1\n      pop\n        /* \"#utility.yul\":14291:14524   */\n      swap2\n      swap1\n      pop\n      jump\t// out\n        /* \"#utility.yul\":14530:14701   */\n    tag_77:\n        /* \"#utility.yul\":14569:14572   */\n      0x00\n        /* \"#utility.yul\":14592:14616   */\n      tag_291\n        /* \"#utility.yul\":14610:14615   */\n      dup3\n        /* \"#utility.yul\":14592:14616   */\n      tag_92\n      jump\t// in\n    tag_291:\n        /* \"#utility.yul\":14583:14616   */\n      swap2\n      pop\n        /* \"#utility.yul\":14638:14642   */\n      0x00\n        /* \"#utility.yul\":14631:14636   */\n      dup3\n        /* \"#utility.yul\":14628:14643   */\n      sub\n        /* \"#utility.yul\":14625:14666   */\n      tag_292\n      jumpi\n        /* \"#utility.yul\":14646:14664   */\n      tag_293\n      tag_129\n      jump\t// in\n    tag_293:\n        /* \"#utility.yul\":14625:14666   */\n    tag_292:\n        /* \"#utility.yul\":14693:14694   */\n      0x01\n        /* \"#utility.yul\":14686:14691   */\n      dup3\n        /* \"#utility.yul\":14682:14695   */\n      sub\n        /* \"#utility.yul\":14675:14695   */\n      swap1\n      pop\n        /* \"#utility.yul\":14530:14701   */\n      swap2\n      swap1\n      pop\n      jump\t// out\n        /* \"#utility.yul\":14707:14872   */\n    tag_130:\n        /* \"#utility.yul\":14847:14864   */\n      0x547765657420746f6f206c6f6e67210000000000000000000000000000000000\n        /* \"#utility.yul\":14843:14844   */\n      0x00\n        /* \"#utility.yul\":14835:14841   */\n      dup3\n        /* \"#utility.yul\":14831:14845   */\n      add\n        /* \"#utility.yul\":14824:14865   */\n      mstore\n        /* \"#utility.yul\":14707:14872   */\n      pop\n      jump\t// out\n        /* \"#utility.yul\":14878:15244   */\n    tag_131:\n        /* \"#utility.yul\":15020:15023   */\n      0x00\n        /* \"#utility.yul\":15041:15108   */\n      tag_296\n        /* \"#utility.yul\":15105:15107   */\n      0x0f\n        /* \"#utility.yul\":15100:15103   */\n      dup4\n        /* \"#utility.yul\":15041:15108   */\n      tag_97\n      jump\t// in\n    tag_296:\n        /* \"#utility.yul\":15034:15108   */\n      swap2\n      pop\n        /* \"#utility.yul\":15117:15210   */\n      tag_297\n        /* \"#utility.yul\":15206:15209   */\n      dup3\n        /* \"#utility.yul\":15117:15210   */\n      tag_130\n      jump\t// in\n    tag_297:\n        /* \"#utility.yul\":15235:15237   */\n      0x20\n        /* \"#utility.yul\":15230:15233   */\n      dup3\n        /* \"#utility.yul\":15226:15238   */\n      add\n        /* \"#utility.yul\":15219:15238   */\n      swap1\n      pop\n        /* \"#utility.yul\":14878:15244   */\n      swap2\n      swap1\n      pop\n      jump\t// out\n        /* \"#utility.yul\":15250:15669   */\n    tag_81:\n        /* \"#utility.yul\":15416:15420   */\n      0x00\n        /* \"#utility.yul\":15454:15456   */\n      0x20\n        /* \"#utility.yul\":15443:15452   */\n      dup3\n        /* \"#utility.yul\":15439:15457   */\n      add\n        /* \"#utility.yul\":15431:15457   */\n      swap1\n      pop\n        /* \"#utility.yul\":15503:15512   */\n      dup2\n        /* \"#utility.yul\":15497:15501   */\n      dup2\n        /* \"#utility.yul\":15493:15513   */\n      sub\n        /* \"#utility.yul\":15489:15490   */\n      0x00\n        /* \"#utility.yul\":15478:15487   */\n      dup4\n        /* \"#utility.yul\":15474:15491   */\n      add\n        /* \"#utility.yul\":15467:15514   */\n      mstore\n        /* \"#utility.yul\":15531:15662   */\n      tag_299\n        /* \"#utility.yul\":15657:15661   */\n      dup2\n        /* \"#utility.yul\":15531:15662   */\n      tag_131\n      jump\t// in\n    tag_299:\n        /* \"#utility.yul\":15523:15662   */\n      swap1\n      pop\n        /* \"#utility.yul\":15250:15669   */\n      swap2\n      swap1\n      pop\n      jump\t// out\n        /* \"#utility.yul\":15675:15816   */\n    tag_132:\n        /* \"#utility.yul\":15724:15728   */\n      0x00\n        /* \"#utility.yul\":15747:15750   */\n      dup2\n        /* \"#utility.yul\":15739:15750   */\n      swap1\n      pop\n        /* \"#utility.yul\":15770:15773   */\n      dup2\n        /* \"#utility.yul\":15767:15768   */\n      0x00\n        /* \"#utility.yul\":15760:15774   */\n      mstore\n        /* \"#utility.yul\":15804:15808   */\n      0x20\n        /* \"#utility.yul\":15801:15802   */\n      0x00\n        /* \"#utility.yul\":15791:15809   */\n      keccak256\n        /* \"#utility.yul\":15783:15809   */\n      swap1\n      pop\n        /* \"#utility.yul\":15675:15816   */\n      swap2\n      swap1\n      pop\n      jump\t// out\n        /* \"#utility.yul\":15822:15915   */\n    tag_133:\n        /* \"#utility.yul\":15859:15865   */\n      0x00\n        /* \"#utility.yul\":15906:15908   */\n      0x20\n        /* \"#utility.yul\":15901:15903   */\n      0x1f\n        /* \"#utility.yul\":15894:15899   */\n      dup4\n        /* \"#utility.yul\":15890:15904   */\n      add\n        /* \"#utility.yul\":15886:15909   */\n      div\n        /* \"#utility.yul\":15876:15909   */\n      swap1\n      pop\n        /* \"#utility.yul\":15822:15915   */\n      swap2\n      swap1\n      pop\n      jump\t// out\n        /* \"#utility.yul\":15921:16028   */\n    tag_134:\n        /* \"#utility.yul\":15965:15973   */\n      0x00\n        /* \"#utility.yul\":16015:16020   */\n      dup3\n        /* \"#utility.yul\":16009:16013   */\n      dup3\n        /* \"#utility.yul\":16005:16021   */\n      shl\n        /* \"#utility.yul\":15984:16021   */\n      swap1\n      pop\n        /* \"#utility.yul\":15921:16028   */\n      swap3\n      swap2\n      pop\n      pop\n      jump\t// out\n        /* \"#utility.yul\":16034:16427   */\n    tag_135:\n        /* \"#utility.yul\":16103:16109   */\n      0x00\n        /* \"#utility.yul\":16153:16154   */\n      0x08\n        /* \"#utility.yul\":16141:16151   */\n      dup4\n        /* \"#utility.yul\":16137:16155   */\n      mul\n        /* \"#utility.yul\":16176:16273   */\n      tag_304\n        /* \"#utility.yul\":16206:16272   */\n      0xffffffffffffffffffffffffffffffffffffffffffffffffffffffffffffffff\n        /* \"#utility.yul\":16195:16204   */\n      dup3\n        /* \"#utility.yul\":16176:16273   */\n      tag_134\n      jump\t// in\n    tag_304:\n        /* \"#utility.yul\":16294:16333   */\n      tag_305\n        /* \"#utility.yul\":16324:16332   */\n      dup7\n        /* \"#utility.yul\":16313:16322   */\n      dup4\n        /* \"#utility.yul\":16294:16333   */\n      tag_134\n      jump\t// in\n    tag_305:\n        /* \"#utility.yul\":16282:16333   */\n      swap6\n      pop\n        /* \"#utility.yul\":16366:16370   */\n      dup1\n        /* \"#utility.yul\":16362:16371   */\n      not\n        /* \"#utility.yul\":16355:16360   */\n      dup5\n        /* \"#utility.yul\":16351:16372   */\n      and\n        /* \"#utility.yul\":16342:16372   */\n      swap4\n      pop\n        /* \"#utility.yul\":16415:16419   */\n      dup1\n        /* \"#utility.yul\":16405:16413   */\n      dup7\n        /* \"#utility.yul\":16401:16420   */\n      and\n        /* \"#utility.yul\":16394:16399   */\n      dup5\n        /* \"#utility.yul\":16391:16421   */\n      or\n        /* \"#utility.yul\":16381:16421   */\n      swap3\n      pop\n        /* \"#utility.yul\":16110:16427   */\n      pop\n      pop\n        /* \"#utility.yul\":16034:16427   */\n      swap4\n      swap3\n      pop\n      pop\n      pop\n      jump\t// out\n        /* \"#utility.yul\":16433:16493   */\n    tag_136:\n        /* \"#utility.yul\":16461:16464   */\n      0x00\n        /* \"#utility.yul\":16482:16487   */\n      dup2\n        /* \"#utility.yul\":16475:16487   */\n      swap1\n      pop\n        /* \"#utility.yul\":16433:16493   */\n      swap2\n      swap1\n      pop\n      jump\t// out\n        /* \"#utility.yul\":16499:16641   */\n    tag_137:\n        /* \"#utility.yul\":16549:16558   */\n      0x00\n        /* \"#utility.yul\":16582:16635   */\n      tag_308\n        /* \"#utility.yul\":16600:16634   */\n      tag_309\n        /* \"#utility.yul\":16609:16633   */\n      tag_310\n        /* \"#utility.yul\":16627:16632   */\n      dup5\n        /* \"#utility.yul\":16609:16633   */\n      tag_92\n      jump\t// in\n    tag_310:\n        /* \"#utility.yul\":16600:16634   */\n      tag_136\n      jump\t// in\n    tag_309:\n        /* \"#utility.yul\":16582:16635   */\n      tag_92\n      jump\t// in\n    tag_308:\n        /* \"#utility.yul\":16569:16635   */\n      swap1\n      pop\n        /* \"#utility.yul\":16499:16641   */\n      swap2\n      swap1\n      pop\n      jump\t// out\n        /* \"#utility.yul\":16647:16722   */\n    tag_138:\n        /* \"#utility.yul\":16690:16693   */\n      0x00\n        /* \"#utility.yul\":16711:16716   */\n      dup2\n        /* \"#utility.yul\":16704:16716   */\n      swap1\n      pop\n        /* \"#utility.yul\":16647:16722   */\n      swap2\n      swap1\n      pop\n      jump\t// out\n        /* \"#utility.yul\":16728:16997   */\n    tag_139:\n        /* \"#utility.yul\":16838:16877   */\n      tag_313\n        /* \"#utility.yul\":16869:16876   */\n      dup4\n        /* \"#utility.yul\":16838:16877   */\n      tag_137\n      jump\t// in\n    tag_313:\n        /* \"#utility.yul\":16899:16990   */\n      tag_314\n        /* \"#utility.yul\":16948:16989   */\n      tag_315\n        /* \"#utility.yul\":16972:16988   */\n      dup3\n        /* \"#utility.yul\":16948:16989   */\n      tag_138\n      jump\t// in\n    tag_315:\n        /* \"#utility.yul\":16940:16946   */\n      dup5\n        /* \"#utility.yul\":16933:16937   */\n      dup5\n        /* \"#utility.yul\":16927:16938   */\n      sload\n        /* \"#utility.yul\":16899:16990   */\n      tag_135\n      jump\t// in\n    tag_314:\n        /* \"#utility.yul\":16893:16897   */\n      dup3\n        /* \"#utility.yul\":16886:16991   */\n      sstore\n        /* \"#utility.yul\":16804:16997   */\n      pop\n        /* \"#utility.yul\":16728:16997   */\n      pop\n      pop\n      pop\n      jump\t// out\n        /* \"#utility.yul\":17003:17076   */\n    tag_140:\n        /* \"#utility.yul\":17048:17051   */\n      0x00\n        /* \"#utility.yul\":17069:17070   */\n      0x00\n        /* \"#utility.yul\":17062:17070   */\n      swap1\n      pop\n        /* \"#utility.yul\":17003:17076   */\n      swap1\n      jump\t// out\n        /* \"#utility.yul\":17082:17271   */\n    tag_141:\n        /* \"#utility.yul\":17159:17191   */\n      tag_318\n      tag_140\n      jump\t// in\n    tag_318:\n        /* \"#utility.yul\":17200:17265   */\n      tag_319\n        /* \"#utility.yul\":17258:17264   */\n      dup2\n        /* \"#utility.yul\":17250:17256   */\n      dup5\n        /* \"#utility.yul\":17244:17248   */\n      dup5\n        /* \"#utility.yul\":17200:17265   */\n      tag_139\n      jump\t// in\n    tag_319:\n        /* \"#utility.yul\":17135:17271   */\n      pop\n        /* \"#utility.yul\":17082:17271   */\n      pop\n      pop\n      jump\t// out\n        /* \"#utility.yul\":17277:17463   */\n    tag_142:\n        /* \"#utility.yul\":17337:17457   */\n    tag_321:\n        /* \"#utility.yul\":17354:17357   */\n      dup2\n        /* \"#utility.yul\":17347:17352   */\n      dup2\n        /* \"#utility.yul\":17344:17358   */\n      lt\n        /* \"#utility.yul\":17337:17457   */\n      iszero\n      tag_323\n      jumpi\n        /* \"#utility.yul\":17408:17447   */\n      tag_324\n        /* \"#utility.yul\":17445:17446   */\n      0x00\n        /* \"#utility.yul\":17438:17443   */\n      dup3\n        /* \"#utility.yul\":17408:17447   */\n      tag_141\n      jump\t// in\n    tag_324:\n        /* \"#utility.yul\":17381:17382   */\n      0x01\n        /* \"#utility.yul\":17374:17379   */\n      dup2\n        /* \"#utility.yul\":17370:17383   */\n      add\n        /* \"#utility.yul\":17361:17383   */\n      swap1\n      pop\n        /* \"#utility.yul\":17337:17457   */\n      jump(tag_321)\n    tag_323:\n        /* \"#utility.yul\":17277:17463   */\n      pop\n      pop\n      jump\t// out\n        /* \"#utility.yul\":17469:18012   */\n    tag_143:\n        /* \"#utility.yul\":17570:17572   */\n      0x1f\n        /* \"#utility.yul\":17565:17568   */\n      dup3\n        /* \"#utility.yul\":17562:17573   */\n      gt\n        /* \"#utility.yul\":17559:18005   */\n      iszero\n      tag_326\n      jumpi\n        /* \"#utility.yul\":17604:17642   */\n      tag_327\n        /* \"#utility.yul\":17636:17641   */\n      dup2\n        /* \"#utility.yul\":17604:17642   */\n      tag_132\n      jump\t// in\n    tag_327:\n        /* \"#utility.yul\":17688:17717   */\n      tag_328\n        /* \"#utility.yul\":17706:17716   */\n      dup5\n        /* \"#utility.yul\":17688:17717   */\n      tag_133\n      jump\t// in\n    tag_328:\n        /* \"#utility.yul\":17678:17686   */\n      dup2\n        /* \"#utility.yul\":17674:17718   */\n      add\n        /* \"#utility.yul\":17871:17873   */\n      0x20\n        /* \"#utility.yul\":17859:17869   */\n      dup6\n        /* \"#utility.yul\":17856:17874   */\n      lt\n        /* \"#utility.yul\":17853:17902   */\n      iszero\n      tag_329\n      jumpi\n        /* \"#utility.yul\":17892:17900   */\n      dup2\n        /* \"#utility.yul\":17877:17900   */\n      swap1\n      pop\n        /* \"#utility.yul\":17853:17902   */\n    tag_329:\n        /* \"#utility.yul\":17915:17995   */\n      tag_330\n        /* \"#utility.yul\":17971:17993   */\n      tag_331\n        /* \"#utility.yul\":17989:17992   */\n      dup6\n        /* \"#utility.yul\":17971:17993   */\n      tag_133\n      jump\t// in\n    tag_331:\n        /* \"#utility.yul\":17961:17969   */\n      dup4\n        /* \"#utility.yul\":17957:17994   */\n      add\n        /* \"#utility.yul\":17944:17955   */\n      dup3\n        /* \"#utility.yul\":17915:17995   */\n      tag_142\n      jump\t// in\n    tag_330:\n        /* \"#utility.yul\":17574:18005   */\n      pop\n      pop\n        /* \"#utility.yul\":17559:18005   */\n    tag_326:\n        /* \"#utility.yul\":17469:18012   */\n      pop\n      pop\n      pop\n      jump\t// out\n        /* \"#utility.yul\":18018:18135   */\n    tag_144:\n        /* \"#utility.yul\":18072:18080   */\n      0x00\n        /* \"#utility.yul\":18122:18127   */\n      dup3\n        /* \"#utility.yul\":18116:18120   */\n      dup3\n        /* \"#utility.yul\":18112:18128   */\n      shr\n        /* \"#utility.yul\":18091:18128   */\n      swap1\n      pop\n        /* \"#utility.yul\":18018:18135   */\n      swap3\n      swap2\n      pop\n      pop\n      jump\t// out\n        /* \"#utility.yul\":18141:18310   */\n    tag_145:\n        /* \"#utility.yul\":18185:18191   */\n      0x00\n        /* \"#utility.yul\":18218:18269   */\n      tag_334\n        /* \"#utility.yul\":18266:18267   */\n      0x00\n        /* \"#utility.yul\":18262:18268   */\n      not\n        /* \"#utility.yul\":18254:18259   */\n      dup5\n        /* \"#utility.yul\":18251:18252   */\n      0x08\n        /* \"#utility.yul\":18247:18260   */\n      mul\n        /* \"#utility.yul\":18218:18269   */\n      tag_144\n      jump\t// in\n    tag_334:\n        /* \"#utility.yul\":18214:18270   */\n      not\n        /* \"#utility.yul\":18299:18303   */\n      dup1\n        /* \"#utility.yul\":18293:18297   */\n      dup4\n        /* \"#utility.yul\":18289:18304   */\n      and\n        /* \"#utility.yul\":18279:18304   */\n      swap2\n      pop\n        /* \"#utility.yul\":18192:18310   */\n      pop\n        /* \"#utility.yul\":18141:18310   */\n      swap3\n      swap2\n      pop\n      pop\n      jump\t// out\n        /* \"#utility.yul\":18315:18610   */\n    tag_146:\n        /* \"#utility.yul\":18391:18395   */\n      0x00\n        /* \"#utility.yul\":18537:18566   */\n      tag_336\n        /* \"#utility.yul\":18562:18565   */\n      dup4\n        /* \"#utility.yul\":18556:18560   */\n      dup4\n        /* \"#utility.yul\":18537:18566   */\n      tag_145\n      jump\t// in\n    tag_336:\n        /* \"#utility.yul\":18529:18566   */\n      swap2\n      pop\n        /* \"#utility.yul\":18599:18602   */\n      dup3\n        /* \"#utility.yul\":18596:18597   */\n      0x02\n        /* \"#utility.yul\":18592:18603   */\n      mul\n        /* \"#utility.yul\":18586:18590   */\n      dup3\n        /* \"#utility.yul\":18583:18604   */\n      or\n        /* \"#utility.yul\":18575:18604   */\n      swap1\n      pop\n        /* \"#utility.yul\":18315:18610   */\n      swap3\n      swap2\n      pop\n      pop\n      jump\t// out\n        /* \"#utility.yul\":18615:20010   */\n    tag_84:\n        /* \"#utility.yul\":18732:18769   */\n      tag_338\n        /* \"#utility.yul\":18765:18768   */\n      dup3\n        /* \"#utility.yul\":18732:18769   */\n      tag_96\n      jump\t// in\n    tag_338:\n        /* \"#utility.yul\":18834:18852   */\n      0xffffffffffffffff\n        /* \"#utility.yul\":18826:18832   */\n      dup2\n        /* \"#utility.yul\":18823:18853   */\n      gt\n        /* \"#utility.yul\":18820:18876   */\n      iszero\n      tag_339\n      jumpi\n        /* \"#utility.yul\":18856:18874   */\n      tag_340\n      tag_119\n      jump\t// in\n    tag_340:\n        /* \"#utility.yul\":18820:18876   */\n    tag_339:\n        /* \"#utility.yul\":18900:18938   */\n      tag_341\n        /* \"#utility.yul\":18932:18936   */\n      dup3\n        /* \"#utility.yul\":18926:18937   */\n      sload\n        /* \"#utility.yul\":18900:18938   */\n      tag_47\n      jump\t// in\n    tag_341:\n        /* \"#utility.yul\":18985:19052   */\n      tag_342\n        /* \"#utility.yul\":19045:19051   */\n      dup3\n        /* \"#utility.yul\":19037:19043   */\n      dup3\n        /* \"#utility.yul\":19031:19035   */\n      dup6\n        /* \"#utility.yul\":18985:19052   */\n      tag_143\n      jump\t// in\n    tag_342:\n        /* \"#utility.yul\":19079:19080   */\n      0x00\n        /* \"#utility.yul\":19103:19107   */\n      0x20\n        /* \"#utility.yul\":19090:19107   */\n      swap1\n      pop\n        /* \"#utility.yul\":19135:19137   */\n      0x1f\n        /* \"#utility.yul\":19127:19133   */\n      dup4\n        /* \"#utility.yul\":19124:19138   */\n      gt\n        /* \"#utility.yul\":19152:19153   */\n      0x01\n        /* \"#utility.yul\":19147:19765   */\n      dup2\n      eq\n      tag_344\n      jumpi\n        /* \"#utility.yul\":19809:19810   */\n      0x00\n        /* \"#utility.yul\":19826:19832   */\n      dup5\n        /* \"#utility.yul\":19823:19900   */\n      iszero\n      tag_345\n      jumpi\n        /* \"#utility.yul\":19875:19884   */\n      dup3\n        /* \"#utility.yul\":19870:19873   */\n      dup8\n        /* \"#utility.yul\":19866:19885   */\n      add\n        /* \"#utility.yul\":19860:19886   */\n      mload\n        /* \"#utility.yul\":19851:19886   */\n      swap1\n      pop\n        /* \"#utility.yul\":19823:19900   */\n    tag_345:\n        /* \"#utility.yul\":19926:19993   */\n      tag_346\n        /* \"#utility.yul\":19986:19992   */\n      dup6\n        /* \"#utility.yul\":19979:19984   */\n      dup3\n        /* \"#utility.yul\":19926:19993   */\n      tag_146\n      jump\t// in\n    tag_346:\n        /* \"#utility.yul\":19920:19924   */\n      dup7\n        /* \"#utility.yul\":19913:19994   */\n      sstore\n        /* \"#utility.yul\":19782:20004   */\n      pop\n        /* \"#utility.yul\":19117:20004   */\n      jump(tag_343)\n        /* \"#utility.yul\":19147:19765   */\n    tag_344:\n        /* \"#utility.yul\":19199:19203   */\n      0x1f\n        /* \"#utility.yul\":19195:19204   */\n      not\n        /* \"#utility.yul\":19187:19193   */\n      dup5\n        /* \"#utility.yul\":19183:19205   */\n      and\n        /* \"#utility.yul\":19233:19270   */\n      tag_347\n        /* \"#utility.yul\":19265:19269   */\n      dup7\n        /* \"#utility.yul\":19233:19270   */\n      tag_132\n      jump\t// in\n    tag_347:\n        /* \"#utility.yul\":19292:19293   */\n      0x00\n        /* \"#utility.yul\":19306:19514   */\n    tag_348:\n        /* \"#utility.yul\":19320:19327   */\n      dup3\n        /* \"#utility.yul\":19317:19318   */\n      dup2\n        /* \"#utility.yul\":19314:19328   */\n      lt\n        /* \"#utility.yul\":19306:19514   */\n      iszero\n      tag_350\n      jumpi\n        /* \"#utility.yul\":19399:19408   */\n      dup5\n        /* \"#utility.yul\":19394:19397   */\n      dup10\n        /* \"#utility.yul\":19390:19409   */\n      add\n        /* \"#utility.yul\":19384:19410   */\n      mload\n        /* \"#utility.yul\":19376:19382   */\n      dup3\n        /* \"#utility.yul\":19369:19411   */\n      sstore\n        /* \"#utility.yul\":19450:19451   */\n      0x01\n        /* \"#utility.yul\":19442:19448   */\n      dup3\n        /* \"#utility.yul\":19438:19452   */\n      add\n        /* \"#utility.yul\":19428:19452   */\n      swap2\n      pop\n        /* \"#utility.yul\":19497:19499   */\n      0x20\n        /* \"#utility.yul\":19486:19495   */\n      dup6\n        /* \"#utility.yul\":19482:19500   */\n      add\n        /* \"#utility.yul\":19469:19500   */\n      swap5\n      pop\n        /* \"#utility.yul\":19343:19347   */\n      0x20\n        /* \"#utility.yul\":19340:19341   */\n      dup2\n        /* \"#utility.yul\":19336:19348   */\n      add\n        /* \"#utility.yul\":19331:19348   */\n      swap1\n      pop\n        /* \"#utility.yul\":19306:19514   */\n      jump(tag_348)\n    tag_350:\n        /* \"#utility.yul\":19542:19548   */\n      dup7\n        /* \"#utility.yul\":19533:19540   */\n      dup4\n        /* \"#utility.yul\":19530:19549   */\n      lt\n        /* \"#utility.yul\":19527:19706   */\n      iszero\n      tag_351\n      jumpi\n        /* \"#utility.yul\":19600:19609   */\n      dup5\n        /* \"#utility.yul\":19595:19598   */\n      dup10\n        /* \"#utility.yul\":19591:19610   */\n      add\n        /* \"#utility.yul\":19585:19611   */\n      mload\n        /* \"#utility.yul\":19643:19691   */\n      tag_352\n        /* \"#utility.yul\":19685:19689   */\n      0x1f\n        /* \"#utility.yul\":19677:19683   */\n      dup10\n        /* \"#utility.yul\":19673:19690   */\n      and\n        /* \"#utility.yul\":19662:19671   */\n      dup3\n        /* \"#utility.yul\":19643:19691   */\n      tag_145\n      jump\t// in\n    tag_352:\n        /* \"#utility.yul\":19635:19641   */\n      dup4\n        /* \"#utility.yul\":19628:19692   */\n      sstore\n        /* \"#utility.yul\":19550:19706   */\n      pop\n        /* \"#utility.yul\":19527:19706   */\n    tag_351:\n        /* \"#utility.yul\":19752:19753   */\n      0x01\n        /* \"#utility.yul\":19748:19749   */\n      0x02\n        /* \"#utility.yul\":19740:19746   */\n      dup9\n        /* \"#utility.yul\":19736:19750   */\n      mul\n        /* \"#utility.yul\":19732:19754   */\n      add\n        /* \"#utility.yul\":19726:19730   */\n      dup9\n        /* \"#utility.yul\":19719:19755   */\n      sstore\n        /* \"#utility.yul\":19154:19765   */\n      pop\n      pop\n      pop\n        /* \"#utility.yul\":19117:20004   */\n    tag_343:\n      pop\n        /* \"#utility.yul\":18707:20010   */\n      pop\n      pop\n      pop\n        /* \"#utility.yul\":18615:20010   */\n      pop\n      pop\n      jump\t// out\n\n    auxdata: 0xa26469706673582212207d417a1ee33004564404ea4f41595cce5710be093808430a32ca1968c264f76364736f6c634300081f0033\n}\n",
				"bytecode": {
					"linkReferences": {},
					"object": "60806040526101185f5f6101000a81548161ffff021916908361ffff160217905550348015602b575f5ffd5b503360035f6101000a81548173ffffffffffffffffffffffffffffffffffffffff021916908373ffffffffffffffffffffffffffffffffffffffff16021790555061137e806100795f395ff3fe608060405234801561000f575f5ffd5b506004361061007b575f3560e01c80635d2de0c1116100595780635d2de0c1146100fe5780636eb107971461012e5780637c9cd2bc1461014c5780638da5cb5b146101685761007b565b806305a1b4a91461007f57806312e7ee1c146100b257806317bb08c3146100e2575b5f5ffd5b610099600480360381019061009491906109bd565b610186565b6040516100a99493929190610a89565b60405180910390f35b6100cc60048036038101906100c79190610ad3565b610271565b6040516100d99190610c7f565b60405180910390f35b6100fc60048036038101906100f791906109bd565b610402565b005b61011860048036038101906101139190610c9f565b610750565b6040516101259190610d0a565b60405180910390f35b610136610785565b6040516101439190610d3f565b60405180910390f35b61016660048036038101906101619190610e84565b610797565b005b6101706108fa565b60405161017d9190610ecb565b60405180910390f35b6001602052815f5260405f20818154811061019f575f80fd5b905f5260205f2090600402015f9150915050805f015f9054906101000a900473ffffffffffffffffffffffffffffffffffffffff16908060010180546101e490610f11565b80601f016020809104026020016040519081016040528092919081815260200182805461021090610f11565b801561025b5780601f106102325761010080835404028352916020019161025b565b820191905f5260205f20905b81548152906001019060200180831161023e57829003601f168201915b5050505050908060020154908060030154905084565b606060015f8373ffffffffffffffffffffffffffffffffffffffff1673ffffffffffffffffffffffffffffffffffffffff1681526020019081526020015f20805480602002602001604051908101604052809291908181526020015f905b828210156103f7578382905f5260205f2090600402016040518060800160405290815f82015f9054906101000a900473ffffffffffffffffffffffffffffffffffffffff1673ffffffffffffffffffffffffffffffffffffffff1673ffffffffffffffffffffffffffffffffffffffff16815260200160018201805461035490610f11565b80601f016020809104026020016040519081016040528092919081815260200182805461038090610f11565b80156103cb5780601f106103a2576101008083540402835291602001916103cb565b820191905f5260205f20905b8154815290600101906020018083116103ae57829003601f168201915b5050505050815260200160028201548152602001600382015481525050815260200190600101906102cf565b505050509050919050565b60015f8373ffffffffffffffffffffffffffffffffffffffff1673ffffffffffffffffffffffffffffffffffffffff1681526020019081526020015f20805490508110610484576040517f08c379a000000000000000000000000000000000000000000000000000000000815260040161047b90610f8b565b60405180910390fd5b5f60025f8473ffffffffffffffffffffffffffffffffffffffff1673ffffffffffffffffffffffffffffffffffffffff1681526020019081526020015f205f8381526020019081526020015f205f3373ffffffffffffffffffffffffffffffffffffffff1673ffffffffffffffffffffffffffffffffffffffff1681526020019081526020015f205f9054906101000a900460ff1660ff16036106395760015f8373ffffffffffffffffffffffffffffffffffffffff1673ffffffffffffffffffffffffffffffffffffffff1681526020019081526020015f2081815481106105705761056f610fa9565b5b905f5260205f2090600402016003015f81548092919061058f90611003565b9190505550600160025f8473ffffffffffffffffffffffffffffffffffffffff1673ffffffffffffffffffffffffffffffffffffffff1681526020019081526020015f205f8381526020019081526020015f205f3373ffffffffffffffffffffffffffffffffffffffff1673ffffffffffffffffffffffffffffffffffffffff1681526020019081526020015f205f6101000a81548160ff021916908360ff16021790555061074c565b60015f8373ffffffffffffffffffffffffffffffffffffffff1673ffffffffffffffffffffffffffffffffffffffff1681526020019081526020015f20818154811061068857610687610fa9565b5b905f5260205f2090600402016003015f8154809291906106a79061104a565b91905055505f60025f8473ffffffffffffffffffffffffffffffffffffffff1673ffffffffffffffffffffffffffffffffffffffff1681526020019081526020015f205f8381526020019081526020015f205f3373ffffffffffffffffffffffffffffffffffffffff1673ffffffffffffffffffffffffffffffffffffffff1681526020019081526020015f205f6101000a81548160ff021916908360ff1602179055505b5050565b6002602052825f5260405f20602052815f5260405f20602052805f5260405f205f92509250509054906101000a900460ff1681565b5f5f9054906101000a900461ffff1681565b5f5f9054906101000a900461ffff1661ffff16815111156107ed576040517f08c379a00000000000000000000000000000000000000000000000000000000081526004016107e4906110bb565b60405180910390fd5b60015f3373ffffffffffffffffffffffffffffffffffffffff1673ffffffffffffffffffffffffffffffffffffffff1681526020019081526020015f2060405180608001604052803373ffffffffffffffffffffffffffffffffffffffff1681526020018381526020014281526020015f815250908060018154018082558091505060019003905f5260205f2090600402015f909190919091505f820151815f015f6101000a81548173ffffffffffffffffffffffffffffffffffffffff021916908373ffffffffffffffffffffffffffffffffffffffff16021790555060208201518160010190816108e09190611279565b506040820151816002015560608201518160030155505050565b60035f9054906101000a900473ffffffffffffffffffffffffffffffffffffffff1681565b5f604051905090565b5f5ffd5b5f5ffd5b5f73ffffffffffffffffffffffffffffffffffffffff82169050919050565b5f61095982610930565b9050919050565b6109698161094f565b8114610973575f5ffd5b50565b5f8135905061098481610960565b92915050565b5f819050919050565b61099c8161098a565b81146109a6575f5ffd5b50565b5f813590506109b781610993565b92915050565b5f5f604083850312156109d3576109d2610928565b5b5f6109e085828601610976565b92505060206109f1858286016109a9565b9150509250929050565b610a048161094f565b82525050565b5f81519050919050565b5f82825260208201905092915050565b8281835e5f83830152505050565b5f601f19601f8301169050919050565b5f610a4c82610a0a565b610a568185610a14565b9350610a66818560208601610a24565b610a6f81610a32565b840191505092915050565b610a838161098a565b82525050565b5f608082019050610a9c5f8301876109fb565b8181036020830152610aae8186610a42565b9050610abd6040830185610a7a565b610aca6060830184610a7a565b95945050505050565b5f60208284031215610ae857610ae7610928565b5b5f610af584828501610976565b91505092915050565b5f81519050919050565b5f82825260208201905092915050565b5f819050602082019050919050565b610b308161094f565b82525050565b5f82825260208201905092915050565b5f610b5082610a0a565b610b5a8185610b36565b9350610b6a818560208601610a24565b610b7381610a32565b840191505092915050565b610b878161098a565b82525050565b5f608083015f830151610ba25f860182610b27565b5060208301518482036020860152610bba8282610b46565b9150506040830151610bcf6040860182610b7e565b506060830151610be26060860182610b7e565b508091505092915050565b5f610bf88383610b8d565b905092915050565b5f602082019050919050565b5f610c1682610afe565b610c208185610b08565b935083602082028501610c3285610b18565b805f5b85811015610c6d5784840389528151610c4e8582610bed565b9450610c5983610c00565b925060208a01995050600181019050610c35565b50829750879550505050505092915050565b5f6020820190508181035f830152610c978184610c0c565b905092915050565b5f5f5f60608486031215610cb657610cb5610928565b5b5f610cc386828701610976565b9350506020610cd4868287016109a9565b9250506040610ce586828701610976565b9150509250925092565b5f60ff82169050919050565b610d0481610cef565b82525050565b5f602082019050610d1d5f830184610cfb565b92915050565b5f61ffff82169050919050565b610d3981610d23565b82525050565b5f602082019050610d525f830184610d30565b92915050565b5f5ffd5b5f5ffd5b7f4e487b71000000000000000000000000000000000000000000000000000000005f52604160045260245ffd5b610d9682610a32565b810181811067ffffffffffffffff82111715610db557610db4610d60565b5b80604052505050565b5f610dc761091f565b9050610dd38282610d8d565b919050565b5f67ffffffffffffffff821115610df257610df1610d60565b5b610dfb82610a32565b9050602081019050919050565b828183375f83830152505050565b5f610e28610e2384610dd8565b610dbe565b905082815260208101848484011115610e4457610e43610d5c565b5b610e4f848285610e08565b509392505050565b5f82601f830112610e6b57610e6a610d58565b5b8135610e7b848260208601610e16565b91505092915050565b5f60208284031215610e9957610e98610928565b5b5f82013567ffffffffffffffff811115610eb657610eb561092c565b5b610ec284828501610e57565b91505092915050565b5f602082019050610ede5f8301846109fb565b92915050565b7f4e487b71000000000000000000000000000000000000000000000000000000005f52602260045260245ffd5b5f6002820490506001821680610f2857607f821691505b602082108103610f3b57610f3a610ee4565b5b50919050565b7f5477656574206e6f7420666f756e6400000000000000000000000000000000005f82015250565b5f610f75600f83610a14565b9150610f8082610f41565b602082019050919050565b5f6020820190508181035f830152610fa281610f69565b9050919050565b7f4e487b71000000000000000000000000000000000000000000000000000000005f52603260045260245ffd5b7f4e487b71000000000000000000000000000000000000000000000000000000005f52601160045260245ffd5b5f61100d8261098a565b91507fffffffffffffffffffffffffffffffffffffffffffffffffffffffffffffffff820361103f5761103e610fd6565b5b600182019050919050565b5f6110548261098a565b91505f820361106657611065610fd6565b5b600182039050919050565b7f547765657420746f6f206c6f6e672100000000000000000000000000000000005f82015250565b5f6110a5600f83610a14565b91506110b082611071565b602082019050919050565b5f6020820190508181035f8301526110d281611099565b9050919050565b5f819050815f5260205f209050919050565b5f6020601f8301049050919050565b5f82821b905092915050565b5f600883026111357fffffffffffffffffffffffffffffffffffffffffffffffffffffffffffffffff826110fa565b61113f86836110fa565b95508019841693508086168417925050509392505050565b5f819050919050565b5f61117a6111756111708461098a565b611157565b61098a565b9050919050565b5f819050919050565b61119383611160565b6111a761119f82611181565b848454611106565b825550505050565b5f5f905090565b6111be6111af565b6111c981848461118a565b505050565b5b818110156111ec576111e15f826111b6565b6001810190506111cf565b5050565b601f82111561123157611202816110d9565b61120b846110eb565b8101602085101561121a578190505b61122e611226856110eb565b8301826111ce565b50505b505050565b5f82821c905092915050565b5f6112515f1984600802611236565b1980831691505092915050565b5f6112698383611242565b9150826002028217905092915050565b61128282610a0a565b67ffffffffffffffff81111561129b5761129a610d60565b5b6112a58254610f11565b6112b08282856111f0565b5f60209050601f8311600181146112e1575f84156112cf578287015190505b6112d9858261125e565b865550611340565b601f1984166112ef866110d9565b5f5b82811015611316578489015182556001820191506020850194506020810190506112f1565b86831015611333578489015161132f601f891682611242565b8355505b6001600288020188555050505b50505050505056fea26469706673582212207d417a1ee33004564404ea4f41595cce5710be093808430a32ca1968c264f76364736f6c634300081f0033",
					"opcodes": "PUSH1 0x80 PUSH1 0x40 MSTORE PUSH2 0x118 PUSH0 PUSH0 PUSH2 0x100 EXP DUP2 SLOAD DUP2 PUSH2 0xFFFF MUL NOT AND SWAP1 DUP4 PUSH2 0xFFFF AND MUL OR SWAP1 SSTORE POP CALLVALUE DUP1 ISZERO PUSH1 0x2B JUMPI PUSH0 PUSH0 REVERT JUMPDEST POP CALLER PUSH1 0x3 PUSH0 PUSH2 0x100 EXP DUP2 SLOAD DUP2 PUSH20 0xFFFFFFFFFFFFFFFFFFFFFFFFFFFFFFFFFFFFFFFF MUL NOT AND SWAP1 DUP4 PUSH20 0xFFFFFFFFFFFFFFFFFFFFFFFFFFFFFFFFFFFFFFFF AND MUL OR SWAP1 SSTORE POP PUSH2 0x137E DUP1 PUSH2 0x79 PUSH0 CODECOPY PUSH0 RETURN INVALID PUSH1 0x80 PUSH1 0x40 MSTORE CALLVALUE DUP1 ISZERO PUSH2 0xF JUMPI PUSH0 PUSH0 REVERT JUMPDEST POP PUSH1 0x4 CALLDATASIZE LT PUSH2 0x7B JUMPI PUSH0 CALLDATALOAD PUSH1 0xE0 SHR DUP1 PUSH4 0x5D2DE0C1 GT PUSH2 0x59 JUMPI DUP1 PUSH4 0x5D2DE0C1 EQ PUSH2 0xFE JUMPI DUP1 PUSH4 0x6EB10797 EQ PUSH2 0x12E JUMPI DUP1 PUSH4 0x7C9CD2BC EQ PUSH2 0x14C JUMPI DUP1 PUSH4 0x8DA5CB5B EQ PUSH2 0x168 JUMPI PUSH2 0x7B JUMP JUMPDEST DUP1 PUSH4 0x5A1B4A9 EQ PUSH2 0x7F JUMPI DUP1 PUSH4 0x12E7EE1C EQ PUSH2 0xB2 JUMPI DUP1 PUSH4 0x17BB08C3 EQ PUSH2 0xE2 JUMPI JUMPDEST PUSH0 PUSH0 REVERT JUMPDEST PUSH2 0x99 PUSH1 0x4 DUP1 CALLDATASIZE SUB DUP2 ADD SWAP1 PUSH2 0x94 SWAP2 SWAP1 PUSH2 0x9BD JUMP JUMPDEST PUSH2 0x186 JUMP JUMPDEST PUSH1 0x40 MLOAD PUSH2 0xA9 SWAP5 SWAP4 SWAP3 SWAP2 SWAP1 PUSH2 0xA89 JUMP JUMPDEST PUSH1 0x40 MLOAD DUP1 SWAP2 SUB SWAP1 RETURN JUMPDEST PUSH2 0xCC PUSH1 0x4 DUP1 CALLDATASIZE SUB DUP2 ADD SWAP1 PUSH2 0xC7 SWAP2 SWAP1 PUSH2 0xAD3 JUMP JUMPDEST PUSH2 0x271 JUMP JUMPDEST PUSH1 0x40 MLOAD PUSH2 0xD9 SWAP2 SWAP1 PUSH2 0xC7F JUMP JUMPDEST PUSH1 0x40 MLOAD DUP1 SWAP2 SUB SWAP1 RETURN JUMPDEST PUSH2 0xFC PUSH1 0x4 DUP1 CALLDATASIZE SUB DUP2 ADD SWAP1 PUSH2 0xF7 SWAP2 SWAP1 PUSH2 0x9BD JUMP JUMPDEST PUSH2 0x402 JUMP JUMPDEST STOP JUMPDEST PUSH2 0x118 PUSH1 0x4 DUP1 CALLDATASIZE SUB DUP2 ADD SWAP1 PUSH2 0x113 SWAP2 SWAP1 PUSH2 0xC9F JUMP JUMPDEST PUSH2 0x750 JUMP JUMPDEST PUSH1 0x40 MLOAD PUSH2 0x125 SWAP2 SWAP1 PUSH2 0xD0A JUMP JUMPDEST PUSH1 0x40 MLOAD DUP1 SWAP2 SUB SWAP1 RETURN JUMPDEST PUSH2 0x136 PUSH2 0x785 JUMP JUMPDEST PUSH1 0x40 MLOAD PUSH2 0x143 SWAP2 SWAP1 PUSH2 0xD3F JUMP JUMPDEST PUSH1 0x40 MLOAD DUP1 SWAP2 SUB SWAP1 RETURN JUMPDEST PUSH2 0x166 PUSH1 0x4 DUP1 CALLDATASIZE SUB DUP2 ADD SWAP1 PUSH2 0x161 SWAP2 SWAP1 PUSH2 0xE84 JUMP JUMPDEST PUSH2 0x797 JUMP JUMPDEST STOP JUMPDEST PUSH2 0x170 PUSH2 0x8FA JUMP JUMPDEST PUSH1 0x40 MLOAD PUSH2 0x17D SWAP2 SWAP1 PUSH2 0xECB JUMP JUMPDEST PUSH1 0x40 MLOAD DUP1 SWAP2 SUB SWAP1 RETURN JUMPDEST PUSH1 0x1 PUSH1 0x20 MSTORE DUP2 PUSH0 MSTORE PUSH1 0x40 PUSH0 KECCAK256 DUP2 DUP2 SLOAD DUP2 LT PUSH2 0x19F JUMPI PUSH0 DUP1 REVERT JUMPDEST SWAP1 PUSH0 MSTORE PUSH1 0x20 PUSH0 KECCAK256 SWAP1 PUSH1 0x4 MUL ADD PUSH0 SWAP2 POP SWAP2 POP POP DUP1 PUSH0 ADD PUSH0 SWAP1 SLOAD SWAP1 PUSH2 0x100 EXP SWAP1 DIV PUSH20 0xFFFFFFFFFFFFFFFFFFFFFFFFFFFFFFFFFFFFFFFF AND SWAP1 DUP1 PUSH1 0x1 ADD DUP1 SLOAD PUSH2 0x1E4 SWAP1 PUSH2 0xF11 JUMP JUMPDEST DUP1 PUSH1 0x1F ADD PUSH1 0x20 DUP1 SWAP2 DIV MUL PUSH1 0x20 ADD PUSH1 0x40 MLOAD SWAP1 DUP2 ADD PUSH1 0x40 MSTORE DUP1 SWAP3 SWAP2 SWAP1 DUP2 DUP2 MSTORE PUSH1 0x20 ADD DUP3 DUP1 SLOAD PUSH2 0x210 SWAP1 PUSH2 0xF11 JUMP JUMPDEST DUP1 ISZERO PUSH2 0x25B JUMPI DUP1 PUSH1 0x1F LT PUSH2 0x232 JUMPI PUSH2 0x100 DUP1 DUP4 SLOAD DIV MUL DUP4 MSTORE SWAP2 PUSH1 0x20 ADD SWAP2 PUSH2 0x25B JUMP JUMPDEST DUP3 ADD SWAP2 SWAP1 PUSH0 MSTORE PUSH1 0x20 PUSH0 KECCAK256 SWAP1 JUMPDEST DUP2 SLOAD DUP2 MSTORE SWAP1 PUSH1 0x1 ADD SWAP1 PUSH1 0x20 ADD DUP1 DUP4 GT PUSH2 0x23E JUMPI DUP3 SWAP1 SUB PUSH1 0x1F AND DUP3 ADD SWAP2 JUMPDEST POP POP POP POP POP SWAP1 DUP1 PUSH1 0x2 ADD SLOAD SWAP1 DUP1 PUSH1 0x3 ADD SLOAD SWAP1 POP DUP5 JUMP JUMPDEST PUSH1 0x60 PUSH1 0x1 PUSH0 DUP4 PUSH20 0xFFFFFFFFFFFFFFFFFFFFFFFFFFFFFFFFFFFFFFFF AND PUSH20 0xFFFFFFFFFFFFFFFFFFFFFFFFFFFFFFFFFFFFFFFF AND DUP2 MSTORE PUSH1 0x20 ADD SWAP1 DUP2 MSTORE PUSH1 0x20 ADD PUSH0 KECCAK256 DUP1 SLOAD DUP1 PUSH1 0x20 MUL PUSH1 0x20 ADD PUSH1 0x40 MLOAD SWAP1 DUP2 ADD PUSH1 0x40 MSTORE DUP1 SWAP3 SWAP2 SWAP1 DUP2 DUP2 MSTORE PUSH1 0x20 ADD PUSH0 SWAP1 JUMPDEST DUP3 DUP3 LT ISZERO PUSH2 0x3F7 JUMPI DUP4 DUP3 SWAP1 PUSH0 MSTORE PUSH1 0x20 PUSH0 KECCAK256 SWAP1 PUSH1 0x4 MUL ADD PUSH1 0x40 MLOAD DUP1 PUSH1 0x80 ADD PUSH1 0x40 MSTORE SWAP1 DUP2 PUSH0 DUP3 ADD PUSH0 SWAP1 SLOAD SWAP1 PUSH2 0x100 EXP SWAP1 DIV PUSH20 0xFFFFFFFFFFFFFFFFFFFFFFFFFFFFFFFFFFFFFFFF AND PUSH20 0xFFFFFFFFFFFFFFFFFFFFFFFFFFFFFFFFFFFFFFFF AND PUSH20 0xFFFFFFFFFFFFFFFFFFFFFFFFFFFFFFFFFFFFFFFF AND DUP2 MSTORE PUSH1 0x20 ADD PUSH1 0x1 DUP3 ADD DUP1 SLOAD PUSH2 0x354 SWAP1 PUSH2 0xF11 JUMP JUMPDEST DUP1 PUSH1 0x1F ADD PUSH1 0x20 DUP1 SWAP2 DIV MUL PUSH1 0x20 ADD PUSH1 0x40 MLOAD SWAP1 DUP2 ADD PUSH1 0x40 MSTORE DUP1 SWAP3 SWAP2 SWAP1 DUP2 DUP2 MSTORE PUSH1 0x20 ADD DUP3 DUP1 SLOAD PUSH2 0x380 SWAP1 PUSH2 0xF11 JUMP JUMPDEST DUP1 ISZERO PUSH2 0x3CB JUMPI DUP1 PUSH1 0x1F LT PUSH2 0x3A2 JUMPI PUSH2 0x100 DUP1 DUP4 SLOAD DIV MUL DUP4 MSTORE SWAP2 PUSH1 0x20 ADD SWAP2 PUSH2 0x3CB JUMP JUMPDEST DUP3 ADD SWAP2 SWAP1 PUSH0 MSTORE PUSH1 0x20 PUSH0 KECCAK256 SWAP1 JUMPDEST DUP2 SLOAD DUP2 MSTORE SWAP1 PUSH1 0x1 ADD SWAP1 PUSH1 0x20 ADD DUP1 DUP4 GT PUSH2 0x3AE JUMPI DUP3 SWAP1 SUB PUSH1 0x1F AND DUP3 ADD SWAP2 JUMPDEST POP POP POP POP POP DUP2 MSTORE PUSH1 0x20 ADD PUSH1 0x2 DUP3 ADD SLOAD DUP2 MSTORE PUSH1 0x20 ADD PUSH1 0x3 DUP3 ADD SLOAD DUP2 MSTORE POP POP DUP2 MSTORE PUSH1 0x20 ADD SWAP1 PUSH1 0x1 ADD SWAP1 PUSH2 0x2CF JUMP JUMPDEST POP POP POP POP SWAP1 POP SWAP2 SWAP1 POP JUMP JUMPDEST PUSH1 0x1 PUSH0 DUP4 PUSH20 0xFFFFFFFFFFFFFFFFFFFFFFFFFFFFFFFFFFFFFFFF AND PUSH20 0xFFFFFFFFFFFFFFFFFFFFFFFFFFFFFFFFFFFFFFFF AND DUP2 MSTORE PUSH1 0x20 ADD SWAP1 DUP2 MSTORE PUSH1 0x20 ADD PUSH0 KECCAK256 DUP1 SLOAD SWAP1 POP DUP2 LT PUSH2 0x484 JUMPI PUSH1 0x40 MLOAD PUSH32 0x8C379A000000000000000000000000000000000000000000000000000000000 DUP2 MSTORE PUSH1 0x4 ADD PUSH2 0x47B SWAP1 PUSH2 0xF8B JUMP JUMPDEST PUSH1 0x40 MLOAD DUP1 SWAP2 SUB SWAP1 REVERT JUMPDEST PUSH0 PUSH1 0x2 PUSH0 DUP5 PUSH20 0xFFFFFFFFFFFFFFFFFFFFFFFFFFFFFFFFFFFFFFFF AND PUSH20 0xFFFFFFFFFFFFFFFFFFFFFFFFFFFFFFFFFFFFFFFF AND DUP2 MSTORE PUSH1 0x20 ADD SWAP1 DUP2 MSTORE PUSH1 0x20 ADD PUSH0 KECCAK256 PUSH0 DUP4 DUP2 MSTORE PUSH1 0x20 ADD SWAP1 DUP2 MSTORE PUSH1 0x20 ADD PUSH0 KECCAK256 PUSH0 CALLER PUSH20 0xFFFFFFFFFFFFFFFFFFFFFFFFFFFFFFFFFFFFFFFF AND PUSH20 0xFFFFFFFFFFFFFFFFFFFFFFFFFFFFFFFFFFFFFFFF AND DUP2 MSTORE PUSH1 0x20 ADD SWAP1 DUP2 MSTORE PUSH1 0x20 ADD PUSH0 KECCAK256 PUSH0 SWAP1 SLOAD SWAP1 PUSH2 0x100 EXP SWAP1 DIV PUSH1 0xFF AND PUSH1 0xFF AND SUB PUSH2 0x639 JUMPI PUSH1 0x1 PUSH0 DUP4 PUSH20 0xFFFFFFFFFFFFFFFFFFFFFFFFFFFFFFFFFFFFFFFF AND PUSH20 0xFFFFFFFFFFFFFFFFFFFFFFFFFFFFFFFFFFFFFFFF AND DUP2 MSTORE PUSH1 0x20 ADD SWAP1 DUP2 MSTORE PUSH1 0x20 ADD PUSH0 KECCAK256 DUP2 DUP2 SLOAD DUP2 LT PUSH2 0x570 JUMPI PUSH2 0x56F PUSH2 0xFA9 JUMP JUMPDEST JUMPDEST SWAP1 PUSH0 MSTORE PUSH1 0x20 PUSH0 KECCAK256 SWAP1 PUSH1 0x4 MUL ADD PUSH1 0x3 ADD PUSH0 DUP2 SLOAD DUP1 SWAP3 SWAP2 SWAP1 PUSH2 0x58F SWAP1 PUSH2 0x1003 JUMP JUMPDEST SWAP2 SWAP1 POP SSTORE POP PUSH1 0x1 PUSH1 0x2 PUSH0 DUP5 PUSH20 0xFFFFFFFFFFFFFFFFFFFFFFFFFFFFFFFFFFFFFFFF AND PUSH20 0xFFFFFFFFFFFFFFFFFFFFFFFFFFFFFFFFFFFFFFFF AND DUP2 MSTORE PUSH1 0x20 ADD SWAP1 DUP2 MSTORE PUSH1 0x20 ADD PUSH0 KECCAK256 PUSH0 DUP4 DUP2 MSTORE PUSH1 0x20 ADD SWAP1 DUP2 MSTORE PUSH1 0x20 ADD PUSH0 KECCAK256 PUSH0 CALLER PUSH20 0xFFFFFFFFFFFFFFFFFFFFFFFFFFFFFFFFFFFFFFFF AND PUSH20 0xFFFFFFFFFFFFFFFFFFFFFFFFFFFFFFFFFFFFFFFF AND DUP2 MSTORE PUSH1 0x20 ADD SWAP1 DUP2 MSTORE PUSH1 0x20 ADD PUSH0 KECCAK256 PUSH0 PUSH2 0x100 EXP DUP2 SLOAD DUP2 PUSH1 0xFF MUL NOT AND SWAP1 DUP4 PUSH1 0xFF AND MUL OR SWAP1 SSTORE POP PUSH2 0x74C JUMP JUMPDEST PUSH1 0x1 PUSH0 DUP4 PUSH20 0xFFFFFFFFFFFFFFFFFFFFFFFFFFFFFFFFFFFFFFFF AND PUSH20 0xFFFFFFFFFFFFFFFFFFFFFFFFFFFFFFFFFFFFFFFF AND DUP2 MSTORE PUSH1 0x20 ADD SWAP1 DUP2 MSTORE PUSH1 0x20 ADD PUSH0 KECCAK256 DUP2 DUP2 SLOAD DUP2 LT PUSH2 0x688 JUMPI PUSH2 0x687 PUSH2 0xFA9 JUMP JUMPDEST JUMPDEST SWAP1 PUSH0 MSTORE PUSH1 0x20 PUSH0 KECCAK256 SWAP1 PUSH1 0x4 MUL ADD PUSH1 0x3 ADD PUSH0 DUP2 SLOAD DUP1 SWAP3 SWAP2 SWAP1 PUSH2 0x6A7 SWAP1 PUSH2 0x104A JUMP JUMPDEST SWAP2 SWAP1 POP SSTORE POP PUSH0 PUSH1 0x2 PUSH0 DUP5 PUSH20 0xFFFFFFFFFFFFFFFFFFFFFFFFFFFFFFFFFFFFFFFF AND PUSH20 0xFFFFFFFFFFFFFFFFFFFFFFFFFFFFFFFFFFFFFFFF AND DUP2 MSTORE PUSH1 0x20 ADD SWAP1 DUP2 MSTORE PUSH1 0x20 ADD PUSH0 KECCAK256 PUSH0 DUP4 DUP2 MSTORE PUSH1 0x20 ADD SWAP1 DUP2 MSTORE PUSH1 0x20 ADD PUSH0 KECCAK256 PUSH0 CALLER PUSH20 0xFFFFFFFFFFFFFFFFFFFFFFFFFFFFFFFFFFFFFFFF AND PUSH20 0xFFFFFFFFFFFFFFFFFFFFFFFFFFFFFFFFFFFFFFFF AND DUP2 MSTORE PUSH1 0x20 ADD SWAP1 DUP2 MSTORE PUSH1 0x20 ADD PUSH0 KECCAK256 PUSH0 PUSH2 0x100 EXP DUP2 SLOAD DUP2 PUSH1 0xFF MUL NOT AND SWAP1 DUP4 PUSH1 0xFF AND MUL OR SWAP1 SSTORE POP JUMPDEST POP POP JUMP JUMPDEST PUSH1 0x2 PUSH1 0x20 MSTORE DUP3 PUSH0 MSTORE PUSH1 0x40 PUSH0 KECCAK256 PUSH1 0x20 MSTORE DUP2 PUSH0 MSTORE PUSH1 0x40 PUSH0 KECCAK256 PUSH1 0x20 MSTORE DUP1 PUSH0 MSTORE PUSH1 0x40 PUSH0 KECCAK256 PUSH0 SWAP3 POP SWAP3 POP POP SWAP1 SLOAD SWAP1 PUSH2 0x100 EXP SWAP1 DIV PUSH1 0xFF AND DUP2 JUMP JUMPDEST PUSH0 PUSH0 SWAP1 SLOAD SWAP1 PUSH2 0x100 EXP SWAP1 DIV PUSH2 0xFFFF AND DUP2 JUMP JUMPDEST PUSH0 PUSH0 SWAP1 SLOAD SWAP1 PUSH2 0x100 EXP SWAP1 DIV PUSH2 0xFFFF AND PUSH2 0xFFFF AND DUP2 MLOAD GT ISZERO PUSH2 0x7ED JUMPI PUSH1 0x40 MLOAD PUSH32 0x8C379A000000000000000000000000000000000000000000000000000000000 DUP2 MSTORE PUSH1 0x4 ADD PUSH2 0x7E4 SWAP1 PUSH2 0x10BB JUMP JUMPDEST PUSH1 0x40 MLOAD DUP1 SWAP2 SUB SWAP1 REVERT JUMPDEST PUSH1 0x1 PUSH0 CALLER PUSH20 0xFFFFFFFFFFFFFFFFFFFFFFFFFFFFFFFFFFFFFFFF AND PUSH20 0xFFFFFFFFFFFFFFFFFFFFFFFFFFFFFFFFFFFFFFFF AND DUP2 MSTORE PUSH1 0x20 ADD SWAP1 DUP2 MSTORE PUSH1 0x20 ADD PUSH0 KECCAK256 PUSH1 0x40 MLOAD DUP1 PUSH1 0x80 ADD PUSH1 0x40 MSTORE DUP1 CALLER PUSH20 0xFFFFFFFFFFFFFFFFFFFFFFFFFFFFFFFFFFFFFFFF AND DUP2 MSTORE PUSH1 0x20 ADD DUP4 DUP2 MSTORE PUSH1 0x20 ADD TIMESTAMP DUP2 MSTORE PUSH1 0x20 ADD PUSH0 DUP2 MSTORE POP SWAP1 DUP1 PUSH1 0x1 DUP2 SLOAD ADD DUP1 DUP3 SSTORE DUP1 SWAP2 POP POP PUSH1 0x1 SWAP1 SUB SWAP1 PUSH0 MSTORE PUSH1 0x20 PUSH0 KECCAK256 SWAP1 PUSH1 0x4 MUL ADD PUSH0 SWAP1 SWAP2 SWAP1 SWAP2 SWAP1 SWAP2 POP PUSH0 DUP3 ADD MLOAD DUP2 PUSH0 ADD PUSH0 PUSH2 0x100 EXP DUP2 SLOAD DUP2 PUSH20 0xFFFFFFFFFFFFFFFFFFFFFFFFFFFFFFFFFFFFFFFF MUL NOT AND SWAP1 DUP4 PUSH20 0xFFFFFFFFFFFFFFFFFFFFFFFFFFFFFFFFFFFFFFFF AND MUL OR SWAP1 SSTORE POP PUSH1 0x20 DUP3 ADD MLOAD DUP2 PUSH1 0x1 ADD SWAP1 DUP2 PUSH2 0x8E0 SWAP2 SWAP1 PUSH2 0x1279 JUMP JUMPDEST POP PUSH1 0x40 DUP3 ADD MLOAD DUP2 PUSH1 0x2 ADD SSTORE PUSH1 0x60 DUP3 ADD MLOAD DUP2 PUSH1 0x3 ADD SSTORE POP POP POP JUMP JUMPDEST PUSH1 0x3 PUSH0 SWAP1 SLOAD SWAP1 PUSH2 0x100 EXP SWAP1 DIV PUSH20 0xFFFFFFFFFFFFFFFFFFFFFFFFFFFFFFFFFFFFFFFF AND DUP2 JUMP JUMPDEST PUSH0 PUSH1 0x40 MLOAD SWAP1 POP SWAP1 JUMP JUMPDEST PUSH0 PUSH0 REVERT JUMPDEST PUSH0 PUSH0 REVERT JUMPDEST PUSH0 PUSH20 0xFFFFFFFFFFFFFFFFFFFFFFFFFFFFFFFFFFFFFFFF DUP3 AND SWAP1 POP SWAP2 SWAP1 POP JUMP JUMPDEST PUSH0 PUSH2 0x959 DUP3 PUSH2 0x930 JUMP JUMPDEST SWAP1 POP SWAP2 SWAP1 POP JUMP JUMPDEST PUSH2 0x969 DUP2 PUSH2 0x94F JUMP JUMPDEST DUP2 EQ PUSH2 0x973 JUMPI PUSH0 PUSH0 REVERT JUMPDEST POP JUMP JUMPDEST PUSH0 DUP2 CALLDATALOAD SWAP1 POP PUSH2 0x984 DUP2 PUSH2 0x960 JUMP JUMPDEST SWAP3 SWAP2 POP POP JUMP JUMPDEST PUSH0 DUP2 SWAP1 POP SWAP2 SWAP1 POP JUMP JUMPDEST PUSH2 0x99C DUP2 PUSH2 0x98A JUMP JUMPDEST DUP2 EQ PUSH2 0x9A6 JUMPI PUSH0 PUSH0 REVERT JUMPDEST POP JUMP JUMPDEST PUSH0 DUP2 CALLDATALOAD SWAP1 POP PUSH2 0x9B7 DUP2 PUSH2 0x993 JUMP JUMPDEST SWAP3 SWAP2 POP POP JUMP JUMPDEST PUSH0 PUSH0 PUSH1 0x40 DUP4 DUP6 SUB SLT ISZERO PUSH2 0x9D3 JUMPI PUSH2 0x9D2 PUSH2 0x928 JUMP JUMPDEST JUMPDEST PUSH0 PUSH2 0x9E0 DUP6 DUP3 DUP7 ADD PUSH2 0x976 JUMP JUMPDEST SWAP3 POP POP PUSH1 0x20 PUSH2 0x9F1 DUP6 DUP3 DUP7 ADD PUSH2 0x9A9 JUMP JUMPDEST SWAP2 POP POP SWAP3 POP SWAP3 SWAP1 POP JUMP JUMPDEST PUSH2 0xA04 DUP2 PUSH2 0x94F JUMP JUMPDEST DUP3 MSTORE POP POP JUMP JUMPDEST PUSH0 DUP2 MLOAD SWAP1 POP SWAP2 SWAP1 POP JUMP JUMPDEST PUSH0 DUP3 DUP3 MSTORE PUSH1 0x20 DUP3 ADD SWAP1 POP SWAP3 SWAP2 POP POP JUMP JUMPDEST DUP3 DUP2 DUP4 MCOPY PUSH0 DUP4 DUP4 ADD MSTORE POP POP POP JUMP JUMPDEST PUSH0 PUSH1 0x1F NOT PUSH1 0x1F DUP4 ADD AND SWAP1 POP SWAP2 SWAP1 POP JUMP JUMPDEST PUSH0 PUSH2 0xA4C DUP3 PUSH2 0xA0A JUMP JUMPDEST PUSH2 0xA56 DUP2 DUP6 PUSH2 0xA14 JUMP JUMPDEST SWAP4 POP PUSH2 0xA66 DUP2 DUP6 PUSH1 0x20 DUP7 ADD PUSH2 0xA24 JUMP JUMPDEST PUSH2 0xA6F DUP2 PUSH2 0xA32 JUMP JUMPDEST DUP5 ADD SWAP2 POP POP SWAP3 SWAP2 POP POP JUMP JUMPDEST PUSH2 0xA83 DUP2 PUSH2 0x98A JUMP JUMPDEST DUP3 MSTORE POP POP JUMP JUMPDEST PUSH0 PUSH1 0x80 DUP3 ADD SWAP1 POP PUSH2 0xA9C PUSH0 DUP4 ADD DUP8 PUSH2 0x9FB JUMP JUMPDEST DUP2 DUP2 SUB PUSH1 0x20 DUP4 ADD MSTORE PUSH2 0xAAE DUP2 DUP7 PUSH2 0xA42 JUMP JUMPDEST SWAP1 POP PUSH2 0xABD PUSH1 0x40 DUP4 ADD DUP6 PUSH2 0xA7A JUMP JUMPDEST PUSH2 0xACA PUSH1 0x60 DUP4 ADD DUP5 PUSH2 0xA7A JUMP JUMPDEST SWAP6 SWAP5 POP POP POP POP POP JUMP JUMPDEST PUSH0 PUSH1 0x20 DUP3 DUP5 SUB SLT ISZERO PUSH2 0xAE8 JUMPI PUSH2 0xAE7 PUSH2 0x928 JUMP JUMPDEST JUMPDEST PUSH0 PUSH2 0xAF5 DUP5 DUP3 DUP6 ADD PUSH2 0x976 JUMP JUMPDEST SWAP2 POP POP SWAP3 SWAP2 POP POP JUMP JUMPDEST PUSH0 DUP2 MLOAD SWAP1 POP SWAP2 SWAP1 POP JUMP JUMPDEST PUSH0 DUP3 DUP3 MSTORE PUSH1 0x20 DUP3 ADD SWAP1 POP SWAP3 SWAP2 POP POP JUMP JUMPDEST PUSH0 DUP2 SWAP1 POP PUSH1 0x20 DUP3 ADD SWAP1 POP SWAP2 SWAP1 POP JUMP JUMPDEST PUSH2 0xB30 DUP2 PUSH2 0x94F JUMP JUMPDEST DUP3 MSTORE POP POP JUMP JUMPDEST PUSH0 DUP3 DUP3 MSTORE PUSH1 0x20 DUP3 ADD SWAP1 POP SWAP3 SWAP2 POP POP JUMP JUMPDEST PUSH0 PUSH2 0xB50 DUP3 PUSH2 0xA0A JUMP JUMPDEST PUSH2 0xB5A DUP2 DUP6 PUSH2 0xB36 JUMP JUMPDEST SWAP4 POP PUSH2 0xB6A DUP2 DUP6 PUSH1 0x20 DUP7 ADD PUSH2 0xA24 JUMP JUMPDEST PUSH2 0xB73 DUP2 PUSH2 0xA32 JUMP JUMPDEST DUP5 ADD SWAP2 POP POP SWAP3 SWAP2 POP POP JUMP JUMPDEST PUSH2 0xB87 DUP2 PUSH2 0x98A JUMP JUMPDEST DUP3 MSTORE POP POP JUMP JUMPDEST PUSH0 PUSH1 0x80 DUP4 ADD PUSH0 DUP4 ADD MLOAD PUSH2 0xBA2 PUSH0 DUP7 ADD DUP3 PUSH2 0xB27 JUMP JUMPDEST POP PUSH1 0x20 DUP4 ADD MLOAD DUP5 DUP3 SUB PUSH1 0x20 DUP7 ADD MSTORE PUSH2 0xBBA DUP3 DUP3 PUSH2 0xB46 JUMP JUMPDEST SWAP2 POP POP PUSH1 0x40 DUP4 ADD MLOAD PUSH2 0xBCF PUSH1 0x40 DUP7 ADD DUP3 PUSH2 0xB7E JUMP JUMPDEST POP PUSH1 0x60 DUP4 ADD MLOAD PUSH2 0xBE2 PUSH1 0x60 DUP7 ADD DUP3 PUSH2 0xB7E JUMP JUMPDEST POP DUP1 SWAP2 POP POP SWAP3 SWAP2 POP POP JUMP JUMPDEST PUSH0 PUSH2 0xBF8 DUP4 DUP4 PUSH2 0xB8D JUMP JUMPDEST SWAP1 POP SWAP3 SWAP2 POP POP JUMP JUMPDEST PUSH0 PUSH1 0x20 DUP3 ADD SWAP1 POP SWAP2 SWAP1 POP JUMP JUMPDEST PUSH0 PUSH2 0xC16 DUP3 PUSH2 0xAFE JUMP JUMPDEST PUSH2 0xC20 DUP2 DUP6 PUSH2 0xB08 JUMP JUMPDEST SWAP4 POP DUP4 PUSH1 0x20 DUP3 MUL DUP6 ADD PUSH2 0xC32 DUP6 PUSH2 0xB18 JUMP JUMPDEST DUP1 PUSH0 JUMPDEST DUP6 DUP2 LT ISZERO PUSH2 0xC6D JUMPI DUP5 DUP5 SUB DUP10 MSTORE DUP2 MLOAD PUSH2 0xC4E DUP6 DUP3 PUSH2 0xBED JUMP JUMPDEST SWAP5 POP PUSH2 0xC59 DUP4 PUSH2 0xC00 JUMP JUMPDEST SWAP3 POP PUSH1 0x20 DUP11 ADD SWAP10 POP POP PUSH1 0x1 DUP2 ADD SWAP1 POP PUSH2 0xC35 JUMP JUMPDEST POP DUP3 SWAP8 POP DUP8 SWAP6 POP POP POP POP POP POP SWAP3 SWAP2 POP POP JUMP JUMPDEST PUSH0 PUSH1 0x20 DUP3 ADD SWAP1 POP DUP2 DUP2 SUB PUSH0 DUP4 ADD MSTORE PUSH2 0xC97 DUP2 DUP5 PUSH2 0xC0C JUMP JUMPDEST SWAP1 POP SWAP3 SWAP2 POP POP JUMP JUMPDEST PUSH0 PUSH0 PUSH0 PUSH1 0x60 DUP5 DUP7 SUB SLT ISZERO PUSH2 0xCB6 JUMPI PUSH2 0xCB5 PUSH2 0x928 JUMP JUMPDEST JUMPDEST PUSH0 PUSH2 0xCC3 DUP7 DUP3 DUP8 ADD PUSH2 0x976 JUMP JUMPDEST SWAP4 POP POP PUSH1 0x20 PUSH2 0xCD4 DUP7 DUP3 DUP8 ADD PUSH2 0x9A9 JUMP JUMPDEST SWAP3 POP POP PUSH1 0x40 PUSH2 0xCE5 DUP7 DUP3 DUP8 ADD PUSH2 0x976 JUMP JUMPDEST SWAP2 POP POP SWAP3 POP SWAP3 POP SWAP3 JUMP JUMPDEST PUSH0 PUSH1 0xFF DUP3 AND SWAP1 POP SWAP2 SWAP1 POP JUMP JUMPDEST PUSH2 0xD04 DUP2 PUSH2 0xCEF JUMP JUMPDEST DUP3 MSTORE POP POP JUMP JUMPDEST PUSH0 PUSH1 0x20 DUP3 ADD SWAP1 POP PUSH2 0xD1D PUSH0 DUP4 ADD DUP5 PUSH2 0xCFB JUMP JUMPDEST SWAP3 SWAP2 POP POP JUMP JUMPDEST PUSH0 PUSH2 0xFFFF DUP3 AND SWAP1 POP SWAP2 SWAP1 POP JUMP JUMPDEST PUSH2 0xD39 DUP2 PUSH2 0xD23 JUMP JUMPDEST DUP3 MSTORE POP POP JUMP JUMPDEST PUSH0 PUSH1 0x20 DUP3 ADD SWAP1 POP PUSH2 0xD52 PUSH0 DUP4 ADD DUP5 PUSH2 0xD30 JUMP JUMPDEST SWAP3 SWAP2 POP POP JUMP JUMPDEST PUSH0 PUSH0 REVERT JUMPDEST PUSH0 PUSH0 REVERT JUMPDEST PUSH32 0x4E487B7100000000000000000000000000000000000000000000000000000000 PUSH0 MSTORE PUSH1 0x41 PUSH1 0x4 MSTORE PUSH1 0x24 PUSH0 REVERT JUMPDEST PUSH2 0xD96 DUP3 PUSH2 0xA32 JUMP JUMPDEST DUP2 ADD DUP2 DUP2 LT PUSH8 0xFFFFFFFFFFFFFFFF DUP3 GT OR ISZERO PUSH2 0xDB5 JUMPI PUSH2 0xDB4 PUSH2 0xD60 JUMP JUMPDEST JUMPDEST DUP1 PUSH1 0x40 MSTORE POP POP POP JUMP JUMPDEST PUSH0 PUSH2 0xDC7 PUSH2 0x91F JUMP JUMPDEST SWAP1 POP PUSH2 0xDD3 DUP3 DUP3 PUSH2 0xD8D JUMP JUMPDEST SWAP2 SWAP1 POP JUMP JUMPDEST PUSH0 PUSH8 0xFFFFFFFFFFFFFFFF DUP3 GT ISZERO PUSH2 0xDF2 JUMPI PUSH2 0xDF1 PUSH2 0xD60 JUMP JUMPDEST JUMPDEST PUSH2 0xDFB DUP3 PUSH2 0xA32 JUMP JUMPDEST SWAP1 POP PUSH1 0x20 DUP2 ADD SWAP1 POP SWAP2 SWAP1 POP JUMP JUMPDEST DUP3 DUP2 DUP4 CALLDATACOPY PUSH0 DUP4 DUP4 ADD MSTORE POP POP POP JUMP JUMPDEST PUSH0 PUSH2 0xE28 PUSH2 0xE23 DUP5 PUSH2 0xDD8 JUMP JUMPDEST PUSH2 0xDBE JUMP JUMPDEST SWAP1 POP DUP3 DUP2 MSTORE PUSH1 0x20 DUP2 ADD DUP5 DUP5 DUP5 ADD GT ISZERO PUSH2 0xE44 JUMPI PUSH2 0xE43 PUSH2 0xD5C JUMP JUMPDEST JUMPDEST PUSH2 0xE4F DUP5 DUP3 DUP6 PUSH2 0xE08 JUMP JUMPDEST POP SWAP4 SWAP3 POP POP POP JUMP JUMPDEST PUSH0 DUP3 PUSH1 0x1F DUP4 ADD SLT PUSH2 0xE6B JUMPI PUSH2 0xE6A PUSH2 0xD58 JUMP JUMPDEST JUMPDEST DUP2 CALLDATALOAD PUSH2 0xE7B DUP5 DUP3 PUSH1 0x20 DUP7 ADD PUSH2 0xE16 JUMP JUMPDEST SWAP2 POP POP SWAP3 SWAP2 POP POP JUMP JUMPDEST PUSH0 PUSH1 0x20 DUP3 DUP5 SUB SLT ISZERO PUSH2 0xE99 JUMPI PUSH2 0xE98 PUSH2 0x928 JUMP JUMPDEST JUMPDEST PUSH0 DUP3 ADD CALLDATALOAD PUSH8 0xFFFFFFFFFFFFFFFF DUP2 GT ISZERO PUSH2 0xEB6 JUMPI PUSH2 0xEB5 PUSH2 0x92C JUMP JUMPDEST JUMPDEST PUSH2 0xEC2 DUP5 DUP3 DUP6 ADD PUSH2 0xE57 JUMP JUMPDEST SWAP2 POP POP SWAP3 SWAP2 POP POP JUMP JUMPDEST PUSH0 PUSH1 0x20 DUP3 ADD SWAP1 POP PUSH2 0xEDE PUSH0 DUP4 ADD DUP5 PUSH2 0x9FB JUMP JUMPDEST SWAP3 SWAP2 POP POP JUMP JUMPDEST PUSH32 0x4E487B7100000000000000000000000000000000000000000000000000000000 PUSH0 MSTORE PUSH1 0x22 PUSH1 0x4 MSTORE PUSH1 0x24 PUSH0 REVERT JUMPDEST PUSH0 PUSH1 0x2 DUP3 DIV SWAP1 POP PUSH1 0x1 DUP3 AND DUP1 PUSH2 0xF28 JUMPI PUSH1 0x7F DUP3 AND SWAP2 POP JUMPDEST PUSH1 0x20 DUP3 LT DUP2 SUB PUSH2 0xF3B JUMPI PUSH2 0xF3A PUSH2 0xEE4 JUMP JUMPDEST JUMPDEST POP SWAP2 SWAP1 POP JUMP JUMPDEST PUSH32 0x5477656574206E6F7420666F756E640000000000000000000000000000000000 PUSH0 DUP3 ADD MSTORE POP JUMP JUMPDEST PUSH0 PUSH2 0xF75 PUSH1 0xF DUP4 PUSH2 0xA14 JUMP JUMPDEST SWAP2 POP PUSH2 0xF80 DUP3 PUSH2 0xF41 JUMP JUMPDEST PUSH1 0x20 DUP3 ADD SWAP1 POP SWAP2 SWAP1 POP JUMP JUMPDEST PUSH0 PUSH1 0x20 DUP3 ADD SWAP1 POP DUP2 DUP2 SUB PUSH0 DUP4 ADD MSTORE PUSH2 0xFA2 DUP2 PUSH2 0xF69 JUMP JUMPDEST SWAP1 POP SWAP2 SWAP1 POP JUMP JUMPDEST PUSH32 0x4E487B7100000000000000000000000000000000000000000000000000000000 PUSH0 MSTORE PUSH1 0x32 PUSH1 0x4 MSTORE PUSH1 0x24 PUSH0 REVERT JUMPDEST PUSH32 0x4E487B7100000000000000000000000000000000000000000000000000000000 PUSH0 MSTORE PUSH1 0x11 PUSH1 0x4 MSTORE PUSH1 0x24 PUSH0 REVERT JUMPDEST PUSH0 PUSH2 0x100D DUP3 PUSH2 0x98A JUMP JUMPDEST SWAP2 POP PUSH32 0xFFFFFFFFFFFFFFFFFFFFFFFFFFFFFFFFFFFFFFFFFFFFFFFFFFFFFFFFFFFFFFFF DUP3 SUB PUSH2 0x103F JUMPI PUSH2 0x103E PUSH2 0xFD6 JUMP JUMPDEST JUMPDEST PUSH1 0x1 DUP3 ADD SWAP1 POP SWAP2 SWAP1 POP JUMP JUMPDEST PUSH0 PUSH2 0x1054 DUP3 PUSH2 0x98A JUMP JUMPDEST SWAP2 POP PUSH0 DUP3 SUB PUSH2 0x1066 JUMPI PUSH2 0x1065 PUSH2 0xFD6 JUMP JUMPDEST JUMPDEST PUSH1 0x1 DUP3 SUB SWAP1 POP SWAP2 SWAP1 POP JUMP JUMPDEST PUSH32 0x547765657420746F6F206C6F6E67210000000000000000000000000000000000 PUSH0 DUP3 ADD MSTORE POP JUMP JUMPDEST PUSH0 PUSH2 0x10A5 PUSH1 0xF DUP4 PUSH2 0xA14 JUMP JUMPDEST SWAP2 POP PUSH2 0x10B0 DUP3 PUSH2 0x1071 JUMP JUMPDEST PUSH1 0x20 DUP3 ADD SWAP1 POP SWAP2 SWAP1 POP JUMP JUMPDEST PUSH0 PUSH1 0x20 DUP3 ADD SWAP1 POP DUP2 DUP2 SUB PUSH0 DUP4 ADD MSTORE PUSH2 0x10D2 DUP2 PUSH2 0x1099 JUMP JUMPDEST SWAP1 POP SWAP2 SWAP1 POP JUMP JUMPDEST PUSH0 DUP2 SWAP1 POP DUP2 PUSH0 MSTORE PUSH1 0x20 PUSH0 KECCAK256 SWAP1 POP SWAP2 SWAP1 POP JUMP JUMPDEST PUSH0 PUSH1 0x20 PUSH1 0x1F DUP4 ADD DIV SWAP1 POP SWAP2 SWAP1 POP JUMP JUMPDEST PUSH0 DUP3 DUP3 SHL SWAP1 POP SWAP3 SWAP2 POP POP JUMP JUMPDEST PUSH0 PUSH1 0x8 DUP4 MUL PUSH2 0x1135 PUSH32 0xFFFFFFFFFFFFFFFFFFFFFFFFFFFFFFFFFFFFFFFFFFFFFFFFFFFFFFFFFFFFFFFF DUP3 PUSH2 0x10FA JUMP JUMPDEST PUSH2 0x113F DUP7 DUP4 PUSH2 0x10FA JUMP JUMPDEST SWAP6 POP DUP1 NOT DUP5 AND SWAP4 POP DUP1 DUP7 AND DUP5 OR SWAP3 POP POP POP SWAP4 SWAP3 POP POP POP JUMP JUMPDEST PUSH0 DUP2 SWAP1 POP SWAP2 SWAP1 POP JUMP JUMPDEST PUSH0 PUSH2 0x117A PUSH2 0x1175 PUSH2 0x1170 DUP5 PUSH2 0x98A JUMP JUMPDEST PUSH2 0x1157 JUMP JUMPDEST PUSH2 0x98A JUMP JUMPDEST SWAP1 POP SWAP2 SWAP1 POP JUMP JUMPDEST PUSH0 DUP2 SWAP1 POP SWAP2 SWAP1 POP JUMP JUMPDEST PUSH2 0x1193 DUP4 PUSH2 0x1160 JUMP JUMPDEST PUSH2 0x11A7 PUSH2 0x119F DUP3 PUSH2 0x1181 JUMP JUMPDEST DUP5 DUP5 SLOAD PUSH2 0x1106 JUMP JUMPDEST DUP3 SSTORE POP POP POP POP JUMP JUMPDEST PUSH0 PUSH0 SWAP1 POP SWAP1 JUMP JUMPDEST PUSH2 0x11BE PUSH2 0x11AF JUMP JUMPDEST PUSH2 0x11C9 DUP2 DUP5 DUP5 PUSH2 0x118A JUMP JUMPDEST POP POP POP JUMP JUMPDEST JUMPDEST DUP2 DUP2 LT ISZERO PUSH2 0x11EC JUMPI PUSH2 0x11E1 PUSH0 DUP3 PUSH2 0x11B6 JUMP JUMPDEST PUSH1 0x1 DUP2 ADD SWAP1 POP PUSH2 0x11CF JUMP JUMPDEST POP POP JUMP JUMPDEST PUSH1 0x1F DUP3 GT ISZERO PUSH2 0x1231 JUMPI PUSH2 0x1202 DUP2 PUSH2 0x10D9 JUMP JUMPDEST PUSH2 0x120B DUP5 PUSH2 0x10EB JUMP JUMPDEST DUP2 ADD PUSH1 0x20 DUP6 LT ISZERO PUSH2 0x121A JUMPI DUP2 SWAP1 POP JUMPDEST PUSH2 0x122E PUSH2 0x1226 DUP6 PUSH2 0x10EB JUMP JUMPDEST DUP4 ADD DUP3 PUSH2 0x11CE JUMP JUMPDEST POP POP JUMPDEST POP POP POP JUMP JUMPDEST PUSH0 DUP3 DUP3 SHR SWAP1 POP SWAP3 SWAP2 POP POP JUMP JUMPDEST PUSH0 PUSH2 0x1251 PUSH0 NOT DUP5 PUSH1 0x8 MUL PUSH2 0x1236 JUMP JUMPDEST NOT DUP1 DUP4 AND SWAP2 POP POP SWAP3 SWAP2 POP POP JUMP JUMPDEST PUSH0 PUSH2 0x1269 DUP4 DUP4 PUSH2 0x1242 JUMP JUMPDEST SWAP2 POP DUP3 PUSH1 0x2 MUL DUP3 OR SWAP1 POP SWAP3 SWAP2 POP POP JUMP JUMPDEST PUSH2 0x1282 DUP3 PUSH2 0xA0A JUMP JUMPDEST PUSH8 0xFFFFFFFFFFFFFFFF DUP2 GT ISZERO PUSH2 0x129B JUMPI PUSH2 0x129A PUSH2 0xD60 JUMP JUMPDEST JUMPDEST PUSH2 0x12A5 DUP3 SLOAD PUSH2 0xF11 JUMP JUMPDEST PUSH2 0x12B0 DUP3 DUP3 DUP6 PUSH2 0x11F0 JUMP JUMPDEST PUSH0 PUSH1 0x20 SWAP1 POP PUSH1 0x1F DUP4 GT PUSH1 0x1 DUP2 EQ PUSH2 0x12E1 JUMPI PUSH0 DUP5 ISZERO PUSH2 0x12CF JUMPI DUP3 DUP8 ADD MLOAD SWAP1 POP JUMPDEST PUSH2 0x12D9 DUP6 DUP3 PUSH2 0x125E JUMP JUMPDEST DUP7 SSTORE POP PUSH2 0x1340 JUMP JUMPDEST PUSH1 0x1F NOT DUP5 AND PUSH2 0x12EF DUP7 PUSH2 0x10D9 JUMP JUMPDEST PUSH0 JUMPDEST DUP3 DUP2 LT ISZERO PUSH2 0x1316 JUMPI DUP5 DUP10 ADD MLOAD DUP3 SSTORE PUSH1 0x1 DUP3 ADD SWAP2 POP PUSH1 0x20 DUP6 ADD SWAP5 POP PUSH1 0x20 DUP2 ADD SWAP1 POP PUSH2 0x12F1 JUMP JUMPDEST DUP7 DUP4 LT ISZERO PUSH2 0x1333 JUMPI DUP5 DUP10 ADD MLOAD PUSH2 0x132F PUSH1 0x1F DUP10 AND DUP3 PUSH2 0x1242 JUMP JUMPDEST DUP4 SSTORE POP JUMPDEST PUSH1 0x1 PUSH1 0x2 DUP9 MUL ADD DUP9 SSTORE POP POP POP JUMPDEST POP POP POP POP POP POP JUMP INVALID LOG2 PUSH5 0x6970667358 0x22 SLT KECCAK256 PUSH30 0x417A1EE33004564404EA4F41595CCE5710BE093808430A32CA1968C264F7 PUSH4 0x64736F6C PUSH4 0x4300081F STOP CALLER "
				},
				"gasEstimates": {
					"creation": {
						"codeDepositCost": "998000",
						"executionCost": "49562",
						"totalCost": "1047562"
					},
					"external": {
						"MAX_TWEET_LENGTH()": "2487",
						"createTweet(string)": "infinite",
						"getAllTweets(address)": "infinite",
						"owner()": "2574",
						"toggleLike(address,uint256)": "infinite",
						"tweetLikes(address,uint256,address)": "infinite",
						"tweets(address,uint256)": "infinite"
					}
				},
				"methodIdentifiers": {
					"MAX_TWEET_LENGTH()": "6eb10797",
					"createTweet(string)": "7c9cd2bc",
					"getAllTweets(address)": "12e7ee1c",
					"owner()": "8da5cb5b",
					"toggleLike(address,uint256)": "17bb08c3",
					"tweetLikes(address,uint256,address)": "5d2de0c1",
					"tweets(address,uint256)": "05a1b4a9"
				}
			},
			"storageLayout": {
				"storage": [
					{
						"astId": 4,
						"contract": "Twitter_dummy.sol:Twitter",
						"label": "MAX_TWEET_LENGTH",
						"offset": 0,
						"slot": "0",
						"type": "t_uint16"
					},
					{
						"astId": 19,
						"contract": "Twitter_dummy.sol:Twitter",
						"label": "tweets",
						"offset": 0,
						"slot": "1",
						"type": "t_mapping(t_address,t_array(t_struct(Tweet)13_storage)dyn_storage)"
					},
					{
						"astId": 27,
						"contract": "Twitter_dummy.sol:Twitter",
						"label": "tweetLikes",
						"offset": 0,
						"slot": "2",
						"type": "t_mapping(t_address,t_mapping(t_uint256,t_mapping(t_address,t_uint8)))"
					},
					{
						"astId": 29,
						"contract": "Twitter_dummy.sol:Twitter",
						"label": "owner",
						"offset": 0,
						"slot": "3",
						"type": "t_address"
					}
				],
				"types": {
					"t_address": {
						"encoding": "inplace",
						"label": "address",
						"numberOfBytes": "20"
					},
					"t_array(t_struct(Tweet)13_storage)dyn_storage": {
						"base": "t_struct(Tweet)13_storage",
						"encoding": "dynamic_array",
						"label": "struct Twitter.Tweet[]",
						"numberOfBytes": "32"
					},
					"t_mapping(t_address,t_array(t_struct(Tweet)13_storage)dyn_storage)": {
						"encoding": "mapping",
						"key": "t_address",
						"label": "mapping(address => struct Twitter.Tweet[])",
						"numberOfBytes": "32",
						"value": "t_array(t_struct(Tweet)13_storage)dyn_storage"
					},
					"t_mapping(t_address,t_mapping(t_uint256,t_mapping(t_address,t_uint8)))": {
						"encoding": "mapping",
						"key": "t_address",
						"label": "mapping(address => mapping(uint256 => mapping(address => uint8)))",
						"numberOfBytes": "32",
						"value": "t_mapping(t_uint256,t_mapping(t_address,t_uint8))"
					},
					"t_mapping(t_address,t_uint8)": {
						"encoding": "mapping",
						"key": "t_address",
						"label": "mapping(address => uint8)",
						"numberOfBytes": "32",
						"value": "t_uint8"
					},
					"t_mapping(t_uint256,t_mapping(t_address,t_uint8))": {
						"encoding": "mapping",
						"key": "t_uint256",
						"label": "mapping(uint256 => mapping(address => uint8))",
						"numberOfBytes": "32",
						"value": "t_mapping(t_address,t_uint8)"
					},
					"t_string_storage": {
						"encoding": "bytes",
						"label": "string",
						"numberOfBytes": "32"
					},
					"t_struct(Tweet)13_storage": {
						"encoding": "inplace",
						"label": "struct Twitter.Tweet",
						"members": [
							{
								"astId": 6,
								"contract": "Twitter_dummy.sol:Twitter",
								"label": "author",
								"offset": 0,
								"slot": "0",
								"type": "t_address"
							},
							{
								"astId": 8,
								"contract": "Twitter_dummy.sol:Twitter",
								"label": "content",
								"offset": 0,
								"slot": "1",
								"type": "t_string_storage"
							},
							{
								"astId": 10,
								"contract": "Twitter_dummy.sol:Twitter",
								"label": "timestamp",
								"offset": 0,
								"slot": "2",
								"type": "t_uint256"
							},
							{
								"astId": 12,
								"contract": "Twitter_dummy.sol:Twitter",
								"label": "likes",
								"offset": 0,
								"slot": "3",
								"type": "t_uint256"
							}
						],
						"numberOfBytes": "128"
					},
					"t_uint16": {
						"encoding": "inplace",
						"label": "uint16",
						"numberOfBytes": "2"
					},
					"t_uint256": {
						"encoding": "inplace",
						"label": "uint256",
						"numberOfBytes": "32"
					},
					"t_uint8": {
						"encoding": "inplace",
						"label": "uint8",
						"numberOfBytes": "1"
					}
				}
			},
			"userdoc": {
				"kind": "user",
				"methods": {},
				"version": 1
			}
		}
	}
}