{
	"Like_Dislike1.sol": {
		"LikeDislike": {
			"abi": [
				{
					"inputs": [],
					"name": "changeVote",
					"outputs": [],
					"stateMutability": "nonpayable",
					"type": "function"
				},
				{
					"inputs": [],
					"name": "dislike",
					"outputs": [],
					"stateMutability": "nonpayable",
					"type": "function"
				},
				{
					"inputs": [],
					"name": "dislikeCount",
					"outputs": [
						{
							"internalType": "uint256",
							"name": "",
							"type": "uint256"
						}
					],
					"stateMutability": "view",
					"type": "function"
				},
				{
					"inputs": [
						{
							"internalType": "address",
							"name": "",
							"type": "address"
						}
					],
					"name": "hasVoted",
					"outputs": [
						{
							"internalType": "bool",
							"name": "",
							"type": "bool"
						}
					],
					"stateMutability": "view",
					"type": "function"
				},
				{
					"inputs": [],
					"name": "like",
					"outputs": [],
					"stateMutability": "nonpayable",
					"type": "function"
				},
				{
					"inputs": [],
					"name": "likeCount",
					"outputs": [
						{
							"internalType": "uint256",
							"name": "",
							"type": "uint256"
						}
					],
					"stateMutability": "view",
					"type": "function"
				},
				{
					"inputs": [],
					"name": "totalVotes",
					"outputs": [
						{
							"internalType": "uint256",
							"name": "",
							"type": "uint256"
						}
					],
					"stateMutability": "view",
					"type": "function"
				},
				{
					"inputs": [
						{
							"internalType": "address",
							"name": "",
							"type": "address"
						}
					],
					"name": "userChoice",
					"outputs": [
						{
							"internalType": "bool",
							"name": "",
							"type": "bool"
						}
					],
					"stateMutability": "view",
					"type": "function"
				}
			],
			"devdoc": {
				"kind": "dev",
				"methods": {},
				"version": 1
			},
			"evm": {
				"assembly": "    /* \"Like_Dislike1.sol\":60:1345  contract LikeDislike {... */\n  mstore(0x40, 0x80)\n  callvalue\n  dup1\n  iszero\n  tag_1\n  jumpi\n  revert(0x00, 0x00)\ntag_1:\n  pop\n  dataSize(sub_0)\n  dup1\n  dataOffset(sub_0)\n  0x00\n  codecopy\n  0x00\n  return\nstop\n\nsub_0: assembly {\n        /* \"Like_Dislike1.sol\":60:1345  contract LikeDislike {... */\n      mstore(0x40, 0x80)\n      callvalue\n      dup1\n      iszero\n      tag_1\n      jumpi\n      revert(0x00, 0x00)\n    tag_1:\n      pop\n      jumpi(tag_2, lt(calldatasize, 0x04))\n      shr(0xe0, calldataload(0x00))\n      dup1\n      0xa523b88a\n      gt\n      tag_11\n      jumpi\n      dup1\n      0xa523b88a\n      eq\n      tag_7\n      jumpi\n      dup1\n      0xbc55efbf\n      eq\n      tag_8\n      jumpi\n      dup1\n      0xdf5a11e1\n      eq\n      tag_9\n      jumpi\n      dup1\n      0xe5a0af3d\n      eq\n      tag_10\n      jumpi\n      jump(tag_2)\n    tag_11:\n      dup1\n      0x09eef43e\n      eq\n      tag_3\n      jumpi\n      dup1\n      0x0d15fd77\n      eq\n      tag_4\n      jumpi\n      dup1\n      0x60c68205\n      eq\n      tag_5\n      jumpi\n      dup1\n      0x9f9eec04\n      eq\n      tag_6\n      jumpi\n    tag_2:\n      revert(0x00, 0x00)\n        /* \"Like_Dislike1.sol\":193:233  mapping(address => bool) public hasVoted */\n    tag_3:\n      tag_12\n      0x04\n      dup1\n      calldatasize\n      sub\n      dup2\n      add\n      swap1\n      tag_13\n      swap2\n      swap1\n      tag_14\n      jump\t// in\n    tag_13:\n      tag_15\n      jump\t// in\n    tag_12:\n      mload(0x40)\n      tag_16\n      swap2\n      swap1\n      tag_17\n      jump\t// in\n    tag_16:\n      mload(0x40)\n      dup1\n      swap2\n      sub\n      swap1\n      return\n        /* \"Like_Dislike1.sol\":1243:1342  function totalVotes() public view returns (uint) {... */\n    tag_4:\n      tag_18\n      tag_19\n      jump\t// in\n    tag_18:\n      mload(0x40)\n      tag_20\n      swap2\n      swap1\n      tag_21\n      jump\t// in\n    tag_20:\n      mload(0x40)\n      dup1\n      swap2\n      sub\n      swap1\n      return\n        /* \"Like_Dislike1.sol\":118:142  uint public dislikeCount */\n    tag_5:\n      tag_22\n      tag_23\n      jump\t// in\n    tag_22:\n      mload(0x40)\n      tag_24\n      swap2\n      swap1\n      tag_21\n      jump\t// in\n    tag_24:\n      mload(0x40)\n      dup1\n      swap2\n      sub\n      swap1\n      return\n        /* \"Like_Dislike1.sol\":299:341  mapping(address => bool) public userChoice */\n    tag_6:\n      tag_25\n      0x04\n      dup1\n      calldatasize\n      sub\n      dup2\n      add\n      swap1\n      tag_26\n      swap2\n      swap1\n      tag_14\n      jump\t// in\n    tag_26:\n      tag_27\n      jump\t// in\n    tag_25:\n      mload(0x40)\n      tag_28\n      swap2\n      swap1\n      tag_17\n      jump\t// in\n    tag_28:\n      mload(0x40)\n      dup1\n      swap2\n      sub\n      swap1\n      return\n        /* \"Like_Dislike1.sol\":372:572  function like() public {... */\n    tag_7:\n      tag_29\n      tag_30\n      jump\t// in\n    tag_29:\n      stop\n        /* \"Like_Dislike1.sol\":840:1211  function changeVote() public {... */\n    tag_8:\n      tag_31\n      tag_32\n      jump\t// in\n    tag_31:\n      stop\n        /* \"Like_Dislike1.sol\":605:812  function dislike() public {... */\n    tag_9:\n      tag_33\n      tag_34\n      jump\t// in\n    tag_33:\n      stop\n        /* \"Like_Dislike1.sol\":90:111  uint public likeCount */\n    tag_10:\n      tag_35\n      tag_36\n      jump\t// in\n    tag_35:\n      mload(0x40)\n      tag_37\n      swap2\n      swap1\n      tag_21\n      jump\t// in\n    tag_37:\n      mload(0x40)\n      dup1\n      swap2\n      sub\n      swap1\n      return\n        /* \"Like_Dislike1.sol\":193:233  mapping(address => bool) public hasVoted */\n    tag_15:\n      mstore(0x20, 0x02)\n      dup1\n      0x00\n      mstore\n      keccak256(0x00, 0x40)\n      0x00\n      swap2\n      pop\n      sload\n      swap1\n      0x0100\n      exp\n      swap1\n      div\n      0xff\n      and\n      dup2\n      jump\t// out\n        /* \"Like_Dislike1.sol\":1243:1342  function totalVotes() public view returns (uint) {... */\n    tag_19:\n        /* \"Like_Dislike1.sol\":1286:1290  uint */\n      0x00\n        /* \"Like_Dislike1.sol\":1322:1334  dislikeCount */\n      sload(0x01)\n        /* \"Like_Dislike1.sol\":1310:1319  likeCount */\n      sload(0x00)\n        /* \"Like_Dislike1.sol\":1310:1334  likeCount + dislikeCount */\n      tag_39\n      swap2\n      swap1\n      tag_40\n      jump\t// in\n    tag_39:\n        /* \"Like_Dislike1.sol\":1303:1334  return likeCount + dislikeCount */\n      swap1\n      pop\n        /* \"Like_Dislike1.sol\":1243:1342  function totalVotes() public view returns (uint) {... */\n      swap1\n      jump\t// out\n        /* \"Like_Dislike1.sol\":118:142  uint public dislikeCount */\n    tag_23:\n      sload(0x01)\n      dup2\n      jump\t// out\n        /* \"Like_Dislike1.sol\":299:341  mapping(address => bool) public userChoice */\n    tag_27:\n      mstore(0x20, 0x03)\n      dup1\n      0x00\n      mstore\n      keccak256(0x00, 0x40)\n      0x00\n      swap2\n      pop\n      sload\n      swap1\n      0x0100\n      exp\n      swap1\n      div\n      0xff\n      and\n      dup2\n      jump\t// out\n        /* \"Like_Dislike1.sol\":372:572  function like() public {... */\n    tag_30:\n        /* \"Like_Dislike1.sol\":415:423  hasVoted */\n      0x02\n        /* \"Like_Dislike1.sol\":415:435  hasVoted[msg.sender] */\n      0x00\n        /* \"Like_Dislike1.sol\":424:434  msg.sender */\n      caller\n        /* \"Like_Dislike1.sol\":415:435  hasVoted[msg.sender] */\n      0xffffffffffffffffffffffffffffffffffffffff\n      and\n      0xffffffffffffffffffffffffffffffffffffffff\n      and\n      dup2\n      mstore\n      0x20\n      add\n      swap1\n      dup2\n      mstore\n      0x20\n      add\n      0x00\n      keccak256\n      0x00\n      swap1\n      sload\n      swap1\n      0x0100\n      exp\n      swap1\n      div\n      0xff\n      and\n        /* \"Like_Dislike1.sol\":414:435  !hasVoted[msg.sender] */\n      iszero\n        /* \"Like_Dislike1.sol\":406:462  require(!hasVoted[msg.sender], \"You have already voted\") */\n      tag_42\n      jumpi\n      mload(0x40)\n      0x08c379a000000000000000000000000000000000000000000000000000000000\n      dup2\n      mstore\n      0x04\n      add\n      tag_43\n      swap1\n      tag_44\n      jump\t// in\n    tag_43:\n      mload(0x40)\n      dup1\n      swap2\n      sub\n      swap1\n      revert\n    tag_42:\n        /* \"Like_Dislike1.sol\":475:484  likeCount */\n      0x00\n      0x00\n        /* \"Like_Dislike1.sol\":475:486  likeCount++ */\n      dup2\n      sload\n      dup1\n      swap3\n      swap2\n      swap1\n      tag_45\n      swap1\n      tag_46\n      jump\t// in\n    tag_45:\n      swap2\n      swap1\n      pop\n      sstore\n      pop\n        /* \"Like_Dislike1.sol\":520:524  true */\n      0x01\n        /* \"Like_Dislike1.sol\":497:505  hasVoted */\n      0x02\n        /* \"Like_Dislike1.sol\":497:517  hasVoted[msg.sender] */\n      0x00\n        /* \"Like_Dislike1.sol\":506:516  msg.sender */\n      caller\n        /* \"Like_Dislike1.sol\":497:517  hasVoted[msg.sender] */\n      0xffffffffffffffffffffffffffffffffffffffff\n      and\n      0xffffffffffffffffffffffffffffffffffffffff\n      and\n      dup2\n      mstore\n      0x20\n      add\n      swap1\n      dup2\n      mstore\n      0x20\n      add\n      0x00\n      keccak256\n      0x00\n        /* \"Like_Dislike1.sol\":497:524  hasVoted[msg.sender] = true */\n      0x0100\n      exp\n      dup2\n      sload\n      dup2\n      0xff\n      mul\n      not\n      and\n      swap1\n      dup4\n      iszero\n      iszero\n      mul\n      or\n      swap1\n      sstore\n      pop\n        /* \"Like_Dislike1.sol\":560:564  true */\n      0x01\n        /* \"Like_Dislike1.sol\":535:545  userChoice */\n      0x03\n        /* \"Like_Dislike1.sol\":535:557  userChoice[msg.sender] */\n      0x00\n        /* \"Like_Dislike1.sol\":546:556  msg.sender */\n      caller\n        /* \"Like_Dislike1.sol\":535:557  userChoice[msg.sender] */\n      0xffffffffffffffffffffffffffffffffffffffff\n      and\n      0xffffffffffffffffffffffffffffffffffffffff\n      and\n      dup2\n      mstore\n      0x20\n      add\n      swap1\n      dup2\n      mstore\n      0x20\n      add\n      0x00\n      keccak256\n      0x00\n        /* \"Like_Dislike1.sol\":535:564  userChoice[msg.sender] = true */\n      0x0100\n      exp\n      dup2\n      sload\n      dup2\n      0xff\n      mul\n      not\n      and\n      swap1\n      dup4\n      iszero\n      iszero\n      mul\n      or\n      swap1\n      sstore\n      pop\n        /* \"Like_Dislike1.sol\":372:572  function like() public {... */\n      jump\t// out\n        /* \"Like_Dislike1.sol\":840:1211  function changeVote() public {... */\n    tag_32:\n        /* \"Like_Dislike1.sol\":888:896  hasVoted */\n      0x02\n        /* \"Like_Dislike1.sol\":888:908  hasVoted[msg.sender] */\n      0x00\n        /* \"Like_Dislike1.sol\":897:907  msg.sender */\n      caller\n        /* \"Like_Dislike1.sol\":888:908  hasVoted[msg.sender] */\n      0xffffffffffffffffffffffffffffffffffffffff\n      and\n      0xffffffffffffffffffffffffffffffffffffffff\n      and\n      dup2\n      mstore\n      0x20\n      add\n      swap1\n      dup2\n      mstore\n      0x20\n      add\n      0x00\n      keccak256\n      0x00\n      swap1\n      sload\n      swap1\n      0x0100\n      exp\n      swap1\n      div\n      0xff\n      and\n        /* \"Like_Dislike1.sol\":880:934  require(hasVoted[msg.sender], \"You haven't voted yet\") */\n      tag_48\n      jumpi\n      mload(0x40)\n      0x08c379a000000000000000000000000000000000000000000000000000000000\n      dup2\n      mstore\n      0x04\n      add\n      tag_49\n      swap1\n      tag_50\n      jump\t// in\n    tag_49:\n      mload(0x40)\n      dup1\n      swap2\n      sub\n      swap1\n      revert\n    tag_48:\n        /* \"Like_Dislike1.sol\":951:961  userChoice */\n      0x03\n        /* \"Like_Dislike1.sol\":951:973  userChoice[msg.sender] */\n      0x00\n        /* \"Like_Dislike1.sol\":962:972  msg.sender */\n      caller\n        /* \"Like_Dislike1.sol\":951:973  userChoice[msg.sender] */\n      0xffffffffffffffffffffffffffffffffffffffff\n      and\n      0xffffffffffffffffffffffffffffffffffffffff\n      and\n      dup2\n      mstore\n      0x20\n      add\n      swap1\n      dup2\n      mstore\n      0x20\n      add\n      0x00\n      keccak256\n      0x00\n      swap1\n      sload\n      swap1\n      0x0100\n      exp\n      swap1\n      div\n      0xff\n      and\n        /* \"Like_Dislike1.sol\":947:1204  if (userChoice[msg.sender]) {... */\n      iszero\n      tag_51\n      jumpi\n        /* \"Like_Dislike1.sol\":990:999  likeCount */\n      0x00\n      0x00\n        /* \"Like_Dislike1.sol\":990:1001  likeCount-- */\n      dup2\n      sload\n      dup1\n      swap3\n      swap2\n      swap1\n      tag_52\n      swap1\n      tag_53\n      jump\t// in\n    tag_52:\n      swap2\n      swap1\n      pop\n      sstore\n      pop\n        /* \"Like_Dislike1.sol\":1016:1028  dislikeCount */\n      0x01\n      0x00\n        /* \"Like_Dislike1.sol\":1016:1030  dislikeCount++ */\n      dup2\n      sload\n      dup1\n      swap3\n      swap2\n      swap1\n      tag_54\n      swap1\n      tag_46\n      jump\t// in\n    tag_54:\n      swap2\n      swap1\n      pop\n      sstore\n      pop\n        /* \"Like_Dislike1.sol\":1070:1075  false */\n      0x00\n        /* \"Like_Dislike1.sol\":1045:1055  userChoice */\n      0x03\n        /* \"Like_Dislike1.sol\":1045:1067  userChoice[msg.sender] */\n      0x00\n        /* \"Like_Dislike1.sol\":1056:1066  msg.sender */\n      caller\n        /* \"Like_Dislike1.sol\":1045:1067  userChoice[msg.sender] */\n      0xffffffffffffffffffffffffffffffffffffffff\n      and\n      0xffffffffffffffffffffffffffffffffffffffff\n      and\n      dup2\n      mstore\n      0x20\n      add\n      swap1\n      dup2\n      mstore\n      0x20\n      add\n      0x00\n      keccak256\n      0x00\n        /* \"Like_Dislike1.sol\":1045:1075  userChoice[msg.sender] = false */\n      0x0100\n      exp\n      dup2\n      sload\n      dup2\n      0xff\n      mul\n      not\n      and\n      swap1\n      dup4\n      iszero\n      iszero\n      mul\n      or\n      swap1\n      sstore\n      pop\n        /* \"Like_Dislike1.sol\":947:1204  if (userChoice[msg.sender]) {... */\n      jump(tag_55)\n    tag_51:\n        /* \"Like_Dislike1.sol\":1108:1120  dislikeCount */\n      0x01\n      0x00\n        /* \"Like_Dislike1.sol\":1108:1122  dislikeCount-- */\n      dup2\n      sload\n      dup1\n      swap3\n      swap2\n      swap1\n      tag_56\n      swap1\n      tag_53\n      jump\t// in\n    tag_56:\n      swap2\n      swap1\n      pop\n      sstore\n      pop\n        /* \"Like_Dislike1.sol\":1137:1146  likeCount */\n      0x00\n      0x00\n        /* \"Like_Dislike1.sol\":1137:1148  likeCount++ */\n      dup2\n      sload\n      dup1\n      swap3\n      swap2\n      swap1\n      tag_57\n      swap1\n      tag_46\n      jump\t// in\n    tag_57:\n      swap2\n      swap1\n      pop\n      sstore\n      pop\n        /* \"Like_Dislike1.sol\":1188:1192  true */\n      0x01\n        /* \"Like_Dislike1.sol\":1163:1173  userChoice */\n      0x03\n        /* \"Like_Dislike1.sol\":1163:1185  userChoice[msg.sender] */\n      0x00\n        /* \"Like_Dislike1.sol\":1174:1184  msg.sender */\n      caller\n        /* \"Like_Dislike1.sol\":1163:1185  userChoice[msg.sender] */\n      0xffffffffffffffffffffffffffffffffffffffff\n      and\n      0xffffffffffffffffffffffffffffffffffffffff\n      and\n      dup2\n      mstore\n      0x20\n      add\n      swap1\n      dup2\n      mstore\n      0x20\n      add\n      0x00\n      keccak256\n      0x00\n        /* \"Like_Dislike1.sol\":1163:1192  userChoice[msg.sender] = true */\n      0x0100\n      exp\n      dup2\n      sload\n      dup2\n      0xff\n      mul\n      not\n      and\n      swap1\n      dup4\n      iszero\n      iszero\n      mul\n      or\n      swap1\n      sstore\n      pop\n        /* \"Like_Dislike1.sol\":947:1204  if (userChoice[msg.sender]) {... */\n    tag_55:\n        /* \"Like_Dislike1.sol\":840:1211  function changeVote() public {... */\n      jump\t// out\n        /* \"Like_Dislike1.sol\":605:812  function dislike() public {... */\n    tag_34:\n        /* \"Like_Dislike1.sol\":651:659  hasVoted */\n      0x02\n        /* \"Like_Dislike1.sol\":651:671  hasVoted[msg.sender] */\n      0x00\n        /* \"Like_Dislike1.sol\":660:670  msg.sender */\n      caller\n        /* \"Like_Dislike1.sol\":651:671  hasVoted[msg.sender] */\n      0xffffffffffffffffffffffffffffffffffffffff\n      and\n      0xffffffffffffffffffffffffffffffffffffffff\n      and\n      dup2\n      mstore\n      0x20\n      add\n      swap1\n      dup2\n      mstore\n      0x20\n      add\n      0x00\n      keccak256\n      0x00\n      swap1\n      sload\n      swap1\n      0x0100\n      exp\n      swap1\n      div\n      0xff\n      and\n        /* \"Like_Dislike1.sol\":650:671  !hasVoted[msg.sender] */\n      iszero\n        /* \"Like_Dislike1.sol\":642:698  require(!hasVoted[msg.sender], \"You have already voted\") */\n      tag_59\n      jumpi\n      mload(0x40)\n      0x08c379a000000000000000000000000000000000000000000000000000000000\n      dup2\n      mstore\n      0x04\n      add\n      tag_60\n      swap1\n      tag_44\n      jump\t// in\n    tag_60:\n      mload(0x40)\n      dup1\n      swap2\n      sub\n      swap1\n      revert\n    tag_59:\n        /* \"Like_Dislike1.sol\":711:723  dislikeCount */\n      0x01\n      0x00\n        /* \"Like_Dislike1.sol\":711:725  dislikeCount++ */\n      dup2\n      sload\n      dup1\n      swap3\n      swap2\n      swap1\n      tag_61\n      swap1\n      tag_46\n      jump\t// in\n    tag_61:\n      swap2\n      swap1\n      pop\n      sstore\n      pop\n        /* \"Like_Dislike1.sol\":759:763  true */\n      0x01\n        /* \"Like_Dislike1.sol\":736:744  hasVoted */\n      0x02\n        /* \"Like_Dislike1.sol\":736:756  hasVoted[msg.sender] */\n      0x00\n        /* \"Like_Dislike1.sol\":745:755  msg.sender */\n      caller\n        /* \"Like_Dislike1.sol\":736:756  hasVoted[msg.sender] */\n      0xffffffffffffffffffffffffffffffffffffffff\n      and\n      0xffffffffffffffffffffffffffffffffffffffff\n      and\n      dup2\n      mstore\n      0x20\n      add\n      swap1\n      dup2\n      mstore\n      0x20\n      add\n      0x00\n      keccak256\n      0x00\n        /* \"Like_Dislike1.sol\":736:763  hasVoted[msg.sender] = true */\n      0x0100\n      exp\n      dup2\n      sload\n      dup2\n      0xff\n      mul\n      not\n      and\n      swap1\n      dup4\n      iszero\n      iszero\n      mul\n      or\n      swap1\n      sstore\n      pop\n        /* \"Like_Dislike1.sol\":799:804  false */\n      0x00\n        /* \"Like_Dislike1.sol\":774:784  userChoice */\n      0x03\n        /* \"Like_Dislike1.sol\":774:796  userChoice[msg.sender] */\n      0x00\n        /* \"Like_Dislike1.sol\":785:795  msg.sender */\n      caller\n        /* \"Like_Dislike1.sol\":774:796  userChoice[msg.sender] */\n      0xffffffffffffffffffffffffffffffffffffffff\n      and\n      0xffffffffffffffffffffffffffffffffffffffff\n      and\n      dup2\n      mstore\n      0x20\n      add\n      swap1\n      dup2\n      mstore\n      0x20\n      add\n      0x00\n      keccak256\n      0x00\n        /* \"Like_Dislike1.sol\":774:804  userChoice[msg.sender] = false */\n      0x0100\n      exp\n      dup2\n      sload\n      dup2\n      0xff\n      mul\n      not\n      and\n      swap1\n      dup4\n      iszero\n      iszero\n      mul\n      or\n      swap1\n      sstore\n      pop\n        /* \"Like_Dislike1.sol\":605:812  function dislike() public {... */\n      jump\t// out\n        /* \"Like_Dislike1.sol\":90:111  uint public likeCount */\n    tag_36:\n      sload(0x00)\n      dup2\n      jump\t// out\n        /* \"#utility.yul\":88:205   */\n    tag_63:\n        /* \"#utility.yul\":197:198   */\n      0x00\n        /* \"#utility.yul\":194:195   */\n      0x00\n        /* \"#utility.yul\":187:199   */\n      revert\n        /* \"#utility.yul\":334:460   */\n    tag_65:\n        /* \"#utility.yul\":371:378   */\n      0x00\n        /* \"#utility.yul\":411:453   */\n      0xffffffffffffffffffffffffffffffffffffffff\n        /* \"#utility.yul\":404:409   */\n      dup3\n        /* \"#utility.yul\":400:454   */\n      and\n        /* \"#utility.yul\":389:454   */\n      swap1\n      pop\n        /* \"#utility.yul\":334:460   */\n      swap2\n      swap1\n      pop\n      jump\t// out\n        /* \"#utility.yul\":466:562   */\n    tag_66:\n        /* \"#utility.yul\":503:510   */\n      0x00\n        /* \"#utility.yul\":532:556   */\n      tag_85\n        /* \"#utility.yul\":550:555   */\n      dup3\n        /* \"#utility.yul\":532:556   */\n      tag_65\n      jump\t// in\n    tag_85:\n        /* \"#utility.yul\":521:556   */\n      swap1\n      pop\n        /* \"#utility.yul\":466:562   */\n      swap2\n      swap1\n      pop\n      jump\t// out\n        /* \"#utility.yul\":568:690   */\n    tag_67:\n        /* \"#utility.yul\":641:665   */\n      tag_87\n        /* \"#utility.yul\":659:664   */\n      dup2\n        /* \"#utility.yul\":641:665   */\n      tag_66\n      jump\t// in\n    tag_87:\n        /* \"#utility.yul\":634:639   */\n      dup2\n        /* \"#utility.yul\":631:666   */\n      eq\n        /* \"#utility.yul\":621:684   */\n      tag_88\n      jumpi\n        /* \"#utility.yul\":680:681   */\n      0x00\n        /* \"#utility.yul\":677:678   */\n      0x00\n        /* \"#utility.yul\":670:682   */\n      revert\n        /* \"#utility.yul\":621:684   */\n    tag_88:\n        /* \"#utility.yul\":568:690   */\n      pop\n      jump\t// out\n        /* \"#utility.yul\":696:835   */\n    tag_68:\n        /* \"#utility.yul\":742:747   */\n      0x00\n        /* \"#utility.yul\":780:786   */\n      dup2\n        /* \"#utility.yul\":767:787   */\n      calldataload\n        /* \"#utility.yul\":758:787   */\n      swap1\n      pop\n        /* \"#utility.yul\":796:829   */\n      tag_90\n        /* \"#utility.yul\":823:828   */\n      dup2\n        /* \"#utility.yul\":796:829   */\n      tag_67\n      jump\t// in\n    tag_90:\n        /* \"#utility.yul\":696:835   */\n      swap3\n      swap2\n      pop\n      pop\n      jump\t// out\n        /* \"#utility.yul\":841:1170   */\n    tag_14:\n        /* \"#utility.yul\":900:906   */\n      0x00\n        /* \"#utility.yul\":949:951   */\n      0x20\n        /* \"#utility.yul\":937:946   */\n      dup3\n        /* \"#utility.yul\":928:935   */\n      dup5\n        /* \"#utility.yul\":924:947   */\n      sub\n        /* \"#utility.yul\":920:952   */\n      slt\n        /* \"#utility.yul\":917:1036   */\n      iszero\n      tag_92\n      jumpi\n        /* \"#utility.yul\":955:1034   */\n      tag_93\n      tag_63\n      jump\t// in\n    tag_93:\n        /* \"#utility.yul\":917:1036   */\n    tag_92:\n        /* \"#utility.yul\":1075:1076   */\n      0x00\n        /* \"#utility.yul\":1100:1153   */\n      tag_94\n        /* \"#utility.yul\":1145:1152   */\n      dup5\n        /* \"#utility.yul\":1136:1142   */\n      dup3\n        /* \"#utility.yul\":1125:1134   */\n      dup6\n        /* \"#utility.yul\":1121:1143   */\n      add\n        /* \"#utility.yul\":1100:1153   */\n      tag_68\n      jump\t// in\n    tag_94:\n        /* \"#utility.yul\":1090:1153   */\n      swap2\n      pop\n        /* \"#utility.yul\":1046:1163   */\n      pop\n        /* \"#utility.yul\":841:1170   */\n      swap3\n      swap2\n      pop\n      pop\n      jump\t// out\n        /* \"#utility.yul\":1176:1266   */\n    tag_69:\n        /* \"#utility.yul\":1210:1217   */\n      0x00\n        /* \"#utility.yul\":1253:1258   */\n      dup2\n        /* \"#utility.yul\":1246:1259   */\n      iszero\n        /* \"#utility.yul\":1239:1260   */\n      iszero\n        /* \"#utility.yul\":1228:1260   */\n      swap1\n      pop\n        /* \"#utility.yul\":1176:1266   */\n      swap2\n      swap1\n      pop\n      jump\t// out\n        /* \"#utility.yul\":1272:1381   */\n    tag_70:\n        /* \"#utility.yul\":1353:1374   */\n      tag_97\n        /* \"#utility.yul\":1368:1373   */\n      dup2\n        /* \"#utility.yul\":1353:1374   */\n      tag_69\n      jump\t// in\n    tag_97:\n        /* \"#utility.yul\":1348:1351   */\n      dup3\n        /* \"#utility.yul\":1341:1375   */\n      mstore\n        /* \"#utility.yul\":1272:1381   */\n      pop\n      pop\n      jump\t// out\n        /* \"#utility.yul\":1387:1597   */\n    tag_17:\n        /* \"#utility.yul\":1474:1478   */\n      0x00\n        /* \"#utility.yul\":1512:1514   */\n      0x20\n        /* \"#utility.yul\":1501:1510   */\n      dup3\n        /* \"#utility.yul\":1497:1515   */\n      add\n        /* \"#utility.yul\":1489:1515   */\n      swap1\n      pop\n        /* \"#utility.yul\":1525:1590   */\n      tag_99\n        /* \"#utility.yul\":1587:1588   */\n      0x00\n        /* \"#utility.yul\":1576:1585   */\n      dup4\n        /* \"#utility.yul\":1572:1589   */\n      add\n        /* \"#utility.yul\":1563:1569   */\n      dup5\n        /* \"#utility.yul\":1525:1590   */\n      tag_70\n      jump\t// in\n    tag_99:\n        /* \"#utility.yul\":1387:1597   */\n      swap3\n      swap2\n      pop\n      pop\n      jump\t// out\n        /* \"#utility.yul\":1603:1680   */\n    tag_71:\n        /* \"#utility.yul\":1640:1647   */\n      0x00\n        /* \"#utility.yul\":1669:1674   */\n      dup2\n        /* \"#utility.yul\":1658:1674   */\n      swap1\n      pop\n        /* \"#utility.yul\":1603:1680   */\n      swap2\n      swap1\n      pop\n      jump\t// out\n        /* \"#utility.yul\":1686:1804   */\n    tag_72:\n        /* \"#utility.yul\":1773:1797   */\n      tag_102\n        /* \"#utility.yul\":1791:1796   */\n      dup2\n        /* \"#utility.yul\":1773:1797   */\n      tag_71\n      jump\t// in\n    tag_102:\n        /* \"#utility.yul\":1768:1771   */\n      dup3\n        /* \"#utility.yul\":1761:1798   */\n      mstore\n        /* \"#utility.yul\":1686:1804   */\n      pop\n      pop\n      jump\t// out\n        /* \"#utility.yul\":1810:2032   */\n    tag_21:\n        /* \"#utility.yul\":1903:1907   */\n      0x00\n        /* \"#utility.yul\":1941:1943   */\n      0x20\n        /* \"#utility.yul\":1930:1939   */\n      dup3\n        /* \"#utility.yul\":1926:1944   */\n      add\n        /* \"#utility.yul\":1918:1944   */\n      swap1\n      pop\n        /* \"#utility.yul\":1954:2025   */\n      tag_104\n        /* \"#utility.yul\":2022:2023   */\n      0x00\n        /* \"#utility.yul\":2011:2020   */\n      dup4\n        /* \"#utility.yul\":2007:2024   */\n      add\n        /* \"#utility.yul\":1998:2004   */\n      dup5\n        /* \"#utility.yul\":1954:2025   */\n      tag_72\n      jump\t// in\n    tag_104:\n        /* \"#utility.yul\":1810:2032   */\n      swap3\n      swap2\n      pop\n      pop\n      jump\t// out\n        /* \"#utility.yul\":2038:2218   */\n    tag_73:\n        /* \"#utility.yul\":2086:2163   */\n      0x4e487b7100000000000000000000000000000000000000000000000000000000\n        /* \"#utility.yul\":2083:2084   */\n      0x00\n        /* \"#utility.yul\":2076:2164   */\n      mstore\n        /* \"#utility.yul\":2183:2187   */\n      0x11\n        /* \"#utility.yul\":2180:2181   */\n      0x04\n        /* \"#utility.yul\":2173:2188   */\n      mstore\n        /* \"#utility.yul\":2207:2211   */\n      0x24\n        /* \"#utility.yul\":2204:2205   */\n      0x00\n        /* \"#utility.yul\":2197:2212   */\n      revert\n        /* \"#utility.yul\":2224:2415   */\n    tag_40:\n        /* \"#utility.yul\":2264:2267   */\n      0x00\n        /* \"#utility.yul\":2283:2303   */\n      tag_107\n        /* \"#utility.yul\":2301:2302   */\n      dup3\n        /* \"#utility.yul\":2283:2303   */\n      tag_71\n      jump\t// in\n    tag_107:\n        /* \"#utility.yul\":2278:2303   */\n      swap2\n      pop\n        /* \"#utility.yul\":2317:2337   */\n      tag_108\n        /* \"#utility.yul\":2335:2336   */\n      dup4\n        /* \"#utility.yul\":2317:2337   */\n      tag_71\n      jump\t// in\n    tag_108:\n        /* \"#utility.yul\":2312:2337   */\n      swap3\n      pop\n        /* \"#utility.yul\":2360:2361   */\n      dup3\n        /* \"#utility.yul\":2357:2358   */\n      dup3\n        /* \"#utility.yul\":2353:2362   */\n      add\n        /* \"#utility.yul\":2346:2362   */\n      swap1\n      pop\n        /* \"#utility.yul\":2381:2384   */\n      dup1\n        /* \"#utility.yul\":2378:2379   */\n      dup3\n        /* \"#utility.yul\":2375:2385   */\n      gt\n        /* \"#utility.yul\":2372:2408   */\n      iszero\n      tag_109\n      jumpi\n        /* \"#utility.yul\":2388:2406   */\n      tag_110\n      tag_73\n      jump\t// in\n    tag_110:\n        /* \"#utility.yul\":2372:2408   */\n    tag_109:\n        /* \"#utility.yul\":2224:2415   */\n      swap3\n      swap2\n      pop\n      pop\n      jump\t// out\n        /* \"#utility.yul\":2421:2590   */\n    tag_74:\n        /* \"#utility.yul\":2505:2516   */\n      0x00\n        /* \"#utility.yul\":2539:2545   */\n      dup3\n        /* \"#utility.yul\":2534:2537   */\n      dup3\n        /* \"#utility.yul\":2527:2546   */\n      mstore\n        /* \"#utility.yul\":2579:2583   */\n      0x20\n        /* \"#utility.yul\":2574:2577   */\n      dup3\n        /* \"#utility.yul\":2570:2584   */\n      add\n        /* \"#utility.yul\":2555:2584   */\n      swap1\n      pop\n        /* \"#utility.yul\":2421:2590   */\n      swap3\n      swap2\n      pop\n      pop\n      jump\t// out\n        /* \"#utility.yul\":2596:2768   */\n    tag_75:\n        /* \"#utility.yul\":2736:2760   */\n      0x596f75206861766520616c726561647920766f74656400000000000000000000\n        /* \"#utility.yul\":2732:2733   */\n      0x00\n        /* \"#utility.yul\":2724:2730   */\n      dup3\n        /* \"#utility.yul\":2720:2734   */\n      add\n        /* \"#utility.yul\":2713:2761   */\n      mstore\n        /* \"#utility.yul\":2596:2768   */\n      pop\n      jump\t// out\n        /* \"#utility.yul\":2774:3140   */\n    tag_76:\n        /* \"#utility.yul\":2916:2919   */\n      0x00\n        /* \"#utility.yul\":2937:3004   */\n      tag_114\n        /* \"#utility.yul\":3001:3003   */\n      0x16\n        /* \"#utility.yul\":2996:2999   */\n      dup4\n        /* \"#utility.yul\":2937:3004   */\n      tag_74\n      jump\t// in\n    tag_114:\n        /* \"#utility.yul\":2930:3004   */\n      swap2\n      pop\n        /* \"#utility.yul\":3013:3106   */\n      tag_115\n        /* \"#utility.yul\":3102:3105   */\n      dup3\n        /* \"#utility.yul\":3013:3106   */\n      tag_75\n      jump\t// in\n    tag_115:\n        /* \"#utility.yul\":3131:3133   */\n      0x20\n        /* \"#utility.yul\":3126:3129   */\n      dup3\n        /* \"#utility.yul\":3122:3134   */\n      add\n        /* \"#utility.yul\":3115:3134   */\n      swap1\n      pop\n        /* \"#utility.yul\":2774:3140   */\n      swap2\n      swap1\n      pop\n      jump\t// out\n        /* \"#utility.yul\":3146:3565   */\n    tag_44:\n        /* \"#utility.yul\":3312:3316   */\n      0x00\n        /* \"#utility.yul\":3350:3352   */\n      0x20\n        /* \"#utility.yul\":3339:3348   */\n      dup3\n        /* \"#utility.yul\":3335:3353   */\n      add\n        /* \"#utility.yul\":3327:3353   */\n      swap1\n      pop\n        /* \"#utility.yul\":3399:3408   */\n      dup2\n        /* \"#utility.yul\":3393:3397   */\n      dup2\n        /* \"#utility.yul\":3389:3409   */\n      sub\n        /* \"#utility.yul\":3385:3386   */\n      0x00\n        /* \"#utility.yul\":3374:3383   */\n      dup4\n        /* \"#utility.yul\":3370:3387   */\n      add\n        /* \"#utility.yul\":3363:3410   */\n      mstore\n        /* \"#utility.yul\":3427:3558   */\n      tag_117\n        /* \"#utility.yul\":3553:3557   */\n      dup2\n        /* \"#utility.yul\":3427:3558   */\n      tag_76\n      jump\t// in\n    tag_117:\n        /* \"#utility.yul\":3419:3558   */\n      swap1\n      pop\n        /* \"#utility.yul\":3146:3565   */\n      swap2\n      swap1\n      pop\n      jump\t// out\n        /* \"#utility.yul\":3571:3804   */\n    tag_46:\n        /* \"#utility.yul\":3610:3613   */\n      0x00\n        /* \"#utility.yul\":3633:3657   */\n      tag_119\n        /* \"#utility.yul\":3651:3656   */\n      dup3\n        /* \"#utility.yul\":3633:3657   */\n      tag_71\n      jump\t// in\n    tag_119:\n        /* \"#utility.yul\":3624:3657   */\n      swap2\n      pop\n        /* \"#utility.yul\":3679:3745   */\n      0xffffffffffffffffffffffffffffffffffffffffffffffffffffffffffffffff\n        /* \"#utility.yul\":3672:3677   */\n      dup3\n        /* \"#utility.yul\":3669:3746   */\n      sub\n        /* \"#utility.yul\":3666:3769   */\n      tag_120\n      jumpi\n        /* \"#utility.yul\":3749:3767   */\n      tag_121\n      tag_73\n      jump\t// in\n    tag_121:\n        /* \"#utility.yul\":3666:3769   */\n    tag_120:\n        /* \"#utility.yul\":3796:3797   */\n      0x01\n        /* \"#utility.yul\":3789:3794   */\n      dup3\n        /* \"#utility.yul\":3785:3798   */\n      add\n        /* \"#utility.yul\":3778:3798   */\n      swap1\n      pop\n        /* \"#utility.yul\":3571:3804   */\n      swap2\n      swap1\n      pop\n      jump\t// out\n        /* \"#utility.yul\":3810:3981   */\n    tag_77:\n        /* \"#utility.yul\":3950:3973   */\n      0x596f7520686176656e277420766f746564207965740000000000000000000000\n        /* \"#utility.yul\":3946:3947   */\n      0x00\n        /* \"#utility.yul\":3938:3944   */\n      dup3\n        /* \"#utility.yul\":3934:3948   */\n      add\n        /* \"#utility.yul\":3927:3974   */\n      mstore\n        /* \"#utility.yul\":3810:3981   */\n      pop\n      jump\t// out\n        /* \"#utility.yul\":3987:4353   */\n    tag_78:\n        /* \"#utility.yul\":4129:4132   */\n      0x00\n        /* \"#utility.yul\":4150:4217   */\n      tag_124\n        /* \"#utility.yul\":4214:4216   */\n      0x15\n        /* \"#utility.yul\":4209:4212   */\n      dup4\n        /* \"#utility.yul\":4150:4217   */\n      tag_74\n      jump\t// in\n    tag_124:\n        /* \"#utility.yul\":4143:4217   */\n      swap2\n      pop\n        /* \"#utility.yul\":4226:4319   */\n      tag_125\n        /* \"#utility.yul\":4315:4318   */\n      dup3\n        /* \"#utility.yul\":4226:4319   */\n      tag_77\n      jump\t// in\n    tag_125:\n        /* \"#utility.yul\":4344:4346   */\n      0x20\n        /* \"#utility.yul\":4339:4342   */\n      dup3\n        /* \"#utility.yul\":4335:4347   */\n      add\n        /* \"#utility.yul\":4328:4347   */\n      swap1\n      pop\n        /* \"#utility.yul\":3987:4353   */\n      swap2\n      swap1\n      pop\n      jump\t// out\n        /* \"#utility.yul\":4359:4778   */\n    tag_50:\n        /* \"#utility.yul\":4525:4529   */\n      0x00\n        /* \"#utility.yul\":4563:4565   */\n      0x20\n        /* \"#utility.yul\":4552:4561   */\n      dup3\n        /* \"#utility.yul\":4548:4566   */\n      add\n        /* \"#utility.yul\":4540:4566   */\n      swap1\n      pop\n        /* \"#utility.yul\":4612:4621   */\n      dup2\n        /* \"#utility.yul\":4606:4610   */\n      dup2\n        /* \"#utility.yul\":4602:4622   */\n      sub\n        /* \"#utility.yul\":4598:4599   */\n      0x00\n        /* \"#utility.yul\":4587:4596   */\n      dup4\n        /* \"#utility.yul\":4583:4600   */\n      add\n        /* \"#utility.yul\":4576:4623   */\n      mstore\n        /* \"#utility.yul\":4640:4771   */\n      tag_127\n        /* \"#utility.yul\":4766:4770   */\n      dup2\n        /* \"#utility.yul\":4640:4771   */\n      tag_78\n      jump\t// in\n    tag_127:\n        /* \"#utility.yul\":4632:4771   */\n      swap1\n      pop\n        /* \"#utility.yul\":4359:4778   */\n      swap2\n      swap1\n      pop\n      jump\t// out\n        /* \"#utility.yul\":4784:4955   */\n    tag_53:\n        /* \"#utility.yul\":4823:4826   */\n      0x00\n        /* \"#utility.yul\":4846:4870   */\n      tag_129\n        /* \"#utility.yul\":4864:4869   */\n      dup3\n        /* \"#utility.yul\":4846:4870   */\n      tag_71\n      jump\t// in\n    tag_129:\n        /* \"#utility.yul\":4837:4870   */\n      swap2\n      pop\n        /* \"#utility.yul\":4892:4896   */\n      0x00\n        /* \"#utility.yul\":4885:4890   */\n      dup3\n        /* \"#utility.yul\":4882:4897   */\n      sub\n        /* \"#utility.yul\":4879:4920   */\n      tag_130\n      jumpi\n        /* \"#utility.yul\":4900:4918   */\n      tag_131\n      tag_73\n      jump\t// in\n    tag_131:\n        /* \"#utility.yul\":4879:4920   */\n    tag_130:\n        /* \"#utility.yul\":4947:4948   */\n      0x01\n        /* \"#utility.yul\":4940:4945   */\n      dup3\n        /* \"#utility.yul\":4936:4949   */\n      sub\n        /* \"#utility.yul\":4929:4949   */\n      swap1\n      pop\n        /* \"#utility.yul\":4784:4955   */\n      swap2\n      swap1\n      pop\n      jump\t// out\n\n    auxdata: 0xa26469706673582212208f75fa1321498b5cd5b99cb0ca77aa0826d806802f17f2bbd53960c6f4d2a46364736f6c634300081f0033\n}\n",
				"bytecode": {
					"linkReferences": {},
					"object": "6080604052348015600e575f5ffd5b506109088061001c5f395ff3fe608060405234801561000f575f5ffd5b5060043610610086575f3560e01c8063a523b88a11610059578063a523b88a14610126578063bc55efbf14610130578063df5a11e11461013a578063e5a0af3d1461014457610086565b806309eef43e1461008a5780630d15fd77146100ba57806360c68205146100d85780639f9eec04146100f6575b5f5ffd5b6100a4600480360381019061009f9190610695565b610162565b6040516100b191906106da565b60405180910390f35b6100c261017f565b6040516100cf919061070b565b60405180910390f35b6100e0610194565b6040516100ed919061070b565b60405180910390f35b610110600480360381019061010b9190610695565b61019a565b60405161011d91906106da565b60405180910390f35b61012e6101b7565b005b610138610303565b005b6101426104e6565b005b61014c610632565b604051610159919061070b565b60405180910390f35b6002602052805f5260405f205f915054906101000a900460ff1681565b5f6001545f5461018f9190610751565b905090565b60015481565b6003602052805f5260405f205f915054906101000a900460ff1681565b60025f3373ffffffffffffffffffffffffffffffffffffffff1673ffffffffffffffffffffffffffffffffffffffff1681526020019081526020015f205f9054906101000a900460ff1615610241576040517f08c379a0000000000000000000000000000000000000000000000000000000008152600401610238906107de565b60405180910390fd5b5f5f815480929190610252906107fc565b9190505550600160025f3373ffffffffffffffffffffffffffffffffffffffff1673ffffffffffffffffffffffffffffffffffffffff1681526020019081526020015f205f6101000a81548160ff021916908315150217905550600160035f3373ffffffffffffffffffffffffffffffffffffffff1673ffffffffffffffffffffffffffffffffffffffff1681526020019081526020015f205f6101000a81548160ff021916908315150217905550565b60025f3373ffffffffffffffffffffffffffffffffffffffff1673ffffffffffffffffffffffffffffffffffffffff1681526020019081526020015f205f9054906101000a900460ff1661038c576040517f08c379a00000000000000000000000000000000000000000000000000000000081526004016103839061088d565b60405180910390fd5b60035f3373ffffffffffffffffffffffffffffffffffffffff1673ffffffffffffffffffffffffffffffffffffffff1681526020019081526020015f205f9054906101000a900460ff1615610461575f5f8154809291906103ec906108ab565b919050555060015f815480929190610403906107fc565b91905055505f60035f3373ffffffffffffffffffffffffffffffffffffffff1673ffffffffffffffffffffffffffffffffffffffff1681526020019081526020015f205f6101000a81548160ff0219169083151502179055506104e4565b60015f815480929190610473906108ab565b91905055505f5f815480929190610489906107fc565b9190505550600160035f3373ffffffffffffffffffffffffffffffffffffffff1673ffffffffffffffffffffffffffffffffffffffff1681526020019081526020015f205f6101000a81548160ff0219169083151502179055505b565b60025f3373ffffffffffffffffffffffffffffffffffffffff1673ffffffffffffffffffffffffffffffffffffffff1681526020019081526020015f205f9054906101000a900460ff1615610570576040517f08c379a0000000000000000000000000000000000000000000000000000000008152600401610567906107de565b60405180910390fd5b60015f815480929190610582906107fc565b9190505550600160025f3373ffffffffffffffffffffffffffffffffffffffff1673ffffffffffffffffffffffffffffffffffffffff1681526020019081526020015f205f6101000a81548160ff0219169083151502179055505f60035f3373ffffffffffffffffffffffffffffffffffffffff1673ffffffffffffffffffffffffffffffffffffffff1681526020019081526020015f205f6101000a81548160ff021916908315150217905550565b5f5481565b5f5ffd5b5f73ffffffffffffffffffffffffffffffffffffffff82169050919050565b5f6106648261063b565b9050919050565b6106748161065a565b811461067e575f5ffd5b50565b5f8135905061068f8161066b565b92915050565b5f602082840312156106aa576106a9610637565b5b5f6106b784828501610681565b91505092915050565b5f8115159050919050565b6106d4816106c0565b82525050565b5f6020820190506106ed5f8301846106cb565b92915050565b5f819050919050565b610705816106f3565b82525050565b5f60208201905061071e5f8301846106fc565b92915050565b7f4e487b71000000000000000000000000000000000000000000000000000000005f52601160045260245ffd5b5f61075b826106f3565b9150610766836106f3565b925082820190508082111561077e5761077d610724565b5b92915050565b5f82825260208201905092915050565b7f596f75206861766520616c726561647920766f746564000000000000000000005f82015250565b5f6107c8601683610784565b91506107d382610794565b602082019050919050565b5f6020820190508181035f8301526107f5816107bc565b9050919050565b5f610806826106f3565b91507fffffffffffffffffffffffffffffffffffffffffffffffffffffffffffffffff820361083857610837610724565b5b600182019050919050565b7f596f7520686176656e277420766f7465642079657400000000000000000000005f82015250565b5f610877601583610784565b915061088282610843565b602082019050919050565b5f6020820190508181035f8301526108a48161086b565b9050919050565b5f6108b5826106f3565b91505f82036108c7576108c6610724565b5b60018203905091905056fea26469706673582212208f75fa1321498b5cd5b99cb0ca77aa0826d806802f17f2bbd53960c6f4d2a46364736f6c634300081f0033",
					"opcodes": "PUSH1 0x80 PUSH1 0x40 MSTORE CALLVALUE DUP1 ISZERO PUSH1 0xE JUMPI PUSH0 PUSH0 REVERT JUMPDEST POP PUSH2 0x908 DUP1 PUSH2 0x1C PUSH0 CODECOPY PUSH0 RETURN INVALID PUSH1 0x80 PUSH1 0x40 MSTORE CALLVALUE DUP1 ISZERO PUSH2 0xF JUMPI PUSH0 PUSH0 REVERT JUMPDEST POP PUSH1 0x4 CALLDATASIZE LT PUSH2 0x86 JUMPI PUSH0 CALLDATALOAD PUSH1 0xE0 SHR DUP1 PUSH4 0xA523B88A GT PUSH2 0x59 JUMPI DUP1 PUSH4 0xA523B88A EQ PUSH2 0x126 JUMPI DUP1 PUSH4 0xBC55EFBF EQ PUSH2 0x130 JUMPI DUP1 PUSH4 0xDF5A11E1 EQ PUSH2 0x13A JUMPI DUP1 PUSH4 0xE5A0AF3D EQ PUSH2 0x144 JUMPI PUSH2 0x86 JUMP JUMPDEST DUP1 PUSH4 0x9EEF43E EQ PUSH2 0x8A JUMPI DUP1 PUSH4 0xD15FD77 EQ PUSH2 0xBA JUMPI DUP1 PUSH4 0x60C68205 EQ PUSH2 0xD8 JUMPI DUP1 PUSH4 0x9F9EEC04 EQ PUSH2 0xF6 JUMPI JUMPDEST PUSH0 PUSH0 REVERT JUMPDEST PUSH2 0xA4 PUSH1 0x4 DUP1 CALLDATASIZE SUB DUP2 ADD SWAP1 PUSH2 0x9F SWAP2 SWAP1 PUSH2 0x695 JUMP JUMPDEST PUSH2 0x162 JUMP JUMPDEST PUSH1 0x40 MLOAD PUSH2 0xB1 SWAP2 SWAP1 PUSH2 0x6DA JUMP JUMPDEST PUSH1 0x40 MLOAD DUP1 SWAP2 SUB SWAP1 RETURN JUMPDEST PUSH2 0xC2 PUSH2 0x17F JUMP JUMPDEST PUSH1 0x40 MLOAD PUSH2 0xCF SWAP2 SWAP1 PUSH2 0x70B JUMP JUMPDEST PUSH1 0x40 MLOAD DUP1 SWAP2 SUB SWAP1 RETURN JUMPDEST PUSH2 0xE0 PUSH2 0x194 JUMP JUMPDEST PUSH1 0x40 MLOAD PUSH2 0xED SWAP2 SWAP1 PUSH2 0x70B JUMP JUMPDEST PUSH1 0x40 MLOAD DUP1 SWAP2 SUB SWAP1 RETURN JUMPDEST PUSH2 0x110 PUSH1 0x4 DUP1 CALLDATASIZE SUB DUP2 ADD SWAP1 PUSH2 0x10B SWAP2 SWAP1 PUSH2 0x695 JUMP JUMPDEST PUSH2 0x19A JUMP JUMPDEST PUSH1 0x40 MLOAD PUSH2 0x11D SWAP2 SWAP1 PUSH2 0x6DA JUMP JUMPDEST PUSH1 0x40 MLOAD DUP1 SWAP2 SUB SWAP1 RETURN JUMPDEST PUSH2 0x12E PUSH2 0x1B7 JUMP JUMPDEST STOP JUMPDEST PUSH2 0x138 PUSH2 0x303 JUMP JUMPDEST STOP JUMPDEST PUSH2 0x142 PUSH2 0x4E6 JUMP JUMPDEST STOP JUMPDEST PUSH2 0x14C PUSH2 0x632 JUMP JUMPDEST PUSH1 0x40 MLOAD PUSH2 0x159 SWAP2 SWAP1 PUSH2 0x70B JUMP JUMPDEST PUSH1 0x40 MLOAD DUP1 SWAP2 SUB SWAP1 RETURN JUMPDEST PUSH1 0x2 PUSH1 0x20 MSTORE DUP1 PUSH0 MSTORE PUSH1 0x40 PUSH0 KECCAK256 PUSH0 SWAP2 POP SLOAD SWAP1 PUSH2 0x100 EXP SWAP1 DIV PUSH1 0xFF AND DUP2 JUMP JUMPDEST PUSH0 PUSH1 0x1 SLOAD PUSH0 SLOAD PUSH2 0x18F SWAP2 SWAP1 PUSH2 0x751 JUMP JUMPDEST SWAP1 POP SWAP1 JUMP JUMPDEST PUSH1 0x1 SLOAD DUP2 JUMP JUMPDEST PUSH1 0x3 PUSH1 0x20 MSTORE DUP1 PUSH0 MSTORE PUSH1 0x40 PUSH0 KECCAK256 PUSH0 SWAP2 POP SLOAD SWAP1 PUSH2 0x100 EXP SWAP1 DIV PUSH1 0xFF AND DUP2 JUMP JUMPDEST PUSH1 0x2 PUSH0 CALLER PUSH20 0xFFFFFFFFFFFFFFFFFFFFFFFFFFFFFFFFFFFFFFFF AND PUSH20 0xFFFFFFFFFFFFFFFFFFFFFFFFFFFFFFFFFFFFFFFF AND DUP2 MSTORE PUSH1 0x20 ADD SWAP1 DUP2 MSTORE PUSH1 0x20 ADD PUSH0 KECCAK256 PUSH0 SWAP1 SLOAD SWAP1 PUSH2 0x100 EXP SWAP1 DIV PUSH1 0xFF AND ISZERO PUSH2 0x241 JUMPI PUSH1 0x40 MLOAD PUSH32 0x8C379A000000000000000000000000000000000000000000000000000000000 DUP2 MSTORE PUSH1 0x4 ADD PUSH2 0x238 SWAP1 PUSH2 0x7DE JUMP JUMPDEST PUSH1 0x40 MLOAD DUP1 SWAP2 SUB SWAP1 REVERT JUMPDEST PUSH0 PUSH0 DUP2 SLOAD DUP1 SWAP3 SWAP2 SWAP1 PUSH2 0x252 SWAP1 PUSH2 0x7FC JUMP JUMPDEST SWAP2 SWAP1 POP SSTORE POP PUSH1 0x1 PUSH1 0x2 PUSH0 CALLER PUSH20 0xFFFFFFFFFFFFFFFFFFFFFFFFFFFFFFFFFFFFFFFF AND PUSH20 0xFFFFFFFFFFFFFFFFFFFFFFFFFFFFFFFFFFFFFFFF AND DUP2 MSTORE PUSH1 0x20 ADD SWAP1 DUP2 MSTORE PUSH1 0x20 ADD PUSH0 KECCAK256 PUSH0 PUSH2 0x100 EXP DUP2 SLOAD DUP2 PUSH1 0xFF MUL NOT AND SWAP1 DUP4 ISZERO ISZERO MUL OR SWAP1 SSTORE POP PUSH1 0x1 PUSH1 0x3 PUSH0 CALLER PUSH20 0xFFFFFFFFFFFFFFFFFFFFFFFFFFFFFFFFFFFFFFFF AND PUSH20 0xFFFFFFFFFFFFFFFFFFFFFFFFFFFFFFFFFFFFFFFF AND DUP2 MSTORE PUSH1 0x20 ADD SWAP1 DUP2 MSTORE PUSH1 0x20 ADD PUSH0 KECCAK256 PUSH0 PUSH2 0x100 EXP DUP2 SLOAD DUP2 PUSH1 0xFF MUL NOT AND SWAP1 DUP4 ISZERO ISZERO MUL OR SWAP1 SSTORE POP JUMP JUMPDEST PUSH1 0x2 PUSH0 CALLER PUSH20 0xFFFFFFFFFFFFFFFFFFFFFFFFFFFFFFFFFFFFFFFF AND PUSH20 0xFFFFFFFFFFFFFFFFFFFFFFFFFFFFFFFFFFFFFFFF AND DUP2 MSTORE PUSH1 0x20 ADD SWAP1 DUP2 MSTORE PUSH1 0x20 ADD PUSH0 KECCAK256 PUSH0 SWAP1 SLOAD SWAP1 PUSH2 0x100 EXP SWAP1 DIV PUSH1 0xFF AND PUSH2 0x38C JUMPI PUSH1 0x40 MLOAD PUSH32 0x8C379A000000000000000000000000000000000000000000000000000000000 DUP2 MSTORE PUSH1 0x4 ADD PUSH2 0x383 SWAP1 PUSH2 0x88D JUMP JUMPDEST PUSH1 0x40 MLOAD DUP1 SWAP2 SUB SWAP1 REVERT JUMPDEST PUSH1 0x3 PUSH0 CALLER PUSH20 0xFFFFFFFFFFFFFFFFFFFFFFFFFFFFFFFFFFFFFFFF AND PUSH20 0xFFFFFFFFFFFFFFFFFFFFFFFFFFFFFFFFFFFFFFFF AND DUP2 MSTORE PUSH1 0x20 ADD SWAP1 DUP2 MSTORE PUSH1 0x20 ADD PUSH0 KECCAK256 PUSH0 SWAP1 SLOAD SWAP1 PUSH2 0x100 EXP SWAP1 DIV PUSH1 0xFF AND ISZERO PUSH2 0x461 JUMPI PUSH0 PUSH0 DUP2 SLOAD DUP1 SWAP3 SWAP2 SWAP1 PUSH2 0x3EC SWAP1 PUSH2 0x8AB JUMP JUMPDEST SWAP2 SWAP1 POP SSTORE POP PUSH1 0x1 PUSH0 DUP2 SLOAD DUP1 SWAP3 SWAP2 SWAP1 PUSH2 0x403 SWAP1 PUSH2 0x7FC JUMP JUMPDEST SWAP2 SWAP1 POP SSTORE POP PUSH0 PUSH1 0x3 PUSH0 CALLER PUSH20 0xFFFFFFFFFFFFFFFFFFFFFFFFFFFFFFFFFFFFFFFF AND PUSH20 0xFFFFFFFFFFFFFFFFFFFFFFFFFFFFFFFFFFFFFFFF AND DUP2 MSTORE PUSH1 0x20 ADD SWAP1 DUP2 MSTORE PUSH1 0x20 ADD PUSH0 KECCAK256 PUSH0 PUSH2 0x100 EXP DUP2 SLOAD DUP2 PUSH1 0xFF MUL NOT AND SWAP1 DUP4 ISZERO ISZERO MUL OR SWAP1 SSTORE POP PUSH2 0x4E4 JUMP JUMPDEST PUSH1 0x1 PUSH0 DUP2 SLOAD DUP1 SWAP3 SWAP2 SWAP1 PUSH2 0x473 SWAP1 PUSH2 0x8AB JUMP JUMPDEST SWAP2 SWAP1 POP SSTORE POP PUSH0 PUSH0 DUP2 SLOAD DUP1 SWAP3 SWAP2 SWAP1 PUSH2 0x489 SWAP1 PUSH2 0x7FC JUMP JUMPDEST SWAP2 SWAP1 POP SSTORE POP PUSH1 0x1 PUSH1 0x3 PUSH0 CALLER PUSH20 0xFFFFFFFFFFFFFFFFFFFFFFFFFFFFFFFFFFFFFFFF AND PUSH20 0xFFFFFFFFFFFFFFFFFFFFFFFFFFFFFFFFFFFFFFFF AND DUP2 MSTORE PUSH1 0x20 ADD SWAP1 DUP2 MSTORE PUSH1 0x20 ADD PUSH0 KECCAK256 PUSH0 PUSH2 0x100 EXP DUP2 SLOAD DUP2 PUSH1 0xFF MUL NOT AND SWAP1 DUP4 ISZERO ISZERO MUL OR SWAP1 SSTORE POP JUMPDEST JUMP JUMPDEST PUSH1 0x2 PUSH0 CALLER PUSH20 0xFFFFFFFFFFFFFFFFFFFFFFFFFFFFFFFFFFFFFFFF AND PUSH20 0xFFFFFFFFFFFFFFFFFFFFFFFFFFFFFFFFFFFFFFFF AND DUP2 MSTORE PUSH1 0x20 ADD SWAP1 DUP2 MSTORE PUSH1 0x20 ADD PUSH0 KECCAK256 PUSH0 SWAP1 SLOAD SWAP1 PUSH2 0x100 EXP SWAP1 DIV PUSH1 0xFF AND ISZERO PUSH2 0x570 JUMPI PUSH1 0x40 MLOAD PUSH32 0x8C379A000000000000000000000000000000000000000000000000000000000 DUP2 MSTORE PUSH1 0x4 ADD PUSH2 0x567 SWAP1 PUSH2 0x7DE JUMP JUMPDEST PUSH1 0x40 MLOAD DUP1 SWAP2 SUB SWAP1 REVERT JUMPDEST PUSH1 0x1 PUSH0 DUP2 SLOAD DUP1 SWAP3 SWAP2 SWAP1 PUSH2 0x582 SWAP1 PUSH2 0x7FC JUMP JUMPDEST SWAP2 SWAP1 POP SSTORE POP PUSH1 0x1 PUSH1 0x2 PUSH0 CALLER PUSH20 0xFFFFFFFFFFFFFFFFFFFFFFFFFFFFFFFFFFFFFFFF AND PUSH20 0xFFFFFFFFFFFFFFFFFFFFFFFFFFFFFFFFFFFFFFFF AND DUP2 MSTORE PUSH1 0x20 ADD SWAP1 DUP2 MSTORE PUSH1 0x20 ADD PUSH0 KECCAK256 PUSH0 PUSH2 0x100 EXP DUP2 SLOAD DUP2 PUSH1 0xFF MUL NOT AND SWAP1 DUP4 ISZERO ISZERO MUL OR SWAP1 SSTORE POP PUSH0 PUSH1 0x3 PUSH0 CALLER PUSH20 0xFFFFFFFFFFFFFFFFFFFFFFFFFFFFFFFFFFFFFFFF AND PUSH20 0xFFFFFFFFFFFFFFFFFFFFFFFFFFFFFFFFFFFFFFFF AND DUP2 MSTORE PUSH1 0x20 ADD SWAP1 DUP2 MSTORE PUSH1 0x20 ADD PUSH0 KECCAK256 PUSH0 PUSH2 0x100 EXP DUP2 SLOAD DUP2 PUSH1 0xFF MUL NOT AND SWAP1 DUP4 ISZERO ISZERO MUL OR SWAP1 SSTORE POP JUMP JUMPDEST PUSH0 SLOAD DUP2 JUMP JUMPDEST PUSH0 PUSH0 REVERT JUMPDEST PUSH0 PUSH20 0xFFFFFFFFFFFFFFFFFFFFFFFFFFFFFFFFFFFFFFFF DUP3 AND SWAP1 POP SWAP2 SWAP1 POP JUMP JUMPDEST PUSH0 PUSH2 0x664 DUP3 PUSH2 0x63B JUMP JUMPDEST SWAP1 POP SWAP2 SWAP1 POP JUMP JUMPDEST PUSH2 0x674 DUP2 PUSH2 0x65A JUMP JUMPDEST DUP2 EQ PUSH2 0x67E JUMPI PUSH0 PUSH0 REVERT JUMPDEST POP JUMP JUMPDEST PUSH0 DUP2 CALLDATALOAD SWAP1 POP PUSH2 0x68F DUP2 PUSH2 0x66B JUMP JUMPDEST SWAP3 SWAP2 POP POP JUMP JUMPDEST PUSH0 PUSH1 0x20 DUP3 DUP5 SUB SLT ISZERO PUSH2 0x6AA JUMPI PUSH2 0x6A9 PUSH2 0x637 JUMP JUMPDEST JUMPDEST PUSH0 PUSH2 0x6B7 DUP5 DUP3 DUP6 ADD PUSH2 0x681 JUMP JUMPDEST SWAP2 POP POP SWAP3 SWAP2 POP POP JUMP JUMPDEST PUSH0 DUP2 ISZERO ISZERO SWAP1 POP SWAP2 SWAP1 POP JUMP JUMPDEST PUSH2 0x6D4 DUP2 PUSH2 0x6C0 JUMP JUMPDEST DUP3 MSTORE POP POP JUMP JUMPDEST PUSH0 PUSH1 0x20 DUP3 ADD SWAP1 POP PUSH2 0x6ED PUSH0 DUP4 ADD DUP5 PUSH2 0x6CB JUMP JUMPDEST SWAP3 SWAP2 POP POP JUMP JUMPDEST PUSH0 DUP2 SWAP1 POP SWAP2 SWAP1 POP JUMP JUMPDEST PUSH2 0x705 DUP2 PUSH2 0x6F3 JUMP JUMPDEST DUP3 MSTORE POP POP JUMP JUMPDEST PUSH0 PUSH1 0x20 DUP3 ADD SWAP1 POP PUSH2 0x71E PUSH0 DUP4 ADD DUP5 PUSH2 0x6FC JUMP JUMPDEST SWAP3 SWAP2 POP POP JUMP JUMPDEST PUSH32 0x4E487B7100000000000000000000000000000000000000000000000000000000 PUSH0 MSTORE PUSH1 0x11 PUSH1 0x4 MSTORE PUSH1 0x24 PUSH0 REVERT JUMPDEST PUSH0 PUSH2 0x75B DUP3 PUSH2 0x6F3 JUMP JUMPDEST SWAP2 POP PUSH2 0x766 DUP4 PUSH2 0x6F3 JUMP JUMPDEST SWAP3 POP DUP3 DUP3 ADD SWAP1 POP DUP1 DUP3 GT ISZERO PUSH2 0x77E JUMPI PUSH2 0x77D PUSH2 0x724 JUMP JUMPDEST JUMPDEST SWAP3 SWAP2 POP POP JUMP JUMPDEST PUSH0 DUP3 DUP3 MSTORE PUSH1 0x20 DUP3 ADD SWAP1 POP SWAP3 SWAP2 POP POP JUMP JUMPDEST PUSH32 0x596F75206861766520616C726561647920766F74656400000000000000000000 PUSH0 DUP3 ADD MSTORE POP JUMP JUMPDEST PUSH0 PUSH2 0x7C8 PUSH1 0x16 DUP4 PUSH2 0x784 JUMP JUMPDEST SWAP2 POP PUSH2 0x7D3 DUP3 PUSH2 0x794 JUMP JUMPDEST PUSH1 0x20 DUP3 ADD SWAP1 POP SWAP2 SWAP1 POP JUMP JUMPDEST PUSH0 PUSH1 0x20 DUP3 ADD SWAP1 POP DUP2 DUP2 SUB PUSH0 DUP4 ADD MSTORE PUSH2 0x7F5 DUP2 PUSH2 0x7BC JUMP JUMPDEST SWAP1 POP SWAP2 SWAP1 POP JUMP JUMPDEST PUSH0 PUSH2 0x806 DUP3 PUSH2 0x6F3 JUMP JUMPDEST SWAP2 POP PUSH32 0xFFFFFFFFFFFFFFFFFFFFFFFFFFFFFFFFFFFFFFFFFFFFFFFFFFFFFFFFFFFFFFFF DUP3 SUB PUSH2 0x838 JUMPI PUSH2 0x837 PUSH2 0x724 JUMP JUMPDEST JUMPDEST PUSH1 0x1 DUP3 ADD SWAP1 POP SWAP2 SWAP1 POP JUMP JUMPDEST PUSH32 0x596F7520686176656E277420766F746564207965740000000000000000000000 PUSH0 DUP3 ADD MSTORE POP JUMP JUMPDEST PUSH0 PUSH2 0x877 PUSH1 0x15 DUP4 PUSH2 0x784 JUMP JUMPDEST SWAP2 POP PUSH2 0x882 DUP3 PUSH2 0x843 JUMP JUMPDEST PUSH1 0x20 DUP3 ADD SWAP1 POP SWAP2 SWAP1 POP JUMP JUMPDEST PUSH0 PUSH1 0x20 DUP3 ADD SWAP1 POP DUP2 DUP2 SUB PUSH0 DUP4 ADD MSTORE PUSH2 0x8A4 DUP2 PUSH2 0x86B JUMP JUMPDEST SWAP1 POP SWAP2 SWAP1 POP JUMP JUMPDEST PUSH0 PUSH2 0x8B5 DUP3 PUSH2 0x6F3 JUMP JUMPDEST SWAP2 POP PUSH0 DUP3 SUB PUSH2 0x8C7 JUMPI PUSH2 0x8C6 PUSH2 0x724 JUMP JUMPDEST JUMPDEST PUSH1 0x1 DUP3 SUB SWAP1 POP SWAP2 SWAP1 POP JUMP INVALID LOG2 PUSH5 0x6970667358 0x22 SLT KECCAK256 DUP16 PUSH22 0xFA1321498B5CD5B99CB0CA77AA0826D806802F17F2BB 0xD5 CODECOPY PUSH1 0xC6 DELEGATECALL 0xD2 LOG4 PUSH4 0x64736F6C PUSH4 0x4300081F STOP CALLER "
				},
				"gasEstimates": {
					"creation": {
						"codeDepositCost": "462400",
						"executionCost": "497",
						"totalCost": "462897"
					},
					"external": {
						"changeVote()": "infinite",
						"dislike()": "75488",
						"dislikeCount()": "2470",
						"hasVoted(address)": "2834",
						"like()": "75444",
						"likeCount()": "2490",
						"totalVotes()": "infinite",
						"userChoice(address)": "2900"
					}
				},
				"methodIdentifiers": {
					"changeVote()": "bc55efbf",
					"dislike()": "df5a11e1",
					"dislikeCount()": "60c68205",
					"hasVoted(address)": "09eef43e",
					"like()": "a523b88a",
					"likeCount()": "e5a0af3d",
					"totalVotes()": "0d15fd77",
					"userChoice(address)": "9f9eec04"
				}
			},
			"storageLayout": {
				"storage": [
					{
						"astId": 3,
						"contract": "Like_Dislike1.sol:LikeDislike",
						"label": "likeCount",
						"offset": 0,
						"slot": "0",
						"type": "t_uint256"
					},
					{
						"astId": 5,
						"contract": "Like_Dislike1.sol:LikeDislike",
						"label": "dislikeCount",
						"offset": 0,
						"slot": "1",
						"type": "t_uint256"
					},
					{
						"astId": 9,
						"contract": "Like_Dislike1.sol:LikeDislike",
						"label": "hasVoted",
						"offset": 0,
						"slot": "2",
						"type": "t_mapping(t_address,t_bool)"
					},
					{
						"astId": 13,
						"contract": "Like_Dislike1.sol:LikeDislike",
						"label": "userChoice",
						"offset": 0,
						"slot": "3",
						"type": "t_mapping(t_address,t_bool)"
					}
				],
				"types": {
					"t_address": {
						"encoding": "inplace",
						"label": "address",
						"numberOfBytes": "20"
					},
					"t_bool": {
						"encoding": "inplace",
						"label": "bool",
						"numberOfBytes": "1"
					},
					"t_mapping(t_address,t_bool)": {
						"encoding": "mapping",
						"key": "t_address",
						"label": "mapping(address => bool)",
						"numberOfBytes": "32",
						"value": "t_bool"
					},
					"t_uint256": {
						"encoding": "inplace",
						"label": "uint256",
						"numberOfBytes": "32"
					}
				}
			},
			"userdoc": {
				"kind": "user",
				"methods": {},
				"version": 1
			}
		}
	}
}