{
	"contract_order_system.sol": {
		"order_system": {
			"abi": [
				{
					"inputs": [
						{
							"internalType": "uint256",
							"name": "_id",
							"type": "uint256"
						},
						{
							"internalType": "string",
							"name": "_product",
							"type": "string"
						}
					],
					"name": "createorder",
					"outputs": [],
					"stateMutability": "nonpayable",
					"type": "function"
				},
				{
					"inputs": [
						{
							"internalType": "uint256",
							"name": "_id",
							"type": "uint256"
						}
					],
					"name": "getOrder",
					"outputs": [
						{
							"internalType": "uint256",
							"name": "",
							"type": "uint256"
						},
						{
							"internalType": "string",
							"name": "",
							"type": "string"
						},
						{
							"internalType": "enum order_system.Status",
							"name": "",
							"type": "uint8"
						}
					],
					"stateMutability": "view",
					"type": "function"
				},
				{
					"inputs": [
						{
							"internalType": "uint256",
							"name": "",
							"type": "uint256"
						}
					],
					"name": "orders",
					"outputs": [
						{
							"internalType": "uint256",
							"name": "id",
							"type": "uint256"
						},
						{
							"internalType": "string",
							"name": "product",
							"type": "string"
						},
						{
							"internalType": "enum order_system.Status",
							"name": "status",
							"type": "uint8"
						}
					],
					"stateMutability": "view",
					"type": "function"
				},
				{
					"inputs": [
						{
							"internalType": "uint256",
							"name": "_id",
							"type": "uint256"
						},
						{
							"internalType": "uint256",
							"name": "_status",
							"type": "uint256"
						}
					],
					"name": "updateStatus",
					"outputs": [],
					"stateMutability": "nonpayable",
					"type": "function"
				}
			],
			"devdoc": {
				"kind": "dev",
				"methods": {},
				"version": 1
			},
			"evm": {
				"assembly": "    /* \"contract_order_system.sol\":60:656  contract order_system {\r... */\n  mstore(0x40, 0x80)\n  callvalue\n  dup1\n  iszero\n  tag_1\n  jumpi\n  0x00\n  dup1\n  revert\ntag_1:\n  pop\n  dataSize(sub_0)\n  dup1\n  dataOffset(sub_0)\n  0x00\n  codecopy\n  0x00\n  return\nstop\n\nsub_0: assembly {\n        /* \"contract_order_system.sol\":60:656  contract order_system {\r... */\n      mstore(0x40, 0x80)\n      callvalue\n      dup1\n      iszero\n      tag_1\n      jumpi\n      0x00\n      dup1\n      revert\n    tag_1:\n      pop\n      jumpi(tag_2, lt(calldatasize, 0x04))\n      shr(0xe0, calldataload(0x00))\n      dup1\n      0x177ed85f\n      eq\n      tag_3\n      jumpi\n      dup1\n      0xa85c38ef\n      eq\n      tag_4\n      jumpi\n      dup1\n      0xd09ef241\n      eq\n      tag_5\n      jumpi\n      dup1\n      0xe2f31829\n      eq\n      tag_6\n      jumpi\n    tag_2:\n      0x00\n      dup1\n      revert\n        /* \"contract_order_system.sol\":262:386  function createorder(uint _id, string memory _product) public {\r... */\n    tag_3:\n      tag_7\n      0x04\n      dup1\n      calldatasize\n      sub\n      dup2\n      add\n      swap1\n      tag_8\n      swap2\n      swap1\n      tag_9\n      jump\t// in\n    tag_8:\n      tag_10\n      jump\t// in\n    tag_7:\n      stop\n        /* \"contract_order_system.sol\":219:256  mapping (uint => Order) public orders */\n    tag_4:\n      tag_11\n      0x04\n      dup1\n      calldatasize\n      sub\n      dup2\n      add\n      swap1\n      tag_12\n      swap2\n      swap1\n      tag_13\n      jump\t// in\n    tag_12:\n      tag_14\n      jump\t// in\n    tag_11:\n      mload(0x40)\n      tag_15\n      swap4\n      swap3\n      swap2\n      swap1\n      tag_16\n      jump\t// in\n    tag_15:\n      mload(0x40)\n      dup1\n      swap2\n      sub\n      swap1\n      return\n        /* \"contract_order_system.sol\":492:650  function getOrder(uint _id) public view returns (uint, string memory, Status){\r... */\n    tag_5:\n      tag_17\n      0x04\n      dup1\n      calldatasize\n      sub\n      dup2\n      add\n      swap1\n      tag_18\n      swap2\n      swap1\n      tag_13\n      jump\t// in\n    tag_18:\n      tag_19\n      jump\t// in\n    tag_17:\n      mload(0x40)\n      tag_20\n      swap4\n      swap3\n      swap2\n      swap1\n      tag_16\n      jump\t// in\n    tag_20:\n      mload(0x40)\n      dup1\n      swap2\n      sub\n      swap1\n      return\n        /* \"contract_order_system.sol\":389:489  function updateStatus(uint _id, uint _status) public{\r... */\n    tag_6:\n      tag_21\n      0x04\n      dup1\n      calldatasize\n      sub\n      dup2\n      add\n      swap1\n      tag_22\n      swap2\n      swap1\n      tag_23\n      jump\t// in\n    tag_22:\n      tag_24\n      jump\t// in\n    tag_21:\n      stop\n        /* \"contract_order_system.sol\":262:386  function createorder(uint _id, string memory _product) public {\r... */\n    tag_10:\n        /* \"contract_order_system.sol\":345:381  Order(_id, _product, Status.Pending) */\n      mload(0x40)\n      dup1\n      0x60\n      add\n      0x40\n      mstore\n      dup1\n        /* \"contract_order_system.sol\":351:354  _id */\n      dup4\n        /* \"contract_order_system.sol\":345:381  Order(_id, _product, Status.Pending) */\n      dup2\n      mstore\n      0x20\n      add\n        /* \"contract_order_system.sol\":356:364  _product */\n      dup3\n        /* \"contract_order_system.sol\":345:381  Order(_id, _product, Status.Pending) */\n      dup2\n      mstore\n      0x20\n      add\n        /* \"contract_order_system.sol\":366:380  Status.Pending */\n      0x00\n        /* \"contract_order_system.sol\":345:381  Order(_id, _product, Status.Pending) */\n      0x03\n      dup2\n      gt\n      iszero\n      tag_26\n      jumpi\n      mstore(0x00, 0x4e487b7100000000000000000000000000000000000000000000000000000000)\n      mstore(0x04, 0x21)\n      revert(0x00, 0x24)\n    tag_26:\n      dup2\n      mstore\n      pop\n        /* \"contract_order_system.sol\":331:337  orders */\n      0x00\n        /* \"contract_order_system.sol\":331:342  orders[_id] */\n      dup1\n        /* \"contract_order_system.sol\":338:341  _id */\n      dup5\n        /* \"contract_order_system.sol\":331:342  orders[_id] */\n      dup2\n      mstore\n      0x20\n      add\n      swap1\n      dup2\n      mstore\n      0x20\n      add\n      0x00\n      keccak256\n        /* \"contract_order_system.sol\":331:381  orders[_id] = Order(_id, _product, Status.Pending) */\n      0x00\n      dup3\n      add\n      mload\n      dup2\n      0x00\n      add\n      sstore\n      0x20\n      dup3\n      add\n      mload\n      dup2\n      0x01\n      add\n      swap1\n      dup1\n      mload\n      swap1\n      0x20\n      add\n      swap1\n      tag_27\n      swap3\n      swap2\n      swap1\n      tag_28\n      jump\t// in\n    tag_27:\n      pop\n      0x40\n      dup3\n      add\n      mload\n      dup2\n      0x02\n      add\n      exp(0x0100, 0x00)\n      dup2\n      sload\n      dup2\n      0xff\n      mul\n      not\n      and\n      swap1\n      dup4\n      0x03\n      dup2\n      gt\n      iszero\n      tag_29\n      jumpi\n      mstore(0x00, 0x4e487b7100000000000000000000000000000000000000000000000000000000)\n      mstore(0x04, 0x21)\n      revert(0x00, 0x24)\n    tag_29:\n      mul\n      or\n      swap1\n      sstore\n      pop\n      swap1\n      pop\n      pop\n        /* \"contract_order_system.sol\":262:386  function createorder(uint _id, string memory _product) public {\r... */\n      pop\n      pop\n      jump\t// out\n        /* \"contract_order_system.sol\":219:256  mapping (uint => Order) public orders */\n    tag_14:\n      mstore(0x20, 0x00)\n      dup1\n      0x00\n      mstore\n      keccak256(0x00, 0x40)\n      0x00\n      swap2\n      pop\n      swap1\n      pop\n      dup1\n      0x00\n      add\n      sload\n      swap1\n      dup1\n      0x01\n      add\n      dup1\n      sload\n      tag_30\n      swap1\n      tag_31\n      jump\t// in\n    tag_30:\n      dup1\n      0x1f\n      add\n      0x20\n      dup1\n      swap2\n      div\n      mul\n      0x20\n      add\n      mload(0x40)\n      swap1\n      dup2\n      add\n      0x40\n      mstore\n      dup1\n      swap3\n      swap2\n      swap1\n      dup2\n      dup2\n      mstore\n      0x20\n      add\n      dup3\n      dup1\n      sload\n      tag_32\n      swap1\n      tag_31\n      jump\t// in\n    tag_32:\n      dup1\n      iszero\n      tag_33\n      jumpi\n      dup1\n      0x1f\n      lt\n      tag_34\n      jumpi\n      0x0100\n      dup1\n      dup4\n      sload\n      div\n      mul\n      dup4\n      mstore\n      swap2\n      0x20\n      add\n      swap2\n      jump(tag_33)\n    tag_34:\n      dup3\n      add\n      swap2\n      swap1\n      0x00\n      mstore\n      keccak256(0x00, 0x20)\n      swap1\n    tag_35:\n      dup2\n      sload\n      dup2\n      mstore\n      swap1\n      0x01\n      add\n      swap1\n      0x20\n      add\n      dup1\n      dup4\n      gt\n      tag_35\n      jumpi\n      dup3\n      swap1\n      sub\n      0x1f\n      and\n      dup3\n      add\n      swap2\n    tag_33:\n      pop\n      pop\n      pop\n      pop\n      pop\n      swap1\n      dup1\n      0x02\n      add\n      0x00\n      swap1\n      sload\n      swap1\n      0x0100\n      exp\n      swap1\n      div\n      0xff\n      and\n      swap1\n      pop\n      dup4\n      jump\t// out\n        /* \"contract_order_system.sol\":492:650  function getOrder(uint _id) public view returns (uint, string memory, Status){\r... */\n    tag_19:\n        /* \"contract_order_system.sol\":541:545  uint */\n      0x00\n        /* \"contract_order_system.sol\":547:560  string memory */\n      0x60\n        /* \"contract_order_system.sol\":562:568  Status */\n      0x00\n        /* \"contract_order_system.sol\":576:590  Order memory o */\n      dup1\n        /* \"contract_order_system.sol\":593:599  orders */\n      0x00\n        /* \"contract_order_system.sol\":593:604  orders[_id] */\n      dup1\n        /* \"contract_order_system.sol\":600:603  _id */\n      dup7\n        /* \"contract_order_system.sol\":593:604  orders[_id] */\n      dup2\n      mstore\n      0x20\n      add\n      swap1\n      dup2\n      mstore\n      0x20\n      add\n      0x00\n      keccak256\n        /* \"contract_order_system.sol\":576:604  Order memory o = orders[_id] */\n      mload(0x40)\n      dup1\n      0x60\n      add\n      0x40\n      mstore\n      swap1\n      dup2\n      0x00\n      dup3\n      add\n      sload\n      dup2\n      mstore\n      0x20\n      add\n      0x01\n      dup3\n      add\n      dup1\n      sload\n      tag_37\n      swap1\n      tag_31\n      jump\t// in\n    tag_37:\n      dup1\n      0x1f\n      add\n      0x20\n      dup1\n      swap2\n      div\n      mul\n      0x20\n      add\n      mload(0x40)\n      swap1\n      dup2\n      add\n      0x40\n      mstore\n      dup1\n      swap3\n      swap2\n      swap1\n      dup2\n      dup2\n      mstore\n      0x20\n      add\n      dup3\n      dup1\n      sload\n      tag_38\n      swap1\n      tag_31\n      jump\t// in\n    tag_38:\n      dup1\n      iszero\n      tag_39\n      jumpi\n      dup1\n      0x1f\n      lt\n      tag_40\n      jumpi\n      0x0100\n      dup1\n      dup4\n      sload\n      div\n      mul\n      dup4\n      mstore\n      swap2\n      0x20\n      add\n      swap2\n      jump(tag_39)\n    tag_40:\n      dup3\n      add\n      swap2\n      swap1\n      0x00\n      mstore\n      keccak256(0x00, 0x20)\n      swap1\n    tag_41:\n      dup2\n      sload\n      dup2\n      mstore\n      swap1\n      0x01\n      add\n      swap1\n      0x20\n      add\n      dup1\n      dup4\n      gt\n      tag_41\n      jumpi\n      dup3\n      swap1\n      sub\n      0x1f\n      and\n      dup3\n      add\n      swap2\n    tag_39:\n      pop\n      pop\n      pop\n      pop\n      pop\n      dup2\n      mstore\n      0x20\n      add\n      0x02\n      dup3\n      add\n      0x00\n      swap1\n      sload\n      swap1\n      0x0100\n      exp\n      swap1\n      div\n      0xff\n      and\n      0x03\n      dup2\n      gt\n      iszero\n      tag_42\n      jumpi\n      mstore(0x00, 0x4e487b7100000000000000000000000000000000000000000000000000000000)\n      mstore(0x04, 0x21)\n      revert(0x00, 0x24)\n    tag_42:\n      0x03\n      dup2\n      gt\n      iszero\n      tag_43\n      jumpi\n      mstore(0x00, 0x4e487b7100000000000000000000000000000000000000000000000000000000)\n      mstore(0x04, 0x21)\n      revert(0x00, 0x24)\n    tag_43:\n      dup2\n      mstore\n      pop\n      pop\n      swap1\n      pop\n        /* \"contract_order_system.sol\":619:620  o */\n      dup1\n        /* \"contract_order_system.sol\":619:623  o.id */\n      0x00\n      add\n      mload\n        /* \"contract_order_system.sol\":625:626  o */\n      dup2\n        /* \"contract_order_system.sol\":625:634  o.product */\n      0x20\n      add\n      mload\n        /* \"contract_order_system.sol\":636:637  o */\n      dup3\n        /* \"contract_order_system.sol\":636:644  o.status */\n      0x40\n      add\n      mload\n        /* \"contract_order_system.sol\":611:645  return (o.id, o.product, o.status) */\n      swap4\n      pop\n      swap4\n      pop\n      swap4\n      pop\n      pop\n        /* \"contract_order_system.sol\":492:650  function getOrder(uint _id) public view returns (uint, string memory, Status){\r... */\n      swap2\n      swap4\n      swap1\n      swap3\n      pop\n      jump\t// out\n        /* \"contract_order_system.sol\":389:489  function updateStatus(uint _id, uint _status) public{\r... */\n    tag_24:\n        /* \"contract_order_system.sol\":476:483  _status */\n      dup1\n        /* \"contract_order_system.sol\":469:484  Status(_status) */\n      0x03\n      dup2\n      gt\n      iszero\n      tag_45\n      jumpi\n      mstore(0x00, 0x4e487b7100000000000000000000000000000000000000000000000000000000)\n      mstore(0x04, 0x21)\n      revert(0x00, 0x24)\n    tag_45:\n        /* \"contract_order_system.sol\":448:454  orders */\n      0x00\n        /* \"contract_order_system.sol\":448:459  orders[_id] */\n      dup1\n        /* \"contract_order_system.sol\":455:458  _id */\n      dup5\n        /* \"contract_order_system.sol\":448:459  orders[_id] */\n      dup2\n      mstore\n      0x20\n      add\n      swap1\n      dup2\n      mstore\n      0x20\n      add\n      0x00\n      keccak256\n        /* \"contract_order_system.sol\":448:466  orders[_id].status */\n      0x02\n      add\n      0x00\n        /* \"contract_order_system.sol\":448:484  orders[_id].status = Status(_status) */\n      0x0100\n      exp\n      dup2\n      sload\n      dup2\n      0xff\n      mul\n      not\n      and\n      swap1\n      dup4\n      0x03\n      dup2\n      gt\n      iszero\n      tag_46\n      jumpi\n      mstore(0x00, 0x4e487b7100000000000000000000000000000000000000000000000000000000)\n      mstore(0x04, 0x21)\n      revert(0x00, 0x24)\n    tag_46:\n      mul\n      or\n      swap1\n      sstore\n      pop\n        /* \"contract_order_system.sol\":389:489  function updateStatus(uint _id, uint _status) public{\r... */\n      pop\n      pop\n      jump\t// out\n    tag_28:\n      dup3\n      dup1\n      sload\n      tag_47\n      swap1\n      tag_31\n      jump\t// in\n    tag_47:\n      swap1\n      0x00\n      mstore\n      keccak256(0x00, 0x20)\n      swap1\n      0x1f\n      add\n      0x20\n      swap1\n      div\n      dup2\n      add\n      swap3\n      dup3\n      tag_49\n      jumpi\n      0x00\n      dup6\n      sstore\n      jump(tag_48)\n    tag_49:\n      dup3\n      0x1f\n      lt\n      tag_50\n      jumpi\n      dup1\n      mload\n      not(0xff)\n      and\n      dup4\n      dup1\n      add\n      or\n      dup6\n      sstore\n      jump(tag_48)\n    tag_50:\n      dup3\n      dup1\n      add\n      0x01\n      add\n      dup6\n      sstore\n      dup3\n      iszero\n      tag_48\n      jumpi\n      swap2\n      dup3\n      add\n    tag_51:\n      dup3\n      dup2\n      gt\n      iszero\n      tag_52\n      jumpi\n      dup3\n      mload\n      dup3\n      sstore\n      swap2\n      0x20\n      add\n      swap2\n      swap1\n      0x01\n      add\n      swap1\n      jump(tag_51)\n    tag_52:\n    tag_48:\n      pop\n      swap1\n      pop\n      tag_53\n      swap2\n      swap1\n      tag_54\n      jump\t// in\n    tag_53:\n      pop\n      swap1\n      jump\t// out\n    tag_54:\n    tag_55:\n      dup1\n      dup3\n      gt\n      iszero\n      tag_56\n      jumpi\n      0x00\n      dup2\n      0x00\n      swap1\n      sstore\n      pop\n      0x01\n      add\n      jump(tag_55)\n    tag_56:\n      pop\n      swap1\n      jump\t// out\n        /* \"#utility.yul\":7:351   */\n    tag_58:\n      0x00\n        /* \"#utility.yul\":110:175   */\n      tag_60\n        /* \"#utility.yul\":125:174   */\n      tag_61\n        /* \"#utility.yul\":167:173   */\n      dup5\n        /* \"#utility.yul\":125:174   */\n      tag_62\n      jump\t// in\n    tag_61:\n        /* \"#utility.yul\":110:175   */\n      tag_63\n      jump\t// in\n    tag_60:\n        /* \"#utility.yul\":101:175   */\n      swap1\n      pop\n        /* \"#utility.yul\":198:204   */\n      dup3\n        /* \"#utility.yul\":191:196   */\n      dup2\n        /* \"#utility.yul\":184:205   */\n      mstore\n        /* \"#utility.yul\":236:240   */\n      0x20\n        /* \"#utility.yul\":229:234   */\n      dup2\n        /* \"#utility.yul\":225:241   */\n      add\n        /* \"#utility.yul\":274:277   */\n      dup5\n        /* \"#utility.yul\":265:271   */\n      dup5\n        /* \"#utility.yul\":260:263   */\n      dup5\n        /* \"#utility.yul\":256:272   */\n      add\n        /* \"#utility.yul\":253:278   */\n      gt\n        /* \"#utility.yul\":250:252   */\n      iszero\n      tag_64\n      jumpi\n        /* \"#utility.yul\":291:292   */\n      0x00\n        /* \"#utility.yul\":288:289   */\n      dup1\n        /* \"#utility.yul\":281:293   */\n      revert\n        /* \"#utility.yul\":250:252   */\n    tag_64:\n        /* \"#utility.yul\":304:345   */\n      tag_65\n        /* \"#utility.yul\":338:344   */\n      dup5\n        /* \"#utility.yul\":333:336   */\n      dup3\n        /* \"#utility.yul\":328:331   */\n      dup6\n        /* \"#utility.yul\":304:345   */\n      tag_66\n      jump\t// in\n    tag_65:\n        /* \"#utility.yul\":91:351   */\n      pop\n      swap4\n      swap3\n      pop\n      pop\n      pop\n      jump\t// out\n        /* \"#utility.yul\":371:644   */\n    tag_67:\n      0x00\n        /* \"#utility.yul\":476:479   */\n      dup3\n        /* \"#utility.yul\":469:473   */\n      0x1f\n        /* \"#utility.yul\":461:467   */\n      dup4\n        /* \"#utility.yul\":457:474   */\n      add\n        /* \"#utility.yul\":453:480   */\n      slt\n        /* \"#utility.yul\":443:445   */\n      tag_69\n      jumpi\n        /* \"#utility.yul\":494:495   */\n      0x00\n        /* \"#utility.yul\":491:492   */\n      dup1\n        /* \"#utility.yul\":484:496   */\n      revert\n        /* \"#utility.yul\":443:445   */\n    tag_69:\n        /* \"#utility.yul\":534:540   */\n      dup2\n        /* \"#utility.yul\":521:541   */\n      calldataload\n        /* \"#utility.yul\":559:638   */\n      tag_70\n        /* \"#utility.yul\":634:637   */\n      dup5\n        /* \"#utility.yul\":626:632   */\n      dup3\n        /* \"#utility.yul\":619:623   */\n      0x20\n        /* \"#utility.yul\":611:617   */\n      dup7\n        /* \"#utility.yul\":607:624   */\n      add\n        /* \"#utility.yul\":559:638   */\n      tag_58\n      jump\t// in\n    tag_70:\n        /* \"#utility.yul\":550:638   */\n      swap2\n      pop\n        /* \"#utility.yul\":433:644   */\n      pop\n      swap3\n      swap2\n      pop\n      pop\n      jump\t// out\n        /* \"#utility.yul\":650:789   */\n    tag_71:\n      0x00\n        /* \"#utility.yul\":734:740   */\n      dup2\n        /* \"#utility.yul\":721:741   */\n      calldataload\n        /* \"#utility.yul\":712:741   */\n      swap1\n      pop\n        /* \"#utility.yul\":750:783   */\n      tag_73\n        /* \"#utility.yul\":777:782   */\n      dup2\n        /* \"#utility.yul\":750:783   */\n      tag_74\n      jump\t// in\n    tag_73:\n        /* \"#utility.yul\":702:789   */\n      swap3\n      swap2\n      pop\n      pop\n      jump\t// out\n        /* \"#utility.yul\":795:1057   */\n    tag_13:\n      0x00\n        /* \"#utility.yul\":903:905   */\n      0x20\n        /* \"#utility.yul\":891:900   */\n      dup3\n        /* \"#utility.yul\":882:889   */\n      dup5\n        /* \"#utility.yul\":878:901   */\n      sub\n        /* \"#utility.yul\":874:906   */\n      slt\n        /* \"#utility.yul\":871:873   */\n      iszero\n      tag_76\n      jumpi\n        /* \"#utility.yul\":919:920   */\n      0x00\n        /* \"#utility.yul\":916:917   */\n      dup1\n        /* \"#utility.yul\":909:921   */\n      revert\n        /* \"#utility.yul\":871:873   */\n    tag_76:\n        /* \"#utility.yul\":962:963   */\n      0x00\n        /* \"#utility.yul\":987:1040   */\n      tag_77\n        /* \"#utility.yul\":1032:1039   */\n      dup5\n        /* \"#utility.yul\":1023:1029   */\n      dup3\n        /* \"#utility.yul\":1012:1021   */\n      dup6\n        /* \"#utility.yul\":1008:1030   */\n      add\n        /* \"#utility.yul\":987:1040   */\n      tag_71\n      jump\t// in\n    tag_77:\n        /* \"#utility.yul\":977:1040   */\n      swap2\n      pop\n        /* \"#utility.yul\":933:1050   */\n      pop\n        /* \"#utility.yul\":861:1057   */\n      swap3\n      swap2\n      pop\n      pop\n      jump\t// out\n        /* \"#utility.yul\":1063:1583   */\n    tag_9:\n      0x00\n      dup1\n        /* \"#utility.yul\":1198:1200   */\n      0x40\n        /* \"#utility.yul\":1186:1195   */\n      dup4\n        /* \"#utility.yul\":1177:1184   */\n      dup6\n        /* \"#utility.yul\":1173:1196   */\n      sub\n        /* \"#utility.yul\":1169:1201   */\n      slt\n        /* \"#utility.yul\":1166:1168   */\n      iszero\n      tag_79\n      jumpi\n        /* \"#utility.yul\":1214:1215   */\n      0x00\n        /* \"#utility.yul\":1211:1212   */\n      dup1\n        /* \"#utility.yul\":1204:1216   */\n      revert\n        /* \"#utility.yul\":1166:1168   */\n    tag_79:\n        /* \"#utility.yul\":1257:1258   */\n      0x00\n        /* \"#utility.yul\":1282:1335   */\n      tag_80\n        /* \"#utility.yul\":1327:1334   */\n      dup6\n        /* \"#utility.yul\":1318:1324   */\n      dup3\n        /* \"#utility.yul\":1307:1316   */\n      dup7\n        /* \"#utility.yul\":1303:1325   */\n      add\n        /* \"#utility.yul\":1282:1335   */\n      tag_71\n      jump\t// in\n    tag_80:\n        /* \"#utility.yul\":1272:1335   */\n      swap3\n      pop\n        /* \"#utility.yul\":1228:1345   */\n      pop\n        /* \"#utility.yul\":1412:1414   */\n      0x20\n        /* \"#utility.yul\":1401:1410   */\n      dup4\n        /* \"#utility.yul\":1397:1415   */\n      add\n        /* \"#utility.yul\":1384:1416   */\n      calldataload\n        /* \"#utility.yul\":1443:1461   */\n      0xffffffffffffffff\n        /* \"#utility.yul\":1435:1441   */\n      dup2\n        /* \"#utility.yul\":1432:1462   */\n      gt\n        /* \"#utility.yul\":1429:1431   */\n      iszero\n      tag_81\n      jumpi\n        /* \"#utility.yul\":1475:1476   */\n      0x00\n        /* \"#utility.yul\":1472:1473   */\n      dup1\n        /* \"#utility.yul\":1465:1477   */\n      revert\n        /* \"#utility.yul\":1429:1431   */\n    tag_81:\n        /* \"#utility.yul\":1503:1566   */\n      tag_82\n        /* \"#utility.yul\":1558:1565   */\n      dup6\n        /* \"#utility.yul\":1549:1555   */\n      dup3\n        /* \"#utility.yul\":1538:1547   */\n      dup7\n        /* \"#utility.yul\":1534:1556   */\n      add\n        /* \"#utility.yul\":1503:1566   */\n      tag_67\n      jump\t// in\n    tag_82:\n        /* \"#utility.yul\":1493:1566   */\n      swap2\n      pop\n        /* \"#utility.yul\":1355:1576   */\n      pop\n        /* \"#utility.yul\":1156:1583   */\n      swap3\n      pop\n      swap3\n      swap1\n      pop\n      jump\t// out\n        /* \"#utility.yul\":1589:1996   */\n    tag_23:\n      0x00\n      dup1\n        /* \"#utility.yul\":1714:1716   */\n      0x40\n        /* \"#utility.yul\":1702:1711   */\n      dup4\n        /* \"#utility.yul\":1693:1700   */\n      dup6\n        /* \"#utility.yul\":1689:1712   */\n      sub\n        /* \"#utility.yul\":1685:1717   */\n      slt\n        /* \"#utility.yul\":1682:1684   */\n      iszero\n      tag_84\n      jumpi\n        /* \"#utility.yul\":1730:1731   */\n      0x00\n        /* \"#utility.yul\":1727:1728   */\n      dup1\n        /* \"#utility.yul\":1720:1732   */\n      revert\n        /* \"#utility.yul\":1682:1684   */\n    tag_84:\n        /* \"#utility.yul\":1773:1774   */\n      0x00\n        /* \"#utility.yul\":1798:1851   */\n      tag_85\n        /* \"#utility.yul\":1843:1850   */\n      dup6\n        /* \"#utility.yul\":1834:1840   */\n      dup3\n        /* \"#utility.yul\":1823:1832   */\n      dup7\n        /* \"#utility.yul\":1819:1841   */\n      add\n        /* \"#utility.yul\":1798:1851   */\n      tag_71\n      jump\t// in\n    tag_85:\n        /* \"#utility.yul\":1788:1851   */\n      swap3\n      pop\n        /* \"#utility.yul\":1744:1861   */\n      pop\n        /* \"#utility.yul\":1900:1902   */\n      0x20\n        /* \"#utility.yul\":1926:1979   */\n      tag_86\n        /* \"#utility.yul\":1971:1978   */\n      dup6\n        /* \"#utility.yul\":1962:1968   */\n      dup3\n        /* \"#utility.yul\":1951:1960   */\n      dup7\n        /* \"#utility.yul\":1947:1969   */\n      add\n        /* \"#utility.yul\":1926:1979   */\n      tag_71\n      jump\t// in\n    tag_86:\n        /* \"#utility.yul\":1916:1979   */\n      swap2\n      pop\n        /* \"#utility.yul\":1871:1989   */\n      pop\n        /* \"#utility.yul\":1672:1996   */\n      swap3\n      pop\n      swap3\n      swap1\n      pop\n      jump\t// out\n        /* \"#utility.yul\":2002:2145   */\n    tag_87:\n        /* \"#utility.yul\":2095:2138   */\n      tag_89\n        /* \"#utility.yul\":2132:2137   */\n      dup2\n        /* \"#utility.yul\":2095:2138   */\n      tag_90\n      jump\t// in\n    tag_89:\n        /* \"#utility.yul\":2090:2093   */\n      dup3\n        /* \"#utility.yul\":2083:2139   */\n      mstore\n        /* \"#utility.yul\":2073:2145   */\n      pop\n      pop\n      jump\t// out\n        /* \"#utility.yul\":2151:2515   */\n    tag_91:\n      0x00\n        /* \"#utility.yul\":2267:2306   */\n      tag_93\n        /* \"#utility.yul\":2300:2305   */\n      dup3\n        /* \"#utility.yul\":2267:2306   */\n      tag_94\n      jump\t// in\n    tag_93:\n        /* \"#utility.yul\":2322:2393   */\n      tag_95\n        /* \"#utility.yul\":2386:2392   */\n      dup2\n        /* \"#utility.yul\":2381:2384   */\n      dup6\n        /* \"#utility.yul\":2322:2393   */\n      tag_96\n      jump\t// in\n    tag_95:\n        /* \"#utility.yul\":2315:2393   */\n      swap4\n      pop\n        /* \"#utility.yul\":2402:2454   */\n      tag_97\n        /* \"#utility.yul\":2447:2453   */\n      dup2\n        /* \"#utility.yul\":2442:2445   */\n      dup6\n        /* \"#utility.yul\":2435:2439   */\n      0x20\n        /* \"#utility.yul\":2428:2433   */\n      dup7\n        /* \"#utility.yul\":2424:2440   */\n      add\n        /* \"#utility.yul\":2402:2454   */\n      tag_98\n      jump\t// in\n    tag_97:\n        /* \"#utility.yul\":2479:2508   */\n      tag_99\n        /* \"#utility.yul\":2501:2507   */\n      dup2\n        /* \"#utility.yul\":2479:2508   */\n      tag_100\n      jump\t// in\n    tag_99:\n        /* \"#utility.yul\":2474:2477   */\n      dup5\n        /* \"#utility.yul\":2470:2509   */\n      add\n        /* \"#utility.yul\":2463:2509   */\n      swap2\n      pop\n        /* \"#utility.yul\":2243:2515   */\n      pop\n      swap3\n      swap2\n      pop\n      pop\n      jump\t// out\n        /* \"#utility.yul\":2521:2639   */\n    tag_101:\n        /* \"#utility.yul\":2608:2632   */\n      tag_103\n        /* \"#utility.yul\":2626:2631   */\n      dup2\n        /* \"#utility.yul\":2608:2632   */\n      tag_104\n      jump\t// in\n    tag_103:\n        /* \"#utility.yul\":2603:2606   */\n      dup3\n        /* \"#utility.yul\":2596:2633   */\n      mstore\n        /* \"#utility.yul\":2586:2639   */\n      pop\n      pop\n      jump\t// out\n        /* \"#utility.yul\":2645:3190   */\n    tag_16:\n      0x00\n        /* \"#utility.yul\":2858:2860   */\n      0x60\n        /* \"#utility.yul\":2847:2856   */\n      dup3\n        /* \"#utility.yul\":2843:2861   */\n      add\n        /* \"#utility.yul\":2835:2861   */\n      swap1\n      pop\n        /* \"#utility.yul\":2871:2942   */\n      tag_106\n        /* \"#utility.yul\":2939:2940   */\n      0x00\n        /* \"#utility.yul\":2928:2937   */\n      dup4\n        /* \"#utility.yul\":2924:2941   */\n      add\n        /* \"#utility.yul\":2915:2921   */\n      dup7\n        /* \"#utility.yul\":2871:2942   */\n      tag_101\n      jump\t// in\n    tag_106:\n        /* \"#utility.yul\":2989:2998   */\n      dup2\n        /* \"#utility.yul\":2983:2987   */\n      dup2\n        /* \"#utility.yul\":2979:2999   */\n      sub\n        /* \"#utility.yul\":2974:2976   */\n      0x20\n        /* \"#utility.yul\":2963:2972   */\n      dup4\n        /* \"#utility.yul\":2959:2977   */\n      add\n        /* \"#utility.yul\":2952:3000   */\n      mstore\n        /* \"#utility.yul\":3017:3095   */\n      tag_107\n        /* \"#utility.yul\":3090:3094   */\n      dup2\n        /* \"#utility.yul\":3081:3087   */\n      dup6\n        /* \"#utility.yul\":3017:3095   */\n      tag_91\n      jump\t// in\n    tag_107:\n        /* \"#utility.yul\":3009:3095   */\n      swap1\n      pop\n        /* \"#utility.yul\":3105:3183   */\n      tag_108\n        /* \"#utility.yul\":3179:3181   */\n      0x40\n        /* \"#utility.yul\":3168:3177   */\n      dup4\n        /* \"#utility.yul\":3164:3182   */\n      add\n        /* \"#utility.yul\":3155:3161   */\n      dup5\n        /* \"#utility.yul\":3105:3183   */\n      tag_87\n      jump\t// in\n    tag_108:\n        /* \"#utility.yul\":2825:3190   */\n      swap5\n      swap4\n      pop\n      pop\n      pop\n      pop\n      jump\t// out\n        /* \"#utility.yul\":3196:3479   */\n    tag_63:\n      0x00\n        /* \"#utility.yul\":3262:3264   */\n      0x40\n        /* \"#utility.yul\":3256:3265   */\n      mload\n        /* \"#utility.yul\":3246:3265   */\n      swap1\n      pop\n        /* \"#utility.yul\":3304:3308   */\n      dup2\n        /* \"#utility.yul\":3296:3302   */\n      dup2\n        /* \"#utility.yul\":3292:3309   */\n      add\n        /* \"#utility.yul\":3411:3417   */\n      dup2\n        /* \"#utility.yul\":3399:3409   */\n      dup2\n        /* \"#utility.yul\":3396:3418   */\n      lt\n        /* \"#utility.yul\":3375:3393   */\n      0xffffffffffffffff\n        /* \"#utility.yul\":3363:3373   */\n      dup3\n        /* \"#utility.yul\":3360:3394   */\n      gt\n        /* \"#utility.yul\":3357:3419   */\n      or\n        /* \"#utility.yul\":3354:3356   */\n      iszero\n      tag_110\n      jumpi\n        /* \"#utility.yul\":3422:3440   */\n      tag_111\n      tag_112\n      jump\t// in\n    tag_111:\n        /* \"#utility.yul\":3354:3356   */\n    tag_110:\n        /* \"#utility.yul\":3462:3472   */\n      dup1\n        /* \"#utility.yul\":3458:3460   */\n      0x40\n        /* \"#utility.yul\":3451:3473   */\n      mstore\n        /* \"#utility.yul\":3236:3479   */\n      pop\n      swap2\n      swap1\n      pop\n      jump\t// out\n        /* \"#utility.yul\":3485:3817   */\n    tag_62:\n      0x00\n        /* \"#utility.yul\":3637:3655   */\n      0xffffffffffffffff\n        /* \"#utility.yul\":3629:3635   */\n      dup3\n        /* \"#utility.yul\":3626:3656   */\n      gt\n        /* \"#utility.yul\":3623:3625   */\n      iszero\n      tag_114\n      jumpi\n        /* \"#utility.yul\":3659:3677   */\n      tag_115\n      tag_112\n      jump\t// in\n    tag_115:\n        /* \"#utility.yul\":3623:3625   */\n    tag_114:\n        /* \"#utility.yul\":3744:3748   */\n      0x1f\n        /* \"#utility.yul\":3740:3749   */\n      not\n        /* \"#utility.yul\":3733:3737   */\n      0x1f\n        /* \"#utility.yul\":3725:3731   */\n      dup4\n        /* \"#utility.yul\":3721:3738   */\n      add\n        /* \"#utility.yul\":3717:3750   */\n      and\n        /* \"#utility.yul\":3709:3750   */\n      swap1\n      pop\n        /* \"#utility.yul\":3805:3809   */\n      0x20\n        /* \"#utility.yul\":3799:3803   */\n      dup2\n        /* \"#utility.yul\":3795:3810   */\n      add\n        /* \"#utility.yul\":3787:3810   */\n      swap1\n      pop\n        /* \"#utility.yul\":3552:3817   */\n      swap2\n      swap1\n      pop\n      jump\t// out\n        /* \"#utility.yul\":3823:3922   */\n    tag_94:\n      0x00\n        /* \"#utility.yul\":3909:3914   */\n      dup2\n        /* \"#utility.yul\":3903:3915   */\n      mload\n        /* \"#utility.yul\":3893:3915   */\n      swap1\n      pop\n        /* \"#utility.yul\":3882:3922   */\n      swap2\n      swap1\n      pop\n      jump\t// out\n        /* \"#utility.yul\":3928:4097   */\n    tag_96:\n      0x00\n        /* \"#utility.yul\":4046:4052   */\n      dup3\n        /* \"#utility.yul\":4041:4044   */\n      dup3\n        /* \"#utility.yul\":4034:4053   */\n      mstore\n        /* \"#utility.yul\":4086:4090   */\n      0x20\n        /* \"#utility.yul\":4081:4084   */\n      dup3\n        /* \"#utility.yul\":4077:4091   */\n      add\n        /* \"#utility.yul\":4062:4091   */\n      swap1\n      pop\n        /* \"#utility.yul\":4024:4097   */\n      swap3\n      swap2\n      pop\n      pop\n      jump\t// out\n        /* \"#utility.yul\":4103:4230   */\n    tag_118:\n      0x00\n        /* \"#utility.yul\":4177:4182   */\n      dup2\n        /* \"#utility.yul\":4166:4182   */\n      swap1\n      pop\n        /* \"#utility.yul\":4183:4224   */\n      tag_120\n        /* \"#utility.yul\":4218:4223   */\n      dup3\n        /* \"#utility.yul\":4183:4224   */\n      tag_121\n      jump\t// in\n    tag_120:\n        /* \"#utility.yul\":4156:4230   */\n      swap2\n      swap1\n      pop\n      jump\t// out\n        /* \"#utility.yul\":4236:4313   */\n    tag_104:\n      0x00\n        /* \"#utility.yul\":4302:4307   */\n      dup2\n        /* \"#utility.yul\":4291:4307   */\n      swap1\n      pop\n        /* \"#utility.yul\":4281:4313   */\n      swap2\n      swap1\n      pop\n      jump\t// out\n        /* \"#utility.yul\":4319:4446   */\n    tag_90:\n      0x00\n        /* \"#utility.yul\":4408:4440   */\n      tag_124\n        /* \"#utility.yul\":4434:4439   */\n      dup3\n        /* \"#utility.yul\":4408:4440   */\n      tag_118\n      jump\t// in\n    tag_124:\n        /* \"#utility.yul\":4395:4440   */\n      swap1\n      pop\n        /* \"#utility.yul\":4385:4446   */\n      swap2\n      swap1\n      pop\n      jump\t// out\n        /* \"#utility.yul\":4452:4606   */\n    tag_66:\n        /* \"#utility.yul\":4536:4542   */\n      dup3\n        /* \"#utility.yul\":4531:4534   */\n      dup2\n        /* \"#utility.yul\":4526:4529   */\n      dup4\n        /* \"#utility.yul\":4513:4543   */\n      calldatacopy\n        /* \"#utility.yul\":4598:4599   */\n      0x00\n        /* \"#utility.yul\":4589:4595   */\n      dup4\n        /* \"#utility.yul\":4584:4587   */\n      dup4\n        /* \"#utility.yul\":4580:4596   */\n      add\n        /* \"#utility.yul\":4573:4600   */\n      mstore\n        /* \"#utility.yul\":4503:4606   */\n      pop\n      pop\n      pop\n      jump\t// out\n        /* \"#utility.yul\":4612:4919   */\n    tag_98:\n        /* \"#utility.yul\":4680:4681   */\n      0x00\n        /* \"#utility.yul\":4690:4803   */\n    tag_127:\n        /* \"#utility.yul\":4704:4710   */\n      dup4\n        /* \"#utility.yul\":4701:4702   */\n      dup2\n        /* \"#utility.yul\":4698:4711   */\n      lt\n        /* \"#utility.yul\":4690:4803   */\n      iszero\n      tag_129\n      jumpi\n        /* \"#utility.yul\":4789:4790   */\n      dup1\n        /* \"#utility.yul\":4784:4787   */\n      dup3\n        /* \"#utility.yul\":4780:4791   */\n      add\n        /* \"#utility.yul\":4774:4792   */\n      mload\n        /* \"#utility.yul\":4770:4771   */\n      dup2\n        /* \"#utility.yul\":4765:4768   */\n      dup5\n        /* \"#utility.yul\":4761:4772   */\n      add\n        /* \"#utility.yul\":4754:4793   */\n      mstore\n        /* \"#utility.yul\":4726:4728   */\n      0x20\n        /* \"#utility.yul\":4723:4724   */\n      dup2\n        /* \"#utility.yul\":4719:4729   */\n      add\n        /* \"#utility.yul\":4714:4729   */\n      swap1\n      pop\n        /* \"#utility.yul\":4690:4803   */\n      jump(tag_127)\n    tag_129:\n        /* \"#utility.yul\":4821:4827   */\n      dup4\n        /* \"#utility.yul\":4818:4819   */\n      dup2\n        /* \"#utility.yul\":4815:4828   */\n      gt\n        /* \"#utility.yul\":4812:4814   */\n      iszero\n      tag_130\n      jumpi\n        /* \"#utility.yul\":4901:4902   */\n      0x00\n        /* \"#utility.yul\":4892:4898   */\n      dup5\n        /* \"#utility.yul\":4887:4890   */\n      dup5\n        /* \"#utility.yul\":4883:4899   */\n      add\n        /* \"#utility.yul\":4876:4903   */\n      mstore\n        /* \"#utility.yul\":4812:4814   */\n    tag_130:\n        /* \"#utility.yul\":4661:4919   */\n      pop\n      pop\n      pop\n      pop\n      jump\t// out\n        /* \"#utility.yul\":4925:5245   */\n    tag_31:\n      0x00\n        /* \"#utility.yul\":5006:5007   */\n      0x02\n        /* \"#utility.yul\":5000:5004   */\n      dup3\n        /* \"#utility.yul\":4996:5008   */\n      div\n        /* \"#utility.yul\":4986:5008   */\n      swap1\n      pop\n        /* \"#utility.yul\":5053:5054   */\n      0x01\n        /* \"#utility.yul\":5047:5051   */\n      dup3\n        /* \"#utility.yul\":5043:5055   */\n      and\n        /* \"#utility.yul\":5074:5092   */\n      dup1\n        /* \"#utility.yul\":5064:5066   */\n      tag_132\n      jumpi\n        /* \"#utility.yul\":5130:5134   */\n      0x7f\n        /* \"#utility.yul\":5122:5128   */\n      dup3\n        /* \"#utility.yul\":5118:5135   */\n      and\n        /* \"#utility.yul\":5108:5135   */\n      swap2\n      pop\n        /* \"#utility.yul\":5064:5066   */\n    tag_132:\n        /* \"#utility.yul\":5192:5194   */\n      0x20\n        /* \"#utility.yul\":5184:5190   */\n      dup3\n        /* \"#utility.yul\":5181:5195   */\n      lt\n        /* \"#utility.yul\":5161:5179   */\n      dup2\n        /* \"#utility.yul\":5158:5196   */\n      eq\n        /* \"#utility.yul\":5155:5157   */\n      iszero\n      tag_133\n      jumpi\n        /* \"#utility.yul\":5211:5229   */\n      tag_134\n      tag_135\n      jump\t// in\n    tag_134:\n        /* \"#utility.yul\":5155:5157   */\n    tag_133:\n        /* \"#utility.yul\":4976:5245   */\n      pop\n      swap2\n      swap1\n      pop\n      jump\t// out\n        /* \"#utility.yul\":5251:5431   */\n    tag_136:\n        /* \"#utility.yul\":5299:5376   */\n      0x4e487b7100000000000000000000000000000000000000000000000000000000\n        /* \"#utility.yul\":5296:5297   */\n      0x00\n        /* \"#utility.yul\":5289:5377   */\n      mstore\n        /* \"#utility.yul\":5396:5400   */\n      0x21\n        /* \"#utility.yul\":5393:5394   */\n      0x04\n        /* \"#utility.yul\":5386:5401   */\n      mstore\n        /* \"#utility.yul\":5420:5424   */\n      0x24\n        /* \"#utility.yul\":5417:5418   */\n      0x00\n        /* \"#utility.yul\":5410:5425   */\n      revert\n        /* \"#utility.yul\":5437:5617   */\n    tag_135:\n        /* \"#utility.yul\":5485:5562   */\n      0x4e487b7100000000000000000000000000000000000000000000000000000000\n        /* \"#utility.yul\":5482:5483   */\n      0x00\n        /* \"#utility.yul\":5475:5563   */\n      mstore\n        /* \"#utility.yul\":5582:5586   */\n      0x22\n        /* \"#utility.yul\":5579:5580   */\n      0x04\n        /* \"#utility.yul\":5572:5587   */\n      mstore\n        /* \"#utility.yul\":5606:5610   */\n      0x24\n        /* \"#utility.yul\":5603:5604   */\n      0x00\n        /* \"#utility.yul\":5596:5611   */\n      revert\n        /* \"#utility.yul\":5623:5803   */\n    tag_112:\n        /* \"#utility.yul\":5671:5748   */\n      0x4e487b7100000000000000000000000000000000000000000000000000000000\n        /* \"#utility.yul\":5668:5669   */\n      0x00\n        /* \"#utility.yul\":5661:5749   */\n      mstore\n        /* \"#utility.yul\":5768:5772   */\n      0x41\n        /* \"#utility.yul\":5765:5766   */\n      0x04\n        /* \"#utility.yul\":5758:5773   */\n      mstore\n        /* \"#utility.yul\":5792:5796   */\n      0x24\n        /* \"#utility.yul\":5789:5790   */\n      0x00\n        /* \"#utility.yul\":5782:5797   */\n      revert\n        /* \"#utility.yul\":5809:5911   */\n    tag_100:\n      0x00\n        /* \"#utility.yul\":5901:5903   */\n      0x1f\n        /* \"#utility.yul\":5897:5904   */\n      not\n        /* \"#utility.yul\":5892:5894   */\n      0x1f\n        /* \"#utility.yul\":5885:5890   */\n      dup4\n        /* \"#utility.yul\":5881:5895   */\n      add\n        /* \"#utility.yul\":5877:5905   */\n      and\n        /* \"#utility.yul\":5867:5905   */\n      swap1\n      pop\n        /* \"#utility.yul\":5857:5911   */\n      swap2\n      swap1\n      pop\n      jump\t// out\n        /* \"#utility.yul\":5917:6030   */\n    tag_121:\n        /* \"#utility.yul\":5998:5999   */\n      0x04\n        /* \"#utility.yul\":5991:5996   */\n      dup2\n        /* \"#utility.yul\":5988:6000   */\n      lt\n        /* \"#utility.yul\":5978:5980   */\n      tag_142\n      jumpi\n        /* \"#utility.yul\":6004:6022   */\n      tag_143\n      tag_136\n      jump\t// in\n    tag_143:\n        /* \"#utility.yul\":5978:5980   */\n    tag_142:\n        /* \"#utility.yul\":5968:6030   */\n      pop\n      jump\t// out\n        /* \"#utility.yul\":6036:6158   */\n    tag_74:\n        /* \"#utility.yul\":6109:6133   */\n      tag_145\n        /* \"#utility.yul\":6127:6132   */\n      dup2\n        /* \"#utility.yul\":6109:6133   */\n      tag_104\n      jump\t// in\n    tag_145:\n        /* \"#utility.yul\":6102:6107   */\n      dup2\n        /* \"#utility.yul\":6099:6134   */\n      eq\n        /* \"#utility.yul\":6089:6091   */\n      tag_146\n      jumpi\n        /* \"#utility.yul\":6148:6149   */\n      0x00\n        /* \"#utility.yul\":6145:6146   */\n      dup1\n        /* \"#utility.yul\":6138:6150   */\n      revert\n        /* \"#utility.yul\":6089:6091   */\n    tag_146:\n        /* \"#utility.yul\":6079:6158   */\n      pop\n      jump\t// out\n\n    auxdata: 0xa26469706673582212201a2161d59121fa86748ef497a402e696a9647bb4363a630bd5506e025a323d9964736f6c63430008000033\n}\n",
				"bytecode": {
					"linkReferences": {},
					"object": "608060405234801561001057600080fd5b50610928806100206000396000f3fe608060405234801561001057600080fd5b506004361061004c5760003560e01c8063177ed85f14610051578063a85c38ef1461006d578063d09ef2411461009f578063e2f31829146100d1575b600080fd5b61006b600480360381019061006691906105e4565b6100ed565b005b610087600480360381019061008291906105bb565b6101d7565b604051610096939291906106cb565b60405180910390f35b6100b960048036038101906100b491906105bb565b610296565b6040516100c8939291906106cb565b60405180910390f35b6100eb60048036038101906100e69190610638565b6103fc565b005b60405180606001604052808381526020018281526020016000600381111561013e577f4e487b7100000000000000000000000000000000000000000000000000000000600052602160045260246000fd5b81525060008084815260200190815260200160002060008201518160000155602082015181600101908051906020019061017992919061049b565b5060408201518160020160006101000a81548160ff021916908360038111156101cb577f4e487b7100000000000000000000000000000000000000000000000000000000600052602160045260246000fd5b02179055509050505050565b6000602052806000526040600020600091509050806000015490806001018054610200906107f7565b80601f016020809104026020016040519081016040528092919081815260200182805461022c906107f7565b80156102795780601f1061024e57610100808354040283529160200191610279565b820191906000526020600020905b81548152906001019060200180831161025c57829003601f168201915b5050505050908060020160009054906101000a900460ff16905083565b60006060600080600080868152602001908152602001600020604051806060016040529081600082015481526020016001820180546102d4906107f7565b80601f0160208091040260200160405190810160405280929190818152602001828054610300906107f7565b801561034d5780601f106103225761010080835404028352916020019161034d565b820191906000526020600020905b81548152906001019060200180831161033057829003601f168201915b505050505081526020016002820160009054906101000a900460ff1660038111156103a1577f4e487b7100000000000000000000000000000000000000000000000000000000600052602160045260246000fd5b60038111156103d9577f4e487b7100000000000000000000000000000000000000000000000000000000600052602160045260246000fd5b815250509050806000015181602001518260400151935093509350509193909250565b806003811115610435577f4e487b7100000000000000000000000000000000000000000000000000000000600052602160045260246000fd5b60008084815260200190815260200160002060020160006101000a81548160ff02191690836003811115610492577f4e487b7100000000000000000000000000000000000000000000000000000000600052602160045260246000fd5b02179055505050565b8280546104a7906107f7565b90600052602060002090601f0160209004810192826104c95760008555610510565b82601f106104e257805160ff1916838001178555610510565b82800160010185558215610510579182015b8281111561050f5782518255916020019190600101906104f4565b5b50905061051d9190610521565b5090565b5b8082111561053a576000816000905550600101610522565b5090565b600061055161054c8461073a565b610709565b90508281526020810184848401111561056957600080fd5b6105748482856107b5565b509392505050565b600082601f83011261058d57600080fd5b813561059d84826020860161053e565b91505092915050565b6000813590506105b5816108db565b92915050565b6000602082840312156105cd57600080fd5b60006105db848285016105a6565b91505092915050565b600080604083850312156105f757600080fd5b6000610605858286016105a6565b925050602083013567ffffffffffffffff81111561062257600080fd5b61062e8582860161057c565b9150509250929050565b6000806040838503121561064b57600080fd5b6000610659858286016105a6565b925050602061066a858286016105a6565b9150509250929050565b61067d816107a3565b82525050565b600061068e8261076a565b6106988185610775565b93506106a88185602086016107c4565b6106b1816108b6565b840191505092915050565b6106c581610799565b82525050565b60006060820190506106e060008301866106bc565b81810360208301526106f28185610683565b90506107016040830184610674565b949350505050565b6000604051905081810181811067ffffffffffffffff821117156107305761072f610887565b5b8060405250919050565b600067ffffffffffffffff82111561075557610754610887565b5b601f19601f8301169050602081019050919050565b600081519050919050565b600082825260208201905092915050565b6000819050610794826108c7565b919050565b6000819050919050565b60006107ae82610786565b9050919050565b82818337600083830152505050565b60005b838110156107e25780820151818401526020810190506107c7565b838111156107f1576000848401525b50505050565b6000600282049050600182168061080f57607f821691505b6020821081141561082357610822610858565b5b50919050565b7f4e487b7100000000000000000000000000000000000000000000000000000000600052602160045260246000fd5b7f4e487b7100000000000000000000000000000000000000000000000000000000600052602260045260246000fd5b7f4e487b7100000000000000000000000000000000000000000000000000000000600052604160045260246000fd5b6000601f19601f8301169050919050565b600481106108d8576108d7610829565b5b50565b6108e481610799565b81146108ef57600080fd5b5056fea26469706673582212201a2161d59121fa86748ef497a402e696a9647bb4363a630bd5506e025a323d9964736f6c63430008000033",
					"opcodes": "PUSH1 0x80 PUSH1 0x40 MSTORE CALLVALUE DUP1 ISZERO PUSH2 0x10 JUMPI PUSH1 0x0 DUP1 REVERT JUMPDEST POP PUSH2 0x928 DUP1 PUSH2 0x20 PUSH1 0x0 CODECOPY PUSH1 0x0 RETURN INVALID PUSH1 0x80 PUSH1 0x40 MSTORE CALLVALUE DUP1 ISZERO PUSH2 0x10 JUMPI PUSH1 0x0 DUP1 REVERT JUMPDEST POP PUSH1 0x4 CALLDATASIZE LT PUSH2 0x4C JUMPI PUSH1 0x0 CALLDATALOAD PUSH1 0xE0 SHR DUP1 PUSH4 0x177ED85F EQ PUSH2 0x51 JUMPI DUP1 PUSH4 0xA85C38EF EQ PUSH2 0x6D JUMPI DUP1 PUSH4 0xD09EF241 EQ PUSH2 0x9F JUMPI DUP1 PUSH4 0xE2F31829 EQ PUSH2 0xD1 JUMPI JUMPDEST PUSH1 0x0 DUP1 REVERT JUMPDEST PUSH2 0x6B PUSH1 0x4 DUP1 CALLDATASIZE SUB DUP2 ADD SWAP1 PUSH2 0x66 SWAP2 SWAP1 PUSH2 0x5E4 JUMP JUMPDEST PUSH2 0xED JUMP JUMPDEST STOP JUMPDEST PUSH2 0x87 PUSH1 0x4 DUP1 CALLDATASIZE SUB DUP2 ADD SWAP1 PUSH2 0x82 SWAP2 SWAP1 PUSH2 0x5BB JUMP JUMPDEST PUSH2 0x1D7 JUMP JUMPDEST PUSH1 0x40 MLOAD PUSH2 0x96 SWAP4 SWAP3 SWAP2 SWAP1 PUSH2 0x6CB JUMP JUMPDEST PUSH1 0x40 MLOAD DUP1 SWAP2 SUB SWAP1 RETURN JUMPDEST PUSH2 0xB9 PUSH1 0x4 DUP1 CALLDATASIZE SUB DUP2 ADD SWAP1 PUSH2 0xB4 SWAP2 SWAP1 PUSH2 0x5BB JUMP JUMPDEST PUSH2 0x296 JUMP JUMPDEST PUSH1 0x40 MLOAD PUSH2 0xC8 SWAP4 SWAP3 SWAP2 SWAP1 PUSH2 0x6CB JUMP JUMPDEST PUSH1 0x40 MLOAD DUP1 SWAP2 SUB SWAP1 RETURN JUMPDEST PUSH2 0xEB PUSH1 0x4 DUP1 CALLDATASIZE SUB DUP2 ADD SWAP1 PUSH2 0xE6 SWAP2 SWAP1 PUSH2 0x638 JUMP JUMPDEST PUSH2 0x3FC JUMP JUMPDEST STOP JUMPDEST PUSH1 0x40 MLOAD DUP1 PUSH1 0x60 ADD PUSH1 0x40 MSTORE DUP1 DUP4 DUP2 MSTORE PUSH1 0x20 ADD DUP3 DUP2 MSTORE PUSH1 0x20 ADD PUSH1 0x0 PUSH1 0x3 DUP2 GT ISZERO PUSH2 0x13E JUMPI PUSH32 0x4E487B7100000000000000000000000000000000000000000000000000000000 PUSH1 0x0 MSTORE PUSH1 0x21 PUSH1 0x4 MSTORE PUSH1 0x24 PUSH1 0x0 REVERT JUMPDEST DUP2 MSTORE POP PUSH1 0x0 DUP1 DUP5 DUP2 MSTORE PUSH1 0x20 ADD SWAP1 DUP2 MSTORE PUSH1 0x20 ADD PUSH1 0x0 KECCAK256 PUSH1 0x0 DUP3 ADD MLOAD DUP2 PUSH1 0x0 ADD SSTORE PUSH1 0x20 DUP3 ADD MLOAD DUP2 PUSH1 0x1 ADD SWAP1 DUP1 MLOAD SWAP1 PUSH1 0x20 ADD SWAP1 PUSH2 0x179 SWAP3 SWAP2 SWAP1 PUSH2 0x49B JUMP JUMPDEST POP PUSH1 0x40 DUP3 ADD MLOAD DUP2 PUSH1 0x2 ADD PUSH1 0x0 PUSH2 0x100 EXP DUP2 SLOAD DUP2 PUSH1 0xFF MUL NOT AND SWAP1 DUP4 PUSH1 0x3 DUP2 GT ISZERO PUSH2 0x1CB JUMPI PUSH32 0x4E487B7100000000000000000000000000000000000000000000000000000000 PUSH1 0x0 MSTORE PUSH1 0x21 PUSH1 0x4 MSTORE PUSH1 0x24 PUSH1 0x0 REVERT JUMPDEST MUL OR SWAP1 SSTORE POP SWAP1 POP POP POP POP JUMP JUMPDEST PUSH1 0x0 PUSH1 0x20 MSTORE DUP1 PUSH1 0x0 MSTORE PUSH1 0x40 PUSH1 0x0 KECCAK256 PUSH1 0x0 SWAP2 POP SWAP1 POP DUP1 PUSH1 0x0 ADD SLOAD SWAP1 DUP1 PUSH1 0x1 ADD DUP1 SLOAD PUSH2 0x200 SWAP1 PUSH2 0x7F7 JUMP JUMPDEST DUP1 PUSH1 0x1F ADD PUSH1 0x20 DUP1 SWAP2 DIV MUL PUSH1 0x20 ADD PUSH1 0x40 MLOAD SWAP1 DUP2 ADD PUSH1 0x40 MSTORE DUP1 SWAP3 SWAP2 SWAP1 DUP2 DUP2 MSTORE PUSH1 0x20 ADD DUP3 DUP1 SLOAD PUSH2 0x22C SWAP1 PUSH2 0x7F7 JUMP JUMPDEST DUP1 ISZERO PUSH2 0x279 JUMPI DUP1 PUSH1 0x1F LT PUSH2 0x24E JUMPI PUSH2 0x100 DUP1 DUP4 SLOAD DIV MUL DUP4 MSTORE SWAP2 PUSH1 0x20 ADD SWAP2 PUSH2 0x279 JUMP JUMPDEST DUP3 ADD SWAP2 SWAP1 PUSH1 0x0 MSTORE PUSH1 0x20 PUSH1 0x0 KECCAK256 SWAP1 JUMPDEST DUP2 SLOAD DUP2 MSTORE SWAP1 PUSH1 0x1 ADD SWAP1 PUSH1 0x20 ADD DUP1 DUP4 GT PUSH2 0x25C JUMPI DUP3 SWAP1 SUB PUSH1 0x1F AND DUP3 ADD SWAP2 JUMPDEST POP POP POP POP POP SWAP1 DUP1 PUSH1 0x2 ADD PUSH1 0x0 SWAP1 SLOAD SWAP1 PUSH2 0x100 EXP SWAP1 DIV PUSH1 0xFF AND SWAP1 POP DUP4 JUMP JUMPDEST PUSH1 0x0 PUSH1 0x60 PUSH1 0x0 DUP1 PUSH1 0x0 DUP1 DUP7 DUP2 MSTORE PUSH1 0x20 ADD SWAP1 DUP2 MSTORE PUSH1 0x20 ADD PUSH1 0x0 KECCAK256 PUSH1 0x40 MLOAD DUP1 PUSH1 0x60 ADD PUSH1 0x40 MSTORE SWAP1 DUP2 PUSH1 0x0 DUP3 ADD SLOAD DUP2 MSTORE PUSH1 0x20 ADD PUSH1 0x1 DUP3 ADD DUP1 SLOAD PUSH2 0x2D4 SWAP1 PUSH2 0x7F7 JUMP JUMPDEST DUP1 PUSH1 0x1F ADD PUSH1 0x20 DUP1 SWAP2 DIV MUL PUSH1 0x20 ADD PUSH1 0x40 MLOAD SWAP1 DUP2 ADD PUSH1 0x40 MSTORE DUP1 SWAP3 SWAP2 SWAP1 DUP2 DUP2 MSTORE PUSH1 0x20 ADD DUP3 DUP1 SLOAD PUSH2 0x300 SWAP1 PUSH2 0x7F7 JUMP JUMPDEST DUP1 ISZERO PUSH2 0x34D JUMPI DUP1 PUSH1 0x1F LT PUSH2 0x322 JUMPI PUSH2 0x100 DUP1 DUP4 SLOAD DIV MUL DUP4 MSTORE SWAP2 PUSH1 0x20 ADD SWAP2 PUSH2 0x34D JUMP JUMPDEST DUP3 ADD SWAP2 SWAP1 PUSH1 0x0 MSTORE PUSH1 0x20 PUSH1 0x0 KECCAK256 SWAP1 JUMPDEST DUP2 SLOAD DUP2 MSTORE SWAP1 PUSH1 0x1 ADD SWAP1 PUSH1 0x20 ADD DUP1 DUP4 GT PUSH2 0x330 JUMPI DUP3 SWAP1 SUB PUSH1 0x1F AND DUP3 ADD SWAP2 JUMPDEST POP POP POP POP POP DUP2 MSTORE PUSH1 0x20 ADD PUSH1 0x2 DUP3 ADD PUSH1 0x0 SWAP1 SLOAD SWAP1 PUSH2 0x100 EXP SWAP1 DIV PUSH1 0xFF AND PUSH1 0x3 DUP2 GT ISZERO PUSH2 0x3A1 JUMPI PUSH32 0x4E487B7100000000000000000000000000000000000000000000000000000000 PUSH1 0x0 MSTORE PUSH1 0x21 PUSH1 0x4 MSTORE PUSH1 0x24 PUSH1 0x0 REVERT JUMPDEST PUSH1 0x3 DUP2 GT ISZERO PUSH2 0x3D9 JUMPI PUSH32 0x4E487B7100000000000000000000000000000000000000000000000000000000 PUSH1 0x0 MSTORE PUSH1 0x21 PUSH1 0x4 MSTORE PUSH1 0x24 PUSH1 0x0 REVERT JUMPDEST DUP2 MSTORE POP POP SWAP1 POP DUP1 PUSH1 0x0 ADD MLOAD DUP2 PUSH1 0x20 ADD MLOAD DUP3 PUSH1 0x40 ADD MLOAD SWAP4 POP SWAP4 POP SWAP4 POP POP SWAP2 SWAP4 SWAP1 SWAP3 POP JUMP JUMPDEST DUP1 PUSH1 0x3 DUP2 GT ISZERO PUSH2 0x435 JUMPI PUSH32 0x4E487B7100000000000000000000000000000000000000000000000000000000 PUSH1 0x0 MSTORE PUSH1 0x21 PUSH1 0x4 MSTORE PUSH1 0x24 PUSH1 0x0 REVERT JUMPDEST PUSH1 0x0 DUP1 DUP5 DUP2 MSTORE PUSH1 0x20 ADD SWAP1 DUP2 MSTORE PUSH1 0x20 ADD PUSH1 0x0 KECCAK256 PUSH1 0x2 ADD PUSH1 0x0 PUSH2 0x100 EXP DUP2 SLOAD DUP2 PUSH1 0xFF MUL NOT AND SWAP1 DUP4 PUSH1 0x3 DUP2 GT ISZERO PUSH2 0x492 JUMPI PUSH32 0x4E487B7100000000000000000000000000000000000000000000000000000000 PUSH1 0x0 MSTORE PUSH1 0x21 PUSH1 0x4 MSTORE PUSH1 0x24 PUSH1 0x0 REVERT JUMPDEST MUL OR SWAP1 SSTORE POP POP POP JUMP JUMPDEST DUP3 DUP1 SLOAD PUSH2 0x4A7 SWAP1 PUSH2 0x7F7 JUMP JUMPDEST SWAP1 PUSH1 0x0 MSTORE PUSH1 0x20 PUSH1 0x0 KECCAK256 SWAP1 PUSH1 0x1F ADD PUSH1 0x20 SWAP1 DIV DUP2 ADD SWAP3 DUP3 PUSH2 0x4C9 JUMPI PUSH1 0x0 DUP6 SSTORE PUSH2 0x510 JUMP JUMPDEST DUP3 PUSH1 0x1F LT PUSH2 0x4E2 JUMPI DUP1 MLOAD PUSH1 0xFF NOT AND DUP4 DUP1 ADD OR DUP6 SSTORE PUSH2 0x510 JUMP JUMPDEST DUP3 DUP1 ADD PUSH1 0x1 ADD DUP6 SSTORE DUP3 ISZERO PUSH2 0x510 JUMPI SWAP2 DUP3 ADD JUMPDEST DUP3 DUP2 GT ISZERO PUSH2 0x50F JUMPI DUP3 MLOAD DUP3 SSTORE SWAP2 PUSH1 0x20 ADD SWAP2 SWAP1 PUSH1 0x1 ADD SWAP1 PUSH2 0x4F4 JUMP JUMPDEST JUMPDEST POP SWAP1 POP PUSH2 0x51D SWAP2 SWAP1 PUSH2 0x521 JUMP JUMPDEST POP SWAP1 JUMP JUMPDEST JUMPDEST DUP1 DUP3 GT ISZERO PUSH2 0x53A JUMPI PUSH1 0x0 DUP2 PUSH1 0x0 SWAP1 SSTORE POP PUSH1 0x1 ADD PUSH2 0x522 JUMP JUMPDEST POP SWAP1 JUMP JUMPDEST PUSH1 0x0 PUSH2 0x551 PUSH2 0x54C DUP5 PUSH2 0x73A JUMP JUMPDEST PUSH2 0x709 JUMP JUMPDEST SWAP1 POP DUP3 DUP2 MSTORE PUSH1 0x20 DUP2 ADD DUP5 DUP5 DUP5 ADD GT ISZERO PUSH2 0x569 JUMPI PUSH1 0x0 DUP1 REVERT JUMPDEST PUSH2 0x574 DUP5 DUP3 DUP6 PUSH2 0x7B5 JUMP JUMPDEST POP SWAP4 SWAP3 POP POP POP JUMP JUMPDEST PUSH1 0x0 DUP3 PUSH1 0x1F DUP4 ADD SLT PUSH2 0x58D JUMPI PUSH1 0x0 DUP1 REVERT JUMPDEST DUP2 CALLDATALOAD PUSH2 0x59D DUP5 DUP3 PUSH1 0x20 DUP7 ADD PUSH2 0x53E JUMP JUMPDEST SWAP2 POP POP SWAP3 SWAP2 POP POP JUMP JUMPDEST PUSH1 0x0 DUP2 CALLDATALOAD SWAP1 POP PUSH2 0x5B5 DUP2 PUSH2 0x8DB JUMP JUMPDEST SWAP3 SWAP2 POP POP JUMP JUMPDEST PUSH1 0x0 PUSH1 0x20 DUP3 DUP5 SUB SLT ISZERO PUSH2 0x5CD JUMPI PUSH1 0x0 DUP1 REVERT JUMPDEST PUSH1 0x0 PUSH2 0x5DB DUP5 DUP3 DUP6 ADD PUSH2 0x5A6 JUMP JUMPDEST SWAP2 POP POP SWAP3 SWAP2 POP POP JUMP JUMPDEST PUSH1 0x0 DUP1 PUSH1 0x40 DUP4 DUP6 SUB SLT ISZERO PUSH2 0x5F7 JUMPI PUSH1 0x0 DUP1 REVERT JUMPDEST PUSH1 0x0 PUSH2 0x605 DUP6 DUP3 DUP7 ADD PUSH2 0x5A6 JUMP JUMPDEST SWAP3 POP POP PUSH1 0x20 DUP4 ADD CALLDATALOAD PUSH8 0xFFFFFFFFFFFFFFFF DUP2 GT ISZERO PUSH2 0x622 JUMPI PUSH1 0x0 DUP1 REVERT JUMPDEST PUSH2 0x62E DUP6 DUP3 DUP7 ADD PUSH2 0x57C JUMP JUMPDEST SWAP2 POP POP SWAP3 POP SWAP3 SWAP1 POP JUMP JUMPDEST PUSH1 0x0 DUP1 PUSH1 0x40 DUP4 DUP6 SUB SLT ISZERO PUSH2 0x64B JUMPI PUSH1 0x0 DUP1 REVERT JUMPDEST PUSH1 0x0 PUSH2 0x659 DUP6 DUP3 DUP7 ADD PUSH2 0x5A6 JUMP JUMPDEST SWAP3 POP POP PUSH1 0x20 PUSH2 0x66A DUP6 DUP3 DUP7 ADD PUSH2 0x5A6 JUMP JUMPDEST SWAP2 POP POP SWAP3 POP SWAP3 SWAP1 POP JUMP JUMPDEST PUSH2 0x67D DUP2 PUSH2 0x7A3 JUMP JUMPDEST DUP3 MSTORE POP POP JUMP JUMPDEST PUSH1 0x0 PUSH2 0x68E DUP3 PUSH2 0x76A JUMP JUMPDEST PUSH2 0x698 DUP2 DUP6 PUSH2 0x775 JUMP JUMPDEST SWAP4 POP PUSH2 0x6A8 DUP2 DUP6 PUSH1 0x20 DUP7 ADD PUSH2 0x7C4 JUMP JUMPDEST PUSH2 0x6B1 DUP2 PUSH2 0x8B6 JUMP JUMPDEST DUP5 ADD SWAP2 POP POP SWAP3 SWAP2 POP POP JUMP JUMPDEST PUSH2 0x6C5 DUP2 PUSH2 0x799 JUMP JUMPDEST DUP3 MSTORE POP POP JUMP JUMPDEST PUSH1 0x0 PUSH1 0x60 DUP3 ADD SWAP1 POP PUSH2 0x6E0 PUSH1 0x0 DUP4 ADD DUP7 PUSH2 0x6BC JUMP JUMPDEST DUP2 DUP2 SUB PUSH1 0x20 DUP4 ADD MSTORE PUSH2 0x6F2 DUP2 DUP6 PUSH2 0x683 JUMP JUMPDEST SWAP1 POP PUSH2 0x701 PUSH1 0x40 DUP4 ADD DUP5 PUSH2 0x674 JUMP JUMPDEST SWAP5 SWAP4 POP POP POP POP JUMP JUMPDEST PUSH1 0x0 PUSH1 0x40 MLOAD SWAP1 POP DUP2 DUP2 ADD DUP2 DUP2 LT PUSH8 0xFFFFFFFFFFFFFFFF DUP3 GT OR ISZERO PUSH2 0x730 JUMPI PUSH2 0x72F PUSH2 0x887 JUMP JUMPDEST JUMPDEST DUP1 PUSH1 0x40 MSTORE POP SWAP2 SWAP1 POP JUMP JUMPDEST PUSH1 0x0 PUSH8 0xFFFFFFFFFFFFFFFF DUP3 GT ISZERO PUSH2 0x755 JUMPI PUSH2 0x754 PUSH2 0x887 JUMP JUMPDEST JUMPDEST PUSH1 0x1F NOT PUSH1 0x1F DUP4 ADD AND SWAP1 POP PUSH1 0x20 DUP2 ADD SWAP1 POP SWAP2 SWAP1 POP JUMP JUMPDEST PUSH1 0x0 DUP2 MLOAD SWAP1 POP SWAP2 SWAP1 POP JUMP JUMPDEST PUSH1 0x0 DUP3 DUP3 MSTORE PUSH1 0x20 DUP3 ADD SWAP1 POP SWAP3 SWAP2 POP POP JUMP JUMPDEST PUSH1 0x0 DUP2 SWAP1 POP PUSH2 0x794 DUP3 PUSH2 0x8C7 JUMP JUMPDEST SWAP2 SWAP1 POP JUMP JUMPDEST PUSH1 0x0 DUP2 SWAP1 POP SWAP2 SWAP1 POP JUMP JUMPDEST PUSH1 0x0 PUSH2 0x7AE DUP3 PUSH2 0x786 JUMP JUMPDEST SWAP1 POP SWAP2 SWAP1 POP JUMP JUMPDEST DUP3 DUP2 DUP4 CALLDATACOPY PUSH1 0x0 DUP4 DUP4 ADD MSTORE POP POP POP JUMP JUMPDEST PUSH1 0x0 JUMPDEST DUP4 DUP2 LT ISZERO PUSH2 0x7E2 JUMPI DUP1 DUP3 ADD MLOAD DUP2 DUP5 ADD MSTORE PUSH1 0x20 DUP2 ADD SWAP1 POP PUSH2 0x7C7 JUMP JUMPDEST DUP4 DUP2 GT ISZERO PUSH2 0x7F1 JUMPI PUSH1 0x0 DUP5 DUP5 ADD MSTORE JUMPDEST POP POP POP POP JUMP JUMPDEST PUSH1 0x0 PUSH1 0x2 DUP3 DIV SWAP1 POP PUSH1 0x1 DUP3 AND DUP1 PUSH2 0x80F JUMPI PUSH1 0x7F DUP3 AND SWAP2 POP JUMPDEST PUSH1 0x20 DUP3 LT DUP2 EQ ISZERO PUSH2 0x823 JUMPI PUSH2 0x822 PUSH2 0x858 JUMP JUMPDEST JUMPDEST POP SWAP2 SWAP1 POP JUMP JUMPDEST PUSH32 0x4E487B7100000000000000000000000000000000000000000000000000000000 PUSH1 0x0 MSTORE PUSH1 0x21 PUSH1 0x4 MSTORE PUSH1 0x24 PUSH1 0x0 REVERT JUMPDEST PUSH32 0x4E487B7100000000000000000000000000000000000000000000000000000000 PUSH1 0x0 MSTORE PUSH1 0x22 PUSH1 0x4 MSTORE PUSH1 0x24 PUSH1 0x0 REVERT JUMPDEST PUSH32 0x4E487B7100000000000000000000000000000000000000000000000000000000 PUSH1 0x0 MSTORE PUSH1 0x41 PUSH1 0x4 MSTORE PUSH1 0x24 PUSH1 0x0 REVERT JUMPDEST PUSH1 0x0 PUSH1 0x1F NOT PUSH1 0x1F DUP4 ADD AND SWAP1 POP SWAP2 SWAP1 POP JUMP JUMPDEST PUSH1 0x4 DUP2 LT PUSH2 0x8D8 JUMPI PUSH2 0x8D7 PUSH2 0x829 JUMP JUMPDEST JUMPDEST POP JUMP JUMPDEST PUSH2 0x8E4 DUP2 PUSH2 0x799 JUMP JUMPDEST DUP2 EQ PUSH2 0x8EF JUMPI PUSH1 0x0 DUP1 REVERT JUMPDEST POP JUMP INVALID LOG2 PUSH5 0x6970667358 0x22 SLT KECCAK256 BYTE 0x21 PUSH2 0xD591 0x21 STATICCALL DUP7 PUSH21 0x8EF497A402E696A9647BB4363A630BD5506E025A32 RETURNDATASIZE SWAP10 PUSH5 0x736F6C6343 STOP ADDMOD STOP STOP CALLER "
				},
				"gasEstimates": {
					"creation": {
						"codeDepositCost": "468800",
						"executionCost": "505",
						"totalCost": "469305"
					},
					"external": {
						"createorder(uint256,string)": "infinite",
						"getOrder(uint256)": "infinite",
						"orders(uint256)": "infinite",
						"updateStatus(uint256,uint256)": "infinite"
					}
				},
				"methodIdentifiers": {
					"createorder(uint256,string)": "177ed85f",
					"getOrder(uint256)": "d09ef241",
					"orders(uint256)": "a85c38ef",
					"updateStatus(uint256,uint256)": "e2f31829"
				}
			},
			"storageLayout": {
				"storage": [
					{
						"astId": 19,
						"contract": "contract_order_system.sol:order_system",
						"label": "orders",
						"offset": 0,
						"slot": "0",
						"type": "t_mapping(t_uint256,t_struct(Order)14_storage)"
					}
				],
				"types": {
					"t_enum(Status)6": {
						"encoding": "inplace",
						"label": "enum order_system.Status",
						"numberOfBytes": "1"
					},
					"t_mapping(t_uint256,t_struct(Order)14_storage)": {
						"encoding": "mapping",
						"key": "t_uint256",
						"label": "mapping(uint256 => struct order_system.Order)",
						"numberOfBytes": "32",
						"value": "t_struct(Order)14_storage"
					},
					"t_string_storage": {
						"encoding": "bytes",
						"label": "string",
						"numberOfBytes": "32"
					},
					"t_struct(Order)14_storage": {
						"encoding": "inplace",
						"label": "struct order_system.Order",
						"members": [
							{
								"astId": 8,
								"contract": "contract_order_system.sol:order_system",
								"label": "id",
								"offset": 0,
								"slot": "0",
								"type": "t_uint256"
							},
							{
								"astId": 10,
								"contract": "contract_order_system.sol:order_system",
								"label": "product",
								"offset": 0,
								"slot": "1",
								"type": "t_string_storage"
							},
							{
								"astId": 13,
								"contract": "contract_order_system.sol:order_system",
								"label": "status",
								"offset": 0,
								"slot": "2",
								"type": "t_enum(Status)6"
							}
						],
						"numberOfBytes": "96"
					},
					"t_uint256": {
						"encoding": "inplace",
						"label": "uint256",
						"numberOfBytes": "32"
					}
				}
			},
			"userdoc": {
				"kind": "user",
				"methods": {},
				"version": 1
			}
		}
	}
}