{
	"Arraydemo.sol": {
		"Array_Demo": {
			"abi": [
				{
					"inputs": [
						{
							"internalType": "string",
							"name": "name",
							"type": "string"
						}
					],
					"name": "add_name",
					"outputs": [],
					"stateMutability": "nonpayable",
					"type": "function"
				},
				{
					"inputs": [
						{
							"internalType": "uint256",
							"name": "number",
							"type": "uint256"
						}
					],
					"name": "add_numbers",
					"outputs": [],
					"stateMutability": "nonpayable",
					"type": "function"
				},
				{
					"inputs": [],
					"name": "get_names",
					"outputs": [
						{
							"internalType": "string[]",
							"name": "",
							"type": "string[]"
						}
					],
					"stateMutability": "view",
					"type": "function"
				},
				{
					"inputs": [],
					"name": "get_numbers",
					"outputs": [
						{
							"internalType": "uint256[]",
							"name": "",
							"type": "uint256[]"
						}
					],
					"stateMutability": "view",
					"type": "function"
				}
			],
			"devdoc": {
				"kind": "dev",
				"methods": {},
				"version": 1
			},
			"evm": {
				"assembly": "    /* \"Arraydemo.sol\":60:559  contract Array_Demo{\r... */\n  mstore(0x40, 0x80)\n    /* \"Arraydemo.sol\":88:119  uint []  numbers= [10,20,30,40] */\n  mload(0x40)\n  dup1\n  0x80\n  add\n  0x40\n  mstore\n  dup1\n    /* \"Arraydemo.sol\":107:109  10 */\n  0x0a\n    /* \"Arraydemo.sol\":88:119  uint []  numbers= [10,20,30,40] */\n  0xff\n  and\n  dup2\n  mstore\n  0x20\n  add\n    /* \"Arraydemo.sol\":110:112  20 */\n  0x14\n    /* \"Arraydemo.sol\":88:119  uint []  numbers= [10,20,30,40] */\n  0xff\n  and\n  dup2\n  mstore\n  0x20\n  add\n    /* \"Arraydemo.sol\":113:115  30 */\n  0x1e\n    /* \"Arraydemo.sol\":88:119  uint []  numbers= [10,20,30,40] */\n  0xff\n  and\n  dup2\n  mstore\n  0x20\n  add\n    /* \"Arraydemo.sol\":116:118  40 */\n  0x28\n    /* \"Arraydemo.sol\":88:119  uint []  numbers= [10,20,30,40] */\n  0xff\n  and\n  dup2\n  mstore\n  pop\n  0x00\n  swap1\n  0x04\n  tag_1\n  swap3\n  swap2\n  swap1\n  tag_2\n  jump\t// in\ntag_1:\n  pop\n    /* \"Arraydemo.sol\":126:172  string [] names = [\"saurabh\",\"yogesh\",\"rohit\"] */\n  mload(0x40)\n  dup1\n  0x60\n  add\n  0x40\n  mstore\n  dup1\n  mload(0x40)\n  dup1\n  0x40\n  add\n  0x40\n  mstore\n  dup1\n  0x07\n  dup2\n  mstore\n  0x20\n  add\n  0x7361757261626800000000000000000000000000000000000000000000000000\n  dup2\n  mstore\n  pop\n  dup2\n  mstore\n  0x20\n  add\n  mload(0x40)\n  dup1\n  0x40\n  add\n  0x40\n  mstore\n  dup1\n  0x06\n  dup2\n  mstore\n  0x20\n  add\n  0x796f676573680000000000000000000000000000000000000000000000000000\n  dup2\n  mstore\n  pop\n  dup2\n  mstore\n  0x20\n  add\n  mload(0x40)\n  dup1\n  0x40\n  add\n  0x40\n  mstore\n  dup1\n  0x05\n  dup2\n  mstore\n  0x20\n  add\n  0x726f686974000000000000000000000000000000000000000000000000000000\n  dup2\n  mstore\n  pop\n  dup2\n  mstore\n  pop\n  0x01\n  swap1\n  0x03\n  tag_3\n  swap3\n  swap2\n  swap1\n  tag_4\n  jump\t// in\ntag_3:\n  pop\n    /* \"Arraydemo.sol\":60:559  contract Array_Demo{\r... */\n  callvalue\n  dup1\n  iszero\n  tag_5\n  jumpi\n  0x00\n  dup1\n  revert\ntag_5:\n  pop\n  jump(tag_6)\ntag_2:\n  dup3\n  dup1\n  sload\n  dup3\n  dup3\n  sstore\n  swap1\n  0x00\n  mstore\n  keccak256(0x00, 0x20)\n  swap1\n  dup2\n  add\n  swap3\n  dup3\n  iszero\n  tag_7\n  jumpi\n  swap2\n  0x20\n  mul\n  dup3\n  add\ntag_8:\n  dup3\n  dup2\n  gt\n  iszero\n  tag_9\n  jumpi\n  dup3\n  mload\n  dup3\n  swap1\n  0xff\n  and\n  swap1\n  sstore\n  swap2\n  0x20\n  add\n  swap2\n  swap1\n  0x01\n  add\n  swap1\n  jump(tag_8)\ntag_9:\ntag_7:\n  pop\n  swap1\n  pop\n  tag_10\n  swap2\n  swap1\n  tag_11\n  jump\t// in\ntag_10:\n  pop\n  swap1\n  jump\t// out\ntag_4:\n  dup3\n  dup1\n  sload\n  dup3\n  dup3\n  sstore\n  swap1\n  0x00\n  mstore\n  keccak256(0x00, 0x20)\n  swap1\n  dup2\n  add\n  swap3\n  dup3\n  iszero\n  tag_12\n  jumpi\n  swap2\n  0x20\n  mul\n  dup3\n  add\ntag_13:\n  dup3\n  dup2\n  gt\n  iszero\n  tag_14\n  jumpi\n  dup3\n  mload\n  dup3\n  swap1\n  dup1\n  mload\n  swap1\n  0x20\n  add\n  swap1\n  tag_15\n  swap3\n  swap2\n  swap1\n  tag_16\n  jump\t// in\ntag_15:\n  pop\n  swap2\n  0x20\n  add\n  swap2\n  swap1\n  0x01\n  add\n  swap1\n  jump(tag_13)\ntag_14:\ntag_12:\n  pop\n  swap1\n  pop\n  tag_17\n  swap2\n  swap1\n  tag_18\n  jump\t// in\ntag_17:\n  pop\n  swap1\n  jump\t// out\ntag_11:\ntag_19:\n  dup1\n  dup3\n  gt\n  iszero\n  tag_20\n  jumpi\n  0x00\n  dup2\n  0x00\n  swap1\n  sstore\n  pop\n  0x01\n  add\n  jump(tag_19)\ntag_20:\n  pop\n  swap1\n  jump\t// out\ntag_16:\n  dup3\n  dup1\n  sload\n  tag_21\n  swap1\n  tag_22\n  jump\t// in\ntag_21:\n  swap1\n  0x00\n  mstore\n  keccak256(0x00, 0x20)\n  swap1\n  0x1f\n  add\n  0x20\n  swap1\n  div\n  dup2\n  add\n  swap3\n  dup3\n  tag_24\n  jumpi\n  0x00\n  dup6\n  sstore\n  jump(tag_23)\ntag_24:\n  dup3\n  0x1f\n  lt\n  tag_25\n  jumpi\n  dup1\n  mload\n  not(0xff)\n  and\n  dup4\n  dup1\n  add\n  or\n  dup6\n  sstore\n  jump(tag_23)\ntag_25:\n  dup3\n  dup1\n  add\n  0x01\n  add\n  dup6\n  sstore\n  dup3\n  iszero\n  tag_23\n  jumpi\n  swap2\n  dup3\n  add\ntag_26:\n  dup3\n  dup2\n  gt\n  iszero\n  tag_27\n  jumpi\n  dup3\n  mload\n  dup3\n  sstore\n  swap2\n  0x20\n  add\n  swap2\n  swap1\n  0x01\n  add\n  swap1\n  jump(tag_26)\ntag_27:\ntag_23:\n  pop\n  swap1\n  pop\n  tag_28\n  swap2\n  swap1\n  tag_11\n  jump\t// in\ntag_28:\n  pop\n  swap1\n  jump\t// out\ntag_18:\ntag_29:\n  dup1\n  dup3\n  gt\n  iszero\n  tag_30\n  jumpi\n  0x00\n  dup2\n  dup2\n  tag_31\n  swap2\n  swap1\n  tag_32\n  jump\t// in\ntag_31:\n  pop\n  0x01\n  add\n  jump(tag_29)\ntag_30:\n  pop\n  swap1\n  jump\t// out\ntag_32:\n  pop\n  dup1\n  sload\n  tag_33\n  swap1\n  tag_22\n  jump\t// in\ntag_33:\n  0x00\n  dup3\n  sstore\n  dup1\n  0x1f\n  lt\n  tag_35\n  jumpi\n  pop\n  jump(tag_34)\ntag_35:\n  0x1f\n  add\n  0x20\n  swap1\n  div\n  swap1\n  0x00\n  mstore\n  keccak256(0x00, 0x20)\n  swap1\n  dup2\n  add\n  swap1\n  tag_36\n  swap2\n  swap1\n  tag_11\n  jump\t// in\ntag_36:\ntag_34:\n  pop\n  jump\t// out\n    /* \"#utility.yul\":7:327   */\ntag_22:\n  0x00\n    /* \"#utility.yul\":88:89   */\n  0x02\n    /* \"#utility.yul\":82:86   */\n  dup3\n    /* \"#utility.yul\":78:90   */\n  div\n    /* \"#utility.yul\":68:90   */\n  swap1\n  pop\n    /* \"#utility.yul\":135:136   */\n  0x01\n    /* \"#utility.yul\":129:133   */\n  dup3\n    /* \"#utility.yul\":125:137   */\n  and\n    /* \"#utility.yul\":156:174   */\n  dup1\n    /* \"#utility.yul\":146:148   */\n  tag_39\n  jumpi\n    /* \"#utility.yul\":212:216   */\n  0x7f\n    /* \"#utility.yul\":204:210   */\n  dup3\n    /* \"#utility.yul\":200:217   */\n  and\n    /* \"#utility.yul\":190:217   */\n  swap2\n  pop\n    /* \"#utility.yul\":146:148   */\ntag_39:\n    /* \"#utility.yul\":274:276   */\n  0x20\n    /* \"#utility.yul\":266:272   */\n  dup3\n    /* \"#utility.yul\":263:277   */\n  lt\n    /* \"#utility.yul\":243:261   */\n  dup2\n    /* \"#utility.yul\":240:278   */\n  eq\n    /* \"#utility.yul\":237:239   */\n  iszero\n  tag_40\n  jumpi\n    /* \"#utility.yul\":293:311   */\n  tag_41\n  tag_42\n  jump\t// in\ntag_41:\n    /* \"#utility.yul\":237:239   */\ntag_40:\n    /* \"#utility.yul\":58:327   */\n  pop\n  swap2\n  swap1\n  pop\n  jump\t// out\n    /* \"#utility.yul\":333:513   */\ntag_42:\n    /* \"#utility.yul\":381:458   */\n  0x4e487b7100000000000000000000000000000000000000000000000000000000\n    /* \"#utility.yul\":378:379   */\n  0x00\n    /* \"#utility.yul\":371:459   */\n  mstore\n    /* \"#utility.yul\":478:482   */\n  0x22\n    /* \"#utility.yul\":475:476   */\n  0x04\n    /* \"#utility.yul\":468:483   */\n  mstore\n    /* \"#utility.yul\":502:506   */\n  0x24\n    /* \"#utility.yul\":499:500   */\n  0x00\n    /* \"#utility.yul\":492:507   */\n  revert\n    /* \"Arraydemo.sol\":60:559  contract Array_Demo{\r... */\ntag_6:\n  dataSize(sub_0)\n  dup1\n  dataOffset(sub_0)\n  0x00\n  codecopy\n  0x00\n  return\nstop\n\nsub_0: assembly {\n        /* \"Arraydemo.sol\":60:559  contract Array_Demo{\r... */\n      mstore(0x40, 0x80)\n      callvalue\n      dup1\n      iszero\n      tag_1\n      jumpi\n      0x00\n      dup1\n      revert\n    tag_1:\n      pop\n      jumpi(tag_2, lt(calldatasize, 0x04))\n      shr(0xe0, calldataload(0x00))\n      dup1\n      0x2402c982\n      eq\n      tag_3\n      jumpi\n      dup1\n      0x6088337f\n      eq\n      tag_4\n      jumpi\n      dup1\n      0xa2c356d5\n      eq\n      tag_5\n      jumpi\n      dup1\n      0xbf15a645\n      eq\n      tag_6\n      jumpi\n    tag_2:\n      0x00\n      dup1\n      revert\n        /* \"Arraydemo.sol\":464:556  function get_names () public view returns (string [] memory) {\r... */\n    tag_3:\n      tag_7\n      tag_8\n      jump\t// in\n    tag_7:\n      mload(0x40)\n      tag_9\n      swap2\n      swap1\n      tag_10\n      jump\t// in\n    tag_9:\n      mload(0x40)\n      dup1\n      swap2\n      sub\n      swap1\n      return\n        /* \"Arraydemo.sol\":275:356  function add_name (string memory name) public {\r... */\n    tag_4:\n      tag_11\n      0x04\n      dup1\n      calldatasize\n      sub\n      dup2\n      add\n      swap1\n      tag_12\n      swap2\n      swap1\n      tag_13\n      jump\t// in\n    tag_12:\n      tag_14\n      jump\t// in\n    tag_11:\n      stop\n        /* \"Arraydemo.sol\":364:458  function get_numbers () public view returns (uint [] memory) {\r... */\n    tag_5:\n      tag_15\n      tag_16\n      jump\t// in\n    tag_15:\n      mload(0x40)\n      tag_17\n      swap2\n      swap1\n      tag_18\n      jump\t// in\n    tag_17:\n      mload(0x40)\n      dup1\n      swap2\n      sub\n      swap1\n      return\n        /* \"Arraydemo.sol\":186:267  function add_numbers (uint number) public {\r... */\n    tag_6:\n      tag_19\n      0x04\n      dup1\n      calldatasize\n      sub\n      dup2\n      add\n      swap1\n      tag_20\n      swap2\n      swap1\n      tag_21\n      jump\t// in\n    tag_20:\n      tag_22\n      jump\t// in\n    tag_19:\n      stop\n        /* \"Arraydemo.sol\":464:556  function get_names () public view returns (string [] memory) {\r... */\n    tag_8:\n        /* \"Arraydemo.sol\":507:523  string [] memory */\n      0x60\n        /* \"Arraydemo.sol\":543:548  names */\n      0x01\n        /* \"Arraydemo.sol\":536:548  return names */\n      dup1\n      sload\n      dup1\n      0x20\n      mul\n      0x20\n      add\n      mload(0x40)\n      swap1\n      dup2\n      add\n      0x40\n      mstore\n      dup1\n      swap3\n      swap2\n      swap1\n      dup2\n      dup2\n      mstore\n      0x20\n      add\n      0x00\n      swap1\n    tag_24:\n      dup3\n      dup3\n      lt\n      iszero\n      tag_25\n      jumpi\n      dup4\n      dup3\n      swap1\n      0x00\n      mstore\n      keccak256(0x00, 0x20)\n      add\n      dup1\n      sload\n      tag_27\n      swap1\n      tag_28\n      jump\t// in\n    tag_27:\n      dup1\n      0x1f\n      add\n      0x20\n      dup1\n      swap2\n      div\n      mul\n      0x20\n      add\n      mload(0x40)\n      swap1\n      dup2\n      add\n      0x40\n      mstore\n      dup1\n      swap3\n      swap2\n      swap1\n      dup2\n      dup2\n      mstore\n      0x20\n      add\n      dup3\n      dup1\n      sload\n      tag_29\n      swap1\n      tag_28\n      jump\t// in\n    tag_29:\n      dup1\n      iszero\n      tag_30\n      jumpi\n      dup1\n      0x1f\n      lt\n      tag_31\n      jumpi\n      0x0100\n      dup1\n      dup4\n      sload\n      div\n      mul\n      dup4\n      mstore\n      swap2\n      0x20\n      add\n      swap2\n      jump(tag_30)\n    tag_31:\n      dup3\n      add\n      swap2\n      swap1\n      0x00\n      mstore\n      keccak256(0x00, 0x20)\n      swap1\n    tag_32:\n      dup2\n      sload\n      dup2\n      mstore\n      swap1\n      0x01\n      add\n      swap1\n      0x20\n      add\n      dup1\n      dup4\n      gt\n      tag_32\n      jumpi\n      dup3\n      swap1\n      sub\n      0x1f\n      and\n      dup3\n      add\n      swap2\n    tag_30:\n      pop\n      pop\n      pop\n      pop\n      pop\n      dup2\n      mstore\n      0x20\n      add\n      swap1\n      0x01\n      add\n      swap1\n      jump(tag_24)\n    tag_25:\n      pop\n      pop\n      pop\n      pop\n      swap1\n      pop\n        /* \"Arraydemo.sol\":464:556  function get_names () public view returns (string [] memory) {\r... */\n      swap1\n      jump\t// out\n        /* \"Arraydemo.sol\":275:356  function add_name (string memory name) public {\r... */\n    tag_14:\n        /* \"Arraydemo.sol\":332:337  names */\n      0x01\n        /* \"Arraydemo.sol\":343:347  name */\n      dup2\n        /* \"Arraydemo.sol\":332:348  names.push(name) */\n      swap1\n      dup1\n      0x01\n      dup2\n      sload\n      add\n      dup1\n      dup3\n      sstore\n      dup1\n      swap2\n      pop\n      pop\n      0x01\n      swap1\n      sub\n      swap1\n      0x00\n      mstore\n      keccak256(0x00, 0x20)\n      add\n      0x00\n      swap1\n      swap2\n      swap1\n      swap2\n      swap1\n      swap2\n      pop\n      swap1\n      dup1\n      mload\n      swap1\n      0x20\n      add\n      swap1\n      tag_35\n      swap3\n      swap2\n      swap1\n      tag_36\n      jump\t// in\n    tag_35:\n      pop\n        /* \"Arraydemo.sol\":275:356  function add_name (string memory name) public {\r... */\n      pop\n      jump\t// out\n        /* \"Arraydemo.sol\":364:458  function get_numbers () public view returns (uint [] memory) {\r... */\n    tag_16:\n        /* \"Arraydemo.sol\":409:423  uint [] memory */\n      0x60\n        /* \"Arraydemo.sol\":443:450  numbers */\n      0x00\n        /* \"Arraydemo.sol\":436:450  return numbers */\n      dup1\n      sload\n      dup1\n      0x20\n      mul\n      0x20\n      add\n      mload(0x40)\n      swap1\n      dup2\n      add\n      0x40\n      mstore\n      dup1\n      swap3\n      swap2\n      swap1\n      dup2\n      dup2\n      mstore\n      0x20\n      add\n      dup3\n      dup1\n      sload\n      dup1\n      iszero\n      tag_38\n      jumpi\n      0x20\n      mul\n      dup3\n      add\n      swap2\n      swap1\n      0x00\n      mstore\n      keccak256(0x00, 0x20)\n      swap1\n    tag_39:\n      dup2\n      sload\n      dup2\n      mstore\n      0x20\n      add\n      swap1\n      0x01\n      add\n      swap1\n      dup1\n      dup4\n      gt\n      tag_39\n      jumpi\n    tag_38:\n      pop\n      pop\n      pop\n      pop\n      pop\n      swap1\n      pop\n        /* \"Arraydemo.sol\":364:458  function get_numbers () public view returns (uint [] memory) {\r... */\n      swap1\n      jump\t// out\n        /* \"Arraydemo.sol\":186:267  function add_numbers (uint number) public {\r... */\n    tag_22:\n        /* \"Arraydemo.sol\":239:246  numbers */\n      0x00\n        /* \"Arraydemo.sol\":252:258  number */\n      dup2\n        /* \"Arraydemo.sol\":239:259  numbers.push(number) */\n      swap1\n      dup1\n      0x01\n      dup2\n      sload\n      add\n      dup1\n      dup3\n      sstore\n      dup1\n      swap2\n      pop\n      pop\n      0x01\n      swap1\n      sub\n      swap1\n      0x00\n      mstore\n      keccak256(0x00, 0x20)\n      add\n      0x00\n      swap1\n      swap2\n      swap1\n      swap2\n      swap1\n      swap2\n      pop\n      sstore\n        /* \"Arraydemo.sol\":186:267  function add_numbers (uint number) public {\r... */\n      pop\n      jump\t// out\n    tag_36:\n      dup3\n      dup1\n      sload\n      tag_42\n      swap1\n      tag_28\n      jump\t// in\n    tag_42:\n      swap1\n      0x00\n      mstore\n      keccak256(0x00, 0x20)\n      swap1\n      0x1f\n      add\n      0x20\n      swap1\n      div\n      dup2\n      add\n      swap3\n      dup3\n      tag_44\n      jumpi\n      0x00\n      dup6\n      sstore\n      jump(tag_43)\n    tag_44:\n      dup3\n      0x1f\n      lt\n      tag_45\n      jumpi\n      dup1\n      mload\n      not(0xff)\n      and\n      dup4\n      dup1\n      add\n      or\n      dup6\n      sstore\n      jump(tag_43)\n    tag_45:\n      dup3\n      dup1\n      add\n      0x01\n      add\n      dup6\n      sstore\n      dup3\n      iszero\n      tag_43\n      jumpi\n      swap2\n      dup3\n      add\n    tag_46:\n      dup3\n      dup2\n      gt\n      iszero\n      tag_47\n      jumpi\n      dup3\n      mload\n      dup3\n      sstore\n      swap2\n      0x20\n      add\n      swap2\n      swap1\n      0x01\n      add\n      swap1\n      jump(tag_46)\n    tag_47:\n    tag_43:\n      pop\n      swap1\n      pop\n      tag_48\n      swap2\n      swap1\n      tag_49\n      jump\t// in\n    tag_48:\n      pop\n      swap1\n      jump\t// out\n    tag_49:\n    tag_50:\n      dup1\n      dup3\n      gt\n      iszero\n      tag_51\n      jumpi\n      0x00\n      dup2\n      0x00\n      swap1\n      sstore\n      pop\n      0x01\n      add\n      jump(tag_50)\n    tag_51:\n      pop\n      swap1\n      jump\t// out\n        /* \"#utility.yul\":7:351   */\n    tag_53:\n      0x00\n        /* \"#utility.yul\":110:175   */\n      tag_55\n        /* \"#utility.yul\":125:174   */\n      tag_56\n        /* \"#utility.yul\":167:173   */\n      dup5\n        /* \"#utility.yul\":125:174   */\n      tag_57\n      jump\t// in\n    tag_56:\n        /* \"#utility.yul\":110:175   */\n      tag_58\n      jump\t// in\n    tag_55:\n        /* \"#utility.yul\":101:175   */\n      swap1\n      pop\n        /* \"#utility.yul\":198:204   */\n      dup3\n        /* \"#utility.yul\":191:196   */\n      dup2\n        /* \"#utility.yul\":184:205   */\n      mstore\n        /* \"#utility.yul\":236:240   */\n      0x20\n        /* \"#utility.yul\":229:234   */\n      dup2\n        /* \"#utility.yul\":225:241   */\n      add\n        /* \"#utility.yul\":274:277   */\n      dup5\n        /* \"#utility.yul\":265:271   */\n      dup5\n        /* \"#utility.yul\":260:263   */\n      dup5\n        /* \"#utility.yul\":256:272   */\n      add\n        /* \"#utility.yul\":253:278   */\n      gt\n        /* \"#utility.yul\":250:252   */\n      iszero\n      tag_59\n      jumpi\n        /* \"#utility.yul\":291:292   */\n      0x00\n        /* \"#utility.yul\":288:289   */\n      dup1\n        /* \"#utility.yul\":281:293   */\n      revert\n        /* \"#utility.yul\":250:252   */\n    tag_59:\n        /* \"#utility.yul\":304:345   */\n      tag_60\n        /* \"#utility.yul\":338:344   */\n      dup5\n        /* \"#utility.yul\":333:336   */\n      dup3\n        /* \"#utility.yul\":328:331   */\n      dup6\n        /* \"#utility.yul\":304:345   */\n      tag_61\n      jump\t// in\n    tag_60:\n        /* \"#utility.yul\":91:351   */\n      pop\n      swap4\n      swap3\n      pop\n      pop\n      pop\n      jump\t// out\n        /* \"#utility.yul\":371:644   */\n    tag_62:\n      0x00\n        /* \"#utility.yul\":476:479   */\n      dup3\n        /* \"#utility.yul\":469:473   */\n      0x1f\n        /* \"#utility.yul\":461:467   */\n      dup4\n        /* \"#utility.yul\":457:474   */\n      add\n        /* \"#utility.yul\":453:480   */\n      slt\n        /* \"#utility.yul\":443:445   */\n      tag_64\n      jumpi\n        /* \"#utility.yul\":494:495   */\n      0x00\n        /* \"#utility.yul\":491:492   */\n      dup1\n        /* \"#utility.yul\":484:496   */\n      revert\n        /* \"#utility.yul\":443:445   */\n    tag_64:\n        /* \"#utility.yul\":534:540   */\n      dup2\n        /* \"#utility.yul\":521:541   */\n      calldataload\n        /* \"#utility.yul\":559:638   */\n      tag_65\n        /* \"#utility.yul\":634:637   */\n      dup5\n        /* \"#utility.yul\":626:632   */\n      dup3\n        /* \"#utility.yul\":619:623   */\n      0x20\n        /* \"#utility.yul\":611:617   */\n      dup7\n        /* \"#utility.yul\":607:624   */\n      add\n        /* \"#utility.yul\":559:638   */\n      tag_53\n      jump\t// in\n    tag_65:\n        /* \"#utility.yul\":550:638   */\n      swap2\n      pop\n        /* \"#utility.yul\":433:644   */\n      pop\n      swap3\n      swap2\n      pop\n      pop\n      jump\t// out\n        /* \"#utility.yul\":650:789   */\n    tag_66:\n      0x00\n        /* \"#utility.yul\":734:740   */\n      dup2\n        /* \"#utility.yul\":721:741   */\n      calldataload\n        /* \"#utility.yul\":712:741   */\n      swap1\n      pop\n        /* \"#utility.yul\":750:783   */\n      tag_68\n        /* \"#utility.yul\":777:782   */\n      dup2\n        /* \"#utility.yul\":750:783   */\n      tag_69\n      jump\t// in\n    tag_68:\n        /* \"#utility.yul\":702:789   */\n      swap3\n      swap2\n      pop\n      pop\n      jump\t// out\n        /* \"#utility.yul\":795:1170   */\n    tag_13:\n      0x00\n        /* \"#utility.yul\":913:915   */\n      0x20\n        /* \"#utility.yul\":901:910   */\n      dup3\n        /* \"#utility.yul\":892:899   */\n      dup5\n        /* \"#utility.yul\":888:911   */\n      sub\n        /* \"#utility.yul\":884:916   */\n      slt\n        /* \"#utility.yul\":881:883   */\n      iszero\n      tag_71\n      jumpi\n        /* \"#utility.yul\":929:930   */\n      0x00\n        /* \"#utility.yul\":926:927   */\n      dup1\n        /* \"#utility.yul\":919:931   */\n      revert\n        /* \"#utility.yul\":881:883   */\n    tag_71:\n        /* \"#utility.yul\":1000:1001   */\n      0x00\n        /* \"#utility.yul\":989:998   */\n      dup3\n        /* \"#utility.yul\":985:1002   */\n      add\n        /* \"#utility.yul\":972:1003   */\n      calldataload\n        /* \"#utility.yul\":1030:1048   */\n      0xffffffffffffffff\n        /* \"#utility.yul\":1022:1028   */\n      dup2\n        /* \"#utility.yul\":1019:1049   */\n      gt\n        /* \"#utility.yul\":1016:1018   */\n      iszero\n      tag_72\n      jumpi\n        /* \"#utility.yul\":1062:1063   */\n      0x00\n        /* \"#utility.yul\":1059:1060   */\n      dup1\n        /* \"#utility.yul\":1052:1064   */\n      revert\n        /* \"#utility.yul\":1016:1018   */\n    tag_72:\n        /* \"#utility.yul\":1090:1153   */\n      tag_73\n        /* \"#utility.yul\":1145:1152   */\n      dup5\n        /* \"#utility.yul\":1136:1142   */\n      dup3\n        /* \"#utility.yul\":1125:1134   */\n      dup6\n        /* \"#utility.yul\":1121:1143   */\n      add\n        /* \"#utility.yul\":1090:1153   */\n      tag_62\n      jump\t// in\n    tag_73:\n        /* \"#utility.yul\":1080:1153   */\n      swap2\n      pop\n        /* \"#utility.yul\":943:1163   */\n      pop\n        /* \"#utility.yul\":871:1170   */\n      swap3\n      swap2\n      pop\n      pop\n      jump\t// out\n        /* \"#utility.yul\":1176:1438   */\n    tag_21:\n      0x00\n        /* \"#utility.yul\":1284:1286   */\n      0x20\n        /* \"#utility.yul\":1272:1281   */\n      dup3\n        /* \"#utility.yul\":1263:1270   */\n      dup5\n        /* \"#utility.yul\":1259:1282   */\n      sub\n        /* \"#utility.yul\":1255:1287   */\n      slt\n        /* \"#utility.yul\":1252:1254   */\n      iszero\n      tag_75\n      jumpi\n        /* \"#utility.yul\":1300:1301   */\n      0x00\n        /* \"#utility.yul\":1297:1298   */\n      dup1\n        /* \"#utility.yul\":1290:1302   */\n      revert\n        /* \"#utility.yul\":1252:1254   */\n    tag_75:\n        /* \"#utility.yul\":1343:1344   */\n      0x00\n        /* \"#utility.yul\":1368:1421   */\n      tag_76\n        /* \"#utility.yul\":1413:1420   */\n      dup5\n        /* \"#utility.yul\":1404:1410   */\n      dup3\n        /* \"#utility.yul\":1393:1402   */\n      dup6\n        /* \"#utility.yul\":1389:1411   */\n      add\n        /* \"#utility.yul\":1368:1421   */\n      tag_66\n      jump\t// in\n    tag_76:\n        /* \"#utility.yul\":1358:1421   */\n      swap2\n      pop\n        /* \"#utility.yul\":1314:1431   */\n      pop\n        /* \"#utility.yul\":1242:1438   */\n      swap3\n      swap2\n      pop\n      pop\n      jump\t// out\n        /* \"#utility.yul\":1444:1640   */\n    tag_77:\n      0x00\n        /* \"#utility.yul\":1568:1634   */\n      tag_79\n        /* \"#utility.yul\":1630:1633   */\n      dup4\n        /* \"#utility.yul\":1622:1628   */\n      dup4\n        /* \"#utility.yul\":1568:1634   */\n      tag_80\n      jump\t// in\n    tag_79:\n        /* \"#utility.yul\":1554:1634   */\n      swap1\n      pop\n        /* \"#utility.yul\":1544:1640   */\n      swap3\n      swap2\n      pop\n      pop\n      jump\t// out\n        /* \"#utility.yul\":1646:1825   */\n    tag_81:\n      0x00\n        /* \"#utility.yul\":1736:1782   */\n      tag_83\n        /* \"#utility.yul\":1778:1781   */\n      dup4\n        /* \"#utility.yul\":1770:1776   */\n      dup4\n        /* \"#utility.yul\":1736:1782   */\n      tag_84\n      jump\t// in\n    tag_83:\n        /* \"#utility.yul\":1814:1818   */\n      0x20\n        /* \"#utility.yul\":1809:1812   */\n      dup4\n        /* \"#utility.yul\":1805:1819   */\n      add\n        /* \"#utility.yul\":1791:1819   */\n      swap1\n      pop\n        /* \"#utility.yul\":1726:1825   */\n      swap3\n      swap2\n      pop\n      pop\n      jump\t// out\n        /* \"#utility.yul\":1859:2850   */\n    tag_85:\n      0x00\n        /* \"#utility.yul\":2027:2091   */\n      tag_87\n        /* \"#utility.yul\":2085:2090   */\n      dup3\n        /* \"#utility.yul\":2027:2091   */\n      tag_88\n      jump\t// in\n    tag_87:\n        /* \"#utility.yul\":2107:2203   */\n      tag_89\n        /* \"#utility.yul\":2196:2202   */\n      dup2\n        /* \"#utility.yul\":2191:2194   */\n      dup6\n        /* \"#utility.yul\":2107:2203   */\n      tag_90\n      jump\t// in\n    tag_89:\n        /* \"#utility.yul\":2100:2203   */\n      swap4\n      pop\n        /* \"#utility.yul\":2229:2232   */\n      dup4\n        /* \"#utility.yul\":2274:2278   */\n      0x20\n        /* \"#utility.yul\":2266:2272   */\n      dup3\n        /* \"#utility.yul\":2262:2279   */\n      mul\n        /* \"#utility.yul\":2257:2260   */\n      dup6\n        /* \"#utility.yul\":2253:2280   */\n      add\n        /* \"#utility.yul\":2304:2370   */\n      tag_91\n        /* \"#utility.yul\":2364:2369   */\n      dup6\n        /* \"#utility.yul\":2304:2370   */\n      tag_92\n      jump\t// in\n    tag_91:\n        /* \"#utility.yul\":2393:2400   */\n      dup1\n        /* \"#utility.yul\":2424:2425   */\n      0x00\n        /* \"#utility.yul\":2409:2805   */\n    tag_93:\n        /* \"#utility.yul\":2434:2440   */\n      dup6\n        /* \"#utility.yul\":2431:2432   */\n      dup2\n        /* \"#utility.yul\":2428:2441   */\n      lt\n        /* \"#utility.yul\":2409:2805   */\n      iszero\n      tag_95\n      jumpi\n        /* \"#utility.yul\":2505:2514   */\n      dup5\n        /* \"#utility.yul\":2499:2503   */\n      dup5\n        /* \"#utility.yul\":2495:2515   */\n      sub\n        /* \"#utility.yul\":2490:2493   */\n      dup10\n        /* \"#utility.yul\":2483:2516   */\n      mstore\n        /* \"#utility.yul\":2556:2562   */\n      dup2\n        /* \"#utility.yul\":2550:2563   */\n      mload\n        /* \"#utility.yul\":2584:2668   */\n      tag_96\n        /* \"#utility.yul\":2663:2667   */\n      dup6\n        /* \"#utility.yul\":2648:2661   */\n      dup3\n        /* \"#utility.yul\":2584:2668   */\n      tag_77\n      jump\t// in\n    tag_96:\n        /* \"#utility.yul\":2576:2668   */\n      swap5\n      pop\n        /* \"#utility.yul\":2691:2761   */\n      tag_97\n        /* \"#utility.yul\":2754:2760   */\n      dup4\n        /* \"#utility.yul\":2691:2761   */\n      tag_98\n      jump\t// in\n    tag_97:\n        /* \"#utility.yul\":2681:2761   */\n      swap3\n      pop\n        /* \"#utility.yul\":2790:2794   */\n      0x20\n        /* \"#utility.yul\":2785:2788   */\n      dup11\n        /* \"#utility.yul\":2781:2795   */\n      add\n        /* \"#utility.yul\":2774:2795   */\n      swap10\n      pop\n        /* \"#utility.yul\":2469:2805   */\n      pop\n        /* \"#utility.yul\":2456:2457   */\n      0x01\n        /* \"#utility.yul\":2453:2454   */\n      dup2\n        /* \"#utility.yul\":2449:2458   */\n      add\n        /* \"#utility.yul\":2444:2458   */\n      swap1\n      pop\n        /* \"#utility.yul\":2409:2805   */\n      jump(tag_93)\n    tag_95:\n        /* \"#utility.yul\":2413:2427   */\n      pop\n        /* \"#utility.yul\":2821:2825   */\n      dup3\n        /* \"#utility.yul\":2814:2825   */\n      swap8\n      pop\n        /* \"#utility.yul\":2841:2844   */\n      dup8\n        /* \"#utility.yul\":2834:2844   */\n      swap6\n      pop\n        /* \"#utility.yul\":2003:2850   */\n      pop\n      pop\n      pop\n      pop\n      pop\n      swap3\n      swap2\n      pop\n      pop\n      jump\t// out\n        /* \"#utility.yul\":2886:3618   */\n    tag_99:\n      0x00\n        /* \"#utility.yul\":3034:3088   */\n      tag_101\n        /* \"#utility.yul\":3082:3087   */\n      dup3\n        /* \"#utility.yul\":3034:3088   */\n      tag_102\n      jump\t// in\n    tag_101:\n        /* \"#utility.yul\":3104:3190   */\n      tag_103\n        /* \"#utility.yul\":3183:3189   */\n      dup2\n        /* \"#utility.yul\":3178:3181   */\n      dup6\n        /* \"#utility.yul\":3104:3190   */\n      tag_104\n      jump\t// in\n    tag_103:\n        /* \"#utility.yul\":3097:3190   */\n      swap4\n      pop\n        /* \"#utility.yul\":3214:3270   */\n      tag_105\n        /* \"#utility.yul\":3264:3269   */\n      dup4\n        /* \"#utility.yul\":3214:3270   */\n      tag_106\n      jump\t// in\n    tag_105:\n        /* \"#utility.yul\":3293:3300   */\n      dup1\n        /* \"#utility.yul\":3324:3325   */\n      0x00\n        /* \"#utility.yul\":3309:3593   */\n    tag_107:\n        /* \"#utility.yul\":3334:3340   */\n      dup4\n        /* \"#utility.yul\":3331:3332   */\n      dup2\n        /* \"#utility.yul\":3328:3341   */\n      lt\n        /* \"#utility.yul\":3309:3593   */\n      iszero\n      tag_109\n      jumpi\n        /* \"#utility.yul\":3410:3416   */\n      dup2\n        /* \"#utility.yul\":3404:3417   */\n      mload\n        /* \"#utility.yul\":3437:3500   */\n      tag_110\n        /* \"#utility.yul\":3496:3499   */\n      dup9\n        /* \"#utility.yul\":3481:3494   */\n      dup3\n        /* \"#utility.yul\":3437:3500   */\n      tag_81\n      jump\t// in\n    tag_110:\n        /* \"#utility.yul\":3430:3500   */\n      swap8\n      pop\n        /* \"#utility.yul\":3523:3583   */\n      tag_111\n        /* \"#utility.yul\":3576:3582   */\n      dup4\n        /* \"#utility.yul\":3523:3583   */\n      tag_112\n      jump\t// in\n    tag_111:\n        /* \"#utility.yul\":3513:3583   */\n      swap3\n      pop\n        /* \"#utility.yul\":3369:3593   */\n      pop\n        /* \"#utility.yul\":3356:3357   */\n      0x01\n        /* \"#utility.yul\":3353:3354   */\n      dup2\n        /* \"#utility.yul\":3349:3358   */\n      add\n        /* \"#utility.yul\":3344:3358   */\n      swap1\n      pop\n        /* \"#utility.yul\":3309:3593   */\n      jump(tag_107)\n    tag_109:\n        /* \"#utility.yul\":3313:3327   */\n      pop\n        /* \"#utility.yul\":3609:3612   */\n      dup6\n        /* \"#utility.yul\":3602:3612   */\n      swap4\n      pop\n        /* \"#utility.yul\":3010:3618   */\n      pop\n      pop\n      pop\n      swap3\n      swap2\n      pop\n      pop\n      jump\t// out\n        /* \"#utility.yul\":3624:3968   */\n    tag_80:\n      0x00\n        /* \"#utility.yul\":3730:3769   */\n      tag_114\n        /* \"#utility.yul\":3763:3768   */\n      dup3\n        /* \"#utility.yul\":3730:3769   */\n      tag_115\n      jump\t// in\n    tag_114:\n        /* \"#utility.yul\":3785:3846   */\n      tag_116\n        /* \"#utility.yul\":3839:3845   */\n      dup2\n        /* \"#utility.yul\":3834:3837   */\n      dup6\n        /* \"#utility.yul\":3785:3846   */\n      tag_117\n      jump\t// in\n    tag_116:\n        /* \"#utility.yul\":3778:3846   */\n      swap4\n      pop\n        /* \"#utility.yul\":3855:3907   */\n      tag_118\n        /* \"#utility.yul\":3900:3906   */\n      dup2\n        /* \"#utility.yul\":3895:3898   */\n      dup6\n        /* \"#utility.yul\":3888:3892   */\n      0x20\n        /* \"#utility.yul\":3881:3886   */\n      dup7\n        /* \"#utility.yul\":3877:3893   */\n      add\n        /* \"#utility.yul\":3855:3907   */\n      tag_119\n      jump\t// in\n    tag_118:\n        /* \"#utility.yul\":3932:3961   */\n      tag_120\n        /* \"#utility.yul\":3954:3960   */\n      dup2\n        /* \"#utility.yul\":3932:3961   */\n      tag_121\n      jump\t// in\n    tag_120:\n        /* \"#utility.yul\":3927:3930   */\n      dup5\n        /* \"#utility.yul\":3923:3962   */\n      add\n        /* \"#utility.yul\":3916:3962   */\n      swap2\n      pop\n        /* \"#utility.yul\":3706:3968   */\n      pop\n      swap3\n      swap2\n      pop\n      pop\n      jump\t// out\n        /* \"#utility.yul\":3974:4082   */\n    tag_84:\n        /* \"#utility.yul\":4051:4075   */\n      tag_123\n        /* \"#utility.yul\":4069:4074   */\n      dup2\n        /* \"#utility.yul\":4051:4075   */\n      tag_124\n      jump\t// in\n    tag_123:\n        /* \"#utility.yul\":4046:4049   */\n      dup3\n        /* \"#utility.yul\":4039:4076   */\n      mstore\n        /* \"#utility.yul\":4029:4082   */\n      pop\n      pop\n      jump\t// out\n        /* \"#utility.yul\":4088:4501   */\n    tag_10:\n      0x00\n        /* \"#utility.yul\":4289:4291   */\n      0x20\n        /* \"#utility.yul\":4278:4287   */\n      dup3\n        /* \"#utility.yul\":4274:4292   */\n      add\n        /* \"#utility.yul\":4266:4292   */\n      swap1\n      pop\n        /* \"#utility.yul\":4338:4347   */\n      dup2\n        /* \"#utility.yul\":4332:4336   */\n      dup2\n        /* \"#utility.yul\":4328:4348   */\n      sub\n        /* \"#utility.yul\":4324:4325   */\n      0x00\n        /* \"#utility.yul\":4313:4322   */\n      dup4\n        /* \"#utility.yul\":4309:4326   */\n      add\n        /* \"#utility.yul\":4302:4349   */\n      mstore\n        /* \"#utility.yul\":4366:4494   */\n      tag_126\n        /* \"#utility.yul\":4489:4493   */\n      dup2\n        /* \"#utility.yul\":4480:4486   */\n      dup5\n        /* \"#utility.yul\":4366:4494   */\n      tag_85\n      jump\t// in\n    tag_126:\n        /* \"#utility.yul\":4358:4494   */\n      swap1\n      pop\n        /* \"#utility.yul\":4256:4501   */\n      swap3\n      swap2\n      pop\n      pop\n      jump\t// out\n        /* \"#utility.yul\":4507:4880   */\n    tag_18:\n      0x00\n        /* \"#utility.yul\":4688:4690   */\n      0x20\n        /* \"#utility.yul\":4677:4686   */\n      dup3\n        /* \"#utility.yul\":4673:4691   */\n      add\n        /* \"#utility.yul\":4665:4691   */\n      swap1\n      pop\n        /* \"#utility.yul\":4737:4746   */\n      dup2\n        /* \"#utility.yul\":4731:4735   */\n      dup2\n        /* \"#utility.yul\":4727:4747   */\n      sub\n        /* \"#utility.yul\":4723:4724   */\n      0x00\n        /* \"#utility.yul\":4712:4721   */\n      dup4\n        /* \"#utility.yul\":4708:4725   */\n      add\n        /* \"#utility.yul\":4701:4748   */\n      mstore\n        /* \"#utility.yul\":4765:4873   */\n      tag_128\n        /* \"#utility.yul\":4868:4872   */\n      dup2\n        /* \"#utility.yul\":4859:4865   */\n      dup5\n        /* \"#utility.yul\":4765:4873   */\n      tag_99\n      jump\t// in\n    tag_128:\n        /* \"#utility.yul\":4757:4873   */\n      swap1\n      pop\n        /* \"#utility.yul\":4655:4880   */\n      swap3\n      swap2\n      pop\n      pop\n      jump\t// out\n        /* \"#utility.yul\":4886:5169   */\n    tag_58:\n      0x00\n        /* \"#utility.yul\":4952:4954   */\n      0x40\n        /* \"#utility.yul\":4946:4955   */\n      mload\n        /* \"#utility.yul\":4936:4955   */\n      swap1\n      pop\n        /* \"#utility.yul\":4994:4998   */\n      dup2\n        /* \"#utility.yul\":4986:4992   */\n      dup2\n        /* \"#utility.yul\":4982:4999   */\n      add\n        /* \"#utility.yul\":5101:5107   */\n      dup2\n        /* \"#utility.yul\":5089:5099   */\n      dup2\n        /* \"#utility.yul\":5086:5108   */\n      lt\n        /* \"#utility.yul\":5065:5083   */\n      0xffffffffffffffff\n        /* \"#utility.yul\":5053:5063   */\n      dup3\n        /* \"#utility.yul\":5050:5084   */\n      gt\n        /* \"#utility.yul\":5047:5109   */\n      or\n        /* \"#utility.yul\":5044:5046   */\n      iszero\n      tag_130\n      jumpi\n        /* \"#utility.yul\":5112:5130   */\n      tag_131\n      tag_132\n      jump\t// in\n    tag_131:\n        /* \"#utility.yul\":5044:5046   */\n    tag_130:\n        /* \"#utility.yul\":5152:5162   */\n      dup1\n        /* \"#utility.yul\":5148:5150   */\n      0x40\n        /* \"#utility.yul\":5141:5163   */\n      mstore\n        /* \"#utility.yul\":4926:5169   */\n      pop\n      swap2\n      swap1\n      pop\n      jump\t// out\n        /* \"#utility.yul\":5175:5507   */\n    tag_57:\n      0x00\n        /* \"#utility.yul\":5327:5345   */\n      0xffffffffffffffff\n        /* \"#utility.yul\":5319:5325   */\n      dup3\n        /* \"#utility.yul\":5316:5346   */\n      gt\n        /* \"#utility.yul\":5313:5315   */\n      iszero\n      tag_134\n      jumpi\n        /* \"#utility.yul\":5349:5367   */\n      tag_135\n      tag_132\n      jump\t// in\n    tag_135:\n        /* \"#utility.yul\":5313:5315   */\n    tag_134:\n        /* \"#utility.yul\":5434:5438   */\n      0x1f\n        /* \"#utility.yul\":5430:5439   */\n      not\n        /* \"#utility.yul\":5423:5427   */\n      0x1f\n        /* \"#utility.yul\":5415:5421   */\n      dup4\n        /* \"#utility.yul\":5411:5428   */\n      add\n        /* \"#utility.yul\":5407:5440   */\n      and\n        /* \"#utility.yul\":5399:5440   */\n      swap1\n      pop\n        /* \"#utility.yul\":5495:5499   */\n      0x20\n        /* \"#utility.yul\":5489:5493   */\n      dup2\n        /* \"#utility.yul\":5485:5500   */\n      add\n        /* \"#utility.yul\":5477:5500   */\n      swap1\n      pop\n        /* \"#utility.yul\":5242:5507   */\n      swap2\n      swap1\n      pop\n      jump\t// out\n        /* \"#utility.yul\":5513:5655   */\n    tag_92:\n      0x00\n        /* \"#utility.yul\":5613:5616   */\n      dup2\n        /* \"#utility.yul\":5605:5616   */\n      swap1\n      pop\n        /* \"#utility.yul\":5643:5647   */\n      0x20\n        /* \"#utility.yul\":5638:5641   */\n      dup3\n        /* \"#utility.yul\":5634:5648   */\n      add\n        /* \"#utility.yul\":5626:5648   */\n      swap1\n      pop\n        /* \"#utility.yul\":5595:5655   */\n      swap2\n      swap1\n      pop\n      jump\t// out\n        /* \"#utility.yul\":5661:5793   */\n    tag_106:\n      0x00\n        /* \"#utility.yul\":5751:5754   */\n      dup2\n        /* \"#utility.yul\":5743:5754   */\n      swap1\n      pop\n        /* \"#utility.yul\":5781:5785   */\n      0x20\n        /* \"#utility.yul\":5776:5779   */\n      dup3\n        /* \"#utility.yul\":5772:5786   */\n      add\n        /* \"#utility.yul\":5764:5786   */\n      swap1\n      pop\n        /* \"#utility.yul\":5733:5793   */\n      swap2\n      swap1\n      pop\n      jump\t// out\n        /* \"#utility.yul\":5799:5923   */\n    tag_88:\n      0x00\n        /* \"#utility.yul\":5910:5915   */\n      dup2\n        /* \"#utility.yul\":5904:5916   */\n      mload\n        /* \"#utility.yul\":5894:5916   */\n      swap1\n      pop\n        /* \"#utility.yul\":5883:5923   */\n      swap2\n      swap1\n      pop\n      jump\t// out\n        /* \"#utility.yul\":5929:6043   */\n    tag_102:\n      0x00\n        /* \"#utility.yul\":6030:6035   */\n      dup2\n        /* \"#utility.yul\":6024:6036   */\n      mload\n        /* \"#utility.yul\":6014:6036   */\n      swap1\n      pop\n        /* \"#utility.yul\":6003:6043   */\n      swap2\n      swap1\n      pop\n      jump\t// out\n        /* \"#utility.yul\":6049:6148   */\n    tag_115:\n      0x00\n        /* \"#utility.yul\":6135:6140   */\n      dup2\n        /* \"#utility.yul\":6129:6141   */\n      mload\n        /* \"#utility.yul\":6119:6141   */\n      swap1\n      pop\n        /* \"#utility.yul\":6108:6148   */\n      swap2\n      swap1\n      pop\n      jump\t// out\n        /* \"#utility.yul\":6154:6277   */\n    tag_98:\n      0x00\n        /* \"#utility.yul\":6266:6270   */\n      0x20\n        /* \"#utility.yul\":6261:6264   */\n      dup3\n        /* \"#utility.yul\":6257:6271   */\n      add\n        /* \"#utility.yul\":6249:6271   */\n      swap1\n      pop\n        /* \"#utility.yul\":6239:6277   */\n      swap2\n      swap1\n      pop\n      jump\t// out\n        /* \"#utility.yul\":6283:6396   */\n    tag_112:\n      0x00\n        /* \"#utility.yul\":6385:6389   */\n      0x20\n        /* \"#utility.yul\":6380:6383   */\n      dup3\n        /* \"#utility.yul\":6376:6390   */\n      add\n        /* \"#utility.yul\":6368:6390   */\n      swap1\n      pop\n        /* \"#utility.yul\":6358:6396   */\n      swap2\n      swap1\n      pop\n      jump\t// out\n        /* \"#utility.yul\":6402:6596   */\n    tag_90:\n      0x00\n        /* \"#utility.yul\":6545:6551   */\n      dup3\n        /* \"#utility.yul\":6540:6543   */\n      dup3\n        /* \"#utility.yul\":6533:6552   */\n      mstore\n        /* \"#utility.yul\":6585:6589   */\n      0x20\n        /* \"#utility.yul\":6580:6583   */\n      dup3\n        /* \"#utility.yul\":6576:6590   */\n      add\n        /* \"#utility.yul\":6561:6590   */\n      swap1\n      pop\n        /* \"#utility.yul\":6523:6596   */\n      swap3\n      swap2\n      pop\n      pop\n      jump\t// out\n        /* \"#utility.yul\":6602:6786   */\n    tag_104:\n      0x00\n        /* \"#utility.yul\":6735:6741   */\n      dup3\n        /* \"#utility.yul\":6730:6733   */\n      dup3\n        /* \"#utility.yul\":6723:6742   */\n      mstore\n        /* \"#utility.yul\":6775:6779   */\n      0x20\n        /* \"#utility.yul\":6770:6773   */\n      dup3\n        /* \"#utility.yul\":6766:6780   */\n      add\n        /* \"#utility.yul\":6751:6780   */\n      swap1\n      pop\n        /* \"#utility.yul\":6713:6786   */\n      swap3\n      swap2\n      pop\n      pop\n      jump\t// out\n        /* \"#utility.yul\":6792:6951   */\n    tag_117:\n      0x00\n        /* \"#utility.yul\":6900:6906   */\n      dup3\n        /* \"#utility.yul\":6895:6898   */\n      dup3\n        /* \"#utility.yul\":6888:6907   */\n      mstore\n        /* \"#utility.yul\":6940:6944   */\n      0x20\n        /* \"#utility.yul\":6935:6938   */\n      dup3\n        /* \"#utility.yul\":6931:6945   */\n      add\n        /* \"#utility.yul\":6916:6945   */\n      swap1\n      pop\n        /* \"#utility.yul\":6878:6951   */\n      swap3\n      swap2\n      pop\n      pop\n      jump\t// out\n        /* \"#utility.yul\":6957:7034   */\n    tag_124:\n      0x00\n        /* \"#utility.yul\":7023:7028   */\n      dup2\n        /* \"#utility.yul\":7012:7028   */\n      swap1\n      pop\n        /* \"#utility.yul\":7002:7034   */\n      swap2\n      swap1\n      pop\n      jump\t// out\n        /* \"#utility.yul\":7040:7194   */\n    tag_61:\n        /* \"#utility.yul\":7124:7130   */\n      dup3\n        /* \"#utility.yul\":7119:7122   */\n      dup2\n        /* \"#utility.yul\":7114:7117   */\n      dup4\n        /* \"#utility.yul\":7101:7131   */\n      calldatacopy\n        /* \"#utility.yul\":7186:7187   */\n      0x00\n        /* \"#utility.yul\":7177:7183   */\n      dup4\n        /* \"#utility.yul\":7172:7175   */\n      dup4\n        /* \"#utility.yul\":7168:7184   */\n      add\n        /* \"#utility.yul\":7161:7188   */\n      mstore\n        /* \"#utility.yul\":7091:7194   */\n      pop\n      pop\n      pop\n      jump\t// out\n        /* \"#utility.yul\":7200:7507   */\n    tag_119:\n        /* \"#utility.yul\":7268:7269   */\n      0x00\n        /* \"#utility.yul\":7278:7391   */\n    tag_149:\n        /* \"#utility.yul\":7292:7298   */\n      dup4\n        /* \"#utility.yul\":7289:7290   */\n      dup2\n        /* \"#utility.yul\":7286:7299   */\n      lt\n        /* \"#utility.yul\":7278:7391   */\n      iszero\n      tag_151\n      jumpi\n        /* \"#utility.yul\":7377:7378   */\n      dup1\n        /* \"#utility.yul\":7372:7375   */\n      dup3\n        /* \"#utility.yul\":7368:7379   */\n      add\n        /* \"#utility.yul\":7362:7380   */\n      mload\n        /* \"#utility.yul\":7358:7359   */\n      dup2\n        /* \"#utility.yul\":7353:7356   */\n      dup5\n        /* \"#utility.yul\":7349:7360   */\n      add\n        /* \"#utility.yul\":7342:7381   */\n      mstore\n        /* \"#utility.yul\":7314:7316   */\n      0x20\n        /* \"#utility.yul\":7311:7312   */\n      dup2\n        /* \"#utility.yul\":7307:7317   */\n      add\n        /* \"#utility.yul\":7302:7317   */\n      swap1\n      pop\n        /* \"#utility.yul\":7278:7391   */\n      jump(tag_149)\n    tag_151:\n        /* \"#utility.yul\":7409:7415   */\n      dup4\n        /* \"#utility.yul\":7406:7407   */\n      dup2\n        /* \"#utility.yul\":7403:7416   */\n      gt\n        /* \"#utility.yul\":7400:7402   */\n      iszero\n      tag_152\n      jumpi\n        /* \"#utility.yul\":7489:7490   */\n      0x00\n        /* \"#utility.yul\":7480:7486   */\n      dup5\n        /* \"#utility.yul\":7475:7478   */\n      dup5\n        /* \"#utility.yul\":7471:7487   */\n      add\n        /* \"#utility.yul\":7464:7491   */\n      mstore\n        /* \"#utility.yul\":7400:7402   */\n    tag_152:\n        /* \"#utility.yul\":7249:7507   */\n      pop\n      pop\n      pop\n      pop\n      jump\t// out\n        /* \"#utility.yul\":7513:7833   */\n    tag_28:\n      0x00\n        /* \"#utility.yul\":7594:7595   */\n      0x02\n        /* \"#utility.yul\":7588:7592   */\n      dup3\n        /* \"#utility.yul\":7584:7596   */\n      div\n        /* \"#utility.yul\":7574:7596   */\n      swap1\n      pop\n        /* \"#utility.yul\":7641:7642   */\n      0x01\n        /* \"#utility.yul\":7635:7639   */\n      dup3\n        /* \"#utility.yul\":7631:7643   */\n      and\n        /* \"#utility.yul\":7662:7680   */\n      dup1\n        /* \"#utility.yul\":7652:7654   */\n      tag_154\n      jumpi\n        /* \"#utility.yul\":7718:7722   */\n      0x7f\n        /* \"#utility.yul\":7710:7716   */\n      dup3\n        /* \"#utility.yul\":7706:7723   */\n      and\n        /* \"#utility.yul\":7696:7723   */\n      swap2\n      pop\n        /* \"#utility.yul\":7652:7654   */\n    tag_154:\n        /* \"#utility.yul\":7780:7782   */\n      0x20\n        /* \"#utility.yul\":7772:7778   */\n      dup3\n        /* \"#utility.yul\":7769:7783   */\n      lt\n        /* \"#utility.yul\":7749:7767   */\n      dup2\n        /* \"#utility.yul\":7746:7784   */\n      eq\n        /* \"#utility.yul\":7743:7745   */\n      iszero\n      tag_155\n      jumpi\n        /* \"#utility.yul\":7799:7817   */\n      tag_156\n      tag_157\n      jump\t// in\n    tag_156:\n        /* \"#utility.yul\":7743:7745   */\n    tag_155:\n        /* \"#utility.yul\":7564:7833   */\n      pop\n      swap2\n      swap1\n      pop\n      jump\t// out\n        /* \"#utility.yul\":7839:8019   */\n    tag_157:\n        /* \"#utility.yul\":7887:7964   */\n      0x4e487b7100000000000000000000000000000000000000000000000000000000\n        /* \"#utility.yul\":7884:7885   */\n      0x00\n        /* \"#utility.yul\":7877:7965   */\n      mstore\n        /* \"#utility.yul\":7984:7988   */\n      0x22\n        /* \"#utility.yul\":7981:7982   */\n      0x04\n        /* \"#utility.yul\":7974:7989   */\n      mstore\n        /* \"#utility.yul\":8008:8012   */\n      0x24\n        /* \"#utility.yul\":8005:8006   */\n      0x00\n        /* \"#utility.yul\":7998:8013   */\n      revert\n        /* \"#utility.yul\":8025:8205   */\n    tag_132:\n        /* \"#utility.yul\":8073:8150   */\n      0x4e487b7100000000000000000000000000000000000000000000000000000000\n        /* \"#utility.yul\":8070:8071   */\n      0x00\n        /* \"#utility.yul\":8063:8151   */\n      mstore\n        /* \"#utility.yul\":8170:8174   */\n      0x41\n        /* \"#utility.yul\":8167:8168   */\n      0x04\n        /* \"#utility.yul\":8160:8175   */\n      mstore\n        /* \"#utility.yul\":8194:8198   */\n      0x24\n        /* \"#utility.yul\":8191:8192   */\n      0x00\n        /* \"#utility.yul\":8184:8199   */\n      revert\n        /* \"#utility.yul\":8211:8313   */\n    tag_121:\n      0x00\n        /* \"#utility.yul\":8303:8305   */\n      0x1f\n        /* \"#utility.yul\":8299:8306   */\n      not\n        /* \"#utility.yul\":8294:8296   */\n      0x1f\n        /* \"#utility.yul\":8287:8292   */\n      dup4\n        /* \"#utility.yul\":8283:8297   */\n      add\n        /* \"#utility.yul\":8279:8307   */\n      and\n        /* \"#utility.yul\":8269:8307   */\n      swap1\n      pop\n        /* \"#utility.yul\":8259:8313   */\n      swap2\n      swap1\n      pop\n      jump\t// out\n        /* \"#utility.yul\":8319:8441   */\n    tag_69:\n        /* \"#utility.yul\":8392:8416   */\n      tag_162\n        /* \"#utility.yul\":8410:8415   */\n      dup2\n        /* \"#utility.yul\":8392:8416   */\n      tag_124\n      jump\t// in\n    tag_162:\n        /* \"#utility.yul\":8385:8390   */\n      dup2\n        /* \"#utility.yul\":8382:8417   */\n      eq\n        /* \"#utility.yul\":8372:8374   */\n      tag_163\n      jumpi\n        /* \"#utility.yul\":8431:8432   */\n      0x00\n        /* \"#utility.yul\":8428:8429   */\n      dup1\n        /* \"#utility.yul\":8421:8433   */\n      revert\n        /* \"#utility.yul\":8372:8374   */\n    tag_163:\n        /* \"#utility.yul\":8362:8441   */\n      pop\n      jump\t// out\n\n    auxdata: 0xa2646970667358221220f8176eabdb61cf6314ae0062c41c639ac83b32a71aff24196cb29f4c6c70b66564736f6c63430008000033\n}\n",
				"bytecode": {
					"linkReferences": {},
					"object": "60806040526040518060800160405280600a60ff168152602001601460ff168152602001601e60ff168152602001602860ff1681525060009060046200004792919062000129565b5060405180606001604052806040518060400160405280600781526020017f736175726162680000000000000000000000000000000000000000000000000081525081526020016040518060400160405280600681526020017f796f67657368000000000000000000000000000000000000000000000000000081525081526020016040518060400160405280600581526020017f726f68697400000000000000000000000000000000000000000000000000000081525081525060019060036200011492919062000180565b503480156200012257600080fd5b506200036a565b8280548282559060005260206000209081019282156200016d579160200282015b828111156200016c578251829060ff169055916020019190600101906200014a565b5b5090506200017c9190620001e7565b5090565b828054828255906000526020600020908101928215620001d4579160200282015b82811115620001d3578251829080519060200190620001c292919062000206565b5091602001919060010190620001a1565b5b509050620001e3919062000297565b5090565b5b8082111562000202576000816000905550600101620001e8565b5090565b828054620002149062000305565b90600052602060002090601f01602090048101928262000238576000855562000284565b82601f106200025357805160ff191683800117855562000284565b8280016001018555821562000284579182015b828111156200028357825182559160200191906001019062000266565b5b509050620002939190620001e7565b5090565b5b80821115620002bb5760008181620002b19190620002bf565b5060010162000298565b5090565b508054620002cd9062000305565b6000825580601f10620002e1575062000302565b601f016020900490600052602060002090810190620003019190620001e7565b5b50565b600060028204905060018216806200031e57607f821691505b602082108114156200033557620003346200033b565b5b50919050565b7f4e487b7100000000000000000000000000000000000000000000000000000000600052602260045260246000fd5b61079f806200037a6000396000f3fe608060405234801561001057600080fd5b506004361061004c5760003560e01c80632402c982146100515780636088337f1461006f578063a2c356d51461008b578063bf15a645146100a9575b600080fd5b6100596100c5565b6040516100669190610532565b60405180910390f35b61008960048036038101906100849190610381565b61019e565b005b6100936101dd565b6040516100a09190610554565b60405180910390f35b6100c360048036038101906100be91906103c2565b610235565b005b60606001805480602002602001604051908101604052809291908181526020016000905b82821015610195578382906000526020600020018054610108906106b1565b80601f0160208091040260200160405190810160405280929190818152602001828054610134906106b1565b80156101815780601f1061015657610100808354040283529160200191610181565b820191906000526020600020905b81548152906001019060200180831161016457829003601f168201915b5050505050815260200190600101906100e9565b50505050905090565b6001819080600181540180825580915050600190039060005260206000200160009091909190915090805190602001906101d9929190610261565b5050565b6060600080548060200260200160405190810160405280929190818152602001828054801561022b57602002820191906000526020600020905b815481526020019060010190808311610217575b5050505050905090565b600081908060018154018082558091505060019003906000526020600020016000909190919091505550565b82805461026d906106b1565b90600052602060002090601f01602090048101928261028f57600085556102d6565b82601f106102a857805160ff19168380011785556102d6565b828001600101855582156102d6579182015b828111156102d55782518255916020019190600101906102ba565b5b5090506102e391906102e7565b5090565b5b808211156103005760008160009055506001016102e8565b5090565b6000610317610312846105a7565b610576565b90508281526020810184848401111561032f57600080fd5b61033a84828561066f565b509392505050565b600082601f83011261035357600080fd5b8135610363848260208601610304565b91505092915050565b60008135905061037b81610752565b92915050565b60006020828403121561039357600080fd5b600082013567ffffffffffffffff8111156103ad57600080fd5b6103b984828501610342565b91505092915050565b6000602082840312156103d457600080fd5b60006103e28482850161036c565b91505092915050565b60006103f783836104ea565b905092915050565b600061040b8383610523565b60208301905092915050565b6000610422826105f7565b61042c8185610632565b93508360208202850161043e856105d7565b8060005b8581101561047a578484038952815161045b85826103eb565b945061046683610618565b925060208a01995050600181019050610442565b50829750879550505050505092915050565b600061049782610602565b6104a18185610643565b93506104ac836105e7565b8060005b838110156104dd5781516104c488826103ff565b97506104cf83610625565b9250506001810190506104b0565b5085935050505092915050565b60006104f58261060d565b6104ff8185610654565b935061050f81856020860161067e565b61051881610741565b840191505092915050565b61052c81610665565b82525050565b6000602082019050818103600083015261054c8184610417565b905092915050565b6000602082019050818103600083015261056e818461048c565b905092915050565b6000604051905081810181811067ffffffffffffffff8211171561059d5761059c610712565b5b8060405250919050565b600067ffffffffffffffff8211156105c2576105c1610712565b5b601f19601f8301169050602081019050919050565b6000819050602082019050919050565b6000819050602082019050919050565b600081519050919050565b600081519050919050565b600081519050919050565b6000602082019050919050565b6000602082019050919050565b600082825260208201905092915050565b600082825260208201905092915050565b600082825260208201905092915050565b6000819050919050565b82818337600083830152505050565b60005b8381101561069c578082015181840152602081019050610681565b838111156106ab576000848401525b50505050565b600060028204905060018216806106c957607f821691505b602082108114156106dd576106dc6106e3565b5b50919050565b7f4e487b7100000000000000000000000000000000000000000000000000000000600052602260045260246000fd5b7f4e487b7100000000000000000000000000000000000000000000000000000000600052604160045260246000fd5b6000601f19601f8301169050919050565b61075b81610665565b811461076657600080fd5b5056fea2646970667358221220f8176eabdb61cf6314ae0062c41c639ac83b32a71aff24196cb29f4c6c70b66564736f6c63430008000033",
					"opcodes": "PUSH1 0x80 PUSH1 0x40 MSTORE PUSH1 0x40 MLOAD DUP1 PUSH1 0x80 ADD PUSH1 0x40 MSTORE DUP1 PUSH1 0xA PUSH1 0xFF AND DUP2 MSTORE PUSH1 0x20 ADD PUSH1 0x14 PUSH1 0xFF AND DUP2 MSTORE PUSH1 0x20 ADD PUSH1 0x1E PUSH1 0xFF AND DUP2 MSTORE PUSH1 0x20 ADD PUSH1 0x28 PUSH1 0xFF AND DUP2 MSTORE POP PUSH1 0x0 SWAP1 PUSH1 0x4 PUSH3 0x47 SWAP3 SWAP2 SWAP1 PUSH3 0x129 JUMP JUMPDEST POP PUSH1 0x40 MLOAD DUP1 PUSH1 0x60 ADD PUSH1 0x40 MSTORE DUP1 PUSH1 0x40 MLOAD DUP1 PUSH1 0x40 ADD PUSH1 0x40 MSTORE DUP1 PUSH1 0x7 DUP2 MSTORE PUSH1 0x20 ADD PUSH32 0x7361757261626800000000000000000000000000000000000000000000000000 DUP2 MSTORE POP DUP2 MSTORE PUSH1 0x20 ADD PUSH1 0x40 MLOAD DUP1 PUSH1 0x40 ADD PUSH1 0x40 MSTORE DUP1 PUSH1 0x6 DUP2 MSTORE PUSH1 0x20 ADD PUSH32 0x796F676573680000000000000000000000000000000000000000000000000000 DUP2 MSTORE POP DUP2 MSTORE PUSH1 0x20 ADD PUSH1 0x40 MLOAD DUP1 PUSH1 0x40 ADD PUSH1 0x40 MSTORE DUP1 PUSH1 0x5 DUP2 MSTORE PUSH1 0x20 ADD PUSH32 0x726F686974000000000000000000000000000000000000000000000000000000 DUP2 MSTORE POP DUP2 MSTORE POP PUSH1 0x1 SWAP1 PUSH1 0x3 PUSH3 0x114 SWAP3 SWAP2 SWAP1 PUSH3 0x180 JUMP JUMPDEST POP CALLVALUE DUP1 ISZERO PUSH3 0x122 JUMPI PUSH1 0x0 DUP1 REVERT JUMPDEST POP PUSH3 0x36A JUMP JUMPDEST DUP3 DUP1 SLOAD DUP3 DUP3 SSTORE SWAP1 PUSH1 0x0 MSTORE PUSH1 0x20 PUSH1 0x0 KECCAK256 SWAP1 DUP2 ADD SWAP3 DUP3 ISZERO PUSH3 0x16D JUMPI SWAP2 PUSH1 0x20 MUL DUP3 ADD JUMPDEST DUP3 DUP2 GT ISZERO PUSH3 0x16C JUMPI DUP3 MLOAD DUP3 SWAP1 PUSH1 0xFF AND SWAP1 SSTORE SWAP2 PUSH1 0x20 ADD SWAP2 SWAP1 PUSH1 0x1 ADD SWAP1 PUSH3 0x14A JUMP JUMPDEST JUMPDEST POP SWAP1 POP PUSH3 0x17C SWAP2 SWAP1 PUSH3 0x1E7 JUMP JUMPDEST POP SWAP1 JUMP JUMPDEST DUP3 DUP1 SLOAD DUP3 DUP3 SSTORE SWAP1 PUSH1 0x0 MSTORE PUSH1 0x20 PUSH1 0x0 KECCAK256 SWAP1 DUP2 ADD SWAP3 DUP3 ISZERO PUSH3 0x1D4 JUMPI SWAP2 PUSH1 0x20 MUL DUP3 ADD JUMPDEST DUP3 DUP2 GT ISZERO PUSH3 0x1D3 JUMPI DUP3 MLOAD DUP3 SWAP1 DUP1 MLOAD SWAP1 PUSH1 0x20 ADD SWAP1 PUSH3 0x1C2 SWAP3 SWAP2 SWAP1 PUSH3 0x206 JUMP JUMPDEST POP SWAP2 PUSH1 0x20 ADD SWAP2 SWAP1 PUSH1 0x1 ADD SWAP1 PUSH3 0x1A1 JUMP JUMPDEST JUMPDEST POP SWAP1 POP PUSH3 0x1E3 SWAP2 SWAP1 PUSH3 0x297 JUMP JUMPDEST POP SWAP1 JUMP JUMPDEST JUMPDEST DUP1 DUP3 GT ISZERO PUSH3 0x202 JUMPI PUSH1 0x0 DUP2 PUSH1 0x0 SWAP1 SSTORE POP PUSH1 0x1 ADD PUSH3 0x1E8 JUMP JUMPDEST POP SWAP1 JUMP JUMPDEST DUP3 DUP1 SLOAD PUSH3 0x214 SWAP1 PUSH3 0x305 JUMP JUMPDEST SWAP1 PUSH1 0x0 MSTORE PUSH1 0x20 PUSH1 0x0 KECCAK256 SWAP1 PUSH1 0x1F ADD PUSH1 0x20 SWAP1 DIV DUP2 ADD SWAP3 DUP3 PUSH3 0x238 JUMPI PUSH1 0x0 DUP6 SSTORE PUSH3 0x284 JUMP JUMPDEST DUP3 PUSH1 0x1F LT PUSH3 0x253 JUMPI DUP1 MLOAD PUSH1 0xFF NOT AND DUP4 DUP1 ADD OR DUP6 SSTORE PUSH3 0x284 JUMP JUMPDEST DUP3 DUP1 ADD PUSH1 0x1 ADD DUP6 SSTORE DUP3 ISZERO PUSH3 0x284 JUMPI SWAP2 DUP3 ADD JUMPDEST DUP3 DUP2 GT ISZERO PUSH3 0x283 JUMPI DUP3 MLOAD DUP3 SSTORE SWAP2 PUSH1 0x20 ADD SWAP2 SWAP1 PUSH1 0x1 ADD SWAP1 PUSH3 0x266 JUMP JUMPDEST JUMPDEST POP SWAP1 POP PUSH3 0x293 SWAP2 SWAP1 PUSH3 0x1E7 JUMP JUMPDEST POP SWAP1 JUMP JUMPDEST JUMPDEST DUP1 DUP3 GT ISZERO PUSH3 0x2BB JUMPI PUSH1 0x0 DUP2 DUP2 PUSH3 0x2B1 SWAP2 SWAP1 PUSH3 0x2BF JUMP JUMPDEST POP PUSH1 0x1 ADD PUSH3 0x298 JUMP JUMPDEST POP SWAP1 JUMP JUMPDEST POP DUP1 SLOAD PUSH3 0x2CD SWAP1 PUSH3 0x305 JUMP JUMPDEST PUSH1 0x0 DUP3 SSTORE DUP1 PUSH1 0x1F LT PUSH3 0x2E1 JUMPI POP PUSH3 0x302 JUMP JUMPDEST PUSH1 0x1F ADD PUSH1 0x20 SWAP1 DIV SWAP1 PUSH1 0x0 MSTORE PUSH1 0x20 PUSH1 0x0 KECCAK256 SWAP1 DUP2 ADD SWAP1 PUSH3 0x301 SWAP2 SWAP1 PUSH3 0x1E7 JUMP JUMPDEST JUMPDEST POP JUMP JUMPDEST PUSH1 0x0 PUSH1 0x2 DUP3 DIV SWAP1 POP PUSH1 0x1 DUP3 AND DUP1 PUSH3 0x31E JUMPI PUSH1 0x7F DUP3 AND SWAP2 POP JUMPDEST PUSH1 0x20 DUP3 LT DUP2 EQ ISZERO PUSH3 0x335 JUMPI PUSH3 0x334 PUSH3 0x33B JUMP JUMPDEST JUMPDEST POP SWAP2 SWAP1 POP JUMP JUMPDEST PUSH32 0x4E487B7100000000000000000000000000000000000000000000000000000000 PUSH1 0x0 MSTORE PUSH1 0x22 PUSH1 0x4 MSTORE PUSH1 0x24 PUSH1 0x0 REVERT JUMPDEST PUSH2 0x79F DUP1 PUSH3 0x37A PUSH1 0x0 CODECOPY PUSH1 0x0 RETURN INVALID PUSH1 0x80 PUSH1 0x40 MSTORE CALLVALUE DUP1 ISZERO PUSH2 0x10 JUMPI PUSH1 0x0 DUP1 REVERT JUMPDEST POP PUSH1 0x4 CALLDATASIZE LT PUSH2 0x4C JUMPI PUSH1 0x0 CALLDATALOAD PUSH1 0xE0 SHR DUP1 PUSH4 0x2402C982 EQ PUSH2 0x51 JUMPI DUP1 PUSH4 0x6088337F EQ PUSH2 0x6F JUMPI DUP1 PUSH4 0xA2C356D5 EQ PUSH2 0x8B JUMPI DUP1 PUSH4 0xBF15A645 EQ PUSH2 0xA9 JUMPI JUMPDEST PUSH1 0x0 DUP1 REVERT JUMPDEST PUSH2 0x59 PUSH2 0xC5 JUMP JUMPDEST PUSH1 0x40 MLOAD PUSH2 0x66 SWAP2 SWAP1 PUSH2 0x532 JUMP JUMPDEST PUSH1 0x40 MLOAD DUP1 SWAP2 SUB SWAP1 RETURN JUMPDEST PUSH2 0x89 PUSH1 0x4 DUP1 CALLDATASIZE SUB DUP2 ADD SWAP1 PUSH2 0x84 SWAP2 SWAP1 PUSH2 0x381 JUMP JUMPDEST PUSH2 0x19E JUMP JUMPDEST STOP JUMPDEST PUSH2 0x93 PUSH2 0x1DD JUMP JUMPDEST PUSH1 0x40 MLOAD PUSH2 0xA0 SWAP2 SWAP1 PUSH2 0x554 JUMP JUMPDEST PUSH1 0x40 MLOAD DUP1 SWAP2 SUB SWAP1 RETURN JUMPDEST PUSH2 0xC3 PUSH1 0x4 DUP1 CALLDATASIZE SUB DUP2 ADD SWAP1 PUSH2 0xBE SWAP2 SWAP1 PUSH2 0x3C2 JUMP JUMPDEST PUSH2 0x235 JUMP JUMPDEST STOP JUMPDEST PUSH1 0x60 PUSH1 0x1 DUP1 SLOAD DUP1 PUSH1 0x20 MUL PUSH1 0x20 ADD PUSH1 0x40 MLOAD SWAP1 DUP2 ADD PUSH1 0x40 MSTORE DUP1 SWAP3 SWAP2 SWAP1 DUP2 DUP2 MSTORE PUSH1 0x20 ADD PUSH1 0x0 SWAP1 JUMPDEST DUP3 DUP3 LT ISZERO PUSH2 0x195 JUMPI DUP4 DUP3 SWAP1 PUSH1 0x0 MSTORE PUSH1 0x20 PUSH1 0x0 KECCAK256 ADD DUP1 SLOAD PUSH2 0x108 SWAP1 PUSH2 0x6B1 JUMP JUMPDEST DUP1 PUSH1 0x1F ADD PUSH1 0x20 DUP1 SWAP2 DIV MUL PUSH1 0x20 ADD PUSH1 0x40 MLOAD SWAP1 DUP2 ADD PUSH1 0x40 MSTORE DUP1 SWAP3 SWAP2 SWAP1 DUP2 DUP2 MSTORE PUSH1 0x20 ADD DUP3 DUP1 SLOAD PUSH2 0x134 SWAP1 PUSH2 0x6B1 JUMP JUMPDEST DUP1 ISZERO PUSH2 0x181 JUMPI DUP1 PUSH1 0x1F LT PUSH2 0x156 JUMPI PUSH2 0x100 DUP1 DUP4 SLOAD DIV MUL DUP4 MSTORE SWAP2 PUSH1 0x20 ADD SWAP2 PUSH2 0x181 JUMP JUMPDEST DUP3 ADD SWAP2 SWAP1 PUSH1 0x0 MSTORE PUSH1 0x20 PUSH1 0x0 KECCAK256 SWAP1 JUMPDEST DUP2 SLOAD DUP2 MSTORE SWAP1 PUSH1 0x1 ADD SWAP1 PUSH1 0x20 ADD DUP1 DUP4 GT PUSH2 0x164 JUMPI DUP3 SWAP1 SUB PUSH1 0x1F AND DUP3 ADD SWAP2 JUMPDEST POP POP POP POP POP DUP2 MSTORE PUSH1 0x20 ADD SWAP1 PUSH1 0x1 ADD SWAP1 PUSH2 0xE9 JUMP JUMPDEST POP POP POP POP SWAP1 POP SWAP1 JUMP JUMPDEST PUSH1 0x1 DUP2 SWAP1 DUP1 PUSH1 0x1 DUP2 SLOAD ADD DUP1 DUP3 SSTORE DUP1 SWAP2 POP POP PUSH1 0x1 SWAP1 SUB SWAP1 PUSH1 0x0 MSTORE PUSH1 0x20 PUSH1 0x0 KECCAK256 ADD PUSH1 0x0 SWAP1 SWAP2 SWAP1 SWAP2 SWAP1 SWAP2 POP SWAP1 DUP1 MLOAD SWAP1 PUSH1 0x20 ADD SWAP1 PUSH2 0x1D9 SWAP3 SWAP2 SWAP1 PUSH2 0x261 JUMP JUMPDEST POP POP JUMP JUMPDEST PUSH1 0x60 PUSH1 0x0 DUP1 SLOAD DUP1 PUSH1 0x20 MUL PUSH1 0x20 ADD PUSH1 0x40 MLOAD SWAP1 DUP2 ADD PUSH1 0x40 MSTORE DUP1 SWAP3 SWAP2 SWAP1 DUP2 DUP2 MSTORE PUSH1 0x20 ADD DUP3 DUP1 SLOAD DUP1 ISZERO PUSH2 0x22B JUMPI PUSH1 0x20 MUL DUP3 ADD SWAP2 SWAP1 PUSH1 0x0 MSTORE PUSH1 0x20 PUSH1 0x0 KECCAK256 SWAP1 JUMPDEST DUP2 SLOAD DUP2 MSTORE PUSH1 0x20 ADD SWAP1 PUSH1 0x1 ADD SWAP1 DUP1 DUP4 GT PUSH2 0x217 JUMPI JUMPDEST POP POP POP POP POP SWAP1 POP SWAP1 JUMP JUMPDEST PUSH1 0x0 DUP2 SWAP1 DUP1 PUSH1 0x1 DUP2 SLOAD ADD DUP1 DUP3 SSTORE DUP1 SWAP2 POP POP PUSH1 0x1 SWAP1 SUB SWAP1 PUSH1 0x0 MSTORE PUSH1 0x20 PUSH1 0x0 KECCAK256 ADD PUSH1 0x0 SWAP1 SWAP2 SWAP1 SWAP2 SWAP1 SWAP2 POP SSTORE POP JUMP JUMPDEST DUP3 DUP1 SLOAD PUSH2 0x26D SWAP1 PUSH2 0x6B1 JUMP JUMPDEST SWAP1 PUSH1 0x0 MSTORE PUSH1 0x20 PUSH1 0x0 KECCAK256 SWAP1 PUSH1 0x1F ADD PUSH1 0x20 SWAP1 DIV DUP2 ADD SWAP3 DUP3 PUSH2 0x28F JUMPI PUSH1 0x0 DUP6 SSTORE PUSH2 0x2D6 JUMP JUMPDEST DUP3 PUSH1 0x1F LT PUSH2 0x2A8 JUMPI DUP1 MLOAD PUSH1 0xFF NOT AND DUP4 DUP1 ADD OR DUP6 SSTORE PUSH2 0x2D6 JUMP JUMPDEST DUP3 DUP1 ADD PUSH1 0x1 ADD DUP6 SSTORE DUP3 ISZERO PUSH2 0x2D6 JUMPI SWAP2 DUP3 ADD JUMPDEST DUP3 DUP2 GT ISZERO PUSH2 0x2D5 JUMPI DUP3 MLOAD DUP3 SSTORE SWAP2 PUSH1 0x20 ADD SWAP2 SWAP1 PUSH1 0x1 ADD SWAP1 PUSH2 0x2BA JUMP JUMPDEST JUMPDEST POP SWAP1 POP PUSH2 0x2E3 SWAP2 SWAP1 PUSH2 0x2E7 JUMP JUMPDEST POP SWAP1 JUMP JUMPDEST JUMPDEST DUP1 DUP3 GT ISZERO PUSH2 0x300 JUMPI PUSH1 0x0 DUP2 PUSH1 0x0 SWAP1 SSTORE POP PUSH1 0x1 ADD PUSH2 0x2E8 JUMP JUMPDEST POP SWAP1 JUMP JUMPDEST PUSH1 0x0 PUSH2 0x317 PUSH2 0x312 DUP5 PUSH2 0x5A7 JUMP JUMPDEST PUSH2 0x576 JUMP JUMPDEST SWAP1 POP DUP3 DUP2 MSTORE PUSH1 0x20 DUP2 ADD DUP5 DUP5 DUP5 ADD GT ISZERO PUSH2 0x32F JUMPI PUSH1 0x0 DUP1 REVERT JUMPDEST PUSH2 0x33A DUP5 DUP3 DUP6 PUSH2 0x66F JUMP JUMPDEST POP SWAP4 SWAP3 POP POP POP JUMP JUMPDEST PUSH1 0x0 DUP3 PUSH1 0x1F DUP4 ADD SLT PUSH2 0x353 JUMPI PUSH1 0x0 DUP1 REVERT JUMPDEST DUP2 CALLDATALOAD PUSH2 0x363 DUP5 DUP3 PUSH1 0x20 DUP7 ADD PUSH2 0x304 JUMP JUMPDEST SWAP2 POP POP SWAP3 SWAP2 POP POP JUMP JUMPDEST PUSH1 0x0 DUP2 CALLDATALOAD SWAP1 POP PUSH2 0x37B DUP2 PUSH2 0x752 JUMP JUMPDEST SWAP3 SWAP2 POP POP JUMP JUMPDEST PUSH1 0x0 PUSH1 0x20 DUP3 DUP5 SUB SLT ISZERO PUSH2 0x393 JUMPI PUSH1 0x0 DUP1 REVERT JUMPDEST PUSH1 0x0 DUP3 ADD CALLDATALOAD PUSH8 0xFFFFFFFFFFFFFFFF DUP2 GT ISZERO PUSH2 0x3AD JUMPI PUSH1 0x0 DUP1 REVERT JUMPDEST PUSH2 0x3B9 DUP5 DUP3 DUP6 ADD PUSH2 0x342 JUMP JUMPDEST SWAP2 POP POP SWAP3 SWAP2 POP POP JUMP JUMPDEST PUSH1 0x0 PUSH1 0x20 DUP3 DUP5 SUB SLT ISZERO PUSH2 0x3D4 JUMPI PUSH1 0x0 DUP1 REVERT JUMPDEST PUSH1 0x0 PUSH2 0x3E2 DUP5 DUP3 DUP6 ADD PUSH2 0x36C JUMP JUMPDEST SWAP2 POP POP SWAP3 SWAP2 POP POP JUMP JUMPDEST PUSH1 0x0 PUSH2 0x3F7 DUP4 DUP4 PUSH2 0x4EA JUMP JUMPDEST SWAP1 POP SWAP3 SWAP2 POP POP JUMP JUMPDEST PUSH1 0x0 PUSH2 0x40B DUP4 DUP4 PUSH2 0x523 JUMP JUMPDEST PUSH1 0x20 DUP4 ADD SWAP1 POP SWAP3 SWAP2 POP POP JUMP JUMPDEST PUSH1 0x0 PUSH2 0x422 DUP3 PUSH2 0x5F7 JUMP JUMPDEST PUSH2 0x42C DUP2 DUP6 PUSH2 0x632 JUMP JUMPDEST SWAP4 POP DUP4 PUSH1 0x20 DUP3 MUL DUP6 ADD PUSH2 0x43E DUP6 PUSH2 0x5D7 JUMP JUMPDEST DUP1 PUSH1 0x0 JUMPDEST DUP6 DUP2 LT ISZERO PUSH2 0x47A JUMPI DUP5 DUP5 SUB DUP10 MSTORE DUP2 MLOAD PUSH2 0x45B DUP6 DUP3 PUSH2 0x3EB JUMP JUMPDEST SWAP5 POP PUSH2 0x466 DUP4 PUSH2 0x618 JUMP JUMPDEST SWAP3 POP PUSH1 0x20 DUP11 ADD SWAP10 POP POP PUSH1 0x1 DUP2 ADD SWAP1 POP PUSH2 0x442 JUMP JUMPDEST POP DUP3 SWAP8 POP DUP8 SWAP6 POP POP POP POP POP POP SWAP3 SWAP2 POP POP JUMP JUMPDEST PUSH1 0x0 PUSH2 0x497 DUP3 PUSH2 0x602 JUMP JUMPDEST PUSH2 0x4A1 DUP2 DUP6 PUSH2 0x643 JUMP JUMPDEST SWAP4 POP PUSH2 0x4AC DUP4 PUSH2 0x5E7 JUMP JUMPDEST DUP1 PUSH1 0x0 JUMPDEST DUP4 DUP2 LT ISZERO PUSH2 0x4DD JUMPI DUP2 MLOAD PUSH2 0x4C4 DUP9 DUP3 PUSH2 0x3FF JUMP JUMPDEST SWAP8 POP PUSH2 0x4CF DUP4 PUSH2 0x625 JUMP JUMPDEST SWAP3 POP POP PUSH1 0x1 DUP2 ADD SWAP1 POP PUSH2 0x4B0 JUMP JUMPDEST POP DUP6 SWAP4 POP POP POP POP SWAP3 SWAP2 POP POP JUMP JUMPDEST PUSH1 0x0 PUSH2 0x4F5 DUP3 PUSH2 0x60D JUMP JUMPDEST PUSH2 0x4FF DUP2 DUP6 PUSH2 0x654 JUMP JUMPDEST SWAP4 POP PUSH2 0x50F DUP2 DUP6 PUSH1 0x20 DUP7 ADD PUSH2 0x67E JUMP JUMPDEST PUSH2 0x518 DUP2 PUSH2 0x741 JUMP JUMPDEST DUP5 ADD SWAP2 POP POP SWAP3 SWAP2 POP POP JUMP JUMPDEST PUSH2 0x52C DUP2 PUSH2 0x665 JUMP JUMPDEST DUP3 MSTORE POP POP JUMP JUMPDEST PUSH1 0x0 PUSH1 0x20 DUP3 ADD SWAP1 POP DUP2 DUP2 SUB PUSH1 0x0 DUP4 ADD MSTORE PUSH2 0x54C DUP2 DUP5 PUSH2 0x417 JUMP JUMPDEST SWAP1 POP SWAP3 SWAP2 POP POP JUMP JUMPDEST PUSH1 0x0 PUSH1 0x20 DUP3 ADD SWAP1 POP DUP2 DUP2 SUB PUSH1 0x0 DUP4 ADD MSTORE PUSH2 0x56E DUP2 DUP5 PUSH2 0x48C JUMP JUMPDEST SWAP1 POP SWAP3 SWAP2 POP POP JUMP JUMPDEST PUSH1 0x0 PUSH1 0x40 MLOAD SWAP1 POP DUP2 DUP2 ADD DUP2 DUP2 LT PUSH8 0xFFFFFFFFFFFFFFFF DUP3 GT OR ISZERO PUSH2 0x59D JUMPI PUSH2 0x59C PUSH2 0x712 JUMP JUMPDEST JUMPDEST DUP1 PUSH1 0x40 MSTORE POP SWAP2 SWAP1 POP JUMP JUMPDEST PUSH1 0x0 PUSH8 0xFFFFFFFFFFFFFFFF DUP3 GT ISZERO PUSH2 0x5C2 JUMPI PUSH2 0x5C1 PUSH2 0x712 JUMP JUMPDEST JUMPDEST PUSH1 0x1F NOT PUSH1 0x1F DUP4 ADD AND SWAP1 POP PUSH1 0x20 DUP2 ADD SWAP1 POP SWAP2 SWAP1 POP JUMP JUMPDEST PUSH1 0x0 DUP2 SWAP1 POP PUSH1 0x20 DUP3 ADD SWAP1 POP SWAP2 SWAP1 POP JUMP JUMPDEST PUSH1 0x0 DUP2 SWAP1 POP PUSH1 0x20 DUP3 ADD SWAP1 POP SWAP2 SWAP1 POP JUMP JUMPDEST PUSH1 0x0 DUP2 MLOAD SWAP1 POP SWAP2 SWAP1 POP JUMP JUMPDEST PUSH1 0x0 DUP2 MLOAD SWAP1 POP SWAP2 SWAP1 POP JUMP JUMPDEST PUSH1 0x0 DUP2 MLOAD SWAP1 POP SWAP2 SWAP1 POP JUMP JUMPDEST PUSH1 0x0 PUSH1 0x20 DUP3 ADD SWAP1 POP SWAP2 SWAP1 POP JUMP JUMPDEST PUSH1 0x0 PUSH1 0x20 DUP3 ADD SWAP1 POP SWAP2 SWAP1 POP JUMP JUMPDEST PUSH1 0x0 DUP3 DUP3 MSTORE PUSH1 0x20 DUP3 ADD SWAP1 POP SWAP3 SWAP2 POP POP JUMP JUMPDEST PUSH1 0x0 DUP3 DUP3 MSTORE PUSH1 0x20 DUP3 ADD SWAP1 POP SWAP3 SWAP2 POP POP JUMP JUMPDEST PUSH1 0x0 DUP3 DUP3 MSTORE PUSH1 0x20 DUP3 ADD SWAP1 POP SWAP3 SWAP2 POP POP JUMP JUMPDEST PUSH1 0x0 DUP2 SWAP1 POP SWAP2 SWAP1 POP JUMP JUMPDEST DUP3 DUP2 DUP4 CALLDATACOPY PUSH1 0x0 DUP4 DUP4 ADD MSTORE POP POP POP JUMP JUMPDEST PUSH1 0x0 JUMPDEST DUP4 DUP2 LT ISZERO PUSH2 0x69C JUMPI DUP1 DUP3 ADD MLOAD DUP2 DUP5 ADD MSTORE PUSH1 0x20 DUP2 ADD SWAP1 POP PUSH2 0x681 JUMP JUMPDEST DUP4 DUP2 GT ISZERO PUSH2 0x6AB JUMPI PUSH1 0x0 DUP5 DUP5 ADD MSTORE JUMPDEST POP POP POP POP JUMP JUMPDEST PUSH1 0x0 PUSH1 0x2 DUP3 DIV SWAP1 POP PUSH1 0x1 DUP3 AND DUP1 PUSH2 0x6C9 JUMPI PUSH1 0x7F DUP3 AND SWAP2 POP JUMPDEST PUSH1 0x20 DUP3 LT DUP2 EQ ISZERO PUSH2 0x6DD JUMPI PUSH2 0x6DC PUSH2 0x6E3 JUMP JUMPDEST JUMPDEST POP SWAP2 SWAP1 POP JUMP JUMPDEST PUSH32 0x4E487B7100000000000000000000000000000000000000000000000000000000 PUSH1 0x0 MSTORE PUSH1 0x22 PUSH1 0x4 MSTORE PUSH1 0x24 PUSH1 0x0 REVERT JUMPDEST PUSH32 0x4E487B7100000000000000000000000000000000000000000000000000000000 PUSH1 0x0 MSTORE PUSH1 0x41 PUSH1 0x4 MSTORE PUSH1 0x24 PUSH1 0x0 REVERT JUMPDEST PUSH1 0x0 PUSH1 0x1F NOT PUSH1 0x1F DUP4 ADD AND SWAP1 POP SWAP2 SWAP1 POP JUMP JUMPDEST PUSH2 0x75B DUP2 PUSH2 0x665 JUMP JUMPDEST DUP2 EQ PUSH2 0x766 JUMPI PUSH1 0x0 DUP1 REVERT JUMPDEST POP JUMP INVALID LOG2 PUSH5 0x6970667358 0x22 SLT KECCAK256 0xF8 OR PUSH15 0xABDB61CF6314AE0062C41C639AC83B ORIGIN 0xA7 BYTE SELFDESTRUCT 0x24 NOT PUSH13 0xB29F4C6C70B66564736F6C6343 STOP ADDMOD STOP STOP CALLER "
				},
				"gasEstimates": {
					"creation": {
						"codeDepositCost": "390200",
						"executionCost": "infinite",
						"totalCost": "infinite"
					},
					"external": {
						"add_name(string)": "infinite",
						"add_numbers(uint256)": "41373",
						"get_names()": "infinite",
						"get_numbers()": "infinite"
					}
				},
				"methodIdentifiers": {
					"add_name(string)": "6088337f",
					"add_numbers(uint256)": "bf15a645",
					"get_names()": "2402c982",
					"get_numbers()": "a2c356d5"
				}
			},
			"storageLayout": {
				"storage": [
					{
						"astId": 9,
						"contract": "Arraydemo.sol:Array_Demo",
						"label": "numbers",
						"offset": 0,
						"slot": "0",
						"type": "t_array(t_uint256)dyn_storage"
					},
					{
						"astId": 16,
						"contract": "Arraydemo.sol:Array_Demo",
						"label": "names",
						"offset": 0,
						"slot": "1",
						"type": "t_array(t_string_storage)dyn_storage"
					}
				],
				"types": {
					"t_array(t_string_storage)dyn_storage": {
						"base": "t_string_storage",
						"encoding": "dynamic_array",
						"label": "string[]",
						"numberOfBytes": "32"
					},
					"t_array(t_uint256)dyn_storage": {
						"base": "t_uint256",
						"encoding": "dynamic_array",
						"label": "uint256[]",
						"numberOfBytes": "32"
					},
					"t_string_storage": {
						"encoding": "bytes",
						"label": "string",
						"numberOfBytes": "32"
					},
					"t_uint256": {
						"encoding": "inplace",
						"label": "uint256",
						"numberOfBytes": "32"
					}
				}
			},
			"userdoc": {
				"kind": "user",
				"methods": {},
				"version": 1
			}
		}
	}
}