{
	"Parking_Smart_Contract.sol": {
		"Parking": {
			"abi": [
				{
					"inputs": [],
					"name": "hourlyRate",
					"outputs": [
						{
							"internalType": "uint256",
							"name": "",
							"type": "uint256"
						}
					],
					"stateMutability": "view",
					"type": "function"
				},
				{
					"inputs": [],
					"name": "park",
					"outputs": [],
					"stateMutability": "nonpayable",
					"type": "function"
				},
				{
					"inputs": [],
					"name": "unpark",
					"outputs": [],
					"stateMutability": "payable",
					"type": "function"
				},
				{
					"inputs": [
						{
							"internalType": "address",
							"name": "",
							"type": "address"
						}
					],
					"name": "vehicles",
					"outputs": [
						{
							"internalType": "uint256",
							"name": "startTime",
							"type": "uint256"
						},
						{
							"internalType": "bool",
							"name": "isParked",
							"type": "bool"
						}
					],
					"stateMutability": "view",
					"type": "function"
				}
			],
			"devdoc": {
				"kind": "dev",
				"methods": {},
				"version": 1
			},
			"evm": {
				"assembly": "    /* \"Parking_Smart_Contract.sol\":60:1190  contract Parking {... */\n  mstore(0x40, 0x80)\n    /* \"Parking_Smart_Contract.sol\":243:250  1 ether */\n  0x0de0b6b3a7640000\n    /* \"Parking_Smart_Contract.sol\":218:250  uint public hourlyRate = 1 ether */\n  0x01\n  sstore\n    /* \"Parking_Smart_Contract.sol\":60:1190  contract Parking {... */\n  callvalue\n  dup1\n  iszero\n  tag_1\n  jumpi\n  revert(0x00, 0x00)\ntag_1:\n  pop\n  dataSize(sub_0)\n  dup1\n  dataOffset(sub_0)\n  0x00\n  codecopy\n  0x00\n  return\nstop\n\nsub_0: assembly {\n        /* \"Parking_Smart_Contract.sol\":60:1190  contract Parking {... */\n      mstore(0x40, 0x80)\n      jumpi(tag_1, lt(calldatasize, 0x04))\n      shr(0xe0, calldataload(0x00))\n      dup1\n      0x028e7768\n      eq\n      tag_2\n      jumpi\n      dup1\n      0x1ac21dd6\n      eq\n      tag_3\n      jumpi\n      dup1\n      0x59a7b3fe\n      eq\n      tag_4\n      jumpi\n      dup1\n      0xbe46026d\n      eq\n      tag_5\n      jumpi\n    tag_1:\n      revert(0x00, 0x00)\n        /* \"Parking_Smart_Contract.sol\":166:209  mapping(address => Vehicle) public vehicles */\n    tag_2:\n      callvalue\n      dup1\n      iszero\n      tag_6\n      jumpi\n      revert(0x00, 0x00)\n    tag_6:\n      pop\n      tag_7\n      0x04\n      dup1\n      calldatasize\n      sub\n      dup2\n      add\n      swap1\n      tag_8\n      swap2\n      swap1\n      tag_9\n      jump\t// in\n    tag_8:\n      tag_10\n      jump\t// in\n    tag_7:\n      mload(0x40)\n      tag_11\n      swap3\n      swap2\n      swap1\n      tag_12\n      jump\t// in\n    tag_11:\n      mload(0x40)\n      dup1\n      swap2\n      sub\n      swap1\n      return\n        /* \"Parking_Smart_Contract.sol\":296:461  function park() public {... */\n    tag_3:\n      callvalue\n      dup1\n      iszero\n      tag_13\n      jumpi\n      revert(0x00, 0x00)\n    tag_13:\n      pop\n      tag_14\n      tag_15\n      jump\t// in\n    tag_14:\n      stop\n        /* \"Parking_Smart_Contract.sol\":218:250  uint public hourlyRate = 1 ether */\n    tag_4:\n      callvalue\n      dup1\n      iszero\n      tag_16\n      jumpi\n      revert(0x00, 0x00)\n    tag_16:\n      pop\n      tag_17\n      tag_18\n      jump\t// in\n    tag_17:\n      mload(0x40)\n      tag_19\n      swap2\n      swap1\n      tag_20\n      jump\t// in\n    tag_19:\n      mload(0x40)\n      dup1\n      swap2\n      sub\n      swap1\n      return\n        /* \"Parking_Smart_Contract.sol\":508:1187  function unpark() public payable {... */\n    tag_5:\n      tag_21\n      tag_22\n      jump\t// in\n    tag_21:\n      stop\n        /* \"Parking_Smart_Contract.sol\":166:209  mapping(address => Vehicle) public vehicles */\n    tag_10:\n      mstore(0x20, 0x00)\n      dup1\n      0x00\n      mstore\n      keccak256(0x00, 0x40)\n      0x00\n      swap2\n      pop\n      swap1\n      pop\n      dup1\n      0x00\n      add\n      sload\n      swap1\n      dup1\n      0x01\n      add\n      0x00\n      swap1\n      sload\n      swap1\n      0x0100\n      exp\n      swap1\n      div\n      0xff\n      and\n      swap1\n      pop\n      dup3\n      jump\t// out\n        /* \"Parking_Smart_Contract.sol\":296:461  function park() public {... */\n    tag_15:\n        /* \"Parking_Smart_Contract.sol\":339:347  vehicles */\n      0x00\n        /* \"Parking_Smart_Contract.sol\":339:359  vehicles[msg.sender] */\n      0x00\n        /* \"Parking_Smart_Contract.sol\":348:358  msg.sender */\n      caller\n        /* \"Parking_Smart_Contract.sol\":339:359  vehicles[msg.sender] */\n      0xffffffffffffffffffffffffffffffffffffffff\n      and\n      0xffffffffffffffffffffffffffffffffffffffff\n      and\n      dup2\n      mstore\n      0x20\n      add\n      swap1\n      dup2\n      mstore\n      0x20\n      add\n      0x00\n      keccak256\n        /* \"Parking_Smart_Contract.sol\":339:368  vehicles[msg.sender].isParked */\n      0x01\n      add\n      0x00\n      swap1\n      sload\n      swap1\n      0x0100\n      exp\n      swap1\n      div\n      0xff\n      and\n        /* \"Parking_Smart_Contract.sol\":338:368  !vehicles[msg.sender].isParked */\n      iszero\n        /* \"Parking_Smart_Contract.sol\":330:387  require(!vehicles[msg.sender].isParked, \"Already parked\") */\n      tag_24\n      jumpi\n      mload(0x40)\n      0x08c379a000000000000000000000000000000000000000000000000000000000\n      dup2\n      mstore\n      0x04\n      add\n      tag_25\n      swap1\n      tag_26\n      jump\t// in\n    tag_25:\n      mload(0x40)\n      dup1\n      swap2\n      sub\n      swap1\n      revert\n    tag_24:\n        /* \"Parking_Smart_Contract.sol\":423:453  Vehicle(block.timestamp, true) */\n      mload(0x40)\n      dup1\n      0x40\n      add\n      0x40\n      mstore\n      dup1\n        /* \"Parking_Smart_Contract.sol\":431:446  block.timestamp */\n      timestamp\n        /* \"Parking_Smart_Contract.sol\":423:453  Vehicle(block.timestamp, true) */\n      dup2\n      mstore\n      0x20\n      add\n        /* \"Parking_Smart_Contract.sol\":448:452  true */\n      0x01\n        /* \"Parking_Smart_Contract.sol\":423:453  Vehicle(block.timestamp, true) */\n      iszero\n      iszero\n      dup2\n      mstore\n      pop\n        /* \"Parking_Smart_Contract.sol\":400:408  vehicles */\n      0x00\n        /* \"Parking_Smart_Contract.sol\":400:420  vehicles[msg.sender] */\n      0x00\n        /* \"Parking_Smart_Contract.sol\":409:419  msg.sender */\n      caller\n        /* \"Parking_Smart_Contract.sol\":400:420  vehicles[msg.sender] */\n      0xffffffffffffffffffffffffffffffffffffffff\n      and\n      0xffffffffffffffffffffffffffffffffffffffff\n      and\n      dup2\n      mstore\n      0x20\n      add\n      swap1\n      dup2\n      mstore\n      0x20\n      add\n      0x00\n      keccak256\n        /* \"Parking_Smart_Contract.sol\":400:453  vehicles[msg.sender] = Vehicle(block.timestamp, true) */\n      0x00\n      dup3\n      add\n      mload\n      dup2\n      0x00\n      add\n      sstore\n      0x20\n      dup3\n      add\n      mload\n      dup2\n      0x01\n      add\n      exp(0x0100, 0x00)\n      dup2\n      sload\n      dup2\n      0xff\n      mul\n      not\n      and\n      swap1\n      dup4\n      iszero\n      iszero\n      mul\n      or\n      swap1\n      sstore\n      pop\n      swap1\n      pop\n      pop\n        /* \"Parking_Smart_Contract.sol\":296:461  function park() public {... */\n      jump\t// out\n        /* \"Parking_Smart_Contract.sol\":218:250  uint public hourlyRate = 1 ether */\n    tag_18:\n      sload(0x01)\n      dup2\n      jump\t// out\n        /* \"Parking_Smart_Contract.sol\":508:1187  function unpark() public payable {... */\n    tag_22:\n        /* \"Parking_Smart_Contract.sol\":552:569  Vehicle storage v */\n      0x00\n        /* \"Parking_Smart_Contract.sol\":572:580  vehicles */\n      0x00\n        /* \"Parking_Smart_Contract.sol\":572:592  vehicles[msg.sender] */\n      0x00\n        /* \"Parking_Smart_Contract.sol\":581:591  msg.sender */\n      caller\n        /* \"Parking_Smart_Contract.sol\":572:592  vehicles[msg.sender] */\n      0xffffffffffffffffffffffffffffffffffffffff\n      and\n      0xffffffffffffffffffffffffffffffffffffffff\n      and\n      dup2\n      mstore\n      0x20\n      add\n      swap1\n      dup2\n      mstore\n      0x20\n      add\n      0x00\n      keccak256\n        /* \"Parking_Smart_Contract.sol\":552:592  Vehicle storage v = vehicles[msg.sender] */\n      swap1\n      pop\n        /* \"Parking_Smart_Contract.sol\":611:612  v */\n      dup1\n        /* \"Parking_Smart_Contract.sol\":611:621  v.isParked */\n      0x01\n      add\n      0x00\n      swap1\n      sload\n      swap1\n      0x0100\n      exp\n      swap1\n      div\n      0xff\n      and\n        /* \"Parking_Smart_Contract.sol\":603:636  require(v.isParked, \"Not parked\") */\n      tag_28\n      jumpi\n      mload(0x40)\n      0x08c379a000000000000000000000000000000000000000000000000000000000\n      dup2\n      mstore\n      0x04\n      add\n      tag_29\n      swap1\n      tag_30\n      jump\t// in\n    tag_29:\n      mload(0x40)\n      dup1\n      swap2\n      sub\n      swap1\n      revert\n    tag_28:\n        /* \"Parking_Smart_Contract.sol\":649:662  uint duration */\n      0x00\n        /* \"Parking_Smart_Contract.sol\":683:684  v */\n      dup2\n        /* \"Parking_Smart_Contract.sol\":683:694  v.startTime */\n      0x00\n      add\n      sload\n        /* \"Parking_Smart_Contract.sol\":665:680  block.timestamp */\n      timestamp\n        /* \"Parking_Smart_Contract.sol\":665:694  block.timestamp - v.startTime */\n      tag_31\n      swap2\n      swap1\n      tag_32\n      jump\t// in\n    tag_31:\n        /* \"Parking_Smart_Contract.sol\":649:694  uint duration = block.timestamp - v.startTime */\n      swap1\n      pop\n        /* \"Parking_Smart_Contract.sol\":705:721  uint hoursParked */\n      0x00\n        /* \"Parking_Smart_Contract.sol\":735:739  3600 */\n      0x0e10\n        /* \"Parking_Smart_Contract.sol\":724:732  duration */\n      dup3\n        /* \"Parking_Smart_Contract.sol\":724:739  duration / 3600 */\n      tag_33\n      swap2\n      swap1\n      tag_34\n      jump\t// in\n    tag_33:\n        /* \"Parking_Smart_Contract.sol\":705:739  uint hoursParked = duration / 3600 */\n      swap1\n      pop\n        /* \"Parking_Smart_Contract.sol\":771:772  0 */\n      0x00\n        /* \"Parking_Smart_Contract.sol\":756:767  hoursParked */\n      dup2\n        /* \"Parking_Smart_Contract.sol\":756:772  hoursParked == 0 */\n      sub\n        /* \"Parking_Smart_Contract.sol\":752:834  if (hoursParked == 0) {... */\n      tag_35\n      jumpi\n        /* \"Parking_Smart_Contract.sol\":803:804  1 */\n      0x01\n        /* \"Parking_Smart_Contract.sol\":789:804  hoursParked = 1 */\n      swap1\n      pop\n        /* \"Parking_Smart_Contract.sol\":752:834  if (hoursParked == 0) {... */\n    tag_35:\n        /* \"Parking_Smart_Contract.sol\":846:854  uint fee */\n      0x00\n        /* \"Parking_Smart_Contract.sol\":871:881  hourlyRate */\n      sload(0x01)\n        /* \"Parking_Smart_Contract.sol\":857:868  hoursParked */\n      dup3\n        /* \"Parking_Smart_Contract.sol\":857:881  hoursParked * hourlyRate */\n      tag_36\n      swap2\n      swap1\n      tag_37\n      jump\t// in\n    tag_36:\n        /* \"Parking_Smart_Contract.sol\":846:881  uint fee = hoursParked * hourlyRate */\n      swap1\n      pop\n        /* \"Parking_Smart_Contract.sol\":915:918  fee */\n      dup1\n        /* \"Parking_Smart_Contract.sol\":902:911  msg.value */\n      callvalue\n        /* \"Parking_Smart_Contract.sol\":902:918  msg.value >= fee */\n      lt\n      iszero\n        /* \"Parking_Smart_Contract.sol\":894:943  require(msg.value >= fee, \"Insufficient payment\") */\n      tag_38\n      jumpi\n      mload(0x40)\n      0x08c379a000000000000000000000000000000000000000000000000000000000\n      dup2\n      mstore\n      0x04\n      add\n      tag_39\n      swap1\n      tag_40\n      jump\t// in\n    tag_39:\n      mload(0x40)\n      dup1\n      swap2\n      sub\n      swap1\n      revert\n    tag_38:\n        /* \"Parking_Smart_Contract.sol\":969:974  false */\n      0x00\n        /* \"Parking_Smart_Contract.sol\":956:957  v */\n      dup5\n        /* \"Parking_Smart_Contract.sol\":956:966  v.isParked */\n      0x01\n      add\n      0x00\n        /* \"Parking_Smart_Contract.sol\":956:974  v.isParked = false */\n      0x0100\n      exp\n      dup2\n      sload\n      dup2\n      0xff\n      mul\n      not\n      and\n      swap1\n      dup4\n      iszero\n      iszero\n      mul\n      or\n      swap1\n      sstore\n      pop\n        /* \"Parking_Smart_Contract.sol\":1028:1031  fee */\n      dup1\n        /* \"Parking_Smart_Contract.sol\":1016:1025  msg.value */\n      callvalue\n        /* \"Parking_Smart_Contract.sol\":1016:1031  msg.value > fee */\n      gt\n        /* \"Parking_Smart_Contract.sol\":1012:1180  if (msg.value > fee) {... */\n      iszero\n      tag_41\n      jumpi\n        /* \"Parking_Smart_Contract.sol\":1048:1060  bool success */\n      0x00\n        /* \"Parking_Smart_Contract.sol\":1074:1084  msg.sender */\n      caller\n        /* \"Parking_Smart_Contract.sol\":1066:1090  payable(msg.sender).call */\n      0xffffffffffffffffffffffffffffffffffffffff\n      and\n        /* \"Parking_Smart_Contract.sol\":1110:1113  fee */\n      dup3\n        /* \"Parking_Smart_Contract.sol\":1098:1107  msg.value */\n      callvalue\n        /* \"Parking_Smart_Contract.sol\":1098:1113  msg.value - fee */\n      tag_42\n      swap2\n      swap1\n      tag_32\n      jump\t// in\n    tag_42:\n        /* \"Parking_Smart_Contract.sol\":1066:1118  payable(msg.sender).call{value: msg.value - fee}(\"\") */\n      mload(0x40)\n      tag_43\n      swap1\n      tag_44\n      jump\t// in\n    tag_43:\n      0x00\n      mload(0x40)\n      dup1\n      dup4\n      sub\n      dup2\n      dup6\n      dup8\n      gas\n      call\n      swap3\n      pop\n      pop\n      pop\n      returndatasize\n      dup1\n      0x00\n      dup2\n      eq\n      tag_47\n      jumpi\n      mload(0x40)\n      swap2\n      pop\n      and(add(returndatasize, 0x3f), not(0x1f))\n      dup3\n      add\n      0x40\n      mstore\n      returndatasize\n      dup3\n      mstore\n      returndatasize\n      0x00\n      0x20\n      dup5\n      add\n      returndatacopy\n      jump(tag_46)\n    tag_47:\n      0x60\n      swap2\n      pop\n    tag_46:\n      pop\n        /* \"Parking_Smart_Contract.sol\":1047:1118  (bool success, ) = payable(msg.sender).call{value: msg.value - fee}(\"\") */\n      pop\n      swap1\n      pop\n        /* \"Parking_Smart_Contract.sol\":1143:1150  success */\n      dup1\n        /* \"Parking_Smart_Contract.sol\":1135:1168  require(success, \"Refund failed\") */\n      tag_48\n      jumpi\n      mload(0x40)\n      0x08c379a000000000000000000000000000000000000000000000000000000000\n      dup2\n      mstore\n      0x04\n      add\n      tag_49\n      swap1\n      tag_50\n      jump\t// in\n    tag_49:\n      mload(0x40)\n      dup1\n      swap2\n      sub\n      swap1\n      revert\n    tag_48:\n        /* \"Parking_Smart_Contract.sol\":1033:1180  {... */\n      pop\n        /* \"Parking_Smart_Contract.sol\":1012:1180  if (msg.value > fee) {... */\n    tag_41:\n        /* \"Parking_Smart_Contract.sol\":541:1187  {... */\n      pop\n      pop\n      pop\n      pop\n        /* \"Parking_Smart_Contract.sol\":508:1187  function unpark() public payable {... */\n      jump\t// out\n        /* \"#utility.yul\":88:205   */\n    tag_52:\n        /* \"#utility.yul\":197:198   */\n      0x00\n        /* \"#utility.yul\":194:195   */\n      0x00\n        /* \"#utility.yul\":187:199   */\n      revert\n        /* \"#utility.yul\":334:460   */\n    tag_54:\n        /* \"#utility.yul\":371:378   */\n      0x00\n        /* \"#utility.yul\":411:453   */\n      0xffffffffffffffffffffffffffffffffffffffff\n        /* \"#utility.yul\":404:409   */\n      dup3\n        /* \"#utility.yul\":400:454   */\n      and\n        /* \"#utility.yul\":389:454   */\n      swap1\n      pop\n        /* \"#utility.yul\":334:460   */\n      swap2\n      swap1\n      pop\n      jump\t// out\n        /* \"#utility.yul\":466:562   */\n    tag_55:\n        /* \"#utility.yul\":503:510   */\n      0x00\n        /* \"#utility.yul\":532:556   */\n      tag_82\n        /* \"#utility.yul\":550:555   */\n      dup3\n        /* \"#utility.yul\":532:556   */\n      tag_54\n      jump\t// in\n    tag_82:\n        /* \"#utility.yul\":521:556   */\n      swap1\n      pop\n        /* \"#utility.yul\":466:562   */\n      swap2\n      swap1\n      pop\n      jump\t// out\n        /* \"#utility.yul\":568:690   */\n    tag_56:\n        /* \"#utility.yul\":641:665   */\n      tag_84\n        /* \"#utility.yul\":659:664   */\n      dup2\n        /* \"#utility.yul\":641:665   */\n      tag_55\n      jump\t// in\n    tag_84:\n        /* \"#utility.yul\":634:639   */\n      dup2\n        /* \"#utility.yul\":631:666   */\n      eq\n        /* \"#utility.yul\":621:684   */\n      tag_85\n      jumpi\n        /* \"#utility.yul\":680:681   */\n      0x00\n        /* \"#utility.yul\":677:678   */\n      0x00\n        /* \"#utility.yul\":670:682   */\n      revert\n        /* \"#utility.yul\":621:684   */\n    tag_85:\n        /* \"#utility.yul\":568:690   */\n      pop\n      jump\t// out\n        /* \"#utility.yul\":696:835   */\n    tag_57:\n        /* \"#utility.yul\":742:747   */\n      0x00\n        /* \"#utility.yul\":780:786   */\n      dup2\n        /* \"#utility.yul\":767:787   */\n      calldataload\n        /* \"#utility.yul\":758:787   */\n      swap1\n      pop\n        /* \"#utility.yul\":796:829   */\n      tag_87\n        /* \"#utility.yul\":823:828   */\n      dup2\n        /* \"#utility.yul\":796:829   */\n      tag_56\n      jump\t// in\n    tag_87:\n        /* \"#utility.yul\":696:835   */\n      swap3\n      swap2\n      pop\n      pop\n      jump\t// out\n        /* \"#utility.yul\":841:1170   */\n    tag_9:\n        /* \"#utility.yul\":900:906   */\n      0x00\n        /* \"#utility.yul\":949:951   */\n      0x20\n        /* \"#utility.yul\":937:946   */\n      dup3\n        /* \"#utility.yul\":928:935   */\n      dup5\n        /* \"#utility.yul\":924:947   */\n      sub\n        /* \"#utility.yul\":920:952   */\n      slt\n        /* \"#utility.yul\":917:1036   */\n      iszero\n      tag_89\n      jumpi\n        /* \"#utility.yul\":955:1034   */\n      tag_90\n      tag_52\n      jump\t// in\n    tag_90:\n        /* \"#utility.yul\":917:1036   */\n    tag_89:\n        /* \"#utility.yul\":1075:1076   */\n      0x00\n        /* \"#utility.yul\":1100:1153   */\n      tag_91\n        /* \"#utility.yul\":1145:1152   */\n      dup5\n        /* \"#utility.yul\":1136:1142   */\n      dup3\n        /* \"#utility.yul\":1125:1134   */\n      dup6\n        /* \"#utility.yul\":1121:1143   */\n      add\n        /* \"#utility.yul\":1100:1153   */\n      tag_57\n      jump\t// in\n    tag_91:\n        /* \"#utility.yul\":1090:1153   */\n      swap2\n      pop\n        /* \"#utility.yul\":1046:1163   */\n      pop\n        /* \"#utility.yul\":841:1170   */\n      swap3\n      swap2\n      pop\n      pop\n      jump\t// out\n        /* \"#utility.yul\":1176:1253   */\n    tag_58:\n        /* \"#utility.yul\":1213:1220   */\n      0x00\n        /* \"#utility.yul\":1242:1247   */\n      dup2\n        /* \"#utility.yul\":1231:1247   */\n      swap1\n      pop\n        /* \"#utility.yul\":1176:1253   */\n      swap2\n      swap1\n      pop\n      jump\t// out\n        /* \"#utility.yul\":1259:1377   */\n    tag_59:\n        /* \"#utility.yul\":1346:1370   */\n      tag_94\n        /* \"#utility.yul\":1364:1369   */\n      dup2\n        /* \"#utility.yul\":1346:1370   */\n      tag_58\n      jump\t// in\n    tag_94:\n        /* \"#utility.yul\":1341:1344   */\n      dup3\n        /* \"#utility.yul\":1334:1371   */\n      mstore\n        /* \"#utility.yul\":1259:1377   */\n      pop\n      pop\n      jump\t// out\n        /* \"#utility.yul\":1383:1473   */\n    tag_60:\n        /* \"#utility.yul\":1417:1424   */\n      0x00\n        /* \"#utility.yul\":1460:1465   */\n      dup2\n        /* \"#utility.yul\":1453:1466   */\n      iszero\n        /* \"#utility.yul\":1446:1467   */\n      iszero\n        /* \"#utility.yul\":1435:1467   */\n      swap1\n      pop\n        /* \"#utility.yul\":1383:1473   */\n      swap2\n      swap1\n      pop\n      jump\t// out\n        /* \"#utility.yul\":1479:1588   */\n    tag_61:\n        /* \"#utility.yul\":1560:1581   */\n      tag_97\n        /* \"#utility.yul\":1575:1580   */\n      dup2\n        /* \"#utility.yul\":1560:1581   */\n      tag_60\n      jump\t// in\n    tag_97:\n        /* \"#utility.yul\":1555:1558   */\n      dup3\n        /* \"#utility.yul\":1548:1582   */\n      mstore\n        /* \"#utility.yul\":1479:1588   */\n      pop\n      pop\n      jump\t// out\n        /* \"#utility.yul\":1594:1914   */\n    tag_12:\n        /* \"#utility.yul\":1709:1713   */\n      0x00\n        /* \"#utility.yul\":1747:1749   */\n      0x40\n        /* \"#utility.yul\":1736:1745   */\n      dup3\n        /* \"#utility.yul\":1732:1750   */\n      add\n        /* \"#utility.yul\":1724:1750   */\n      swap1\n      pop\n        /* \"#utility.yul\":1760:1831   */\n      tag_99\n        /* \"#utility.yul\":1828:1829   */\n      0x00\n        /* \"#utility.yul\":1817:1826   */\n      dup4\n        /* \"#utility.yul\":1813:1830   */\n      add\n        /* \"#utility.yul\":1804:1810   */\n      dup6\n        /* \"#utility.yul\":1760:1831   */\n      tag_59\n      jump\t// in\n    tag_99:\n        /* \"#utility.yul\":1841:1907   */\n      tag_100\n        /* \"#utility.yul\":1903:1905   */\n      0x20\n        /* \"#utility.yul\":1892:1901   */\n      dup4\n        /* \"#utility.yul\":1888:1906   */\n      add\n        /* \"#utility.yul\":1879:1885   */\n      dup5\n        /* \"#utility.yul\":1841:1907   */\n      tag_61\n      jump\t// in\n    tag_100:\n        /* \"#utility.yul\":1594:1914   */\n      swap4\n      swap3\n      pop\n      pop\n      pop\n      jump\t// out\n        /* \"#utility.yul\":1920:2142   */\n    tag_20:\n        /* \"#utility.yul\":2013:2017   */\n      0x00\n        /* \"#utility.yul\":2051:2053   */\n      0x20\n        /* \"#utility.yul\":2040:2049   */\n      dup3\n        /* \"#utility.yul\":2036:2054   */\n      add\n        /* \"#utility.yul\":2028:2054   */\n      swap1\n      pop\n        /* \"#utility.yul\":2064:2135   */\n      tag_102\n        /* \"#utility.yul\":2132:2133   */\n      0x00\n        /* \"#utility.yul\":2121:2130   */\n      dup4\n        /* \"#utility.yul\":2117:2134   */\n      add\n        /* \"#utility.yul\":2108:2114   */\n      dup5\n        /* \"#utility.yul\":2064:2135   */\n      tag_59\n      jump\t// in\n    tag_102:\n        /* \"#utility.yul\":1920:2142   */\n      swap3\n      swap2\n      pop\n      pop\n      jump\t// out\n        /* \"#utility.yul\":2148:2317   */\n    tag_62:\n        /* \"#utility.yul\":2232:2243   */\n      0x00\n        /* \"#utility.yul\":2266:2272   */\n      dup3\n        /* \"#utility.yul\":2261:2264   */\n      dup3\n        /* \"#utility.yul\":2254:2273   */\n      mstore\n        /* \"#utility.yul\":2306:2310   */\n      0x20\n        /* \"#utility.yul\":2301:2304   */\n      dup3\n        /* \"#utility.yul\":2297:2311   */\n      add\n        /* \"#utility.yul\":2282:2311   */\n      swap1\n      pop\n        /* \"#utility.yul\":2148:2317   */\n      swap3\n      swap2\n      pop\n      pop\n      jump\t// out\n        /* \"#utility.yul\":2323:2487   */\n    tag_63:\n        /* \"#utility.yul\":2463:2479   */\n      0x416c7265616479207061726b6564000000000000000000000000000000000000\n        /* \"#utility.yul\":2459:2460   */\n      0x00\n        /* \"#utility.yul\":2451:2457   */\n      dup3\n        /* \"#utility.yul\":2447:2461   */\n      add\n        /* \"#utility.yul\":2440:2480   */\n      mstore\n        /* \"#utility.yul\":2323:2487   */\n      pop\n      jump\t// out\n        /* \"#utility.yul\":2493:2859   */\n    tag_64:\n        /* \"#utility.yul\":2635:2638   */\n      0x00\n        /* \"#utility.yul\":2656:2723   */\n      tag_106\n        /* \"#utility.yul\":2720:2722   */\n      0x0e\n        /* \"#utility.yul\":2715:2718   */\n      dup4\n        /* \"#utility.yul\":2656:2723   */\n      tag_62\n      jump\t// in\n    tag_106:\n        /* \"#utility.yul\":2649:2723   */\n      swap2\n      pop\n        /* \"#utility.yul\":2732:2825   */\n      tag_107\n        /* \"#utility.yul\":2821:2824   */\n      dup3\n        /* \"#utility.yul\":2732:2825   */\n      tag_63\n      jump\t// in\n    tag_107:\n        /* \"#utility.yul\":2850:2852   */\n      0x20\n        /* \"#utility.yul\":2845:2848   */\n      dup3\n        /* \"#utility.yul\":2841:2853   */\n      add\n        /* \"#utility.yul\":2834:2853   */\n      swap1\n      pop\n        /* \"#utility.yul\":2493:2859   */\n      swap2\n      swap1\n      pop\n      jump\t// out\n        /* \"#utility.yul\":2865:3284   */\n    tag_26:\n        /* \"#utility.yul\":3031:3035   */\n      0x00\n        /* \"#utility.yul\":3069:3071   */\n      0x20\n        /* \"#utility.yul\":3058:3067   */\n      dup3\n        /* \"#utility.yul\":3054:3072   */\n      add\n        /* \"#utility.yul\":3046:3072   */\n      swap1\n      pop\n        /* \"#utility.yul\":3118:3127   */\n      dup2\n        /* \"#utility.yul\":3112:3116   */\n      dup2\n        /* \"#utility.yul\":3108:3128   */\n      sub\n        /* \"#utility.yul\":3104:3105   */\n      0x00\n        /* \"#utility.yul\":3093:3102   */\n      dup4\n        /* \"#utility.yul\":3089:3106   */\n      add\n        /* \"#utility.yul\":3082:3129   */\n      mstore\n        /* \"#utility.yul\":3146:3277   */\n      tag_109\n        /* \"#utility.yul\":3272:3276   */\n      dup2\n        /* \"#utility.yul\":3146:3277   */\n      tag_64\n      jump\t// in\n    tag_109:\n        /* \"#utility.yul\":3138:3277   */\n      swap1\n      pop\n        /* \"#utility.yul\":2865:3284   */\n      swap2\n      swap1\n      pop\n      jump\t// out\n        /* \"#utility.yul\":3290:3450   */\n    tag_65:\n        /* \"#utility.yul\":3430:3442   */\n      0x4e6f74207061726b656400000000000000000000000000000000000000000000\n        /* \"#utility.yul\":3426:3427   */\n      0x00\n        /* \"#utility.yul\":3418:3424   */\n      dup3\n        /* \"#utility.yul\":3414:3428   */\n      add\n        /* \"#utility.yul\":3407:3443   */\n      mstore\n        /* \"#utility.yul\":3290:3450   */\n      pop\n      jump\t// out\n        /* \"#utility.yul\":3456:3822   */\n    tag_66:\n        /* \"#utility.yul\":3598:3601   */\n      0x00\n        /* \"#utility.yul\":3619:3686   */\n      tag_112\n        /* \"#utility.yul\":3683:3685   */\n      0x0a\n        /* \"#utility.yul\":3678:3681   */\n      dup4\n        /* \"#utility.yul\":3619:3686   */\n      tag_62\n      jump\t// in\n    tag_112:\n        /* \"#utility.yul\":3612:3686   */\n      swap2\n      pop\n        /* \"#utility.yul\":3695:3788   */\n      tag_113\n        /* \"#utility.yul\":3784:3787   */\n      dup3\n        /* \"#utility.yul\":3695:3788   */\n      tag_65\n      jump\t// in\n    tag_113:\n        /* \"#utility.yul\":3813:3815   */\n      0x20\n        /* \"#utility.yul\":3808:3811   */\n      dup3\n        /* \"#utility.yul\":3804:3816   */\n      add\n        /* \"#utility.yul\":3797:3816   */\n      swap1\n      pop\n        /* \"#utility.yul\":3456:3822   */\n      swap2\n      swap1\n      pop\n      jump\t// out\n        /* \"#utility.yul\":3828:4247   */\n    tag_30:\n        /* \"#utility.yul\":3994:3998   */\n      0x00\n        /* \"#utility.yul\":4032:4034   */\n      0x20\n        /* \"#utility.yul\":4021:4030   */\n      dup3\n        /* \"#utility.yul\":4017:4035   */\n      add\n        /* \"#utility.yul\":4009:4035   */\n      swap1\n      pop\n        /* \"#utility.yul\":4081:4090   */\n      dup2\n        /* \"#utility.yul\":4075:4079   */\n      dup2\n        /* \"#utility.yul\":4071:4091   */\n      sub\n        /* \"#utility.yul\":4067:4068   */\n      0x00\n        /* \"#utility.yul\":4056:4065   */\n      dup4\n        /* \"#utility.yul\":4052:4069   */\n      add\n        /* \"#utility.yul\":4045:4092   */\n      mstore\n        /* \"#utility.yul\":4109:4240   */\n      tag_115\n        /* \"#utility.yul\":4235:4239   */\n      dup2\n        /* \"#utility.yul\":4109:4240   */\n      tag_66\n      jump\t// in\n    tag_115:\n        /* \"#utility.yul\":4101:4240   */\n      swap1\n      pop\n        /* \"#utility.yul\":3828:4247   */\n      swap2\n      swap1\n      pop\n      jump\t// out\n        /* \"#utility.yul\":4253:4433   */\n    tag_67:\n        /* \"#utility.yul\":4301:4378   */\n      0x4e487b7100000000000000000000000000000000000000000000000000000000\n        /* \"#utility.yul\":4298:4299   */\n      0x00\n        /* \"#utility.yul\":4291:4379   */\n      mstore\n        /* \"#utility.yul\":4398:4402   */\n      0x11\n        /* \"#utility.yul\":4395:4396   */\n      0x04\n        /* \"#utility.yul\":4388:4403   */\n      mstore\n        /* \"#utility.yul\":4422:4426   */\n      0x24\n        /* \"#utility.yul\":4419:4420   */\n      0x00\n        /* \"#utility.yul\":4412:4427   */\n      revert\n        /* \"#utility.yul\":4439:4633   */\n    tag_32:\n        /* \"#utility.yul\":4479:4483   */\n      0x00\n        /* \"#utility.yul\":4499:4519   */\n      tag_118\n        /* \"#utility.yul\":4517:4518   */\n      dup3\n        /* \"#utility.yul\":4499:4519   */\n      tag_58\n      jump\t// in\n    tag_118:\n        /* \"#utility.yul\":4494:4519   */\n      swap2\n      pop\n        /* \"#utility.yul\":4533:4553   */\n      tag_119\n        /* \"#utility.yul\":4551:4552   */\n      dup4\n        /* \"#utility.yul\":4533:4553   */\n      tag_58\n      jump\t// in\n    tag_119:\n        /* \"#utility.yul\":4528:4553   */\n      swap3\n      pop\n        /* \"#utility.yul\":4577:4578   */\n      dup3\n        /* \"#utility.yul\":4574:4575   */\n      dup3\n        /* \"#utility.yul\":4570:4579   */\n      sub\n        /* \"#utility.yul\":4562:4579   */\n      swap1\n      pop\n        /* \"#utility.yul\":4601:4602   */\n      dup2\n        /* \"#utility.yul\":4595:4599   */\n      dup2\n        /* \"#utility.yul\":4592:4603   */\n      gt\n        /* \"#utility.yul\":4589:4626   */\n      iszero\n      tag_120\n      jumpi\n        /* \"#utility.yul\":4606:4624   */\n      tag_121\n      tag_67\n      jump\t// in\n    tag_121:\n        /* \"#utility.yul\":4589:4626   */\n    tag_120:\n        /* \"#utility.yul\":4439:4633   */\n      swap3\n      swap2\n      pop\n      pop\n      jump\t// out\n        /* \"#utility.yul\":4639:4819   */\n    tag_68:\n        /* \"#utility.yul\":4687:4764   */\n      0x4e487b7100000000000000000000000000000000000000000000000000000000\n        /* \"#utility.yul\":4684:4685   */\n      0x00\n        /* \"#utility.yul\":4677:4765   */\n      mstore\n        /* \"#utility.yul\":4784:4788   */\n      0x12\n        /* \"#utility.yul\":4781:4782   */\n      0x04\n        /* \"#utility.yul\":4774:4789   */\n      mstore\n        /* \"#utility.yul\":4808:4812   */\n      0x24\n        /* \"#utility.yul\":4805:4806   */\n      0x00\n        /* \"#utility.yul\":4798:4813   */\n      revert\n        /* \"#utility.yul\":4825:5010   */\n    tag_34:\n        /* \"#utility.yul\":4865:4866   */\n      0x00\n        /* \"#utility.yul\":4882:4902   */\n      tag_124\n        /* \"#utility.yul\":4900:4901   */\n      dup3\n        /* \"#utility.yul\":4882:4902   */\n      tag_58\n      jump\t// in\n    tag_124:\n        /* \"#utility.yul\":4877:4902   */\n      swap2\n      pop\n        /* \"#utility.yul\":4916:4936   */\n      tag_125\n        /* \"#utility.yul\":4934:4935   */\n      dup4\n        /* \"#utility.yul\":4916:4936   */\n      tag_58\n      jump\t// in\n    tag_125:\n        /* \"#utility.yul\":4911:4936   */\n      swap3\n      pop\n        /* \"#utility.yul\":4955:4956   */\n      dup3\n        /* \"#utility.yul\":4945:4980   */\n      tag_126\n      jumpi\n        /* \"#utility.yul\":4960:4978   */\n      tag_127\n      tag_68\n      jump\t// in\n    tag_127:\n        /* \"#utility.yul\":4945:4980   */\n    tag_126:\n        /* \"#utility.yul\":5002:5003   */\n      dup3\n        /* \"#utility.yul\":4999:5000   */\n      dup3\n        /* \"#utility.yul\":4995:5004   */\n      div\n        /* \"#utility.yul\":4990:5004   */\n      swap1\n      pop\n        /* \"#utility.yul\":4825:5010   */\n      swap3\n      swap2\n      pop\n      pop\n      jump\t// out\n        /* \"#utility.yul\":5016:5426   */\n    tag_37:\n        /* \"#utility.yul\":5056:5063   */\n      0x00\n        /* \"#utility.yul\":5079:5099   */\n      tag_129\n        /* \"#utility.yul\":5097:5098   */\n      dup3\n        /* \"#utility.yul\":5079:5099   */\n      tag_58\n      jump\t// in\n    tag_129:\n        /* \"#utility.yul\":5074:5099   */\n      swap2\n      pop\n        /* \"#utility.yul\":5113:5133   */\n      tag_130\n        /* \"#utility.yul\":5131:5132   */\n      dup4\n        /* \"#utility.yul\":5113:5133   */\n      tag_58\n      jump\t// in\n    tag_130:\n        /* \"#utility.yul\":5108:5133   */\n      swap3\n      pop\n        /* \"#utility.yul\":5168:5169   */\n      dup3\n        /* \"#utility.yul\":5165:5166   */\n      dup3\n        /* \"#utility.yul\":5161:5170   */\n      mul\n        /* \"#utility.yul\":5190:5220   */\n      tag_131\n        /* \"#utility.yul\":5208:5219   */\n      dup2\n        /* \"#utility.yul\":5190:5220   */\n      tag_58\n      jump\t// in\n    tag_131:\n        /* \"#utility.yul\":5179:5220   */\n      swap2\n      pop\n        /* \"#utility.yul\":5369:5370   */\n      dup3\n        /* \"#utility.yul\":5360:5367   */\n      dup3\n        /* \"#utility.yul\":5356:5371   */\n      div\n        /* \"#utility.yul\":5353:5354   */\n      dup5\n        /* \"#utility.yul\":5350:5372   */\n      eq\n        /* \"#utility.yul\":5330:5331   */\n      dup4\n        /* \"#utility.yul\":5323:5332   */\n      iszero\n        /* \"#utility.yul\":5303:5386   */\n      or\n        /* \"#utility.yul\":5280:5419   */\n      tag_132\n      jumpi\n        /* \"#utility.yul\":5399:5417   */\n      tag_133\n      tag_67\n      jump\t// in\n    tag_133:\n        /* \"#utility.yul\":5280:5419   */\n    tag_132:\n        /* \"#utility.yul\":5064:5426   */\n      pop\n        /* \"#utility.yul\":5016:5426   */\n      swap3\n      swap2\n      pop\n      pop\n      jump\t// out\n        /* \"#utility.yul\":5432:5602   */\n    tag_69:\n        /* \"#utility.yul\":5572:5594   */\n      0x496e73756666696369656e74207061796d656e74000000000000000000000000\n        /* \"#utility.yul\":5568:5569   */\n      0x00\n        /* \"#utility.yul\":5560:5566   */\n      dup3\n        /* \"#utility.yul\":5556:5570   */\n      add\n        /* \"#utility.yul\":5549:5595   */\n      mstore\n        /* \"#utility.yul\":5432:5602   */\n      pop\n      jump\t// out\n        /* \"#utility.yul\":5608:5974   */\n    tag_70:\n        /* \"#utility.yul\":5750:5753   */\n      0x00\n        /* \"#utility.yul\":5771:5838   */\n      tag_136\n        /* \"#utility.yul\":5835:5837   */\n      0x14\n        /* \"#utility.yul\":5830:5833   */\n      dup4\n        /* \"#utility.yul\":5771:5838   */\n      tag_62\n      jump\t// in\n    tag_136:\n        /* \"#utility.yul\":5764:5838   */\n      swap2\n      pop\n        /* \"#utility.yul\":5847:5940   */\n      tag_137\n        /* \"#utility.yul\":5936:5939   */\n      dup3\n        /* \"#utility.yul\":5847:5940   */\n      tag_69\n      jump\t// in\n    tag_137:\n        /* \"#utility.yul\":5965:5967   */\n      0x20\n        /* \"#utility.yul\":5960:5963   */\n      dup3\n        /* \"#utility.yul\":5956:5968   */\n      add\n        /* \"#utility.yul\":5949:5968   */\n      swap1\n      pop\n        /* \"#utility.yul\":5608:5974   */\n      swap2\n      swap1\n      pop\n      jump\t// out\n        /* \"#utility.yul\":5980:6399   */\n    tag_40:\n        /* \"#utility.yul\":6146:6150   */\n      0x00\n        /* \"#utility.yul\":6184:6186   */\n      0x20\n        /* \"#utility.yul\":6173:6182   */\n      dup3\n        /* \"#utility.yul\":6169:6187   */\n      add\n        /* \"#utility.yul\":6161:6187   */\n      swap1\n      pop\n        /* \"#utility.yul\":6233:6242   */\n      dup2\n        /* \"#utility.yul\":6227:6231   */\n      dup2\n        /* \"#utility.yul\":6223:6243   */\n      sub\n        /* \"#utility.yul\":6219:6220   */\n      0x00\n        /* \"#utility.yul\":6208:6217   */\n      dup4\n        /* \"#utility.yul\":6204:6221   */\n      add\n        /* \"#utility.yul\":6197:6244   */\n      mstore\n        /* \"#utility.yul\":6261:6392   */\n      tag_139\n        /* \"#utility.yul\":6387:6391   */\n      dup2\n        /* \"#utility.yul\":6261:6392   */\n      tag_70\n      jump\t// in\n    tag_139:\n        /* \"#utility.yul\":6253:6392   */\n      swap1\n      pop\n        /* \"#utility.yul\":5980:6399   */\n      swap2\n      swap1\n      pop\n      jump\t// out\n        /* \"#utility.yul\":6405:6552   */\n    tag_71:\n        /* \"#utility.yul\":6506:6517   */\n      0x00\n        /* \"#utility.yul\":6543:6546   */\n      dup2\n        /* \"#utility.yul\":6528:6546   */\n      swap1\n      pop\n        /* \"#utility.yul\":6405:6552   */\n      swap3\n      swap2\n      pop\n      pop\n      jump\t// out\n        /* \"#utility.yul\":6558:6672   */\n    tag_72:\n      pop\n      jump\t// out\n        /* \"#utility.yul\":6678:7076   */\n    tag_73:\n        /* \"#utility.yul\":6837:6840   */\n      0x00\n        /* \"#utility.yul\":6858:6941   */\n      tag_143\n        /* \"#utility.yul\":6939:6940   */\n      0x00\n        /* \"#utility.yul\":6934:6937   */\n      dup4\n        /* \"#utility.yul\":6858:6941   */\n      tag_71\n      jump\t// in\n    tag_143:\n        /* \"#utility.yul\":6851:6941   */\n      swap2\n      pop\n        /* \"#utility.yul\":6950:7043   */\n      tag_144\n        /* \"#utility.yul\":7039:7042   */\n      dup3\n        /* \"#utility.yul\":6950:7043   */\n      tag_72\n      jump\t// in\n    tag_144:\n        /* \"#utility.yul\":7068:7069   */\n      0x00\n        /* \"#utility.yul\":7063:7066   */\n      dup3\n        /* \"#utility.yul\":7059:7070   */\n      add\n        /* \"#utility.yul\":7052:7070   */\n      swap1\n      pop\n        /* \"#utility.yul\":6678:7076   */\n      swap2\n      swap1\n      pop\n      jump\t// out\n        /* \"#utility.yul\":7082:7461   */\n    tag_44:\n        /* \"#utility.yul\":7266:7269   */\n      0x00\n        /* \"#utility.yul\":7288:7435   */\n      tag_146\n        /* \"#utility.yul\":7431:7434   */\n      dup3\n        /* \"#utility.yul\":7288:7435   */\n      tag_73\n      jump\t// in\n    tag_146:\n        /* \"#utility.yul\":7281:7435   */\n      swap2\n      pop\n        /* \"#utility.yul\":7452:7455   */\n      dup2\n        /* \"#utility.yul\":7445:7455   */\n      swap1\n      pop\n        /* \"#utility.yul\":7082:7461   */\n      swap2\n      swap1\n      pop\n      jump\t// out\n        /* \"#utility.yul\":7467:7630   */\n    tag_74:\n        /* \"#utility.yul\":7607:7622   */\n      0x526566756e64206661696c656400000000000000000000000000000000000000\n        /* \"#utility.yul\":7603:7604   */\n      0x00\n        /* \"#utility.yul\":7595:7601   */\n      dup3\n        /* \"#utility.yul\":7591:7605   */\n      add\n        /* \"#utility.yul\":7584:7623   */\n      mstore\n        /* \"#utility.yul\":7467:7630   */\n      pop\n      jump\t// out\n        /* \"#utility.yul\":7636:8002   */\n    tag_75:\n        /* \"#utility.yul\":7778:7781   */\n      0x00\n        /* \"#utility.yul\":7799:7866   */\n      tag_149\n        /* \"#utility.yul\":7863:7865   */\n      0x0d\n        /* \"#utility.yul\":7858:7861   */\n      dup4\n        /* \"#utility.yul\":7799:7866   */\n      tag_62\n      jump\t// in\n    tag_149:\n        /* \"#utility.yul\":7792:7866   */\n      swap2\n      pop\n        /* \"#utility.yul\":7875:7968   */\n      tag_150\n        /* \"#utility.yul\":7964:7967   */\n      dup3\n        /* \"#utility.yul\":7875:7968   */\n      tag_74\n      jump\t// in\n    tag_150:\n        /* \"#utility.yul\":7993:7995   */\n      0x20\n        /* \"#utility.yul\":7988:7991   */\n      dup3\n        /* \"#utility.yul\":7984:7996   */\n      add\n        /* \"#utility.yul\":7977:7996   */\n      swap1\n      pop\n        /* \"#utility.yul\":7636:8002   */\n      swap2\n      swap1\n      pop\n      jump\t// out\n        /* \"#utility.yul\":8008:8427   */\n    tag_50:\n        /* \"#utility.yul\":8174:8178   */\n      0x00\n        /* \"#utility.yul\":8212:8214   */\n      0x20\n        /* \"#utility.yul\":8201:8210   */\n      dup3\n        /* \"#utility.yul\":8197:8215   */\n      add\n        /* \"#utility.yul\":8189:8215   */\n      swap1\n      pop\n        /* \"#utility.yul\":8261:8270   */\n      dup2\n        /* \"#utility.yul\":8255:8259   */\n      dup2\n        /* \"#utility.yul\":8251:8271   */\n      sub\n        /* \"#utility.yul\":8247:8248   */\n      0x00\n        /* \"#utility.yul\":8236:8245   */\n      dup4\n        /* \"#utility.yul\":8232:8249   */\n      add\n        /* \"#utility.yul\":8225:8272   */\n      mstore\n        /* \"#utility.yul\":8289:8420   */\n      tag_152\n        /* \"#utility.yul\":8415:8419   */\n      dup2\n        /* \"#utility.yul\":8289:8420   */\n      tag_75\n      jump\t// in\n    tag_152:\n        /* \"#utility.yul\":8281:8420   */\n      swap1\n      pop\n        /* \"#utility.yul\":8008:8427   */\n      swap2\n      swap1\n      pop\n      jump\t// out\n\n    auxdata: 0xa26469706673582212204c412d9399dc8cbe827609af5b7b9ec080a46771bd1c7aa12470eebf8e745aa564736f6c634300081f0033\n}\n",
				"bytecode": {
					"linkReferences": {},
					"object": "6080604052670de0b6b3a7640000600155348015601a575f5ffd5b50610816806100285f395ff3fe60806040526004361061003e575f3560e01c8063028e7768146100425780631ac21dd61461007f57806359a7b3fe14610095578063be46026d146100bf575b5f5ffd5b34801561004d575f5ffd5b5061006860048036038101906100639190610454565b6100c9565b6040516100769291906104b1565b60405180910390f35b34801561008a575f5ffd5b506100936100f4565b005b3480156100a0575f5ffd5b506100a9610200565b6040516100b691906104d8565b60405180910390f35b6100c7610206565b005b5f602052805f5260405f205f91509050805f015490806001015f9054906101000a900460ff16905082565b5f5f3373ffffffffffffffffffffffffffffffffffffffff1673ffffffffffffffffffffffffffffffffffffffff1681526020019081526020015f206001015f9054906101000a900460ff1615610180576040517f08c379a00000000000000000000000000000000000000000000000000000000081526004016101779061054b565b60405180910390fd5b6040518060400160405280428152602001600115158152505f5f3373ffffffffffffffffffffffffffffffffffffffff1673ffffffffffffffffffffffffffffffffffffffff1681526020019081526020015f205f820151815f01556020820151816001015f6101000a81548160ff021916908315150217905550905050565b60015481565b5f5f5f3373ffffffffffffffffffffffffffffffffffffffff1673ffffffffffffffffffffffffffffffffffffffff1681526020019081526020015f209050806001015f9054906101000a900460ff16610295576040517f08c379a000000000000000000000000000000000000000000000000000000000815260040161028c906105b3565b60405180910390fd5b5f815f0154426102a591906105fe565b90505f610e10826102b6919061065e565b90505f81036102c457600190505b5f600154826102d3919061068e565b905080341015610318576040517f08c379a000000000000000000000000000000000000000000000000000000000815260040161030f90610719565b60405180910390fd5b5f846001015f6101000a81548160ff021916908315150217905550803411156103f0575f3373ffffffffffffffffffffffffffffffffffffffff16823461035f91906105fe565b60405161036b90610764565b5f6040518083038185875af1925050503d805f81146103a5576040519150601f19603f3d011682016040523d82523d5f602084013e6103aa565b606091505b50509050806103ee576040517f08c379a00000000000000000000000000000000000000000000000000000000081526004016103e5906107c2565b60405180910390fd5b505b50505050565b5f5ffd5b5f73ffffffffffffffffffffffffffffffffffffffff82169050919050565b5f610423826103fa565b9050919050565b61043381610419565b811461043d575f5ffd5b50565b5f8135905061044e8161042a565b92915050565b5f60208284031215610469576104686103f6565b5b5f61047684828501610440565b91505092915050565b5f819050919050565b6104918161047f565b82525050565b5f8115159050919050565b6104ab81610497565b82525050565b5f6040820190506104c45f830185610488565b6104d160208301846104a2565b9392505050565b5f6020820190506104eb5f830184610488565b92915050565b5f82825260208201905092915050565b7f416c7265616479207061726b65640000000000000000000000000000000000005f82015250565b5f610535600e836104f1565b915061054082610501565b602082019050919050565b5f6020820190508181035f83015261056281610529565b9050919050565b7f4e6f74207061726b6564000000000000000000000000000000000000000000005f82015250565b5f61059d600a836104f1565b91506105a882610569565b602082019050919050565b5f6020820190508181035f8301526105ca81610591565b9050919050565b7f4e487b71000000000000000000000000000000000000000000000000000000005f52601160045260245ffd5b5f6106088261047f565b91506106138361047f565b925082820390508181111561062b5761062a6105d1565b5b92915050565b7f4e487b71000000000000000000000000000000000000000000000000000000005f52601260045260245ffd5b5f6106688261047f565b91506106738361047f565b92508261068357610682610631565b5b828204905092915050565b5f6106988261047f565b91506106a38361047f565b92508282026106b18161047f565b915082820484148315176106c8576106c76105d1565b5b5092915050565b7f496e73756666696369656e74207061796d656e740000000000000000000000005f82015250565b5f6107036014836104f1565b915061070e826106cf565b602082019050919050565b5f6020820190508181035f830152610730816106f7565b9050919050565b5f81905092915050565b50565b5f61074f5f83610737565b915061075a82610741565b5f82019050919050565b5f61076e82610744565b9150819050919050565b7f526566756e64206661696c6564000000000000000000000000000000000000005f82015250565b5f6107ac600d836104f1565b91506107b782610778565b602082019050919050565b5f6020820190508181035f8301526107d9816107a0565b905091905056fea26469706673582212204c412d9399dc8cbe827609af5b7b9ec080a46771bd1c7aa12470eebf8e745aa564736f6c634300081f0033",
					"opcodes": "PUSH1 0x80 PUSH1 0x40 MSTORE PUSH8 0xDE0B6B3A7640000 PUSH1 0x1 SSTORE CALLVALUE DUP1 ISZERO PUSH1 0x1A JUMPI PUSH0 PUSH0 REVERT JUMPDEST POP PUSH2 0x816 DUP1 PUSH2 0x28 PUSH0 CODECOPY PUSH0 RETURN INVALID PUSH1 0x80 PUSH1 0x40 MSTORE PUSH1 0x4 CALLDATASIZE LT PUSH2 0x3E JUMPI PUSH0 CALLDATALOAD PUSH1 0xE0 SHR DUP1 PUSH4 0x28E7768 EQ PUSH2 0x42 JUMPI DUP1 PUSH4 0x1AC21DD6 EQ PUSH2 0x7F JUMPI DUP1 PUSH4 0x59A7B3FE EQ PUSH2 0x95 JUMPI DUP1 PUSH4 0xBE46026D EQ PUSH2 0xBF JUMPI JUMPDEST PUSH0 PUSH0 REVERT JUMPDEST CALLVALUE DUP1 ISZERO PUSH2 0x4D JUMPI PUSH0 PUSH0 REVERT JUMPDEST POP PUSH2 0x68 PUSH1 0x4 DUP1 CALLDATASIZE SUB DUP2 ADD SWAP1 PUSH2 0x63 SWAP2 SWAP1 PUSH2 0x454 JUMP JUMPDEST PUSH2 0xC9 JUMP JUMPDEST PUSH1 0x40 MLOAD PUSH2 0x76 SWAP3 SWAP2 SWAP1 PUSH2 0x4B1 JUMP JUMPDEST PUSH1 0x40 MLOAD DUP1 SWAP2 SUB SWAP1 RETURN JUMPDEST CALLVALUE DUP1 ISZERO PUSH2 0x8A JUMPI PUSH0 PUSH0 REVERT JUMPDEST POP PUSH2 0x93 PUSH2 0xF4 JUMP JUMPDEST STOP JUMPDEST CALLVALUE DUP1 ISZERO PUSH2 0xA0 JUMPI PUSH0 PUSH0 REVERT JUMPDEST POP PUSH2 0xA9 PUSH2 0x200 JUMP JUMPDEST PUSH1 0x40 MLOAD PUSH2 0xB6 SWAP2 SWAP1 PUSH2 0x4D8 JUMP JUMPDEST PUSH1 0x40 MLOAD DUP1 SWAP2 SUB SWAP1 RETURN JUMPDEST PUSH2 0xC7 PUSH2 0x206 JUMP JUMPDEST STOP JUMPDEST PUSH0 PUSH1 0x20 MSTORE DUP1 PUSH0 MSTORE PUSH1 0x40 PUSH0 KECCAK256 PUSH0 SWAP2 POP SWAP1 POP DUP1 PUSH0 ADD SLOAD SWAP1 DUP1 PUSH1 0x1 ADD PUSH0 SWAP1 SLOAD SWAP1 PUSH2 0x100 EXP SWAP1 DIV PUSH1 0xFF AND SWAP1 POP DUP3 JUMP JUMPDEST PUSH0 PUSH0 CALLER PUSH20 0xFFFFFFFFFFFFFFFFFFFFFFFFFFFFFFFFFFFFFFFF AND PUSH20 0xFFFFFFFFFFFFFFFFFFFFFFFFFFFFFFFFFFFFFFFF AND DUP2 MSTORE PUSH1 0x20 ADD SWAP1 DUP2 MSTORE PUSH1 0x20 ADD PUSH0 KECCAK256 PUSH1 0x1 ADD PUSH0 SWAP1 SLOAD SWAP1 PUSH2 0x100 EXP SWAP1 DIV PUSH1 0xFF AND ISZERO PUSH2 0x180 JUMPI PUSH1 0x40 MLOAD PUSH32 0x8C379A000000000000000000000000000000000000000000000000000000000 DUP2 MSTORE PUSH1 0x4 ADD PUSH2 0x177 SWAP1 PUSH2 0x54B JUMP JUMPDEST PUSH1 0x40 MLOAD DUP1 SWAP2 SUB SWAP1 REVERT JUMPDEST PUSH1 0x40 MLOAD DUP1 PUSH1 0x40 ADD PUSH1 0x40 MSTORE DUP1 TIMESTAMP DUP2 MSTORE PUSH1 0x20 ADD PUSH1 0x1 ISZERO ISZERO DUP2 MSTORE POP PUSH0 PUSH0 CALLER PUSH20 0xFFFFFFFFFFFFFFFFFFFFFFFFFFFFFFFFFFFFFFFF AND PUSH20 0xFFFFFFFFFFFFFFFFFFFFFFFFFFFFFFFFFFFFFFFF AND DUP2 MSTORE PUSH1 0x20 ADD SWAP1 DUP2 MSTORE PUSH1 0x20 ADD PUSH0 KECCAK256 PUSH0 DUP3 ADD MLOAD DUP2 PUSH0 ADD SSTORE PUSH1 0x20 DUP3 ADD MLOAD DUP2 PUSH1 0x1 ADD PUSH0 PUSH2 0x100 EXP DUP2 SLOAD DUP2 PUSH1 0xFF MUL NOT AND SWAP1 DUP4 ISZERO ISZERO MUL OR SWAP1 SSTORE POP SWAP1 POP POP JUMP JUMPDEST PUSH1 0x1 SLOAD DUP2 JUMP JUMPDEST PUSH0 PUSH0 PUSH0 CALLER PUSH20 0xFFFFFFFFFFFFFFFFFFFFFFFFFFFFFFFFFFFFFFFF AND PUSH20 0xFFFFFFFFFFFFFFFFFFFFFFFFFFFFFFFFFFFFFFFF AND DUP2 MSTORE PUSH1 0x20 ADD SWAP1 DUP2 MSTORE PUSH1 0x20 ADD PUSH0 KECCAK256 SWAP1 POP DUP1 PUSH1 0x1 ADD PUSH0 SWAP1 SLOAD SWAP1 PUSH2 0x100 EXP SWAP1 DIV PUSH1 0xFF AND PUSH2 0x295 JUMPI PUSH1 0x40 MLOAD PUSH32 0x8C379A000000000000000000000000000000000000000000000000000000000 DUP2 MSTORE PUSH1 0x4 ADD PUSH2 0x28C SWAP1 PUSH2 0x5B3 JUMP JUMPDEST PUSH1 0x40 MLOAD DUP1 SWAP2 SUB SWAP1 REVERT JUMPDEST PUSH0 DUP2 PUSH0 ADD SLOAD TIMESTAMP PUSH2 0x2A5 SWAP2 SWAP1 PUSH2 0x5FE JUMP JUMPDEST SWAP1 POP PUSH0 PUSH2 0xE10 DUP3 PUSH2 0x2B6 SWAP2 SWAP1 PUSH2 0x65E JUMP JUMPDEST SWAP1 POP PUSH0 DUP2 SUB PUSH2 0x2C4 JUMPI PUSH1 0x1 SWAP1 POP JUMPDEST PUSH0 PUSH1 0x1 SLOAD DUP3 PUSH2 0x2D3 SWAP2 SWAP1 PUSH2 0x68E JUMP JUMPDEST SWAP1 POP DUP1 CALLVALUE LT ISZERO PUSH2 0x318 JUMPI PUSH1 0x40 MLOAD PUSH32 0x8C379A000000000000000000000000000000000000000000000000000000000 DUP2 MSTORE PUSH1 0x4 ADD PUSH2 0x30F SWAP1 PUSH2 0x719 JUMP JUMPDEST PUSH1 0x40 MLOAD DUP1 SWAP2 SUB SWAP1 REVERT JUMPDEST PUSH0 DUP5 PUSH1 0x1 ADD PUSH0 PUSH2 0x100 EXP DUP2 SLOAD DUP2 PUSH1 0xFF MUL NOT AND SWAP1 DUP4 ISZERO ISZERO MUL OR SWAP1 SSTORE POP DUP1 CALLVALUE GT ISZERO PUSH2 0x3F0 JUMPI PUSH0 CALLER PUSH20 0xFFFFFFFFFFFFFFFFFFFFFFFFFFFFFFFFFFFFFFFF AND DUP3 CALLVALUE PUSH2 0x35F SWAP2 SWAP1 PUSH2 0x5FE JUMP JUMPDEST PUSH1 0x40 MLOAD PUSH2 0x36B SWAP1 PUSH2 0x764 JUMP JUMPDEST PUSH0 PUSH1 0x40 MLOAD DUP1 DUP4 SUB DUP2 DUP6 DUP8 GAS CALL SWAP3 POP POP POP RETURNDATASIZE DUP1 PUSH0 DUP2 EQ PUSH2 0x3A5 JUMPI PUSH1 0x40 MLOAD SWAP2 POP PUSH1 0x1F NOT PUSH1 0x3F RETURNDATASIZE ADD AND DUP3 ADD PUSH1 0x40 MSTORE RETURNDATASIZE DUP3 MSTORE RETURNDATASIZE PUSH0 PUSH1 0x20 DUP5 ADD RETURNDATACOPY PUSH2 0x3AA JUMP JUMPDEST PUSH1 0x60 SWAP2 POP JUMPDEST POP POP SWAP1 POP DUP1 PUSH2 0x3EE JUMPI PUSH1 0x40 MLOAD PUSH32 0x8C379A000000000000000000000000000000000000000000000000000000000 DUP2 MSTORE PUSH1 0x4 ADD PUSH2 0x3E5 SWAP1 PUSH2 0x7C2 JUMP JUMPDEST PUSH1 0x40 MLOAD DUP1 SWAP2 SUB SWAP1 REVERT JUMPDEST POP JUMPDEST POP POP POP POP JUMP JUMPDEST PUSH0 PUSH0 REVERT JUMPDEST PUSH0 PUSH20 0xFFFFFFFFFFFFFFFFFFFFFFFFFFFFFFFFFFFFFFFF DUP3 AND SWAP1 POP SWAP2 SWAP1 POP JUMP JUMPDEST PUSH0 PUSH2 0x423 DUP3 PUSH2 0x3FA JUMP JUMPDEST SWAP1 POP SWAP2 SWAP1 POP JUMP JUMPDEST PUSH2 0x433 DUP2 PUSH2 0x419 JUMP JUMPDEST DUP2 EQ PUSH2 0x43D JUMPI PUSH0 PUSH0 REVERT JUMPDEST POP JUMP JUMPDEST PUSH0 DUP2 CALLDATALOAD SWAP1 POP PUSH2 0x44E DUP2 PUSH2 0x42A JUMP JUMPDEST SWAP3 SWAP2 POP POP JUMP JUMPDEST PUSH0 PUSH1 0x20 DUP3 DUP5 SUB SLT ISZERO PUSH2 0x469 JUMPI PUSH2 0x468 PUSH2 0x3F6 JUMP JUMPDEST JUMPDEST PUSH0 PUSH2 0x476 DUP5 DUP3 DUP6 ADD PUSH2 0x440 JUMP JUMPDEST SWAP2 POP POP SWAP3 SWAP2 POP POP JUMP JUMPDEST PUSH0 DUP2 SWAP1 POP SWAP2 SWAP1 POP JUMP JUMPDEST PUSH2 0x491 DUP2 PUSH2 0x47F JUMP JUMPDEST DUP3 MSTORE POP POP JUMP JUMPDEST PUSH0 DUP2 ISZERO ISZERO SWAP1 POP SWAP2 SWAP1 POP JUMP JUMPDEST PUSH2 0x4AB DUP2 PUSH2 0x497 JUMP JUMPDEST DUP3 MSTORE POP POP JUMP JUMPDEST PUSH0 PUSH1 0x40 DUP3 ADD SWAP1 POP PUSH2 0x4C4 PUSH0 DUP4 ADD DUP6 PUSH2 0x488 JUMP JUMPDEST PUSH2 0x4D1 PUSH1 0x20 DUP4 ADD DUP5 PUSH2 0x4A2 JUMP JUMPDEST SWAP4 SWAP3 POP POP POP JUMP JUMPDEST PUSH0 PUSH1 0x20 DUP3 ADD SWAP1 POP PUSH2 0x4EB PUSH0 DUP4 ADD DUP5 PUSH2 0x488 JUMP JUMPDEST SWAP3 SWAP2 POP POP JUMP JUMPDEST PUSH0 DUP3 DUP3 MSTORE PUSH1 0x20 DUP3 ADD SWAP1 POP SWAP3 SWAP2 POP POP JUMP JUMPDEST PUSH32 0x416C7265616479207061726B6564000000000000000000000000000000000000 PUSH0 DUP3 ADD MSTORE POP JUMP JUMPDEST PUSH0 PUSH2 0x535 PUSH1 0xE DUP4 PUSH2 0x4F1 JUMP JUMPDEST SWAP2 POP PUSH2 0x540 DUP3 PUSH2 0x501 JUMP JUMPDEST PUSH1 0x20 DUP3 ADD SWAP1 POP SWAP2 SWAP1 POP JUMP JUMPDEST PUSH0 PUSH1 0x20 DUP3 ADD SWAP1 POP DUP2 DUP2 SUB PUSH0 DUP4 ADD MSTORE PUSH2 0x562 DUP2 PUSH2 0x529 JUMP JUMPDEST SWAP1 POP SWAP2 SWAP1 POP JUMP JUMPDEST PUSH32 0x4E6F74207061726B656400000000000000000000000000000000000000000000 PUSH0 DUP3 ADD MSTORE POP JUMP JUMPDEST PUSH0 PUSH2 0x59D PUSH1 0xA DUP4 PUSH2 0x4F1 JUMP JUMPDEST SWAP2 POP PUSH2 0x5A8 DUP3 PUSH2 0x569 JUMP JUMPDEST PUSH1 0x20 DUP3 ADD SWAP1 POP SWAP2 SWAP1 POP JUMP JUMPDEST PUSH0 PUSH1 0x20 DUP3 ADD SWAP1 POP DUP2 DUP2 SUB PUSH0 DUP4 ADD MSTORE PUSH2 0x5CA DUP2 PUSH2 0x591 JUMP JUMPDEST SWAP1 POP SWAP2 SWAP1 POP JUMP JUMPDEST PUSH32 0x4E487B7100000000000000000000000000000000000000000000000000000000 PUSH0 MSTORE PUSH1 0x11 PUSH1 0x4 MSTORE PUSH1 0x24 PUSH0 REVERT JUMPDEST PUSH0 PUSH2 0x608 DUP3 PUSH2 0x47F JUMP JUMPDEST SWAP2 POP PUSH2 0x613 DUP4 PUSH2 0x47F JUMP JUMPDEST SWAP3 POP DUP3 DUP3 SUB SWAP1 POP DUP2 DUP2 GT ISZERO PUSH2 0x62B JUMPI PUSH2 0x62A PUSH2 0x5D1 JUMP JUMPDEST JUMPDEST SWAP3 SWAP2 POP POP JUMP JUMPDEST PUSH32 0x4E487B7100000000000000000000000000000000000000000000000000000000 PUSH0 MSTORE PUSH1 0x12 PUSH1 0x4 MSTORE PUSH1 0x24 PUSH0 REVERT JUMPDEST PUSH0 PUSH2 0x668 DUP3 PUSH2 0x47F JUMP JUMPDEST SWAP2 POP PUSH2 0x673 DUP4 PUSH2 0x47F JUMP JUMPDEST SWAP3 POP DUP3 PUSH2 0x683 JUMPI PUSH2 0x682 PUSH2 0x631 JUMP JUMPDEST JUMPDEST DUP3 DUP3 DIV SWAP1 POP SWAP3 SWAP2 POP POP JUMP JUMPDEST PUSH0 PUSH2 0x698 DUP3 PUSH2 0x47F JUMP JUMPDEST SWAP2 POP PUSH2 0x6A3 DUP4 PUSH2 0x47F JUMP JUMPDEST SWAP3 POP DUP3 DUP3 MUL PUSH2 0x6B1 DUP2 PUSH2 0x47F JUMP JUMPDEST SWAP2 POP DUP3 DUP3 DIV DUP5 EQ DUP4 ISZERO OR PUSH2 0x6C8 JUMPI PUSH2 0x6C7 PUSH2 0x5D1 JUMP JUMPDEST JUMPDEST POP SWAP3 SWAP2 POP POP JUMP JUMPDEST PUSH32 0x496E73756666696369656E74207061796D656E74000000000000000000000000 PUSH0 DUP3 ADD MSTORE POP JUMP JUMPDEST PUSH0 PUSH2 0x703 PUSH1 0x14 DUP4 PUSH2 0x4F1 JUMP JUMPDEST SWAP2 POP PUSH2 0x70E DUP3 PUSH2 0x6CF JUMP JUMPDEST PUSH1 0x20 DUP3 ADD SWAP1 POP SWAP2 SWAP1 POP JUMP JUMPDEST PUSH0 PUSH1 0x20 DUP3 ADD SWAP1 POP DUP2 DUP2 SUB PUSH0 DUP4 ADD MSTORE PUSH2 0x730 DUP2 PUSH2 0x6F7 JUMP JUMPDEST SWAP1 POP SWAP2 SWAP1 POP JUMP JUMPDEST PUSH0 DUP2 SWAP1 POP SWAP3 SWAP2 POP POP JUMP JUMPDEST POP JUMP JUMPDEST PUSH0 PUSH2 0x74F PUSH0 DUP4 PUSH2 0x737 JUMP JUMPDEST SWAP2 POP PUSH2 0x75A DUP3 PUSH2 0x741 JUMP JUMPDEST PUSH0 DUP3 ADD SWAP1 POP SWAP2 SWAP1 POP JUMP JUMPDEST PUSH0 PUSH2 0x76E DUP3 PUSH2 0x744 JUMP JUMPDEST SWAP2 POP DUP2 SWAP1 POP SWAP2 SWAP1 POP JUMP JUMPDEST PUSH32 0x526566756E64206661696C656400000000000000000000000000000000000000 PUSH0 DUP3 ADD MSTORE POP JUMP JUMPDEST PUSH0 PUSH2 0x7AC PUSH1 0xD DUP4 PUSH2 0x4F1 JUMP JUMPDEST SWAP2 POP PUSH2 0x7B7 DUP3 PUSH2 0x778 JUMP JUMPDEST PUSH1 0x20 DUP3 ADD SWAP1 POP SWAP2 SWAP1 POP JUMP JUMPDEST PUSH0 PUSH1 0x20 DUP3 ADD SWAP1 POP DUP2 DUP2 SUB PUSH0 DUP4 ADD MSTORE PUSH2 0x7D9 DUP2 PUSH2 0x7A0 JUMP JUMPDEST SWAP1 POP SWAP2 SWAP1 POP JUMP INVALID LOG2 PUSH5 0x6970667358 0x22 SLT KECCAK256 0x4C COINBASE 0x2D SWAP4 SWAP10 0xDC DUP13 0xBE DUP3 PUSH23 0x9AF5B7B9EC080A46771BD1C7AA12470EEBF8E745AA564 PUSH20 0x6F6C634300081F00330000000000000000000000 "
				},
				"gasEstimates": {
					"creation": {
						"codeDepositCost": "414000",
						"executionCost": "22553",
						"totalCost": "436553"
					},
					"external": {
						"hourlyRate()": "2447",
						"park()": "48950",
						"unpark()": "infinite",
						"vehicles(address)": "5044"
					}
				},
				"methodIdentifiers": {
					"hourlyRate()": "59a7b3fe",
					"park()": "1ac21dd6",
					"unpark()": "be46026d",
					"vehicles(address)": "028e7768"
				}
			},
			"storageLayout": {
				"storage": [
					{
						"astId": 11,
						"contract": "Parking_Smart_Contract.sol:Parking",
						"label": "vehicles",
						"offset": 0,
						"slot": "0",
						"type": "t_mapping(t_address,t_struct(Vehicle)6_storage)"
					},
					{
						"astId": 14,
						"contract": "Parking_Smart_Contract.sol:Parking",
						"label": "hourlyRate",
						"offset": 0,
						"slot": "1",
						"type": "t_uint256"
					}
				],
				"types": {
					"t_address": {
						"encoding": "inplace",
						"label": "address",
						"numberOfBytes": "20"
					},
					"t_bool": {
						"encoding": "inplace",
						"label": "bool",
						"numberOfBytes": "1"
					},
					"t_mapping(t_address,t_struct(Vehicle)6_storage)": {
						"encoding": "mapping",
						"key": "t_address",
						"label": "mapping(address => struct Parking.Vehicle)",
						"numberOfBytes": "32",
						"value": "t_struct(Vehicle)6_storage"
					},
					"t_struct(Vehicle)6_storage": {
						"encoding": "inplace",
						"label": "struct Parking.Vehicle",
						"members": [
							{
								"astId": 3,
								"contract": "Parking_Smart_Contract.sol:Parking",
								"label": "startTime",
								"offset": 0,
								"slot": "0",
								"type": "t_uint256"
							},
							{
								"astId": 5,
								"contract": "Parking_Smart_Contract.sol:Parking",
								"label": "isParked",
								"offset": 0,
								"slot": "1",
								"type": "t_bool"
							}
						],
						"numberOfBytes": "64"
					},
					"t_uint256": {
						"encoding": "inplace",
						"label": "uint256",
						"numberOfBytes": "32"
					}
				}
			},
			"userdoc": {
				"kind": "user",
				"methods": {},
				"version": 1
			}
		}
	}
}