{
	"Vote_System.sol": {
		"VotingSystem": {
			"abi": [
				{
					"inputs": [],
					"stateMutability": "nonpayable",
					"type": "constructor"
				},
				{
					"inputs": [],
					"name": "getAllVoters",
					"outputs": [
						{
							"internalType": "address[]",
							"name": "",
							"type": "address[]"
						}
					],
					"stateMutability": "view",
					"type": "function"
				},
				{
					"inputs": [],
					"name": "getMyDetails",
					"outputs": [
						{
							"internalType": "string",
							"name": "",
							"type": "string"
						},
						{
							"internalType": "uint256",
							"name": "",
							"type": "uint256"
						},
						{
							"internalType": "string",
							"name": "",
							"type": "string"
						},
						{
							"internalType": "bool",
							"name": "",
							"type": "bool"
						}
					],
					"stateMutability": "view",
					"type": "function"
				},
				{
					"inputs": [
						{
							"internalType": "string",
							"name": "_party",
							"type": "string"
						}
					],
					"name": "getVotes",
					"outputs": [
						{
							"internalType": "uint256",
							"name": "",
							"type": "uint256"
						}
					],
					"stateMutability": "view",
					"type": "function"
				},
				{
					"inputs": [],
					"name": "owner",
					"outputs": [
						{
							"internalType": "address",
							"name": "",
							"type": "address"
						}
					],
					"stateMutability": "view",
					"type": "function"
				},
				{
					"inputs": [
						{
							"internalType": "string",
							"name": "_name",
							"type": "string"
						},
						{
							"internalType": "uint256",
							"name": "_age",
							"type": "uint256"
						}
					],
					"name": "register",
					"outputs": [],
					"stateMutability": "nonpayable",
					"type": "function"
				},
				{
					"inputs": [],
					"name": "totalVoters",
					"outputs": [
						{
							"internalType": "uint256",
							"name": "",
							"type": "uint256"
						}
					],
					"stateMutability": "view",
					"type": "function"
				},
				{
					"inputs": [],
					"name": "voteAAP",
					"outputs": [],
					"stateMutability": "nonpayable",
					"type": "function"
				},
				{
					"inputs": [],
					"name": "voteBJP",
					"outputs": [],
					"stateMutability": "nonpayable",
					"type": "function"
				},
				{
					"inputs": [],
					"name": "voteCongress",
					"outputs": [],
					"stateMutability": "nonpayable",
					"type": "function"
				},
				{
					"inputs": [
						{
							"internalType": "string",
							"name": "",
							"type": "string"
						}
					],
					"name": "voteCount",
					"outputs": [
						{
							"internalType": "uint256",
							"name": "",
							"type": "uint256"
						}
					],
					"stateMutability": "view",
					"type": "function"
				},
				{
					"inputs": [],
					"name": "voteINLD",
					"outputs": [],
					"stateMutability": "nonpayable",
					"type": "function"
				},
				{
					"inputs": [
						{
							"internalType": "address",
							"name": "",
							"type": "address"
						}
					],
					"name": "voters",
					"outputs": [
						{
							"internalType": "string",
							"name": "name",
							"type": "string"
						},
						{
							"internalType": "uint256",
							"name": "age",
							"type": "uint256"
						},
						{
							"internalType": "string",
							"name": "party",
							"type": "string"
						},
						{
							"internalType": "bool",
							"name": "hasVoted",
							"type": "bool"
						},
						{
							"internalType": "bool",
							"name": "isRegistered",
							"type": "bool"
						}
					],
					"stateMutability": "view",
					"type": "function"
				},
				{
					"inputs": [
						{
							"internalType": "uint256",
							"name": "",
							"type": "uint256"
						}
					],
					"name": "votersList",
					"outputs": [
						{
							"internalType": "address",
							"name": "",
							"type": "address"
						}
					],
					"stateMutability": "view",
					"type": "function"
				}
			],
			"devdoc": {
				"kind": "dev",
				"methods": {},
				"version": 1
			},
			"evm": {
				"assembly": "    /* \"Vote_System.sol\":60:2517  contract VotingSystem {... */\n  mstore(0x40, 0x80)\n    /* \"Vote_System.sol\":574:625  constructor() {... */\n  callvalue\n  dup1\n  iszero\n  tag_1\n  jumpi\n  revert(0x00, 0x00)\ntag_1:\n  pop\n    /* \"Vote_System.sol\":607:617  msg.sender */\n  caller\n    /* \"Vote_System.sol\":599:604  owner */\n  0x00\n  0x00\n    /* \"Vote_System.sol\":599:617  owner = msg.sender */\n  0x0100\n  exp\n  dup2\n  sload\n  dup2\n  0xffffffffffffffffffffffffffffffffffffffff\n  mul\n  not\n  and\n  swap1\n  dup4\n  0xffffffffffffffffffffffffffffffffffffffff\n  and\n  mul\n  or\n  swap1\n  sstore\n  pop\n    /* \"Vote_System.sol\":60:2517  contract VotingSystem {... */\n  dataSize(sub_0)\n  dup1\n  dataOffset(sub_0)\n  0x00\n  codecopy\n  0x00\n  return\nstop\n\nsub_0: assembly {\n        /* \"Vote_System.sol\":60:2517  contract VotingSystem {... */\n      mstore(0x40, 0x80)\n      callvalue\n      dup1\n      iszero\n      tag_1\n      jumpi\n      revert(0x00, 0x00)\n    tag_1:\n      pop\n      jumpi(tag_2, lt(calldatasize, 0x04))\n      shr(0xe0, calldataload(0x00))\n      dup1\n      0x8da5cb5b\n      gt\n      tag_16\n      jumpi\n      dup1\n      0xba7f7552\n      gt\n      tag_17\n      jumpi\n      dup1\n      0xba7f7552\n      eq\n      tag_12\n      jumpi\n      dup1\n      0xe065818b\n      eq\n      tag_13\n      jumpi\n      dup1\n      0xea87152b\n      eq\n      tag_14\n      jumpi\n      dup1\n      0xf012d662\n      eq\n      tag_15\n      jumpi\n      jump(tag_2)\n    tag_17:\n      dup1\n      0x8da5cb5b\n      eq\n      tag_9\n      jumpi\n      dup1\n      0xa3ec138d\n      eq\n      tag_10\n      jumpi\n      dup1\n      0xa9313107\n      eq\n      tag_11\n      jumpi\n      jump(tag_2)\n    tag_16:\n      dup1\n      0x1eac1c27\n      eq\n      tag_3\n      jumpi\n      dup1\n      0x35bbe70e\n      eq\n      tag_4\n      jumpi\n      dup1\n      0x431bbb7e\n      eq\n      tag_5\n      jumpi\n      dup1\n      0x5f5300ff\n      eq\n      tag_6\n      jumpi\n      dup1\n      0x72ce73ab\n      eq\n      tag_7\n      jumpi\n      dup1\n      0x805265e5\n      eq\n      tag_8\n      jumpi\n    tag_2:\n      revert(0x00, 0x00)\n        /* \"Vote_System.sol\":1709:1766  function voteBJP() public {... */\n    tag_3:\n      tag_18\n      tag_19\n      jump\t// in\n    tag_18:\n      stop\n        /* \"Vote_System.sol\":2272:2371  function getAllVoters() public view returns (address[] memory) {... */\n    tag_4:\n      tag_20\n      tag_21\n      jump\t// in\n    tag_20:\n      mload(0x40)\n      tag_22\n      swap2\n      swap1\n      tag_23\n      jump\t// in\n    tag_22:\n      mload(0x40)\n      dup1\n      swap2\n      sub\n      swap1\n      return\n        /* \"Vote_System.sol\":2009:2236  function getMyDetails()... */\n    tag_5:\n      tag_24\n      tag_25\n      jump\t// in\n    tag_24:\n      mload(0x40)\n      tag_26\n      swap5\n      swap4\n      swap3\n      swap2\n      swap1\n      tag_27\n      jump\t// in\n    tag_26:\n      mload(0x40)\n      dup1\n      swap2\n      sub\n      swap1\n      return\n        /* \"Vote_System.sol\":147:170  uint public totalVoters */\n    tag_6:\n      tag_28\n      tag_29\n      jump\t// in\n    tag_28:\n      mload(0x40)\n      tag_30\n      swap2\n      swap1\n      tag_31\n      jump\t// in\n    tag_30:\n      mload(0x40)\n      dup1\n      swap2\n      sub\n      swap1\n      return\n        /* \"Vote_System.sol\":432:459  address[] public votersList */\n    tag_7:\n      tag_32\n      0x04\n      dup1\n      calldatasize\n      sub\n      dup2\n      add\n      swap1\n      tag_33\n      swap2\n      swap1\n      tag_34\n      jump\t// in\n    tag_33:\n      tag_35\n      jump\t// in\n    tag_32:\n      mload(0x40)\n      tag_36\n      swap2\n      swap1\n      tag_37\n      jump\t// in\n    tag_36:\n      mload(0x40)\n      dup1\n      swap2\n      sub\n      swap1\n      return\n        /* \"Vote_System.sol\":2404:2514  function getVotes(string memory _party) public view returns (uint) {... */\n    tag_8:\n      tag_38\n      0x04\n      dup1\n      calldatasize\n      sub\n      dup2\n      add\n      swap1\n      tag_39\n      swap2\n      swap1\n      tag_40\n      jump\t// in\n    tag_39:\n      tag_41\n      jump\t// in\n    tag_38:\n      mload(0x40)\n      tag_42\n      swap2\n      swap1\n      tag_31\n      jump\t// in\n    tag_42:\n      mload(0x40)\n      dup1\n      swap2\n      sub\n      swap1\n      return\n        /* \"Vote_System.sol\":120:140  address public owner */\n    tag_9:\n      tag_43\n      tag_44\n      jump\t// in\n    tag_43:\n      mload(0x40)\n      tag_45\n      swap2\n      swap1\n      tag_37\n      jump\t// in\n    tag_45:\n      mload(0x40)\n      dup1\n      swap2\n      sub\n      swap1\n      return\n        /* \"Vote_System.sol\":365:404  mapping(address => Voter) public voters */\n    tag_10:\n      tag_46\n      0x04\n      dup1\n      calldatasize\n      sub\n      dup2\n      add\n      swap1\n      tag_47\n      swap2\n      swap1\n      tag_48\n      jump\t// in\n    tag_47:\n      tag_49\n      jump\t// in\n    tag_46:\n      mload(0x40)\n      tag_50\n      swap6\n      swap5\n      swap4\n      swap3\n      swap2\n      swap1\n      tag_51\n      jump\t// in\n    tag_50:\n      mload(0x40)\n      dup1\n      swap2\n      sub\n      swap1\n      return\n        /* \"Vote_System.sol\":1849:1906  function voteAAP() public {... */\n    tag_11:\n      tag_52\n      tag_53\n      jump\t// in\n    tag_52:\n      stop\n        /* \"Vote_System.sol\":500:540  mapping(string => uint) public voteCount */\n    tag_12:\n      tag_54\n      0x04\n      dup1\n      calldatasize\n      sub\n      dup2\n      add\n      swap1\n      tag_55\n      swap2\n      swap1\n      tag_40\n      jump\t// in\n    tag_55:\n      tag_56\n      jump\t// in\n    tag_54:\n      mload(0x40)\n      tag_57\n      swap2\n      swap1\n      tag_31\n      jump\t// in\n    tag_57:\n      mload(0x40)\n      dup1\n      swap2\n      sub\n      swap1\n      return\n        /* \"Vote_System.sol\":1914:1973  function voteINLD() public {... */\n    tag_13:\n      tag_58\n      tag_59\n      jump\t// in\n    tag_58:\n      stop\n        /* \"Vote_System.sol\":1109:1433  function register(string memory _name, uint _age) public {... */\n    tag_14:\n      tag_60\n      0x04\n      dup1\n      calldatasize\n      sub\n      dup2\n      add\n      swap1\n      tag_61\n      swap2\n      swap1\n      tag_62\n      jump\t// in\n    tag_61:\n      tag_63\n      jump\t// in\n    tag_60:\n      stop\n        /* \"Vote_System.sol\":1774:1841  function voteCongress() public {... */\n    tag_15:\n      tag_64\n      tag_65\n      jump\t// in\n    tag_64:\n      stop\n        /* \"Vote_System.sol\":1709:1766  function voteBJP() public {... */\n    tag_19:\n        /* \"Vote_System.sol\":1746:1758  _vote(\"BJP\") */\n      tag_67\n      mload(0x40)\n      dup1\n      0x40\n      add\n      0x40\n      mstore\n      dup1\n      0x03\n      dup2\n      mstore\n      0x20\n      add\n      0x424a500000000000000000000000000000000000000000000000000000000000\n      dup2\n      mstore\n      pop\n        /* \"Vote_System.sol\":1746:1751  _vote */\n      tag_68\n        /* \"Vote_System.sol\":1746:1758  _vote(\"BJP\") */\n      jump\t// in\n    tag_67:\n        /* \"Vote_System.sol\":1709:1766  function voteBJP() public {... */\n      jump\t// out\n        /* \"Vote_System.sol\":2272:2371  function getAllVoters() public view returns (address[] memory) {... */\n    tag_21:\n        /* \"Vote_System.sol\":2317:2333  address[] memory */\n      0x60\n        /* \"Vote_System.sol\":2353:2363  votersList */\n      0x03\n        /* \"Vote_System.sol\":2346:2363  return votersList */\n      dup1\n      sload\n      dup1\n      0x20\n      mul\n      0x20\n      add\n      mload(0x40)\n      swap1\n      dup2\n      add\n      0x40\n      mstore\n      dup1\n      swap3\n      swap2\n      swap1\n      dup2\n      dup2\n      mstore\n      0x20\n      add\n      dup3\n      dup1\n      sload\n      dup1\n      iszero\n      tag_70\n      jumpi\n      0x20\n      mul\n      dup3\n      add\n      swap2\n      swap1\n      0x00\n      mstore\n      keccak256(0x00, 0x20)\n      swap1\n    tag_71:\n      dup2\n      0x00\n      swap1\n      sload\n      swap1\n      0x0100\n      exp\n      swap1\n      div\n      0xffffffffffffffffffffffffffffffffffffffff\n      and\n      0xffffffffffffffffffffffffffffffffffffffff\n      and\n      dup2\n      mstore\n      0x20\n      add\n      swap1\n      0x01\n      add\n      swap1\n      dup1\n      dup4\n      gt\n      tag_71\n      jumpi\n    tag_70:\n      pop\n      pop\n      pop\n      pop\n      pop\n      swap1\n      pop\n        /* \"Vote_System.sol\":2272:2371  function getAllVoters() public view returns (address[] memory) {... */\n      swap1\n      jump\t// out\n        /* \"Vote_System.sol\":2009:2236  function getMyDetails()... */\n    tag_25:\n        /* \"Vote_System.sol\":2081:2094  string memory */\n      0x60\n        /* \"Vote_System.sol\":2096:2100  uint */\n      0x00\n        /* \"Vote_System.sol\":2102:2115  string memory */\n      0x60\n        /* \"Vote_System.sol\":2117:2121  bool */\n      0x00\n        /* \"Vote_System.sol\":2139:2153  Voter memory v */\n      0x00\n        /* \"Vote_System.sol\":2156:2162  voters */\n      0x02\n        /* \"Vote_System.sol\":2156:2174  voters[msg.sender] */\n      0x00\n        /* \"Vote_System.sol\":2163:2173  msg.sender */\n      caller\n        /* \"Vote_System.sol\":2156:2174  voters[msg.sender] */\n      0xffffffffffffffffffffffffffffffffffffffff\n      and\n      0xffffffffffffffffffffffffffffffffffffffff\n      and\n      dup2\n      mstore\n      0x20\n      add\n      swap1\n      dup2\n      mstore\n      0x20\n      add\n      0x00\n      keccak256\n        /* \"Vote_System.sol\":2139:2174  Voter memory v = voters[msg.sender] */\n      mload(0x40)\n      dup1\n      0xa0\n      add\n      0x40\n      mstore\n      swap1\n      dup2\n      0x00\n      dup3\n      add\n      dup1\n      sload\n      tag_73\n      swap1\n      tag_74\n      jump\t// in\n    tag_73:\n      dup1\n      0x1f\n      add\n      0x20\n      dup1\n      swap2\n      div\n      mul\n      0x20\n      add\n      mload(0x40)\n      swap1\n      dup2\n      add\n      0x40\n      mstore\n      dup1\n      swap3\n      swap2\n      swap1\n      dup2\n      dup2\n      mstore\n      0x20\n      add\n      dup3\n      dup1\n      sload\n      tag_75\n      swap1\n      tag_74\n      jump\t// in\n    tag_75:\n      dup1\n      iszero\n      tag_76\n      jumpi\n      dup1\n      0x1f\n      lt\n      tag_77\n      jumpi\n      0x0100\n      dup1\n      dup4\n      sload\n      div\n      mul\n      dup4\n      mstore\n      swap2\n      0x20\n      add\n      swap2\n      jump(tag_76)\n    tag_77:\n      dup3\n      add\n      swap2\n      swap1\n      0x00\n      mstore\n      keccak256(0x00, 0x20)\n      swap1\n    tag_78:\n      dup2\n      sload\n      dup2\n      mstore\n      swap1\n      0x01\n      add\n      swap1\n      0x20\n      add\n      dup1\n      dup4\n      gt\n      tag_78\n      jumpi\n      dup3\n      swap1\n      sub\n      0x1f\n      and\n      dup3\n      add\n      swap2\n    tag_76:\n      pop\n      pop\n      pop\n      pop\n      pop\n      dup2\n      mstore\n      0x20\n      add\n      0x01\n      dup3\n      add\n      sload\n      dup2\n      mstore\n      0x20\n      add\n      0x02\n      dup3\n      add\n      dup1\n      sload\n      tag_79\n      swap1\n      tag_74\n      jump\t// in\n    tag_79:\n      dup1\n      0x1f\n      add\n      0x20\n      dup1\n      swap2\n      div\n      mul\n      0x20\n      add\n      mload(0x40)\n      swap1\n      dup2\n      add\n      0x40\n      mstore\n      dup1\n      swap3\n      swap2\n      swap1\n      dup2\n      dup2\n      mstore\n      0x20\n      add\n      dup3\n      dup1\n      sload\n      tag_80\n      swap1\n      tag_74\n      jump\t// in\n    tag_80:\n      dup1\n      iszero\n      tag_81\n      jumpi\n      dup1\n      0x1f\n      lt\n      tag_82\n      jumpi\n      0x0100\n      dup1\n      dup4\n      sload\n      div\n      mul\n      dup4\n      mstore\n      swap2\n      0x20\n      add\n      swap2\n      jump(tag_81)\n    tag_82:\n      dup3\n      add\n      swap2\n      swap1\n      0x00\n      mstore\n      keccak256(0x00, 0x20)\n      swap1\n    tag_83:\n      dup2\n      sload\n      dup2\n      mstore\n      swap1\n      0x01\n      add\n      swap1\n      0x20\n      add\n      dup1\n      dup4\n      gt\n      tag_83\n      jumpi\n      dup3\n      swap1\n      sub\n      0x1f\n      and\n      dup3\n      add\n      swap2\n    tag_81:\n      pop\n      pop\n      pop\n      pop\n      pop\n      dup2\n      mstore\n      0x20\n      add\n      0x03\n      dup3\n      add\n      0x00\n      swap1\n      sload\n      swap1\n      0x0100\n      exp\n      swap1\n      div\n      0xff\n      and\n      iszero\n      iszero\n      iszero\n      iszero\n      dup2\n      mstore\n      0x20\n      add\n      0x03\n      dup3\n      add\n      0x01\n      swap1\n      sload\n      swap1\n      0x0100\n      exp\n      swap1\n      div\n      0xff\n      and\n      iszero\n      iszero\n      iszero\n      iszero\n      dup2\n      mstore\n      pop\n      pop\n      swap1\n      pop\n        /* \"Vote_System.sol\":2193:2194  v */\n      dup1\n        /* \"Vote_System.sol\":2193:2199  v.name */\n      0x00\n      add\n      mload\n        /* \"Vote_System.sol\":2201:2202  v */\n      dup2\n        /* \"Vote_System.sol\":2201:2206  v.age */\n      0x20\n      add\n      mload\n        /* \"Vote_System.sol\":2208:2209  v */\n      dup3\n        /* \"Vote_System.sol\":2208:2215  v.party */\n      0x40\n      add\n      mload\n        /* \"Vote_System.sol\":2217:2218  v */\n      dup4\n        /* \"Vote_System.sol\":2217:2227  v.hasVoted */\n      0x60\n      add\n      mload\n        /* \"Vote_System.sol\":2185:2228  return (v.name, v.age, v.party, v.hasVoted) */\n      swap5\n      pop\n      swap5\n      pop\n      swap5\n      pop\n      swap5\n      pop\n      pop\n        /* \"Vote_System.sol\":2009:2236  function getMyDetails()... */\n      swap1\n      swap2\n      swap3\n      swap4\n      jump\t// out\n        /* \"Vote_System.sol\":147:170  uint public totalVoters */\n    tag_29:\n      sload(0x01)\n      dup2\n      jump\t// out\n        /* \"Vote_System.sol\":432:459  address[] public votersList */\n    tag_35:\n      0x03\n      dup2\n      dup2\n      sload\n      dup2\n      lt\n      tag_84\n      jumpi\n      0x00\n      dup1\n      revert\n    tag_84:\n      swap1\n      0x00\n      mstore\n      keccak256(0x00, 0x20)\n      add\n      0x00\n      swap2\n      pop\n      sload\n      swap1\n      0x0100\n      exp\n      swap1\n      div\n      0xffffffffffffffffffffffffffffffffffffffff\n      and\n      dup2\n      jump\t// out\n        /* \"Vote_System.sol\":2404:2514  function getVotes(string memory _party) public view returns (uint) {... */\n    tag_41:\n        /* \"Vote_System.sol\":2465:2469  uint */\n      0x00\n        /* \"Vote_System.sol\":2489:2498  voteCount */\n      0x04\n        /* \"Vote_System.sol\":2499:2505  _party */\n      dup3\n        /* \"Vote_System.sol\":2489:2506  voteCount[_party] */\n      mload(0x40)\n      tag_87\n      swap2\n      swap1\n      tag_88\n      jump\t// in\n    tag_87:\n      swap1\n      dup2\n      mstore\n      0x20\n      add\n      mload(0x40)\n      dup1\n      swap2\n      sub\n      swap1\n      keccak256\n      sload\n        /* \"Vote_System.sol\":2482:2506  return voteCount[_party] */\n      swap1\n      pop\n        /* \"Vote_System.sol\":2404:2514  function getVotes(string memory _party) public view returns (uint) {... */\n      swap2\n      swap1\n      pop\n      jump\t// out\n        /* \"Vote_System.sol\":120:140  address public owner */\n    tag_44:\n      0x00\n      0x00\n      swap1\n      sload\n      swap1\n      0x0100\n      exp\n      swap1\n      div\n      0xffffffffffffffffffffffffffffffffffffffff\n      and\n      dup2\n      jump\t// out\n        /* \"Vote_System.sol\":365:404  mapping(address => Voter) public voters */\n    tag_49:\n      mstore(0x20, 0x02)\n      dup1\n      0x00\n      mstore\n      keccak256(0x00, 0x40)\n      0x00\n      swap2\n      pop\n      swap1\n      pop\n      dup1\n      0x00\n      add\n      dup1\n      sload\n      tag_89\n      swap1\n      tag_74\n      jump\t// in\n    tag_89:\n      dup1\n      0x1f\n      add\n      0x20\n      dup1\n      swap2\n      div\n      mul\n      0x20\n      add\n      mload(0x40)\n      swap1\n      dup2\n      add\n      0x40\n      mstore\n      dup1\n      swap3\n      swap2\n      swap1\n      dup2\n      dup2\n      mstore\n      0x20\n      add\n      dup3\n      dup1\n      sload\n      tag_90\n      swap1\n      tag_74\n      jump\t// in\n    tag_90:\n      dup1\n      iszero\n      tag_91\n      jumpi\n      dup1\n      0x1f\n      lt\n      tag_92\n      jumpi\n      0x0100\n      dup1\n      dup4\n      sload\n      div\n      mul\n      dup4\n      mstore\n      swap2\n      0x20\n      add\n      swap2\n      jump(tag_91)\n    tag_92:\n      dup3\n      add\n      swap2\n      swap1\n      0x00\n      mstore\n      keccak256(0x00, 0x20)\n      swap1\n    tag_93:\n      dup2\n      sload\n      dup2\n      mstore\n      swap1\n      0x01\n      add\n      swap1\n      0x20\n      add\n      dup1\n      dup4\n      gt\n      tag_93\n      jumpi\n      dup3\n      swap1\n      sub\n      0x1f\n      and\n      dup3\n      add\n      swap2\n    tag_91:\n      pop\n      pop\n      pop\n      pop\n      pop\n      swap1\n      dup1\n      0x01\n      add\n      sload\n      swap1\n      dup1\n      0x02\n      add\n      dup1\n      sload\n      tag_94\n      swap1\n      tag_74\n      jump\t// in\n    tag_94:\n      dup1\n      0x1f\n      add\n      0x20\n      dup1\n      swap2\n      div\n      mul\n      0x20\n      add\n      mload(0x40)\n      swap1\n      dup2\n      add\n      0x40\n      mstore\n      dup1\n      swap3\n      swap2\n      swap1\n      dup2\n      dup2\n      mstore\n      0x20\n      add\n      dup3\n      dup1\n      sload\n      tag_95\n      swap1\n      tag_74\n      jump\t// in\n    tag_95:\n      dup1\n      iszero\n      tag_96\n      jumpi\n      dup1\n      0x1f\n      lt\n      tag_97\n      jumpi\n      0x0100\n      dup1\n      dup4\n      sload\n      div\n      mul\n      dup4\n      mstore\n      swap2\n      0x20\n      add\n      swap2\n      jump(tag_96)\n    tag_97:\n      dup3\n      add\n      swap2\n      swap1\n      0x00\n      mstore\n      keccak256(0x00, 0x20)\n      swap1\n    tag_98:\n      dup2\n      sload\n      dup2\n      mstore\n      swap1\n      0x01\n      add\n      swap1\n      0x20\n      add\n      dup1\n      dup4\n      gt\n      tag_98\n      jumpi\n      dup3\n      swap1\n      sub\n      0x1f\n      and\n      dup3\n      add\n      swap2\n    tag_96:\n      pop\n      pop\n      pop\n      pop\n      pop\n      swap1\n      dup1\n      0x03\n      add\n      0x00\n      swap1\n      sload\n      swap1\n      0x0100\n      exp\n      swap1\n      div\n      0xff\n      and\n      swap1\n      dup1\n      0x03\n      add\n      0x01\n      swap1\n      sload\n      swap1\n      0x0100\n      exp\n      swap1\n      div\n      0xff\n      and\n      swap1\n      pop\n      dup6\n      jump\t// out\n        /* \"Vote_System.sol\":1849:1906  function voteAAP() public {... */\n    tag_53:\n        /* \"Vote_System.sol\":1886:1898  _vote(\"AAP\") */\n      tag_100\n      mload(0x40)\n      dup1\n      0x40\n      add\n      0x40\n      mstore\n      dup1\n      0x03\n      dup2\n      mstore\n      0x20\n      add\n      0x4141500000000000000000000000000000000000000000000000000000000000\n      dup2\n      mstore\n      pop\n        /* \"Vote_System.sol\":1886:1891  _vote */\n      tag_68\n        /* \"Vote_System.sol\":1886:1898  _vote(\"AAP\") */\n      jump\t// in\n    tag_100:\n        /* \"Vote_System.sol\":1849:1906  function voteAAP() public {... */\n      jump\t// out\n        /* \"Vote_System.sol\":500:540  mapping(string => uint) public voteCount */\n    tag_56:\n      0x04\n      dup2\n      dup1\n      mload\n      0x20\n      dup2\n      add\n      dup3\n      add\n      dup1\n      mload\n      dup5\n      dup3\n      mstore\n      0x20\n      dup4\n      add\n      0x20\n      dup6\n      add\n      keccak256\n      dup2\n      dup4\n      mstore\n      dup1\n      swap6\n      pop\n      pop\n      pop\n      pop\n      pop\n      pop\n      0x00\n      swap2\n      pop\n      swap1\n      pop\n      sload\n      dup2\n      jump\t// out\n        /* \"Vote_System.sol\":1914:1973  function voteINLD() public {... */\n    tag_59:\n        /* \"Vote_System.sol\":1952:1965  _vote(\"INLD\") */\n      tag_102\n      mload(0x40)\n      dup1\n      0x40\n      add\n      0x40\n      mstore\n      dup1\n      0x04\n      dup2\n      mstore\n      0x20\n      add\n      0x494e4c4400000000000000000000000000000000000000000000000000000000\n      dup2\n      mstore\n      pop\n        /* \"Vote_System.sol\":1952:1957  _vote */\n      tag_68\n        /* \"Vote_System.sol\":1952:1965  _vote(\"INLD\") */\n      jump\t// in\n    tag_102:\n        /* \"Vote_System.sol\":1914:1973  function voteINLD() public {... */\n      jump\t// out\n        /* \"Vote_System.sol\":1109:1433  function register(string memory _name, uint _age) public {... */\n    tag_63:\n        /* \"Vote_System.sol\":1193:1195  18 */\n      0x12\n        /* \"Vote_System.sol\":1185:1189  _age */\n      dup2\n        /* \"Vote_System.sol\":1185:1195  _age >= 18 */\n      lt\n      iszero\n        /* \"Vote_System.sol\":1177:1220  require(_age >= 18, \"Not eligible to vote\") */\n      tag_104\n      jumpi\n      mload(0x40)\n      0x08c379a000000000000000000000000000000000000000000000000000000000\n      dup2\n      mstore\n      0x04\n      add\n      tag_105\n      swap1\n      tag_106\n      jump\t// in\n    tag_105:\n      mload(0x40)\n      dup1\n      swap2\n      sub\n      swap1\n      revert\n    tag_104:\n        /* \"Vote_System.sol\":1240:1246  voters */\n      0x02\n        /* \"Vote_System.sol\":1240:1258  voters[msg.sender] */\n      0x00\n        /* \"Vote_System.sol\":1247:1257  msg.sender */\n      caller\n        /* \"Vote_System.sol\":1240:1258  voters[msg.sender] */\n      0xffffffffffffffffffffffffffffffffffffffff\n      and\n      0xffffffffffffffffffffffffffffffffffffffff\n      and\n      dup2\n      mstore\n      0x20\n      add\n      swap1\n      dup2\n      mstore\n      0x20\n      add\n      0x00\n      keccak256\n        /* \"Vote_System.sol\":1240:1271  voters[msg.sender].isRegistered */\n      0x03\n      add\n      0x01\n      swap1\n      sload\n      swap1\n      0x0100\n      exp\n      swap1\n      div\n      0xff\n      and\n        /* \"Vote_System.sol\":1239:1271  !voters[msg.sender].isRegistered */\n      iszero\n        /* \"Vote_System.sol\":1231:1294  require(!voters[msg.sender].isRegistered, \"Already registered\") */\n      tag_107\n      jumpi\n      mload(0x40)\n      0x08c379a000000000000000000000000000000000000000000000000000000000\n      dup2\n      mstore\n      0x04\n      add\n      tag_108\n      swap1\n      tag_109\n      jump\t// in\n    tag_108:\n      mload(0x40)\n      dup1\n      swap2\n      sub\n      swap1\n      revert\n    tag_107:\n        /* \"Vote_System.sol\":1328:1363  Voter(_name, _age, \"\", false, true) */\n      mload(0x40)\n      dup1\n      0xa0\n      add\n      0x40\n      mstore\n      dup1\n        /* \"Vote_System.sol\":1334:1339  _name */\n      dup4\n        /* \"Vote_System.sol\":1328:1363  Voter(_name, _age, \"\", false, true) */\n      dup2\n      mstore\n      0x20\n      add\n        /* \"Vote_System.sol\":1341:1345  _age */\n      dup3\n        /* \"Vote_System.sol\":1328:1363  Voter(_name, _age, \"\", false, true) */\n      dup2\n      mstore\n      0x20\n      add\n      mload(0x40)\n      dup1\n      0x20\n      add\n      0x40\n      mstore\n      dup1\n      0x00\n      dup2\n      mstore\n      pop\n      dup2\n      mstore\n      0x20\n      add\n        /* \"Vote_System.sol\":1351:1356  false */\n      0x00\n        /* \"Vote_System.sol\":1328:1363  Voter(_name, _age, \"\", false, true) */\n      iszero\n      iszero\n      dup2\n      mstore\n      0x20\n      add\n        /* \"Vote_System.sol\":1358:1362  true */\n      0x01\n        /* \"Vote_System.sol\":1328:1363  Voter(_name, _age, \"\", false, true) */\n      iszero\n      iszero\n      dup2\n      mstore\n      pop\n        /* \"Vote_System.sol\":1307:1313  voters */\n      0x02\n        /* \"Vote_System.sol\":1307:1325  voters[msg.sender] */\n      0x00\n        /* \"Vote_System.sol\":1314:1324  msg.sender */\n      caller\n        /* \"Vote_System.sol\":1307:1325  voters[msg.sender] */\n      0xffffffffffffffffffffffffffffffffffffffff\n      and\n      0xffffffffffffffffffffffffffffffffffffffff\n      and\n      dup2\n      mstore\n      0x20\n      add\n      swap1\n      dup2\n      mstore\n      0x20\n      add\n      0x00\n      keccak256\n        /* \"Vote_System.sol\":1307:1363  voters[msg.sender] = Voter(_name, _age, \"\", false, true) */\n      0x00\n      dup3\n      add\n      mload\n      dup2\n      0x00\n      add\n      swap1\n      dup2\n      tag_110\n      swap2\n      swap1\n      tag_111\n      jump\t// in\n    tag_110:\n      pop\n      0x20\n      dup3\n      add\n      mload\n      dup2\n      0x01\n      add\n      sstore\n      0x40\n      dup3\n      add\n      mload\n      dup2\n      0x02\n      add\n      swap1\n      dup2\n      tag_112\n      swap2\n      swap1\n      tag_111\n      jump\t// in\n    tag_112:\n      pop\n      0x60\n      dup3\n      add\n      mload\n      dup2\n      0x03\n      add\n      exp(0x0100, 0x00)\n      dup2\n      sload\n      dup2\n      0xff\n      mul\n      not\n      and\n      swap1\n      dup4\n      iszero\n      iszero\n      mul\n      or\n      swap1\n      sstore\n      pop\n      0x80\n      dup3\n      add\n      mload\n      dup2\n      0x03\n      add\n      exp(0x0100, 0x01)\n      dup2\n      sload\n      dup2\n      0xff\n      mul\n      not\n      and\n      swap1\n      dup4\n      iszero\n      iszero\n      mul\n      or\n      swap1\n      sstore\n      pop\n      swap1\n      pop\n      pop\n        /* \"Vote_System.sol\":1374:1384  votersList */\n      0x03\n        /* \"Vote_System.sol\":1390:1400  msg.sender */\n      caller\n        /* \"Vote_System.sol\":1374:1401  votersList.push(msg.sender) */\n      swap1\n      dup1\n      0x01\n      dup2\n      sload\n      add\n      dup1\n      dup3\n      sstore\n      dup1\n      swap2\n      pop\n      pop\n      0x01\n      swap1\n      sub\n      swap1\n      0x00\n      mstore\n      keccak256(0x00, 0x20)\n      add\n      0x00\n      swap1\n      swap2\n      swap1\n      swap2\n      swap1\n      swap2\n      0x0100\n      exp\n      dup2\n      sload\n      dup2\n      0xffffffffffffffffffffffffffffffffffffffff\n      mul\n      not\n      and\n      swap1\n      dup4\n      0xffffffffffffffffffffffffffffffffffffffff\n      and\n      mul\n      or\n      swap1\n      sstore\n      pop\n        /* \"Vote_System.sol\":1412:1423  totalVoters */\n      0x01\n      0x00\n        /* \"Vote_System.sol\":1412:1425  totalVoters++ */\n      dup2\n      sload\n      dup1\n      swap3\n      swap2\n      swap1\n      tag_114\n      swap1\n      tag_115\n      jump\t// in\n    tag_114:\n      swap2\n      swap1\n      pop\n      sstore\n      pop\n        /* \"Vote_System.sol\":1109:1433  function register(string memory _name, uint _age) public {... */\n      pop\n      pop\n      jump\t// out\n        /* \"Vote_System.sol\":1774:1841  function voteCongress() public {... */\n    tag_65:\n        /* \"Vote_System.sol\":1816:1833  _vote(\"Congress\") */\n      tag_117\n      mload(0x40)\n      dup1\n      0x40\n      add\n      0x40\n      mstore\n      dup1\n      0x08\n      dup2\n      mstore\n      0x20\n      add\n      0x436f6e6772657373000000000000000000000000000000000000000000000000\n      dup2\n      mstore\n      pop\n        /* \"Vote_System.sol\":1816:1821  _vote */\n      tag_68\n        /* \"Vote_System.sol\":1816:1833  _vote(\"Congress\") */\n      jump\t// in\n    tag_117:\n        /* \"Vote_System.sol\":1774:1841  function voteCongress() public {... */\n      jump\t// out\n        /* \"Vote_System.sol\":1476:1673  function _vote(string memory _party) internal onlyRegistered notVoted {... */\n    tag_68:\n        /* \"Vote_System.sol\":852:858  voters */\n      0x02\n        /* \"Vote_System.sol\":852:870  voters[msg.sender] */\n      0x00\n        /* \"Vote_System.sol\":859:869  msg.sender */\n      caller\n        /* \"Vote_System.sol\":852:870  voters[msg.sender] */\n      0xffffffffffffffffffffffffffffffffffffffff\n      and\n      0xffffffffffffffffffffffffffffffffffffffff\n      and\n      dup2\n      mstore\n      0x20\n      add\n      swap1\n      dup2\n      mstore\n      0x20\n      add\n      0x00\n      keccak256\n        /* \"Vote_System.sol\":852:883  voters[msg.sender].isRegistered */\n      0x03\n      add\n      0x01\n      swap1\n      sload\n      swap1\n      0x0100\n      exp\n      swap1\n      div\n      0xff\n      and\n        /* \"Vote_System.sol\":844:902  require(voters[msg.sender].isRegistered, \"Not registered\") */\n      tag_119\n      jumpi\n      mload(0x40)\n      0x08c379a000000000000000000000000000000000000000000000000000000000\n      dup2\n      mstore\n      0x04\n      add\n      tag_120\n      swap1\n      tag_121\n      jump\t// in\n    tag_120:\n      mload(0x40)\n      dup1\n      swap2\n      sub\n      swap1\n      revert\n    tag_119:\n        /* \"Vote_System.sol\":1008:1014  voters */\n      0x02\n        /* \"Vote_System.sol\":1008:1026  voters[msg.sender] */\n      0x00\n        /* \"Vote_System.sol\":1015:1025  msg.sender */\n      caller\n        /* \"Vote_System.sol\":1008:1026  voters[msg.sender] */\n      0xffffffffffffffffffffffffffffffffffffffff\n      and\n      0xffffffffffffffffffffffffffffffffffffffff\n      and\n      dup2\n      mstore\n      0x20\n      add\n      swap1\n      dup2\n      mstore\n      0x20\n      add\n      0x00\n      keccak256\n        /* \"Vote_System.sol\":1008:1035  voters[msg.sender].hasVoted */\n      0x03\n      add\n      0x00\n      swap1\n      sload\n      swap1\n      0x0100\n      exp\n      swap1\n      div\n      0xff\n      and\n        /* \"Vote_System.sol\":1007:1035  !voters[msg.sender].hasVoted */\n      iszero\n        /* \"Vote_System.sol\":999:1053  require(!voters[msg.sender].hasVoted, \"Already voted\") */\n      tag_123\n      jumpi\n      mload(0x40)\n      0x08c379a000000000000000000000000000000000000000000000000000000000\n      dup2\n      mstore\n      0x04\n      add\n      tag_124\n      swap1\n      tag_125\n      jump\t// in\n    tag_124:\n      mload(0x40)\n      dup1\n      swap2\n      sub\n      swap1\n      revert\n    tag_123:\n        /* \"Vote_System.sol\":1584:1590  _party */\n      dup1\n        /* \"Vote_System.sol\":1557:1563  voters */\n      0x02\n        /* \"Vote_System.sol\":1557:1575  voters[msg.sender] */\n      0x00\n        /* \"Vote_System.sol\":1564:1574  msg.sender */\n      caller\n        /* \"Vote_System.sol\":1557:1575  voters[msg.sender] */\n      0xffffffffffffffffffffffffffffffffffffffff\n      and\n      0xffffffffffffffffffffffffffffffffffffffff\n      and\n      dup2\n      mstore\n      0x20\n      add\n      swap1\n      dup2\n      mstore\n      0x20\n      add\n      0x00\n      keccak256\n        /* \"Vote_System.sol\":1557:1581  voters[msg.sender].party */\n      0x02\n      add\n        /* \"Vote_System.sol\":1557:1590  voters[msg.sender].party = _party */\n      swap1\n      dup2\n      tag_127\n      swap2\n      swap1\n      tag_111\n      jump\t// in\n    tag_127:\n      pop\n        /* \"Vote_System.sol\":1631:1635  true */\n      0x01\n        /* \"Vote_System.sol\":1601:1607  voters */\n      0x02\n        /* \"Vote_System.sol\":1601:1619  voters[msg.sender] */\n      0x00\n        /* \"Vote_System.sol\":1608:1618  msg.sender */\n      caller\n        /* \"Vote_System.sol\":1601:1619  voters[msg.sender] */\n      0xffffffffffffffffffffffffffffffffffffffff\n      and\n      0xffffffffffffffffffffffffffffffffffffffff\n      and\n      dup2\n      mstore\n      0x20\n      add\n      swap1\n      dup2\n      mstore\n      0x20\n      add\n      0x00\n      keccak256\n        /* \"Vote_System.sol\":1601:1628  voters[msg.sender].hasVoted */\n      0x03\n      add\n      0x00\n        /* \"Vote_System.sol\":1601:1635  voters[msg.sender].hasVoted = true */\n      0x0100\n      exp\n      dup2\n      sload\n      dup2\n      0xff\n      mul\n      not\n      and\n      swap1\n      dup4\n      iszero\n      iszero\n      mul\n      or\n      swap1\n      sstore\n      pop\n        /* \"Vote_System.sol\":1646:1655  voteCount */\n      0x04\n        /* \"Vote_System.sol\":1656:1662  _party */\n      dup2\n        /* \"Vote_System.sol\":1646:1663  voteCount[_party] */\n      mload(0x40)\n      tag_128\n      swap2\n      swap1\n      tag_88\n      jump\t// in\n    tag_128:\n      swap1\n      dup2\n      mstore\n      0x20\n      add\n      mload(0x40)\n      dup1\n      swap2\n      sub\n      swap1\n      keccak256\n      0x00\n        /* \"Vote_System.sol\":1646:1665  voteCount[_party]++ */\n      dup2\n      sload\n      dup1\n      swap3\n      swap2\n      swap1\n      tag_129\n      swap1\n      tag_115\n      jump\t// in\n    tag_129:\n      swap2\n      swap1\n      pop\n      sstore\n      pop\n        /* \"Vote_System.sol\":1476:1673  function _vote(string memory _party) internal onlyRegistered notVoted {... */\n      pop\n      jump\t// out\n        /* \"#utility.yul\":7:121   */\n    tag_130:\n        /* \"#utility.yul\":74:80   */\n      0x00\n        /* \"#utility.yul\":108:113   */\n      dup2\n        /* \"#utility.yul\":102:114   */\n      mload\n        /* \"#utility.yul\":92:114   */\n      swap1\n      pop\n        /* \"#utility.yul\":7:121   */\n      swap2\n      swap1\n      pop\n      jump\t// out\n        /* \"#utility.yul\":127:311   */\n    tag_131:\n        /* \"#utility.yul\":226:237   */\n      0x00\n        /* \"#utility.yul\":260:266   */\n      dup3\n        /* \"#utility.yul\":255:258   */\n      dup3\n        /* \"#utility.yul\":248:267   */\n      mstore\n        /* \"#utility.yul\":300:304   */\n      0x20\n        /* \"#utility.yul\":295:298   */\n      dup3\n        /* \"#utility.yul\":291:305   */\n      add\n        /* \"#utility.yul\":276:305   */\n      swap1\n      pop\n        /* \"#utility.yul\":127:311   */\n      swap3\n      swap2\n      pop\n      pop\n      jump\t// out\n        /* \"#utility.yul\":317:449   */\n    tag_132:\n        /* \"#utility.yul\":384:388   */\n      0x00\n        /* \"#utility.yul\":407:410   */\n      dup2\n        /* \"#utility.yul\":399:410   */\n      swap1\n      pop\n        /* \"#utility.yul\":437:441   */\n      0x20\n        /* \"#utility.yul\":432:435   */\n      dup3\n        /* \"#utility.yul\":428:442   */\n      add\n        /* \"#utility.yul\":420:442   */\n      swap1\n      pop\n        /* \"#utility.yul\":317:449   */\n      swap2\n      swap1\n      pop\n      jump\t// out\n        /* \"#utility.yul\":455:581   */\n    tag_133:\n        /* \"#utility.yul\":492:499   */\n      0x00\n        /* \"#utility.yul\":532:574   */\n      0xffffffffffffffffffffffffffffffffffffffff\n        /* \"#utility.yul\":525:530   */\n      dup3\n        /* \"#utility.yul\":521:575   */\n      and\n        /* \"#utility.yul\":510:575   */\n      swap1\n      pop\n        /* \"#utility.yul\":455:581   */\n      swap2\n      swap1\n      pop\n      jump\t// out\n        /* \"#utility.yul\":587:683   */\n    tag_134:\n        /* \"#utility.yul\":624:631   */\n      0x00\n        /* \"#utility.yul\":653:677   */\n      tag_198\n        /* \"#utility.yul\":671:676   */\n      dup3\n        /* \"#utility.yul\":653:677   */\n      tag_133\n      jump\t// in\n    tag_198:\n        /* \"#utility.yul\":642:677   */\n      swap1\n      pop\n        /* \"#utility.yul\":587:683   */\n      swap2\n      swap1\n      pop\n      jump\t// out\n        /* \"#utility.yul\":689:797   */\n    tag_135:\n        /* \"#utility.yul\":766:790   */\n      tag_200\n        /* \"#utility.yul\":784:789   */\n      dup2\n        /* \"#utility.yul\":766:790   */\n      tag_134\n      jump\t// in\n    tag_200:\n        /* \"#utility.yul\":761:764   */\n      dup3\n        /* \"#utility.yul\":754:791   */\n      mstore\n        /* \"#utility.yul\":689:797   */\n      pop\n      pop\n      jump\t// out\n        /* \"#utility.yul\":803:982   */\n    tag_136:\n        /* \"#utility.yul\":872:882   */\n      0x00\n        /* \"#utility.yul\":893:939   */\n      tag_202\n        /* \"#utility.yul\":935:938   */\n      dup4\n        /* \"#utility.yul\":927:933   */\n      dup4\n        /* \"#utility.yul\":893:939   */\n      tag_135\n      jump\t// in\n    tag_202:\n        /* \"#utility.yul\":971:975   */\n      0x20\n        /* \"#utility.yul\":966:969   */\n      dup4\n        /* \"#utility.yul\":962:976   */\n      add\n        /* \"#utility.yul\":948:976   */\n      swap1\n      pop\n        /* \"#utility.yul\":803:982   */\n      swap3\n      swap2\n      pop\n      pop\n      jump\t// out\n        /* \"#utility.yul\":988:1101   */\n    tag_137:\n        /* \"#utility.yul\":1058:1062   */\n      0x00\n        /* \"#utility.yul\":1090:1094   */\n      0x20\n        /* \"#utility.yul\":1085:1088   */\n      dup3\n        /* \"#utility.yul\":1081:1095   */\n      add\n        /* \"#utility.yul\":1073:1095   */\n      swap1\n      pop\n        /* \"#utility.yul\":988:1101   */\n      swap2\n      swap1\n      pop\n      jump\t// out\n        /* \"#utility.yul\":1137:1869   */\n    tag_138:\n        /* \"#utility.yul\":1256:1259   */\n      0x00\n        /* \"#utility.yul\":1285:1339   */\n      tag_205\n        /* \"#utility.yul\":1333:1338   */\n      dup3\n        /* \"#utility.yul\":1285:1339   */\n      tag_130\n      jump\t// in\n    tag_205:\n        /* \"#utility.yul\":1355:1441   */\n      tag_206\n        /* \"#utility.yul\":1434:1440   */\n      dup2\n        /* \"#utility.yul\":1429:1432   */\n      dup6\n        /* \"#utility.yul\":1355:1441   */\n      tag_131\n      jump\t// in\n    tag_206:\n        /* \"#utility.yul\":1348:1441   */\n      swap4\n      pop\n        /* \"#utility.yul\":1465:1521   */\n      tag_207\n        /* \"#utility.yul\":1515:1520   */\n      dup4\n        /* \"#utility.yul\":1465:1521   */\n      tag_132\n      jump\t// in\n    tag_207:\n        /* \"#utility.yul\":1544:1551   */\n      dup1\n        /* \"#utility.yul\":1575:1576   */\n      0x00\n        /* \"#utility.yul\":1560:1844   */\n    tag_208:\n        /* \"#utility.yul\":1585:1591   */\n      dup4\n        /* \"#utility.yul\":1582:1583   */\n      dup2\n        /* \"#utility.yul\":1579:1592   */\n      lt\n        /* \"#utility.yul\":1560:1844   */\n      iszero\n      tag_210\n      jumpi\n        /* \"#utility.yul\":1661:1667   */\n      dup2\n        /* \"#utility.yul\":1655:1668   */\n      mload\n        /* \"#utility.yul\":1688:1751   */\n      tag_211\n        /* \"#utility.yul\":1747:1750   */\n      dup9\n        /* \"#utility.yul\":1732:1745   */\n      dup3\n        /* \"#utility.yul\":1688:1751   */\n      tag_136\n      jump\t// in\n    tag_211:\n        /* \"#utility.yul\":1681:1751   */\n      swap8\n      pop\n        /* \"#utility.yul\":1774:1834   */\n      tag_212\n        /* \"#utility.yul\":1827:1833   */\n      dup4\n        /* \"#utility.yul\":1774:1834   */\n      tag_137\n      jump\t// in\n    tag_212:\n        /* \"#utility.yul\":1764:1834   */\n      swap3\n      pop\n        /* \"#utility.yul\":1620:1844   */\n      pop\n        /* \"#utility.yul\":1607:1608   */\n      0x01\n        /* \"#utility.yul\":1604:1605   */\n      dup2\n        /* \"#utility.yul\":1600:1609   */\n      add\n        /* \"#utility.yul\":1595:1609   */\n      swap1\n      pop\n        /* \"#utility.yul\":1560:1844   */\n      jump(tag_208)\n    tag_210:\n        /* \"#utility.yul\":1564:1578   */\n      pop\n        /* \"#utility.yul\":1860:1863   */\n      dup6\n        /* \"#utility.yul\":1853:1863   */\n      swap4\n      pop\n        /* \"#utility.yul\":1261:1869   */\n      pop\n      pop\n      pop\n        /* \"#utility.yul\":1137:1869   */\n      swap3\n      swap2\n      pop\n      pop\n      jump\t// out\n        /* \"#utility.yul\":1875:2248   */\n    tag_23:\n        /* \"#utility.yul\":2018:2022   */\n      0x00\n        /* \"#utility.yul\":2056:2058   */\n      0x20\n        /* \"#utility.yul\":2045:2054   */\n      dup3\n        /* \"#utility.yul\":2041:2059   */\n      add\n        /* \"#utility.yul\":2033:2059   */\n      swap1\n      pop\n        /* \"#utility.yul\":2105:2114   */\n      dup2\n        /* \"#utility.yul\":2099:2103   */\n      dup2\n        /* \"#utility.yul\":2095:2115   */\n      sub\n        /* \"#utility.yul\":2091:2092   */\n      0x00\n        /* \"#utility.yul\":2080:2089   */\n      dup4\n        /* \"#utility.yul\":2076:2093   */\n      add\n        /* \"#utility.yul\":2069:2116   */\n      mstore\n        /* \"#utility.yul\":2133:2241   */\n      tag_214\n        /* \"#utility.yul\":2236:2240   */\n      dup2\n        /* \"#utility.yul\":2227:2233   */\n      dup5\n        /* \"#utility.yul\":2133:2241   */\n      tag_138\n      jump\t// in\n    tag_214:\n        /* \"#utility.yul\":2125:2241   */\n      swap1\n      pop\n        /* \"#utility.yul\":1875:2248   */\n      swap3\n      swap2\n      pop\n      pop\n      jump\t// out\n        /* \"#utility.yul\":2254:2353   */\n    tag_139:\n        /* \"#utility.yul\":2306:2312   */\n      0x00\n        /* \"#utility.yul\":2340:2345   */\n      dup2\n        /* \"#utility.yul\":2334:2346   */\n      mload\n        /* \"#utility.yul\":2324:2346   */\n      swap1\n      pop\n        /* \"#utility.yul\":2254:2353   */\n      swap2\n      swap1\n      pop\n      jump\t// out\n        /* \"#utility.yul\":2359:2528   */\n    tag_140:\n        /* \"#utility.yul\":2443:2454   */\n      0x00\n        /* \"#utility.yul\":2477:2483   */\n      dup3\n        /* \"#utility.yul\":2472:2475   */\n      dup3\n        /* \"#utility.yul\":2465:2484   */\n      mstore\n        /* \"#utility.yul\":2517:2521   */\n      0x20\n        /* \"#utility.yul\":2512:2515   */\n      dup3\n        /* \"#utility.yul\":2508:2522   */\n      add\n        /* \"#utility.yul\":2493:2522   */\n      swap1\n      pop\n        /* \"#utility.yul\":2359:2528   */\n      swap3\n      swap2\n      pop\n      pop\n      jump\t// out\n        /* \"#utility.yul\":2534:2673   */\n    tag_141:\n        /* \"#utility.yul\":2623:2629   */\n      dup3\n        /* \"#utility.yul\":2618:2621   */\n      dup2\n        /* \"#utility.yul\":2613:2616   */\n      dup4\n        /* \"#utility.yul\":2607:2630   */\n      mcopy\n        /* \"#utility.yul\":2664:2665   */\n      0x00\n        /* \"#utility.yul\":2655:2661   */\n      dup4\n        /* \"#utility.yul\":2650:2653   */\n      dup4\n        /* \"#utility.yul\":2646:2662   */\n      add\n        /* \"#utility.yul\":2639:2666   */\n      mstore\n        /* \"#utility.yul\":2534:2673   */\n      pop\n      pop\n      pop\n      jump\t// out\n        /* \"#utility.yul\":2679:2781   */\n    tag_142:\n        /* \"#utility.yul\":2720:2726   */\n      0x00\n        /* \"#utility.yul\":2771:2773   */\n      0x1f\n        /* \"#utility.yul\":2767:2774   */\n      not\n        /* \"#utility.yul\":2762:2764   */\n      0x1f\n        /* \"#utility.yul\":2755:2760   */\n      dup4\n        /* \"#utility.yul\":2751:2765   */\n      add\n        /* \"#utility.yul\":2747:2775   */\n      and\n        /* \"#utility.yul\":2737:2775   */\n      swap1\n      pop\n        /* \"#utility.yul\":2679:2781   */\n      swap2\n      swap1\n      pop\n      jump\t// out\n        /* \"#utility.yul\":2787:3164   */\n    tag_143:\n        /* \"#utility.yul\":2875:2878   */\n      0x00\n        /* \"#utility.yul\":2903:2942   */\n      tag_220\n        /* \"#utility.yul\":2936:2941   */\n      dup3\n        /* \"#utility.yul\":2903:2942   */\n      tag_139\n      jump\t// in\n    tag_220:\n        /* \"#utility.yul\":2958:3029   */\n      tag_221\n        /* \"#utility.yul\":3022:3028   */\n      dup2\n        /* \"#utility.yul\":3017:3020   */\n      dup6\n        /* \"#utility.yul\":2958:3029   */\n      tag_140\n      jump\t// in\n    tag_221:\n        /* \"#utility.yul\":2951:3029   */\n      swap4\n      pop\n        /* \"#utility.yul\":3038:3103   */\n      tag_222\n        /* \"#utility.yul\":3096:3102   */\n      dup2\n        /* \"#utility.yul\":3091:3094   */\n      dup6\n        /* \"#utility.yul\":3084:3088   */\n      0x20\n        /* \"#utility.yul\":3077:3082   */\n      dup7\n        /* \"#utility.yul\":3073:3089   */\n      add\n        /* \"#utility.yul\":3038:3103   */\n      tag_141\n      jump\t// in\n    tag_222:\n        /* \"#utility.yul\":3128:3157   */\n      tag_223\n        /* \"#utility.yul\":3150:3156   */\n      dup2\n        /* \"#utility.yul\":3128:3157   */\n      tag_142\n      jump\t// in\n    tag_223:\n        /* \"#utility.yul\":3123:3126   */\n      dup5\n        /* \"#utility.yul\":3119:3158   */\n      add\n        /* \"#utility.yul\":3112:3158   */\n      swap2\n      pop\n        /* \"#utility.yul\":2879:3164   */\n      pop\n        /* \"#utility.yul\":2787:3164   */\n      swap3\n      swap2\n      pop\n      pop\n      jump\t// out\n        /* \"#utility.yul\":3170:3247   */\n    tag_144:\n        /* \"#utility.yul\":3207:3214   */\n      0x00\n        /* \"#utility.yul\":3236:3241   */\n      dup2\n        /* \"#utility.yul\":3225:3241   */\n      swap1\n      pop\n        /* \"#utility.yul\":3170:3247   */\n      swap2\n      swap1\n      pop\n      jump\t// out\n        /* \"#utility.yul\":3253:3371   */\n    tag_145:\n        /* \"#utility.yul\":3340:3364   */\n      tag_226\n        /* \"#utility.yul\":3358:3363   */\n      dup2\n        /* \"#utility.yul\":3340:3364   */\n      tag_144\n      jump\t// in\n    tag_226:\n        /* \"#utility.yul\":3335:3338   */\n      dup3\n        /* \"#utility.yul\":3328:3365   */\n      mstore\n        /* \"#utility.yul\":3253:3371   */\n      pop\n      pop\n      jump\t// out\n        /* \"#utility.yul\":3377:3467   */\n    tag_146:\n        /* \"#utility.yul\":3411:3418   */\n      0x00\n        /* \"#utility.yul\":3454:3459   */\n      dup2\n        /* \"#utility.yul\":3447:3460   */\n      iszero\n        /* \"#utility.yul\":3440:3461   */\n      iszero\n        /* \"#utility.yul\":3429:3461   */\n      swap1\n      pop\n        /* \"#utility.yul\":3377:3467   */\n      swap2\n      swap1\n      pop\n      jump\t// out\n        /* \"#utility.yul\":3473:3582   */\n    tag_147:\n        /* \"#utility.yul\":3554:3575   */\n      tag_229\n        /* \"#utility.yul\":3569:3574   */\n      dup2\n        /* \"#utility.yul\":3554:3575   */\n      tag_146\n      jump\t// in\n    tag_229:\n        /* \"#utility.yul\":3549:3552   */\n      dup3\n        /* \"#utility.yul\":3542:3576   */\n      mstore\n        /* \"#utility.yul\":3473:3582   */\n      pop\n      pop\n      jump\t// out\n        /* \"#utility.yul\":3588:4311   */\n    tag_27:\n        /* \"#utility.yul\":3799:3803   */\n      0x00\n        /* \"#utility.yul\":3837:3840   */\n      0x80\n        /* \"#utility.yul\":3826:3835   */\n      dup3\n        /* \"#utility.yul\":3822:3841   */\n      add\n        /* \"#utility.yul\":3814:3841   */\n      swap1\n      pop\n        /* \"#utility.yul\":3887:3896   */\n      dup2\n        /* \"#utility.yul\":3881:3885   */\n      dup2\n        /* \"#utility.yul\":3877:3897   */\n      sub\n        /* \"#utility.yul\":3873:3874   */\n      0x00\n        /* \"#utility.yul\":3862:3871   */\n      dup4\n        /* \"#utility.yul\":3858:3875   */\n      add\n        /* \"#utility.yul\":3851:3898   */\n      mstore\n        /* \"#utility.yul\":3915:3993   */\n      tag_231\n        /* \"#utility.yul\":3988:3992   */\n      dup2\n        /* \"#utility.yul\":3979:3985   */\n      dup8\n        /* \"#utility.yul\":3915:3993   */\n      tag_143\n      jump\t// in\n    tag_231:\n        /* \"#utility.yul\":3907:3993   */\n      swap1\n      pop\n        /* \"#utility.yul\":4003:4075   */\n      tag_232\n        /* \"#utility.yul\":4071:4073   */\n      0x20\n        /* \"#utility.yul\":4060:4069   */\n      dup4\n        /* \"#utility.yul\":4056:4074   */\n      add\n        /* \"#utility.yul\":4047:4053   */\n      dup7\n        /* \"#utility.yul\":4003:4075   */\n      tag_145\n      jump\t// in\n    tag_232:\n        /* \"#utility.yul\":4122:4131   */\n      dup2\n        /* \"#utility.yul\":4116:4120   */\n      dup2\n        /* \"#utility.yul\":4112:4132   */\n      sub\n        /* \"#utility.yul\":4107:4109   */\n      0x40\n        /* \"#utility.yul\":4096:4105   */\n      dup4\n        /* \"#utility.yul\":4092:4110   */\n      add\n        /* \"#utility.yul\":4085:4133   */\n      mstore\n        /* \"#utility.yul\":4150:4228   */\n      tag_233\n        /* \"#utility.yul\":4223:4227   */\n      dup2\n        /* \"#utility.yul\":4214:4220   */\n      dup6\n        /* \"#utility.yul\":4150:4228   */\n      tag_143\n      jump\t// in\n    tag_233:\n        /* \"#utility.yul\":4142:4228   */\n      swap1\n      pop\n        /* \"#utility.yul\":4238:4304   */\n      tag_234\n        /* \"#utility.yul\":4300:4302   */\n      0x60\n        /* \"#utility.yul\":4289:4298   */\n      dup4\n        /* \"#utility.yul\":4285:4303   */\n      add\n        /* \"#utility.yul\":4276:4282   */\n      dup5\n        /* \"#utility.yul\":4238:4304   */\n      tag_147\n      jump\t// in\n    tag_234:\n        /* \"#utility.yul\":3588:4311   */\n      swap6\n      swap5\n      pop\n      pop\n      pop\n      pop\n      pop\n      jump\t// out\n        /* \"#utility.yul\":4317:4539   */\n    tag_31:\n        /* \"#utility.yul\":4410:4414   */\n      0x00\n        /* \"#utility.yul\":4448:4450   */\n      0x20\n        /* \"#utility.yul\":4437:4446   */\n      dup3\n        /* \"#utility.yul\":4433:4451   */\n      add\n        /* \"#utility.yul\":4425:4451   */\n      swap1\n      pop\n        /* \"#utility.yul\":4461:4532   */\n      tag_236\n        /* \"#utility.yul\":4529:4530   */\n      0x00\n        /* \"#utility.yul\":4518:4527   */\n      dup4\n        /* \"#utility.yul\":4514:4531   */\n      add\n        /* \"#utility.yul\":4505:4511   */\n      dup5\n        /* \"#utility.yul\":4461:4532   */\n      tag_145\n      jump\t// in\n    tag_236:\n        /* \"#utility.yul\":4317:4539   */\n      swap3\n      swap2\n      pop\n      pop\n      jump\t// out\n        /* \"#utility.yul\":4545:4620   */\n    tag_148:\n        /* \"#utility.yul\":4578:4584   */\n      0x00\n        /* \"#utility.yul\":4611:4613   */\n      0x40\n        /* \"#utility.yul\":4605:4614   */\n      mload\n        /* \"#utility.yul\":4595:4614   */\n      swap1\n      pop\n        /* \"#utility.yul\":4545:4620   */\n      swap1\n      jump\t// out\n        /* \"#utility.yul\":4626:4743   */\n    tag_149:\n        /* \"#utility.yul\":4735:4736   */\n      0x00\n        /* \"#utility.yul\":4732:4733   */\n      0x00\n        /* \"#utility.yul\":4725:4737   */\n      revert\n        /* \"#utility.yul\":4749:4866   */\n    tag_150:\n        /* \"#utility.yul\":4858:4859   */\n      0x00\n        /* \"#utility.yul\":4855:4856   */\n      0x00\n        /* \"#utility.yul\":4848:4860   */\n      revert\n        /* \"#utility.yul\":4872:4994   */\n    tag_151:\n        /* \"#utility.yul\":4945:4969   */\n      tag_241\n        /* \"#utility.yul\":4963:4968   */\n      dup2\n        /* \"#utility.yul\":4945:4969   */\n      tag_144\n      jump\t// in\n    tag_241:\n        /* \"#utility.yul\":4938:4943   */\n      dup2\n        /* \"#utility.yul\":4935:4970   */\n      eq\n        /* \"#utility.yul\":4925:4988   */\n      tag_242\n      jumpi\n        /* \"#utility.yul\":4984:4985   */\n      0x00\n        /* \"#utility.yul\":4981:4982   */\n      0x00\n        /* \"#utility.yul\":4974:4986   */\n      revert\n        /* \"#utility.yul\":4925:4988   */\n    tag_242:\n        /* \"#utility.yul\":4872:4994   */\n      pop\n      jump\t// out\n        /* \"#utility.yul\":5000:5139   */\n    tag_152:\n        /* \"#utility.yul\":5046:5051   */\n      0x00\n        /* \"#utility.yul\":5084:5090   */\n      dup2\n        /* \"#utility.yul\":5071:5091   */\n      calldataload\n        /* \"#utility.yul\":5062:5091   */\n      swap1\n      pop\n        /* \"#utility.yul\":5100:5133   */\n      tag_244\n        /* \"#utility.yul\":5127:5132   */\n      dup2\n        /* \"#utility.yul\":5100:5133   */\n      tag_151\n      jump\t// in\n    tag_244:\n        /* \"#utility.yul\":5000:5139   */\n      swap3\n      swap2\n      pop\n      pop\n      jump\t// out\n        /* \"#utility.yul\":5145:5474   */\n    tag_34:\n        /* \"#utility.yul\":5204:5210   */\n      0x00\n        /* \"#utility.yul\":5253:5255   */\n      0x20\n        /* \"#utility.yul\":5241:5250   */\n      dup3\n        /* \"#utility.yul\":5232:5239   */\n      dup5\n        /* \"#utility.yul\":5228:5251   */\n      sub\n        /* \"#utility.yul\":5224:5256   */\n      slt\n        /* \"#utility.yul\":5221:5340   */\n      iszero\n      tag_246\n      jumpi\n        /* \"#utility.yul\":5259:5338   */\n      tag_247\n      tag_149\n      jump\t// in\n    tag_247:\n        /* \"#utility.yul\":5221:5340   */\n    tag_246:\n        /* \"#utility.yul\":5379:5380   */\n      0x00\n        /* \"#utility.yul\":5404:5457   */\n      tag_248\n        /* \"#utility.yul\":5449:5456   */\n      dup5\n        /* \"#utility.yul\":5440:5446   */\n      dup3\n        /* \"#utility.yul\":5429:5438   */\n      dup6\n        /* \"#utility.yul\":5425:5447   */\n      add\n        /* \"#utility.yul\":5404:5457   */\n      tag_152\n      jump\t// in\n    tag_248:\n        /* \"#utility.yul\":5394:5457   */\n      swap2\n      pop\n        /* \"#utility.yul\":5350:5467   */\n      pop\n        /* \"#utility.yul\":5145:5474   */\n      swap3\n      swap2\n      pop\n      pop\n      jump\t// out\n        /* \"#utility.yul\":5480:5598   */\n    tag_153:\n        /* \"#utility.yul\":5567:5591   */\n      tag_250\n        /* \"#utility.yul\":5585:5590   */\n      dup2\n        /* \"#utility.yul\":5567:5591   */\n      tag_134\n      jump\t// in\n    tag_250:\n        /* \"#utility.yul\":5562:5565   */\n      dup3\n        /* \"#utility.yul\":5555:5592   */\n      mstore\n        /* \"#utility.yul\":5480:5598   */\n      pop\n      pop\n      jump\t// out\n        /* \"#utility.yul\":5604:5826   */\n    tag_37:\n        /* \"#utility.yul\":5697:5701   */\n      0x00\n        /* \"#utility.yul\":5735:5737   */\n      0x20\n        /* \"#utility.yul\":5724:5733   */\n      dup3\n        /* \"#utility.yul\":5720:5738   */\n      add\n        /* \"#utility.yul\":5712:5738   */\n      swap1\n      pop\n        /* \"#utility.yul\":5748:5819   */\n      tag_252\n        /* \"#utility.yul\":5816:5817   */\n      0x00\n        /* \"#utility.yul\":5805:5814   */\n      dup4\n        /* \"#utility.yul\":5801:5818   */\n      add\n        /* \"#utility.yul\":5792:5798   */\n      dup5\n        /* \"#utility.yul\":5748:5819   */\n      tag_153\n      jump\t// in\n    tag_252:\n        /* \"#utility.yul\":5604:5826   */\n      swap3\n      swap2\n      pop\n      pop\n      jump\t// out\n        /* \"#utility.yul\":5832:5949   */\n    tag_154:\n        /* \"#utility.yul\":5941:5942   */\n      0x00\n        /* \"#utility.yul\":5938:5939   */\n      0x00\n        /* \"#utility.yul\":5931:5943   */\n      revert\n        /* \"#utility.yul\":5955:6072   */\n    tag_155:\n        /* \"#utility.yul\":6064:6065   */\n      0x00\n        /* \"#utility.yul\":6061:6062   */\n      0x00\n        /* \"#utility.yul\":6054:6066   */\n      revert\n        /* \"#utility.yul\":6078:6258   */\n    tag_156:\n        /* \"#utility.yul\":6126:6203   */\n      0x4e487b7100000000000000000000000000000000000000000000000000000000\n        /* \"#utility.yul\":6123:6124   */\n      0x00\n        /* \"#utility.yul\":6116:6204   */\n      mstore\n        /* \"#utility.yul\":6223:6227   */\n      0x41\n        /* \"#utility.yul\":6220:6221   */\n      0x04\n        /* \"#utility.yul\":6213:6228   */\n      mstore\n        /* \"#utility.yul\":6247:6251   */\n      0x24\n        /* \"#utility.yul\":6244:6245   */\n      0x00\n        /* \"#utility.yul\":6237:6252   */\n      revert\n        /* \"#utility.yul\":6264:6545   */\n    tag_157:\n        /* \"#utility.yul\":6347:6374   */\n      tag_257\n        /* \"#utility.yul\":6369:6373   */\n      dup3\n        /* \"#utility.yul\":6347:6374   */\n      tag_142\n      jump\t// in\n    tag_257:\n        /* \"#utility.yul\":6339:6345   */\n      dup2\n        /* \"#utility.yul\":6335:6375   */\n      add\n        /* \"#utility.yul\":6477:6483   */\n      dup2\n        /* \"#utility.yul\":6465:6475   */\n      dup2\n        /* \"#utility.yul\":6462:6484   */\n      lt\n        /* \"#utility.yul\":6441:6459   */\n      0xffffffffffffffff\n        /* \"#utility.yul\":6429:6439   */\n      dup3\n        /* \"#utility.yul\":6426:6460   */\n      gt\n        /* \"#utility.yul\":6423:6485   */\n      or\n        /* \"#utility.yul\":6420:6508   */\n      iszero\n      tag_258\n      jumpi\n        /* \"#utility.yul\":6488:6506   */\n      tag_259\n      tag_156\n      jump\t// in\n    tag_259:\n        /* \"#utility.yul\":6420:6508   */\n    tag_258:\n        /* \"#utility.yul\":6528:6538   */\n      dup1\n        /* \"#utility.yul\":6524:6526   */\n      0x40\n        /* \"#utility.yul\":6517:6539   */\n      mstore\n        /* \"#utility.yul\":6307:6545   */\n      pop\n        /* \"#utility.yul\":6264:6545   */\n      pop\n      pop\n      jump\t// out\n        /* \"#utility.yul\":6551:6680   */\n    tag_158:\n        /* \"#utility.yul\":6585:6591   */\n      0x00\n        /* \"#utility.yul\":6612:6632   */\n      tag_261\n      tag_148\n      jump\t// in\n    tag_261:\n        /* \"#utility.yul\":6602:6632   */\n      swap1\n      pop\n        /* \"#utility.yul\":6641:6674   */\n      tag_262\n        /* \"#utility.yul\":6669:6673   */\n      dup3\n        /* \"#utility.yul\":6661:6667   */\n      dup3\n        /* \"#utility.yul\":6641:6674   */\n      tag_157\n      jump\t// in\n    tag_262:\n        /* \"#utility.yul\":6551:6680   */\n      swap2\n      swap1\n      pop\n      jump\t// out\n        /* \"#utility.yul\":6686:6994   */\n    tag_159:\n        /* \"#utility.yul\":6748:6752   */\n      0x00\n        /* \"#utility.yul\":6838:6856   */\n      0xffffffffffffffff\n        /* \"#utility.yul\":6830:6836   */\n      dup3\n        /* \"#utility.yul\":6827:6857   */\n      gt\n        /* \"#utility.yul\":6824:6880   */\n      iszero\n      tag_264\n      jumpi\n        /* \"#utility.yul\":6860:6878   */\n      tag_265\n      tag_156\n      jump\t// in\n    tag_265:\n        /* \"#utility.yul\":6824:6880   */\n    tag_264:\n        /* \"#utility.yul\":6898:6927   */\n      tag_266\n        /* \"#utility.yul\":6920:6926   */\n      dup3\n        /* \"#utility.yul\":6898:6927   */\n      tag_142\n      jump\t// in\n    tag_266:\n        /* \"#utility.yul\":6890:6927   */\n      swap1\n      pop\n        /* \"#utility.yul\":6982:6986   */\n      0x20\n        /* \"#utility.yul\":6976:6980   */\n      dup2\n        /* \"#utility.yul\":6972:6987   */\n      add\n        /* \"#utility.yul\":6964:6987   */\n      swap1\n      pop\n        /* \"#utility.yul\":6686:6994   */\n      swap2\n      swap1\n      pop\n      jump\t// out\n        /* \"#utility.yul\":7000:7148   */\n    tag_160:\n        /* \"#utility.yul\":7098:7104   */\n      dup3\n        /* \"#utility.yul\":7093:7096   */\n      dup2\n        /* \"#utility.yul\":7088:7091   */\n      dup4\n        /* \"#utility.yul\":7075:7105   */\n      calldatacopy\n        /* \"#utility.yul\":7139:7140   */\n      0x00\n        /* \"#utility.yul\":7130:7136   */\n      dup4\n        /* \"#utility.yul\":7125:7128   */\n      dup4\n        /* \"#utility.yul\":7121:7137   */\n      add\n        /* \"#utility.yul\":7114:7141   */\n      mstore\n        /* \"#utility.yul\":7000:7148   */\n      pop\n      pop\n      pop\n      jump\t// out\n        /* \"#utility.yul\":7154:7579   */\n    tag_161:\n        /* \"#utility.yul\":7232:7237   */\n      0x00\n        /* \"#utility.yul\":7257:7323   */\n      tag_269\n        /* \"#utility.yul\":7273:7322   */\n      tag_270\n        /* \"#utility.yul\":7315:7321   */\n      dup5\n        /* \"#utility.yul\":7273:7322   */\n      tag_159\n      jump\t// in\n    tag_270:\n        /* \"#utility.yul\":7257:7323   */\n      tag_158\n      jump\t// in\n    tag_269:\n        /* \"#utility.yul\":7248:7323   */\n      swap1\n      pop\n        /* \"#utility.yul\":7346:7352   */\n      dup3\n        /* \"#utility.yul\":7339:7344   */\n      dup2\n        /* \"#utility.yul\":7332:7353   */\n      mstore\n        /* \"#utility.yul\":7384:7388   */\n      0x20\n        /* \"#utility.yul\":7377:7382   */\n      dup2\n        /* \"#utility.yul\":7373:7389   */\n      add\n        /* \"#utility.yul\":7422:7425   */\n      dup5\n        /* \"#utility.yul\":7413:7419   */\n      dup5\n        /* \"#utility.yul\":7408:7411   */\n      dup5\n        /* \"#utility.yul\":7404:7420   */\n      add\n        /* \"#utility.yul\":7401:7426   */\n      gt\n        /* \"#utility.yul\":7398:7510   */\n      iszero\n      tag_271\n      jumpi\n        /* \"#utility.yul\":7429:7508   */\n      tag_272\n      tag_155\n      jump\t// in\n    tag_272:\n        /* \"#utility.yul\":7398:7510   */\n    tag_271:\n        /* \"#utility.yul\":7519:7573   */\n      tag_273\n        /* \"#utility.yul\":7566:7572   */\n      dup5\n        /* \"#utility.yul\":7561:7564   */\n      dup3\n        /* \"#utility.yul\":7556:7559   */\n      dup6\n        /* \"#utility.yul\":7519:7573   */\n      tag_160\n      jump\t// in\n    tag_273:\n        /* \"#utility.yul\":7238:7579   */\n      pop\n        /* \"#utility.yul\":7154:7579   */\n      swap4\n      swap3\n      pop\n      pop\n      pop\n      jump\t// out\n        /* \"#utility.yul\":7599:7939   */\n    tag_162:\n        /* \"#utility.yul\":7655:7660   */\n      0x00\n        /* \"#utility.yul\":7704:7707   */\n      dup3\n        /* \"#utility.yul\":7697:7701   */\n      0x1f\n        /* \"#utility.yul\":7689:7695   */\n      dup4\n        /* \"#utility.yul\":7685:7702   */\n      add\n        /* \"#utility.yul\":7681:7708   */\n      slt\n        /* \"#utility.yul\":7671:7793   */\n      tag_275\n      jumpi\n        /* \"#utility.yul\":7712:7791   */\n      tag_276\n      tag_154\n      jump\t// in\n    tag_276:\n        /* \"#utility.yul\":7671:7793   */\n    tag_275:\n        /* \"#utility.yul\":7829:7835   */\n      dup2\n        /* \"#utility.yul\":7816:7836   */\n      calldataload\n        /* \"#utility.yul\":7854:7933   */\n      tag_277\n        /* \"#utility.yul\":7929:7932   */\n      dup5\n        /* \"#utility.yul\":7921:7927   */\n      dup3\n        /* \"#utility.yul\":7914:7918   */\n      0x20\n        /* \"#utility.yul\":7906:7912   */\n      dup7\n        /* \"#utility.yul\":7902:7919   */\n      add\n        /* \"#utility.yul\":7854:7933   */\n      tag_161\n      jump\t// in\n    tag_277:\n        /* \"#utility.yul\":7845:7933   */\n      swap2\n      pop\n        /* \"#utility.yul\":7661:7939   */\n      pop\n        /* \"#utility.yul\":7599:7939   */\n      swap3\n      swap2\n      pop\n      pop\n      jump\t// out\n        /* \"#utility.yul\":7945:8454   */\n    tag_40:\n        /* \"#utility.yul\":8014:8020   */\n      0x00\n        /* \"#utility.yul\":8063:8065   */\n      0x20\n        /* \"#utility.yul\":8051:8060   */\n      dup3\n        /* \"#utility.yul\":8042:8049   */\n      dup5\n        /* \"#utility.yul\":8038:8061   */\n      sub\n        /* \"#utility.yul\":8034:8066   */\n      slt\n        /* \"#utility.yul\":8031:8150   */\n      iszero\n      tag_279\n      jumpi\n        /* \"#utility.yul\":8069:8148   */\n      tag_280\n      tag_149\n      jump\t// in\n    tag_280:\n        /* \"#utility.yul\":8031:8150   */\n    tag_279:\n        /* \"#utility.yul\":8217:8218   */\n      0x00\n        /* \"#utility.yul\":8206:8215   */\n      dup3\n        /* \"#utility.yul\":8202:8219   */\n      add\n        /* \"#utility.yul\":8189:8220   */\n      calldataload\n        /* \"#utility.yul\":8247:8265   */\n      0xffffffffffffffff\n        /* \"#utility.yul\":8239:8245   */\n      dup2\n        /* \"#utility.yul\":8236:8266   */\n      gt\n        /* \"#utility.yul\":8233:8350   */\n      iszero\n      tag_281\n      jumpi\n        /* \"#utility.yul\":8269:8348   */\n      tag_282\n      tag_150\n      jump\t// in\n    tag_282:\n        /* \"#utility.yul\":8233:8350   */\n    tag_281:\n        /* \"#utility.yul\":8374:8437   */\n      tag_283\n        /* \"#utility.yul\":8429:8436   */\n      dup5\n        /* \"#utility.yul\":8420:8426   */\n      dup3\n        /* \"#utility.yul\":8409:8418   */\n      dup6\n        /* \"#utility.yul\":8405:8427   */\n      add\n        /* \"#utility.yul\":8374:8437   */\n      tag_162\n      jump\t// in\n    tag_283:\n        /* \"#utility.yul\":8364:8437   */\n      swap2\n      pop\n        /* \"#utility.yul\":8160:8447   */\n      pop\n        /* \"#utility.yul\":7945:8454   */\n      swap3\n      swap2\n      pop\n      pop\n      jump\t// out\n        /* \"#utility.yul\":8460:8582   */\n    tag_163:\n        /* \"#utility.yul\":8533:8557   */\n      tag_285\n        /* \"#utility.yul\":8551:8556   */\n      dup2\n        /* \"#utility.yul\":8533:8557   */\n      tag_134\n      jump\t// in\n    tag_285:\n        /* \"#utility.yul\":8526:8531   */\n      dup2\n        /* \"#utility.yul\":8523:8558   */\n      eq\n        /* \"#utility.yul\":8513:8576   */\n      tag_286\n      jumpi\n        /* \"#utility.yul\":8572:8573   */\n      0x00\n        /* \"#utility.yul\":8569:8570   */\n      0x00\n        /* \"#utility.yul\":8562:8574   */\n      revert\n        /* \"#utility.yul\":8513:8576   */\n    tag_286:\n        /* \"#utility.yul\":8460:8582   */\n      pop\n      jump\t// out\n        /* \"#utility.yul\":8588:8727   */\n    tag_164:\n        /* \"#utility.yul\":8634:8639   */\n      0x00\n        /* \"#utility.yul\":8672:8678   */\n      dup2\n        /* \"#utility.yul\":8659:8679   */\n      calldataload\n        /* \"#utility.yul\":8650:8679   */\n      swap1\n      pop\n        /* \"#utility.yul\":8688:8721   */\n      tag_288\n        /* \"#utility.yul\":8715:8720   */\n      dup2\n        /* \"#utility.yul\":8688:8721   */\n      tag_163\n      jump\t// in\n    tag_288:\n        /* \"#utility.yul\":8588:8727   */\n      swap3\n      swap2\n      pop\n      pop\n      jump\t// out\n        /* \"#utility.yul\":8733:9062   */\n    tag_48:\n        /* \"#utility.yul\":8792:8798   */\n      0x00\n        /* \"#utility.yul\":8841:8843   */\n      0x20\n        /* \"#utility.yul\":8829:8838   */\n      dup3\n        /* \"#utility.yul\":8820:8827   */\n      dup5\n        /* \"#utility.yul\":8816:8839   */\n      sub\n        /* \"#utility.yul\":8812:8844   */\n      slt\n        /* \"#utility.yul\":8809:8928   */\n      iszero\n      tag_290\n      jumpi\n        /* \"#utility.yul\":8847:8926   */\n      tag_291\n      tag_149\n      jump\t// in\n    tag_291:\n        /* \"#utility.yul\":8809:8928   */\n    tag_290:\n        /* \"#utility.yul\":8967:8968   */\n      0x00\n        /* \"#utility.yul\":8992:9045   */\n      tag_292\n        /* \"#utility.yul\":9037:9044   */\n      dup5\n        /* \"#utility.yul\":9028:9034   */\n      dup3\n        /* \"#utility.yul\":9017:9026   */\n      dup6\n        /* \"#utility.yul\":9013:9035   */\n      add\n        /* \"#utility.yul\":8992:9045   */\n      tag_164\n      jump\t// in\n    tag_292:\n        /* \"#utility.yul\":8982:9045   */\n      swap2\n      pop\n        /* \"#utility.yul\":8938:9055   */\n      pop\n        /* \"#utility.yul\":8733:9062   */\n      swap3\n      swap2\n      pop\n      pop\n      jump\t// out\n        /* \"#utility.yul\":9068:9890   */\n    tag_51:\n        /* \"#utility.yul\":9301:9305   */\n      0x00\n        /* \"#utility.yul\":9339:9342   */\n      0xa0\n        /* \"#utility.yul\":9328:9337   */\n      dup3\n        /* \"#utility.yul\":9324:9343   */\n      add\n        /* \"#utility.yul\":9316:9343   */\n      swap1\n      pop\n        /* \"#utility.yul\":9389:9398   */\n      dup2\n        /* \"#utility.yul\":9383:9387   */\n      dup2\n        /* \"#utility.yul\":9379:9399   */\n      sub\n        /* \"#utility.yul\":9375:9376   */\n      0x00\n        /* \"#utility.yul\":9364:9373   */\n      dup4\n        /* \"#utility.yul\":9360:9377   */\n      add\n        /* \"#utility.yul\":9353:9400   */\n      mstore\n        /* \"#utility.yul\":9417:9495   */\n      tag_294\n        /* \"#utility.yul\":9490:9494   */\n      dup2\n        /* \"#utility.yul\":9481:9487   */\n      dup9\n        /* \"#utility.yul\":9417:9495   */\n      tag_143\n      jump\t// in\n    tag_294:\n        /* \"#utility.yul\":9409:9495   */\n      swap1\n      pop\n        /* \"#utility.yul\":9505:9577   */\n      tag_295\n        /* \"#utility.yul\":9573:9575   */\n      0x20\n        /* \"#utility.yul\":9562:9571   */\n      dup4\n        /* \"#utility.yul\":9558:9576   */\n      add\n        /* \"#utility.yul\":9549:9555   */\n      dup8\n        /* \"#utility.yul\":9505:9577   */\n      tag_145\n      jump\t// in\n    tag_295:\n        /* \"#utility.yul\":9624:9633   */\n      dup2\n        /* \"#utility.yul\":9618:9622   */\n      dup2\n        /* \"#utility.yul\":9614:9634   */\n      sub\n        /* \"#utility.yul\":9609:9611   */\n      0x40\n        /* \"#utility.yul\":9598:9607   */\n      dup4\n        /* \"#utility.yul\":9594:9612   */\n      add\n        /* \"#utility.yul\":9587:9635   */\n      mstore\n        /* \"#utility.yul\":9652:9730   */\n      tag_296\n        /* \"#utility.yul\":9725:9729   */\n      dup2\n        /* \"#utility.yul\":9716:9722   */\n      dup7\n        /* \"#utility.yul\":9652:9730   */\n      tag_143\n      jump\t// in\n    tag_296:\n        /* \"#utility.yul\":9644:9730   */\n      swap1\n      pop\n        /* \"#utility.yul\":9740:9806   */\n      tag_297\n        /* \"#utility.yul\":9802:9804   */\n      0x60\n        /* \"#utility.yul\":9791:9800   */\n      dup4\n        /* \"#utility.yul\":9787:9805   */\n      add\n        /* \"#utility.yul\":9778:9784   */\n      dup6\n        /* \"#utility.yul\":9740:9806   */\n      tag_147\n      jump\t// in\n    tag_297:\n        /* \"#utility.yul\":9816:9883   */\n      tag_298\n        /* \"#utility.yul\":9878:9881   */\n      0x80\n        /* \"#utility.yul\":9867:9876   */\n      dup4\n        /* \"#utility.yul\":9863:9882   */\n      add\n        /* \"#utility.yul\":9854:9860   */\n      dup5\n        /* \"#utility.yul\":9816:9883   */\n      tag_147\n      jump\t// in\n    tag_298:\n        /* \"#utility.yul\":9068:9890   */\n      swap7\n      swap6\n      pop\n      pop\n      pop\n      pop\n      pop\n      pop\n      jump\t// out\n        /* \"#utility.yul\":9896:10550   */\n    tag_62:\n        /* \"#utility.yul\":9974:9980   */\n      0x00\n        /* \"#utility.yul\":9982:9988   */\n      0x00\n        /* \"#utility.yul\":10031:10033   */\n      0x40\n        /* \"#utility.yul\":10019:10028   */\n      dup4\n        /* \"#utility.yul\":10010:10017   */\n      dup6\n        /* \"#utility.yul\":10006:10029   */\n      sub\n        /* \"#utility.yul\":10002:10034   */\n      slt\n        /* \"#utility.yul\":9999:10118   */\n      iszero\n      tag_300\n      jumpi\n        /* \"#utility.yul\":10037:10116   */\n      tag_301\n      tag_149\n      jump\t// in\n    tag_301:\n        /* \"#utility.yul\":9999:10118   */\n    tag_300:\n        /* \"#utility.yul\":10185:10186   */\n      0x00\n        /* \"#utility.yul\":10174:10183   */\n      dup4\n        /* \"#utility.yul\":10170:10187   */\n      add\n        /* \"#utility.yul\":10157:10188   */\n      calldataload\n        /* \"#utility.yul\":10215:10233   */\n      0xffffffffffffffff\n        /* \"#utility.yul\":10207:10213   */\n      dup2\n        /* \"#utility.yul\":10204:10234   */\n      gt\n        /* \"#utility.yul\":10201:10318   */\n      iszero\n      tag_302\n      jumpi\n        /* \"#utility.yul\":10237:10316   */\n      tag_303\n      tag_150\n      jump\t// in\n    tag_303:\n        /* \"#utility.yul\":10201:10318   */\n    tag_302:\n        /* \"#utility.yul\":10342:10405   */\n      tag_304\n        /* \"#utility.yul\":10397:10404   */\n      dup6\n        /* \"#utility.yul\":10388:10394   */\n      dup3\n        /* \"#utility.yul\":10377:10386   */\n      dup7\n        /* \"#utility.yul\":10373:10395   */\n      add\n        /* \"#utility.yul\":10342:10405   */\n      tag_162\n      jump\t// in\n    tag_304:\n        /* \"#utility.yul\":10332:10405   */\n      swap3\n      pop\n        /* \"#utility.yul\":10128:10415   */\n      pop\n        /* \"#utility.yul\":10454:10456   */\n      0x20\n        /* \"#utility.yul\":10480:10533   */\n      tag_305\n        /* \"#utility.yul\":10525:10532   */\n      dup6\n        /* \"#utility.yul\":10516:10522   */\n      dup3\n        /* \"#utility.yul\":10505:10514   */\n      dup7\n        /* \"#utility.yul\":10501:10523   */\n      add\n        /* \"#utility.yul\":10480:10533   */\n      tag_152\n      jump\t// in\n    tag_305:\n        /* \"#utility.yul\":10470:10533   */\n      swap2\n      pop\n        /* \"#utility.yul\":10425:10543   */\n      pop\n        /* \"#utility.yul\":9896:10550   */\n      swap3\n      pop\n      swap3\n      swap1\n      pop\n      jump\t// out\n        /* \"#utility.yul\":10556:10736   */\n    tag_165:\n        /* \"#utility.yul\":10604:10681   */\n      0x4e487b7100000000000000000000000000000000000000000000000000000000\n        /* \"#utility.yul\":10601:10602   */\n      0x00\n        /* \"#utility.yul\":10594:10682   */\n      mstore\n        /* \"#utility.yul\":10701:10705   */\n      0x22\n        /* \"#utility.yul\":10698:10699   */\n      0x04\n        /* \"#utility.yul\":10691:10706   */\n      mstore\n        /* \"#utility.yul\":10725:10729   */\n      0x24\n        /* \"#utility.yul\":10722:10723   */\n      0x00\n        /* \"#utility.yul\":10715:10730   */\n      revert\n        /* \"#utility.yul\":10742:11062   */\n    tag_74:\n        /* \"#utility.yul\":10786:10792   */\n      0x00\n        /* \"#utility.yul\":10823:10824   */\n      0x02\n        /* \"#utility.yul\":10817:10821   */\n      dup3\n        /* \"#utility.yul\":10813:10825   */\n      div\n        /* \"#utility.yul\":10803:10825   */\n      swap1\n      pop\n        /* \"#utility.yul\":10870:10871   */\n      0x01\n        /* \"#utility.yul\":10864:10868   */\n      dup3\n        /* \"#utility.yul\":10860:10872   */\n      and\n        /* \"#utility.yul\":10891:10909   */\n      dup1\n        /* \"#utility.yul\":10881:10962   */\n      tag_308\n      jumpi\n        /* \"#utility.yul\":10947:10951   */\n      0x7f\n        /* \"#utility.yul\":10939:10945   */\n      dup3\n        /* \"#utility.yul\":10935:10952   */\n      and\n        /* \"#utility.yul\":10925:10952   */\n      swap2\n      pop\n        /* \"#utility.yul\":10881:10962   */\n    tag_308:\n        /* \"#utility.yul\":11009:11011   */\n      0x20\n        /* \"#utility.yul\":11001:11007   */\n      dup3\n        /* \"#utility.yul\":10998:11012   */\n      lt\n        /* \"#utility.yul\":10978:10996   */\n      dup2\n        /* \"#utility.yul\":10975:11013   */\n      sub\n        /* \"#utility.yul\":10972:11056   */\n      tag_309\n      jumpi\n        /* \"#utility.yul\":11028:11046   */\n      tag_310\n      tag_165\n      jump\t// in\n    tag_310:\n        /* \"#utility.yul\":10972:11056   */\n    tag_309:\n        /* \"#utility.yul\":10793:11062   */\n      pop\n        /* \"#utility.yul\":10742:11062   */\n      swap2\n      swap1\n      pop\n      jump\t// out\n        /* \"#utility.yul\":11068:11216   */\n    tag_166:\n        /* \"#utility.yul\":11170:11181   */\n      0x00\n        /* \"#utility.yul\":11207:11210   */\n      dup2\n        /* \"#utility.yul\":11192:11210   */\n      swap1\n      pop\n        /* \"#utility.yul\":11068:11216   */\n      swap3\n      swap2\n      pop\n      pop\n      jump\t// out\n        /* \"#utility.yul\":11222:11612   */\n    tag_167:\n        /* \"#utility.yul\":11328:11331   */\n      0x00\n        /* \"#utility.yul\":11356:11395   */\n      tag_313\n        /* \"#utility.yul\":11389:11394   */\n      dup3\n        /* \"#utility.yul\":11356:11395   */\n      tag_139\n      jump\t// in\n    tag_313:\n        /* \"#utility.yul\":11411:11500   */\n      tag_314\n        /* \"#utility.yul\":11493:11499   */\n      dup2\n        /* \"#utility.yul\":11488:11491   */\n      dup6\n        /* \"#utility.yul\":11411:11500   */\n      tag_166\n      jump\t// in\n    tag_314:\n        /* \"#utility.yul\":11404:11500   */\n      swap4\n      pop\n        /* \"#utility.yul\":11509:11574   */\n      tag_315\n        /* \"#utility.yul\":11567:11573   */\n      dup2\n        /* \"#utility.yul\":11562:11565   */\n      dup6\n        /* \"#utility.yul\":11555:11559   */\n      0x20\n        /* \"#utility.yul\":11548:11553   */\n      dup7\n        /* \"#utility.yul\":11544:11560   */\n      add\n        /* \"#utility.yul\":11509:11574   */\n      tag_141\n      jump\t// in\n    tag_315:\n        /* \"#utility.yul\":11599:11605   */\n      dup1\n        /* \"#utility.yul\":11594:11597   */\n      dup5\n        /* \"#utility.yul\":11590:11606   */\n      add\n        /* \"#utility.yul\":11583:11606   */\n      swap2\n      pop\n        /* \"#utility.yul\":11332:11612   */\n      pop\n        /* \"#utility.yul\":11222:11612   */\n      swap3\n      swap2\n      pop\n      pop\n      jump\t// out\n        /* \"#utility.yul\":11618:11893   */\n    tag_88:\n        /* \"#utility.yul\":11750:11753   */\n      0x00\n        /* \"#utility.yul\":11772:11867   */\n      tag_317\n        /* \"#utility.yul\":11863:11866   */\n      dup3\n        /* \"#utility.yul\":11854:11860   */\n      dup5\n        /* \"#utility.yul\":11772:11867   */\n      tag_167\n      jump\t// in\n    tag_317:\n        /* \"#utility.yul\":11765:11867   */\n      swap2\n      pop\n        /* \"#utility.yul\":11884:11887   */\n      dup2\n        /* \"#utility.yul\":11877:11887   */\n      swap1\n      pop\n        /* \"#utility.yul\":11618:11893   */\n      swap3\n      swap2\n      pop\n      pop\n      jump\t// out\n        /* \"#utility.yul\":11899:12069   */\n    tag_168:\n        /* \"#utility.yul\":12039:12061   */\n      0x4e6f7420656c696769626c6520746f20766f7465000000000000000000000000\n        /* \"#utility.yul\":12035:12036   */\n      0x00\n        /* \"#utility.yul\":12027:12033   */\n      dup3\n        /* \"#utility.yul\":12023:12037   */\n      add\n        /* \"#utility.yul\":12016:12062   */\n      mstore\n        /* \"#utility.yul\":11899:12069   */\n      pop\n      jump\t// out\n        /* \"#utility.yul\":12075:12441   */\n    tag_169:\n        /* \"#utility.yul\":12217:12220   */\n      0x00\n        /* \"#utility.yul\":12238:12305   */\n      tag_320\n        /* \"#utility.yul\":12302:12304   */\n      0x14\n        /* \"#utility.yul\":12297:12300   */\n      dup4\n        /* \"#utility.yul\":12238:12305   */\n      tag_140\n      jump\t// in\n    tag_320:\n        /* \"#utility.yul\":12231:12305   */\n      swap2\n      pop\n        /* \"#utility.yul\":12314:12407   */\n      tag_321\n        /* \"#utility.yul\":12403:12406   */\n      dup3\n        /* \"#utility.yul\":12314:12407   */\n      tag_168\n      jump\t// in\n    tag_321:\n        /* \"#utility.yul\":12432:12434   */\n      0x20\n        /* \"#utility.yul\":12427:12430   */\n      dup3\n        /* \"#utility.yul\":12423:12435   */\n      add\n        /* \"#utility.yul\":12416:12435   */\n      swap1\n      pop\n        /* \"#utility.yul\":12075:12441   */\n      swap2\n      swap1\n      pop\n      jump\t// out\n        /* \"#utility.yul\":12447:12866   */\n    tag_106:\n        /* \"#utility.yul\":12613:12617   */\n      0x00\n        /* \"#utility.yul\":12651:12653   */\n      0x20\n        /* \"#utility.yul\":12640:12649   */\n      dup3\n        /* \"#utility.yul\":12636:12654   */\n      add\n        /* \"#utility.yul\":12628:12654   */\n      swap1\n      pop\n        /* \"#utility.yul\":12700:12709   */\n      dup2\n        /* \"#utility.yul\":12694:12698   */\n      dup2\n        /* \"#utility.yul\":12690:12710   */\n      sub\n        /* \"#utility.yul\":12686:12687   */\n      0x00\n        /* \"#utility.yul\":12675:12684   */\n      dup4\n        /* \"#utility.yul\":12671:12688   */\n      add\n        /* \"#utility.yul\":12664:12711   */\n      mstore\n        /* \"#utility.yul\":12728:12859   */\n      tag_323\n        /* \"#utility.yul\":12854:12858   */\n      dup2\n        /* \"#utility.yul\":12728:12859   */\n      tag_169\n      jump\t// in\n    tag_323:\n        /* \"#utility.yul\":12720:12859   */\n      swap1\n      pop\n        /* \"#utility.yul\":12447:12866   */\n      swap2\n      swap1\n      pop\n      jump\t// out\n        /* \"#utility.yul\":12872:13040   */\n    tag_170:\n        /* \"#utility.yul\":13012:13032   */\n      0x416c726561647920726567697374657265640000000000000000000000000000\n        /* \"#utility.yul\":13008:13009   */\n      0x00\n        /* \"#utility.yul\":13000:13006   */\n      dup3\n        /* \"#utility.yul\":12996:13010   */\n      add\n        /* \"#utility.yul\":12989:13033   */\n      mstore\n        /* \"#utility.yul\":12872:13040   */\n      pop\n      jump\t// out\n        /* \"#utility.yul\":13046:13412   */\n    tag_171:\n        /* \"#utility.yul\":13188:13191   */\n      0x00\n        /* \"#utility.yul\":13209:13276   */\n      tag_326\n        /* \"#utility.yul\":13273:13275   */\n      0x12\n        /* \"#utility.yul\":13268:13271   */\n      dup4\n        /* \"#utility.yul\":13209:13276   */\n      tag_140\n      jump\t// in\n    tag_326:\n        /* \"#utility.yul\":13202:13276   */\n      swap2\n      pop\n        /* \"#utility.yul\":13285:13378   */\n      tag_327\n        /* \"#utility.yul\":13374:13377   */\n      dup3\n        /* \"#utility.yul\":13285:13378   */\n      tag_170\n      jump\t// in\n    tag_327:\n        /* \"#utility.yul\":13403:13405   */\n      0x20\n        /* \"#utility.yul\":13398:13401   */\n      dup3\n        /* \"#utility.yul\":13394:13406   */\n      add\n        /* \"#utility.yul\":13387:13406   */\n      swap1\n      pop\n        /* \"#utility.yul\":13046:13412   */\n      swap2\n      swap1\n      pop\n      jump\t// out\n        /* \"#utility.yul\":13418:13837   */\n    tag_109:\n        /* \"#utility.yul\":13584:13588   */\n      0x00\n        /* \"#utility.yul\":13622:13624   */\n      0x20\n        /* \"#utility.yul\":13611:13620   */\n      dup3\n        /* \"#utility.yul\":13607:13625   */\n      add\n        /* \"#utility.yul\":13599:13625   */\n      swap1\n      pop\n        /* \"#utility.yul\":13671:13680   */\n      dup2\n        /* \"#utility.yul\":13665:13669   */\n      dup2\n        /* \"#utility.yul\":13661:13681   */\n      sub\n        /* \"#utility.yul\":13657:13658   */\n      0x00\n        /* \"#utility.yul\":13646:13655   */\n      dup4\n        /* \"#utility.yul\":13642:13659   */\n      add\n        /* \"#utility.yul\":13635:13682   */\n      mstore\n        /* \"#utility.yul\":13699:13830   */\n      tag_329\n        /* \"#utility.yul\":13825:13829   */\n      dup2\n        /* \"#utility.yul\":13699:13830   */\n      tag_171\n      jump\t// in\n    tag_329:\n        /* \"#utility.yul\":13691:13830   */\n      swap1\n      pop\n        /* \"#utility.yul\":13418:13837   */\n      swap2\n      swap1\n      pop\n      jump\t// out\n        /* \"#utility.yul\":13843:13984   */\n    tag_172:\n        /* \"#utility.yul\":13892:13896   */\n      0x00\n        /* \"#utility.yul\":13915:13918   */\n      dup2\n        /* \"#utility.yul\":13907:13918   */\n      swap1\n      pop\n        /* \"#utility.yul\":13938:13941   */\n      dup2\n        /* \"#utility.yul\":13935:13936   */\n      0x00\n        /* \"#utility.yul\":13928:13942   */\n      mstore\n        /* \"#utility.yul\":13972:13976   */\n      0x20\n        /* \"#utility.yul\":13969:13970   */\n      0x00\n        /* \"#utility.yul\":13959:13977   */\n      keccak256\n        /* \"#utility.yul\":13951:13977   */\n      swap1\n      pop\n        /* \"#utility.yul\":13843:13984   */\n      swap2\n      swap1\n      pop\n      jump\t// out\n        /* \"#utility.yul\":13990:14083   */\n    tag_173:\n        /* \"#utility.yul\":14027:14033   */\n      0x00\n        /* \"#utility.yul\":14074:14076   */\n      0x20\n        /* \"#utility.yul\":14069:14071   */\n      0x1f\n        /* \"#utility.yul\":14062:14067   */\n      dup4\n        /* \"#utility.yul\":14058:14072   */\n      add\n        /* \"#utility.yul\":14054:14077   */\n      div\n        /* \"#utility.yul\":14044:14077   */\n      swap1\n      pop\n        /* \"#utility.yul\":13990:14083   */\n      swap2\n      swap1\n      pop\n      jump\t// out\n        /* \"#utility.yul\":14089:14196   */\n    tag_174:\n        /* \"#utility.yul\":14133:14141   */\n      0x00\n        /* \"#utility.yul\":14183:14188   */\n      dup3\n        /* \"#utility.yul\":14177:14181   */\n      dup3\n        /* \"#utility.yul\":14173:14189   */\n      shl\n        /* \"#utility.yul\":14152:14189   */\n      swap1\n      pop\n        /* \"#utility.yul\":14089:14196   */\n      swap3\n      swap2\n      pop\n      pop\n      jump\t// out\n        /* \"#utility.yul\":14202:14595   */\n    tag_175:\n        /* \"#utility.yul\":14271:14277   */\n      0x00\n        /* \"#utility.yul\":14321:14322   */\n      0x08\n        /* \"#utility.yul\":14309:14319   */\n      dup4\n        /* \"#utility.yul\":14305:14323   */\n      mul\n        /* \"#utility.yul\":14344:14441   */\n      tag_334\n        /* \"#utility.yul\":14374:14440   */\n      0xffffffffffffffffffffffffffffffffffffffffffffffffffffffffffffffff\n        /* \"#utility.yul\":14363:14372   */\n      dup3\n        /* \"#utility.yul\":14344:14441   */\n      tag_174\n      jump\t// in\n    tag_334:\n        /* \"#utility.yul\":14462:14501   */\n      tag_335\n        /* \"#utility.yul\":14492:14500   */\n      dup7\n        /* \"#utility.yul\":14481:14490   */\n      dup4\n        /* \"#utility.yul\":14462:14501   */\n      tag_174\n      jump\t// in\n    tag_335:\n        /* \"#utility.yul\":14450:14501   */\n      swap6\n      pop\n        /* \"#utility.yul\":14534:14538   */\n      dup1\n        /* \"#utility.yul\":14530:14539   */\n      not\n        /* \"#utility.yul\":14523:14528   */\n      dup5\n        /* \"#utility.yul\":14519:14540   */\n      and\n        /* \"#utility.yul\":14510:14540   */\n      swap4\n      pop\n        /* \"#utility.yul\":14583:14587   */\n      dup1\n        /* \"#utility.yul\":14573:14581   */\n      dup7\n        /* \"#utility.yul\":14569:14588   */\n      and\n        /* \"#utility.yul\":14562:14567   */\n      dup5\n        /* \"#utility.yul\":14559:14589   */\n      or\n        /* \"#utility.yul\":14549:14589   */\n      swap3\n      pop\n        /* \"#utility.yul\":14278:14595   */\n      pop\n      pop\n        /* \"#utility.yul\":14202:14595   */\n      swap4\n      swap3\n      pop\n      pop\n      pop\n      jump\t// out\n        /* \"#utility.yul\":14601:14661   */\n    tag_176:\n        /* \"#utility.yul\":14629:14632   */\n      0x00\n        /* \"#utility.yul\":14650:14655   */\n      dup2\n        /* \"#utility.yul\":14643:14655   */\n      swap1\n      pop\n        /* \"#utility.yul\":14601:14661   */\n      swap2\n      swap1\n      pop\n      jump\t// out\n        /* \"#utility.yul\":14667:14809   */\n    tag_177:\n        /* \"#utility.yul\":14717:14726   */\n      0x00\n        /* \"#utility.yul\":14750:14803   */\n      tag_338\n        /* \"#utility.yul\":14768:14802   */\n      tag_339\n        /* \"#utility.yul\":14777:14801   */\n      tag_340\n        /* \"#utility.yul\":14795:14800   */\n      dup5\n        /* \"#utility.yul\":14777:14801   */\n      tag_144\n      jump\t// in\n    tag_340:\n        /* \"#utility.yul\":14768:14802   */\n      tag_176\n      jump\t// in\n    tag_339:\n        /* \"#utility.yul\":14750:14803   */\n      tag_144\n      jump\t// in\n    tag_338:\n        /* \"#utility.yul\":14737:14803   */\n      swap1\n      pop\n        /* \"#utility.yul\":14667:14809   */\n      swap2\n      swap1\n      pop\n      jump\t// out\n        /* \"#utility.yul\":14815:14890   */\n    tag_178:\n        /* \"#utility.yul\":14858:14861   */\n      0x00\n        /* \"#utility.yul\":14879:14884   */\n      dup2\n        /* \"#utility.yul\":14872:14884   */\n      swap1\n      pop\n        /* \"#utility.yul\":14815:14890   */\n      swap2\n      swap1\n      pop\n      jump\t// out\n        /* \"#utility.yul\":14896:15165   */\n    tag_179:\n        /* \"#utility.yul\":15006:15045   */\n      tag_343\n        /* \"#utility.yul\":15037:15044   */\n      dup4\n        /* \"#utility.yul\":15006:15045   */\n      tag_177\n      jump\t// in\n    tag_343:\n        /* \"#utility.yul\":15067:15158   */\n      tag_344\n        /* \"#utility.yul\":15116:15157   */\n      tag_345\n        /* \"#utility.yul\":15140:15156   */\n      dup3\n        /* \"#utility.yul\":15116:15157   */\n      tag_178\n      jump\t// in\n    tag_345:\n        /* \"#utility.yul\":15108:15114   */\n      dup5\n        /* \"#utility.yul\":15101:15105   */\n      dup5\n        /* \"#utility.yul\":15095:15106   */\n      sload\n        /* \"#utility.yul\":15067:15158   */\n      tag_175\n      jump\t// in\n    tag_344:\n        /* \"#utility.yul\":15061:15065   */\n      dup3\n        /* \"#utility.yul\":15054:15159   */\n      sstore\n        /* \"#utility.yul\":14972:15165   */\n      pop\n        /* \"#utility.yul\":14896:15165   */\n      pop\n      pop\n      pop\n      jump\t// out\n        /* \"#utility.yul\":15171:15244   */\n    tag_180:\n        /* \"#utility.yul\":15216:15219   */\n      0x00\n        /* \"#utility.yul\":15237:15238   */\n      0x00\n        /* \"#utility.yul\":15230:15238   */\n      swap1\n      pop\n        /* \"#utility.yul\":15171:15244   */\n      swap1\n      jump\t// out\n        /* \"#utility.yul\":15250:15439   */\n    tag_181:\n        /* \"#utility.yul\":15327:15359   */\n      tag_348\n      tag_180\n      jump\t// in\n    tag_348:\n        /* \"#utility.yul\":15368:15433   */\n      tag_349\n        /* \"#utility.yul\":15426:15432   */\n      dup2\n        /* \"#utility.yul\":15418:15424   */\n      dup5\n        /* \"#utility.yul\":15412:15416   */\n      dup5\n        /* \"#utility.yul\":15368:15433   */\n      tag_179\n      jump\t// in\n    tag_349:\n        /* \"#utility.yul\":15303:15439   */\n      pop\n        /* \"#utility.yul\":15250:15439   */\n      pop\n      pop\n      jump\t// out\n        /* \"#utility.yul\":15445:15631   */\n    tag_182:\n        /* \"#utility.yul\":15505:15625   */\n    tag_351:\n        /* \"#utility.yul\":15522:15525   */\n      dup2\n        /* \"#utility.yul\":15515:15520   */\n      dup2\n        /* \"#utility.yul\":15512:15526   */\n      lt\n        /* \"#utility.yul\":15505:15625   */\n      iszero\n      tag_353\n      jumpi\n        /* \"#utility.yul\":15576:15615   */\n      tag_354\n        /* \"#utility.yul\":15613:15614   */\n      0x00\n        /* \"#utility.yul\":15606:15611   */\n      dup3\n        /* \"#utility.yul\":15576:15615   */\n      tag_181\n      jump\t// in\n    tag_354:\n        /* \"#utility.yul\":15549:15550   */\n      0x01\n        /* \"#utility.yul\":15542:15547   */\n      dup2\n        /* \"#utility.yul\":15538:15551   */\n      add\n        /* \"#utility.yul\":15529:15551   */\n      swap1\n      pop\n        /* \"#utility.yul\":15505:15625   */\n      jump(tag_351)\n    tag_353:\n        /* \"#utility.yul\":15445:15631   */\n      pop\n      pop\n      jump\t// out\n        /* \"#utility.yul\":15637:16180   */\n    tag_183:\n        /* \"#utility.yul\":15738:15740   */\n      0x1f\n        /* \"#utility.yul\":15733:15736   */\n      dup3\n        /* \"#utility.yul\":15730:15741   */\n      gt\n        /* \"#utility.yul\":15727:16173   */\n      iszero\n      tag_356\n      jumpi\n        /* \"#utility.yul\":15772:15810   */\n      tag_357\n        /* \"#utility.yul\":15804:15809   */\n      dup2\n        /* \"#utility.yul\":15772:15810   */\n      tag_172\n      jump\t// in\n    tag_357:\n        /* \"#utility.yul\":15856:15885   */\n      tag_358\n        /* \"#utility.yul\":15874:15884   */\n      dup5\n        /* \"#utility.yul\":15856:15885   */\n      tag_173\n      jump\t// in\n    tag_358:\n        /* \"#utility.yul\":15846:15854   */\n      dup2\n        /* \"#utility.yul\":15842:15886   */\n      add\n        /* \"#utility.yul\":16039:16041   */\n      0x20\n        /* \"#utility.yul\":16027:16037   */\n      dup6\n        /* \"#utility.yul\":16024:16042   */\n      lt\n        /* \"#utility.yul\":16021:16070   */\n      iszero\n      tag_359\n      jumpi\n        /* \"#utility.yul\":16060:16068   */\n      dup2\n        /* \"#utility.yul\":16045:16068   */\n      swap1\n      pop\n        /* \"#utility.yul\":16021:16070   */\n    tag_359:\n        /* \"#utility.yul\":16083:16163   */\n      tag_360\n        /* \"#utility.yul\":16139:16161   */\n      tag_361\n        /* \"#utility.yul\":16157:16160   */\n      dup6\n        /* \"#utility.yul\":16139:16161   */\n      tag_173\n      jump\t// in\n    tag_361:\n        /* \"#utility.yul\":16129:16137   */\n      dup4\n        /* \"#utility.yul\":16125:16162   */\n      add\n        /* \"#utility.yul\":16112:16123   */\n      dup3\n        /* \"#utility.yul\":16083:16163   */\n      tag_182\n      jump\t// in\n    tag_360:\n        /* \"#utility.yul\":15742:16173   */\n      pop\n      pop\n        /* \"#utility.yul\":15727:16173   */\n    tag_356:\n        /* \"#utility.yul\":15637:16180   */\n      pop\n      pop\n      pop\n      jump\t// out\n        /* \"#utility.yul\":16186:16303   */\n    tag_184:\n        /* \"#utility.yul\":16240:16248   */\n      0x00\n        /* \"#utility.yul\":16290:16295   */\n      dup3\n        /* \"#utility.yul\":16284:16288   */\n      dup3\n        /* \"#utility.yul\":16280:16296   */\n      shr\n        /* \"#utility.yul\":16259:16296   */\n      swap1\n      pop\n        /* \"#utility.yul\":16186:16303   */\n      swap3\n      swap2\n      pop\n      pop\n      jump\t// out\n        /* \"#utility.yul\":16309:16478   */\n    tag_185:\n        /* \"#utility.yul\":16353:16359   */\n      0x00\n        /* \"#utility.yul\":16386:16437   */\n      tag_364\n        /* \"#utility.yul\":16434:16435   */\n      0x00\n        /* \"#utility.yul\":16430:16436   */\n      not\n        /* \"#utility.yul\":16422:16427   */\n      dup5\n        /* \"#utility.yul\":16419:16420   */\n      0x08\n        /* \"#utility.yul\":16415:16428   */\n      mul\n        /* \"#utility.yul\":16386:16437   */\n      tag_184\n      jump\t// in\n    tag_364:\n        /* \"#utility.yul\":16382:16438   */\n      not\n        /* \"#utility.yul\":16467:16471   */\n      dup1\n        /* \"#utility.yul\":16461:16465   */\n      dup4\n        /* \"#utility.yul\":16457:16472   */\n      and\n        /* \"#utility.yul\":16447:16472   */\n      swap2\n      pop\n        /* \"#utility.yul\":16360:16478   */\n      pop\n        /* \"#utility.yul\":16309:16478   */\n      swap3\n      swap2\n      pop\n      pop\n      jump\t// out\n        /* \"#utility.yul\":16483:16778   */\n    tag_186:\n        /* \"#utility.yul\":16559:16563   */\n      0x00\n        /* \"#utility.yul\":16705:16734   */\n      tag_366\n        /* \"#utility.yul\":16730:16733   */\n      dup4\n        /* \"#utility.yul\":16724:16728   */\n      dup4\n        /* \"#utility.yul\":16705:16734   */\n      tag_185\n      jump\t// in\n    tag_366:\n        /* \"#utility.yul\":16697:16734   */\n      swap2\n      pop\n        /* \"#utility.yul\":16767:16770   */\n      dup3\n        /* \"#utility.yul\":16764:16765   */\n      0x02\n        /* \"#utility.yul\":16760:16771   */\n      mul\n        /* \"#utility.yul\":16754:16758   */\n      dup3\n        /* \"#utility.yul\":16751:16772   */\n      or\n        /* \"#utility.yul\":16743:16772   */\n      swap1\n      pop\n        /* \"#utility.yul\":16483:16778   */\n      swap3\n      swap2\n      pop\n      pop\n      jump\t// out\n        /* \"#utility.yul\":16783:18178   */\n    tag_111:\n        /* \"#utility.yul\":16900:16937   */\n      tag_368\n        /* \"#utility.yul\":16933:16936   */\n      dup3\n        /* \"#utility.yul\":16900:16937   */\n      tag_139\n      jump\t// in\n    tag_368:\n        /* \"#utility.yul\":17002:17020   */\n      0xffffffffffffffff\n        /* \"#utility.yul\":16994:17000   */\n      dup2\n        /* \"#utility.yul\":16991:17021   */\n      gt\n        /* \"#utility.yul\":16988:17044   */\n      iszero\n      tag_369\n      jumpi\n        /* \"#utility.yul\":17024:17042   */\n      tag_370\n      tag_156\n      jump\t// in\n    tag_370:\n        /* \"#utility.yul\":16988:17044   */\n    tag_369:\n        /* \"#utility.yul\":17068:17106   */\n      tag_371\n        /* \"#utility.yul\":17100:17104   */\n      dup3\n        /* \"#utility.yul\":17094:17105   */\n      sload\n        /* \"#utility.yul\":17068:17106   */\n      tag_74\n      jump\t// in\n    tag_371:\n        /* \"#utility.yul\":17153:17220   */\n      tag_372\n        /* \"#utility.yul\":17213:17219   */\n      dup3\n        /* \"#utility.yul\":17205:17211   */\n      dup3\n        /* \"#utility.yul\":17199:17203   */\n      dup6\n        /* \"#utility.yul\":17153:17220   */\n      tag_183\n      jump\t// in\n    tag_372:\n        /* \"#utility.yul\":17247:17248   */\n      0x00\n        /* \"#utility.yul\":17271:17275   */\n      0x20\n        /* \"#utility.yul\":17258:17275   */\n      swap1\n      pop\n        /* \"#utility.yul\":17303:17305   */\n      0x1f\n        /* \"#utility.yul\":17295:17301   */\n      dup4\n        /* \"#utility.yul\":17292:17306   */\n      gt\n        /* \"#utility.yul\":17320:17321   */\n      0x01\n        /* \"#utility.yul\":17315:17933   */\n      dup2\n      eq\n      tag_374\n      jumpi\n        /* \"#utility.yul\":17977:17978   */\n      0x00\n        /* \"#utility.yul\":17994:18000   */\n      dup5\n        /* \"#utility.yul\":17991:18068   */\n      iszero\n      tag_375\n      jumpi\n        /* \"#utility.yul\":18043:18052   */\n      dup3\n        /* \"#utility.yul\":18038:18041   */\n      dup8\n        /* \"#utility.yul\":18034:18053   */\n      add\n        /* \"#utility.yul\":18028:18054   */\n      mload\n        /* \"#utility.yul\":18019:18054   */\n      swap1\n      pop\n        /* \"#utility.yul\":17991:18068   */\n    tag_375:\n        /* \"#utility.yul\":18094:18161   */\n      tag_376\n        /* \"#utility.yul\":18154:18160   */\n      dup6\n        /* \"#utility.yul\":18147:18152   */\n      dup3\n        /* \"#utility.yul\":18094:18161   */\n      tag_186\n      jump\t// in\n    tag_376:\n        /* \"#utility.yul\":18088:18092   */\n      dup7\n        /* \"#utility.yul\":18081:18162   */\n      sstore\n        /* \"#utility.yul\":17950:18172   */\n      pop\n        /* \"#utility.yul\":17285:18172   */\n      jump(tag_373)\n        /* \"#utility.yul\":17315:17933   */\n    tag_374:\n        /* \"#utility.yul\":17367:17371   */\n      0x1f\n        /* \"#utility.yul\":17363:17372   */\n      not\n        /* \"#utility.yul\":17355:17361   */\n      dup5\n        /* \"#utility.yul\":17351:17373   */\n      and\n        /* \"#utility.yul\":17401:17438   */\n      tag_377\n        /* \"#utility.yul\":17433:17437   */\n      dup7\n        /* \"#utility.yul\":17401:17438   */\n      tag_172\n      jump\t// in\n    tag_377:\n        /* \"#utility.yul\":17460:17461   */\n      0x00\n        /* \"#utility.yul\":17474:17682   */\n    tag_378:\n        /* \"#utility.yul\":17488:17495   */\n      dup3\n        /* \"#utility.yul\":17485:17486   */\n      dup2\n        /* \"#utility.yul\":17482:17496   */\n      lt\n        /* \"#utility.yul\":17474:17682   */\n      iszero\n      tag_380\n      jumpi\n        /* \"#utility.yul\":17567:17576   */\n      dup5\n        /* \"#utility.yul\":17562:17565   */\n      dup10\n        /* \"#utility.yul\":17558:17577   */\n      add\n        /* \"#utility.yul\":17552:17578   */\n      mload\n        /* \"#utility.yul\":17544:17550   */\n      dup3\n        /* \"#utility.yul\":17537:17579   */\n      sstore\n        /* \"#utility.yul\":17618:17619   */\n      0x01\n        /* \"#utility.yul\":17610:17616   */\n      dup3\n        /* \"#utility.yul\":17606:17620   */\n      add\n        /* \"#utility.yul\":17596:17620   */\n      swap2\n      pop\n        /* \"#utility.yul\":17665:17667   */\n      0x20\n        /* \"#utility.yul\":17654:17663   */\n      dup6\n        /* \"#utility.yul\":17650:17668   */\n      add\n        /* \"#utility.yul\":17637:17668   */\n      swap5\n      pop\n        /* \"#utility.yul\":17511:17515   */\n      0x20\n        /* \"#utility.yul\":17508:17509   */\n      dup2\n        /* \"#utility.yul\":17504:17516   */\n      add\n        /* \"#utility.yul\":17499:17516   */\n      swap1\n      pop\n        /* \"#utility.yul\":17474:17682   */\n      jump(tag_378)\n    tag_380:\n        /* \"#utility.yul\":17710:17716   */\n      dup7\n        /* \"#utility.yul\":17701:17708   */\n      dup4\n        /* \"#utility.yul\":17698:17717   */\n      lt\n        /* \"#utility.yul\":17695:17874   */\n      iszero\n      tag_381\n      jumpi\n        /* \"#utility.yul\":17768:17777   */\n      dup5\n        /* \"#utility.yul\":17763:17766   */\n      dup10\n        /* \"#utility.yul\":17759:17778   */\n      add\n        /* \"#utility.yul\":17753:17779   */\n      mload\n        /* \"#utility.yul\":17811:17859   */\n      tag_382\n        /* \"#utility.yul\":17853:17857   */\n      0x1f\n        /* \"#utility.yul\":17845:17851   */\n      dup10\n        /* \"#utility.yul\":17841:17858   */\n      and\n        /* \"#utility.yul\":17830:17839   */\n      dup3\n        /* \"#utility.yul\":17811:17859   */\n      tag_185\n      jump\t// in\n    tag_382:\n        /* \"#utility.yul\":17803:17809   */\n      dup4\n        /* \"#utility.yul\":17796:17860   */\n      sstore\n        /* \"#utility.yul\":17718:17874   */\n      pop\n        /* \"#utility.yul\":17695:17874   */\n    tag_381:\n        /* \"#utility.yul\":17920:17921   */\n      0x01\n        /* \"#utility.yul\":17916:17917   */\n      0x02\n        /* \"#utility.yul\":17908:17914   */\n      dup9\n        /* \"#utility.yul\":17904:17918   */\n      mul\n        /* \"#utility.yul\":17900:17922   */\n      add\n        /* \"#utility.yul\":17894:17898   */\n      dup9\n        /* \"#utility.yul\":17887:17923   */\n      sstore\n        /* \"#utility.yul\":17322:17933   */\n      pop\n      pop\n      pop\n        /* \"#utility.yul\":17285:18172   */\n    tag_373:\n      pop\n        /* \"#utility.yul\":16875:18178   */\n      pop\n      pop\n      pop\n        /* \"#utility.yul\":16783:18178   */\n      pop\n      pop\n      jump\t// out\n        /* \"#utility.yul\":18184:18364   */\n    tag_187:\n        /* \"#utility.yul\":18232:18309   */\n      0x4e487b7100000000000000000000000000000000000000000000000000000000\n        /* \"#utility.yul\":18229:18230   */\n      0x00\n        /* \"#utility.yul\":18222:18310   */\n      mstore\n        /* \"#utility.yul\":18329:18333   */\n      0x11\n        /* \"#utility.yul\":18326:18327   */\n      0x04\n        /* \"#utility.yul\":18319:18334   */\n      mstore\n        /* \"#utility.yul\":18353:18357   */\n      0x24\n        /* \"#utility.yul\":18350:18351   */\n      0x00\n        /* \"#utility.yul\":18343:18358   */\n      revert\n        /* \"#utility.yul\":18370:18603   */\n    tag_115:\n        /* \"#utility.yul\":18409:18412   */\n      0x00\n        /* \"#utility.yul\":18432:18456   */\n      tag_385\n        /* \"#utility.yul\":18450:18455   */\n      dup3\n        /* \"#utility.yul\":18432:18456   */\n      tag_144\n      jump\t// in\n    tag_385:\n        /* \"#utility.yul\":18423:18456   */\n      swap2\n      pop\n        /* \"#utility.yul\":18478:18544   */\n      0xffffffffffffffffffffffffffffffffffffffffffffffffffffffffffffffff\n        /* \"#utility.yul\":18471:18476   */\n      dup3\n        /* \"#utility.yul\":18468:18545   */\n      sub\n        /* \"#utility.yul\":18465:18568   */\n      tag_386\n      jumpi\n        /* \"#utility.yul\":18548:18566   */\n      tag_387\n      tag_187\n      jump\t// in\n    tag_387:\n        /* \"#utility.yul\":18465:18568   */\n    tag_386:\n        /* \"#utility.yul\":18595:18596   */\n      0x01\n        /* \"#utility.yul\":18588:18593   */\n      dup3\n        /* \"#utility.yul\":18584:18597   */\n      add\n        /* \"#utility.yul\":18577:18597   */\n      swap1\n      pop\n        /* \"#utility.yul\":18370:18603   */\n      swap2\n      swap1\n      pop\n      jump\t// out\n        /* \"#utility.yul\":18609:18773   */\n    tag_188:\n        /* \"#utility.yul\":18749:18765   */\n      0x4e6f742072656769737465726564000000000000000000000000000000000000\n        /* \"#utility.yul\":18745:18746   */\n      0x00\n        /* \"#utility.yul\":18737:18743   */\n      dup3\n        /* \"#utility.yul\":18733:18747   */\n      add\n        /* \"#utility.yul\":18726:18766   */\n      mstore\n        /* \"#utility.yul\":18609:18773   */\n      pop\n      jump\t// out\n        /* \"#utility.yul\":18779:19145   */\n    tag_189:\n        /* \"#utility.yul\":18921:18924   */\n      0x00\n        /* \"#utility.yul\":18942:19009   */\n      tag_390\n        /* \"#utility.yul\":19006:19008   */\n      0x0e\n        /* \"#utility.yul\":19001:19004   */\n      dup4\n        /* \"#utility.yul\":18942:19009   */\n      tag_140\n      jump\t// in\n    tag_390:\n        /* \"#utility.yul\":18935:19009   */\n      swap2\n      pop\n        /* \"#utility.yul\":19018:19111   */\n      tag_391\n        /* \"#utility.yul\":19107:19110   */\n      dup3\n        /* \"#utility.yul\":19018:19111   */\n      tag_188\n      jump\t// in\n    tag_391:\n        /* \"#utility.yul\":19136:19138   */\n      0x20\n        /* \"#utility.yul\":19131:19134   */\n      dup3\n        /* \"#utility.yul\":19127:19139   */\n      add\n        /* \"#utility.yul\":19120:19139   */\n      swap1\n      pop\n        /* \"#utility.yul\":18779:19145   */\n      swap2\n      swap1\n      pop\n      jump\t// out\n        /* \"#utility.yul\":19151:19570   */\n    tag_121:\n        /* \"#utility.yul\":19317:19321   */\n      0x00\n        /* \"#utility.yul\":19355:19357   */\n      0x20\n        /* \"#utility.yul\":19344:19353   */\n      dup3\n        /* \"#utility.yul\":19340:19358   */\n      add\n        /* \"#utility.yul\":19332:19358   */\n      swap1\n      pop\n        /* \"#utility.yul\":19404:19413   */\n      dup2\n        /* \"#utility.yul\":19398:19402   */\n      dup2\n        /* \"#utility.yul\":19394:19414   */\n      sub\n        /* \"#utility.yul\":19390:19391   */\n      0x00\n        /* \"#utility.yul\":19379:19388   */\n      dup4\n        /* \"#utility.yul\":19375:19392   */\n      add\n        /* \"#utility.yul\":19368:19415   */\n      mstore\n        /* \"#utility.yul\":19432:19563   */\n      tag_393\n        /* \"#utility.yul\":19558:19562   */\n      dup2\n        /* \"#utility.yul\":19432:19563   */\n      tag_189\n      jump\t// in\n    tag_393:\n        /* \"#utility.yul\":19424:19563   */\n      swap1\n      pop\n        /* \"#utility.yul\":19151:19570   */\n      swap2\n      swap1\n      pop\n      jump\t// out\n        /* \"#utility.yul\":19576:19739   */\n    tag_190:\n        /* \"#utility.yul\":19716:19731   */\n      0x416c726561647920766f74656400000000000000000000000000000000000000\n        /* \"#utility.yul\":19712:19713   */\n      0x00\n        /* \"#utility.yul\":19704:19710   */\n      dup3\n        /* \"#utility.yul\":19700:19714   */\n      add\n        /* \"#utility.yul\":19693:19732   */\n      mstore\n        /* \"#utility.yul\":19576:19739   */\n      pop\n      jump\t// out\n        /* \"#utility.yul\":19745:20111   */\n    tag_191:\n        /* \"#utility.yul\":19887:19890   */\n      0x00\n        /* \"#utility.yul\":19908:19975   */\n      tag_396\n        /* \"#utility.yul\":19972:19974   */\n      0x0d\n        /* \"#utility.yul\":19967:19970   */\n      dup4\n        /* \"#utility.yul\":19908:19975   */\n      tag_140\n      jump\t// in\n    tag_396:\n        /* \"#utility.yul\":19901:19975   */\n      swap2\n      pop\n        /* \"#utility.yul\":19984:20077   */\n      tag_397\n        /* \"#utility.yul\":20073:20076   */\n      dup3\n        /* \"#utility.yul\":19984:20077   */\n      tag_190\n      jump\t// in\n    tag_397:\n        /* \"#utility.yul\":20102:20104   */\n      0x20\n        /* \"#utility.yul\":20097:20100   */\n      dup3\n        /* \"#utility.yul\":20093:20105   */\n      add\n        /* \"#utility.yul\":20086:20105   */\n      swap1\n      pop\n        /* \"#utility.yul\":19745:20111   */\n      swap2\n      swap1\n      pop\n      jump\t// out\n        /* \"#utility.yul\":20117:20536   */\n    tag_125:\n        /* \"#utility.yul\":20283:20287   */\n      0x00\n        /* \"#utility.yul\":20321:20323   */\n      0x20\n        /* \"#utility.yul\":20310:20319   */\n      dup3\n        /* \"#utility.yul\":20306:20324   */\n      add\n        /* \"#utility.yul\":20298:20324   */\n      swap1\n      pop\n        /* \"#utility.yul\":20370:20379   */\n      dup2\n        /* \"#utility.yul\":20364:20368   */\n      dup2\n        /* \"#utility.yul\":20360:20380   */\n      sub\n        /* \"#utility.yul\":20356:20357   */\n      0x00\n        /* \"#utility.yul\":20345:20354   */\n      dup4\n        /* \"#utility.yul\":20341:20358   */\n      add\n        /* \"#utility.yul\":20334:20381   */\n      mstore\n        /* \"#utility.yul\":20398:20529   */\n      tag_399\n        /* \"#utility.yul\":20524:20528   */\n      dup2\n        /* \"#utility.yul\":20398:20529   */\n      tag_191\n      jump\t// in\n    tag_399:\n        /* \"#utility.yul\":20390:20529   */\n      swap1\n      pop\n        /* \"#utility.yul\":20117:20536   */\n      swap2\n      swap1\n      pop\n      jump\t// out\n\n    auxdata: 0xa264697066735822122034af804811721954505bb7dbbe991c66b32ac1b35cba9d2ae92f3a63b22d534064736f6c634300081f0033\n}\n",
				"bytecode": {
					"linkReferences": {},
					"object": "6080604052348015600e575f5ffd5b50335f5f6101000a81548173ffffffffffffffffffffffffffffffffffffffff021916908373ffffffffffffffffffffffffffffffffffffffff1602179055506116788061005b5f395ff3fe608060405234801561000f575f5ffd5b50600436106100cd575f3560e01c80638da5cb5b1161008a578063ba7f755211610064578063ba7f7552146101f4578063e065818b14610224578063ea87152b1461022e578063f012d6621461024a576100cd565b80638da5cb5b14610198578063a3ec138d146101b6578063a9313107146101ea576100cd565b80631eac1c27146100d157806335bbe70e146100db578063431bbb7e146100f95780635f5300ff1461011a57806372ce73ab14610138578063805265e514610168575b5f5ffd5b6100d9610254565b005b6100e3610294565b6040516100f09190610cd7565b60405180910390f35b61010161031f565b6040516101119493929190610d99565b60405180910390f35b6101226104f0565b60405161012f9190610dea565b60405180910390f35b610152600480360381019061014d9190610e3e565b6104f6565b60405161015f9190610e78565b60405180910390f35b610182600480360381019061017d9190610fbd565b610531565b60405161018f9190610dea565b60405180910390f35b6101a0610558565b6040516101ad9190610e78565b60405180910390f35b6101d060048036038101906101cb919061102e565b61057c565b6040516101e1959493929190611059565b60405180910390f35b6101f26106d3565b005b61020e60048036038101906102099190610fbd565b610713565b60405161021b9190610dea565b60405180910390f35b61022c610740565b005b610248600480360381019061024391906110b8565b610780565b005b6102526109ba565b005b6102926040518060400160405280600381526020017f424a5000000000000000000000000000000000000000000000000000000000008152506109fa565b565b6060600380548060200260200160405190810160405280929190818152602001828054801561031557602002820191905f5260205f20905b815f9054906101000a900473ffffffffffffffffffffffffffffffffffffffff1673ffffffffffffffffffffffffffffffffffffffff16815260200190600101908083116102cc575b5050505050905090565b60605f60605f5f60025f3373ffffffffffffffffffffffffffffffffffffffff1673ffffffffffffffffffffffffffffffffffffffff1681526020019081526020015f206040518060a00160405290815f8201805461037d9061113f565b80601f01602080910402602001604051908101604052809291908181526020018280546103a99061113f565b80156103f45780601f106103cb576101008083540402835291602001916103f4565b820191905f5260205f20905b8154815290600101906020018083116103d757829003601f168201915b50505050508152602001600182015481526020016002820180546104179061113f565b80601f01602080910402602001604051908101604052809291908181526020018280546104439061113f565b801561048e5780601f106104655761010080835404028352916020019161048e565b820191905f5260205f20905b81548152906001019060200180831161047157829003601f168201915b50505050508152602001600382015f9054906101000a900460ff161515151581526020016003820160019054906101000a900460ff1615151515815250509050805f015181602001518260400151836060015194509450945094505090919293565b60015481565b60038181548110610505575f80fd5b905f5260205f20015f915054906101000a900473ffffffffffffffffffffffffffffffffffffffff1681565b5f60048260405161054291906111a9565b9081526020016040518091039020549050919050565b5f5f9054906101000a900473ffffffffffffffffffffffffffffffffffffffff1681565b6002602052805f5260405f205f91509050805f01805461059b9061113f565b80601f01602080910402602001604051908101604052809291908181526020018280546105c79061113f565b80156106125780601f106105e957610100808354040283529160200191610612565b820191905f5260205f20905b8154815290600101906020018083116105f557829003601f168201915b50505050509080600101549080600201805461062d9061113f565b80601f01602080910402602001604051908101604052809291908181526020018280546106599061113f565b80156106a45780601f1061067b576101008083540402835291602001916106a4565b820191905f5260205f20905b81548152906001019060200180831161068757829003601f168201915b505050505090806003015f9054906101000a900460ff16908060030160019054906101000a900460ff16905085565b6107116040518060400160405280600381526020017f41415000000000000000000000000000000000000000000000000000000000008152506109fa565b565b6004818051602081018201805184825260208301602085012081835280955050505050505f915090505481565b61077e6040518060400160405280600481526020017f494e4c44000000000000000000000000000000000000000000000000000000008152506109fa565b565b60128110156107c4576040517f08c379a00000000000000000000000000000000000000000000000000000000081526004016107bb90611209565b60405180910390fd5b60025f3373ffffffffffffffffffffffffffffffffffffffff1673ffffffffffffffffffffffffffffffffffffffff1681526020019081526020015f2060030160019054906101000a900460ff1615610852576040517f08c379a000000000000000000000000000000000000000000000000000000000815260040161084990611271565b60405180910390fd5b6040518060a0016040528083815260200182815260200160405180602001604052805f81525081526020015f151581526020016001151581525060025f3373ffffffffffffffffffffffffffffffffffffffff1673ffffffffffffffffffffffffffffffffffffffff1681526020019081526020015f205f820151815f0190816108dc919061142f565b506020820151816001015560408201518160020190816108fc919061142f565b506060820151816003015f6101000a81548160ff02191690831515021790555060808201518160030160016101000a81548160ff021916908315150217905550905050600333908060018154018082558091505060019003905f5260205f20015f9091909190916101000a81548173ffffffffffffffffffffffffffffffffffffffff021916908373ffffffffffffffffffffffffffffffffffffffff16021790555060015f8154809291906109b19061152b565b91905055505050565b6109f86040518060400160405280600881526020017f436f6e67726573730000000000000000000000000000000000000000000000008152506109fa565b565b60025f3373ffffffffffffffffffffffffffffffffffffffff1673ffffffffffffffffffffffffffffffffffffffff1681526020019081526020015f2060030160019054906101000a900460ff16610a87576040517f08c379a0000000000000000000000000000000000000000000000000000000008152600401610a7e906115bc565b60405180910390fd5b60025f3373ffffffffffffffffffffffffffffffffffffffff1673ffffffffffffffffffffffffffffffffffffffff1681526020019081526020015f206003015f9054906101000a900460ff1615610b14576040517f08c379a0000000000000000000000000000000000000000000000000000000008152600401610b0b90611624565b60405180910390fd5b8060025f3373ffffffffffffffffffffffffffffffffffffffff1673ffffffffffffffffffffffffffffffffffffffff1681526020019081526020015f206002019081610b61919061142f565b50600160025f3373ffffffffffffffffffffffffffffffffffffffff1673ffffffffffffffffffffffffffffffffffffffff1681526020019081526020015f206003015f6101000a81548160ff021916908315150217905550600481604051610bca91906111a9565b90815260200160405180910390205f815480929190610be89061152b565b919050555050565b5f81519050919050565b5f82825260208201905092915050565b5f819050602082019050919050565b5f73ffffffffffffffffffffffffffffffffffffffff82169050919050565b5f610c4282610c19565b9050919050565b610c5281610c38565b82525050565b5f610c638383610c49565b60208301905092915050565b5f602082019050919050565b5f610c8582610bf0565b610c8f8185610bfa565b9350610c9a83610c0a565b805f5b83811015610cca578151610cb18882610c58565b9750610cbc83610c6f565b925050600181019050610c9d565b5085935050505092915050565b5f6020820190508181035f830152610cef8184610c7b565b905092915050565b5f81519050919050565b5f82825260208201905092915050565b8281835e5f83830152505050565b5f601f19601f8301169050919050565b5f610d3982610cf7565b610d438185610d01565b9350610d53818560208601610d11565b610d5c81610d1f565b840191505092915050565b5f819050919050565b610d7981610d67565b82525050565b5f8115159050919050565b610d9381610d7f565b82525050565b5f6080820190508181035f830152610db18187610d2f565b9050610dc06020830186610d70565b8181036040830152610dd28185610d2f565b9050610de16060830184610d8a565b95945050505050565b5f602082019050610dfd5f830184610d70565b92915050565b5f604051905090565b5f5ffd5b5f5ffd5b610e1d81610d67565b8114610e27575f5ffd5b50565b5f81359050610e3881610e14565b92915050565b5f60208284031215610e5357610e52610e0c565b5b5f610e6084828501610e2a565b91505092915050565b610e7281610c38565b82525050565b5f602082019050610e8b5f830184610e69565b92915050565b5f5ffd5b5f5ffd5b7f4e487b71000000000000000000000000000000000000000000000000000000005f52604160045260245ffd5b610ecf82610d1f565b810181811067ffffffffffffffff82111715610eee57610eed610e99565b5b80604052505050565b5f610f00610e03565b9050610f0c8282610ec6565b919050565b5f67ffffffffffffffff821115610f2b57610f2a610e99565b5b610f3482610d1f565b9050602081019050919050565b828183375f83830152505050565b5f610f61610f5c84610f11565b610ef7565b905082815260208101848484011115610f7d57610f7c610e95565b5b610f88848285610f41565b509392505050565b5f82601f830112610fa457610fa3610e91565b5b8135610fb4848260208601610f4f565b91505092915050565b5f60208284031215610fd257610fd1610e0c565b5b5f82013567ffffffffffffffff811115610fef57610fee610e10565b5b610ffb84828501610f90565b91505092915050565b61100d81610c38565b8114611017575f5ffd5b50565b5f8135905061102881611004565b92915050565b5f6020828403121561104357611042610e0c565b5b5f6110508482850161101a565b91505092915050565b5f60a0820190508181035f8301526110718188610d2f565b90506110806020830187610d70565b81810360408301526110928186610d2f565b90506110a16060830185610d8a565b6110ae6080830184610d8a565b9695505050505050565b5f5f604083850312156110ce576110cd610e0c565b5b5f83013567ffffffffffffffff8111156110eb576110ea610e10565b5b6110f785828601610f90565b925050602061110885828601610e2a565b9150509250929050565b7f4e487b71000000000000000000000000000000000000000000000000000000005f52602260045260245ffd5b5f600282049050600182168061115657607f821691505b60208210810361116957611168611112565b5b50919050565b5f81905092915050565b5f61118382610cf7565b61118d818561116f565b935061119d818560208601610d11565b80840191505092915050565b5f6111b48284611179565b915081905092915050565b7f4e6f7420656c696769626c6520746f20766f74650000000000000000000000005f82015250565b5f6111f3601483610d01565b91506111fe826111bf565b602082019050919050565b5f6020820190508181035f830152611220816111e7565b9050919050565b7f416c7265616479207265676973746572656400000000000000000000000000005f82015250565b5f61125b601283610d01565b915061126682611227565b602082019050919050565b5f6020820190508181035f8301526112888161124f565b9050919050565b5f819050815f5260205f209050919050565b5f6020601f8301049050919050565b5f82821b905092915050565b5f600883026112eb7fffffffffffffffffffffffffffffffffffffffffffffffffffffffffffffffff826112b0565b6112f586836112b0565b95508019841693508086168417925050509392505050565b5f819050919050565b5f61133061132b61132684610d67565b61130d565b610d67565b9050919050565b5f819050919050565b61134983611316565b61135d61135582611337565b8484546112bc565b825550505050565b5f5f905090565b611374611365565b61137f818484611340565b505050565b5b818110156113a2576113975f8261136c565b600181019050611385565b5050565b601f8211156113e7576113b88161128f565b6113c1846112a1565b810160208510156113d0578190505b6113e46113dc856112a1565b830182611384565b50505b505050565b5f82821c905092915050565b5f6114075f19846008026113ec565b1980831691505092915050565b5f61141f83836113f8565b9150826002028217905092915050565b61143882610cf7565b67ffffffffffffffff81111561145157611450610e99565b5b61145b825461113f565b6114668282856113a6565b5f60209050601f831160018114611497575f8415611485578287015190505b61148f8582611414565b8655506114f6565b601f1984166114a58661128f565b5f5b828110156114cc578489015182556001820191506020850194506020810190506114a7565b868310156114e957848901516114e5601f8916826113f8565b8355505b6001600288020188555050505b505050505050565b7f4e487b71000000000000000000000000000000000000000000000000000000005f52601160045260245ffd5b5f61153582610d67565b91507fffffffffffffffffffffffffffffffffffffffffffffffffffffffffffffffff8203611567576115666114fe565b5b600182019050919050565b7f4e6f7420726567697374657265640000000000000000000000000000000000005f82015250565b5f6115a6600e83610d01565b91506115b182611572565b602082019050919050565b5f6020820190508181035f8301526115d38161159a565b9050919050565b7f416c726561647920766f746564000000000000000000000000000000000000005f82015250565b5f61160e600d83610d01565b9150611619826115da565b602082019050919050565b5f6020820190508181035f83015261163b81611602565b905091905056fea264697066735822122034af804811721954505bb7dbbe991c66b32ac1b35cba9d2ae92f3a63b22d534064736f6c634300081f0033",
					"opcodes": "PUSH1 0x80 PUSH1 0x40 MSTORE CALLVALUE DUP1 ISZERO PUSH1 0xE JUMPI PUSH0 PUSH0 REVERT JUMPDEST POP CALLER PUSH0 PUSH0 PUSH2 0x100 EXP DUP2 SLOAD DUP2 PUSH20 0xFFFFFFFFFFFFFFFFFFFFFFFFFFFFFFFFFFFFFFFF MUL NOT AND SWAP1 DUP4 PUSH20 0xFFFFFFFFFFFFFFFFFFFFFFFFFFFFFFFFFFFFFFFF AND MUL OR SWAP1 SSTORE POP PUSH2 0x1678 DUP1 PUSH2 0x5B PUSH0 CODECOPY PUSH0 RETURN INVALID PUSH1 0x80 PUSH1 0x40 MSTORE CALLVALUE DUP1 ISZERO PUSH2 0xF JUMPI PUSH0 PUSH0 REVERT JUMPDEST POP PUSH1 0x4 CALLDATASIZE LT PUSH2 0xCD JUMPI PUSH0 CALLDATALOAD PUSH1 0xE0 SHR DUP1 PUSH4 0x8DA5CB5B GT PUSH2 0x8A JUMPI DUP1 PUSH4 0xBA7F7552 GT PUSH2 0x64 JUMPI DUP1 PUSH4 0xBA7F7552 EQ PUSH2 0x1F4 JUMPI DUP1 PUSH4 0xE065818B EQ PUSH2 0x224 JUMPI DUP1 PUSH4 0xEA87152B EQ PUSH2 0x22E JUMPI DUP1 PUSH4 0xF012D662 EQ PUSH2 0x24A JUMPI PUSH2 0xCD JUMP JUMPDEST DUP1 PUSH4 0x8DA5CB5B EQ PUSH2 0x198 JUMPI DUP1 PUSH4 0xA3EC138D EQ PUSH2 0x1B6 JUMPI DUP1 PUSH4 0xA9313107 EQ PUSH2 0x1EA JUMPI PUSH2 0xCD JUMP JUMPDEST DUP1 PUSH4 0x1EAC1C27 EQ PUSH2 0xD1 JUMPI DUP1 PUSH4 0x35BBE70E EQ PUSH2 0xDB JUMPI DUP1 PUSH4 0x431BBB7E EQ PUSH2 0xF9 JUMPI DUP1 PUSH4 0x5F5300FF EQ PUSH2 0x11A JUMPI DUP1 PUSH4 0x72CE73AB EQ PUSH2 0x138 JUMPI DUP1 PUSH4 0x805265E5 EQ PUSH2 0x168 JUMPI JUMPDEST PUSH0 PUSH0 REVERT JUMPDEST PUSH2 0xD9 PUSH2 0x254 JUMP JUMPDEST STOP JUMPDEST PUSH2 0xE3 PUSH2 0x294 JUMP JUMPDEST PUSH1 0x40 MLOAD PUSH2 0xF0 SWAP2 SWAP1 PUSH2 0xCD7 JUMP JUMPDEST PUSH1 0x40 MLOAD DUP1 SWAP2 SUB SWAP1 RETURN JUMPDEST PUSH2 0x101 PUSH2 0x31F JUMP JUMPDEST PUSH1 0x40 MLOAD PUSH2 0x111 SWAP5 SWAP4 SWAP3 SWAP2 SWAP1 PUSH2 0xD99 JUMP JUMPDEST PUSH1 0x40 MLOAD DUP1 SWAP2 SUB SWAP1 RETURN JUMPDEST PUSH2 0x122 PUSH2 0x4F0 JUMP JUMPDEST PUSH1 0x40 MLOAD PUSH2 0x12F SWAP2 SWAP1 PUSH2 0xDEA JUMP JUMPDEST PUSH1 0x40 MLOAD DUP1 SWAP2 SUB SWAP1 RETURN JUMPDEST PUSH2 0x152 PUSH1 0x4 DUP1 CALLDATASIZE SUB DUP2 ADD SWAP1 PUSH2 0x14D SWAP2 SWAP1 PUSH2 0xE3E JUMP JUMPDEST PUSH2 0x4F6 JUMP JUMPDEST PUSH1 0x40 MLOAD PUSH2 0x15F SWAP2 SWAP1 PUSH2 0xE78 JUMP JUMPDEST PUSH1 0x40 MLOAD DUP1 SWAP2 SUB SWAP1 RETURN JUMPDEST PUSH2 0x182 PUSH1 0x4 DUP1 CALLDATASIZE SUB DUP2 ADD SWAP1 PUSH2 0x17D SWAP2 SWAP1 PUSH2 0xFBD JUMP JUMPDEST PUSH2 0x531 JUMP JUMPDEST PUSH1 0x40 MLOAD PUSH2 0x18F SWAP2 SWAP1 PUSH2 0xDEA JUMP JUMPDEST PUSH1 0x40 MLOAD DUP1 SWAP2 SUB SWAP1 RETURN JUMPDEST PUSH2 0x1A0 PUSH2 0x558 JUMP JUMPDEST PUSH1 0x40 MLOAD PUSH2 0x1AD SWAP2 SWAP1 PUSH2 0xE78 JUMP JUMPDEST PUSH1 0x40 MLOAD DUP1 SWAP2 SUB SWAP1 RETURN JUMPDEST PUSH2 0x1D0 PUSH1 0x4 DUP1 CALLDATASIZE SUB DUP2 ADD SWAP1 PUSH2 0x1CB SWAP2 SWAP1 PUSH2 0x102E JUMP JUMPDEST PUSH2 0x57C JUMP JUMPDEST PUSH1 0x40 MLOAD PUSH2 0x1E1 SWAP6 SWAP5 SWAP4 SWAP3 SWAP2 SWAP1 PUSH2 0x1059 JUMP JUMPDEST PUSH1 0x40 MLOAD DUP1 SWAP2 SUB SWAP1 RETURN JUMPDEST PUSH2 0x1F2 PUSH2 0x6D3 JUMP JUMPDEST STOP JUMPDEST PUSH2 0x20E PUSH1 0x4 DUP1 CALLDATASIZE SUB DUP2 ADD SWAP1 PUSH2 0x209 SWAP2 SWAP1 PUSH2 0xFBD JUMP JUMPDEST PUSH2 0x713 JUMP JUMPDEST PUSH1 0x40 MLOAD PUSH2 0x21B SWAP2 SWAP1 PUSH2 0xDEA JUMP JUMPDEST PUSH1 0x40 MLOAD DUP1 SWAP2 SUB SWAP1 RETURN JUMPDEST PUSH2 0x22C PUSH2 0x740 JUMP JUMPDEST STOP JUMPDEST PUSH2 0x248 PUSH1 0x4 DUP1 CALLDATASIZE SUB DUP2 ADD SWAP1 PUSH2 0x243 SWAP2 SWAP1 PUSH2 0x10B8 JUMP JUMPDEST PUSH2 0x780 JUMP JUMPDEST STOP JUMPDEST PUSH2 0x252 PUSH2 0x9BA JUMP JUMPDEST STOP JUMPDEST PUSH2 0x292 PUSH1 0x40 MLOAD DUP1 PUSH1 0x40 ADD PUSH1 0x40 MSTORE DUP1 PUSH1 0x3 DUP2 MSTORE PUSH1 0x20 ADD PUSH32 0x424A500000000000000000000000000000000000000000000000000000000000 DUP2 MSTORE POP PUSH2 0x9FA JUMP JUMPDEST JUMP JUMPDEST PUSH1 0x60 PUSH1 0x3 DUP1 SLOAD DUP1 PUSH1 0x20 MUL PUSH1 0x20 ADD PUSH1 0x40 MLOAD SWAP1 DUP2 ADD PUSH1 0x40 MSTORE DUP1 SWAP3 SWAP2 SWAP1 DUP2 DUP2 MSTORE PUSH1 0x20 ADD DUP3 DUP1 SLOAD DUP1 ISZERO PUSH2 0x315 JUMPI PUSH1 0x20 MUL DUP3 ADD SWAP2 SWAP1 PUSH0 MSTORE PUSH1 0x20 PUSH0 KECCAK256 SWAP1 JUMPDEST DUP2 PUSH0 SWAP1 SLOAD SWAP1 PUSH2 0x100 EXP SWAP1 DIV PUSH20 0xFFFFFFFFFFFFFFFFFFFFFFFFFFFFFFFFFFFFFFFF AND PUSH20 0xFFFFFFFFFFFFFFFFFFFFFFFFFFFFFFFFFFFFFFFF AND DUP2 MSTORE PUSH1 0x20 ADD SWAP1 PUSH1 0x1 ADD SWAP1 DUP1 DUP4 GT PUSH2 0x2CC JUMPI JUMPDEST POP POP POP POP POP SWAP1 POP SWAP1 JUMP JUMPDEST PUSH1 0x60 PUSH0 PUSH1 0x60 PUSH0 PUSH0 PUSH1 0x2 PUSH0 CALLER PUSH20 0xFFFFFFFFFFFFFFFFFFFFFFFFFFFFFFFFFFFFFFFF AND PUSH20 0xFFFFFFFFFFFFFFFFFFFFFFFFFFFFFFFFFFFFFFFF AND DUP2 MSTORE PUSH1 0x20 ADD SWAP1 DUP2 MSTORE PUSH1 0x20 ADD PUSH0 KECCAK256 PUSH1 0x40 MLOAD DUP1 PUSH1 0xA0 ADD PUSH1 0x40 MSTORE SWAP1 DUP2 PUSH0 DUP3 ADD DUP1 SLOAD PUSH2 0x37D SWAP1 PUSH2 0x113F JUMP JUMPDEST DUP1 PUSH1 0x1F ADD PUSH1 0x20 DUP1 SWAP2 DIV MUL PUSH1 0x20 ADD PUSH1 0x40 MLOAD SWAP1 DUP2 ADD PUSH1 0x40 MSTORE DUP1 SWAP3 SWAP2 SWAP1 DUP2 DUP2 MSTORE PUSH1 0x20 ADD DUP3 DUP1 SLOAD PUSH2 0x3A9 SWAP1 PUSH2 0x113F JUMP JUMPDEST DUP1 ISZERO PUSH2 0x3F4 JUMPI DUP1 PUSH1 0x1F LT PUSH2 0x3CB JUMPI PUSH2 0x100 DUP1 DUP4 SLOAD DIV MUL DUP4 MSTORE SWAP2 PUSH1 0x20 ADD SWAP2 PUSH2 0x3F4 JUMP JUMPDEST DUP3 ADD SWAP2 SWAP1 PUSH0 MSTORE PUSH1 0x20 PUSH0 KECCAK256 SWAP1 JUMPDEST DUP2 SLOAD DUP2 MSTORE SWAP1 PUSH1 0x1 ADD SWAP1 PUSH1 0x20 ADD DUP1 DUP4 GT PUSH2 0x3D7 JUMPI DUP3 SWAP1 SUB PUSH1 0x1F AND DUP3 ADD SWAP2 JUMPDEST POP POP POP POP POP DUP2 MSTORE PUSH1 0x20 ADD PUSH1 0x1 DUP3 ADD SLOAD DUP2 MSTORE PUSH1 0x20 ADD PUSH1 0x2 DUP3 ADD DUP1 SLOAD PUSH2 0x417 SWAP1 PUSH2 0x113F JUMP JUMPDEST DUP1 PUSH1 0x1F ADD PUSH1 0x20 DUP1 SWAP2 DIV MUL PUSH1 0x20 ADD PUSH1 0x40 MLOAD SWAP1 DUP2 ADD PUSH1 0x40 MSTORE DUP1 SWAP3 SWAP2 SWAP1 DUP2 DUP2 MSTORE PUSH1 0x20 ADD DUP3 DUP1 SLOAD PUSH2 0x443 SWAP1 PUSH2 0x113F JUMP JUMPDEST DUP1 ISZERO PUSH2 0x48E JUMPI DUP1 PUSH1 0x1F LT PUSH2 0x465 JUMPI PUSH2 0x100 DUP1 DUP4 SLOAD DIV MUL DUP4 MSTORE SWAP2 PUSH1 0x20 ADD SWAP2 PUSH2 0x48E JUMP JUMPDEST DUP3 ADD SWAP2 SWAP1 PUSH0 MSTORE PUSH1 0x20 PUSH0 KECCAK256 SWAP1 JUMPDEST DUP2 SLOAD DUP2 MSTORE SWAP1 PUSH1 0x1 ADD SWAP1 PUSH1 0x20 ADD DUP1 DUP4 GT PUSH2 0x471 JUMPI DUP3 SWAP1 SUB PUSH1 0x1F AND DUP3 ADD SWAP2 JUMPDEST POP POP POP POP POP DUP2 MSTORE PUSH1 0x20 ADD PUSH1 0x3 DUP3 ADD PUSH0 SWAP1 SLOAD SWAP1 PUSH2 0x100 EXP SWAP1 DIV PUSH1 0xFF AND ISZERO ISZERO ISZERO ISZERO DUP2 MSTORE PUSH1 0x20 ADD PUSH1 0x3 DUP3 ADD PUSH1 0x1 SWAP1 SLOAD SWAP1 PUSH2 0x100 EXP SWAP1 DIV PUSH1 0xFF AND ISZERO ISZERO ISZERO ISZERO DUP2 MSTORE POP POP SWAP1 POP DUP1 PUSH0 ADD MLOAD DUP2 PUSH1 0x20 ADD MLOAD DUP3 PUSH1 0x40 ADD MLOAD DUP4 PUSH1 0x60 ADD MLOAD SWAP5 POP SWAP5 POP SWAP5 POP SWAP5 POP POP SWAP1 SWAP2 SWAP3 SWAP4 JUMP JUMPDEST PUSH1 0x1 SLOAD DUP2 JUMP JUMPDEST PUSH1 0x3 DUP2 DUP2 SLOAD DUP2 LT PUSH2 0x505 JUMPI PUSH0 DUP1 REVERT JUMPDEST SWAP1 PUSH0 MSTORE PUSH1 0x20 PUSH0 KECCAK256 ADD PUSH0 SWAP2 POP SLOAD SWAP1 PUSH2 0x100 EXP SWAP1 DIV PUSH20 0xFFFFFFFFFFFFFFFFFFFFFFFFFFFFFFFFFFFFFFFF AND DUP2 JUMP JUMPDEST PUSH0 PUSH1 0x4 DUP3 PUSH1 0x40 MLOAD PUSH2 0x542 SWAP2 SWAP1 PUSH2 0x11A9 JUMP JUMPDEST SWAP1 DUP2 MSTORE PUSH1 0x20 ADD PUSH1 0x40 MLOAD DUP1 SWAP2 SUB SWAP1 KECCAK256 SLOAD SWAP1 POP SWAP2 SWAP1 POP JUMP JUMPDEST PUSH0 PUSH0 SWAP1 SLOAD SWAP1 PUSH2 0x100 EXP SWAP1 DIV PUSH20 0xFFFFFFFFFFFFFFFFFFFFFFFFFFFFFFFFFFFFFFFF AND DUP2 JUMP JUMPDEST PUSH1 0x2 PUSH1 0x20 MSTORE DUP1 PUSH0 MSTORE PUSH1 0x40 PUSH0 KECCAK256 PUSH0 SWAP2 POP SWAP1 POP DUP1 PUSH0 ADD DUP1 SLOAD PUSH2 0x59B SWAP1 PUSH2 0x113F JUMP JUMPDEST DUP1 PUSH1 0x1F ADD PUSH1 0x20 DUP1 SWAP2 DIV MUL PUSH1 0x20 ADD PUSH1 0x40 MLOAD SWAP1 DUP2 ADD PUSH1 0x40 MSTORE DUP1 SWAP3 SWAP2 SWAP1 DUP2 DUP2 MSTORE PUSH1 0x20 ADD DUP3 DUP1 SLOAD PUSH2 0x5C7 SWAP1 PUSH2 0x113F JUMP JUMPDEST DUP1 ISZERO PUSH2 0x612 JUMPI DUP1 PUSH1 0x1F LT PUSH2 0x5E9 JUMPI PUSH2 0x100 DUP1 DUP4 SLOAD DIV MUL DUP4 MSTORE SWAP2 PUSH1 0x20 ADD SWAP2 PUSH2 0x612 JUMP JUMPDEST DUP3 ADD SWAP2 SWAP1 PUSH0 MSTORE PUSH1 0x20 PUSH0 KECCAK256 SWAP1 JUMPDEST DUP2 SLOAD DUP2 MSTORE SWAP1 PUSH1 0x1 ADD SWAP1 PUSH1 0x20 ADD DUP1 DUP4 GT PUSH2 0x5F5 JUMPI DUP3 SWAP1 SUB PUSH1 0x1F AND DUP3 ADD SWAP2 JUMPDEST POP POP POP POP POP SWAP1 DUP1 PUSH1 0x1 ADD SLOAD SWAP1 DUP1 PUSH1 0x2 ADD DUP1 SLOAD PUSH2 0x62D SWAP1 PUSH2 0x113F JUMP JUMPDEST DUP1 PUSH1 0x1F ADD PUSH1 0x20 DUP1 SWAP2 DIV MUL PUSH1 0x20 ADD PUSH1 0x40 MLOAD SWAP1 DUP2 ADD PUSH1 0x40 MSTORE DUP1 SWAP3 SWAP2 SWAP1 DUP2 DUP2 MSTORE PUSH1 0x20 ADD DUP3 DUP1 SLOAD PUSH2 0x659 SWAP1 PUSH2 0x113F JUMP JUMPDEST DUP1 ISZERO PUSH2 0x6A4 JUMPI DUP1 PUSH1 0x1F LT PUSH2 0x67B JUMPI PUSH2 0x100 DUP1 DUP4 SLOAD DIV MUL DUP4 MSTORE SWAP2 PUSH1 0x20 ADD SWAP2 PUSH2 0x6A4 JUMP JUMPDEST DUP3 ADD SWAP2 SWAP1 PUSH0 MSTORE PUSH1 0x20 PUSH0 KECCAK256 SWAP1 JUMPDEST DUP2 SLOAD DUP2 MSTORE SWAP1 PUSH1 0x1 ADD SWAP1 PUSH1 0x20 ADD DUP1 DUP4 GT PUSH2 0x687 JUMPI DUP3 SWAP1 SUB PUSH1 0x1F AND DUP3 ADD SWAP2 JUMPDEST POP POP POP POP POP SWAP1 DUP1 PUSH1 0x3 ADD PUSH0 SWAP1 SLOAD SWAP1 PUSH2 0x100 EXP SWAP1 DIV PUSH1 0xFF AND SWAP1 DUP1 PUSH1 0x3 ADD PUSH1 0x1 SWAP1 SLOAD SWAP1 PUSH2 0x100 EXP SWAP1 DIV PUSH1 0xFF AND SWAP1 POP DUP6 JUMP JUMPDEST PUSH2 0x711 PUSH1 0x40 MLOAD DUP1 PUSH1 0x40 ADD PUSH1 0x40 MSTORE DUP1 PUSH1 0x3 DUP2 MSTORE PUSH1 0x20 ADD PUSH32 0x4141500000000000000000000000000000000000000000000000000000000000 DUP2 MSTORE POP PUSH2 0x9FA JUMP JUMPDEST JUMP JUMPDEST PUSH1 0x4 DUP2 DUP1 MLOAD PUSH1 0x20 DUP2 ADD DUP3 ADD DUP1 MLOAD DUP5 DUP3 MSTORE PUSH1 0x20 DUP4 ADD PUSH1 0x20 DUP6 ADD KECCAK256 DUP2 DUP4 MSTORE DUP1 SWAP6 POP POP POP POP POP POP PUSH0 SWAP2 POP SWAP1 POP SLOAD DUP2 JUMP JUMPDEST PUSH2 0x77E PUSH1 0x40 MLOAD DUP1 PUSH1 0x40 ADD PUSH1 0x40 MSTORE DUP1 PUSH1 0x4 DUP2 MSTORE PUSH1 0x20 ADD PUSH32 0x494E4C4400000000000000000000000000000000000000000000000000000000 DUP2 MSTORE POP PUSH2 0x9FA JUMP JUMPDEST JUMP JUMPDEST PUSH1 0x12 DUP2 LT ISZERO PUSH2 0x7C4 JUMPI PUSH1 0x40 MLOAD PUSH32 0x8C379A000000000000000000000000000000000000000000000000000000000 DUP2 MSTORE PUSH1 0x4 ADD PUSH2 0x7BB SWAP1 PUSH2 0x1209 JUMP JUMPDEST PUSH1 0x40 MLOAD DUP1 SWAP2 SUB SWAP1 REVERT JUMPDEST PUSH1 0x2 PUSH0 CALLER PUSH20 0xFFFFFFFFFFFFFFFFFFFFFFFFFFFFFFFFFFFFFFFF AND PUSH20 0xFFFFFFFFFFFFFFFFFFFFFFFFFFFFFFFFFFFFFFFF AND DUP2 MSTORE PUSH1 0x20 ADD SWAP1 DUP2 MSTORE PUSH1 0x20 ADD PUSH0 KECCAK256 PUSH1 0x3 ADD PUSH1 0x1 SWAP1 SLOAD SWAP1 PUSH2 0x100 EXP SWAP1 DIV PUSH1 0xFF AND ISZERO PUSH2 0x852 JUMPI PUSH1 0x40 MLOAD PUSH32 0x8C379A000000000000000000000000000000000000000000000000000000000 DUP2 MSTORE PUSH1 0x4 ADD PUSH2 0x849 SWAP1 PUSH2 0x1271 JUMP JUMPDEST PUSH1 0x40 MLOAD DUP1 SWAP2 SUB SWAP1 REVERT JUMPDEST PUSH1 0x40 MLOAD DUP1 PUSH1 0xA0 ADD PUSH1 0x40 MSTORE DUP1 DUP4 DUP2 MSTORE PUSH1 0x20 ADD DUP3 DUP2 MSTORE PUSH1 0x20 ADD PUSH1 0x40 MLOAD DUP1 PUSH1 0x20 ADD PUSH1 0x40 MSTORE DUP1 PUSH0 DUP2 MSTORE POP DUP2 MSTORE PUSH1 0x20 ADD PUSH0 ISZERO ISZERO DUP2 MSTORE PUSH1 0x20 ADD PUSH1 0x1 ISZERO ISZERO DUP2 MSTORE POP PUSH1 0x2 PUSH0 CALLER PUSH20 0xFFFFFFFFFFFFFFFFFFFFFFFFFFFFFFFFFFFFFFFF AND PUSH20 0xFFFFFFFFFFFFFFFFFFFFFFFFFFFFFFFFFFFFFFFF AND DUP2 MSTORE PUSH1 0x20 ADD SWAP1 DUP2 MSTORE PUSH1 0x20 ADD PUSH0 KECCAK256 PUSH0 DUP3 ADD MLOAD DUP2 PUSH0 ADD SWAP1 DUP2 PUSH2 0x8DC SWAP2 SWAP1 PUSH2 0x142F JUMP JUMPDEST POP PUSH1 0x20 DUP3 ADD MLOAD DUP2 PUSH1 0x1 ADD SSTORE PUSH1 0x40 DUP3 ADD MLOAD DUP2 PUSH1 0x2 ADD SWAP1 DUP2 PUSH2 0x8FC SWAP2 SWAP1 PUSH2 0x142F JUMP JUMPDEST POP PUSH1 0x60 DUP3 ADD MLOAD DUP2 PUSH1 0x3 ADD PUSH0 PUSH2 0x100 EXP DUP2 SLOAD DUP2 PUSH1 0xFF MUL NOT AND SWAP1 DUP4 ISZERO ISZERO MUL OR SWAP1 SSTORE POP PUSH1 0x80 DUP3 ADD MLOAD DUP2 PUSH1 0x3 ADD PUSH1 0x1 PUSH2 0x100 EXP DUP2 SLOAD DUP2 PUSH1 0xFF MUL NOT AND SWAP1 DUP4 ISZERO ISZERO MUL OR SWAP1 SSTORE POP SWAP1 POP POP PUSH1 0x3 CALLER SWAP1 DUP1 PUSH1 0x1 DUP2 SLOAD ADD DUP1 DUP3 SSTORE DUP1 SWAP2 POP POP PUSH1 0x1 SWAP1 SUB SWAP1 PUSH0 MSTORE PUSH1 0x20 PUSH0 KECCAK256 ADD PUSH0 SWAP1 SWAP2 SWAP1 SWAP2 SWAP1 SWAP2 PUSH2 0x100 EXP DUP2 SLOAD DUP2 PUSH20 0xFFFFFFFFFFFFFFFFFFFFFFFFFFFFFFFFFFFFFFFF MUL NOT AND SWAP1 DUP4 PUSH20 0xFFFFFFFFFFFFFFFFFFFFFFFFFFFFFFFFFFFFFFFF AND MUL OR SWAP1 SSTORE POP PUSH1 0x1 PUSH0 DUP2 SLOAD DUP1 SWAP3 SWAP2 SWAP1 PUSH2 0x9B1 SWAP1 PUSH2 0x152B JUMP JUMPDEST SWAP2 SWAP1 POP SSTORE POP POP POP JUMP JUMPDEST PUSH2 0x9F8 PUSH1 0x40 MLOAD DUP1 PUSH1 0x40 ADD PUSH1 0x40 MSTORE DUP1 PUSH1 0x8 DUP2 MSTORE PUSH1 0x20 ADD PUSH32 0x436F6E6772657373000000000000000000000000000000000000000000000000 DUP2 MSTORE POP PUSH2 0x9FA JUMP JUMPDEST JUMP JUMPDEST PUSH1 0x2 PUSH0 CALLER PUSH20 0xFFFFFFFFFFFFFFFFFFFFFFFFFFFFFFFFFFFFFFFF AND PUSH20 0xFFFFFFFFFFFFFFFFFFFFFFFFFFFFFFFFFFFFFFFF AND DUP2 MSTORE PUSH1 0x20 ADD SWAP1 DUP2 MSTORE PUSH1 0x20 ADD PUSH0 KECCAK256 PUSH1 0x3 ADD PUSH1 0x1 SWAP1 SLOAD SWAP1 PUSH2 0x100 EXP SWAP1 DIV PUSH1 0xFF AND PUSH2 0xA87 JUMPI PUSH1 0x40 MLOAD PUSH32 0x8C379A000000000000000000000000000000000000000000000000000000000 DUP2 MSTORE PUSH1 0x4 ADD PUSH2 0xA7E SWAP1 PUSH2 0x15BC JUMP JUMPDEST PUSH1 0x40 MLOAD DUP1 SWAP2 SUB SWAP1 REVERT JUMPDEST PUSH1 0x2 PUSH0 CALLER PUSH20 0xFFFFFFFFFFFFFFFFFFFFFFFFFFFFFFFFFFFFFFFF AND PUSH20 0xFFFFFFFFFFFFFFFFFFFFFFFFFFFFFFFFFFFFFFFF AND DUP2 MSTORE PUSH1 0x20 ADD SWAP1 DUP2 MSTORE PUSH1 0x20 ADD PUSH0 KECCAK256 PUSH1 0x3 ADD PUSH0 SWAP1 SLOAD SWAP1 PUSH2 0x100 EXP SWAP1 DIV PUSH1 0xFF AND ISZERO PUSH2 0xB14 JUMPI PUSH1 0x40 MLOAD PUSH32 0x8C379A000000000000000000000000000000000000000000000000000000000 DUP2 MSTORE PUSH1 0x4 ADD PUSH2 0xB0B SWAP1 PUSH2 0x1624 JUMP JUMPDEST PUSH1 0x40 MLOAD DUP1 SWAP2 SUB SWAP1 REVERT JUMPDEST DUP1 PUSH1 0x2 PUSH0 CALLER PUSH20 0xFFFFFFFFFFFFFFFFFFFFFFFFFFFFFFFFFFFFFFFF AND PUSH20 0xFFFFFFFFFFFFFFFFFFFFFFFFFFFFFFFFFFFFFFFF AND DUP2 MSTORE PUSH1 0x20 ADD SWAP1 DUP2 MSTORE PUSH1 0x20 ADD PUSH0 KECCAK256 PUSH1 0x2 ADD SWAP1 DUP2 PUSH2 0xB61 SWAP2 SWAP1 PUSH2 0x142F JUMP JUMPDEST POP PUSH1 0x1 PUSH1 0x2 PUSH0 CALLER PUSH20 0xFFFFFFFFFFFFFFFFFFFFFFFFFFFFFFFFFFFFFFFF AND PUSH20 0xFFFFFFFFFFFFFFFFFFFFFFFFFFFFFFFFFFFFFFFF AND DUP2 MSTORE PUSH1 0x20 ADD SWAP1 DUP2 MSTORE PUSH1 0x20 ADD PUSH0 KECCAK256 PUSH1 0x3 ADD PUSH0 PUSH2 0x100 EXP DUP2 SLOAD DUP2 PUSH1 0xFF MUL NOT AND SWAP1 DUP4 ISZERO ISZERO MUL OR SWAP1 SSTORE POP PUSH1 0x4 DUP2 PUSH1 0x40 MLOAD PUSH2 0xBCA SWAP2 SWAP1 PUSH2 0x11A9 JUMP JUMPDEST SWAP1 DUP2 MSTORE PUSH1 0x20 ADD PUSH1 0x40 MLOAD DUP1 SWAP2 SUB SWAP1 KECCAK256 PUSH0 DUP2 SLOAD DUP1 SWAP3 SWAP2 SWAP1 PUSH2 0xBE8 SWAP1 PUSH2 0x152B JUMP JUMPDEST SWAP2 SWAP1 POP SSTORE POP POP JUMP JUMPDEST PUSH0 DUP2 MLOAD SWAP1 POP SWAP2 SWAP1 POP JUMP JUMPDEST PUSH0 DUP3 DUP3 MSTORE PUSH1 0x20 DUP3 ADD SWAP1 POP SWAP3 SWAP2 POP POP JUMP JUMPDEST PUSH0 DUP2 SWAP1 POP PUSH1 0x20 DUP3 ADD SWAP1 POP SWAP2 SWAP1 POP JUMP JUMPDEST PUSH0 PUSH20 0xFFFFFFFFFFFFFFFFFFFFFFFFFFFFFFFFFFFFFFFF DUP3 AND SWAP1 POP SWAP2 SWAP1 POP JUMP JUMPDEST PUSH0 PUSH2 0xC42 DUP3 PUSH2 0xC19 JUMP JUMPDEST SWAP1 POP SWAP2 SWAP1 POP JUMP JUMPDEST PUSH2 0xC52 DUP2 PUSH2 0xC38 JUMP JUMPDEST DUP3 MSTORE POP POP JUMP JUMPDEST PUSH0 PUSH2 0xC63 DUP4 DUP4 PUSH2 0xC49 JUMP JUMPDEST PUSH1 0x20 DUP4 ADD SWAP1 POP SWAP3 SWAP2 POP POP JUMP JUMPDEST PUSH0 PUSH1 0x20 DUP3 ADD SWAP1 POP SWAP2 SWAP1 POP JUMP JUMPDEST PUSH0 PUSH2 0xC85 DUP3 PUSH2 0xBF0 JUMP JUMPDEST PUSH2 0xC8F DUP2 DUP6 PUSH2 0xBFA JUMP JUMPDEST SWAP4 POP PUSH2 0xC9A DUP4 PUSH2 0xC0A JUMP JUMPDEST DUP1 PUSH0 JUMPDEST DUP4 DUP2 LT ISZERO PUSH2 0xCCA JUMPI DUP2 MLOAD PUSH2 0xCB1 DUP9 DUP3 PUSH2 0xC58 JUMP JUMPDEST SWAP8 POP PUSH2 0xCBC DUP4 PUSH2 0xC6F JUMP JUMPDEST SWAP3 POP POP PUSH1 0x1 DUP2 ADD SWAP1 POP PUSH2 0xC9D JUMP JUMPDEST POP DUP6 SWAP4 POP POP POP POP SWAP3 SWAP2 POP POP JUMP JUMPDEST PUSH0 PUSH1 0x20 DUP3 ADD SWAP1 POP DUP2 DUP2 SUB PUSH0 DUP4 ADD MSTORE PUSH2 0xCEF DUP2 DUP5 PUSH2 0xC7B JUMP JUMPDEST SWAP1 POP SWAP3 SWAP2 POP POP JUMP JUMPDEST PUSH0 DUP2 MLOAD SWAP1 POP SWAP2 SWAP1 POP JUMP JUMPDEST PUSH0 DUP3 DUP3 MSTORE PUSH1 0x20 DUP3 ADD SWAP1 POP SWAP3 SWAP2 POP POP JUMP JUMPDEST DUP3 DUP2 DUP4 MCOPY PUSH0 DUP4 DUP4 ADD MSTORE POP POP POP JUMP JUMPDEST PUSH0 PUSH1 0x1F NOT PUSH1 0x1F DUP4 ADD AND SWAP1 POP SWAP2 SWAP1 POP JUMP JUMPDEST PUSH0 PUSH2 0xD39 DUP3 PUSH2 0xCF7 JUMP JUMPDEST PUSH2 0xD43 DUP2 DUP6 PUSH2 0xD01 JUMP JUMPDEST SWAP4 POP PUSH2 0xD53 DUP2 DUP6 PUSH1 0x20 DUP7 ADD PUSH2 0xD11 JUMP JUMPDEST PUSH2 0xD5C DUP2 PUSH2 0xD1F JUMP JUMPDEST DUP5 ADD SWAP2 POP POP SWAP3 SWAP2 POP POP JUMP JUMPDEST PUSH0 DUP2 SWAP1 POP SWAP2 SWAP1 POP JUMP JUMPDEST PUSH2 0xD79 DUP2 PUSH2 0xD67 JUMP JUMPDEST DUP3 MSTORE POP POP JUMP JUMPDEST PUSH0 DUP2 ISZERO ISZERO SWAP1 POP SWAP2 SWAP1 POP JUMP JUMPDEST PUSH2 0xD93 DUP2 PUSH2 0xD7F JUMP JUMPDEST DUP3 MSTORE POP POP JUMP JUMPDEST PUSH0 PUSH1 0x80 DUP3 ADD SWAP1 POP DUP2 DUP2 SUB PUSH0 DUP4 ADD MSTORE PUSH2 0xDB1 DUP2 DUP8 PUSH2 0xD2F JUMP JUMPDEST SWAP1 POP PUSH2 0xDC0 PUSH1 0x20 DUP4 ADD DUP7 PUSH2 0xD70 JUMP JUMPDEST DUP2 DUP2 SUB PUSH1 0x40 DUP4 ADD MSTORE PUSH2 0xDD2 DUP2 DUP6 PUSH2 0xD2F JUMP JUMPDEST SWAP1 POP PUSH2 0xDE1 PUSH1 0x60 DUP4 ADD DUP5 PUSH2 0xD8A JUMP JUMPDEST SWAP6 SWAP5 POP POP POP POP POP JUMP JUMPDEST PUSH0 PUSH1 0x20 DUP3 ADD SWAP1 POP PUSH2 0xDFD PUSH0 DUP4 ADD DUP5 PUSH2 0xD70 JUMP JUMPDEST SWAP3 SWAP2 POP POP JUMP JUMPDEST PUSH0 PUSH1 0x40 MLOAD SWAP1 POP SWAP1 JUMP JUMPDEST PUSH0 PUSH0 REVERT JUMPDEST PUSH0 PUSH0 REVERT JUMPDEST PUSH2 0xE1D DUP2 PUSH2 0xD67 JUMP JUMPDEST DUP2 EQ PUSH2 0xE27 JUMPI PUSH0 PUSH0 REVERT JUMPDEST POP JUMP JUMPDEST PUSH0 DUP2 CALLDATALOAD SWAP1 POP PUSH2 0xE38 DUP2 PUSH2 0xE14 JUMP JUMPDEST SWAP3 SWAP2 POP POP JUMP JUMPDEST PUSH0 PUSH1 0x20 DUP3 DUP5 SUB SLT ISZERO PUSH2 0xE53 JUMPI PUSH2 0xE52 PUSH2 0xE0C JUMP JUMPDEST JUMPDEST PUSH0 PUSH2 0xE60 DUP5 DUP3 DUP6 ADD PUSH2 0xE2A JUMP JUMPDEST SWAP2 POP POP SWAP3 SWAP2 POP POP JUMP JUMPDEST PUSH2 0xE72 DUP2 PUSH2 0xC38 JUMP JUMPDEST DUP3 MSTORE POP POP JUMP JUMPDEST PUSH0 PUSH1 0x20 DUP3 ADD SWAP1 POP PUSH2 0xE8B PUSH0 DUP4 ADD DUP5 PUSH2 0xE69 JUMP JUMPDEST SWAP3 SWAP2 POP POP JUMP JUMPDEST PUSH0 PUSH0 REVERT JUMPDEST PUSH0 PUSH0 REVERT JUMPDEST PUSH32 0x4E487B7100000000000000000000000000000000000000000000000000000000 PUSH0 MSTORE PUSH1 0x41 PUSH1 0x4 MSTORE PUSH1 0x24 PUSH0 REVERT JUMPDEST PUSH2 0xECF DUP3 PUSH2 0xD1F JUMP JUMPDEST DUP2 ADD DUP2 DUP2 LT PUSH8 0xFFFFFFFFFFFFFFFF DUP3 GT OR ISZERO PUSH2 0xEEE JUMPI PUSH2 0xEED PUSH2 0xE99 JUMP JUMPDEST JUMPDEST DUP1 PUSH1 0x40 MSTORE POP POP POP JUMP JUMPDEST PUSH0 PUSH2 0xF00 PUSH2 0xE03 JUMP JUMPDEST SWAP1 POP PUSH2 0xF0C DUP3 DUP3 PUSH2 0xEC6 JUMP JUMPDEST SWAP2 SWAP1 POP JUMP JUMPDEST PUSH0 PUSH8 0xFFFFFFFFFFFFFFFF DUP3 GT ISZERO PUSH2 0xF2B JUMPI PUSH2 0xF2A PUSH2 0xE99 JUMP JUMPDEST JUMPDEST PUSH2 0xF34 DUP3 PUSH2 0xD1F JUMP JUMPDEST SWAP1 POP PUSH1 0x20 DUP2 ADD SWAP1 POP SWAP2 SWAP1 POP JUMP JUMPDEST DUP3 DUP2 DUP4 CALLDATACOPY PUSH0 DUP4 DUP4 ADD MSTORE POP POP POP JUMP JUMPDEST PUSH0 PUSH2 0xF61 PUSH2 0xF5C DUP5 PUSH2 0xF11 JUMP JUMPDEST PUSH2 0xEF7 JUMP JUMPDEST SWAP1 POP DUP3 DUP2 MSTORE PUSH1 0x20 DUP2 ADD DUP5 DUP5 DUP5 ADD GT ISZERO PUSH2 0xF7D JUMPI PUSH2 0xF7C PUSH2 0xE95 JUMP JUMPDEST JUMPDEST PUSH2 0xF88 DUP5 DUP3 DUP6 PUSH2 0xF41 JUMP JUMPDEST POP SWAP4 SWAP3 POP POP POP JUMP JUMPDEST PUSH0 DUP3 PUSH1 0x1F DUP4 ADD SLT PUSH2 0xFA4 JUMPI PUSH2 0xFA3 PUSH2 0xE91 JUMP JUMPDEST JUMPDEST DUP2 CALLDATALOAD PUSH2 0xFB4 DUP5 DUP3 PUSH1 0x20 DUP7 ADD PUSH2 0xF4F JUMP JUMPDEST SWAP2 POP POP SWAP3 SWAP2 POP POP JUMP JUMPDEST PUSH0 PUSH1 0x20 DUP3 DUP5 SUB SLT ISZERO PUSH2 0xFD2 JUMPI PUSH2 0xFD1 PUSH2 0xE0C JUMP JUMPDEST JUMPDEST PUSH0 DUP3 ADD CALLDATALOAD PUSH8 0xFFFFFFFFFFFFFFFF DUP2 GT ISZERO PUSH2 0xFEF JUMPI PUSH2 0xFEE PUSH2 0xE10 JUMP JUMPDEST JUMPDEST PUSH2 0xFFB DUP5 DUP3 DUP6 ADD PUSH2 0xF90 JUMP JUMPDEST SWAP2 POP POP SWAP3 SWAP2 POP POP JUMP JUMPDEST PUSH2 0x100D DUP2 PUSH2 0xC38 JUMP JUMPDEST DUP2 EQ PUSH2 0x1017 JUMPI PUSH0 PUSH0 REVERT JUMPDEST POP JUMP JUMPDEST PUSH0 DUP2 CALLDATALOAD SWAP1 POP PUSH2 0x1028 DUP2 PUSH2 0x1004 JUMP JUMPDEST SWAP3 SWAP2 POP POP JUMP JUMPDEST PUSH0 PUSH1 0x20 DUP3 DUP5 SUB SLT ISZERO PUSH2 0x1043 JUMPI PUSH2 0x1042 PUSH2 0xE0C JUMP JUMPDEST JUMPDEST PUSH0 PUSH2 0x1050 DUP5 DUP3 DUP6 ADD PUSH2 0x101A JUMP JUMPDEST SWAP2 POP POP SWAP3 SWAP2 POP POP JUMP JUMPDEST PUSH0 PUSH1 0xA0 DUP3 ADD SWAP1 POP DUP2 DUP2 SUB PUSH0 DUP4 ADD MSTORE PUSH2 0x1071 DUP2 DUP9 PUSH2 0xD2F JUMP JUMPDEST SWAP1 POP PUSH2 0x1080 PUSH1 0x20 DUP4 ADD DUP8 PUSH2 0xD70 JUMP JUMPDEST DUP2 DUP2 SUB PUSH1 0x40 DUP4 ADD MSTORE PUSH2 0x1092 DUP2 DUP7 PUSH2 0xD2F JUMP JUMPDEST SWAP1 POP PUSH2 0x10A1 PUSH1 0x60 DUP4 ADD DUP6 PUSH2 0xD8A JUMP JUMPDEST PUSH2 0x10AE PUSH1 0x80 DUP4 ADD DUP5 PUSH2 0xD8A JUMP JUMPDEST SWAP7 SWAP6 POP POP POP POP POP POP JUMP JUMPDEST PUSH0 PUSH0 PUSH1 0x40 DUP4 DUP6 SUB SLT ISZERO PUSH2 0x10CE JUMPI PUSH2 0x10CD PUSH2 0xE0C JUMP JUMPDEST JUMPDEST PUSH0 DUP4 ADD CALLDATALOAD PUSH8 0xFFFFFFFFFFFFFFFF DUP2 GT ISZERO PUSH2 0x10EB JUMPI PUSH2 0x10EA PUSH2 0xE10 JUMP JUMPDEST JUMPDEST PUSH2 0x10F7 DUP6 DUP3 DUP7 ADD PUSH2 0xF90 JUMP JUMPDEST SWAP3 POP POP PUSH1 0x20 PUSH2 0x1108 DUP6 DUP3 DUP7 ADD PUSH2 0xE2A JUMP JUMPDEST SWAP2 POP POP SWAP3 POP SWAP3 SWAP1 POP JUMP JUMPDEST PUSH32 0x4E487B7100000000000000000000000000000000000000000000000000000000 PUSH0 MSTORE PUSH1 0x22 PUSH1 0x4 MSTORE PUSH1 0x24 PUSH0 REVERT JUMPDEST PUSH0 PUSH1 0x2 DUP3 DIV SWAP1 POP PUSH1 0x1 DUP3 AND DUP1 PUSH2 0x1156 JUMPI PUSH1 0x7F DUP3 AND SWAP2 POP JUMPDEST PUSH1 0x20 DUP3 LT DUP2 SUB PUSH2 0x1169 JUMPI PUSH2 0x1168 PUSH2 0x1112 JUMP JUMPDEST JUMPDEST POP SWAP2 SWAP1 POP JUMP JUMPDEST PUSH0 DUP2 SWAP1 POP SWAP3 SWAP2 POP POP JUMP JUMPDEST PUSH0 PUSH2 0x1183 DUP3 PUSH2 0xCF7 JUMP JUMPDEST PUSH2 0x118D DUP2 DUP6 PUSH2 0x116F JUMP JUMPDEST SWAP4 POP PUSH2 0x119D DUP2 DUP6 PUSH1 0x20 DUP7 ADD PUSH2 0xD11 JUMP JUMPDEST DUP1 DUP5 ADD SWAP2 POP POP SWAP3 SWAP2 POP POP JUMP JUMPDEST PUSH0 PUSH2 0x11B4 DUP3 DUP5 PUSH2 0x1179 JUMP JUMPDEST SWAP2 POP DUP2 SWAP1 POP SWAP3 SWAP2 POP POP JUMP JUMPDEST PUSH32 0x4E6F7420656C696769626C6520746F20766F7465000000000000000000000000 PUSH0 DUP3 ADD MSTORE POP JUMP JUMPDEST PUSH0 PUSH2 0x11F3 PUSH1 0x14 DUP4 PUSH2 0xD01 JUMP JUMPDEST SWAP2 POP PUSH2 0x11FE DUP3 PUSH2 0x11BF JUMP JUMPDEST PUSH1 0x20 DUP3 ADD SWAP1 POP SWAP2 SWAP1 POP JUMP JUMPDEST PUSH0 PUSH1 0x20 DUP3 ADD SWAP1 POP DUP2 DUP2 SUB PUSH0 DUP4 ADD MSTORE PUSH2 0x1220 DUP2 PUSH2 0x11E7 JUMP JUMPDEST SWAP1 POP SWAP2 SWAP1 POP JUMP JUMPDEST PUSH32 0x416C726561647920726567697374657265640000000000000000000000000000 PUSH0 DUP3 ADD MSTORE POP JUMP JUMPDEST PUSH0 PUSH2 0x125B PUSH1 0x12 DUP4 PUSH2 0xD01 JUMP JUMPDEST SWAP2 POP PUSH2 0x1266 DUP3 PUSH2 0x1227 JUMP JUMPDEST PUSH1 0x20 DUP3 ADD SWAP1 POP SWAP2 SWAP1 POP JUMP JUMPDEST PUSH0 PUSH1 0x20 DUP3 ADD SWAP1 POP DUP2 DUP2 SUB PUSH0 DUP4 ADD MSTORE PUSH2 0x1288 DUP2 PUSH2 0x124F JUMP JUMPDEST SWAP1 POP SWAP2 SWAP1 POP JUMP JUMPDEST PUSH0 DUP2 SWAP1 POP DUP2 PUSH0 MSTORE PUSH1 0x20 PUSH0 KECCAK256 SWAP1 POP SWAP2 SWAP1 POP JUMP JUMPDEST PUSH0 PUSH1 0x20 PUSH1 0x1F DUP4 ADD DIV SWAP1 POP SWAP2 SWAP1 POP JUMP JUMPDEST PUSH0 DUP3 DUP3 SHL SWAP1 POP SWAP3 SWAP2 POP POP JUMP JUMPDEST PUSH0 PUSH1 0x8 DUP4 MUL PUSH2 0x12EB PUSH32 0xFFFFFFFFFFFFFFFFFFFFFFFFFFFFFFFFFFFFFFFFFFFFFFFFFFFFFFFFFFFFFFFF DUP3 PUSH2 0x12B0 JUMP JUMPDEST PUSH2 0x12F5 DUP7 DUP4 PUSH2 0x12B0 JUMP JUMPDEST SWAP6 POP DUP1 NOT DUP5 AND SWAP4 POP DUP1 DUP7 AND DUP5 OR SWAP3 POP POP POP SWAP4 SWAP3 POP POP POP JUMP JUMPDEST PUSH0 DUP2 SWAP1 POP SWAP2 SWAP1 POP JUMP JUMPDEST PUSH0 PUSH2 0x1330 PUSH2 0x132B PUSH2 0x1326 DUP5 PUSH2 0xD67 JUMP JUMPDEST PUSH2 0x130D JUMP JUMPDEST PUSH2 0xD67 JUMP JUMPDEST SWAP1 POP SWAP2 SWAP1 POP JUMP JUMPDEST PUSH0 DUP2 SWAP1 POP SWAP2 SWAP1 POP JUMP JUMPDEST PUSH2 0x1349 DUP4 PUSH2 0x1316 JUMP JUMPDEST PUSH2 0x135D PUSH2 0x1355 DUP3 PUSH2 0x1337 JUMP JUMPDEST DUP5 DUP5 SLOAD PUSH2 0x12BC JUMP JUMPDEST DUP3 SSTORE POP POP POP POP JUMP JUMPDEST PUSH0 PUSH0 SWAP1 POP SWAP1 JUMP JUMPDEST PUSH2 0x1374 PUSH2 0x1365 JUMP JUMPDEST PUSH2 0x137F DUP2 DUP5 DUP5 PUSH2 0x1340 JUMP JUMPDEST POP POP POP JUMP JUMPDEST JUMPDEST DUP2 DUP2 LT ISZERO PUSH2 0x13A2 JUMPI PUSH2 0x1397 PUSH0 DUP3 PUSH2 0x136C JUMP JUMPDEST PUSH1 0x1 DUP2 ADD SWAP1 POP PUSH2 0x1385 JUMP JUMPDEST POP POP JUMP JUMPDEST PUSH1 0x1F DUP3 GT ISZERO PUSH2 0x13E7 JUMPI PUSH2 0x13B8 DUP2 PUSH2 0x128F JUMP JUMPDEST PUSH2 0x13C1 DUP5 PUSH2 0x12A1 JUMP JUMPDEST DUP2 ADD PUSH1 0x20 DUP6 LT ISZERO PUSH2 0x13D0 JUMPI DUP2 SWAP1 POP JUMPDEST PUSH2 0x13E4 PUSH2 0x13DC DUP6 PUSH2 0x12A1 JUMP JUMPDEST DUP4 ADD DUP3 PUSH2 0x1384 JUMP JUMPDEST POP POP JUMPDEST POP POP POP JUMP JUMPDEST PUSH0 DUP3 DUP3 SHR SWAP1 POP SWAP3 SWAP2 POP POP JUMP JUMPDEST PUSH0 PUSH2 0x1407 PUSH0 NOT DUP5 PUSH1 0x8 MUL PUSH2 0x13EC JUMP JUMPDEST NOT DUP1 DUP4 AND SWAP2 POP POP SWAP3 SWAP2 POP POP JUMP JUMPDEST PUSH0 PUSH2 0x141F DUP4 DUP4 PUSH2 0x13F8 JUMP JUMPDEST SWAP2 POP DUP3 PUSH1 0x2 MUL DUP3 OR SWAP1 POP SWAP3 SWAP2 POP POP JUMP JUMPDEST PUSH2 0x1438 DUP3 PUSH2 0xCF7 JUMP JUMPDEST PUSH8 0xFFFFFFFFFFFFFFFF DUP2 GT ISZERO PUSH2 0x1451 JUMPI PUSH2 0x1450 PUSH2 0xE99 JUMP JUMPDEST JUMPDEST PUSH2 0x145B DUP3 SLOAD PUSH2 0x113F JUMP JUMPDEST PUSH2 0x1466 DUP3 DUP3 DUP6 PUSH2 0x13A6 JUMP JUMPDEST PUSH0 PUSH1 0x20 SWAP1 POP PUSH1 0x1F DUP4 GT PUSH1 0x1 DUP2 EQ PUSH2 0x1497 JUMPI PUSH0 DUP5 ISZERO PUSH2 0x1485 JUMPI DUP3 DUP8 ADD MLOAD SWAP1 POP JUMPDEST PUSH2 0x148F DUP6 DUP3 PUSH2 0x1414 JUMP JUMPDEST DUP7 SSTORE POP PUSH2 0x14F6 JUMP JUMPDEST PUSH1 0x1F NOT DUP5 AND PUSH2 0x14A5 DUP7 PUSH2 0x128F JUMP JUMPDEST PUSH0 JUMPDEST DUP3 DUP2 LT ISZERO PUSH2 0x14CC JUMPI DUP5 DUP10 ADD MLOAD DUP3 SSTORE PUSH1 0x1 DUP3 ADD SWAP2 POP PUSH1 0x20 DUP6 ADD SWAP5 POP PUSH1 0x20 DUP2 ADD SWAP1 POP PUSH2 0x14A7 JUMP JUMPDEST DUP7 DUP4 LT ISZERO PUSH2 0x14E9 JUMPI DUP5 DUP10 ADD MLOAD PUSH2 0x14E5 PUSH1 0x1F DUP10 AND DUP3 PUSH2 0x13F8 JUMP JUMPDEST DUP4 SSTORE POP JUMPDEST PUSH1 0x1 PUSH1 0x2 DUP9 MUL ADD DUP9 SSTORE POP POP POP JUMPDEST POP POP POP POP POP POP JUMP JUMPDEST PUSH32 0x4E487B7100000000000000000000000000000000000000000000000000000000 PUSH0 MSTORE PUSH1 0x11 PUSH1 0x4 MSTORE PUSH1 0x24 PUSH0 REVERT JUMPDEST PUSH0 PUSH2 0x1535 DUP3 PUSH2 0xD67 JUMP JUMPDEST SWAP2 POP PUSH32 0xFFFFFFFFFFFFFFFFFFFFFFFFFFFFFFFFFFFFFFFFFFFFFFFFFFFFFFFFFFFFFFFF DUP3 SUB PUSH2 0x1567 JUMPI PUSH2 0x1566 PUSH2 0x14FE JUMP JUMPDEST JUMPDEST PUSH1 0x1 DUP3 ADD SWAP1 POP SWAP2 SWAP1 POP JUMP JUMPDEST PUSH32 0x4E6F742072656769737465726564000000000000000000000000000000000000 PUSH0 DUP3 ADD MSTORE POP JUMP JUMPDEST PUSH0 PUSH2 0x15A6 PUSH1 0xE DUP4 PUSH2 0xD01 JUMP JUMPDEST SWAP2 POP PUSH2 0x15B1 DUP3 PUSH2 0x1572 JUMP JUMPDEST PUSH1 0x20 DUP3 ADD SWAP1 POP SWAP2 SWAP1 POP JUMP JUMPDEST PUSH0 PUSH1 0x20 DUP3 ADD SWAP1 POP DUP2 DUP2 SUB PUSH0 DUP4 ADD MSTORE PUSH2 0x15D3 DUP2 PUSH2 0x159A JUMP JUMPDEST SWAP1 POP SWAP2 SWAP1 POP JUMP JUMPDEST PUSH32 0x416C726561647920766F74656400000000000000000000000000000000000000 PUSH0 DUP3 ADD MSTORE POP JUMP JUMPDEST PUSH0 PUSH2 0x160E PUSH1 0xD DUP4 PUSH2 0xD01 JUMP JUMPDEST SWAP2 POP PUSH2 0x1619 DUP3 PUSH2 0x15DA JUMP JUMPDEST PUSH1 0x20 DUP3 ADD SWAP1 POP SWAP2 SWAP1 POP JUMP JUMPDEST PUSH0 PUSH1 0x20 DUP3 ADD SWAP1 POP DUP2 DUP2 SUB PUSH0 DUP4 ADD MSTORE PUSH2 0x163B DUP2 PUSH2 0x1602 JUMP JUMPDEST SWAP1 POP SWAP2 SWAP1 POP JUMP INVALID LOG2 PUSH5 0x6970667358 0x22 SLT KECCAK256 CALLVALUE 0xAF DUP1 BASEFEE GT PUSH19 0x1954505BB7DBBE991C66B32AC1B35CBA9D2AE9 0x2F GASPRICE PUSH4 0xB22D5340 PUSH5 0x736F6C6343 STOP ADDMOD 0x1F STOP CALLER "
				},
				"gasEstimates": {
					"creation": {
						"codeDepositCost": "1150400",
						"executionCost": "25456",
						"totalCost": "1175856"
					},
					"external": {
						"getAllVoters()": "infinite",
						"getMyDetails()": "infinite",
						"getVotes(string)": "infinite",
						"owner()": "2530",
						"register(string,uint256)": "infinite",
						"totalVoters()": "2492",
						"voteAAP()": "infinite",
						"voteBJP()": "infinite",
						"voteCongress()": "infinite",
						"voteCount(string)": "infinite",
						"voteINLD()": "infinite",
						"voters(address)": "infinite",
						"votersList(uint256)": "5033"
					},
					"internal": {
						"_vote(string memory)": "infinite"
					}
				},
				"methodIdentifiers": {
					"getAllVoters()": "35bbe70e",
					"getMyDetails()": "431bbb7e",
					"getVotes(string)": "805265e5",
					"owner()": "8da5cb5b",
					"register(string,uint256)": "ea87152b",
					"totalVoters()": "5f5300ff",
					"voteAAP()": "a9313107",
					"voteBJP()": "1eac1c27",
					"voteCongress()": "f012d662",
					"voteCount(string)": "ba7f7552",
					"voteINLD()": "e065818b",
					"voters(address)": "a3ec138d",
					"votersList(uint256)": "72ce73ab"
				}
			},
			"storageLayout": {
				"storage": [
					{
						"astId": 3,
						"contract": "Vote_System.sol:VotingSystem",
						"label": "owner",
						"offset": 0,
						"slot": "0",
						"type": "t_address"
					},
					{
						"astId": 5,
						"contract": "Vote_System.sol:VotingSystem",
						"label": "totalVoters",
						"offset": 0,
						"slot": "1",
						"type": "t_uint256"
					},
					{
						"astId": 21,
						"contract": "Vote_System.sol:VotingSystem",
						"label": "voters",
						"offset": 0,
						"slot": "2",
						"type": "t_mapping(t_address,t_struct(Voter)16_storage)"
					},
					{
						"astId": 24,
						"contract": "Vote_System.sol:VotingSystem",
						"label": "votersList",
						"offset": 0,
						"slot": "3",
						"type": "t_array(t_address)dyn_storage"
					},
					{
						"astId": 28,
						"contract": "Vote_System.sol:VotingSystem",
						"label": "voteCount",
						"offset": 0,
						"slot": "4",
						"type": "t_mapping(t_string_memory_ptr,t_uint256)"
					}
				],
				"types": {
					"t_address": {
						"encoding": "inplace",
						"label": "address",
						"numberOfBytes": "20"
					},
					"t_array(t_address)dyn_storage": {
						"base": "t_address",
						"encoding": "dynamic_array",
						"label": "address[]",
						"numberOfBytes": "32"
					},
					"t_bool": {
						"encoding": "inplace",
						"label": "bool",
						"numberOfBytes": "1"
					},
					"t_mapping(t_address,t_struct(Voter)16_storage)": {
						"encoding": "mapping",
						"key": "t_address",
						"label": "mapping(address => struct VotingSystem.Voter)",
						"numberOfBytes": "32",
						"value": "t_struct(Voter)16_storage"
					},
					"t_mapping(t_string_memory_ptr,t_uint256)": {
						"encoding": "mapping",
						"key": "t_string_memory_ptr",
						"label": "mapping(string => uint256)",
						"numberOfBytes": "32",
						"value": "t_uint256"
					},
					"t_string_memory_ptr": {
						"encoding": "bytes",
						"label": "string",
						"numberOfBytes": "32"
					},
					"t_string_storage": {
						"encoding": "bytes",
						"label": "string",
						"numberOfBytes": "32"
					},
					"t_struct(Voter)16_storage": {
						"encoding": "inplace",
						"label": "struct VotingSystem.Voter",
						"members": [
							{
								"astId": 7,
								"contract": "Vote_System.sol:VotingSystem",
								"label": "name",
								"offset": 0,
								"slot": "0",
								"type": "t_string_storage"
							},
							{
								"astId": 9,
								"contract": "Vote_System.sol:VotingSystem",
								"label": "age",
								"offset": 0,
								"slot": "1",
								"type": "t_uint256"
							},
							{
								"astId": 11,
								"contract": "Vote_System.sol:VotingSystem",
								"label": "party",
								"offset": 0,
								"slot": "2",
								"type": "t_string_storage"
							},
							{
								"astId": 13,
								"contract": "Vote_System.sol:VotingSystem",
								"label": "hasVoted",
								"offset": 0,
								"slot": "3",
								"type": "t_bool"
							},
							{
								"astId": 15,
								"contract": "Vote_System.sol:VotingSystem",
								"label": "isRegistered",
								"offset": 1,
								"slot": "3",
								"type": "t_bool"
							}
						],
						"numberOfBytes": "128"
					},
					"t_uint256": {
						"encoding": "inplace",
						"label": "uint256",
						"numberOfBytes": "32"
					}
				}
			},
			"userdoc": {
				"kind": "user",
				"methods": {},
				"version": 1
			}
		}
	}
}