{
	"inheritance.sol": {
		"DetailsMarks": {
			"abi": [
				{
					"inputs": [
						{
							"internalType": "string",
							"name": "_name",
							"type": "string"
						},
						{
							"internalType": "uint256",
							"name": "_marks",
							"type": "uint256"
						}
					],
					"name": "_DetailsMarks",
					"outputs": [
						{
							"internalType": "string",
							"name": "",
							"type": "string"
						},
						{
							"internalType": "uint256",
							"name": "",
							"type": "uint256"
						}
					],
					"stateMutability": "nonpayable",
					"type": "function"
				},
				{
					"inputs": [
						{
							"internalType": "string",
							"name": "_name",
							"type": "string"
						},
						{
							"internalType": "uint256",
							"name": "_age",
							"type": "uint256"
						}
					],
					"name": "details",
					"outputs": [
						{
							"internalType": "string",
							"name": "",
							"type": "string"
						},
						{
							"internalType": "uint256",
							"name": "",
							"type": "uint256"
						}
					],
					"stateMutability": "nonpayable",
					"type": "function"
				}
			],
			"devdoc": {
				"kind": "dev",
				"methods": {},
				"version": 1
			},
			"evm": {
				"assembly": "    /* \"inheritance.sol\":547:808  contract DetailsMarks is Student{\r... */\n  mstore(0x40, 0x80)\n  callvalue\n  dup1\n  iszero\n  tag_1\n  jumpi\n  0x00\n  dup1\n  revert\ntag_1:\n  pop\n  dataSize(sub_0)\n  dup1\n  dataOffset(sub_0)\n  0x00\n  codecopy\n  0x00\n  return\nstop\n\nsub_0: assembly {\n        /* \"inheritance.sol\":547:808  contract DetailsMarks is Student{\r... */\n      mstore(0x40, 0x80)\n      callvalue\n      dup1\n      iszero\n      tag_1\n      jumpi\n      0x00\n      dup1\n      revert\n    tag_1:\n      pop\n      jumpi(tag_2, lt(calldatasize, 0x04))\n      shr(0xe0, calldataload(0x00))\n      dup1\n      0x373dde50\n      eq\n      tag_3\n      jumpi\n      dup1\n      0xe69bfc84\n      eq\n      tag_4\n      jumpi\n    tag_2:\n      0x00\n      dup1\n      revert\n        /* \"inheritance.sol\":617:805  function _DetailsMarks(string memory _name, uint _marks) public  returns(string memory, uint){\r... */\n    tag_3:\n      tag_5\n      0x04\n      dup1\n      calldatasize\n      sub\n      dup2\n      add\n      swap1\n      tag_6\n      swap2\n      swap1\n      tag_7\n      jump\t// in\n    tag_6:\n      tag_8\n      jump\t// in\n    tag_5:\n      mload(0x40)\n      tag_9\n      swap3\n      swap2\n      swap1\n      tag_10\n      jump\t// in\n    tag_9:\n      mload(0x40)\n      dup1\n      swap2\n      sub\n      swap1\n      return\n        /* \"inheritance.sol\":118:287  function details(string memory _name, uint _age) public returns(string memory, uint){\r... */\n    tag_4:\n      tag_11\n      0x04\n      dup1\n      calldatasize\n      sub\n      dup2\n      add\n      swap1\n      tag_12\n      swap2\n      swap1\n      tag_7\n      jump\t// in\n    tag_12:\n      tag_13\n      jump\t// in\n    tag_11:\n      mload(0x40)\n      tag_14\n      swap3\n      swap2\n      swap1\n      tag_10\n      jump\t// in\n    tag_14:\n      mload(0x40)\n      dup1\n      swap2\n      sub\n      swap1\n      return\n        /* \"inheritance.sol\":617:805  function _DetailsMarks(string memory _name, uint _marks) public  returns(string memory, uint){\r... */\n    tag_8:\n        /* \"inheritance.sol\":690:703  string memory */\n      0x60\n        /* \"inheritance.sol\":705:709  uint */\n      0x00\n        /* \"inheritance.sol\":730:732  25 */\n      0x19\n        /* \"inheritance.sol\":721:732  _marks = 25 */\n      swap3\n      pop\n        /* \"inheritance.sol\":743:764  details(\"Aayush\", 18) */\n      tag_16\n      mload(0x40)\n      dup1\n      0x40\n      add\n      0x40\n      mstore\n      dup1\n      0x06\n      dup2\n      mstore\n      0x20\n      add\n      0x4161797573680000000000000000000000000000000000000000000000000000\n      dup2\n      mstore\n      pop\n        /* \"inheritance.sol\":761:763  18 */\n      0x12\n        /* \"inheritance.sol\":743:750  details */\n      tag_13\n        /* \"inheritance.sol\":743:764  details(\"Aayush\", 18) */\n      jump\t// in\n    tag_16:\n      pop\n      pop\n        /* \"inheritance.sol\":783:788  _name */\n      dup4\n        /* \"inheritance.sol\":790:796  _marks */\n      dup4\n        /* \"inheritance.sol\":775:797  return (_name, _marks) */\n      swap2\n      pop\n      swap2\n      pop\n        /* \"inheritance.sol\":617:805  function _DetailsMarks(string memory _name, uint _marks) public  returns(string memory, uint){\r... */\n      swap3\n      pop\n      swap3\n      swap1\n      pop\n      jump\t// out\n        /* \"inheritance.sol\":118:287  function details(string memory _name, uint _age) public returns(string memory, uint){\r... */\n    tag_13:\n        /* \"inheritance.sol\":182:195  string memory */\n      0x60\n        /* \"inheritance.sol\":197:201  uint */\n      0x00\n        /* \"inheritance.sol\":221:226  _name */\n      dup4\n        /* \"inheritance.sol\":215:219  name */\n      0x00\n        /* \"inheritance.sol\":215:226  name= _name */\n      swap1\n      dup1\n      mload\n      swap1\n      0x20\n      add\n      swap1\n      tag_18\n      swap3\n      swap2\n      swap1\n      tag_19\n      jump\t// in\n    tag_18:\n      pop\n        /* \"inheritance.sol\":244:248  _age */\n      dup3\n        /* \"inheritance.sol\":239:242  age */\n      0x01\n        /* \"inheritance.sol\":239:248  age= _age */\n      dup2\n      swap1\n      sstore\n      pop\n        /* \"inheritance.sol\":269:273  name */\n      0x00\n        /* \"inheritance.sol\":275:278  age */\n      sload(0x01)\n        /* \"inheritance.sol\":261:279  return (name, age) */\n      dup2\n      dup1\n      sload\n      tag_20\n      swap1\n      tag_21\n      jump\t// in\n    tag_20:\n      dup1\n      0x1f\n      add\n      0x20\n      dup1\n      swap2\n      div\n      mul\n      0x20\n      add\n      mload(0x40)\n      swap1\n      dup2\n      add\n      0x40\n      mstore\n      dup1\n      swap3\n      swap2\n      swap1\n      dup2\n      dup2\n      mstore\n      0x20\n      add\n      dup3\n      dup1\n      sload\n      tag_22\n      swap1\n      tag_21\n      jump\t// in\n    tag_22:\n      dup1\n      iszero\n      tag_23\n      jumpi\n      dup1\n      0x1f\n      lt\n      tag_24\n      jumpi\n      0x0100\n      dup1\n      dup4\n      sload\n      div\n      mul\n      dup4\n      mstore\n      swap2\n      0x20\n      add\n      swap2\n      jump(tag_23)\n    tag_24:\n      dup3\n      add\n      swap2\n      swap1\n      0x00\n      mstore\n      keccak256(0x00, 0x20)\n      swap1\n    tag_25:\n      dup2\n      sload\n      dup2\n      mstore\n      swap1\n      0x01\n      add\n      swap1\n      0x20\n      add\n      dup1\n      dup4\n      gt\n      tag_25\n      jumpi\n      dup3\n      swap1\n      sub\n      0x1f\n      and\n      dup3\n      add\n      swap2\n    tag_23:\n      pop\n      pop\n      pop\n      pop\n      pop\n      swap2\n      pop\n      swap2\n      pop\n      swap2\n      pop\n        /* \"inheritance.sol\":118:287  function details(string memory _name, uint _age) public returns(string memory, uint){\r... */\n      swap3\n      pop\n      swap3\n      swap1\n      pop\n      jump\t// out\n    tag_19:\n      dup3\n      dup1\n      sload\n      tag_26\n      swap1\n      tag_21\n      jump\t// in\n    tag_26:\n      swap1\n      0x00\n      mstore\n      keccak256(0x00, 0x20)\n      swap1\n      0x1f\n      add\n      0x20\n      swap1\n      div\n      dup2\n      add\n      swap3\n      dup3\n      tag_28\n      jumpi\n      0x00\n      dup6\n      sstore\n      jump(tag_27)\n    tag_28:\n      dup3\n      0x1f\n      lt\n      tag_29\n      jumpi\n      dup1\n      mload\n      not(0xff)\n      and\n      dup4\n      dup1\n      add\n      or\n      dup6\n      sstore\n      jump(tag_27)\n    tag_29:\n      dup3\n      dup1\n      add\n      0x01\n      add\n      dup6\n      sstore\n      dup3\n      iszero\n      tag_27\n      jumpi\n      swap2\n      dup3\n      add\n    tag_30:\n      dup3\n      dup2\n      gt\n      iszero\n      tag_31\n      jumpi\n      dup3\n      mload\n      dup3\n      sstore\n      swap2\n      0x20\n      add\n      swap2\n      swap1\n      0x01\n      add\n      swap1\n      jump(tag_30)\n    tag_31:\n    tag_27:\n      pop\n      swap1\n      pop\n      tag_32\n      swap2\n      swap1\n      tag_33\n      jump\t// in\n    tag_32:\n      pop\n      swap1\n      jump\t// out\n    tag_33:\n    tag_34:\n      dup1\n      dup3\n      gt\n      iszero\n      tag_35\n      jumpi\n      0x00\n      dup2\n      0x00\n      swap1\n      sstore\n      pop\n      0x01\n      add\n      jump(tag_34)\n    tag_35:\n      pop\n      swap1\n      jump\t// out\n        /* \"#utility.yul\":7:351   */\n    tag_37:\n      0x00\n        /* \"#utility.yul\":110:175   */\n      tag_39\n        /* \"#utility.yul\":125:174   */\n      tag_40\n        /* \"#utility.yul\":167:173   */\n      dup5\n        /* \"#utility.yul\":125:174   */\n      tag_41\n      jump\t// in\n    tag_40:\n        /* \"#utility.yul\":110:175   */\n      tag_42\n      jump\t// in\n    tag_39:\n        /* \"#utility.yul\":101:175   */\n      swap1\n      pop\n        /* \"#utility.yul\":198:204   */\n      dup3\n        /* \"#utility.yul\":191:196   */\n      dup2\n        /* \"#utility.yul\":184:205   */\n      mstore\n        /* \"#utility.yul\":236:240   */\n      0x20\n        /* \"#utility.yul\":229:234   */\n      dup2\n        /* \"#utility.yul\":225:241   */\n      add\n        /* \"#utility.yul\":274:277   */\n      dup5\n        /* \"#utility.yul\":265:271   */\n      dup5\n        /* \"#utility.yul\":260:263   */\n      dup5\n        /* \"#utility.yul\":256:272   */\n      add\n        /* \"#utility.yul\":253:278   */\n      gt\n        /* \"#utility.yul\":250:252   */\n      iszero\n      tag_43\n      jumpi\n        /* \"#utility.yul\":291:292   */\n      0x00\n        /* \"#utility.yul\":288:289   */\n      dup1\n        /* \"#utility.yul\":281:293   */\n      revert\n        /* \"#utility.yul\":250:252   */\n    tag_43:\n        /* \"#utility.yul\":304:345   */\n      tag_44\n        /* \"#utility.yul\":338:344   */\n      dup5\n        /* \"#utility.yul\":333:336   */\n      dup3\n        /* \"#utility.yul\":328:331   */\n      dup6\n        /* \"#utility.yul\":304:345   */\n      tag_45\n      jump\t// in\n    tag_44:\n        /* \"#utility.yul\":91:351   */\n      pop\n      swap4\n      swap3\n      pop\n      pop\n      pop\n      jump\t// out\n        /* \"#utility.yul\":371:644   */\n    tag_46:\n      0x00\n        /* \"#utility.yul\":476:479   */\n      dup3\n        /* \"#utility.yul\":469:473   */\n      0x1f\n        /* \"#utility.yul\":461:467   */\n      dup4\n        /* \"#utility.yul\":457:474   */\n      add\n        /* \"#utility.yul\":453:480   */\n      slt\n        /* \"#utility.yul\":443:445   */\n      tag_48\n      jumpi\n        /* \"#utility.yul\":494:495   */\n      0x00\n        /* \"#utility.yul\":491:492   */\n      dup1\n        /* \"#utility.yul\":484:496   */\n      revert\n        /* \"#utility.yul\":443:445   */\n    tag_48:\n        /* \"#utility.yul\":534:540   */\n      dup2\n        /* \"#utility.yul\":521:541   */\n      calldataload\n        /* \"#utility.yul\":559:638   */\n      tag_49\n        /* \"#utility.yul\":634:637   */\n      dup5\n        /* \"#utility.yul\":626:632   */\n      dup3\n        /* \"#utility.yul\":619:623   */\n      0x20\n        /* \"#utility.yul\":611:617   */\n      dup7\n        /* \"#utility.yul\":607:624   */\n      add\n        /* \"#utility.yul\":559:638   */\n      tag_37\n      jump\t// in\n    tag_49:\n        /* \"#utility.yul\":550:638   */\n      swap2\n      pop\n        /* \"#utility.yul\":433:644   */\n      pop\n      swap3\n      swap2\n      pop\n      pop\n      jump\t// out\n        /* \"#utility.yul\":650:789   */\n    tag_50:\n      0x00\n        /* \"#utility.yul\":734:740   */\n      dup2\n        /* \"#utility.yul\":721:741   */\n      calldataload\n        /* \"#utility.yul\":712:741   */\n      swap1\n      pop\n        /* \"#utility.yul\":750:783   */\n      tag_52\n        /* \"#utility.yul\":777:782   */\n      dup2\n        /* \"#utility.yul\":750:783   */\n      tag_53\n      jump\t// in\n    tag_52:\n        /* \"#utility.yul\":702:789   */\n      swap3\n      swap2\n      pop\n      pop\n      jump\t// out\n        /* \"#utility.yul\":795:1315   */\n    tag_7:\n      0x00\n      dup1\n        /* \"#utility.yul\":930:932   */\n      0x40\n        /* \"#utility.yul\":918:927   */\n      dup4\n        /* \"#utility.yul\":909:916   */\n      dup6\n        /* \"#utility.yul\":905:928   */\n      sub\n        /* \"#utility.yul\":901:933   */\n      slt\n        /* \"#utility.yul\":898:900   */\n      iszero\n      tag_55\n      jumpi\n        /* \"#utility.yul\":946:947   */\n      0x00\n        /* \"#utility.yul\":943:944   */\n      dup1\n        /* \"#utility.yul\":936:948   */\n      revert\n        /* \"#utility.yul\":898:900   */\n    tag_55:\n        /* \"#utility.yul\":1017:1018   */\n      0x00\n        /* \"#utility.yul\":1006:1015   */\n      dup4\n        /* \"#utility.yul\":1002:1019   */\n      add\n        /* \"#utility.yul\":989:1020   */\n      calldataload\n        /* \"#utility.yul\":1047:1065   */\n      0xffffffffffffffff\n        /* \"#utility.yul\":1039:1045   */\n      dup2\n        /* \"#utility.yul\":1036:1066   */\n      gt\n        /* \"#utility.yul\":1033:1035   */\n      iszero\n      tag_56\n      jumpi\n        /* \"#utility.yul\":1079:1080   */\n      0x00\n        /* \"#utility.yul\":1076:1077   */\n      dup1\n        /* \"#utility.yul\":1069:1081   */\n      revert\n        /* \"#utility.yul\":1033:1035   */\n    tag_56:\n        /* \"#utility.yul\":1107:1170   */\n      tag_57\n        /* \"#utility.yul\":1162:1169   */\n      dup6\n        /* \"#utility.yul\":1153:1159   */\n      dup3\n        /* \"#utility.yul\":1142:1151   */\n      dup7\n        /* \"#utility.yul\":1138:1160   */\n      add\n        /* \"#utility.yul\":1107:1170   */\n      tag_46\n      jump\t// in\n    tag_57:\n        /* \"#utility.yul\":1097:1170   */\n      swap3\n      pop\n        /* \"#utility.yul\":960:1180   */\n      pop\n        /* \"#utility.yul\":1219:1221   */\n      0x20\n        /* \"#utility.yul\":1245:1298   */\n      tag_58\n        /* \"#utility.yul\":1290:1297   */\n      dup6\n        /* \"#utility.yul\":1281:1287   */\n      dup3\n        /* \"#utility.yul\":1270:1279   */\n      dup7\n        /* \"#utility.yul\":1266:1288   */\n      add\n        /* \"#utility.yul\":1245:1298   */\n      tag_50\n      jump\t// in\n    tag_58:\n        /* \"#utility.yul\":1235:1298   */\n      swap2\n      pop\n        /* \"#utility.yul\":1190:1308   */\n      pop\n        /* \"#utility.yul\":888:1315   */\n      swap3\n      pop\n      swap3\n      swap1\n      pop\n      jump\t// out\n        /* \"#utility.yul\":1321:1685   */\n    tag_59:\n      0x00\n        /* \"#utility.yul\":1437:1476   */\n      tag_61\n        /* \"#utility.yul\":1470:1475   */\n      dup3\n        /* \"#utility.yul\":1437:1476   */\n      tag_62\n      jump\t// in\n    tag_61:\n        /* \"#utility.yul\":1492:1563   */\n      tag_63\n        /* \"#utility.yul\":1556:1562   */\n      dup2\n        /* \"#utility.yul\":1551:1554   */\n      dup6\n        /* \"#utility.yul\":1492:1563   */\n      tag_64\n      jump\t// in\n    tag_63:\n        /* \"#utility.yul\":1485:1563   */\n      swap4\n      pop\n        /* \"#utility.yul\":1572:1624   */\n      tag_65\n        /* \"#utility.yul\":1617:1623   */\n      dup2\n        /* \"#utility.yul\":1612:1615   */\n      dup6\n        /* \"#utility.yul\":1605:1609   */\n      0x20\n        /* \"#utility.yul\":1598:1603   */\n      dup7\n        /* \"#utility.yul\":1594:1610   */\n      add\n        /* \"#utility.yul\":1572:1624   */\n      tag_66\n      jump\t// in\n    tag_65:\n        /* \"#utility.yul\":1649:1678   */\n      tag_67\n        /* \"#utility.yul\":1671:1677   */\n      dup2\n        /* \"#utility.yul\":1649:1678   */\n      tag_68\n      jump\t// in\n    tag_67:\n        /* \"#utility.yul\":1644:1647   */\n      dup5\n        /* \"#utility.yul\":1640:1679   */\n      add\n        /* \"#utility.yul\":1633:1679   */\n      swap2\n      pop\n        /* \"#utility.yul\":1413:1685   */\n      pop\n      swap3\n      swap2\n      pop\n      pop\n      jump\t// out\n        /* \"#utility.yul\":1691:1809   */\n    tag_69:\n        /* \"#utility.yul\":1778:1802   */\n      tag_71\n        /* \"#utility.yul\":1796:1801   */\n      dup2\n        /* \"#utility.yul\":1778:1802   */\n      tag_72\n      jump\t// in\n    tag_71:\n        /* \"#utility.yul\":1773:1776   */\n      dup3\n        /* \"#utility.yul\":1766:1803   */\n      mstore\n        /* \"#utility.yul\":1756:1809   */\n      pop\n      pop\n      jump\t// out\n        /* \"#utility.yul\":1815:2238   */\n    tag_10:\n      0x00\n        /* \"#utility.yul\":1994:1996   */\n      0x40\n        /* \"#utility.yul\":1983:1992   */\n      dup3\n        /* \"#utility.yul\":1979:1997   */\n      add\n        /* \"#utility.yul\":1971:1997   */\n      swap1\n      pop\n        /* \"#utility.yul\":2043:2052   */\n      dup2\n        /* \"#utility.yul\":2037:2041   */\n      dup2\n        /* \"#utility.yul\":2033:2053   */\n      sub\n        /* \"#utility.yul\":2029:2030   */\n      0x00\n        /* \"#utility.yul\":2018:2027   */\n      dup4\n        /* \"#utility.yul\":2014:2031   */\n      add\n        /* \"#utility.yul\":2007:2054   */\n      mstore\n        /* \"#utility.yul\":2071:2149   */\n      tag_74\n        /* \"#utility.yul\":2144:2148   */\n      dup2\n        /* \"#utility.yul\":2135:2141   */\n      dup6\n        /* \"#utility.yul\":2071:2149   */\n      tag_59\n      jump\t// in\n    tag_74:\n        /* \"#utility.yul\":2063:2149   */\n      swap1\n      pop\n        /* \"#utility.yul\":2159:2231   */\n      tag_75\n        /* \"#utility.yul\":2227:2229   */\n      0x20\n        /* \"#utility.yul\":2216:2225   */\n      dup4\n        /* \"#utility.yul\":2212:2230   */\n      add\n        /* \"#utility.yul\":2203:2209   */\n      dup5\n        /* \"#utility.yul\":2159:2231   */\n      tag_69\n      jump\t// in\n    tag_75:\n        /* \"#utility.yul\":1961:2238   */\n      swap4\n      swap3\n      pop\n      pop\n      pop\n      jump\t// out\n        /* \"#utility.yul\":2244:2527   */\n    tag_42:\n      0x00\n        /* \"#utility.yul\":2310:2312   */\n      0x40\n        /* \"#utility.yul\":2304:2313   */\n      mload\n        /* \"#utility.yul\":2294:2313   */\n      swap1\n      pop\n        /* \"#utility.yul\":2352:2356   */\n      dup2\n        /* \"#utility.yul\":2344:2350   */\n      dup2\n        /* \"#utility.yul\":2340:2357   */\n      add\n        /* \"#utility.yul\":2459:2465   */\n      dup2\n        /* \"#utility.yul\":2447:2457   */\n      dup2\n        /* \"#utility.yul\":2444:2466   */\n      lt\n        /* \"#utility.yul\":2423:2441   */\n      0xffffffffffffffff\n        /* \"#utility.yul\":2411:2421   */\n      dup3\n        /* \"#utility.yul\":2408:2442   */\n      gt\n        /* \"#utility.yul\":2405:2467   */\n      or\n        /* \"#utility.yul\":2402:2404   */\n      iszero\n      tag_77\n      jumpi\n        /* \"#utility.yul\":2470:2488   */\n      tag_78\n      tag_79\n      jump\t// in\n    tag_78:\n        /* \"#utility.yul\":2402:2404   */\n    tag_77:\n        /* \"#utility.yul\":2510:2520   */\n      dup1\n        /* \"#utility.yul\":2506:2508   */\n      0x40\n        /* \"#utility.yul\":2499:2521   */\n      mstore\n        /* \"#utility.yul\":2284:2527   */\n      pop\n      swap2\n      swap1\n      pop\n      jump\t// out\n        /* \"#utility.yul\":2533:2865   */\n    tag_41:\n      0x00\n        /* \"#utility.yul\":2685:2703   */\n      0xffffffffffffffff\n        /* \"#utility.yul\":2677:2683   */\n      dup3\n        /* \"#utility.yul\":2674:2704   */\n      gt\n        /* \"#utility.yul\":2671:2673   */\n      iszero\n      tag_81\n      jumpi\n        /* \"#utility.yul\":2707:2725   */\n      tag_82\n      tag_79\n      jump\t// in\n    tag_82:\n        /* \"#utility.yul\":2671:2673   */\n    tag_81:\n        /* \"#utility.yul\":2792:2796   */\n      0x1f\n        /* \"#utility.yul\":2788:2797   */\n      not\n        /* \"#utility.yul\":2781:2785   */\n      0x1f\n        /* \"#utility.yul\":2773:2779   */\n      dup4\n        /* \"#utility.yul\":2769:2786   */\n      add\n        /* \"#utility.yul\":2765:2798   */\n      and\n        /* \"#utility.yul\":2757:2798   */\n      swap1\n      pop\n        /* \"#utility.yul\":2853:2857   */\n      0x20\n        /* \"#utility.yul\":2847:2851   */\n      dup2\n        /* \"#utility.yul\":2843:2858   */\n      add\n        /* \"#utility.yul\":2835:2858   */\n      swap1\n      pop\n        /* \"#utility.yul\":2600:2865   */\n      swap2\n      swap1\n      pop\n      jump\t// out\n        /* \"#utility.yul\":2871:2970   */\n    tag_62:\n      0x00\n        /* \"#utility.yul\":2957:2962   */\n      dup2\n        /* \"#utility.yul\":2951:2963   */\n      mload\n        /* \"#utility.yul\":2941:2963   */\n      swap1\n      pop\n        /* \"#utility.yul\":2930:2970   */\n      swap2\n      swap1\n      pop\n      jump\t// out\n        /* \"#utility.yul\":2976:3145   */\n    tag_64:\n      0x00\n        /* \"#utility.yul\":3094:3100   */\n      dup3\n        /* \"#utility.yul\":3089:3092   */\n      dup3\n        /* \"#utility.yul\":3082:3101   */\n      mstore\n        /* \"#utility.yul\":3134:3138   */\n      0x20\n        /* \"#utility.yul\":3129:3132   */\n      dup3\n        /* \"#utility.yul\":3125:3139   */\n      add\n        /* \"#utility.yul\":3110:3139   */\n      swap1\n      pop\n        /* \"#utility.yul\":3072:3145   */\n      swap3\n      swap2\n      pop\n      pop\n      jump\t// out\n        /* \"#utility.yul\":3151:3228   */\n    tag_72:\n      0x00\n        /* \"#utility.yul\":3217:3222   */\n      dup2\n        /* \"#utility.yul\":3206:3222   */\n      swap1\n      pop\n        /* \"#utility.yul\":3196:3228   */\n      swap2\n      swap1\n      pop\n      jump\t// out\n        /* \"#utility.yul\":3234:3388   */\n    tag_45:\n        /* \"#utility.yul\":3318:3324   */\n      dup3\n        /* \"#utility.yul\":3313:3316   */\n      dup2\n        /* \"#utility.yul\":3308:3311   */\n      dup4\n        /* \"#utility.yul\":3295:3325   */\n      calldatacopy\n        /* \"#utility.yul\":3380:3381   */\n      0x00\n        /* \"#utility.yul\":3371:3377   */\n      dup4\n        /* \"#utility.yul\":3366:3369   */\n      dup4\n        /* \"#utility.yul\":3362:3378   */\n      add\n        /* \"#utility.yul\":3355:3382   */\n      mstore\n        /* \"#utility.yul\":3285:3388   */\n      pop\n      pop\n      pop\n      jump\t// out\n        /* \"#utility.yul\":3394:3701   */\n    tag_66:\n        /* \"#utility.yul\":3462:3463   */\n      0x00\n        /* \"#utility.yul\":3472:3585   */\n    tag_88:\n        /* \"#utility.yul\":3486:3492   */\n      dup4\n        /* \"#utility.yul\":3483:3484   */\n      dup2\n        /* \"#utility.yul\":3480:3493   */\n      lt\n        /* \"#utility.yul\":3472:3585   */\n      iszero\n      tag_90\n      jumpi\n        /* \"#utility.yul\":3571:3572   */\n      dup1\n        /* \"#utility.yul\":3566:3569   */\n      dup3\n        /* \"#utility.yul\":3562:3573   */\n      add\n        /* \"#utility.yul\":3556:3574   */\n      mload\n        /* \"#utility.yul\":3552:3553   */\n      dup2\n        /* \"#utility.yul\":3547:3550   */\n      dup5\n        /* \"#utility.yul\":3543:3554   */\n      add\n        /* \"#utility.yul\":3536:3575   */\n      mstore\n        /* \"#utility.yul\":3508:3510   */\n      0x20\n        /* \"#utility.yul\":3505:3506   */\n      dup2\n        /* \"#utility.yul\":3501:3511   */\n      add\n        /* \"#utility.yul\":3496:3511   */\n      swap1\n      pop\n        /* \"#utility.yul\":3472:3585   */\n      jump(tag_88)\n    tag_90:\n        /* \"#utility.yul\":3603:3609   */\n      dup4\n        /* \"#utility.yul\":3600:3601   */\n      dup2\n        /* \"#utility.yul\":3597:3610   */\n      gt\n        /* \"#utility.yul\":3594:3596   */\n      iszero\n      tag_91\n      jumpi\n        /* \"#utility.yul\":3683:3684   */\n      0x00\n        /* \"#utility.yul\":3674:3680   */\n      dup5\n        /* \"#utility.yul\":3669:3672   */\n      dup5\n        /* \"#utility.yul\":3665:3681   */\n      add\n        /* \"#utility.yul\":3658:3685   */\n      mstore\n        /* \"#utility.yul\":3594:3596   */\n    tag_91:\n        /* \"#utility.yul\":3443:3701   */\n      pop\n      pop\n      pop\n      pop\n      jump\t// out\n        /* \"#utility.yul\":3707:4027   */\n    tag_21:\n      0x00\n        /* \"#utility.yul\":3788:3789   */\n      0x02\n        /* \"#utility.yul\":3782:3786   */\n      dup3\n        /* \"#utility.yul\":3778:3790   */\n      div\n        /* \"#utility.yul\":3768:3790   */\n      swap1\n      pop\n        /* \"#utility.yul\":3835:3836   */\n      0x01\n        /* \"#utility.yul\":3829:3833   */\n      dup3\n        /* \"#utility.yul\":3825:3837   */\n      and\n        /* \"#utility.yul\":3856:3874   */\n      dup1\n        /* \"#utility.yul\":3846:3848   */\n      tag_93\n      jumpi\n        /* \"#utility.yul\":3912:3916   */\n      0x7f\n        /* \"#utility.yul\":3904:3910   */\n      dup3\n        /* \"#utility.yul\":3900:3917   */\n      and\n        /* \"#utility.yul\":3890:3917   */\n      swap2\n      pop\n        /* \"#utility.yul\":3846:3848   */\n    tag_93:\n        /* \"#utility.yul\":3974:3976   */\n      0x20\n        /* \"#utility.yul\":3966:3972   */\n      dup3\n        /* \"#utility.yul\":3963:3977   */\n      lt\n        /* \"#utility.yul\":3943:3961   */\n      dup2\n        /* \"#utility.yul\":3940:3978   */\n      eq\n        /* \"#utility.yul\":3937:3939   */\n      iszero\n      tag_94\n      jumpi\n        /* \"#utility.yul\":3993:4011   */\n      tag_95\n      tag_96\n      jump\t// in\n    tag_95:\n        /* \"#utility.yul\":3937:3939   */\n    tag_94:\n        /* \"#utility.yul\":3758:4027   */\n      pop\n      swap2\n      swap1\n      pop\n      jump\t// out\n        /* \"#utility.yul\":4033:4213   */\n    tag_96:\n        /* \"#utility.yul\":4081:4158   */\n      0x4e487b7100000000000000000000000000000000000000000000000000000000\n        /* \"#utility.yul\":4078:4079   */\n      0x00\n        /* \"#utility.yul\":4071:4159   */\n      mstore\n        /* \"#utility.yul\":4178:4182   */\n      0x22\n        /* \"#utility.yul\":4175:4176   */\n      0x04\n        /* \"#utility.yul\":4168:4183   */\n      mstore\n        /* \"#utility.yul\":4202:4206   */\n      0x24\n        /* \"#utility.yul\":4199:4200   */\n      0x00\n        /* \"#utility.yul\":4192:4207   */\n      revert\n        /* \"#utility.yul\":4219:4399   */\n    tag_79:\n        /* \"#utility.yul\":4267:4344   */\n      0x4e487b7100000000000000000000000000000000000000000000000000000000\n        /* \"#utility.yul\":4264:4265   */\n      0x00\n        /* \"#utility.yul\":4257:4345   */\n      mstore\n        /* \"#utility.yul\":4364:4368   */\n      0x41\n        /* \"#utility.yul\":4361:4362   */\n      0x04\n        /* \"#utility.yul\":4354:4369   */\n      mstore\n        /* \"#utility.yul\":4388:4392   */\n      0x24\n        /* \"#utility.yul\":4385:4386   */\n      0x00\n        /* \"#utility.yul\":4378:4393   */\n      revert\n        /* \"#utility.yul\":4405:4507   */\n    tag_68:\n      0x00\n        /* \"#utility.yul\":4497:4499   */\n      0x1f\n        /* \"#utility.yul\":4493:4500   */\n      not\n        /* \"#utility.yul\":4488:4490   */\n      0x1f\n        /* \"#utility.yul\":4481:4486   */\n      dup4\n        /* \"#utility.yul\":4477:4491   */\n      add\n        /* \"#utility.yul\":4473:4501   */\n      and\n        /* \"#utility.yul\":4463:4501   */\n      swap1\n      pop\n        /* \"#utility.yul\":4453:4507   */\n      swap2\n      swap1\n      pop\n      jump\t// out\n        /* \"#utility.yul\":4513:4635   */\n    tag_53:\n        /* \"#utility.yul\":4586:4610   */\n      tag_101\n        /* \"#utility.yul\":4604:4609   */\n      dup2\n        /* \"#utility.yul\":4586:4610   */\n      tag_72\n      jump\t// in\n    tag_101:\n        /* \"#utility.yul\":4579:4584   */\n      dup2\n        /* \"#utility.yul\":4576:4611   */\n      eq\n        /* \"#utility.yul\":4566:4568   */\n      tag_102\n      jumpi\n        /* \"#utility.yul\":4625:4626   */\n      0x00\n        /* \"#utility.yul\":4622:4623   */\n      dup1\n        /* \"#utility.yul\":4615:4627   */\n      revert\n        /* \"#utility.yul\":4566:4568   */\n    tag_102:\n        /* \"#utility.yul\":4556:4635   */\n      pop\n      jump\t// out\n\n    auxdata: 0xa26469706673582212201b56ebeaf593cc1dec64a7aec0a04961d153ec13dc979d4fa237d11d8cc7232f64736f6c63430008000033\n}\n",
				"bytecode": {
					"linkReferences": {},
					"object": "608060405234801561001057600080fd5b50610555806100206000396000f3fe608060405234801561001057600080fd5b50600436106100365760003560e01c8063373dde501461003b578063e69bfc841461006c575b600080fd5b610055600480360381019061005091906102d2565b61009d565b60405161006392919061036e565b60405180910390f35b610086600480360381019061008191906102d2565b6100f4565b60405161009492919061036e565b60405180910390f35b60606000601992506100e56040518060400160405280600681526020017f416179757368000000000000000000000000000000000000000000000000000081525060126100f4565b50508383915091509250929050565b60606000836000908051906020019061010e9291906101b2565b5082600181905550600060015481805461012790610467565b80601f016020809104026020016040519081016040528092919081815260200182805461015390610467565b80156101a05780601f10610175576101008083540402835291602001916101a0565b820191906000526020600020905b81548152906001019060200180831161018357829003601f168201915b50505050509150915091509250929050565b8280546101be90610467565b90600052602060002090601f0160209004810192826101e05760008555610227565b82601f106101f957805160ff1916838001178555610227565b82800160010185558215610227579182015b8281111561022657825182559160200191906001019061020b565b5b5090506102349190610238565b5090565b5b80821115610251576000816000905550600101610239565b5090565b6000610268610263846103cf565b61039e565b90508281526020810184848401111561028057600080fd5b61028b848285610425565b509392505050565b600082601f8301126102a457600080fd5b81356102b4848260208601610255565b91505092915050565b6000813590506102cc81610508565b92915050565b600080604083850312156102e557600080fd5b600083013567ffffffffffffffff8111156102ff57600080fd5b61030b85828601610293565b925050602061031c858286016102bd565b9150509250929050565b6000610331826103ff565b61033b818561040a565b935061034b818560208601610434565b610354816104f7565b840191505092915050565b6103688161041b565b82525050565b600060408201905081810360008301526103888185610326565b9050610397602083018461035f565b9392505050565b6000604051905081810181811067ffffffffffffffff821117156103c5576103c46104c8565b5b8060405250919050565b600067ffffffffffffffff8211156103ea576103e96104c8565b5b601f19601f8301169050602081019050919050565b600081519050919050565b600082825260208201905092915050565b6000819050919050565b82818337600083830152505050565b60005b83811015610452578082015181840152602081019050610437565b83811115610461576000848401525b50505050565b6000600282049050600182168061047f57607f821691505b6020821081141561049357610492610499565b5b50919050565b7f4e487b7100000000000000000000000000000000000000000000000000000000600052602260045260246000fd5b7f4e487b7100000000000000000000000000000000000000000000000000000000600052604160045260246000fd5b6000601f19601f8301169050919050565b6105118161041b565b811461051c57600080fd5b5056fea26469706673582212201b56ebeaf593cc1dec64a7aec0a04961d153ec13dc979d4fa237d11d8cc7232f64736f6c63430008000033",
					"opcodes": "PUSH1 0x80 PUSH1 0x40 MSTORE CALLVALUE DUP1 ISZERO PUSH2 0x10 JUMPI PUSH1 0x0 DUP1 REVERT JUMPDEST POP PUSH2 0x555 DUP1 PUSH2 0x20 PUSH1 0x0 CODECOPY PUSH1 0x0 RETURN INVALID PUSH1 0x80 PUSH1 0x40 MSTORE CALLVALUE DUP1 ISZERO PUSH2 0x10 JUMPI PUSH1 0x0 DUP1 REVERT JUMPDEST POP PUSH1 0x4 CALLDATASIZE LT PUSH2 0x36 JUMPI PUSH1 0x0 CALLDATALOAD PUSH1 0xE0 SHR DUP1 PUSH4 0x373DDE50 EQ PUSH2 0x3B JUMPI DUP1 PUSH4 0xE69BFC84 EQ PUSH2 0x6C JUMPI JUMPDEST PUSH1 0x0 DUP1 REVERT JUMPDEST PUSH2 0x55 PUSH1 0x4 DUP1 CALLDATASIZE SUB DUP2 ADD SWAP1 PUSH2 0x50 SWAP2 SWAP1 PUSH2 0x2D2 JUMP JUMPDEST PUSH2 0x9D JUMP JUMPDEST PUSH1 0x40 MLOAD PUSH2 0x63 SWAP3 SWAP2 SWAP1 PUSH2 0x36E JUMP JUMPDEST PUSH1 0x40 MLOAD DUP1 SWAP2 SUB SWAP1 RETURN JUMPDEST PUSH2 0x86 PUSH1 0x4 DUP1 CALLDATASIZE SUB DUP2 ADD SWAP1 PUSH2 0x81 SWAP2 SWAP1 PUSH2 0x2D2 JUMP JUMPDEST PUSH2 0xF4 JUMP JUMPDEST PUSH1 0x40 MLOAD PUSH2 0x94 SWAP3 SWAP2 SWAP1 PUSH2 0x36E JUMP JUMPDEST PUSH1 0x40 MLOAD DUP1 SWAP2 SUB SWAP1 RETURN JUMPDEST PUSH1 0x60 PUSH1 0x0 PUSH1 0x19 SWAP3 POP PUSH2 0xE5 PUSH1 0x40 MLOAD DUP1 PUSH1 0x40 ADD PUSH1 0x40 MSTORE DUP1 PUSH1 0x6 DUP2 MSTORE PUSH1 0x20 ADD PUSH32 0x4161797573680000000000000000000000000000000000000000000000000000 DUP2 MSTORE POP PUSH1 0x12 PUSH2 0xF4 JUMP JUMPDEST POP POP DUP4 DUP4 SWAP2 POP SWAP2 POP SWAP3 POP SWAP3 SWAP1 POP JUMP JUMPDEST PUSH1 0x60 PUSH1 0x0 DUP4 PUSH1 0x0 SWAP1 DUP1 MLOAD SWAP1 PUSH1 0x20 ADD SWAP1 PUSH2 0x10E SWAP3 SWAP2 SWAP1 PUSH2 0x1B2 JUMP JUMPDEST POP DUP3 PUSH1 0x1 DUP2 SWAP1 SSTORE POP PUSH1 0x0 PUSH1 0x1 SLOAD DUP2 DUP1 SLOAD PUSH2 0x127 SWAP1 PUSH2 0x467 JUMP JUMPDEST DUP1 PUSH1 0x1F ADD PUSH1 0x20 DUP1 SWAP2 DIV MUL PUSH1 0x20 ADD PUSH1 0x40 MLOAD SWAP1 DUP2 ADD PUSH1 0x40 MSTORE DUP1 SWAP3 SWAP2 SWAP1 DUP2 DUP2 MSTORE PUSH1 0x20 ADD DUP3 DUP1 SLOAD PUSH2 0x153 SWAP1 PUSH2 0x467 JUMP JUMPDEST DUP1 ISZERO PUSH2 0x1A0 JUMPI DUP1 PUSH1 0x1F LT PUSH2 0x175 JUMPI PUSH2 0x100 DUP1 DUP4 SLOAD DIV MUL DUP4 MSTORE SWAP2 PUSH1 0x20 ADD SWAP2 PUSH2 0x1A0 JUMP JUMPDEST DUP3 ADD SWAP2 SWAP1 PUSH1 0x0 MSTORE PUSH1 0x20 PUSH1 0x0 KECCAK256 SWAP1 JUMPDEST DUP2 SLOAD DUP2 MSTORE SWAP1 PUSH1 0x1 ADD SWAP1 PUSH1 0x20 ADD DUP1 DUP4 GT PUSH2 0x183 JUMPI DUP3 SWAP1 SUB PUSH1 0x1F AND DUP3 ADD SWAP2 JUMPDEST POP POP POP POP POP SWAP2 POP SWAP2 POP SWAP2 POP SWAP3 POP SWAP3 SWAP1 POP JUMP JUMPDEST DUP3 DUP1 SLOAD PUSH2 0x1BE SWAP1 PUSH2 0x467 JUMP JUMPDEST SWAP1 PUSH1 0x0 MSTORE PUSH1 0x20 PUSH1 0x0 KECCAK256 SWAP1 PUSH1 0x1F ADD PUSH1 0x20 SWAP1 DIV DUP2 ADD SWAP3 DUP3 PUSH2 0x1E0 JUMPI PUSH1 0x0 DUP6 SSTORE PUSH2 0x227 JUMP JUMPDEST DUP3 PUSH1 0x1F LT PUSH2 0x1F9 JUMPI DUP1 MLOAD PUSH1 0xFF NOT AND DUP4 DUP1 ADD OR DUP6 SSTORE PUSH2 0x227 JUMP JUMPDEST DUP3 DUP1 ADD PUSH1 0x1 ADD DUP6 SSTORE DUP3 ISZERO PUSH2 0x227 JUMPI SWAP2 DUP3 ADD JUMPDEST DUP3 DUP2 GT ISZERO PUSH2 0x226 JUMPI DUP3 MLOAD DUP3 SSTORE SWAP2 PUSH1 0x20 ADD SWAP2 SWAP1 PUSH1 0x1 ADD SWAP1 PUSH2 0x20B JUMP JUMPDEST JUMPDEST POP SWAP1 POP PUSH2 0x234 SWAP2 SWAP1 PUSH2 0x238 JUMP JUMPDEST POP SWAP1 JUMP JUMPDEST JUMPDEST DUP1 DUP3 GT ISZERO PUSH2 0x251 JUMPI PUSH1 0x0 DUP2 PUSH1 0x0 SWAP1 SSTORE POP PUSH1 0x1 ADD PUSH2 0x239 JUMP JUMPDEST POP SWAP1 JUMP JUMPDEST PUSH1 0x0 PUSH2 0x268 PUSH2 0x263 DUP5 PUSH2 0x3CF JUMP JUMPDEST PUSH2 0x39E JUMP JUMPDEST SWAP1 POP DUP3 DUP2 MSTORE PUSH1 0x20 DUP2 ADD DUP5 DUP5 DUP5 ADD GT ISZERO PUSH2 0x280 JUMPI PUSH1 0x0 DUP1 REVERT JUMPDEST PUSH2 0x28B DUP5 DUP3 DUP6 PUSH2 0x425 JUMP JUMPDEST POP SWAP4 SWAP3 POP POP POP JUMP JUMPDEST PUSH1 0x0 DUP3 PUSH1 0x1F DUP4 ADD SLT PUSH2 0x2A4 JUMPI PUSH1 0x0 DUP1 REVERT JUMPDEST DUP2 CALLDATALOAD PUSH2 0x2B4 DUP5 DUP3 PUSH1 0x20 DUP7 ADD PUSH2 0x255 JUMP JUMPDEST SWAP2 POP POP SWAP3 SWAP2 POP POP JUMP JUMPDEST PUSH1 0x0 DUP2 CALLDATALOAD SWAP1 POP PUSH2 0x2CC DUP2 PUSH2 0x508 JUMP JUMPDEST SWAP3 SWAP2 POP POP JUMP JUMPDEST PUSH1 0x0 DUP1 PUSH1 0x40 DUP4 DUP6 SUB SLT ISZERO PUSH2 0x2E5 JUMPI PUSH1 0x0 DUP1 REVERT JUMPDEST PUSH1 0x0 DUP4 ADD CALLDATALOAD PUSH8 0xFFFFFFFFFFFFFFFF DUP2 GT ISZERO PUSH2 0x2FF JUMPI PUSH1 0x0 DUP1 REVERT JUMPDEST PUSH2 0x30B DUP6 DUP3 DUP7 ADD PUSH2 0x293 JUMP JUMPDEST SWAP3 POP POP PUSH1 0x20 PUSH2 0x31C DUP6 DUP3 DUP7 ADD PUSH2 0x2BD JUMP JUMPDEST SWAP2 POP POP SWAP3 POP SWAP3 SWAP1 POP JUMP JUMPDEST PUSH1 0x0 PUSH2 0x331 DUP3 PUSH2 0x3FF JUMP JUMPDEST PUSH2 0x33B DUP2 DUP6 PUSH2 0x40A JUMP JUMPDEST SWAP4 POP PUSH2 0x34B DUP2 DUP6 PUSH1 0x20 DUP7 ADD PUSH2 0x434 JUMP JUMPDEST PUSH2 0x354 DUP2 PUSH2 0x4F7 JUMP JUMPDEST DUP5 ADD SWAP2 POP POP SWAP3 SWAP2 POP POP JUMP JUMPDEST PUSH2 0x368 DUP2 PUSH2 0x41B JUMP JUMPDEST DUP3 MSTORE POP POP JUMP JUMPDEST PUSH1 0x0 PUSH1 0x40 DUP3 ADD SWAP1 POP DUP2 DUP2 SUB PUSH1 0x0 DUP4 ADD MSTORE PUSH2 0x388 DUP2 DUP6 PUSH2 0x326 JUMP JUMPDEST SWAP1 POP PUSH2 0x397 PUSH1 0x20 DUP4 ADD DUP5 PUSH2 0x35F JUMP JUMPDEST SWAP4 SWAP3 POP POP POP JUMP JUMPDEST PUSH1 0x0 PUSH1 0x40 MLOAD SWAP1 POP DUP2 DUP2 ADD DUP2 DUP2 LT PUSH8 0xFFFFFFFFFFFFFFFF DUP3 GT OR ISZERO PUSH2 0x3C5 JUMPI PUSH2 0x3C4 PUSH2 0x4C8 JUMP JUMPDEST JUMPDEST DUP1 PUSH1 0x40 MSTORE POP SWAP2 SWAP1 POP JUMP JUMPDEST PUSH1 0x0 PUSH8 0xFFFFFFFFFFFFFFFF DUP3 GT ISZERO PUSH2 0x3EA JUMPI PUSH2 0x3E9 PUSH2 0x4C8 JUMP JUMPDEST JUMPDEST PUSH1 0x1F NOT PUSH1 0x1F DUP4 ADD AND SWAP1 POP PUSH1 0x20 DUP2 ADD SWAP1 POP SWAP2 SWAP1 POP JUMP JUMPDEST PUSH1 0x0 DUP2 MLOAD SWAP1 POP SWAP2 SWAP1 POP JUMP JUMPDEST PUSH1 0x0 DUP3 DUP3 MSTORE PUSH1 0x20 DUP3 ADD SWAP1 POP SWAP3 SWAP2 POP POP JUMP JUMPDEST PUSH1 0x0 DUP2 SWAP1 POP SWAP2 SWAP1 POP JUMP JUMPDEST DUP3 DUP2 DUP4 CALLDATACOPY PUSH1 0x0 DUP4 DUP4 ADD MSTORE POP POP POP JUMP JUMPDEST PUSH1 0x0 JUMPDEST DUP4 DUP2 LT ISZERO PUSH2 0x452 JUMPI DUP1 DUP3 ADD MLOAD DUP2 DUP5 ADD MSTORE PUSH1 0x20 DUP2 ADD SWAP1 POP PUSH2 0x437 JUMP JUMPDEST DUP4 DUP2 GT ISZERO PUSH2 0x461 JUMPI PUSH1 0x0 DUP5 DUP5 ADD MSTORE JUMPDEST POP POP POP POP JUMP JUMPDEST PUSH1 0x0 PUSH1 0x2 DUP3 DIV SWAP1 POP PUSH1 0x1 DUP3 AND DUP1 PUSH2 0x47F JUMPI PUSH1 0x7F DUP3 AND SWAP2 POP JUMPDEST PUSH1 0x20 DUP3 LT DUP2 EQ ISZERO PUSH2 0x493 JUMPI PUSH2 0x492 PUSH2 0x499 JUMP JUMPDEST JUMPDEST POP SWAP2 SWAP1 POP JUMP JUMPDEST PUSH32 0x4E487B7100000000000000000000000000000000000000000000000000000000 PUSH1 0x0 MSTORE PUSH1 0x22 PUSH1 0x4 MSTORE PUSH1 0x24 PUSH1 0x0 REVERT JUMPDEST PUSH32 0x4E487B7100000000000000000000000000000000000000000000000000000000 PUSH1 0x0 MSTORE PUSH1 0x41 PUSH1 0x4 MSTORE PUSH1 0x24 PUSH1 0x0 REVERT JUMPDEST PUSH1 0x0 PUSH1 0x1F NOT PUSH1 0x1F DUP4 ADD AND SWAP1 POP SWAP2 SWAP1 POP JUMP JUMPDEST PUSH2 0x511 DUP2 PUSH2 0x41B JUMP JUMPDEST DUP2 EQ PUSH2 0x51C JUMPI PUSH1 0x0 DUP1 REVERT JUMPDEST POP JUMP INVALID LOG2 PUSH5 0x6970667358 0x22 SLT KECCAK256 SHL JUMP 0xEB 0xEA CREATE2 SWAP4 0xCC SAR 0xEC PUSH5 0xA7AEC0A049 PUSH2 0xD153 0xEC SGT 0xDC SWAP8 SWAP14 0x4F LOG2 CALLDATACOPY 0xD1 SAR DUP13 0xC7 0x23 0x2F PUSH5 0x736F6C6343 STOP ADDMOD STOP STOP CALLER "
				},
				"gasEstimates": {
					"creation": {
						"codeDepositCost": "273000",
						"executionCost": "312",
						"totalCost": "273312"
					},
					"external": {
						"_DetailsMarks(string,uint256)": "infinite",
						"details(string,uint256)": "infinite"
					}
				},
				"methodIdentifiers": {
					"_DetailsMarks(string,uint256)": "373dde50",
					"details(string,uint256)": "e69bfc84"
				}
			},
			"storageLayout": {
				"storage": [
					{
						"astId": 3,
						"contract": "inheritance.sol:DetailsMarks",
						"label": "name",
						"offset": 0,
						"slot": "0",
						"type": "t_string_storage"
					},
					{
						"astId": 5,
						"contract": "inheritance.sol:DetailsMarks",
						"label": "age",
						"offset": 0,
						"slot": "1",
						"type": "t_uint256"
					},
					{
						"astId": 66,
						"contract": "inheritance.sol:DetailsMarks",
						"label": "Marks",
						"offset": 0,
						"slot": "2",
						"type": "t_uint256"
					}
				],
				"types": {
					"t_string_storage": {
						"encoding": "bytes",
						"label": "string",
						"numberOfBytes": "32"
					},
					"t_uint256": {
						"encoding": "inplace",
						"label": "uint256",
						"numberOfBytes": "32"
					}
				}
			},
			"userdoc": {
				"kind": "user",
				"methods": {},
				"version": 1
			}
		}
	}
}