{
	"CourseEnrollment.sol": {
		"CourseEnrollment": {
			"abi": [
				{
					"inputs": [],
					"stateMutability": "nonpayable",
					"type": "constructor"
				},
				{
					"inputs": [],
					"name": "AI",
					"outputs": [],
					"stateMutability": "nonpayable",
					"type": "function"
				},
				{
					"inputs": [],
					"name": "Blockchain",
					"outputs": [],
					"stateMutability": "nonpayable",
					"type": "function"
				},
				{
					"inputs": [],
					"name": "Datascience",
					"outputs": [],
					"stateMutability": "nonpayable",
					"type": "function"
				},
				{
					"inputs": [],
					"name": "Web_Development",
					"outputs": [],
					"stateMutability": "nonpayable",
					"type": "function"
				},
				{
					"inputs": [],
					"name": "getMyDetails",
					"outputs": [
						{
							"internalType": "string",
							"name": "",
							"type": "string"
						},
						{
							"internalType": "uint256",
							"name": "",
							"type": "uint256"
						},
						{
							"internalType": "string",
							"name": "",
							"type": "string"
						},
						{
							"internalType": "string",
							"name": "",
							"type": "string"
						}
					],
					"stateMutability": "view",
					"type": "function"
				},
				{
					"inputs": [],
					"name": "get_all_students",
					"outputs": [
						{
							"internalType": "address[]",
							"name": "",
							"type": "address[]"
						}
					],
					"stateMutability": "view",
					"type": "function"
				},
				{
					"inputs": [],
					"name": "owner",
					"outputs": [
						{
							"internalType": "address",
							"name": "",
							"type": "address"
						}
					],
					"stateMutability": "view",
					"type": "function"
				},
				{
					"inputs": [
						{
							"internalType": "string",
							"name": "name",
							"type": "string"
						},
						{
							"internalType": "uint256",
							"name": "age",
							"type": "uint256"
						},
						{
							"internalType": "string",
							"name": "university",
							"type": "string"
						}
					],
					"name": "set_details",
					"outputs": [],
					"stateMutability": "nonpayable",
					"type": "function"
				},
				{
					"inputs": [
						{
							"internalType": "address",
							"name": "",
							"type": "address"
						}
					],
					"name": "student_address",
					"outputs": [
						{
							"internalType": "string",
							"name": "name",
							"type": "string"
						},
						{
							"internalType": "uint256",
							"name": "age",
							"type": "uint256"
						},
						{
							"internalType": "string",
							"name": "university",
							"type": "string"
						},
						{
							"internalType": "string",
							"name": "course",
							"type": "string"
						},
						{
							"internalType": "bool",
							"name": "isRegistered",
							"type": "bool"
						}
					],
					"stateMutability": "view",
					"type": "function"
				},
				{
					"inputs": [],
					"name": "totalStudents",
					"outputs": [
						{
							"internalType": "uint256",
							"name": "",
							"type": "uint256"
						}
					],
					"stateMutability": "view",
					"type": "function"
				}
			],
			"devdoc": {
				"kind": "dev",
				"methods": {},
				"version": 1
			},
			"evm": {
				"assembly": "    /* \"CourseEnrollment.sol\":60:2290  contract CourseEnrollment {... */\n  mstore(0x40, 0x80)\n    /* \"CourseEnrollment.sol\":516:567  constructor() {... */\n  callvalue\n  dup1\n  iszero\n  tag_1\n  jumpi\n  revert(0x00, 0x00)\ntag_1:\n  pop\n    /* \"CourseEnrollment.sol\":549:559  msg.sender */\n  caller\n    /* \"CourseEnrollment.sol\":541:546  owner */\n  0x00\n  0x00\n    /* \"CourseEnrollment.sol\":541:559  owner = msg.sender */\n  0x0100\n  exp\n  dup2\n  sload\n  dup2\n  0xffffffffffffffffffffffffffffffffffffffff\n  mul\n  not\n  and\n  swap1\n  dup4\n  0xffffffffffffffffffffffffffffffffffffffff\n  and\n  mul\n  or\n  swap1\n  sstore\n  pop\n    /* \"CourseEnrollment.sol\":60:2290  contract CourseEnrollment {... */\n  dataSize(sub_0)\n  dup1\n  dataOffset(sub_0)\n  0x00\n  codecopy\n  0x00\n  return\nstop\n\nsub_0: assembly {\n        /* \"CourseEnrollment.sol\":60:2290  contract CourseEnrollment {... */\n      mstore(0x40, 0x80)\n      callvalue\n      dup1\n      iszero\n      tag_1\n      jumpi\n      revert(0x00, 0x00)\n    tag_1:\n      pop\n      jumpi(tag_2, lt(calldatasize, 0x04))\n      shr(0xe0, calldataload(0x00))\n      dup1\n      0x9852bf8e\n      gt\n      tag_13\n      jumpi\n      dup1\n      0x9852bf8e\n      eq\n      tag_8\n      jumpi\n      dup1\n      0x9c984a3b\n      eq\n      tag_9\n      jumpi\n      dup1\n      0x9cc0b7f8\n      eq\n      tag_10\n      jumpi\n      dup1\n      0xe8a24e0d\n      eq\n      tag_11\n      jumpi\n      dup1\n      0xeac59796\n      eq\n      tag_12\n      jumpi\n      jump(tag_2)\n    tag_13:\n      dup1\n      0x12b3f8f2\n      eq\n      tag_3\n      jumpi\n      dup1\n      0x2f35a71e\n      eq\n      tag_4\n      jumpi\n      dup1\n      0x3ab9a9ec\n      eq\n      tag_5\n      jumpi\n      dup1\n      0x431bbb7e\n      eq\n      tag_6\n      jumpi\n      dup1\n      0x8da5cb5b\n      eq\n      tag_7\n      jumpi\n    tag_2:\n      revert(0x00, 0x00)\n        /* \"CourseEnrollment.sol\":935:1367  function set_details(... */\n    tag_3:\n      tag_14\n      0x04\n      dup1\n      calldatasize\n      sub\n      dup2\n      add\n      swap1\n      tag_15\n      swap2\n      swap1\n      tag_16\n      jump\t// in\n    tag_15:\n      tag_17\n      jump\t// in\n    tag_14:\n      stop\n        /* \"CourseEnrollment.sol\":1653:1767  function Blockchain() public isRegisteredUser {... */\n    tag_4:\n      tag_18\n      tag_19\n      jump\t// in\n    tag_18:\n      stop\n        /* \"CourseEnrollment.sol\":1928:2029  function get_all_students() public view returns (address[] memory) {... */\n    tag_5:\n      tag_20\n      tag_21\n      jump\t// in\n    tag_20:\n      mload(0x40)\n      tag_22\n      swap2\n      swap1\n      tag_23\n      jump\t// in\n    tag_22:\n      mload(0x40)\n      dup1\n      swap2\n      sub\n      swap1\n      return\n        /* \"CourseEnrollment.sol\":2037:2287  function getMyDetails()... */\n    tag_6:\n      tag_24\n      tag_25\n      jump\t// in\n    tag_24:\n      mload(0x40)\n      tag_26\n      swap5\n      swap4\n      swap3\n      swap2\n      swap1\n      tag_27\n      jump\t// in\n    tag_26:\n      mload(0x40)\n      dup1\n      swap2\n      sub\n      swap1\n      return\n        /* \"CourseEnrollment.sol\":124:144  address public owner */\n    tag_7:\n      tag_28\n      tag_29\n      jump\t// in\n    tag_28:\n      mload(0x40)\n      tag_30\n      swap2\n      swap1\n      tag_31\n      jump\t// in\n    tag_30:\n      mload(0x40)\n      dup1\n      swap2\n      sub\n      swap1\n      return\n        /* \"CourseEnrollment.sol\":151:176  uint public totalStudents */\n    tag_8:\n      tag_32\n      tag_33\n      jump\t// in\n    tag_32:\n      mload(0x40)\n      tag_34\n      swap2\n      swap1\n      tag_35\n      jump\t// in\n    tag_34:\n      mload(0x40)\n      dup1\n      swap2\n      sub\n      swap1\n      return\n        /* \"CourseEnrollment.sol\":378:428  mapping(address => Student) public student_address */\n    tag_9:\n      tag_36\n      0x04\n      dup1\n      calldatasize\n      sub\n      dup2\n      add\n      swap1\n      tag_37\n      swap2\n      swap1\n      tag_38\n      jump\t// in\n    tag_37:\n      tag_39\n      jump\t// in\n    tag_36:\n      mload(0x40)\n      tag_40\n      swap6\n      swap5\n      swap4\n      swap3\n      swap2\n      swap1\n      tag_41\n      jump\t// in\n    tag_40:\n      mload(0x40)\n      dup1\n      swap2\n      sub\n      swap1\n      return\n        /* \"CourseEnrollment.sol\":1415:1513  function AI() public isRegisteredUser {... */\n    tag_10:\n      tag_42\n      tag_43\n      jump\t// in\n    tag_42:\n      stop\n        /* \"CourseEnrollment.sol\":1775:1892  function Datascience() public isRegisteredUser {... */\n    tag_11:\n      tag_44\n      tag_45\n      jump\t// in\n    tag_44:\n      stop\n        /* \"CourseEnrollment.sol\":1521:1645  function Web_Development() public isRegisteredUser {... */\n    tag_12:\n      tag_46\n      tag_47\n      jump\t// in\n    tag_46:\n      stop\n        /* \"CourseEnrollment.sol\":935:1367  function set_details(... */\n    tag_17:\n        /* \"CourseEnrollment.sol\":1073:1088  student_address */\n      0x02\n        /* \"CourseEnrollment.sol\":1073:1100  student_address[msg.sender] */\n      0x00\n        /* \"CourseEnrollment.sol\":1089:1099  msg.sender */\n      caller\n        /* \"CourseEnrollment.sol\":1073:1100  student_address[msg.sender] */\n      0xffffffffffffffffffffffffffffffffffffffff\n      and\n      0xffffffffffffffffffffffffffffffffffffffff\n      and\n      dup2\n      mstore\n      0x20\n      add\n      swap1\n      dup2\n      mstore\n      0x20\n      add\n      0x00\n      keccak256\n        /* \"CourseEnrollment.sol\":1073:1113  student_address[msg.sender].isRegistered */\n      0x04\n      add\n      0x00\n      swap1\n      sload\n      swap1\n      0x0100\n      exp\n      swap1\n      div\n      0xff\n      and\n        /* \"CourseEnrollment.sol\":1072:1113  !student_address[msg.sender].isRegistered */\n      iszero\n        /* \"CourseEnrollment.sol\":1064:1136  require(!student_address[msg.sender].isRegistered, \"Already registered\") */\n      tag_49\n      jumpi\n      mload(0x40)\n      0x08c379a000000000000000000000000000000000000000000000000000000000\n      dup2\n      mstore\n      0x04\n      add\n      tag_50\n      swap1\n      tag_51\n      jump\t// in\n    tag_50:\n      mload(0x40)\n      dup1\n      swap2\n      sub\n      swap1\n      revert\n    tag_49:\n        /* \"CourseEnrollment.sol\":1179:1295  Student(... */\n      mload(0x40)\n      dup1\n      0xa0\n      add\n      0x40\n      mstore\n      dup1\n        /* \"CourseEnrollment.sol\":1201:1205  name */\n      dup5\n        /* \"CourseEnrollment.sol\":1179:1295  Student(... */\n      dup2\n      mstore\n      0x20\n      add\n        /* \"CourseEnrollment.sol\":1220:1223  age */\n      dup4\n        /* \"CourseEnrollment.sol\":1179:1295  Student(... */\n      dup2\n      mstore\n      0x20\n      add\n        /* \"CourseEnrollment.sol\":1238:1248  university */\n      dup3\n        /* \"CourseEnrollment.sol\":1179:1295  Student(... */\n      dup2\n      mstore\n      0x20\n      add\n      mload(0x40)\n      dup1\n      0x20\n      add\n      0x40\n      mstore\n      dup1\n      0x00\n      dup2\n      mstore\n      pop\n      dup2\n      mstore\n      0x20\n      add\n        /* \"CourseEnrollment.sol\":1280:1284  true */\n      0x01\n        /* \"CourseEnrollment.sol\":1179:1295  Student(... */\n      iszero\n      iszero\n      dup2\n      mstore\n      pop\n        /* \"CourseEnrollment.sol\":1149:1164  student_address */\n      0x02\n        /* \"CourseEnrollment.sol\":1149:1176  student_address[msg.sender] */\n      0x00\n        /* \"CourseEnrollment.sol\":1165:1175  msg.sender */\n      caller\n        /* \"CourseEnrollment.sol\":1149:1176  student_address[msg.sender] */\n      0xffffffffffffffffffffffffffffffffffffffff\n      and\n      0xffffffffffffffffffffffffffffffffffffffff\n      and\n      dup2\n      mstore\n      0x20\n      add\n      swap1\n      dup2\n      mstore\n      0x20\n      add\n      0x00\n      keccak256\n        /* \"CourseEnrollment.sol\":1149:1295  student_address[msg.sender] = Student(... */\n      0x00\n      dup3\n      add\n      mload\n      dup2\n      0x00\n      add\n      swap1\n      dup2\n      tag_52\n      swap2\n      swap1\n      tag_53\n      jump\t// in\n    tag_52:\n      pop\n      0x20\n      dup3\n      add\n      mload\n      dup2\n      0x01\n      add\n      sstore\n      0x40\n      dup3\n      add\n      mload\n      dup2\n      0x02\n      add\n      swap1\n      dup2\n      tag_54\n      swap2\n      swap1\n      tag_53\n      jump\t// in\n    tag_54:\n      pop\n      0x60\n      dup3\n      add\n      mload\n      dup2\n      0x03\n      add\n      swap1\n      dup2\n      tag_55\n      swap2\n      swap1\n      tag_53\n      jump\t// in\n    tag_55:\n      pop\n      0x80\n      dup3\n      add\n      mload\n      dup2\n      0x04\n      add\n      exp(0x0100, 0x00)\n      dup2\n      sload\n      dup2\n      0xff\n      mul\n      not\n      and\n      swap1\n      dup4\n      iszero\n      iszero\n      mul\n      or\n      swap1\n      sstore\n      pop\n      swap1\n      pop\n      pop\n        /* \"CourseEnrollment.sol\":1308:1316  students */\n      0x03\n        /* \"CourseEnrollment.sol\":1322:1332  msg.sender */\n      caller\n        /* \"CourseEnrollment.sol\":1308:1333  students.push(msg.sender) */\n      swap1\n      dup1\n      0x01\n      dup2\n      sload\n      add\n      dup1\n      dup3\n      sstore\n      dup1\n      swap2\n      pop\n      pop\n      0x01\n      swap1\n      sub\n      swap1\n      0x00\n      mstore\n      keccak256(0x00, 0x20)\n      add\n      0x00\n      swap1\n      swap2\n      swap1\n      swap2\n      swap1\n      swap2\n      0x0100\n      exp\n      dup2\n      sload\n      dup2\n      0xffffffffffffffffffffffffffffffffffffffff\n      mul\n      not\n      and\n      swap1\n      dup4\n      0xffffffffffffffffffffffffffffffffffffffff\n      and\n      mul\n      or\n      swap1\n      sstore\n      pop\n        /* \"CourseEnrollment.sol\":1344:1357  totalStudents */\n      0x01\n      0x00\n        /* \"CourseEnrollment.sol\":1344:1359  totalStudents++ */\n      dup2\n      sload\n      dup1\n      swap3\n      swap2\n      swap1\n      tag_57\n      swap1\n      tag_58\n      jump\t// in\n    tag_57:\n      swap2\n      swap1\n      pop\n      sstore\n      pop\n        /* \"CourseEnrollment.sol\":935:1367  function set_details(... */\n      pop\n      pop\n      pop\n      jump\t// out\n        /* \"CourseEnrollment.sol\":1653:1767  function Blockchain() public isRegisteredUser {... */\n    tag_19:\n        /* \"CourseEnrollment.sol\":808:823  student_address */\n      0x02\n        /* \"CourseEnrollment.sol\":808:835  student_address[msg.sender] */\n      0x00\n        /* \"CourseEnrollment.sol\":824:834  msg.sender */\n      caller\n        /* \"CourseEnrollment.sol\":808:835  student_address[msg.sender] */\n      0xffffffffffffffffffffffffffffffffffffffff\n      and\n      0xffffffffffffffffffffffffffffffffffffffff\n      and\n      dup2\n      mstore\n      0x20\n      add\n      swap1\n      dup2\n      mstore\n      0x20\n      add\n      0x00\n      keccak256\n        /* \"CourseEnrollment.sol\":808:848  student_address[msg.sender].isRegistered */\n      0x04\n      add\n      0x00\n      swap1\n      sload\n      swap1\n      0x0100\n      exp\n      swap1\n      div\n      0xff\n      and\n        /* \"CourseEnrollment.sol\":800:867  require(student_address[msg.sender].isRegistered, \"Not registered\") */\n      tag_60\n      jumpi\n      mload(0x40)\n      0x08c379a000000000000000000000000000000000000000000000000000000000\n      dup2\n      mstore\n      0x04\n      add\n      tag_61\n      swap1\n      tag_62\n      jump\t// in\n    tag_61:\n      mload(0x40)\n      dup1\n      swap2\n      sub\n      swap1\n      revert\n    tag_60:\n        /* \"CourseEnrollment.sol\":1710:1759  student_address[msg.sender].course = \"Blockchain\" */\n      mload(0x40)\n      dup1\n      0x40\n      add\n      0x40\n      mstore\n      dup1\n      0x0a\n      dup2\n      mstore\n      0x20\n      add\n      0x426c6f636b636861696e00000000000000000000000000000000000000000000\n      dup2\n      mstore\n      pop\n        /* \"CourseEnrollment.sol\":1710:1725  student_address */\n      0x02\n        /* \"CourseEnrollment.sol\":1710:1737  student_address[msg.sender] */\n      0x00\n        /* \"CourseEnrollment.sol\":1726:1736  msg.sender */\n      caller\n        /* \"CourseEnrollment.sol\":1710:1737  student_address[msg.sender] */\n      0xffffffffffffffffffffffffffffffffffffffff\n      and\n      0xffffffffffffffffffffffffffffffffffffffff\n      and\n      dup2\n      mstore\n      0x20\n      add\n      swap1\n      dup2\n      mstore\n      0x20\n      add\n      0x00\n      keccak256\n        /* \"CourseEnrollment.sol\":1710:1744  student_address[msg.sender].course */\n      0x03\n      add\n        /* \"CourseEnrollment.sol\":1710:1759  student_address[msg.sender].course = \"Blockchain\" */\n      swap1\n      dup2\n      tag_64\n      swap2\n      swap1\n      tag_53\n      jump\t// in\n    tag_64:\n      pop\n        /* \"CourseEnrollment.sol\":1653:1767  function Blockchain() public isRegisteredUser {... */\n      jump\t// out\n        /* \"CourseEnrollment.sol\":1928:2029  function get_all_students() public view returns (address[] memory) {... */\n    tag_21:\n        /* \"CourseEnrollment.sol\":1977:1993  address[] memory */\n      0x60\n        /* \"CourseEnrollment.sol\":2013:2021  students */\n      0x03\n        /* \"CourseEnrollment.sol\":2006:2021  return students */\n      dup1\n      sload\n      dup1\n      0x20\n      mul\n      0x20\n      add\n      mload(0x40)\n      swap1\n      dup2\n      add\n      0x40\n      mstore\n      dup1\n      swap3\n      swap2\n      swap1\n      dup2\n      dup2\n      mstore\n      0x20\n      add\n      dup3\n      dup1\n      sload\n      dup1\n      iszero\n      tag_66\n      jumpi\n      0x20\n      mul\n      dup3\n      add\n      swap2\n      swap1\n      0x00\n      mstore\n      keccak256(0x00, 0x20)\n      swap1\n    tag_67:\n      dup2\n      0x00\n      swap1\n      sload\n      swap1\n      0x0100\n      exp\n      swap1\n      div\n      0xffffffffffffffffffffffffffffffffffffffff\n      and\n      0xffffffffffffffffffffffffffffffffffffffff\n      and\n      dup2\n      mstore\n      0x20\n      add\n      swap1\n      0x01\n      add\n      swap1\n      dup1\n      dup4\n      gt\n      tag_67\n      jumpi\n    tag_66:\n      pop\n      pop\n      pop\n      pop\n      pop\n      swap1\n      pop\n        /* \"CourseEnrollment.sol\":1928:2029  function get_all_students() public view returns (address[] memory) {... */\n      swap1\n      jump\t// out\n        /* \"CourseEnrollment.sol\":2037:2287  function getMyDetails()... */\n    tag_25:\n        /* \"CourseEnrollment.sol\":2109:2122  string memory */\n      0x60\n        /* \"CourseEnrollment.sol\":2124:2128  uint */\n      0x00\n        /* \"CourseEnrollment.sol\":2130:2143  string memory */\n      0x60\n        /* \"CourseEnrollment.sol\":2145:2158  string memory */\n      dup1\n        /* \"CourseEnrollment.sol\":2176:2192  Student memory s */\n      0x00\n        /* \"CourseEnrollment.sol\":2195:2210  student_address */\n      0x02\n        /* \"CourseEnrollment.sol\":2195:2222  student_address[msg.sender] */\n      0x00\n        /* \"CourseEnrollment.sol\":2211:2221  msg.sender */\n      caller\n        /* \"CourseEnrollment.sol\":2195:2222  student_address[msg.sender] */\n      0xffffffffffffffffffffffffffffffffffffffff\n      and\n      0xffffffffffffffffffffffffffffffffffffffff\n      and\n      dup2\n      mstore\n      0x20\n      add\n      swap1\n      dup2\n      mstore\n      0x20\n      add\n      0x00\n      keccak256\n        /* \"CourseEnrollment.sol\":2176:2222  Student memory s = student_address[msg.sender] */\n      mload(0x40)\n      dup1\n      0xa0\n      add\n      0x40\n      mstore\n      swap1\n      dup2\n      0x00\n      dup3\n      add\n      dup1\n      sload\n      tag_69\n      swap1\n      tag_70\n      jump\t// in\n    tag_69:\n      dup1\n      0x1f\n      add\n      0x20\n      dup1\n      swap2\n      div\n      mul\n      0x20\n      add\n      mload(0x40)\n      swap1\n      dup2\n      add\n      0x40\n      mstore\n      dup1\n      swap3\n      swap2\n      swap1\n      dup2\n      dup2\n      mstore\n      0x20\n      add\n      dup3\n      dup1\n      sload\n      tag_71\n      swap1\n      tag_70\n      jump\t// in\n    tag_71:\n      dup1\n      iszero\n      tag_72\n      jumpi\n      dup1\n      0x1f\n      lt\n      tag_73\n      jumpi\n      0x0100\n      dup1\n      dup4\n      sload\n      div\n      mul\n      dup4\n      mstore\n      swap2\n      0x20\n      add\n      swap2\n      jump(tag_72)\n    tag_73:\n      dup3\n      add\n      swap2\n      swap1\n      0x00\n      mstore\n      keccak256(0x00, 0x20)\n      swap1\n    tag_74:\n      dup2\n      sload\n      dup2\n      mstore\n      swap1\n      0x01\n      add\n      swap1\n      0x20\n      add\n      dup1\n      dup4\n      gt\n      tag_74\n      jumpi\n      dup3\n      swap1\n      sub\n      0x1f\n      and\n      dup3\n      add\n      swap2\n    tag_72:\n      pop\n      pop\n      pop\n      pop\n      pop\n      dup2\n      mstore\n      0x20\n      add\n      0x01\n      dup3\n      add\n      sload\n      dup2\n      mstore\n      0x20\n      add\n      0x02\n      dup3\n      add\n      dup1\n      sload\n      tag_75\n      swap1\n      tag_70\n      jump\t// in\n    tag_75:\n      dup1\n      0x1f\n      add\n      0x20\n      dup1\n      swap2\n      div\n      mul\n      0x20\n      add\n      mload(0x40)\n      swap1\n      dup2\n      add\n      0x40\n      mstore\n      dup1\n      swap3\n      swap2\n      swap1\n      dup2\n      dup2\n      mstore\n      0x20\n      add\n      dup3\n      dup1\n      sload\n      tag_76\n      swap1\n      tag_70\n      jump\t// in\n    tag_76:\n      dup1\n      iszero\n      tag_77\n      jumpi\n      dup1\n      0x1f\n      lt\n      tag_78\n      jumpi\n      0x0100\n      dup1\n      dup4\n      sload\n      div\n      mul\n      dup4\n      mstore\n      swap2\n      0x20\n      add\n      swap2\n      jump(tag_77)\n    tag_78:\n      dup3\n      add\n      swap2\n      swap1\n      0x00\n      mstore\n      keccak256(0x00, 0x20)\n      swap1\n    tag_79:\n      dup2\n      sload\n      dup2\n      mstore\n      swap1\n      0x01\n      add\n      swap1\n      0x20\n      add\n      dup1\n      dup4\n      gt\n      tag_79\n      jumpi\n      dup3\n      swap1\n      sub\n      0x1f\n      and\n      dup3\n      add\n      swap2\n    tag_77:\n      pop\n      pop\n      pop\n      pop\n      pop\n      dup2\n      mstore\n      0x20\n      add\n      0x03\n      dup3\n      add\n      dup1\n      sload\n      tag_80\n      swap1\n      tag_70\n      jump\t// in\n    tag_80:\n      dup1\n      0x1f\n      add\n      0x20\n      dup1\n      swap2\n      div\n      mul\n      0x20\n      add\n      mload(0x40)\n      swap1\n      dup2\n      add\n      0x40\n      mstore\n      dup1\n      swap3\n      swap2\n      swap1\n      dup2\n      dup2\n      mstore\n      0x20\n      add\n      dup3\n      dup1\n      sload\n      tag_81\n      swap1\n      tag_70\n      jump\t// in\n    tag_81:\n      dup1\n      iszero\n      tag_82\n      jumpi\n      dup1\n      0x1f\n      lt\n      tag_83\n      jumpi\n      0x0100\n      dup1\n      dup4\n      sload\n      div\n      mul\n      dup4\n      mstore\n      swap2\n      0x20\n      add\n      swap2\n      jump(tag_82)\n    tag_83:\n      dup3\n      add\n      swap2\n      swap1\n      0x00\n      mstore\n      keccak256(0x00, 0x20)\n      swap1\n    tag_84:\n      dup2\n      sload\n      dup2\n      mstore\n      swap1\n      0x01\n      add\n      swap1\n      0x20\n      add\n      dup1\n      dup4\n      gt\n      tag_84\n      jumpi\n      dup3\n      swap1\n      sub\n      0x1f\n      and\n      dup3\n      add\n      swap2\n    tag_82:\n      pop\n      pop\n      pop\n      pop\n      pop\n      dup2\n      mstore\n      0x20\n      add\n      0x04\n      dup3\n      add\n      0x00\n      swap1\n      sload\n      swap1\n      0x0100\n      exp\n      swap1\n      div\n      0xff\n      and\n      iszero\n      iszero\n      iszero\n      iszero\n      dup2\n      mstore\n      pop\n      pop\n      swap1\n      pop\n        /* \"CourseEnrollment.sol\":2241:2242  s */\n      dup1\n        /* \"CourseEnrollment.sol\":2241:2247  s.name */\n      0x00\n      add\n      mload\n        /* \"CourseEnrollment.sol\":2249:2250  s */\n      dup2\n        /* \"CourseEnrollment.sol\":2249:2254  s.age */\n      0x20\n      add\n      mload\n        /* \"CourseEnrollment.sol\":2256:2257  s */\n      dup3\n        /* \"CourseEnrollment.sol\":2256:2268  s.university */\n      0x40\n      add\n      mload\n        /* \"CourseEnrollment.sol\":2270:2271  s */\n      dup4\n        /* \"CourseEnrollment.sol\":2270:2278  s.course */\n      0x60\n      add\n      mload\n        /* \"CourseEnrollment.sol\":2233:2279  return (s.name, s.age, s.university, s.course) */\n      swap5\n      pop\n      swap5\n      pop\n      swap5\n      pop\n      swap5\n      pop\n      pop\n        /* \"CourseEnrollment.sol\":2037:2287  function getMyDetails()... */\n      swap1\n      swap2\n      swap3\n      swap4\n      jump\t// out\n        /* \"CourseEnrollment.sol\":124:144  address public owner */\n    tag_29:\n      0x00\n      0x00\n      swap1\n      sload\n      swap1\n      0x0100\n      exp\n      swap1\n      div\n      0xffffffffffffffffffffffffffffffffffffffff\n      and\n      dup2\n      jump\t// out\n        /* \"CourseEnrollment.sol\":151:176  uint public totalStudents */\n    tag_33:\n      sload(0x01)\n      dup2\n      jump\t// out\n        /* \"CourseEnrollment.sol\":378:428  mapping(address => Student) public student_address */\n    tag_39:\n      mstore(0x20, 0x02)\n      dup1\n      0x00\n      mstore\n      keccak256(0x00, 0x40)\n      0x00\n      swap2\n      pop\n      swap1\n      pop\n      dup1\n      0x00\n      add\n      dup1\n      sload\n      tag_85\n      swap1\n      tag_70\n      jump\t// in\n    tag_85:\n      dup1\n      0x1f\n      add\n      0x20\n      dup1\n      swap2\n      div\n      mul\n      0x20\n      add\n      mload(0x40)\n      swap1\n      dup2\n      add\n      0x40\n      mstore\n      dup1\n      swap3\n      swap2\n      swap1\n      dup2\n      dup2\n      mstore\n      0x20\n      add\n      dup3\n      dup1\n      sload\n      tag_86\n      swap1\n      tag_70\n      jump\t// in\n    tag_86:\n      dup1\n      iszero\n      tag_87\n      jumpi\n      dup1\n      0x1f\n      lt\n      tag_88\n      jumpi\n      0x0100\n      dup1\n      dup4\n      sload\n      div\n      mul\n      dup4\n      mstore\n      swap2\n      0x20\n      add\n      swap2\n      jump(tag_87)\n    tag_88:\n      dup3\n      add\n      swap2\n      swap1\n      0x00\n      mstore\n      keccak256(0x00, 0x20)\n      swap1\n    tag_89:\n      dup2\n      sload\n      dup2\n      mstore\n      swap1\n      0x01\n      add\n      swap1\n      0x20\n      add\n      dup1\n      dup4\n      gt\n      tag_89\n      jumpi\n      dup3\n      swap1\n      sub\n      0x1f\n      and\n      dup3\n      add\n      swap2\n    tag_87:\n      pop\n      pop\n      pop\n      pop\n      pop\n      swap1\n      dup1\n      0x01\n      add\n      sload\n      swap1\n      dup1\n      0x02\n      add\n      dup1\n      sload\n      tag_90\n      swap1\n      tag_70\n      jump\t// in\n    tag_90:\n      dup1\n      0x1f\n      add\n      0x20\n      dup1\n      swap2\n      div\n      mul\n      0x20\n      add\n      mload(0x40)\n      swap1\n      dup2\n      add\n      0x40\n      mstore\n      dup1\n      swap3\n      swap2\n      swap1\n      dup2\n      dup2\n      mstore\n      0x20\n      add\n      dup3\n      dup1\n      sload\n      tag_91\n      swap1\n      tag_70\n      jump\t// in\n    tag_91:\n      dup1\n      iszero\n      tag_92\n      jumpi\n      dup1\n      0x1f\n      lt\n      tag_93\n      jumpi\n      0x0100\n      dup1\n      dup4\n      sload\n      div\n      mul\n      dup4\n      mstore\n      swap2\n      0x20\n      add\n      swap2\n      jump(tag_92)\n    tag_93:\n      dup3\n      add\n      swap2\n      swap1\n      0x00\n      mstore\n      keccak256(0x00, 0x20)\n      swap1\n    tag_94:\n      dup2\n      sload\n      dup2\n      mstore\n      swap1\n      0x01\n      add\n      swap1\n      0x20\n      add\n      dup1\n      dup4\n      gt\n      tag_94\n      jumpi\n      dup3\n      swap1\n      sub\n      0x1f\n      and\n      dup3\n      add\n      swap2\n    tag_92:\n      pop\n      pop\n      pop\n      pop\n      pop\n      swap1\n      dup1\n      0x03\n      add\n      dup1\n      sload\n      tag_95\n      swap1\n      tag_70\n      jump\t// in\n    tag_95:\n      dup1\n      0x1f\n      add\n      0x20\n      dup1\n      swap2\n      div\n      mul\n      0x20\n      add\n      mload(0x40)\n      swap1\n      dup2\n      add\n      0x40\n      mstore\n      dup1\n      swap3\n      swap2\n      swap1\n      dup2\n      dup2\n      mstore\n      0x20\n      add\n      dup3\n      dup1\n      sload\n      tag_96\n      swap1\n      tag_70\n      jump\t// in\n    tag_96:\n      dup1\n      iszero\n      tag_97\n      jumpi\n      dup1\n      0x1f\n      lt\n      tag_98\n      jumpi\n      0x0100\n      dup1\n      dup4\n      sload\n      div\n      mul\n      dup4\n      mstore\n      swap2\n      0x20\n      add\n      swap2\n      jump(tag_97)\n    tag_98:\n      dup3\n      add\n      swap2\n      swap1\n      0x00\n      mstore\n      keccak256(0x00, 0x20)\n      swap1\n    tag_99:\n      dup2\n      sload\n      dup2\n      mstore\n      swap1\n      0x01\n      add\n      swap1\n      0x20\n      add\n      dup1\n      dup4\n      gt\n      tag_99\n      jumpi\n      dup3\n      swap1\n      sub\n      0x1f\n      and\n      dup3\n      add\n      swap2\n    tag_97:\n      pop\n      pop\n      pop\n      pop\n      pop\n      swap1\n      dup1\n      0x04\n      add\n      0x00\n      swap1\n      sload\n      swap1\n      0x0100\n      exp\n      swap1\n      div\n      0xff\n      and\n      swap1\n      pop\n      dup6\n      jump\t// out\n        /* \"CourseEnrollment.sol\":1415:1513  function AI() public isRegisteredUser {... */\n    tag_43:\n        /* \"CourseEnrollment.sol\":808:823  student_address */\n      0x02\n        /* \"CourseEnrollment.sol\":808:835  student_address[msg.sender] */\n      0x00\n        /* \"CourseEnrollment.sol\":824:834  msg.sender */\n      caller\n        /* \"CourseEnrollment.sol\":808:835  student_address[msg.sender] */\n      0xffffffffffffffffffffffffffffffffffffffff\n      and\n      0xffffffffffffffffffffffffffffffffffffffff\n      and\n      dup2\n      mstore\n      0x20\n      add\n      swap1\n      dup2\n      mstore\n      0x20\n      add\n      0x00\n      keccak256\n        /* \"CourseEnrollment.sol\":808:848  student_address[msg.sender].isRegistered */\n      0x04\n      add\n      0x00\n      swap1\n      sload\n      swap1\n      0x0100\n      exp\n      swap1\n      div\n      0xff\n      and\n        /* \"CourseEnrollment.sol\":800:867  require(student_address[msg.sender].isRegistered, \"Not registered\") */\n      tag_101\n      jumpi\n      mload(0x40)\n      0x08c379a000000000000000000000000000000000000000000000000000000000\n      dup2\n      mstore\n      0x04\n      add\n      tag_102\n      swap1\n      tag_62\n      jump\t// in\n    tag_102:\n      mload(0x40)\n      dup1\n      swap2\n      sub\n      swap1\n      revert\n    tag_101:\n        /* \"CourseEnrollment.sol\":1464:1505  student_address[msg.sender].course = \"AI\" */\n      mload(0x40)\n      dup1\n      0x40\n      add\n      0x40\n      mstore\n      dup1\n      0x02\n      dup2\n      mstore\n      0x20\n      add\n      0x4149000000000000000000000000000000000000000000000000000000000000\n      dup2\n      mstore\n      pop\n        /* \"CourseEnrollment.sol\":1464:1479  student_address */\n      0x02\n        /* \"CourseEnrollment.sol\":1464:1491  student_address[msg.sender] */\n      0x00\n        /* \"CourseEnrollment.sol\":1480:1490  msg.sender */\n      caller\n        /* \"CourseEnrollment.sol\":1464:1491  student_address[msg.sender] */\n      0xffffffffffffffffffffffffffffffffffffffff\n      and\n      0xffffffffffffffffffffffffffffffffffffffff\n      and\n      dup2\n      mstore\n      0x20\n      add\n      swap1\n      dup2\n      mstore\n      0x20\n      add\n      0x00\n      keccak256\n        /* \"CourseEnrollment.sol\":1464:1498  student_address[msg.sender].course */\n      0x03\n      add\n        /* \"CourseEnrollment.sol\":1464:1505  student_address[msg.sender].course = \"AI\" */\n      swap1\n      dup2\n      tag_104\n      swap2\n      swap1\n      tag_53\n      jump\t// in\n    tag_104:\n      pop\n        /* \"CourseEnrollment.sol\":1415:1513  function AI() public isRegisteredUser {... */\n      jump\t// out\n        /* \"CourseEnrollment.sol\":1775:1892  function Datascience() public isRegisteredUser {... */\n    tag_45:\n        /* \"CourseEnrollment.sol\":808:823  student_address */\n      0x02\n        /* \"CourseEnrollment.sol\":808:835  student_address[msg.sender] */\n      0x00\n        /* \"CourseEnrollment.sol\":824:834  msg.sender */\n      caller\n        /* \"CourseEnrollment.sol\":808:835  student_address[msg.sender] */\n      0xffffffffffffffffffffffffffffffffffffffff\n      and\n      0xffffffffffffffffffffffffffffffffffffffff\n      and\n      dup2\n      mstore\n      0x20\n      add\n      swap1\n      dup2\n      mstore\n      0x20\n      add\n      0x00\n      keccak256\n        /* \"CourseEnrollment.sol\":808:848  student_address[msg.sender].isRegistered */\n      0x04\n      add\n      0x00\n      swap1\n      sload\n      swap1\n      0x0100\n      exp\n      swap1\n      div\n      0xff\n      and\n        /* \"CourseEnrollment.sol\":800:867  require(student_address[msg.sender].isRegistered, \"Not registered\") */\n      tag_106\n      jumpi\n      mload(0x40)\n      0x08c379a000000000000000000000000000000000000000000000000000000000\n      dup2\n      mstore\n      0x04\n      add\n      tag_107\n      swap1\n      tag_62\n      jump\t// in\n    tag_107:\n      mload(0x40)\n      dup1\n      swap2\n      sub\n      swap1\n      revert\n    tag_106:\n        /* \"CourseEnrollment.sol\":1833:1884  student_address[msg.sender].course = \"Data Science\" */\n      mload(0x40)\n      dup1\n      0x40\n      add\n      0x40\n      mstore\n      dup1\n      0x0c\n      dup2\n      mstore\n      0x20\n      add\n      0x4461746120536369656e63650000000000000000000000000000000000000000\n      dup2\n      mstore\n      pop\n        /* \"CourseEnrollment.sol\":1833:1848  student_address */\n      0x02\n        /* \"CourseEnrollment.sol\":1833:1860  student_address[msg.sender] */\n      0x00\n        /* \"CourseEnrollment.sol\":1849:1859  msg.sender */\n      caller\n        /* \"CourseEnrollment.sol\":1833:1860  student_address[msg.sender] */\n      0xffffffffffffffffffffffffffffffffffffffff\n      and\n      0xffffffffffffffffffffffffffffffffffffffff\n      and\n      dup2\n      mstore\n      0x20\n      add\n      swap1\n      dup2\n      mstore\n      0x20\n      add\n      0x00\n      keccak256\n        /* \"CourseEnrollment.sol\":1833:1867  student_address[msg.sender].course */\n      0x03\n      add\n        /* \"CourseEnrollment.sol\":1833:1884  student_address[msg.sender].course = \"Data Science\" */\n      swap1\n      dup2\n      tag_109\n      swap2\n      swap1\n      tag_53\n      jump\t// in\n    tag_109:\n      pop\n        /* \"CourseEnrollment.sol\":1775:1892  function Datascience() public isRegisteredUser {... */\n      jump\t// out\n        /* \"CourseEnrollment.sol\":1521:1645  function Web_Development() public isRegisteredUser {... */\n    tag_47:\n        /* \"CourseEnrollment.sol\":808:823  student_address */\n      0x02\n        /* \"CourseEnrollment.sol\":808:835  student_address[msg.sender] */\n      0x00\n        /* \"CourseEnrollment.sol\":824:834  msg.sender */\n      caller\n        /* \"CourseEnrollment.sol\":808:835  student_address[msg.sender] */\n      0xffffffffffffffffffffffffffffffffffffffff\n      and\n      0xffffffffffffffffffffffffffffffffffffffff\n      and\n      dup2\n      mstore\n      0x20\n      add\n      swap1\n      dup2\n      mstore\n      0x20\n      add\n      0x00\n      keccak256\n        /* \"CourseEnrollment.sol\":808:848  student_address[msg.sender].isRegistered */\n      0x04\n      add\n      0x00\n      swap1\n      sload\n      swap1\n      0x0100\n      exp\n      swap1\n      div\n      0xff\n      and\n        /* \"CourseEnrollment.sol\":800:867  require(student_address[msg.sender].isRegistered, \"Not registered\") */\n      tag_111\n      jumpi\n      mload(0x40)\n      0x08c379a000000000000000000000000000000000000000000000000000000000\n      dup2\n      mstore\n      0x04\n      add\n      tag_112\n      swap1\n      tag_62\n      jump\t// in\n    tag_112:\n      mload(0x40)\n      dup1\n      swap2\n      sub\n      swap1\n      revert\n    tag_111:\n        /* \"CourseEnrollment.sol\":1583:1637  student_address[msg.sender].course = \"Web Development\" */\n      mload(0x40)\n      dup1\n      0x40\n      add\n      0x40\n      mstore\n      dup1\n      0x0f\n      dup2\n      mstore\n      0x20\n      add\n      0x57656220446576656c6f706d656e740000000000000000000000000000000000\n      dup2\n      mstore\n      pop\n        /* \"CourseEnrollment.sol\":1583:1598  student_address */\n      0x02\n        /* \"CourseEnrollment.sol\":1583:1610  student_address[msg.sender] */\n      0x00\n        /* \"CourseEnrollment.sol\":1599:1609  msg.sender */\n      caller\n        /* \"CourseEnrollment.sol\":1583:1610  student_address[msg.sender] */\n      0xffffffffffffffffffffffffffffffffffffffff\n      and\n      0xffffffffffffffffffffffffffffffffffffffff\n      and\n      dup2\n      mstore\n      0x20\n      add\n      swap1\n      dup2\n      mstore\n      0x20\n      add\n      0x00\n      keccak256\n        /* \"CourseEnrollment.sol\":1583:1617  student_address[msg.sender].course */\n      0x03\n      add\n        /* \"CourseEnrollment.sol\":1583:1637  student_address[msg.sender].course = \"Web Development\" */\n      swap1\n      dup2\n      tag_114\n      swap2\n      swap1\n      tag_53\n      jump\t// in\n    tag_114:\n      pop\n        /* \"CourseEnrollment.sol\":1521:1645  function Web_Development() public isRegisteredUser {... */\n      jump\t// out\n        /* \"#utility.yul\":7:82   */\n    tag_115:\n        /* \"#utility.yul\":40:46   */\n      0x00\n        /* \"#utility.yul\":73:75   */\n      0x40\n        /* \"#utility.yul\":67:76   */\n      mload\n        /* \"#utility.yul\":57:76   */\n      swap1\n      pop\n        /* \"#utility.yul\":7:82   */\n      swap1\n      jump\t// out\n        /* \"#utility.yul\":88:205   */\n    tag_116:\n        /* \"#utility.yul\":197:198   */\n      0x00\n        /* \"#utility.yul\":194:195   */\n      0x00\n        /* \"#utility.yul\":187:199   */\n      revert\n        /* \"#utility.yul\":211:328   */\n    tag_117:\n        /* \"#utility.yul\":320:321   */\n      0x00\n        /* \"#utility.yul\":317:318   */\n      0x00\n        /* \"#utility.yul\":310:322   */\n      revert\n        /* \"#utility.yul\":334:451   */\n    tag_118:\n        /* \"#utility.yul\":443:444   */\n      0x00\n        /* \"#utility.yul\":440:441   */\n      0x00\n        /* \"#utility.yul\":433:445   */\n      revert\n        /* \"#utility.yul\":457:574   */\n    tag_119:\n        /* \"#utility.yul\":566:567   */\n      0x00\n        /* \"#utility.yul\":563:564   */\n      0x00\n        /* \"#utility.yul\":556:568   */\n      revert\n        /* \"#utility.yul\":580:682   */\n    tag_120:\n        /* \"#utility.yul\":621:627   */\n      0x00\n        /* \"#utility.yul\":672:674   */\n      0x1f\n        /* \"#utility.yul\":668:675   */\n      not\n        /* \"#utility.yul\":663:665   */\n      0x1f\n        /* \"#utility.yul\":656:661   */\n      dup4\n        /* \"#utility.yul\":652:666   */\n      add\n        /* \"#utility.yul\":648:676   */\n      and\n        /* \"#utility.yul\":638:676   */\n      swap1\n      pop\n        /* \"#utility.yul\":580:682   */\n      swap2\n      swap1\n      pop\n      jump\t// out\n        /* \"#utility.yul\":688:868   */\n    tag_121:\n        /* \"#utility.yul\":736:813   */\n      0x4e487b7100000000000000000000000000000000000000000000000000000000\n        /* \"#utility.yul\":733:734   */\n      0x00\n        /* \"#utility.yul\":726:814   */\n      mstore\n        /* \"#utility.yul\":833:837   */\n      0x41\n        /* \"#utility.yul\":830:831   */\n      0x04\n        /* \"#utility.yul\":823:838   */\n      mstore\n        /* \"#utility.yul\":857:861   */\n      0x24\n        /* \"#utility.yul\":854:855   */\n      0x00\n        /* \"#utility.yul\":847:862   */\n      revert\n        /* \"#utility.yul\":874:1155   */\n    tag_122:\n        /* \"#utility.yul\":957:984   */\n      tag_180\n        /* \"#utility.yul\":979:983   */\n      dup3\n        /* \"#utility.yul\":957:984   */\n      tag_120\n      jump\t// in\n    tag_180:\n        /* \"#utility.yul\":949:955   */\n      dup2\n        /* \"#utility.yul\":945:985   */\n      add\n        /* \"#utility.yul\":1087:1093   */\n      dup2\n        /* \"#utility.yul\":1075:1085   */\n      dup2\n        /* \"#utility.yul\":1072:1094   */\n      lt\n        /* \"#utility.yul\":1051:1069   */\n      0xffffffffffffffff\n        /* \"#utility.yul\":1039:1049   */\n      dup3\n        /* \"#utility.yul\":1036:1070   */\n      gt\n        /* \"#utility.yul\":1033:1095   */\n      or\n        /* \"#utility.yul\":1030:1118   */\n      iszero\n      tag_181\n      jumpi\n        /* \"#utility.yul\":1098:1116   */\n      tag_182\n      tag_121\n      jump\t// in\n    tag_182:\n        /* \"#utility.yul\":1030:1118   */\n    tag_181:\n        /* \"#utility.yul\":1138:1148   */\n      dup1\n        /* \"#utility.yul\":1134:1136   */\n      0x40\n        /* \"#utility.yul\":1127:1149   */\n      mstore\n        /* \"#utility.yul\":917:1155   */\n      pop\n        /* \"#utility.yul\":874:1155   */\n      pop\n      pop\n      jump\t// out\n        /* \"#utility.yul\":1161:1290   */\n    tag_123:\n        /* \"#utility.yul\":1195:1201   */\n      0x00\n        /* \"#utility.yul\":1222:1242   */\n      tag_184\n      tag_115\n      jump\t// in\n    tag_184:\n        /* \"#utility.yul\":1212:1242   */\n      swap1\n      pop\n        /* \"#utility.yul\":1251:1284   */\n      tag_185\n        /* \"#utility.yul\":1279:1283   */\n      dup3\n        /* \"#utility.yul\":1271:1277   */\n      dup3\n        /* \"#utility.yul\":1251:1284   */\n      tag_122\n      jump\t// in\n    tag_185:\n        /* \"#utility.yul\":1161:1290   */\n      swap2\n      swap1\n      pop\n      jump\t// out\n        /* \"#utility.yul\":1296:1604   */\n    tag_124:\n        /* \"#utility.yul\":1358:1362   */\n      0x00\n        /* \"#utility.yul\":1448:1466   */\n      0xffffffffffffffff\n        /* \"#utility.yul\":1440:1446   */\n      dup3\n        /* \"#utility.yul\":1437:1467   */\n      gt\n        /* \"#utility.yul\":1434:1490   */\n      iszero\n      tag_187\n      jumpi\n        /* \"#utility.yul\":1470:1488   */\n      tag_188\n      tag_121\n      jump\t// in\n    tag_188:\n        /* \"#utility.yul\":1434:1490   */\n    tag_187:\n        /* \"#utility.yul\":1508:1537   */\n      tag_189\n        /* \"#utility.yul\":1530:1536   */\n      dup3\n        /* \"#utility.yul\":1508:1537   */\n      tag_120\n      jump\t// in\n    tag_189:\n        /* \"#utility.yul\":1500:1537   */\n      swap1\n      pop\n        /* \"#utility.yul\":1592:1596   */\n      0x20\n        /* \"#utility.yul\":1586:1590   */\n      dup2\n        /* \"#utility.yul\":1582:1597   */\n      add\n        /* \"#utility.yul\":1574:1597   */\n      swap1\n      pop\n        /* \"#utility.yul\":1296:1604   */\n      swap2\n      swap1\n      pop\n      jump\t// out\n        /* \"#utility.yul\":1610:1758   */\n    tag_125:\n        /* \"#utility.yul\":1708:1714   */\n      dup3\n        /* \"#utility.yul\":1703:1706   */\n      dup2\n        /* \"#utility.yul\":1698:1701   */\n      dup4\n        /* \"#utility.yul\":1685:1715   */\n      calldatacopy\n        /* \"#utility.yul\":1749:1750   */\n      0x00\n        /* \"#utility.yul\":1740:1746   */\n      dup4\n        /* \"#utility.yul\":1735:1738   */\n      dup4\n        /* \"#utility.yul\":1731:1747   */\n      add\n        /* \"#utility.yul\":1724:1751   */\n      mstore\n        /* \"#utility.yul\":1610:1758   */\n      pop\n      pop\n      pop\n      jump\t// out\n        /* \"#utility.yul\":1764:2189   */\n    tag_126:\n        /* \"#utility.yul\":1842:1847   */\n      0x00\n        /* \"#utility.yul\":1867:1933   */\n      tag_192\n        /* \"#utility.yul\":1883:1932   */\n      tag_193\n        /* \"#utility.yul\":1925:1931   */\n      dup5\n        /* \"#utility.yul\":1883:1932   */\n      tag_124\n      jump\t// in\n    tag_193:\n        /* \"#utility.yul\":1867:1933   */\n      tag_123\n      jump\t// in\n    tag_192:\n        /* \"#utility.yul\":1858:1933   */\n      swap1\n      pop\n        /* \"#utility.yul\":1956:1962   */\n      dup3\n        /* \"#utility.yul\":1949:1954   */\n      dup2\n        /* \"#utility.yul\":1942:1963   */\n      mstore\n        /* \"#utility.yul\":1994:1998   */\n      0x20\n        /* \"#utility.yul\":1987:1992   */\n      dup2\n        /* \"#utility.yul\":1983:1999   */\n      add\n        /* \"#utility.yul\":2032:2035   */\n      dup5\n        /* \"#utility.yul\":2023:2029   */\n      dup5\n        /* \"#utility.yul\":2018:2021   */\n      dup5\n        /* \"#utility.yul\":2014:2030   */\n      add\n        /* \"#utility.yul\":2011:2036   */\n      gt\n        /* \"#utility.yul\":2008:2120   */\n      iszero\n      tag_194\n      jumpi\n        /* \"#utility.yul\":2039:2118   */\n      tag_195\n      tag_119\n      jump\t// in\n    tag_195:\n        /* \"#utility.yul\":2008:2120   */\n    tag_194:\n        /* \"#utility.yul\":2129:2183   */\n      tag_196\n        /* \"#utility.yul\":2176:2182   */\n      dup5\n        /* \"#utility.yul\":2171:2174   */\n      dup3\n        /* \"#utility.yul\":2166:2169   */\n      dup6\n        /* \"#utility.yul\":2129:2183   */\n      tag_125\n      jump\t// in\n    tag_196:\n        /* \"#utility.yul\":1848:2189   */\n      pop\n        /* \"#utility.yul\":1764:2189   */\n      swap4\n      swap3\n      pop\n      pop\n      pop\n      jump\t// out\n        /* \"#utility.yul\":2209:2549   */\n    tag_127:\n        /* \"#utility.yul\":2265:2270   */\n      0x00\n        /* \"#utility.yul\":2314:2317   */\n      dup3\n        /* \"#utility.yul\":2307:2311   */\n      0x1f\n        /* \"#utility.yul\":2299:2305   */\n      dup4\n        /* \"#utility.yul\":2295:2312   */\n      add\n        /* \"#utility.yul\":2291:2318   */\n      slt\n        /* \"#utility.yul\":2281:2403   */\n      tag_198\n      jumpi\n        /* \"#utility.yul\":2322:2401   */\n      tag_199\n      tag_118\n      jump\t// in\n    tag_199:\n        /* \"#utility.yul\":2281:2403   */\n    tag_198:\n        /* \"#utility.yul\":2439:2445   */\n      dup2\n        /* \"#utility.yul\":2426:2446   */\n      calldataload\n        /* \"#utility.yul\":2464:2543   */\n      tag_200\n        /* \"#utility.yul\":2539:2542   */\n      dup5\n        /* \"#utility.yul\":2531:2537   */\n      dup3\n        /* \"#utility.yul\":2524:2528   */\n      0x20\n        /* \"#utility.yul\":2516:2522   */\n      dup7\n        /* \"#utility.yul\":2512:2529   */\n      add\n        /* \"#utility.yul\":2464:2543   */\n      tag_126\n      jump\t// in\n    tag_200:\n        /* \"#utility.yul\":2455:2543   */\n      swap2\n      pop\n        /* \"#utility.yul\":2271:2549   */\n      pop\n        /* \"#utility.yul\":2209:2549   */\n      swap3\n      swap2\n      pop\n      pop\n      jump\t// out\n        /* \"#utility.yul\":2555:2632   */\n    tag_128:\n        /* \"#utility.yul\":2592:2599   */\n      0x00\n        /* \"#utility.yul\":2621:2626   */\n      dup2\n        /* \"#utility.yul\":2610:2626   */\n      swap1\n      pop\n        /* \"#utility.yul\":2555:2632   */\n      swap2\n      swap1\n      pop\n      jump\t// out\n        /* \"#utility.yul\":2638:2760   */\n    tag_129:\n        /* \"#utility.yul\":2711:2735   */\n      tag_203\n        /* \"#utility.yul\":2729:2734   */\n      dup2\n        /* \"#utility.yul\":2711:2735   */\n      tag_128\n      jump\t// in\n    tag_203:\n        /* \"#utility.yul\":2704:2709   */\n      dup2\n        /* \"#utility.yul\":2701:2736   */\n      eq\n        /* \"#utility.yul\":2691:2754   */\n      tag_204\n      jumpi\n        /* \"#utility.yul\":2750:2751   */\n      0x00\n        /* \"#utility.yul\":2747:2748   */\n      0x00\n        /* \"#utility.yul\":2740:2752   */\n      revert\n        /* \"#utility.yul\":2691:2754   */\n    tag_204:\n        /* \"#utility.yul\":2638:2760   */\n      pop\n      jump\t// out\n        /* \"#utility.yul\":2766:2905   */\n    tag_130:\n        /* \"#utility.yul\":2812:2817   */\n      0x00\n        /* \"#utility.yul\":2850:2856   */\n      dup2\n        /* \"#utility.yul\":2837:2857   */\n      calldataload\n        /* \"#utility.yul\":2828:2857   */\n      swap1\n      pop\n        /* \"#utility.yul\":2866:2899   */\n      tag_206\n        /* \"#utility.yul\":2893:2898   */\n      dup2\n        /* \"#utility.yul\":2866:2899   */\n      tag_129\n      jump\t// in\n    tag_206:\n        /* \"#utility.yul\":2766:2905   */\n      swap3\n      swap2\n      pop\n      pop\n      jump\t// out\n        /* \"#utility.yul\":2911:3890   */\n    tag_16:\n        /* \"#utility.yul\":3008:3014   */\n      0x00\n        /* \"#utility.yul\":3016:3022   */\n      0x00\n        /* \"#utility.yul\":3024:3030   */\n      0x00\n        /* \"#utility.yul\":3073:3075   */\n      0x60\n        /* \"#utility.yul\":3061:3070   */\n      dup5\n        /* \"#utility.yul\":3052:3059   */\n      dup7\n        /* \"#utility.yul\":3048:3071   */\n      sub\n        /* \"#utility.yul\":3044:3076   */\n      slt\n        /* \"#utility.yul\":3041:3160   */\n      iszero\n      tag_208\n      jumpi\n        /* \"#utility.yul\":3079:3158   */\n      tag_209\n      tag_116\n      jump\t// in\n    tag_209:\n        /* \"#utility.yul\":3041:3160   */\n    tag_208:\n        /* \"#utility.yul\":3227:3228   */\n      0x00\n        /* \"#utility.yul\":3216:3225   */\n      dup5\n        /* \"#utility.yul\":3212:3229   */\n      add\n        /* \"#utility.yul\":3199:3230   */\n      calldataload\n        /* \"#utility.yul\":3257:3275   */\n      0xffffffffffffffff\n        /* \"#utility.yul\":3249:3255   */\n      dup2\n        /* \"#utility.yul\":3246:3276   */\n      gt\n        /* \"#utility.yul\":3243:3360   */\n      iszero\n      tag_210\n      jumpi\n        /* \"#utility.yul\":3279:3358   */\n      tag_211\n      tag_117\n      jump\t// in\n    tag_211:\n        /* \"#utility.yul\":3243:3360   */\n    tag_210:\n        /* \"#utility.yul\":3384:3447   */\n      tag_212\n        /* \"#utility.yul\":3439:3446   */\n      dup7\n        /* \"#utility.yul\":3430:3436   */\n      dup3\n        /* \"#utility.yul\":3419:3428   */\n      dup8\n        /* \"#utility.yul\":3415:3437   */\n      add\n        /* \"#utility.yul\":3384:3447   */\n      tag_127\n      jump\t// in\n    tag_212:\n        /* \"#utility.yul\":3374:3447   */\n      swap4\n      pop\n        /* \"#utility.yul\":3170:3457   */\n      pop\n        /* \"#utility.yul\":3496:3498   */\n      0x20\n        /* \"#utility.yul\":3522:3575   */\n      tag_213\n        /* \"#utility.yul\":3567:3574   */\n      dup7\n        /* \"#utility.yul\":3558:3564   */\n      dup3\n        /* \"#utility.yul\":3547:3556   */\n      dup8\n        /* \"#utility.yul\":3543:3565   */\n      add\n        /* \"#utility.yul\":3522:3575   */\n      tag_130\n      jump\t// in\n    tag_213:\n        /* \"#utility.yul\":3512:3575   */\n      swap3\n      pop\n        /* \"#utility.yul\":3467:3585   */\n      pop\n        /* \"#utility.yul\":3652:3654   */\n      0x40\n        /* \"#utility.yul\":3641:3650   */\n      dup5\n        /* \"#utility.yul\":3637:3655   */\n      add\n        /* \"#utility.yul\":3624:3656   */\n      calldataload\n        /* \"#utility.yul\":3683:3701   */\n      0xffffffffffffffff\n        /* \"#utility.yul\":3675:3681   */\n      dup2\n        /* \"#utility.yul\":3672:3702   */\n      gt\n        /* \"#utility.yul\":3669:3786   */\n      iszero\n      tag_214\n      jumpi\n        /* \"#utility.yul\":3705:3784   */\n      tag_215\n      tag_117\n      jump\t// in\n    tag_215:\n        /* \"#utility.yul\":3669:3786   */\n    tag_214:\n        /* \"#utility.yul\":3810:3873   */\n      tag_216\n        /* \"#utility.yul\":3865:3872   */\n      dup7\n        /* \"#utility.yul\":3856:3862   */\n      dup3\n        /* \"#utility.yul\":3845:3854   */\n      dup8\n        /* \"#utility.yul\":3841:3863   */\n      add\n        /* \"#utility.yul\":3810:3873   */\n      tag_127\n      jump\t// in\n    tag_216:\n        /* \"#utility.yul\":3800:3873   */\n      swap2\n      pop\n        /* \"#utility.yul\":3595:3883   */\n      pop\n        /* \"#utility.yul\":2911:3890   */\n      swap3\n      pop\n      swap3\n      pop\n      swap3\n      jump\t// out\n        /* \"#utility.yul\":3896:4010   */\n    tag_131:\n        /* \"#utility.yul\":3963:3969   */\n      0x00\n        /* \"#utility.yul\":3997:4002   */\n      dup2\n        /* \"#utility.yul\":3991:4003   */\n      mload\n        /* \"#utility.yul\":3981:4003   */\n      swap1\n      pop\n        /* \"#utility.yul\":3896:4010   */\n      swap2\n      swap1\n      pop\n      jump\t// out\n        /* \"#utility.yul\":4016:4200   */\n    tag_132:\n        /* \"#utility.yul\":4115:4126   */\n      0x00\n        /* \"#utility.yul\":4149:4155   */\n      dup3\n        /* \"#utility.yul\":4144:4147   */\n      dup3\n        /* \"#utility.yul\":4137:4156   */\n      mstore\n        /* \"#utility.yul\":4189:4193   */\n      0x20\n        /* \"#utility.yul\":4184:4187   */\n      dup3\n        /* \"#utility.yul\":4180:4194   */\n      add\n        /* \"#utility.yul\":4165:4194   */\n      swap1\n      pop\n        /* \"#utility.yul\":4016:4200   */\n      swap3\n      swap2\n      pop\n      pop\n      jump\t// out\n        /* \"#utility.yul\":4206:4338   */\n    tag_133:\n        /* \"#utility.yul\":4273:4277   */\n      0x00\n        /* \"#utility.yul\":4296:4299   */\n      dup2\n        /* \"#utility.yul\":4288:4299   */\n      swap1\n      pop\n        /* \"#utility.yul\":4326:4330   */\n      0x20\n        /* \"#utility.yul\":4321:4324   */\n      dup3\n        /* \"#utility.yul\":4317:4331   */\n      add\n        /* \"#utility.yul\":4309:4331   */\n      swap1\n      pop\n        /* \"#utility.yul\":4206:4338   */\n      swap2\n      swap1\n      pop\n      jump\t// out\n        /* \"#utility.yul\":4344:4470   */\n    tag_134:\n        /* \"#utility.yul\":4381:4388   */\n      0x00\n        /* \"#utility.yul\":4421:4463   */\n      0xffffffffffffffffffffffffffffffffffffffff\n        /* \"#utility.yul\":4414:4419   */\n      dup3\n        /* \"#utility.yul\":4410:4464   */\n      and\n        /* \"#utility.yul\":4399:4464   */\n      swap1\n      pop\n        /* \"#utility.yul\":4344:4470   */\n      swap2\n      swap1\n      pop\n      jump\t// out\n        /* \"#utility.yul\":4476:4572   */\n    tag_135:\n        /* \"#utility.yul\":4513:4520   */\n      0x00\n        /* \"#utility.yul\":4542:4566   */\n      tag_222\n        /* \"#utility.yul\":4560:4565   */\n      dup3\n        /* \"#utility.yul\":4542:4566   */\n      tag_134\n      jump\t// in\n    tag_222:\n        /* \"#utility.yul\":4531:4566   */\n      swap1\n      pop\n        /* \"#utility.yul\":4476:4572   */\n      swap2\n      swap1\n      pop\n      jump\t// out\n        /* \"#utility.yul\":4578:4686   */\n    tag_136:\n        /* \"#utility.yul\":4655:4679   */\n      tag_224\n        /* \"#utility.yul\":4673:4678   */\n      dup2\n        /* \"#utility.yul\":4655:4679   */\n      tag_135\n      jump\t// in\n    tag_224:\n        /* \"#utility.yul\":4650:4653   */\n      dup3\n        /* \"#utility.yul\":4643:4680   */\n      mstore\n        /* \"#utility.yul\":4578:4686   */\n      pop\n      pop\n      jump\t// out\n        /* \"#utility.yul\":4692:4871   */\n    tag_137:\n        /* \"#utility.yul\":4761:4771   */\n      0x00\n        /* \"#utility.yul\":4782:4828   */\n      tag_226\n        /* \"#utility.yul\":4824:4827   */\n      dup4\n        /* \"#utility.yul\":4816:4822   */\n      dup4\n        /* \"#utility.yul\":4782:4828   */\n      tag_136\n      jump\t// in\n    tag_226:\n        /* \"#utility.yul\":4860:4864   */\n      0x20\n        /* \"#utility.yul\":4855:4858   */\n      dup4\n        /* \"#utility.yul\":4851:4865   */\n      add\n        /* \"#utility.yul\":4837:4865   */\n      swap1\n      pop\n        /* \"#utility.yul\":4692:4871   */\n      swap3\n      swap2\n      pop\n      pop\n      jump\t// out\n        /* \"#utility.yul\":4877:4990   */\n    tag_138:\n        /* \"#utility.yul\":4947:4951   */\n      0x00\n        /* \"#utility.yul\":4979:4983   */\n      0x20\n        /* \"#utility.yul\":4974:4977   */\n      dup3\n        /* \"#utility.yul\":4970:4984   */\n      add\n        /* \"#utility.yul\":4962:4984   */\n      swap1\n      pop\n        /* \"#utility.yul\":4877:4990   */\n      swap2\n      swap1\n      pop\n      jump\t// out\n        /* \"#utility.yul\":5026:5758   */\n    tag_139:\n        /* \"#utility.yul\":5145:5148   */\n      0x00\n        /* \"#utility.yul\":5174:5228   */\n      tag_229\n        /* \"#utility.yul\":5222:5227   */\n      dup3\n        /* \"#utility.yul\":5174:5228   */\n      tag_131\n      jump\t// in\n    tag_229:\n        /* \"#utility.yul\":5244:5330   */\n      tag_230\n        /* \"#utility.yul\":5323:5329   */\n      dup2\n        /* \"#utility.yul\":5318:5321   */\n      dup6\n        /* \"#utility.yul\":5244:5330   */\n      tag_132\n      jump\t// in\n    tag_230:\n        /* \"#utility.yul\":5237:5330   */\n      swap4\n      pop\n        /* \"#utility.yul\":5354:5410   */\n      tag_231\n        /* \"#utility.yul\":5404:5409   */\n      dup4\n        /* \"#utility.yul\":5354:5410   */\n      tag_133\n      jump\t// in\n    tag_231:\n        /* \"#utility.yul\":5433:5440   */\n      dup1\n        /* \"#utility.yul\":5464:5465   */\n      0x00\n        /* \"#utility.yul\":5449:5733   */\n    tag_232:\n        /* \"#utility.yul\":5474:5480   */\n      dup4\n        /* \"#utility.yul\":5471:5472   */\n      dup2\n        /* \"#utility.yul\":5468:5481   */\n      lt\n        /* \"#utility.yul\":5449:5733   */\n      iszero\n      tag_234\n      jumpi\n        /* \"#utility.yul\":5550:5556   */\n      dup2\n        /* \"#utility.yul\":5544:5557   */\n      mload\n        /* \"#utility.yul\":5577:5640   */\n      tag_235\n        /* \"#utility.yul\":5636:5639   */\n      dup9\n        /* \"#utility.yul\":5621:5634   */\n      dup3\n        /* \"#utility.yul\":5577:5640   */\n      tag_137\n      jump\t// in\n    tag_235:\n        /* \"#utility.yul\":5570:5640   */\n      swap8\n      pop\n        /* \"#utility.yul\":5663:5723   */\n      tag_236\n        /* \"#utility.yul\":5716:5722   */\n      dup4\n        /* \"#utility.yul\":5663:5723   */\n      tag_138\n      jump\t// in\n    tag_236:\n        /* \"#utility.yul\":5653:5723   */\n      swap3\n      pop\n        /* \"#utility.yul\":5509:5733   */\n      pop\n        /* \"#utility.yul\":5496:5497   */\n      0x01\n        /* \"#utility.yul\":5493:5494   */\n      dup2\n        /* \"#utility.yul\":5489:5498   */\n      add\n        /* \"#utility.yul\":5484:5498   */\n      swap1\n      pop\n        /* \"#utility.yul\":5449:5733   */\n      jump(tag_232)\n    tag_234:\n        /* \"#utility.yul\":5453:5467   */\n      pop\n        /* \"#utility.yul\":5749:5752   */\n      dup6\n        /* \"#utility.yul\":5742:5752   */\n      swap4\n      pop\n        /* \"#utility.yul\":5150:5758   */\n      pop\n      pop\n      pop\n        /* \"#utility.yul\":5026:5758   */\n      swap3\n      swap2\n      pop\n      pop\n      jump\t// out\n        /* \"#utility.yul\":5764:6137   */\n    tag_23:\n        /* \"#utility.yul\":5907:5911   */\n      0x00\n        /* \"#utility.yul\":5945:5947   */\n      0x20\n        /* \"#utility.yul\":5934:5943   */\n      dup3\n        /* \"#utility.yul\":5930:5948   */\n      add\n        /* \"#utility.yul\":5922:5948   */\n      swap1\n      pop\n        /* \"#utility.yul\":5994:6003   */\n      dup2\n        /* \"#utility.yul\":5988:5992   */\n      dup2\n        /* \"#utility.yul\":5984:6004   */\n      sub\n        /* \"#utility.yul\":5980:5981   */\n      0x00\n        /* \"#utility.yul\":5969:5978   */\n      dup4\n        /* \"#utility.yul\":5965:5982   */\n      add\n        /* \"#utility.yul\":5958:6005   */\n      mstore\n        /* \"#utility.yul\":6022:6130   */\n      tag_238\n        /* \"#utility.yul\":6125:6129   */\n      dup2\n        /* \"#utility.yul\":6116:6122   */\n      dup5\n        /* \"#utility.yul\":6022:6130   */\n      tag_139\n      jump\t// in\n    tag_238:\n        /* \"#utility.yul\":6014:6130   */\n      swap1\n      pop\n        /* \"#utility.yul\":5764:6137   */\n      swap3\n      swap2\n      pop\n      pop\n      jump\t// out\n        /* \"#utility.yul\":6143:6242   */\n    tag_140:\n        /* \"#utility.yul\":6195:6201   */\n      0x00\n        /* \"#utility.yul\":6229:6234   */\n      dup2\n        /* \"#utility.yul\":6223:6235   */\n      mload\n        /* \"#utility.yul\":6213:6235   */\n      swap1\n      pop\n        /* \"#utility.yul\":6143:6242   */\n      swap2\n      swap1\n      pop\n      jump\t// out\n        /* \"#utility.yul\":6248:6417   */\n    tag_141:\n        /* \"#utility.yul\":6332:6343   */\n      0x00\n        /* \"#utility.yul\":6366:6372   */\n      dup3\n        /* \"#utility.yul\":6361:6364   */\n      dup3\n        /* \"#utility.yul\":6354:6373   */\n      mstore\n        /* \"#utility.yul\":6406:6410   */\n      0x20\n        /* \"#utility.yul\":6401:6404   */\n      dup3\n        /* \"#utility.yul\":6397:6411   */\n      add\n        /* \"#utility.yul\":6382:6411   */\n      swap1\n      pop\n        /* \"#utility.yul\":6248:6417   */\n      swap3\n      swap2\n      pop\n      pop\n      jump\t// out\n        /* \"#utility.yul\":6423:6562   */\n    tag_142:\n        /* \"#utility.yul\":6512:6518   */\n      dup3\n        /* \"#utility.yul\":6507:6510   */\n      dup2\n        /* \"#utility.yul\":6502:6505   */\n      dup4\n        /* \"#utility.yul\":6496:6519   */\n      mcopy\n        /* \"#utility.yul\":6553:6554   */\n      0x00\n        /* \"#utility.yul\":6544:6550   */\n      dup4\n        /* \"#utility.yul\":6539:6542   */\n      dup4\n        /* \"#utility.yul\":6535:6551   */\n      add\n        /* \"#utility.yul\":6528:6555   */\n      mstore\n        /* \"#utility.yul\":6423:6562   */\n      pop\n      pop\n      pop\n      jump\t// out\n        /* \"#utility.yul\":6568:6945   */\n    tag_143:\n        /* \"#utility.yul\":6656:6659   */\n      0x00\n        /* \"#utility.yul\":6684:6723   */\n      tag_243\n        /* \"#utility.yul\":6717:6722   */\n      dup3\n        /* \"#utility.yul\":6684:6723   */\n      tag_140\n      jump\t// in\n    tag_243:\n        /* \"#utility.yul\":6739:6810   */\n      tag_244\n        /* \"#utility.yul\":6803:6809   */\n      dup2\n        /* \"#utility.yul\":6798:6801   */\n      dup6\n        /* \"#utility.yul\":6739:6810   */\n      tag_141\n      jump\t// in\n    tag_244:\n        /* \"#utility.yul\":6732:6810   */\n      swap4\n      pop\n        /* \"#utility.yul\":6819:6884   */\n      tag_245\n        /* \"#utility.yul\":6877:6883   */\n      dup2\n        /* \"#utility.yul\":6872:6875   */\n      dup6\n        /* \"#utility.yul\":6865:6869   */\n      0x20\n        /* \"#utility.yul\":6858:6863   */\n      dup7\n        /* \"#utility.yul\":6854:6870   */\n      add\n        /* \"#utility.yul\":6819:6884   */\n      tag_142\n      jump\t// in\n    tag_245:\n        /* \"#utility.yul\":6909:6938   */\n      tag_246\n        /* \"#utility.yul\":6931:6937   */\n      dup2\n        /* \"#utility.yul\":6909:6938   */\n      tag_120\n      jump\t// in\n    tag_246:\n        /* \"#utility.yul\":6904:6907   */\n      dup5\n        /* \"#utility.yul\":6900:6939   */\n      add\n        /* \"#utility.yul\":6893:6939   */\n      swap2\n      pop\n        /* \"#utility.yul\":6660:6945   */\n      pop\n        /* \"#utility.yul\":6568:6945   */\n      swap3\n      swap2\n      pop\n      pop\n      jump\t// out\n        /* \"#utility.yul\":6951:7069   */\n    tag_144:\n        /* \"#utility.yul\":7038:7062   */\n      tag_248\n        /* \"#utility.yul\":7056:7061   */\n      dup2\n        /* \"#utility.yul\":7038:7062   */\n      tag_128\n      jump\t// in\n    tag_248:\n        /* \"#utility.yul\":7033:7036   */\n      dup3\n        /* \"#utility.yul\":7026:7063   */\n      mstore\n        /* \"#utility.yul\":6951:7069   */\n      pop\n      pop\n      jump\t// out\n        /* \"#utility.yul\":7075:7901   */\n    tag_27:\n        /* \"#utility.yul\":7312:7316   */\n      0x00\n        /* \"#utility.yul\":7350:7353   */\n      0x80\n        /* \"#utility.yul\":7339:7348   */\n      dup3\n        /* \"#utility.yul\":7335:7354   */\n      add\n        /* \"#utility.yul\":7327:7354   */\n      swap1\n      pop\n        /* \"#utility.yul\":7400:7409   */\n      dup2\n        /* \"#utility.yul\":7394:7398   */\n      dup2\n        /* \"#utility.yul\":7390:7410   */\n      sub\n        /* \"#utility.yul\":7386:7387   */\n      0x00\n        /* \"#utility.yul\":7375:7384   */\n      dup4\n        /* \"#utility.yul\":7371:7388   */\n      add\n        /* \"#utility.yul\":7364:7411   */\n      mstore\n        /* \"#utility.yul\":7428:7506   */\n      tag_250\n        /* \"#utility.yul\":7501:7505   */\n      dup2\n        /* \"#utility.yul\":7492:7498   */\n      dup8\n        /* \"#utility.yul\":7428:7506   */\n      tag_143\n      jump\t// in\n    tag_250:\n        /* \"#utility.yul\":7420:7506   */\n      swap1\n      pop\n        /* \"#utility.yul\":7516:7588   */\n      tag_251\n        /* \"#utility.yul\":7584:7586   */\n      0x20\n        /* \"#utility.yul\":7573:7582   */\n      dup4\n        /* \"#utility.yul\":7569:7587   */\n      add\n        /* \"#utility.yul\":7560:7566   */\n      dup7\n        /* \"#utility.yul\":7516:7588   */\n      tag_144\n      jump\t// in\n    tag_251:\n        /* \"#utility.yul\":7635:7644   */\n      dup2\n        /* \"#utility.yul\":7629:7633   */\n      dup2\n        /* \"#utility.yul\":7625:7645   */\n      sub\n        /* \"#utility.yul\":7620:7622   */\n      0x40\n        /* \"#utility.yul\":7609:7618   */\n      dup4\n        /* \"#utility.yul\":7605:7623   */\n      add\n        /* \"#utility.yul\":7598:7646   */\n      mstore\n        /* \"#utility.yul\":7663:7741   */\n      tag_252\n        /* \"#utility.yul\":7736:7740   */\n      dup2\n        /* \"#utility.yul\":7727:7733   */\n      dup6\n        /* \"#utility.yul\":7663:7741   */\n      tag_143\n      jump\t// in\n    tag_252:\n        /* \"#utility.yul\":7655:7741   */\n      swap1\n      pop\n        /* \"#utility.yul\":7788:7797   */\n      dup2\n        /* \"#utility.yul\":7782:7786   */\n      dup2\n        /* \"#utility.yul\":7778:7798   */\n      sub\n        /* \"#utility.yul\":7773:7775   */\n      0x60\n        /* \"#utility.yul\":7762:7771   */\n      dup4\n        /* \"#utility.yul\":7758:7776   */\n      add\n        /* \"#utility.yul\":7751:7799   */\n      mstore\n        /* \"#utility.yul\":7816:7894   */\n      tag_253\n        /* \"#utility.yul\":7889:7893   */\n      dup2\n        /* \"#utility.yul\":7880:7886   */\n      dup5\n        /* \"#utility.yul\":7816:7894   */\n      tag_143\n      jump\t// in\n    tag_253:\n        /* \"#utility.yul\":7808:7894   */\n      swap1\n      pop\n        /* \"#utility.yul\":7075:7901   */\n      swap6\n      swap5\n      pop\n      pop\n      pop\n      pop\n      pop\n      jump\t// out\n        /* \"#utility.yul\":7907:8025   */\n    tag_145:\n        /* \"#utility.yul\":7994:8018   */\n      tag_255\n        /* \"#utility.yul\":8012:8017   */\n      dup2\n        /* \"#utility.yul\":7994:8018   */\n      tag_135\n      jump\t// in\n    tag_255:\n        /* \"#utility.yul\":7989:7992   */\n      dup3\n        /* \"#utility.yul\":7982:8019   */\n      mstore\n        /* \"#utility.yul\":7907:8025   */\n      pop\n      pop\n      jump\t// out\n        /* \"#utility.yul\":8031:8253   */\n    tag_31:\n        /* \"#utility.yul\":8124:8128   */\n      0x00\n        /* \"#utility.yul\":8162:8164   */\n      0x20\n        /* \"#utility.yul\":8151:8160   */\n      dup3\n        /* \"#utility.yul\":8147:8165   */\n      add\n        /* \"#utility.yul\":8139:8165   */\n      swap1\n      pop\n        /* \"#utility.yul\":8175:8246   */\n      tag_257\n        /* \"#utility.yul\":8243:8244   */\n      0x00\n        /* \"#utility.yul\":8232:8241   */\n      dup4\n        /* \"#utility.yul\":8228:8245   */\n      add\n        /* \"#utility.yul\":8219:8225   */\n      dup5\n        /* \"#utility.yul\":8175:8246   */\n      tag_145\n      jump\t// in\n    tag_257:\n        /* \"#utility.yul\":8031:8253   */\n      swap3\n      swap2\n      pop\n      pop\n      jump\t// out\n        /* \"#utility.yul\":8259:8481   */\n    tag_35:\n        /* \"#utility.yul\":8352:8356   */\n      0x00\n        /* \"#utility.yul\":8390:8392   */\n      0x20\n        /* \"#utility.yul\":8379:8388   */\n      dup3\n        /* \"#utility.yul\":8375:8393   */\n      add\n        /* \"#utility.yul\":8367:8393   */\n      swap1\n      pop\n        /* \"#utility.yul\":8403:8474   */\n      tag_259\n        /* \"#utility.yul\":8471:8472   */\n      0x00\n        /* \"#utility.yul\":8460:8469   */\n      dup4\n        /* \"#utility.yul\":8456:8473   */\n      add\n        /* \"#utility.yul\":8447:8453   */\n      dup5\n        /* \"#utility.yul\":8403:8474   */\n      tag_144\n      jump\t// in\n    tag_259:\n        /* \"#utility.yul\":8259:8481   */\n      swap3\n      swap2\n      pop\n      pop\n      jump\t// out\n        /* \"#utility.yul\":8487:8609   */\n    tag_146:\n        /* \"#utility.yul\":8560:8584   */\n      tag_261\n        /* \"#utility.yul\":8578:8583   */\n      dup2\n        /* \"#utility.yul\":8560:8584   */\n      tag_135\n      jump\t// in\n    tag_261:\n        /* \"#utility.yul\":8553:8558   */\n      dup2\n        /* \"#utility.yul\":8550:8585   */\n      eq\n        /* \"#utility.yul\":8540:8603   */\n      tag_262\n      jumpi\n        /* \"#utility.yul\":8599:8600   */\n      0x00\n        /* \"#utility.yul\":8596:8597   */\n      0x00\n        /* \"#utility.yul\":8589:8601   */\n      revert\n        /* \"#utility.yul\":8540:8603   */\n    tag_262:\n        /* \"#utility.yul\":8487:8609   */\n      pop\n      jump\t// out\n        /* \"#utility.yul\":8615:8754   */\n    tag_147:\n        /* \"#utility.yul\":8661:8666   */\n      0x00\n        /* \"#utility.yul\":8699:8705   */\n      dup2\n        /* \"#utility.yul\":8686:8706   */\n      calldataload\n        /* \"#utility.yul\":8677:8706   */\n      swap1\n      pop\n        /* \"#utility.yul\":8715:8748   */\n      tag_264\n        /* \"#utility.yul\":8742:8747   */\n      dup2\n        /* \"#utility.yul\":8715:8748   */\n      tag_146\n      jump\t// in\n    tag_264:\n        /* \"#utility.yul\":8615:8754   */\n      swap3\n      swap2\n      pop\n      pop\n      jump\t// out\n        /* \"#utility.yul\":8760:9089   */\n    tag_38:\n        /* \"#utility.yul\":8819:8825   */\n      0x00\n        /* \"#utility.yul\":8868:8870   */\n      0x20\n        /* \"#utility.yul\":8856:8865   */\n      dup3\n        /* \"#utility.yul\":8847:8854   */\n      dup5\n        /* \"#utility.yul\":8843:8866   */\n      sub\n        /* \"#utility.yul\":8839:8871   */\n      slt\n        /* \"#utility.yul\":8836:8955   */\n      iszero\n      tag_266\n      jumpi\n        /* \"#utility.yul\":8874:8953   */\n      tag_267\n      tag_116\n      jump\t// in\n    tag_267:\n        /* \"#utility.yul\":8836:8955   */\n    tag_266:\n        /* \"#utility.yul\":8994:8995   */\n      0x00\n        /* \"#utility.yul\":9019:9072   */\n      tag_268\n        /* \"#utility.yul\":9064:9071   */\n      dup5\n        /* \"#utility.yul\":9055:9061   */\n      dup3\n        /* \"#utility.yul\":9044:9053   */\n      dup6\n        /* \"#utility.yul\":9040:9062   */\n      add\n        /* \"#utility.yul\":9019:9072   */\n      tag_147\n      jump\t// in\n    tag_268:\n        /* \"#utility.yul\":9009:9072   */\n      swap2\n      pop\n        /* \"#utility.yul\":8965:9082   */\n      pop\n        /* \"#utility.yul\":8760:9089   */\n      swap3\n      swap2\n      pop\n      pop\n      jump\t// out\n        /* \"#utility.yul\":9095:9185   */\n    tag_148:\n        /* \"#utility.yul\":9129:9136   */\n      0x00\n        /* \"#utility.yul\":9172:9177   */\n      dup2\n        /* \"#utility.yul\":9165:9178   */\n      iszero\n        /* \"#utility.yul\":9158:9179   */\n      iszero\n        /* \"#utility.yul\":9147:9179   */\n      swap1\n      pop\n        /* \"#utility.yul\":9095:9185   */\n      swap2\n      swap1\n      pop\n      jump\t// out\n        /* \"#utility.yul\":9191:9300   */\n    tag_149:\n        /* \"#utility.yul\":9272:9293   */\n      tag_271\n        /* \"#utility.yul\":9287:9292   */\n      dup2\n        /* \"#utility.yul\":9272:9293   */\n      tag_148\n      jump\t// in\n    tag_271:\n        /* \"#utility.yul\":9267:9270   */\n      dup3\n        /* \"#utility.yul\":9260:9294   */\n      mstore\n        /* \"#utility.yul\":9191:9300   */\n      pop\n      pop\n      jump\t// out\n        /* \"#utility.yul\":9306:10231   */\n    tag_41:\n        /* \"#utility.yul\":9565:9569   */\n      0x00\n        /* \"#utility.yul\":9603:9606   */\n      0xa0\n        /* \"#utility.yul\":9592:9601   */\n      dup3\n        /* \"#utility.yul\":9588:9607   */\n      add\n        /* \"#utility.yul\":9580:9607   */\n      swap1\n      pop\n        /* \"#utility.yul\":9653:9662   */\n      dup2\n        /* \"#utility.yul\":9647:9651   */\n      dup2\n        /* \"#utility.yul\":9643:9663   */\n      sub\n        /* \"#utility.yul\":9639:9640   */\n      0x00\n        /* \"#utility.yul\":9628:9637   */\n      dup4\n        /* \"#utility.yul\":9624:9641   */\n      add\n        /* \"#utility.yul\":9617:9664   */\n      mstore\n        /* \"#utility.yul\":9681:9759   */\n      tag_273\n        /* \"#utility.yul\":9754:9758   */\n      dup2\n        /* \"#utility.yul\":9745:9751   */\n      dup9\n        /* \"#utility.yul\":9681:9759   */\n      tag_143\n      jump\t// in\n    tag_273:\n        /* \"#utility.yul\":9673:9759   */\n      swap1\n      pop\n        /* \"#utility.yul\":9769:9841   */\n      tag_274\n        /* \"#utility.yul\":9837:9839   */\n      0x20\n        /* \"#utility.yul\":9826:9835   */\n      dup4\n        /* \"#utility.yul\":9822:9840   */\n      add\n        /* \"#utility.yul\":9813:9819   */\n      dup8\n        /* \"#utility.yul\":9769:9841   */\n      tag_144\n      jump\t// in\n    tag_274:\n        /* \"#utility.yul\":9888:9897   */\n      dup2\n        /* \"#utility.yul\":9882:9886   */\n      dup2\n        /* \"#utility.yul\":9878:9898   */\n      sub\n        /* \"#utility.yul\":9873:9875   */\n      0x40\n        /* \"#utility.yul\":9862:9871   */\n      dup4\n        /* \"#utility.yul\":9858:9876   */\n      add\n        /* \"#utility.yul\":9851:9899   */\n      mstore\n        /* \"#utility.yul\":9916:9994   */\n      tag_275\n        /* \"#utility.yul\":9989:9993   */\n      dup2\n        /* \"#utility.yul\":9980:9986   */\n      dup7\n        /* \"#utility.yul\":9916:9994   */\n      tag_143\n      jump\t// in\n    tag_275:\n        /* \"#utility.yul\":9908:9994   */\n      swap1\n      pop\n        /* \"#utility.yul\":10041:10050   */\n      dup2\n        /* \"#utility.yul\":10035:10039   */\n      dup2\n        /* \"#utility.yul\":10031:10051   */\n      sub\n        /* \"#utility.yul\":10026:10028   */\n      0x60\n        /* \"#utility.yul\":10015:10024   */\n      dup4\n        /* \"#utility.yul\":10011:10029   */\n      add\n        /* \"#utility.yul\":10004:10052   */\n      mstore\n        /* \"#utility.yul\":10069:10147   */\n      tag_276\n        /* \"#utility.yul\":10142:10146   */\n      dup2\n        /* \"#utility.yul\":10133:10139   */\n      dup6\n        /* \"#utility.yul\":10069:10147   */\n      tag_143\n      jump\t// in\n    tag_276:\n        /* \"#utility.yul\":10061:10147   */\n      swap1\n      pop\n        /* \"#utility.yul\":10157:10224   */\n      tag_277\n        /* \"#utility.yul\":10219:10222   */\n      0x80\n        /* \"#utility.yul\":10208:10217   */\n      dup4\n        /* \"#utility.yul\":10204:10223   */\n      add\n        /* \"#utility.yul\":10195:10201   */\n      dup5\n        /* \"#utility.yul\":10157:10224   */\n      tag_149\n      jump\t// in\n    tag_277:\n        /* \"#utility.yul\":9306:10231   */\n      swap7\n      swap6\n      pop\n      pop\n      pop\n      pop\n      pop\n      pop\n      jump\t// out\n        /* \"#utility.yul\":10237:10405   */\n    tag_150:\n        /* \"#utility.yul\":10377:10397   */\n      0x416c726561647920726567697374657265640000000000000000000000000000\n        /* \"#utility.yul\":10373:10374   */\n      0x00\n        /* \"#utility.yul\":10365:10371   */\n      dup3\n        /* \"#utility.yul\":10361:10375   */\n      add\n        /* \"#utility.yul\":10354:10398   */\n      mstore\n        /* \"#utility.yul\":10237:10405   */\n      pop\n      jump\t// out\n        /* \"#utility.yul\":10411:10777   */\n    tag_151:\n        /* \"#utility.yul\":10553:10556   */\n      0x00\n        /* \"#utility.yul\":10574:10641   */\n      tag_280\n        /* \"#utility.yul\":10638:10640   */\n      0x12\n        /* \"#utility.yul\":10633:10636   */\n      dup4\n        /* \"#utility.yul\":10574:10641   */\n      tag_141\n      jump\t// in\n    tag_280:\n        /* \"#utility.yul\":10567:10641   */\n      swap2\n      pop\n        /* \"#utility.yul\":10650:10743   */\n      tag_281\n        /* \"#utility.yul\":10739:10742   */\n      dup3\n        /* \"#utility.yul\":10650:10743   */\n      tag_150\n      jump\t// in\n    tag_281:\n        /* \"#utility.yul\":10768:10770   */\n      0x20\n        /* \"#utility.yul\":10763:10766   */\n      dup3\n        /* \"#utility.yul\":10759:10771   */\n      add\n        /* \"#utility.yul\":10752:10771   */\n      swap1\n      pop\n        /* \"#utility.yul\":10411:10777   */\n      swap2\n      swap1\n      pop\n      jump\t// out\n        /* \"#utility.yul\":10783:11202   */\n    tag_51:\n        /* \"#utility.yul\":10949:10953   */\n      0x00\n        /* \"#utility.yul\":10987:10989   */\n      0x20\n        /* \"#utility.yul\":10976:10985   */\n      dup3\n        /* \"#utility.yul\":10972:10990   */\n      add\n        /* \"#utility.yul\":10964:10990   */\n      swap1\n      pop\n        /* \"#utility.yul\":11036:11045   */\n      dup2\n        /* \"#utility.yul\":11030:11034   */\n      dup2\n        /* \"#utility.yul\":11026:11046   */\n      sub\n        /* \"#utility.yul\":11022:11023   */\n      0x00\n        /* \"#utility.yul\":11011:11020   */\n      dup4\n        /* \"#utility.yul\":11007:11024   */\n      add\n        /* \"#utility.yul\":11000:11047   */\n      mstore\n        /* \"#utility.yul\":11064:11195   */\n      tag_283\n        /* \"#utility.yul\":11190:11194   */\n      dup2\n        /* \"#utility.yul\":11064:11195   */\n      tag_151\n      jump\t// in\n    tag_283:\n        /* \"#utility.yul\":11056:11195   */\n      swap1\n      pop\n        /* \"#utility.yul\":10783:11202   */\n      swap2\n      swap1\n      pop\n      jump\t// out\n        /* \"#utility.yul\":11208:11388   */\n    tag_152:\n        /* \"#utility.yul\":11256:11333   */\n      0x4e487b7100000000000000000000000000000000000000000000000000000000\n        /* \"#utility.yul\":11253:11254   */\n      0x00\n        /* \"#utility.yul\":11246:11334   */\n      mstore\n        /* \"#utility.yul\":11353:11357   */\n      0x22\n        /* \"#utility.yul\":11350:11351   */\n      0x04\n        /* \"#utility.yul\":11343:11358   */\n      mstore\n        /* \"#utility.yul\":11377:11381   */\n      0x24\n        /* \"#utility.yul\":11374:11375   */\n      0x00\n        /* \"#utility.yul\":11367:11382   */\n      revert\n        /* \"#utility.yul\":11394:11714   */\n    tag_70:\n        /* \"#utility.yul\":11438:11444   */\n      0x00\n        /* \"#utility.yul\":11475:11476   */\n      0x02\n        /* \"#utility.yul\":11469:11473   */\n      dup3\n        /* \"#utility.yul\":11465:11477   */\n      div\n        /* \"#utility.yul\":11455:11477   */\n      swap1\n      pop\n        /* \"#utility.yul\":11522:11523   */\n      0x01\n        /* \"#utility.yul\":11516:11520   */\n      dup3\n        /* \"#utility.yul\":11512:11524   */\n      and\n        /* \"#utility.yul\":11543:11561   */\n      dup1\n        /* \"#utility.yul\":11533:11614   */\n      tag_286\n      jumpi\n        /* \"#utility.yul\":11599:11603   */\n      0x7f\n        /* \"#utility.yul\":11591:11597   */\n      dup3\n        /* \"#utility.yul\":11587:11604   */\n      and\n        /* \"#utility.yul\":11577:11604   */\n      swap2\n      pop\n        /* \"#utility.yul\":11533:11614   */\n    tag_286:\n        /* \"#utility.yul\":11661:11663   */\n      0x20\n        /* \"#utility.yul\":11653:11659   */\n      dup3\n        /* \"#utility.yul\":11650:11664   */\n      lt\n        /* \"#utility.yul\":11630:11648   */\n      dup2\n        /* \"#utility.yul\":11627:11665   */\n      sub\n        /* \"#utility.yul\":11624:11708   */\n      tag_287\n      jumpi\n        /* \"#utility.yul\":11680:11698   */\n      tag_288\n      tag_152\n      jump\t// in\n    tag_288:\n        /* \"#utility.yul\":11624:11708   */\n    tag_287:\n        /* \"#utility.yul\":11445:11714   */\n      pop\n        /* \"#utility.yul\":11394:11714   */\n      swap2\n      swap1\n      pop\n      jump\t// out\n        /* \"#utility.yul\":11720:11861   */\n    tag_153:\n        /* \"#utility.yul\":11769:11773   */\n      0x00\n        /* \"#utility.yul\":11792:11795   */\n      dup2\n        /* \"#utility.yul\":11784:11795   */\n      swap1\n      pop\n        /* \"#utility.yul\":11815:11818   */\n      dup2\n        /* \"#utility.yul\":11812:11813   */\n      0x00\n        /* \"#utility.yul\":11805:11819   */\n      mstore\n        /* \"#utility.yul\":11849:11853   */\n      0x20\n        /* \"#utility.yul\":11846:11847   */\n      0x00\n        /* \"#utility.yul\":11836:11854   */\n      keccak256\n        /* \"#utility.yul\":11828:11854   */\n      swap1\n      pop\n        /* \"#utility.yul\":11720:11861   */\n      swap2\n      swap1\n      pop\n      jump\t// out\n        /* \"#utility.yul\":11867:11960   */\n    tag_154:\n        /* \"#utility.yul\":11904:11910   */\n      0x00\n        /* \"#utility.yul\":11951:11953   */\n      0x20\n        /* \"#utility.yul\":11946:11948   */\n      0x1f\n        /* \"#utility.yul\":11939:11944   */\n      dup4\n        /* \"#utility.yul\":11935:11949   */\n      add\n        /* \"#utility.yul\":11931:11954   */\n      div\n        /* \"#utility.yul\":11921:11954   */\n      swap1\n      pop\n        /* \"#utility.yul\":11867:11960   */\n      swap2\n      swap1\n      pop\n      jump\t// out\n        /* \"#utility.yul\":11966:12073   */\n    tag_155:\n        /* \"#utility.yul\":12010:12018   */\n      0x00\n        /* \"#utility.yul\":12060:12065   */\n      dup3\n        /* \"#utility.yul\":12054:12058   */\n      dup3\n        /* \"#utility.yul\":12050:12066   */\n      shl\n        /* \"#utility.yul\":12029:12066   */\n      swap1\n      pop\n        /* \"#utility.yul\":11966:12073   */\n      swap3\n      swap2\n      pop\n      pop\n      jump\t// out\n        /* \"#utility.yul\":12079:12472   */\n    tag_156:\n        /* \"#utility.yul\":12148:12154   */\n      0x00\n        /* \"#utility.yul\":12198:12199   */\n      0x08\n        /* \"#utility.yul\":12186:12196   */\n      dup4\n        /* \"#utility.yul\":12182:12200   */\n      mul\n        /* \"#utility.yul\":12221:12318   */\n      tag_293\n        /* \"#utility.yul\":12251:12317   */\n      0xffffffffffffffffffffffffffffffffffffffffffffffffffffffffffffffff\n        /* \"#utility.yul\":12240:12249   */\n      dup3\n        /* \"#utility.yul\":12221:12318   */\n      tag_155\n      jump\t// in\n    tag_293:\n        /* \"#utility.yul\":12339:12378   */\n      tag_294\n        /* \"#utility.yul\":12369:12377   */\n      dup7\n        /* \"#utility.yul\":12358:12367   */\n      dup4\n        /* \"#utility.yul\":12339:12378   */\n      tag_155\n      jump\t// in\n    tag_294:\n        /* \"#utility.yul\":12327:12378   */\n      swap6\n      pop\n        /* \"#utility.yul\":12411:12415   */\n      dup1\n        /* \"#utility.yul\":12407:12416   */\n      not\n        /* \"#utility.yul\":12400:12405   */\n      dup5\n        /* \"#utility.yul\":12396:12417   */\n      and\n        /* \"#utility.yul\":12387:12417   */\n      swap4\n      pop\n        /* \"#utility.yul\":12460:12464   */\n      dup1\n        /* \"#utility.yul\":12450:12458   */\n      dup7\n        /* \"#utility.yul\":12446:12465   */\n      and\n        /* \"#utility.yul\":12439:12444   */\n      dup5\n        /* \"#utility.yul\":12436:12466   */\n      or\n        /* \"#utility.yul\":12426:12466   */\n      swap3\n      pop\n        /* \"#utility.yul\":12155:12472   */\n      pop\n      pop\n        /* \"#utility.yul\":12079:12472   */\n      swap4\n      swap3\n      pop\n      pop\n      pop\n      jump\t// out\n        /* \"#utility.yul\":12478:12538   */\n    tag_157:\n        /* \"#utility.yul\":12506:12509   */\n      0x00\n        /* \"#utility.yul\":12527:12532   */\n      dup2\n        /* \"#utility.yul\":12520:12532   */\n      swap1\n      pop\n        /* \"#utility.yul\":12478:12538   */\n      swap2\n      swap1\n      pop\n      jump\t// out\n        /* \"#utility.yul\":12544:12686   */\n    tag_158:\n        /* \"#utility.yul\":12594:12603   */\n      0x00\n        /* \"#utility.yul\":12627:12680   */\n      tag_297\n        /* \"#utility.yul\":12645:12679   */\n      tag_298\n        /* \"#utility.yul\":12654:12678   */\n      tag_299\n        /* \"#utility.yul\":12672:12677   */\n      dup5\n        /* \"#utility.yul\":12654:12678   */\n      tag_128\n      jump\t// in\n    tag_299:\n        /* \"#utility.yul\":12645:12679   */\n      tag_157\n      jump\t// in\n    tag_298:\n        /* \"#utility.yul\":12627:12680   */\n      tag_128\n      jump\t// in\n    tag_297:\n        /* \"#utility.yul\":12614:12680   */\n      swap1\n      pop\n        /* \"#utility.yul\":12544:12686   */\n      swap2\n      swap1\n      pop\n      jump\t// out\n        /* \"#utility.yul\":12692:12767   */\n    tag_159:\n        /* \"#utility.yul\":12735:12738   */\n      0x00\n        /* \"#utility.yul\":12756:12761   */\n      dup2\n        /* \"#utility.yul\":12749:12761   */\n      swap1\n      pop\n        /* \"#utility.yul\":12692:12767   */\n      swap2\n      swap1\n      pop\n      jump\t// out\n        /* \"#utility.yul\":12773:13042   */\n    tag_160:\n        /* \"#utility.yul\":12883:12922   */\n      tag_302\n        /* \"#utility.yul\":12914:12921   */\n      dup4\n        /* \"#utility.yul\":12883:12922   */\n      tag_158\n      jump\t// in\n    tag_302:\n        /* \"#utility.yul\":12944:13035   */\n      tag_303\n        /* \"#utility.yul\":12993:13034   */\n      tag_304\n        /* \"#utility.yul\":13017:13033   */\n      dup3\n        /* \"#utility.yul\":12993:13034   */\n      tag_159\n      jump\t// in\n    tag_304:\n        /* \"#utility.yul\":12985:12991   */\n      dup5\n        /* \"#utility.yul\":12978:12982   */\n      dup5\n        /* \"#utility.yul\":12972:12983   */\n      sload\n        /* \"#utility.yul\":12944:13035   */\n      tag_156\n      jump\t// in\n    tag_303:\n        /* \"#utility.yul\":12938:12942   */\n      dup3\n        /* \"#utility.yul\":12931:13036   */\n      sstore\n        /* \"#utility.yul\":12849:13042   */\n      pop\n        /* \"#utility.yul\":12773:13042   */\n      pop\n      pop\n      pop\n      jump\t// out\n        /* \"#utility.yul\":13048:13121   */\n    tag_161:\n        /* \"#utility.yul\":13093:13096   */\n      0x00\n        /* \"#utility.yul\":13114:13115   */\n      0x00\n        /* \"#utility.yul\":13107:13115   */\n      swap1\n      pop\n        /* \"#utility.yul\":13048:13121   */\n      swap1\n      jump\t// out\n        /* \"#utility.yul\":13127:13316   */\n    tag_162:\n        /* \"#utility.yul\":13204:13236   */\n      tag_307\n      tag_161\n      jump\t// in\n    tag_307:\n        /* \"#utility.yul\":13245:13310   */\n      tag_308\n        /* \"#utility.yul\":13303:13309   */\n      dup2\n        /* \"#utility.yul\":13295:13301   */\n      dup5\n        /* \"#utility.yul\":13289:13293   */\n      dup5\n        /* \"#utility.yul\":13245:13310   */\n      tag_160\n      jump\t// in\n    tag_308:\n        /* \"#utility.yul\":13180:13316   */\n      pop\n        /* \"#utility.yul\":13127:13316   */\n      pop\n      pop\n      jump\t// out\n        /* \"#utility.yul\":13322:13508   */\n    tag_163:\n        /* \"#utility.yul\":13382:13502   */\n    tag_310:\n        /* \"#utility.yul\":13399:13402   */\n      dup2\n        /* \"#utility.yul\":13392:13397   */\n      dup2\n        /* \"#utility.yul\":13389:13403   */\n      lt\n        /* \"#utility.yul\":13382:13502   */\n      iszero\n      tag_312\n      jumpi\n        /* \"#utility.yul\":13453:13492   */\n      tag_313\n        /* \"#utility.yul\":13490:13491   */\n      0x00\n        /* \"#utility.yul\":13483:13488   */\n      dup3\n        /* \"#utility.yul\":13453:13492   */\n      tag_162\n      jump\t// in\n    tag_313:\n        /* \"#utility.yul\":13426:13427   */\n      0x01\n        /* \"#utility.yul\":13419:13424   */\n      dup2\n        /* \"#utility.yul\":13415:13428   */\n      add\n        /* \"#utility.yul\":13406:13428   */\n      swap1\n      pop\n        /* \"#utility.yul\":13382:13502   */\n      jump(tag_310)\n    tag_312:\n        /* \"#utility.yul\":13322:13508   */\n      pop\n      pop\n      jump\t// out\n        /* \"#utility.yul\":13514:14057   */\n    tag_164:\n        /* \"#utility.yul\":13615:13617   */\n      0x1f\n        /* \"#utility.yul\":13610:13613   */\n      dup3\n        /* \"#utility.yul\":13607:13618   */\n      gt\n        /* \"#utility.yul\":13604:14050   */\n      iszero\n      tag_315\n      jumpi\n        /* \"#utility.yul\":13649:13687   */\n      tag_316\n        /* \"#utility.yul\":13681:13686   */\n      dup2\n        /* \"#utility.yul\":13649:13687   */\n      tag_153\n      jump\t// in\n    tag_316:\n        /* \"#utility.yul\":13733:13762   */\n      tag_317\n        /* \"#utility.yul\":13751:13761   */\n      dup5\n        /* \"#utility.yul\":13733:13762   */\n      tag_154\n      jump\t// in\n    tag_317:\n        /* \"#utility.yul\":13723:13731   */\n      dup2\n        /* \"#utility.yul\":13719:13763   */\n      add\n        /* \"#utility.yul\":13916:13918   */\n      0x20\n        /* \"#utility.yul\":13904:13914   */\n      dup6\n        /* \"#utility.yul\":13901:13919   */\n      lt\n        /* \"#utility.yul\":13898:13947   */\n      iszero\n      tag_318\n      jumpi\n        /* \"#utility.yul\":13937:13945   */\n      dup2\n        /* \"#utility.yul\":13922:13945   */\n      swap1\n      pop\n        /* \"#utility.yul\":13898:13947   */\n    tag_318:\n        /* \"#utility.yul\":13960:14040   */\n      tag_319\n        /* \"#utility.yul\":14016:14038   */\n      tag_320\n        /* \"#utility.yul\":14034:14037   */\n      dup6\n        /* \"#utility.yul\":14016:14038   */\n      tag_154\n      jump\t// in\n    tag_320:\n        /* \"#utility.yul\":14006:14014   */\n      dup4\n        /* \"#utility.yul\":14002:14039   */\n      add\n        /* \"#utility.yul\":13989:14000   */\n      dup3\n        /* \"#utility.yul\":13960:14040   */\n      tag_163\n      jump\t// in\n    tag_319:\n        /* \"#utility.yul\":13619:14050   */\n      pop\n      pop\n        /* \"#utility.yul\":13604:14050   */\n    tag_315:\n        /* \"#utility.yul\":13514:14057   */\n      pop\n      pop\n      pop\n      jump\t// out\n        /* \"#utility.yul\":14063:14180   */\n    tag_165:\n        /* \"#utility.yul\":14117:14125   */\n      0x00\n        /* \"#utility.yul\":14167:14172   */\n      dup3\n        /* \"#utility.yul\":14161:14165   */\n      dup3\n        /* \"#utility.yul\":14157:14173   */\n      shr\n        /* \"#utility.yul\":14136:14173   */\n      swap1\n      pop\n        /* \"#utility.yul\":14063:14180   */\n      swap3\n      swap2\n      pop\n      pop\n      jump\t// out\n        /* \"#utility.yul\":14186:14355   */\n    tag_166:\n        /* \"#utility.yul\":14230:14236   */\n      0x00\n        /* \"#utility.yul\":14263:14314   */\n      tag_323\n        /* \"#utility.yul\":14311:14312   */\n      0x00\n        /* \"#utility.yul\":14307:14313   */\n      not\n        /* \"#utility.yul\":14299:14304   */\n      dup5\n        /* \"#utility.yul\":14296:14297   */\n      0x08\n        /* \"#utility.yul\":14292:14305   */\n      mul\n        /* \"#utility.yul\":14263:14314   */\n      tag_165\n      jump\t// in\n    tag_323:\n        /* \"#utility.yul\":14259:14315   */\n      not\n        /* \"#utility.yul\":14344:14348   */\n      dup1\n        /* \"#utility.yul\":14338:14342   */\n      dup4\n        /* \"#utility.yul\":14334:14349   */\n      and\n        /* \"#utility.yul\":14324:14349   */\n      swap2\n      pop\n        /* \"#utility.yul\":14237:14355   */\n      pop\n        /* \"#utility.yul\":14186:14355   */\n      swap3\n      swap2\n      pop\n      pop\n      jump\t// out\n        /* \"#utility.yul\":14360:14655   */\n    tag_167:\n        /* \"#utility.yul\":14436:14440   */\n      0x00\n        /* \"#utility.yul\":14582:14611   */\n      tag_325\n        /* \"#utility.yul\":14607:14610   */\n      dup4\n        /* \"#utility.yul\":14601:14605   */\n      dup4\n        /* \"#utility.yul\":14582:14611   */\n      tag_166\n      jump\t// in\n    tag_325:\n        /* \"#utility.yul\":14574:14611   */\n      swap2\n      pop\n        /* \"#utility.yul\":14644:14647   */\n      dup3\n        /* \"#utility.yul\":14641:14642   */\n      0x02\n        /* \"#utility.yul\":14637:14648   */\n      mul\n        /* \"#utility.yul\":14631:14635   */\n      dup3\n        /* \"#utility.yul\":14628:14649   */\n      or\n        /* \"#utility.yul\":14620:14649   */\n      swap1\n      pop\n        /* \"#utility.yul\":14360:14655   */\n      swap3\n      swap2\n      pop\n      pop\n      jump\t// out\n        /* \"#utility.yul\":14660:16055   */\n    tag_53:\n        /* \"#utility.yul\":14777:14814   */\n      tag_327\n        /* \"#utility.yul\":14810:14813   */\n      dup3\n        /* \"#utility.yul\":14777:14814   */\n      tag_140\n      jump\t// in\n    tag_327:\n        /* \"#utility.yul\":14879:14897   */\n      0xffffffffffffffff\n        /* \"#utility.yul\":14871:14877   */\n      dup2\n        /* \"#utility.yul\":14868:14898   */\n      gt\n        /* \"#utility.yul\":14865:14921   */\n      iszero\n      tag_328\n      jumpi\n        /* \"#utility.yul\":14901:14919   */\n      tag_329\n      tag_121\n      jump\t// in\n    tag_329:\n        /* \"#utility.yul\":14865:14921   */\n    tag_328:\n        /* \"#utility.yul\":14945:14983   */\n      tag_330\n        /* \"#utility.yul\":14977:14981   */\n      dup3\n        /* \"#utility.yul\":14971:14982   */\n      sload\n        /* \"#utility.yul\":14945:14983   */\n      tag_70\n      jump\t// in\n    tag_330:\n        /* \"#utility.yul\":15030:15097   */\n      tag_331\n        /* \"#utility.yul\":15090:15096   */\n      dup3\n        /* \"#utility.yul\":15082:15088   */\n      dup3\n        /* \"#utility.yul\":15076:15080   */\n      dup6\n        /* \"#utility.yul\":15030:15097   */\n      tag_164\n      jump\t// in\n    tag_331:\n        /* \"#utility.yul\":15124:15125   */\n      0x00\n        /* \"#utility.yul\":15148:15152   */\n      0x20\n        /* \"#utility.yul\":15135:15152   */\n      swap1\n      pop\n        /* \"#utility.yul\":15180:15182   */\n      0x1f\n        /* \"#utility.yul\":15172:15178   */\n      dup4\n        /* \"#utility.yul\":15169:15183   */\n      gt\n        /* \"#utility.yul\":15197:15198   */\n      0x01\n        /* \"#utility.yul\":15192:15810   */\n      dup2\n      eq\n      tag_333\n      jumpi\n        /* \"#utility.yul\":15854:15855   */\n      0x00\n        /* \"#utility.yul\":15871:15877   */\n      dup5\n        /* \"#utility.yul\":15868:15945   */\n      iszero\n      tag_334\n      jumpi\n        /* \"#utility.yul\":15920:15929   */\n      dup3\n        /* \"#utility.yul\":15915:15918   */\n      dup8\n        /* \"#utility.yul\":15911:15930   */\n      add\n        /* \"#utility.yul\":15905:15931   */\n      mload\n        /* \"#utility.yul\":15896:15931   */\n      swap1\n      pop\n        /* \"#utility.yul\":15868:15945   */\n    tag_334:\n        /* \"#utility.yul\":15971:16038   */\n      tag_335\n        /* \"#utility.yul\":16031:16037   */\n      dup6\n        /* \"#utility.yul\":16024:16029   */\n      dup3\n        /* \"#utility.yul\":15971:16038   */\n      tag_167\n      jump\t// in\n    tag_335:\n        /* \"#utility.yul\":15965:15969   */\n      dup7\n        /* \"#utility.yul\":15958:16039   */\n      sstore\n        /* \"#utility.yul\":15827:16049   */\n      pop\n        /* \"#utility.yul\":15162:16049   */\n      jump(tag_332)\n        /* \"#utility.yul\":15192:15810   */\n    tag_333:\n        /* \"#utility.yul\":15244:15248   */\n      0x1f\n        /* \"#utility.yul\":15240:15249   */\n      not\n        /* \"#utility.yul\":15232:15238   */\n      dup5\n        /* \"#utility.yul\":15228:15250   */\n      and\n        /* \"#utility.yul\":15278:15315   */\n      tag_336\n        /* \"#utility.yul\":15310:15314   */\n      dup7\n        /* \"#utility.yul\":15278:15315   */\n      tag_153\n      jump\t// in\n    tag_336:\n        /* \"#utility.yul\":15337:15338   */\n      0x00\n        /* \"#utility.yul\":15351:15559   */\n    tag_337:\n        /* \"#utility.yul\":15365:15372   */\n      dup3\n        /* \"#utility.yul\":15362:15363   */\n      dup2\n        /* \"#utility.yul\":15359:15373   */\n      lt\n        /* \"#utility.yul\":15351:15559   */\n      iszero\n      tag_339\n      jumpi\n        /* \"#utility.yul\":15444:15453   */\n      dup5\n        /* \"#utility.yul\":15439:15442   */\n      dup10\n        /* \"#utility.yul\":15435:15454   */\n      add\n        /* \"#utility.yul\":15429:15455   */\n      mload\n        /* \"#utility.yul\":15421:15427   */\n      dup3\n        /* \"#utility.yul\":15414:15456   */\n      sstore\n        /* \"#utility.yul\":15495:15496   */\n      0x01\n        /* \"#utility.yul\":15487:15493   */\n      dup3\n        /* \"#utility.yul\":15483:15497   */\n      add\n        /* \"#utility.yul\":15473:15497   */\n      swap2\n      pop\n        /* \"#utility.yul\":15542:15544   */\n      0x20\n        /* \"#utility.yul\":15531:15540   */\n      dup6\n        /* \"#utility.yul\":15527:15545   */\n      add\n        /* \"#utility.yul\":15514:15545   */\n      swap5\n      pop\n        /* \"#utility.yul\":15388:15392   */\n      0x20\n        /* \"#utility.yul\":15385:15386   */\n      dup2\n        /* \"#utility.yul\":15381:15393   */\n      add\n        /* \"#utility.yul\":15376:15393   */\n      swap1\n      pop\n        /* \"#utility.yul\":15351:15559   */\n      jump(tag_337)\n    tag_339:\n        /* \"#utility.yul\":15587:15593   */\n      dup7\n        /* \"#utility.yul\":15578:15585   */\n      dup4\n        /* \"#utility.yul\":15575:15594   */\n      lt\n        /* \"#utility.yul\":15572:15751   */\n      iszero\n      tag_340\n      jumpi\n        /* \"#utility.yul\":15645:15654   */\n      dup5\n        /* \"#utility.yul\":15640:15643   */\n      dup10\n        /* \"#utility.yul\":15636:15655   */\n      add\n        /* \"#utility.yul\":15630:15656   */\n      mload\n        /* \"#utility.yul\":15688:15736   */\n      tag_341\n        /* \"#utility.yul\":15730:15734   */\n      0x1f\n        /* \"#utility.yul\":15722:15728   */\n      dup10\n        /* \"#utility.yul\":15718:15735   */\n      and\n        /* \"#utility.yul\":15707:15716   */\n      dup3\n        /* \"#utility.yul\":15688:15736   */\n      tag_166\n      jump\t// in\n    tag_341:\n        /* \"#utility.yul\":15680:15686   */\n      dup4\n        /* \"#utility.yul\":15673:15737   */\n      sstore\n        /* \"#utility.yul\":15595:15751   */\n      pop\n        /* \"#utility.yul\":15572:15751   */\n    tag_340:\n        /* \"#utility.yul\":15797:15798   */\n      0x01\n        /* \"#utility.yul\":15793:15794   */\n      0x02\n        /* \"#utility.yul\":15785:15791   */\n      dup9\n        /* \"#utility.yul\":15781:15795   */\n      mul\n        /* \"#utility.yul\":15777:15799   */\n      add\n        /* \"#utility.yul\":15771:15775   */\n      dup9\n        /* \"#utility.yul\":15764:15800   */\n      sstore\n        /* \"#utility.yul\":15199:15810   */\n      pop\n      pop\n      pop\n        /* \"#utility.yul\":15162:16049   */\n    tag_332:\n      pop\n        /* \"#utility.yul\":14752:16055   */\n      pop\n      pop\n      pop\n        /* \"#utility.yul\":14660:16055   */\n      pop\n      pop\n      jump\t// out\n        /* \"#utility.yul\":16061:16241   */\n    tag_168:\n        /* \"#utility.yul\":16109:16186   */\n      0x4e487b7100000000000000000000000000000000000000000000000000000000\n        /* \"#utility.yul\":16106:16107   */\n      0x00\n        /* \"#utility.yul\":16099:16187   */\n      mstore\n        /* \"#utility.yul\":16206:16210   */\n      0x11\n        /* \"#utility.yul\":16203:16204   */\n      0x04\n        /* \"#utility.yul\":16196:16211   */\n      mstore\n        /* \"#utility.yul\":16230:16234   */\n      0x24\n        /* \"#utility.yul\":16227:16228   */\n      0x00\n        /* \"#utility.yul\":16220:16235   */\n      revert\n        /* \"#utility.yul\":16247:16480   */\n    tag_58:\n        /* \"#utility.yul\":16286:16289   */\n      0x00\n        /* \"#utility.yul\":16309:16333   */\n      tag_344\n        /* \"#utility.yul\":16327:16332   */\n      dup3\n        /* \"#utility.yul\":16309:16333   */\n      tag_128\n      jump\t// in\n    tag_344:\n        /* \"#utility.yul\":16300:16333   */\n      swap2\n      pop\n        /* \"#utility.yul\":16355:16421   */\n      0xffffffffffffffffffffffffffffffffffffffffffffffffffffffffffffffff\n        /* \"#utility.yul\":16348:16353   */\n      dup3\n        /* \"#utility.yul\":16345:16422   */\n      sub\n        /* \"#utility.yul\":16342:16445   */\n      tag_345\n      jumpi\n        /* \"#utility.yul\":16425:16443   */\n      tag_346\n      tag_168\n      jump\t// in\n    tag_346:\n        /* \"#utility.yul\":16342:16445   */\n    tag_345:\n        /* \"#utility.yul\":16472:16473   */\n      0x01\n        /* \"#utility.yul\":16465:16470   */\n      dup3\n        /* \"#utility.yul\":16461:16474   */\n      add\n        /* \"#utility.yul\":16454:16474   */\n      swap1\n      pop\n        /* \"#utility.yul\":16247:16480   */\n      swap2\n      swap1\n      pop\n      jump\t// out\n        /* \"#utility.yul\":16486:16650   */\n    tag_169:\n        /* \"#utility.yul\":16626:16642   */\n      0x4e6f742072656769737465726564000000000000000000000000000000000000\n        /* \"#utility.yul\":16622:16623   */\n      0x00\n        /* \"#utility.yul\":16614:16620   */\n      dup3\n        /* \"#utility.yul\":16610:16624   */\n      add\n        /* \"#utility.yul\":16603:16643   */\n      mstore\n        /* \"#utility.yul\":16486:16650   */\n      pop\n      jump\t// out\n        /* \"#utility.yul\":16656:17022   */\n    tag_170:\n        /* \"#utility.yul\":16798:16801   */\n      0x00\n        /* \"#utility.yul\":16819:16886   */\n      tag_349\n        /* \"#utility.yul\":16883:16885   */\n      0x0e\n        /* \"#utility.yul\":16878:16881   */\n      dup4\n        /* \"#utility.yul\":16819:16886   */\n      tag_141\n      jump\t// in\n    tag_349:\n        /* \"#utility.yul\":16812:16886   */\n      swap2\n      pop\n        /* \"#utility.yul\":16895:16988   */\n      tag_350\n        /* \"#utility.yul\":16984:16987   */\n      dup3\n        /* \"#utility.yul\":16895:16988   */\n      tag_169\n      jump\t// in\n    tag_350:\n        /* \"#utility.yul\":17013:17015   */\n      0x20\n        /* \"#utility.yul\":17008:17011   */\n      dup3\n        /* \"#utility.yul\":17004:17016   */\n      add\n        /* \"#utility.yul\":16997:17016   */\n      swap1\n      pop\n        /* \"#utility.yul\":16656:17022   */\n      swap2\n      swap1\n      pop\n      jump\t// out\n        /* \"#utility.yul\":17028:17447   */\n    tag_62:\n        /* \"#utility.yul\":17194:17198   */\n      0x00\n        /* \"#utility.yul\":17232:17234   */\n      0x20\n        /* \"#utility.yul\":17221:17230   */\n      dup3\n        /* \"#utility.yul\":17217:17235   */\n      add\n        /* \"#utility.yul\":17209:17235   */\n      swap1\n      pop\n        /* \"#utility.yul\":17281:17290   */\n      dup2\n        /* \"#utility.yul\":17275:17279   */\n      dup2\n        /* \"#utility.yul\":17271:17291   */\n      sub\n        /* \"#utility.yul\":17267:17268   */\n      0x00\n        /* \"#utility.yul\":17256:17265   */\n      dup4\n        /* \"#utility.yul\":17252:17269   */\n      add\n        /* \"#utility.yul\":17245:17292   */\n      mstore\n        /* \"#utility.yul\":17309:17440   */\n      tag_352\n        /* \"#utility.yul\":17435:17439   */\n      dup2\n        /* \"#utility.yul\":17309:17440   */\n      tag_170\n      jump\t// in\n    tag_352:\n        /* \"#utility.yul\":17301:17440   */\n      swap1\n      pop\n        /* \"#utility.yul\":17028:17447   */\n      swap2\n      swap1\n      pop\n      jump\t// out\n\n    auxdata: 0xa2646970667358221220a23648d7b52627461afb525e808eb3c50c06749218a1ab407aa58dc32a24b72464736f6c634300081f0033\n}\n",
				"bytecode": {
					"linkReferences": {},
					"object": "6080604052348015600e575f5ffd5b50335f5f6101000a81548173ffffffffffffffffffffffffffffffffffffffff021916908373ffffffffffffffffffffffffffffffffffffffff1602179055506115be8061005b5f395ff3fe608060405234801561000f575f5ffd5b506004361061009c575f3560e01c80639852bf8e116100645780639852bf8e146101235780639c984a3b146101415780639cc0b7f814610175578063e8a24e0d1461017f578063eac59796146101895761009c565b806312b3f8f2146100a05780632f35a71e146100bc5780633ab9a9ec146100c6578063431bbb7e146100e45780638da5cb5b14610105575b5f5ffd5b6100ba60048036038101906100b59190610e0c565b610193565b005b6100c461037d565b005b6100ce61048e565b6040516100db9190610f7b565b60405180910390f35b6100ec610519565b6040516100fc949392919061100a565b60405180910390f35b61010d61075f565b60405161011a9190611071565b60405180910390f35b61012b610783565b604051610138919061108a565b60405180910390f35b61015b600480360381019061015691906110cd565b610789565b60405161016c959493929190611112565b60405180910390f35b61017d610959565b005b610187610a6a565b005b610191610b7b565b005b60025f3373ffffffffffffffffffffffffffffffffffffffff1673ffffffffffffffffffffffffffffffffffffffff1681526020019081526020015f206004015f9054906101000a900460ff1615610220576040517f08c379a0000000000000000000000000000000000000000000000000000000008152600401610217906111c2565b60405180910390fd5b6040518060a0016040528084815260200183815260200182815260200160405180602001604052805f81525081526020016001151581525060025f3373ffffffffffffffffffffffffffffffffffffffff1673ffffffffffffffffffffffffffffffffffffffff1681526020019081526020015f205f820151815f0190816102a891906113dd565b506020820151816001015560408201518160020190816102c891906113dd565b5060608201518160030190816102de91906113dd565b506080820151816004015f6101000a81548160ff021916908315150217905550905050600333908060018154018082558091505060019003905f5260205f20015f9091909190916101000a81548173ffffffffffffffffffffffffffffffffffffffff021916908373ffffffffffffffffffffffffffffffffffffffff16021790555060015f815480929190610373906114d9565b9190505550505050565b60025f3373ffffffffffffffffffffffffffffffffffffffff1673ffffffffffffffffffffffffffffffffffffffff1681526020019081526020015f206004015f9054906101000a900460ff16610409576040517f08c379a00000000000000000000000000000000000000000000000000000000081526004016104009061156a565b60405180910390fd5b6040518060400160405280600a81526020017f426c6f636b636861696e0000000000000000000000000000000000000000000081525060025f3373ffffffffffffffffffffffffffffffffffffffff1673ffffffffffffffffffffffffffffffffffffffff1681526020019081526020015f20600301908161048b91906113dd565b50565b6060600380548060200260200160405190810160405280929190818152602001828054801561050f57602002820191905f5260205f20905b815f9054906101000a900473ffffffffffffffffffffffffffffffffffffffff1673ffffffffffffffffffffffffffffffffffffffff16815260200190600101908083116104c6575b5050505050905090565b60605f6060805f60025f3373ffffffffffffffffffffffffffffffffffffffff1673ffffffffffffffffffffffffffffffffffffffff1681526020019081526020015f206040518060a00160405290815f820180546105779061120d565b80601f01602080910402602001604051908101604052809291908181526020018280546105a39061120d565b80156105ee5780601f106105c5576101008083540402835291602001916105ee565b820191905f5260205f20905b8154815290600101906020018083116105d157829003601f168201915b50505050508152602001600182015481526020016002820180546106119061120d565b80601f016020809104026020016040519081016040528092919081815260200182805461063d9061120d565b80156106885780601f1061065f57610100808354040283529160200191610688565b820191905f5260205f20905b81548152906001019060200180831161066b57829003601f168201915b505050505081526020016003820180546106a19061120d565b80601f01602080910402602001604051908101604052809291908181526020018280546106cd9061120d565b80156107185780601f106106ef57610100808354040283529160200191610718565b820191905f5260205f20905b8154815290600101906020018083116106fb57829003601f168201915b50505050508152602001600482015f9054906101000a900460ff1615151515815250509050805f015181602001518260400151836060015194509450945094505090919293565b5f5f9054906101000a900473ffffffffffffffffffffffffffffffffffffffff1681565b60015481565b6002602052805f5260405f205f91509050805f0180546107a89061120d565b80601f01602080910402602001604051908101604052809291908181526020018280546107d49061120d565b801561081f5780601f106107f65761010080835404028352916020019161081f565b820191905f5260205f20905b81548152906001019060200180831161080257829003601f168201915b50505050509080600101549080600201805461083a9061120d565b80601f01602080910402602001604051908101604052809291908181526020018280546108669061120d565b80156108b15780601f10610888576101008083540402835291602001916108b1565b820191905f5260205f20905b81548152906001019060200180831161089457829003601f168201915b5050505050908060030180546108c69061120d565b80601f01602080910402602001604051908101604052809291908181526020018280546108f29061120d565b801561093d5780601f106109145761010080835404028352916020019161093d565b820191905f5260205f20905b81548152906001019060200180831161092057829003601f168201915b505050505090806004015f9054906101000a900460ff16905085565b60025f3373ffffffffffffffffffffffffffffffffffffffff1673ffffffffffffffffffffffffffffffffffffffff1681526020019081526020015f206004015f9054906101000a900460ff166109e5576040517f08c379a00000000000000000000000000000000000000000000000000000000081526004016109dc9061156a565b60405180910390fd5b6040518060400160405280600281526020017f414900000000000000000000000000000000000000000000000000000000000081525060025f3373ffffffffffffffffffffffffffffffffffffffff1673ffffffffffffffffffffffffffffffffffffffff1681526020019081526020015f206003019081610a6791906113dd565b50565b60025f3373ffffffffffffffffffffffffffffffffffffffff1673ffffffffffffffffffffffffffffffffffffffff1681526020019081526020015f206004015f9054906101000a900460ff16610af6576040517f08c379a0000000000000000000000000000000000000000000000000000000008152600401610aed9061156a565b60405180910390fd5b6040518060400160405280600c81526020017f4461746120536369656e6365000000000000000000000000000000000000000081525060025f3373ffffffffffffffffffffffffffffffffffffffff1673ffffffffffffffffffffffffffffffffffffffff1681526020019081526020015f206003019081610b7891906113dd565b50565b60025f3373ffffffffffffffffffffffffffffffffffffffff1673ffffffffffffffffffffffffffffffffffffffff1681526020019081526020015f206004015f9054906101000a900460ff16610c07576040517f08c379a0000000000000000000000000000000000000000000000000000000008152600401610bfe9061156a565b60405180910390fd5b6040518060400160405280600f81526020017f57656220446576656c6f706d656e74000000000000000000000000000000000081525060025f3373ffffffffffffffffffffffffffffffffffffffff1673ffffffffffffffffffffffffffffffffffffffff1681526020019081526020015f206003019081610c8991906113dd565b50565b5f604051905090565b5f5ffd5b5f5ffd5b5f5ffd5b5f5ffd5b5f601f19601f8301169050919050565b7f4e487b71000000000000000000000000000000000000000000000000000000005f52604160045260245ffd5b610ceb82610ca5565b810181811067ffffffffffffffff82111715610d0a57610d09610cb5565b5b80604052505050565b5f610d1c610c8c565b9050610d288282610ce2565b919050565b5f67ffffffffffffffff821115610d4757610d46610cb5565b5b610d5082610ca5565b9050602081019050919050565b828183375f83830152505050565b5f610d7d610d7884610d2d565b610d13565b905082815260208101848484011115610d9957610d98610ca1565b5b610da4848285610d5d565b509392505050565b5f82601f830112610dc057610dbf610c9d565b5b8135610dd0848260208601610d6b565b91505092915050565b5f819050919050565b610deb81610dd9565b8114610df5575f5ffd5b50565b5f81359050610e0681610de2565b92915050565b5f5f5f60608486031215610e2357610e22610c95565b5b5f84013567ffffffffffffffff811115610e4057610e3f610c99565b5b610e4c86828701610dac565b9350506020610e5d86828701610df8565b925050604084013567ffffffffffffffff811115610e7e57610e7d610c99565b5b610e8a86828701610dac565b9150509250925092565b5f81519050919050565b5f82825260208201905092915050565b5f819050602082019050919050565b5f73ffffffffffffffffffffffffffffffffffffffff82169050919050565b5f610ee682610ebd565b9050919050565b610ef681610edc565b82525050565b5f610f078383610eed565b60208301905092915050565b5f602082019050919050565b5f610f2982610e94565b610f338185610e9e565b9350610f3e83610eae565b805f5b83811015610f6e578151610f558882610efc565b9750610f6083610f13565b925050600181019050610f41565b5085935050505092915050565b5f6020820190508181035f830152610f938184610f1f565b905092915050565b5f81519050919050565b5f82825260208201905092915050565b8281835e5f83830152505050565b5f610fcd82610f9b565b610fd78185610fa5565b9350610fe7818560208601610fb5565b610ff081610ca5565b840191505092915050565b61100481610dd9565b82525050565b5f6080820190508181035f8301526110228187610fc3565b90506110316020830186610ffb565b81810360408301526110438185610fc3565b905081810360608301526110578184610fc3565b905095945050505050565b61106b81610edc565b82525050565b5f6020820190506110845f830184611062565b92915050565b5f60208201905061109d5f830184610ffb565b92915050565b6110ac81610edc565b81146110b6575f5ffd5b50565b5f813590506110c7816110a3565b92915050565b5f602082840312156110e2576110e1610c95565b5b5f6110ef848285016110b9565b91505092915050565b5f8115159050919050565b61110c816110f8565b82525050565b5f60a0820190508181035f83015261112a8188610fc3565b90506111396020830187610ffb565b818103604083015261114b8186610fc3565b9050818103606083015261115f8185610fc3565b905061116e6080830184611103565b9695505050505050565b7f416c7265616479207265676973746572656400000000000000000000000000005f82015250565b5f6111ac601283610fa5565b91506111b782611178565b602082019050919050565b5f6020820190508181035f8301526111d9816111a0565b9050919050565b7f4e487b71000000000000000000000000000000000000000000000000000000005f52602260045260245ffd5b5f600282049050600182168061122457607f821691505b602082108103611237576112366111e0565b5b50919050565b5f819050815f5260205f209050919050565b5f6020601f8301049050919050565b5f82821b905092915050565b5f600883026112997fffffffffffffffffffffffffffffffffffffffffffffffffffffffffffffffff8261125e565b6112a3868361125e565b95508019841693508086168417925050509392505050565b5f819050919050565b5f6112de6112d96112d484610dd9565b6112bb565b610dd9565b9050919050565b5f819050919050565b6112f7836112c4565b61130b611303826112e5565b84845461126a565b825550505050565b5f5f905090565b611322611313565b61132d8184846112ee565b505050565b5b81811015611350576113455f8261131a565b600181019050611333565b5050565b601f821115611395576113668161123d565b61136f8461124f565b8101602085101561137e578190505b61139261138a8561124f565b830182611332565b50505b505050565b5f82821c905092915050565b5f6113b55f198460080261139a565b1980831691505092915050565b5f6113cd83836113a6565b9150826002028217905092915050565b6113e682610f9b565b67ffffffffffffffff8111156113ff576113fe610cb5565b5b611409825461120d565b611414828285611354565b5f60209050601f831160018114611445575f8415611433578287015190505b61143d85826113c2565b8655506114a4565b601f1984166114538661123d565b5f5b8281101561147a57848901518255600182019150602085019450602081019050611455565b868310156114975784890151611493601f8916826113a6565b8355505b6001600288020188555050505b505050505050565b7f4e487b71000000000000000000000000000000000000000000000000000000005f52601160045260245ffd5b5f6114e382610dd9565b91507fffffffffffffffffffffffffffffffffffffffffffffffffffffffffffffffff8203611515576115146114ac565b5b600182019050919050565b7f4e6f7420726567697374657265640000000000000000000000000000000000005f82015250565b5f611554600e83610fa5565b915061155f82611520565b602082019050919050565b5f6020820190508181035f83015261158181611548565b905091905056fea2646970667358221220a23648d7b52627461afb525e808eb3c50c06749218a1ab407aa58dc32a24b72464736f6c634300081f0033",
					"opcodes": "PUSH1 0x80 PUSH1 0x40 MSTORE CALLVALUE DUP1 ISZERO PUSH1 0xE JUMPI PUSH0 PUSH0 REVERT JUMPDEST POP CALLER PUSH0 PUSH0 PUSH2 0x100 EXP DUP2 SLOAD DUP2 PUSH20 0xFFFFFFFFFFFFFFFFFFFFFFFFFFFFFFFFFFFFFFFF MUL NOT AND SWAP1 DUP4 PUSH20 0xFFFFFFFFFFFFFFFFFFFFFFFFFFFFFFFFFFFFFFFF AND MUL OR SWAP1 SSTORE POP PUSH2 0x15BE DUP1 PUSH2 0x5B PUSH0 CODECOPY PUSH0 RETURN INVALID PUSH1 0x80 PUSH1 0x40 MSTORE CALLVALUE DUP1 ISZERO PUSH2 0xF JUMPI PUSH0 PUSH0 REVERT JUMPDEST POP PUSH1 0x4 CALLDATASIZE LT PUSH2 0x9C JUMPI PUSH0 CALLDATALOAD PUSH1 0xE0 SHR DUP1 PUSH4 0x9852BF8E GT PUSH2 0x64 JUMPI DUP1 PUSH4 0x9852BF8E EQ PUSH2 0x123 JUMPI DUP1 PUSH4 0x9C984A3B EQ PUSH2 0x141 JUMPI DUP1 PUSH4 0x9CC0B7F8 EQ PUSH2 0x175 JUMPI DUP1 PUSH4 0xE8A24E0D EQ PUSH2 0x17F JUMPI DUP1 PUSH4 0xEAC59796 EQ PUSH2 0x189 JUMPI PUSH2 0x9C JUMP JUMPDEST DUP1 PUSH4 0x12B3F8F2 EQ PUSH2 0xA0 JUMPI DUP1 PUSH4 0x2F35A71E EQ PUSH2 0xBC JUMPI DUP1 PUSH4 0x3AB9A9EC EQ PUSH2 0xC6 JUMPI DUP1 PUSH4 0x431BBB7E EQ PUSH2 0xE4 JUMPI DUP1 PUSH4 0x8DA5CB5B EQ PUSH2 0x105 JUMPI JUMPDEST PUSH0 PUSH0 REVERT JUMPDEST PUSH2 0xBA PUSH1 0x4 DUP1 CALLDATASIZE SUB DUP2 ADD SWAP1 PUSH2 0xB5 SWAP2 SWAP1 PUSH2 0xE0C JUMP JUMPDEST PUSH2 0x193 JUMP JUMPDEST STOP JUMPDEST PUSH2 0xC4 PUSH2 0x37D JUMP JUMPDEST STOP JUMPDEST PUSH2 0xCE PUSH2 0x48E JUMP JUMPDEST PUSH1 0x40 MLOAD PUSH2 0xDB SWAP2 SWAP1 PUSH2 0xF7B JUMP JUMPDEST PUSH1 0x40 MLOAD DUP1 SWAP2 SUB SWAP1 RETURN JUMPDEST PUSH2 0xEC PUSH2 0x519 JUMP JUMPDEST PUSH1 0x40 MLOAD PUSH2 0xFC SWAP5 SWAP4 SWAP3 SWAP2 SWAP1 PUSH2 0x100A JUMP JUMPDEST PUSH1 0x40 MLOAD DUP1 SWAP2 SUB SWAP1 RETURN JUMPDEST PUSH2 0x10D PUSH2 0x75F JUMP JUMPDEST PUSH1 0x40 MLOAD PUSH2 0x11A SWAP2 SWAP1 PUSH2 0x1071 JUMP JUMPDEST PUSH1 0x40 MLOAD DUP1 SWAP2 SUB SWAP1 RETURN JUMPDEST PUSH2 0x12B PUSH2 0x783 JUMP JUMPDEST PUSH1 0x40 MLOAD PUSH2 0x138 SWAP2 SWAP1 PUSH2 0x108A JUMP JUMPDEST PUSH1 0x40 MLOAD DUP1 SWAP2 SUB SWAP1 RETURN JUMPDEST PUSH2 0x15B PUSH1 0x4 DUP1 CALLDATASIZE SUB DUP2 ADD SWAP1 PUSH2 0x156 SWAP2 SWAP1 PUSH2 0x10CD JUMP JUMPDEST PUSH2 0x789 JUMP JUMPDEST PUSH1 0x40 MLOAD PUSH2 0x16C SWAP6 SWAP5 SWAP4 SWAP3 SWAP2 SWAP1 PUSH2 0x1112 JUMP JUMPDEST PUSH1 0x40 MLOAD DUP1 SWAP2 SUB SWAP1 RETURN JUMPDEST PUSH2 0x17D PUSH2 0x959 JUMP JUMPDEST STOP JUMPDEST PUSH2 0x187 PUSH2 0xA6A JUMP JUMPDEST STOP JUMPDEST PUSH2 0x191 PUSH2 0xB7B JUMP JUMPDEST STOP JUMPDEST PUSH1 0x2 PUSH0 CALLER PUSH20 0xFFFFFFFFFFFFFFFFFFFFFFFFFFFFFFFFFFFFFFFF AND PUSH20 0xFFFFFFFFFFFFFFFFFFFFFFFFFFFFFFFFFFFFFFFF AND DUP2 MSTORE PUSH1 0x20 ADD SWAP1 DUP2 MSTORE PUSH1 0x20 ADD PUSH0 KECCAK256 PUSH1 0x4 ADD PUSH0 SWAP1 SLOAD SWAP1 PUSH2 0x100 EXP SWAP1 DIV PUSH1 0xFF AND ISZERO PUSH2 0x220 JUMPI PUSH1 0x40 MLOAD PUSH32 0x8C379A000000000000000000000000000000000000000000000000000000000 DUP2 MSTORE PUSH1 0x4 ADD PUSH2 0x217 SWAP1 PUSH2 0x11C2 JUMP JUMPDEST PUSH1 0x40 MLOAD DUP1 SWAP2 SUB SWAP1 REVERT JUMPDEST PUSH1 0x40 MLOAD DUP1 PUSH1 0xA0 ADD PUSH1 0x40 MSTORE DUP1 DUP5 DUP2 MSTORE PUSH1 0x20 ADD DUP4 DUP2 MSTORE PUSH1 0x20 ADD DUP3 DUP2 MSTORE PUSH1 0x20 ADD PUSH1 0x40 MLOAD DUP1 PUSH1 0x20 ADD PUSH1 0x40 MSTORE DUP1 PUSH0 DUP2 MSTORE POP DUP2 MSTORE PUSH1 0x20 ADD PUSH1 0x1 ISZERO ISZERO DUP2 MSTORE POP PUSH1 0x2 PUSH0 CALLER PUSH20 0xFFFFFFFFFFFFFFFFFFFFFFFFFFFFFFFFFFFFFFFF AND PUSH20 0xFFFFFFFFFFFFFFFFFFFFFFFFFFFFFFFFFFFFFFFF AND DUP2 MSTORE PUSH1 0x20 ADD SWAP1 DUP2 MSTORE PUSH1 0x20 ADD PUSH0 KECCAK256 PUSH0 DUP3 ADD MLOAD DUP2 PUSH0 ADD SWAP1 DUP2 PUSH2 0x2A8 SWAP2 SWAP1 PUSH2 0x13DD JUMP JUMPDEST POP PUSH1 0x20 DUP3 ADD MLOAD DUP2 PUSH1 0x1 ADD SSTORE PUSH1 0x40 DUP3 ADD MLOAD DUP2 PUSH1 0x2 ADD SWAP1 DUP2 PUSH2 0x2C8 SWAP2 SWAP1 PUSH2 0x13DD JUMP JUMPDEST POP PUSH1 0x60 DUP3 ADD MLOAD DUP2 PUSH1 0x3 ADD SWAP1 DUP2 PUSH2 0x2DE SWAP2 SWAP1 PUSH2 0x13DD JUMP JUMPDEST POP PUSH1 0x80 DUP3 ADD MLOAD DUP2 PUSH1 0x4 ADD PUSH0 PUSH2 0x100 EXP DUP2 SLOAD DUP2 PUSH1 0xFF MUL NOT AND SWAP1 DUP4 ISZERO ISZERO MUL OR SWAP1 SSTORE POP SWAP1 POP POP PUSH1 0x3 CALLER SWAP1 DUP1 PUSH1 0x1 DUP2 SLOAD ADD DUP1 DUP3 SSTORE DUP1 SWAP2 POP POP PUSH1 0x1 SWAP1 SUB SWAP1 PUSH0 MSTORE PUSH1 0x20 PUSH0 KECCAK256 ADD PUSH0 SWAP1 SWAP2 SWAP1 SWAP2 SWAP1 SWAP2 PUSH2 0x100 EXP DUP2 SLOAD DUP2 PUSH20 0xFFFFFFFFFFFFFFFFFFFFFFFFFFFFFFFFFFFFFFFF MUL NOT AND SWAP1 DUP4 PUSH20 0xFFFFFFFFFFFFFFFFFFFFFFFFFFFFFFFFFFFFFFFF AND MUL OR SWAP1 SSTORE POP PUSH1 0x1 PUSH0 DUP2 SLOAD DUP1 SWAP3 SWAP2 SWAP1 PUSH2 0x373 SWAP1 PUSH2 0x14D9 JUMP JUMPDEST SWAP2 SWAP1 POP SSTORE POP POP POP POP JUMP JUMPDEST PUSH1 0x2 PUSH0 CALLER PUSH20 0xFFFFFFFFFFFFFFFFFFFFFFFFFFFFFFFFFFFFFFFF AND PUSH20 0xFFFFFFFFFFFFFFFFFFFFFFFFFFFFFFFFFFFFFFFF AND DUP2 MSTORE PUSH1 0x20 ADD SWAP1 DUP2 MSTORE PUSH1 0x20 ADD PUSH0 KECCAK256 PUSH1 0x4 ADD PUSH0 SWAP1 SLOAD SWAP1 PUSH2 0x100 EXP SWAP1 DIV PUSH1 0xFF AND PUSH2 0x409 JUMPI PUSH1 0x40 MLOAD PUSH32 0x8C379A000000000000000000000000000000000000000000000000000000000 DUP2 MSTORE PUSH1 0x4 ADD PUSH2 0x400 SWAP1 PUSH2 0x156A JUMP JUMPDEST PUSH1 0x40 MLOAD DUP1 SWAP2 SUB SWAP1 REVERT JUMPDEST PUSH1 0x40 MLOAD DUP1 PUSH1 0x40 ADD PUSH1 0x40 MSTORE DUP1 PUSH1 0xA DUP2 MSTORE PUSH1 0x20 ADD PUSH32 0x426C6F636B636861696E00000000000000000000000000000000000000000000 DUP2 MSTORE POP PUSH1 0x2 PUSH0 CALLER PUSH20 0xFFFFFFFFFFFFFFFFFFFFFFFFFFFFFFFFFFFFFFFF AND PUSH20 0xFFFFFFFFFFFFFFFFFFFFFFFFFFFFFFFFFFFFFFFF AND DUP2 MSTORE PUSH1 0x20 ADD SWAP1 DUP2 MSTORE PUSH1 0x20 ADD PUSH0 KECCAK256 PUSH1 0x3 ADD SWAP1 DUP2 PUSH2 0x48B SWAP2 SWAP1 PUSH2 0x13DD JUMP JUMPDEST POP JUMP JUMPDEST PUSH1 0x60 PUSH1 0x3 DUP1 SLOAD DUP1 PUSH1 0x20 MUL PUSH1 0x20 ADD PUSH1 0x40 MLOAD SWAP1 DUP2 ADD PUSH1 0x40 MSTORE DUP1 SWAP3 SWAP2 SWAP1 DUP2 DUP2 MSTORE PUSH1 0x20 ADD DUP3 DUP1 SLOAD DUP1 ISZERO PUSH2 0x50F JUMPI PUSH1 0x20 MUL DUP3 ADD SWAP2 SWAP1 PUSH0 MSTORE PUSH1 0x20 PUSH0 KECCAK256 SWAP1 JUMPDEST DUP2 PUSH0 SWAP1 SLOAD SWAP1 PUSH2 0x100 EXP SWAP1 DIV PUSH20 0xFFFFFFFFFFFFFFFFFFFFFFFFFFFFFFFFFFFFFFFF AND PUSH20 0xFFFFFFFFFFFFFFFFFFFFFFFFFFFFFFFFFFFFFFFF AND DUP2 MSTORE PUSH1 0x20 ADD SWAP1 PUSH1 0x1 ADD SWAP1 DUP1 DUP4 GT PUSH2 0x4C6 JUMPI JUMPDEST POP POP POP POP POP SWAP1 POP SWAP1 JUMP JUMPDEST PUSH1 0x60 PUSH0 PUSH1 0x60 DUP1 PUSH0 PUSH1 0x2 PUSH0 CALLER PUSH20 0xFFFFFFFFFFFFFFFFFFFFFFFFFFFFFFFFFFFFFFFF AND PUSH20 0xFFFFFFFFFFFFFFFFFFFFFFFFFFFFFFFFFFFFFFFF AND DUP2 MSTORE PUSH1 0x20 ADD SWAP1 DUP2 MSTORE PUSH1 0x20 ADD PUSH0 KECCAK256 PUSH1 0x40 MLOAD DUP1 PUSH1 0xA0 ADD PUSH1 0x40 MSTORE SWAP1 DUP2 PUSH0 DUP3 ADD DUP1 SLOAD PUSH2 0x577 SWAP1 PUSH2 0x120D JUMP JUMPDEST DUP1 PUSH1 0x1F ADD PUSH1 0x20 DUP1 SWAP2 DIV MUL PUSH1 0x20 ADD PUSH1 0x40 MLOAD SWAP1 DUP2 ADD PUSH1 0x40 MSTORE DUP1 SWAP3 SWAP2 SWAP1 DUP2 DUP2 MSTORE PUSH1 0x20 ADD DUP3 DUP1 SLOAD PUSH2 0x5A3 SWAP1 PUSH2 0x120D JUMP JUMPDEST DUP1 ISZERO PUSH2 0x5EE JUMPI DUP1 PUSH1 0x1F LT PUSH2 0x5C5 JUMPI PUSH2 0x100 DUP1 DUP4 SLOAD DIV MUL DUP4 MSTORE SWAP2 PUSH1 0x20 ADD SWAP2 PUSH2 0x5EE JUMP JUMPDEST DUP3 ADD SWAP2 SWAP1 PUSH0 MSTORE PUSH1 0x20 PUSH0 KECCAK256 SWAP1 JUMPDEST DUP2 SLOAD DUP2 MSTORE SWAP1 PUSH1 0x1 ADD SWAP1 PUSH1 0x20 ADD DUP1 DUP4 GT PUSH2 0x5D1 JUMPI DUP3 SWAP1 SUB PUSH1 0x1F AND DUP3 ADD SWAP2 JUMPDEST POP POP POP POP POP DUP2 MSTORE PUSH1 0x20 ADD PUSH1 0x1 DUP3 ADD SLOAD DUP2 MSTORE PUSH1 0x20 ADD PUSH1 0x2 DUP3 ADD DUP1 SLOAD PUSH2 0x611 SWAP1 PUSH2 0x120D JUMP JUMPDEST DUP1 PUSH1 0x1F ADD PUSH1 0x20 DUP1 SWAP2 DIV MUL PUSH1 0x20 ADD PUSH1 0x40 MLOAD SWAP1 DUP2 ADD PUSH1 0x40 MSTORE DUP1 SWAP3 SWAP2 SWAP1 DUP2 DUP2 MSTORE PUSH1 0x20 ADD DUP3 DUP1 SLOAD PUSH2 0x63D SWAP1 PUSH2 0x120D JUMP JUMPDEST DUP1 ISZERO PUSH2 0x688 JUMPI DUP1 PUSH1 0x1F LT PUSH2 0x65F JUMPI PUSH2 0x100 DUP1 DUP4 SLOAD DIV MUL DUP4 MSTORE SWAP2 PUSH1 0x20 ADD SWAP2 PUSH2 0x688 JUMP JUMPDEST DUP3 ADD SWAP2 SWAP1 PUSH0 MSTORE PUSH1 0x20 PUSH0 KECCAK256 SWAP1 JUMPDEST DUP2 SLOAD DUP2 MSTORE SWAP1 PUSH1 0x1 ADD SWAP1 PUSH1 0x20 ADD DUP1 DUP4 GT PUSH2 0x66B JUMPI DUP3 SWAP1 SUB PUSH1 0x1F AND DUP3 ADD SWAP2 JUMPDEST POP POP POP POP POP DUP2 MSTORE PUSH1 0x20 ADD PUSH1 0x3 DUP3 ADD DUP1 SLOAD PUSH2 0x6A1 SWAP1 PUSH2 0x120D JUMP JUMPDEST DUP1 PUSH1 0x1F ADD PUSH1 0x20 DUP1 SWAP2 DIV MUL PUSH1 0x20 ADD PUSH1 0x40 MLOAD SWAP1 DUP2 ADD PUSH1 0x40 MSTORE DUP1 SWAP3 SWAP2 SWAP1 DUP2 DUP2 MSTORE PUSH1 0x20 ADD DUP3 DUP1 SLOAD PUSH2 0x6CD SWAP1 PUSH2 0x120D JUMP JUMPDEST DUP1 ISZERO PUSH2 0x718 JUMPI DUP1 PUSH1 0x1F LT PUSH2 0x6EF JUMPI PUSH2 0x100 DUP1 DUP4 SLOAD DIV MUL DUP4 MSTORE SWAP2 PUSH1 0x20 ADD SWAP2 PUSH2 0x718 JUMP JUMPDEST DUP3 ADD SWAP2 SWAP1 PUSH0 MSTORE PUSH1 0x20 PUSH0 KECCAK256 SWAP1 JUMPDEST DUP2 SLOAD DUP2 MSTORE SWAP1 PUSH1 0x1 ADD SWAP1 PUSH1 0x20 ADD DUP1 DUP4 GT PUSH2 0x6FB JUMPI DUP3 SWAP1 SUB PUSH1 0x1F AND DUP3 ADD SWAP2 JUMPDEST POP POP POP POP POP DUP2 MSTORE PUSH1 0x20 ADD PUSH1 0x4 DUP3 ADD PUSH0 SWAP1 SLOAD SWAP1 PUSH2 0x100 EXP SWAP1 DIV PUSH1 0xFF AND ISZERO ISZERO ISZERO ISZERO DUP2 MSTORE POP POP SWAP1 POP DUP1 PUSH0 ADD MLOAD DUP2 PUSH1 0x20 ADD MLOAD DUP3 PUSH1 0x40 ADD MLOAD DUP4 PUSH1 0x60 ADD MLOAD SWAP5 POP SWAP5 POP SWAP5 POP SWAP5 POP POP SWAP1 SWAP2 SWAP3 SWAP4 JUMP JUMPDEST PUSH0 PUSH0 SWAP1 SLOAD SWAP1 PUSH2 0x100 EXP SWAP1 DIV PUSH20 0xFFFFFFFFFFFFFFFFFFFFFFFFFFFFFFFFFFFFFFFF AND DUP2 JUMP JUMPDEST PUSH1 0x1 SLOAD DUP2 JUMP JUMPDEST PUSH1 0x2 PUSH1 0x20 MSTORE DUP1 PUSH0 MSTORE PUSH1 0x40 PUSH0 KECCAK256 PUSH0 SWAP2 POP SWAP1 POP DUP1 PUSH0 ADD DUP1 SLOAD PUSH2 0x7A8 SWAP1 PUSH2 0x120D JUMP JUMPDEST DUP1 PUSH1 0x1F ADD PUSH1 0x20 DUP1 SWAP2 DIV MUL PUSH1 0x20 ADD PUSH1 0x40 MLOAD SWAP1 DUP2 ADD PUSH1 0x40 MSTORE DUP1 SWAP3 SWAP2 SWAP1 DUP2 DUP2 MSTORE PUSH1 0x20 ADD DUP3 DUP1 SLOAD PUSH2 0x7D4 SWAP1 PUSH2 0x120D JUMP JUMPDEST DUP1 ISZERO PUSH2 0x81F JUMPI DUP1 PUSH1 0x1F LT PUSH2 0x7F6 JUMPI PUSH2 0x100 DUP1 DUP4 SLOAD DIV MUL DUP4 MSTORE SWAP2 PUSH1 0x20 ADD SWAP2 PUSH2 0x81F JUMP JUMPDEST DUP3 ADD SWAP2 SWAP1 PUSH0 MSTORE PUSH1 0x20 PUSH0 KECCAK256 SWAP1 JUMPDEST DUP2 SLOAD DUP2 MSTORE SWAP1 PUSH1 0x1 ADD SWAP1 PUSH1 0x20 ADD DUP1 DUP4 GT PUSH2 0x802 JUMPI DUP3 SWAP1 SUB PUSH1 0x1F AND DUP3 ADD SWAP2 JUMPDEST POP POP POP POP POP SWAP1 DUP1 PUSH1 0x1 ADD SLOAD SWAP1 DUP1 PUSH1 0x2 ADD DUP1 SLOAD PUSH2 0x83A SWAP1 PUSH2 0x120D JUMP JUMPDEST DUP1 PUSH1 0x1F ADD PUSH1 0x20 DUP1 SWAP2 DIV MUL PUSH1 0x20 ADD PUSH1 0x40 MLOAD SWAP1 DUP2 ADD PUSH1 0x40 MSTORE DUP1 SWAP3 SWAP2 SWAP1 DUP2 DUP2 MSTORE PUSH1 0x20 ADD DUP3 DUP1 SLOAD PUSH2 0x866 SWAP1 PUSH2 0x120D JUMP JUMPDEST DUP1 ISZERO PUSH2 0x8B1 JUMPI DUP1 PUSH1 0x1F LT PUSH2 0x888 JUMPI PUSH2 0x100 DUP1 DUP4 SLOAD DIV MUL DUP4 MSTORE SWAP2 PUSH1 0x20 ADD SWAP2 PUSH2 0x8B1 JUMP JUMPDEST DUP3 ADD SWAP2 SWAP1 PUSH0 MSTORE PUSH1 0x20 PUSH0 KECCAK256 SWAP1 JUMPDEST DUP2 SLOAD DUP2 MSTORE SWAP1 PUSH1 0x1 ADD SWAP1 PUSH1 0x20 ADD DUP1 DUP4 GT PUSH2 0x894 JUMPI DUP3 SWAP1 SUB PUSH1 0x1F AND DUP3 ADD SWAP2 JUMPDEST POP POP POP POP POP SWAP1 DUP1 PUSH1 0x3 ADD DUP1 SLOAD PUSH2 0x8C6 SWAP1 PUSH2 0x120D JUMP JUMPDEST DUP1 PUSH1 0x1F ADD PUSH1 0x20 DUP1 SWAP2 DIV MUL PUSH1 0x20 ADD PUSH1 0x40 MLOAD SWAP1 DUP2 ADD PUSH1 0x40 MSTORE DUP1 SWAP3 SWAP2 SWAP1 DUP2 DUP2 MSTORE PUSH1 0x20 ADD DUP3 DUP1 SLOAD PUSH2 0x8F2 SWAP1 PUSH2 0x120D JUMP JUMPDEST DUP1 ISZERO PUSH2 0x93D JUMPI DUP1 PUSH1 0x1F LT PUSH2 0x914 JUMPI PUSH2 0x100 DUP1 DUP4 SLOAD DIV MUL DUP4 MSTORE SWAP2 PUSH1 0x20 ADD SWAP2 PUSH2 0x93D JUMP JUMPDEST DUP3 ADD SWAP2 SWAP1 PUSH0 MSTORE PUSH1 0x20 PUSH0 KECCAK256 SWAP1 JUMPDEST DUP2 SLOAD DUP2 MSTORE SWAP1 PUSH1 0x1 ADD SWAP1 PUSH1 0x20 ADD DUP1 DUP4 GT PUSH2 0x920 JUMPI DUP3 SWAP1 SUB PUSH1 0x1F AND DUP3 ADD SWAP2 JUMPDEST POP POP POP POP POP SWAP1 DUP1 PUSH1 0x4 ADD PUSH0 SWAP1 SLOAD SWAP1 PUSH2 0x100 EXP SWAP1 DIV PUSH1 0xFF AND SWAP1 POP DUP6 JUMP JUMPDEST PUSH1 0x2 PUSH0 CALLER PUSH20 0xFFFFFFFFFFFFFFFFFFFFFFFFFFFFFFFFFFFFFFFF AND PUSH20 0xFFFFFFFFFFFFFFFFFFFFFFFFFFFFFFFFFFFFFFFF AND DUP2 MSTORE PUSH1 0x20 ADD SWAP1 DUP2 MSTORE PUSH1 0x20 ADD PUSH0 KECCAK256 PUSH1 0x4 ADD PUSH0 SWAP1 SLOAD SWAP1 PUSH2 0x100 EXP SWAP1 DIV PUSH1 0xFF AND PUSH2 0x9E5 JUMPI PUSH1 0x40 MLOAD PUSH32 0x8C379A000000000000000000000000000000000000000000000000000000000 DUP2 MSTORE PUSH1 0x4 ADD PUSH2 0x9DC SWAP1 PUSH2 0x156A JUMP JUMPDEST PUSH1 0x40 MLOAD DUP1 SWAP2 SUB SWAP1 REVERT JUMPDEST PUSH1 0x40 MLOAD DUP1 PUSH1 0x40 ADD PUSH1 0x40 MSTORE DUP1 PUSH1 0x2 DUP2 MSTORE PUSH1 0x20 ADD PUSH32 0x4149000000000000000000000000000000000000000000000000000000000000 DUP2 MSTORE POP PUSH1 0x2 PUSH0 CALLER PUSH20 0xFFFFFFFFFFFFFFFFFFFFFFFFFFFFFFFFFFFFFFFF AND PUSH20 0xFFFFFFFFFFFFFFFFFFFFFFFFFFFFFFFFFFFFFFFF AND DUP2 MSTORE PUSH1 0x20 ADD SWAP1 DUP2 MSTORE PUSH1 0x20 ADD PUSH0 KECCAK256 PUSH1 0x3 ADD SWAP1 DUP2 PUSH2 0xA67 SWAP2 SWAP1 PUSH2 0x13DD JUMP JUMPDEST POP JUMP JUMPDEST PUSH1 0x2 PUSH0 CALLER PUSH20 0xFFFFFFFFFFFFFFFFFFFFFFFFFFFFFFFFFFFFFFFF AND PUSH20 0xFFFFFFFFFFFFFFFFFFFFFFFFFFFFFFFFFFFFFFFF AND DUP2 MSTORE PUSH1 0x20 ADD SWAP1 DUP2 MSTORE PUSH1 0x20 ADD PUSH0 KECCAK256 PUSH1 0x4 ADD PUSH0 SWAP1 SLOAD SWAP1 PUSH2 0x100 EXP SWAP1 DIV PUSH1 0xFF AND PUSH2 0xAF6 JUMPI PUSH1 0x40 MLOAD PUSH32 0x8C379A000000000000000000000000000000000000000000000000000000000 DUP2 MSTORE PUSH1 0x4 ADD PUSH2 0xAED SWAP1 PUSH2 0x156A JUMP JUMPDEST PUSH1 0x40 MLOAD DUP1 SWAP2 SUB SWAP1 REVERT JUMPDEST PUSH1 0x40 MLOAD DUP1 PUSH1 0x40 ADD PUSH1 0x40 MSTORE DUP1 PUSH1 0xC DUP2 MSTORE PUSH1 0x20 ADD PUSH32 0x4461746120536369656E63650000000000000000000000000000000000000000 DUP2 MSTORE POP PUSH1 0x2 PUSH0 CALLER PUSH20 0xFFFFFFFFFFFFFFFFFFFFFFFFFFFFFFFFFFFFFFFF AND PUSH20 0xFFFFFFFFFFFFFFFFFFFFFFFFFFFFFFFFFFFFFFFF AND DUP2 MSTORE PUSH1 0x20 ADD SWAP1 DUP2 MSTORE PUSH1 0x20 ADD PUSH0 KECCAK256 PUSH1 0x3 ADD SWAP1 DUP2 PUSH2 0xB78 SWAP2 SWAP1 PUSH2 0x13DD JUMP JUMPDEST POP JUMP JUMPDEST PUSH1 0x2 PUSH0 CALLER PUSH20 0xFFFFFFFFFFFFFFFFFFFFFFFFFFFFFFFFFFFFFFFF AND PUSH20 0xFFFFFFFFFFFFFFFFFFFFFFFFFFFFFFFFFFFFFFFF AND DUP2 MSTORE PUSH1 0x20 ADD SWAP1 DUP2 MSTORE PUSH1 0x20 ADD PUSH0 KECCAK256 PUSH1 0x4 ADD PUSH0 SWAP1 SLOAD SWAP1 PUSH2 0x100 EXP SWAP1 DIV PUSH1 0xFF AND PUSH2 0xC07 JUMPI PUSH1 0x40 MLOAD PUSH32 0x8C379A000000000000000000000000000000000000000000000000000000000 DUP2 MSTORE PUSH1 0x4 ADD PUSH2 0xBFE SWAP1 PUSH2 0x156A JUMP JUMPDEST PUSH1 0x40 MLOAD DUP1 SWAP2 SUB SWAP1 REVERT JUMPDEST PUSH1 0x40 MLOAD DUP1 PUSH1 0x40 ADD PUSH1 0x40 MSTORE DUP1 PUSH1 0xF DUP2 MSTORE PUSH1 0x20 ADD PUSH32 0x57656220446576656C6F706D656E740000000000000000000000000000000000 DUP2 MSTORE POP PUSH1 0x2 PUSH0 CALLER PUSH20 0xFFFFFFFFFFFFFFFFFFFFFFFFFFFFFFFFFFFFFFFF AND PUSH20 0xFFFFFFFFFFFFFFFFFFFFFFFFFFFFFFFFFFFFFFFF AND DUP2 MSTORE PUSH1 0x20 ADD SWAP1 DUP2 MSTORE PUSH1 0x20 ADD PUSH0 KECCAK256 PUSH1 0x3 ADD SWAP1 DUP2 PUSH2 0xC89 SWAP2 SWAP1 PUSH2 0x13DD JUMP JUMPDEST POP JUMP JUMPDEST PUSH0 PUSH1 0x40 MLOAD SWAP1 POP SWAP1 JUMP JUMPDEST PUSH0 PUSH0 REVERT JUMPDEST PUSH0 PUSH0 REVERT JUMPDEST PUSH0 PUSH0 REVERT JUMPDEST PUSH0 PUSH0 REVERT JUMPDEST PUSH0 PUSH1 0x1F NOT PUSH1 0x1F DUP4 ADD AND SWAP1 POP SWAP2 SWAP1 POP JUMP JUMPDEST PUSH32 0x4E487B7100000000000000000000000000000000000000000000000000000000 PUSH0 MSTORE PUSH1 0x41 PUSH1 0x4 MSTORE PUSH1 0x24 PUSH0 REVERT JUMPDEST PUSH2 0xCEB DUP3 PUSH2 0xCA5 JUMP JUMPDEST DUP2 ADD DUP2 DUP2 LT PUSH8 0xFFFFFFFFFFFFFFFF DUP3 GT OR ISZERO PUSH2 0xD0A JUMPI PUSH2 0xD09 PUSH2 0xCB5 JUMP JUMPDEST JUMPDEST DUP1 PUSH1 0x40 MSTORE POP POP POP JUMP JUMPDEST PUSH0 PUSH2 0xD1C PUSH2 0xC8C JUMP JUMPDEST SWAP1 POP PUSH2 0xD28 DUP3 DUP3 PUSH2 0xCE2 JUMP JUMPDEST SWAP2 SWAP1 POP JUMP JUMPDEST PUSH0 PUSH8 0xFFFFFFFFFFFFFFFF DUP3 GT ISZERO PUSH2 0xD47 JUMPI PUSH2 0xD46 PUSH2 0xCB5 JUMP JUMPDEST JUMPDEST PUSH2 0xD50 DUP3 PUSH2 0xCA5 JUMP JUMPDEST SWAP1 POP PUSH1 0x20 DUP2 ADD SWAP1 POP SWAP2 SWAP1 POP JUMP JUMPDEST DUP3 DUP2 DUP4 CALLDATACOPY PUSH0 DUP4 DUP4 ADD MSTORE POP POP POP JUMP JUMPDEST PUSH0 PUSH2 0xD7D PUSH2 0xD78 DUP5 PUSH2 0xD2D JUMP JUMPDEST PUSH2 0xD13 JUMP JUMPDEST SWAP1 POP DUP3 DUP2 MSTORE PUSH1 0x20 DUP2 ADD DUP5 DUP5 DUP5 ADD GT ISZERO PUSH2 0xD99 JUMPI PUSH2 0xD98 PUSH2 0xCA1 JUMP JUMPDEST JUMPDEST PUSH2 0xDA4 DUP5 DUP3 DUP6 PUSH2 0xD5D JUMP JUMPDEST POP SWAP4 SWAP3 POP POP POP JUMP JUMPDEST PUSH0 DUP3 PUSH1 0x1F DUP4 ADD SLT PUSH2 0xDC0 JUMPI PUSH2 0xDBF PUSH2 0xC9D JUMP JUMPDEST JUMPDEST DUP2 CALLDATALOAD PUSH2 0xDD0 DUP5 DUP3 PUSH1 0x20 DUP7 ADD PUSH2 0xD6B JUMP JUMPDEST SWAP2 POP POP SWAP3 SWAP2 POP POP JUMP JUMPDEST PUSH0 DUP2 SWAP1 POP SWAP2 SWAP1 POP JUMP JUMPDEST PUSH2 0xDEB DUP2 PUSH2 0xDD9 JUMP JUMPDEST DUP2 EQ PUSH2 0xDF5 JUMPI PUSH0 PUSH0 REVERT JUMPDEST POP JUMP JUMPDEST PUSH0 DUP2 CALLDATALOAD SWAP1 POP PUSH2 0xE06 DUP2 PUSH2 0xDE2 JUMP JUMPDEST SWAP3 SWAP2 POP POP JUMP JUMPDEST PUSH0 PUSH0 PUSH0 PUSH1 0x60 DUP5 DUP7 SUB SLT ISZERO PUSH2 0xE23 JUMPI PUSH2 0xE22 PUSH2 0xC95 JUMP JUMPDEST JUMPDEST PUSH0 DUP5 ADD CALLDATALOAD PUSH8 0xFFFFFFFFFFFFFFFF DUP2 GT ISZERO PUSH2 0xE40 JUMPI PUSH2 0xE3F PUSH2 0xC99 JUMP JUMPDEST JUMPDEST PUSH2 0xE4C DUP7 DUP3 DUP8 ADD PUSH2 0xDAC JUMP JUMPDEST SWAP4 POP POP PUSH1 0x20 PUSH2 0xE5D DUP7 DUP3 DUP8 ADD PUSH2 0xDF8 JUMP JUMPDEST SWAP3 POP POP PUSH1 0x40 DUP5 ADD CALLDATALOAD PUSH8 0xFFFFFFFFFFFFFFFF DUP2 GT ISZERO PUSH2 0xE7E JUMPI PUSH2 0xE7D PUSH2 0xC99 JUMP JUMPDEST JUMPDEST PUSH2 0xE8A DUP7 DUP3 DUP8 ADD PUSH2 0xDAC JUMP JUMPDEST SWAP2 POP POP SWAP3 POP SWAP3 POP SWAP3 JUMP JUMPDEST PUSH0 DUP2 MLOAD SWAP1 POP SWAP2 SWAP1 POP JUMP JUMPDEST PUSH0 DUP3 DUP3 MSTORE PUSH1 0x20 DUP3 ADD SWAP1 POP SWAP3 SWAP2 POP POP JUMP JUMPDEST PUSH0 DUP2 SWAP1 POP PUSH1 0x20 DUP3 ADD SWAP1 POP SWAP2 SWAP1 POP JUMP JUMPDEST PUSH0 PUSH20 0xFFFFFFFFFFFFFFFFFFFFFFFFFFFFFFFFFFFFFFFF DUP3 AND SWAP1 POP SWAP2 SWAP1 POP JUMP JUMPDEST PUSH0 PUSH2 0xEE6 DUP3 PUSH2 0xEBD JUMP JUMPDEST SWAP1 POP SWAP2 SWAP1 POP JUMP JUMPDEST PUSH2 0xEF6 DUP2 PUSH2 0xEDC JUMP JUMPDEST DUP3 MSTORE POP POP JUMP JUMPDEST PUSH0 PUSH2 0xF07 DUP4 DUP4 PUSH2 0xEED JUMP JUMPDEST PUSH1 0x20 DUP4 ADD SWAP1 POP SWAP3 SWAP2 POP POP JUMP JUMPDEST PUSH0 PUSH1 0x20 DUP3 ADD SWAP1 POP SWAP2 SWAP1 POP JUMP JUMPDEST PUSH0 PUSH2 0xF29 DUP3 PUSH2 0xE94 JUMP JUMPDEST PUSH2 0xF33 DUP2 DUP6 PUSH2 0xE9E JUMP JUMPDEST SWAP4 POP PUSH2 0xF3E DUP4 PUSH2 0xEAE JUMP JUMPDEST DUP1 PUSH0 JUMPDEST DUP4 DUP2 LT ISZERO PUSH2 0xF6E JUMPI DUP2 MLOAD PUSH2 0xF55 DUP9 DUP3 PUSH2 0xEFC JUMP JUMPDEST SWAP8 POP PUSH2 0xF60 DUP4 PUSH2 0xF13 JUMP JUMPDEST SWAP3 POP POP PUSH1 0x1 DUP2 ADD SWAP1 POP PUSH2 0xF41 JUMP JUMPDEST POP DUP6 SWAP4 POP POP POP POP SWAP3 SWAP2 POP POP JUMP JUMPDEST PUSH0 PUSH1 0x20 DUP3 ADD SWAP1 POP DUP2 DUP2 SUB PUSH0 DUP4 ADD MSTORE PUSH2 0xF93 DUP2 DUP5 PUSH2 0xF1F JUMP JUMPDEST SWAP1 POP SWAP3 SWAP2 POP POP JUMP JUMPDEST PUSH0 DUP2 MLOAD SWAP1 POP SWAP2 SWAP1 POP JUMP JUMPDEST PUSH0 DUP3 DUP3 MSTORE PUSH1 0x20 DUP3 ADD SWAP1 POP SWAP3 SWAP2 POP POP JUMP JUMPDEST DUP3 DUP2 DUP4 MCOPY PUSH0 DUP4 DUP4 ADD MSTORE POP POP POP JUMP JUMPDEST PUSH0 PUSH2 0xFCD DUP3 PUSH2 0xF9B JUMP JUMPDEST PUSH2 0xFD7 DUP2 DUP6 PUSH2 0xFA5 JUMP JUMPDEST SWAP4 POP PUSH2 0xFE7 DUP2 DUP6 PUSH1 0x20 DUP7 ADD PUSH2 0xFB5 JUMP JUMPDEST PUSH2 0xFF0 DUP2 PUSH2 0xCA5 JUMP JUMPDEST DUP5 ADD SWAP2 POP POP SWAP3 SWAP2 POP POP JUMP JUMPDEST PUSH2 0x1004 DUP2 PUSH2 0xDD9 JUMP JUMPDEST DUP3 MSTORE POP POP JUMP JUMPDEST PUSH0 PUSH1 0x80 DUP3 ADD SWAP1 POP DUP2 DUP2 SUB PUSH0 DUP4 ADD MSTORE PUSH2 0x1022 DUP2 DUP8 PUSH2 0xFC3 JUMP JUMPDEST SWAP1 POP PUSH2 0x1031 PUSH1 0x20 DUP4 ADD DUP7 PUSH2 0xFFB JUMP JUMPDEST DUP2 DUP2 SUB PUSH1 0x40 DUP4 ADD MSTORE PUSH2 0x1043 DUP2 DUP6 PUSH2 0xFC3 JUMP JUMPDEST SWAP1 POP DUP2 DUP2 SUB PUSH1 0x60 DUP4 ADD MSTORE PUSH2 0x1057 DUP2 DUP5 PUSH2 0xFC3 JUMP JUMPDEST SWAP1 POP SWAP6 SWAP5 POP POP POP POP POP JUMP JUMPDEST PUSH2 0x106B DUP2 PUSH2 0xEDC JUMP JUMPDEST DUP3 MSTORE POP POP JUMP JUMPDEST PUSH0 PUSH1 0x20 DUP3 ADD SWAP1 POP PUSH2 0x1084 PUSH0 DUP4 ADD DUP5 PUSH2 0x1062 JUMP JUMPDEST SWAP3 SWAP2 POP POP JUMP JUMPDEST PUSH0 PUSH1 0x20 DUP3 ADD SWAP1 POP PUSH2 0x109D PUSH0 DUP4 ADD DUP5 PUSH2 0xFFB JUMP JUMPDEST SWAP3 SWAP2 POP POP JUMP JUMPDEST PUSH2 0x10AC DUP2 PUSH2 0xEDC JUMP JUMPDEST DUP2 EQ PUSH2 0x10B6 JUMPI PUSH0 PUSH0 REVERT JUMPDEST POP JUMP JUMPDEST PUSH0 DUP2 CALLDATALOAD SWAP1 POP PUSH2 0x10C7 DUP2 PUSH2 0x10A3 JUMP JUMPDEST SWAP3 SWAP2 POP POP JUMP JUMPDEST PUSH0 PUSH1 0x20 DUP3 DUP5 SUB SLT ISZERO PUSH2 0x10E2 JUMPI PUSH2 0x10E1 PUSH2 0xC95 JUMP JUMPDEST JUMPDEST PUSH0 PUSH2 0x10EF DUP5 DUP3 DUP6 ADD PUSH2 0x10B9 JUMP JUMPDEST SWAP2 POP POP SWAP3 SWAP2 POP POP JUMP JUMPDEST PUSH0 DUP2 ISZERO ISZERO SWAP1 POP SWAP2 SWAP1 POP JUMP JUMPDEST PUSH2 0x110C DUP2 PUSH2 0x10F8 JUMP JUMPDEST DUP3 MSTORE POP POP JUMP JUMPDEST PUSH0 PUSH1 0xA0 DUP3 ADD SWAP1 POP DUP2 DUP2 SUB PUSH0 DUP4 ADD MSTORE PUSH2 0x112A DUP2 DUP9 PUSH2 0xFC3 JUMP JUMPDEST SWAP1 POP PUSH2 0x1139 PUSH1 0x20 DUP4 ADD DUP8 PUSH2 0xFFB JUMP JUMPDEST DUP2 DUP2 SUB PUSH1 0x40 DUP4 ADD MSTORE PUSH2 0x114B DUP2 DUP7 PUSH2 0xFC3 JUMP JUMPDEST SWAP1 POP DUP2 DUP2 SUB PUSH1 0x60 DUP4 ADD MSTORE PUSH2 0x115F DUP2 DUP6 PUSH2 0xFC3 JUMP JUMPDEST SWAP1 POP PUSH2 0x116E PUSH1 0x80 DUP4 ADD DUP5 PUSH2 0x1103 JUMP JUMPDEST SWAP7 SWAP6 POP POP POP POP POP POP JUMP JUMPDEST PUSH32 0x416C726561647920726567697374657265640000000000000000000000000000 PUSH0 DUP3 ADD MSTORE POP JUMP JUMPDEST PUSH0 PUSH2 0x11AC PUSH1 0x12 DUP4 PUSH2 0xFA5 JUMP JUMPDEST SWAP2 POP PUSH2 0x11B7 DUP3 PUSH2 0x1178 JUMP JUMPDEST PUSH1 0x20 DUP3 ADD SWAP1 POP SWAP2 SWAP1 POP JUMP JUMPDEST PUSH0 PUSH1 0x20 DUP3 ADD SWAP1 POP DUP2 DUP2 SUB PUSH0 DUP4 ADD MSTORE PUSH2 0x11D9 DUP2 PUSH2 0x11A0 JUMP JUMPDEST SWAP1 POP SWAP2 SWAP1 POP JUMP JUMPDEST PUSH32 0x4E487B7100000000000000000000000000000000000000000000000000000000 PUSH0 MSTORE PUSH1 0x22 PUSH1 0x4 MSTORE PUSH1 0x24 PUSH0 REVERT JUMPDEST PUSH0 PUSH1 0x2 DUP3 DIV SWAP1 POP PUSH1 0x1 DUP3 AND DUP1 PUSH2 0x1224 JUMPI PUSH1 0x7F DUP3 AND SWAP2 POP JUMPDEST PUSH1 0x20 DUP3 LT DUP2 SUB PUSH2 0x1237 JUMPI PUSH2 0x1236 PUSH2 0x11E0 JUMP JUMPDEST JUMPDEST POP SWAP2 SWAP1 POP JUMP JUMPDEST PUSH0 DUP2 SWAP1 POP DUP2 PUSH0 MSTORE PUSH1 0x20 PUSH0 KECCAK256 SWAP1 POP SWAP2 SWAP1 POP JUMP JUMPDEST PUSH0 PUSH1 0x20 PUSH1 0x1F DUP4 ADD DIV SWAP1 POP SWAP2 SWAP1 POP JUMP JUMPDEST PUSH0 DUP3 DUP3 SHL SWAP1 POP SWAP3 SWAP2 POP POP JUMP JUMPDEST PUSH0 PUSH1 0x8 DUP4 MUL PUSH2 0x1299 PUSH32 0xFFFFFFFFFFFFFFFFFFFFFFFFFFFFFFFFFFFFFFFFFFFFFFFFFFFFFFFFFFFFFFFF DUP3 PUSH2 0x125E JUMP JUMPDEST PUSH2 0x12A3 DUP7 DUP4 PUSH2 0x125E JUMP JUMPDEST SWAP6 POP DUP1 NOT DUP5 AND SWAP4 POP DUP1 DUP7 AND DUP5 OR SWAP3 POP POP POP SWAP4 SWAP3 POP POP POP JUMP JUMPDEST PUSH0 DUP2 SWAP1 POP SWAP2 SWAP1 POP JUMP JUMPDEST PUSH0 PUSH2 0x12DE PUSH2 0x12D9 PUSH2 0x12D4 DUP5 PUSH2 0xDD9 JUMP JUMPDEST PUSH2 0x12BB JUMP JUMPDEST PUSH2 0xDD9 JUMP JUMPDEST SWAP1 POP SWAP2 SWAP1 POP JUMP JUMPDEST PUSH0 DUP2 SWAP1 POP SWAP2 SWAP1 POP JUMP JUMPDEST PUSH2 0x12F7 DUP4 PUSH2 0x12C4 JUMP JUMPDEST PUSH2 0x130B PUSH2 0x1303 DUP3 PUSH2 0x12E5 JUMP JUMPDEST DUP5 DUP5 SLOAD PUSH2 0x126A JUMP JUMPDEST DUP3 SSTORE POP POP POP POP JUMP JUMPDEST PUSH0 PUSH0 SWAP1 POP SWAP1 JUMP JUMPDEST PUSH2 0x1322 PUSH2 0x1313 JUMP JUMPDEST PUSH2 0x132D DUP2 DUP5 DUP5 PUSH2 0x12EE JUMP JUMPDEST POP POP POP JUMP JUMPDEST JUMPDEST DUP2 DUP2 LT ISZERO PUSH2 0x1350 JUMPI PUSH2 0x1345 PUSH0 DUP3 PUSH2 0x131A JUMP JUMPDEST PUSH1 0x1 DUP2 ADD SWAP1 POP PUSH2 0x1333 JUMP JUMPDEST POP POP JUMP JUMPDEST PUSH1 0x1F DUP3 GT ISZERO PUSH2 0x1395 JUMPI PUSH2 0x1366 DUP2 PUSH2 0x123D JUMP JUMPDEST PUSH2 0x136F DUP5 PUSH2 0x124F JUMP JUMPDEST DUP2 ADD PUSH1 0x20 DUP6 LT ISZERO PUSH2 0x137E JUMPI DUP2 SWAP1 POP JUMPDEST PUSH2 0x1392 PUSH2 0x138A DUP6 PUSH2 0x124F JUMP JUMPDEST DUP4 ADD DUP3 PUSH2 0x1332 JUMP JUMPDEST POP POP JUMPDEST POP POP POP JUMP JUMPDEST PUSH0 DUP3 DUP3 SHR SWAP1 POP SWAP3 SWAP2 POP POP JUMP JUMPDEST PUSH0 PUSH2 0x13B5 PUSH0 NOT DUP5 PUSH1 0x8 MUL PUSH2 0x139A JUMP JUMPDEST NOT DUP1 DUP4 AND SWAP2 POP POP SWAP3 SWAP2 POP POP JUMP JUMPDEST PUSH0 PUSH2 0x13CD DUP4 DUP4 PUSH2 0x13A6 JUMP JUMPDEST SWAP2 POP DUP3 PUSH1 0x2 MUL DUP3 OR SWAP1 POP SWAP3 SWAP2 POP POP JUMP JUMPDEST PUSH2 0x13E6 DUP3 PUSH2 0xF9B JUMP JUMPDEST PUSH8 0xFFFFFFFFFFFFFFFF DUP2 GT ISZERO PUSH2 0x13FF JUMPI PUSH2 0x13FE PUSH2 0xCB5 JUMP JUMPDEST JUMPDEST PUSH2 0x1409 DUP3 SLOAD PUSH2 0x120D JUMP JUMPDEST PUSH2 0x1414 DUP3 DUP3 DUP6 PUSH2 0x1354 JUMP JUMPDEST PUSH0 PUSH1 0x20 SWAP1 POP PUSH1 0x1F DUP4 GT PUSH1 0x1 DUP2 EQ PUSH2 0x1445 JUMPI PUSH0 DUP5 ISZERO PUSH2 0x1433 JUMPI DUP3 DUP8 ADD MLOAD SWAP1 POP JUMPDEST PUSH2 0x143D DUP6 DUP3 PUSH2 0x13C2 JUMP JUMPDEST DUP7 SSTORE POP PUSH2 0x14A4 JUMP JUMPDEST PUSH1 0x1F NOT DUP5 AND PUSH2 0x1453 DUP7 PUSH2 0x123D JUMP JUMPDEST PUSH0 JUMPDEST DUP3 DUP2 LT ISZERO PUSH2 0x147A JUMPI DUP5 DUP10 ADD MLOAD DUP3 SSTORE PUSH1 0x1 DUP3 ADD SWAP2 POP PUSH1 0x20 DUP6 ADD SWAP5 POP PUSH1 0x20 DUP2 ADD SWAP1 POP PUSH2 0x1455 JUMP JUMPDEST DUP7 DUP4 LT ISZERO PUSH2 0x1497 JUMPI DUP5 DUP10 ADD MLOAD PUSH2 0x1493 PUSH1 0x1F DUP10 AND DUP3 PUSH2 0x13A6 JUMP JUMPDEST DUP4 SSTORE POP JUMPDEST PUSH1 0x1 PUSH1 0x2 DUP9 MUL ADD DUP9 SSTORE POP POP POP JUMPDEST POP POP POP POP POP POP JUMP JUMPDEST PUSH32 0x4E487B7100000000000000000000000000000000000000000000000000000000 PUSH0 MSTORE PUSH1 0x11 PUSH1 0x4 MSTORE PUSH1 0x24 PUSH0 REVERT JUMPDEST PUSH0 PUSH2 0x14E3 DUP3 PUSH2 0xDD9 JUMP JUMPDEST SWAP2 POP PUSH32 0xFFFFFFFFFFFFFFFFFFFFFFFFFFFFFFFFFFFFFFFFFFFFFFFFFFFFFFFFFFFFFFFF DUP3 SUB PUSH2 0x1515 JUMPI PUSH2 0x1514 PUSH2 0x14AC JUMP JUMPDEST JUMPDEST PUSH1 0x1 DUP3 ADD SWAP1 POP SWAP2 SWAP1 POP JUMP JUMPDEST PUSH32 0x4E6F742072656769737465726564000000000000000000000000000000000000 PUSH0 DUP3 ADD MSTORE POP JUMP JUMPDEST PUSH0 PUSH2 0x1554 PUSH1 0xE DUP4 PUSH2 0xFA5 JUMP JUMPDEST SWAP2 POP PUSH2 0x155F DUP3 PUSH2 0x1520 JUMP JUMPDEST PUSH1 0x20 DUP3 ADD SWAP1 POP SWAP2 SWAP1 POP JUMP JUMPDEST PUSH0 PUSH1 0x20 DUP3 ADD SWAP1 POP DUP2 DUP2 SUB PUSH0 DUP4 ADD MSTORE PUSH2 0x1581 DUP2 PUSH2 0x1548 JUMP JUMPDEST SWAP1 POP SWAP2 SWAP1 POP JUMP INVALID LOG2 PUSH5 0x6970667358 0x22 SLT KECCAK256 LOG2 CALLDATASIZE BASEFEE 0xD7 0xB5 0x26 0x27 CHAINID BYTE EXTSTATICCALL MSTORE MCOPY DUP1 DUP15 0xB3 0xC5 0xC MOD PUSH21 0x9218A1AB407AA58DC32A24B72464736F6C63430008 0x1F STOP CALLER "
				},
				"gasEstimates": {
					"creation": {
						"codeDepositCost": "1113200",
						"executionCost": "25416",
						"totalCost": "1138616"
					},
					"external": {
						"AI()": "infinite",
						"Blockchain()": "infinite",
						"Datascience()": "infinite",
						"Web_Development()": "infinite",
						"getMyDetails()": "infinite",
						"get_all_students()": "infinite",
						"owner()": "2596",
						"set_details(string,uint256,string)": "infinite",
						"student_address(address)": "infinite",
						"totalStudents()": "2425"
					}
				},
				"methodIdentifiers": {
					"AI()": "9cc0b7f8",
					"Blockchain()": "2f35a71e",
					"Datascience()": "e8a24e0d",
					"Web_Development()": "eac59796",
					"getMyDetails()": "431bbb7e",
					"get_all_students()": "3ab9a9ec",
					"owner()": "8da5cb5b",
					"set_details(string,uint256,string)": "12b3f8f2",
					"student_address(address)": "9c984a3b",
					"totalStudents()": "9852bf8e"
				}
			},
			"storageLayout": {
				"storage": [
					{
						"astId": 3,
						"contract": "CourseEnrollment.sol:CourseEnrollment",
						"label": "owner",
						"offset": 0,
						"slot": "0",
						"type": "t_address"
					},
					{
						"astId": 5,
						"contract": "CourseEnrollment.sol:CourseEnrollment",
						"label": "totalStudents",
						"offset": 0,
						"slot": "1",
						"type": "t_uint256"
					},
					{
						"astId": 21,
						"contract": "CourseEnrollment.sol:CourseEnrollment",
						"label": "student_address",
						"offset": 0,
						"slot": "2",
						"type": "t_mapping(t_address,t_struct(Student)16_storage)"
					},
					{
						"astId": 24,
						"contract": "CourseEnrollment.sol:CourseEnrollment",
						"label": "students",
						"offset": 0,
						"slot": "3",
						"type": "t_array(t_address)dyn_storage"
					}
				],
				"types": {
					"t_address": {
						"encoding": "inplace",
						"label": "address",
						"numberOfBytes": "20"
					},
					"t_array(t_address)dyn_storage": {
						"base": "t_address",
						"encoding": "dynamic_array",
						"label": "address[]",
						"numberOfBytes": "32"
					},
					"t_bool": {
						"encoding": "inplace",
						"label": "bool",
						"numberOfBytes": "1"
					},
					"t_mapping(t_address,t_struct(Student)16_storage)": {
						"encoding": "mapping",
						"key": "t_address",
						"label": "mapping(address => struct CourseEnrollment.Student)",
						"numberOfBytes": "32",
						"value": "t_struct(Student)16_storage"
					},
					"t_string_storage": {
						"encoding": "bytes",
						"label": "string",
						"numberOfBytes": "32"
					},
					"t_struct(Student)16_storage": {
						"encoding": "inplace",
						"label": "struct CourseEnrollment.Student",
						"members": [
							{
								"astId": 7,
								"contract": "CourseEnrollment.sol:CourseEnrollment",
								"label": "name",
								"offset": 0,
								"slot": "0",
								"type": "t_string_storage"
							},
							{
								"astId": 9,
								"contract": "CourseEnrollment.sol:CourseEnrollment",
								"label": "age",
								"offset": 0,
								"slot": "1",
								"type": "t_uint256"
							},
							{
								"astId": 11,
								"contract": "CourseEnrollment.sol:CourseEnrollment",
								"label": "university",
								"offset": 0,
								"slot": "2",
								"type": "t_string_storage"
							},
							{
								"astId": 13,
								"contract": "CourseEnrollment.sol:CourseEnrollment",
								"label": "course",
								"offset": 0,
								"slot": "3",
								"type": "t_string_storage"
							},
							{
								"astId": 15,
								"contract": "CourseEnrollment.sol:CourseEnrollment",
								"label": "isRegistered",
								"offset": 0,
								"slot": "4",
								"type": "t_bool"
							}
						],
						"numberOfBytes": "160"
					},
					"t_uint256": {
						"encoding": "inplace",
						"label": "uint256",
						"numberOfBytes": "32"
					}
				}
			},
			"userdoc": {
				"kind": "user",
				"methods": {},
				"version": 1
			}
		}
	}
}