{
	"Calculator.sol": {
		"Calculator": {
			"abi": [
				{
					"inputs": [
						{
							"internalType": "uint256",
							"name": "a",
							"type": "uint256"
						},
						{
							"internalType": "uint256",
							"name": "b",
							"type": "uint256"
						}
					],
					"name": "add",
					"outputs": [
						{
							"internalType": "uint256",
							"name": "",
							"type": "uint256"
						}
					],
					"stateMutability": "pure",
					"type": "function"
				},
				{
					"inputs": [
						{
							"internalType": "uint256",
							"name": "a",
							"type": "uint256"
						},
						{
							"internalType": "uint256",
							"name": "b",
							"type": "uint256"
						}
					],
					"name": "divide",
					"outputs": [
						{
							"internalType": "uint256",
							"name": "",
							"type": "uint256"
						}
					],
					"stateMutability": "pure",
					"type": "function"
				},
				{
					"inputs": [
						{
							"internalType": "uint256",
							"name": "a",
							"type": "uint256"
						},
						{
							"internalType": "uint256",
							"name": "b",
							"type": "uint256"
						}
					],
					"name": "modulus",
					"outputs": [
						{
							"internalType": "uint256",
							"name": "",
							"type": "uint256"
						}
					],
					"stateMutability": "pure",
					"type": "function"
				},
				{
					"inputs": [
						{
							"internalType": "uint256",
							"name": "a",
							"type": "uint256"
						},
						{
							"internalType": "uint256",
							"name": "b",
							"type": "uint256"
						}
					],
					"name": "multiply",
					"outputs": [
						{
							"internalType": "uint256",
							"name": "",
							"type": "uint256"
						}
					],
					"stateMutability": "pure",
					"type": "function"
				},
				{
					"inputs": [
						{
							"internalType": "uint256",
							"name": "a",
							"type": "uint256"
						},
						{
							"internalType": "uint256",
							"name": "b",
							"type": "uint256"
						}
					],
					"name": "subract",
					"outputs": [
						{
							"internalType": "uint256",
							"name": "",
							"type": "uint256"
						}
					],
					"stateMutability": "pure",
					"type": "function"
				}
			],
			"devdoc": {
				"kind": "dev",
				"methods": {},
				"version": 1
			},
			"evm": {
				"assembly": "    /* \"Calculator.sol\":61:664  contract Calculator{... */\n  mstore(0x40, 0x80)\n  callvalue\n  dup1\n  iszero\n  tag_1\n  jumpi\n  revert(0x00, 0x00)\ntag_1:\n  pop\n  dataSize(sub_0)\n  dup1\n  dataOffset(sub_0)\n  0x00\n  codecopy\n  0x00\n  return\nstop\n\nsub_0: assembly {\n        /* \"Calculator.sol\":61:664  contract Calculator{... */\n      mstore(0x40, 0x80)\n      callvalue\n      dup1\n      iszero\n      tag_1\n      jumpi\n      revert(0x00, 0x00)\n    tag_1:\n      pop\n      jumpi(tag_2, lt(calldatasize, 0x04))\n      shr(0xe0, calldataload(0x00))\n      dup1\n      0x0e883d9e\n      eq\n      tag_3\n      jumpi\n      dup1\n      0x165c4a16\n      eq\n      tag_4\n      jumpi\n      dup1\n      0x771602f7\n      eq\n      tag_5\n      jumpi\n      dup1\n      0xce406417\n      eq\n      tag_6\n      jumpi\n      dup1\n      0xf88e9fbf\n      eq\n      tag_7\n      jumpi\n    tag_2:\n      revert(0x00, 0x00)\n        /* \"Calculator.sol\":215:307  function subract (uint a, uint b) public pure returns (uint) {... */\n    tag_3:\n      tag_8\n      0x04\n      dup1\n      calldatasize\n      sub\n      dup2\n      add\n      swap1\n      tag_9\n      swap2\n      swap1\n      tag_10\n      jump\t// in\n    tag_9:\n      tag_11\n      jump\t// in\n    tag_8:\n      mload(0x40)\n      tag_12\n      swap2\n      swap1\n      tag_13\n      jump\t// in\n    tag_12:\n      mload(0x40)\n      dup1\n      swap2\n      sub\n      swap1\n      return\n        /* \"Calculator.sol\":336:429  function multiply (uint a, uint b) public pure returns (uint) {... */\n    tag_4:\n      tag_14\n      0x04\n      dup1\n      calldatasize\n      sub\n      dup2\n      add\n      swap1\n      tag_15\n      swap2\n      swap1\n      tag_10\n      jump\t// in\n    tag_15:\n      tag_16\n      jump\t// in\n    tag_14:\n      mload(0x40)\n      tag_17\n      swap2\n      swap1\n      tag_13\n      jump\t// in\n    tag_17:\n      mload(0x40)\n      dup1\n      swap2\n      sub\n      swap1\n      return\n        /* \"Calculator.sol\":102:188  function add (uint a, uint b) public pure returns (uint) {... */\n    tag_5:\n      tag_18\n      0x04\n      dup1\n      calldatasize\n      sub\n      dup2\n      add\n      swap1\n      tag_19\n      swap2\n      swap1\n      tag_10\n      jump\t// in\n    tag_19:\n      tag_20\n      jump\t// in\n    tag_18:\n      mload(0x40)\n      tag_21\n      swap2\n      swap1\n      tag_13\n      jump\t// in\n    tag_21:\n      mload(0x40)\n      dup1\n      swap2\n      sub\n      swap1\n      return\n        /* \"Calculator.sol\":563:655  function modulus (uint a, uint b) public pure returns (uint) {... */\n    tag_6:\n      tag_22\n      0x04\n      dup1\n      calldatasize\n      sub\n      dup2\n      add\n      swap1\n      tag_23\n      swap2\n      swap1\n      tag_10\n      jump\t// in\n    tag_23:\n      tag_24\n      jump\t// in\n    tag_22:\n      mload(0x40)\n      tag_25\n      swap2\n      swap1\n      tag_13\n      jump\t// in\n    tag_25:\n      mload(0x40)\n      dup1\n      swap2\n      sub\n      swap1\n      return\n        /* \"Calculator.sol\":451:542  function divide (uint a, uint b) public pure returns (uint) {... */\n    tag_7:\n      tag_26\n      0x04\n      dup1\n      calldatasize\n      sub\n      dup2\n      add\n      swap1\n      tag_27\n      swap2\n      swap1\n      tag_10\n      jump\t// in\n    tag_27:\n      tag_28\n      jump\t// in\n    tag_26:\n      mload(0x40)\n      tag_29\n      swap2\n      swap1\n      tag_13\n      jump\t// in\n    tag_29:\n      mload(0x40)\n      dup1\n      swap2\n      sub\n      swap1\n      return\n        /* \"Calculator.sol\":215:307  function subract (uint a, uint b) public pure returns (uint) {... */\n    tag_11:\n        /* \"Calculator.sol\":270:274  uint */\n      0x00\n        /* \"Calculator.sol\":298:299  b */\n      dup2\n        /* \"Calculator.sol\":294:295  a */\n      dup4\n        /* \"Calculator.sol\":294:299  a - b */\n      tag_31\n      swap2\n      swap1\n      tag_32\n      jump\t// in\n    tag_31:\n        /* \"Calculator.sol\":287:299  return a - b */\n      swap1\n      pop\n        /* \"Calculator.sol\":215:307  function subract (uint a, uint b) public pure returns (uint) {... */\n      swap3\n      swap2\n      pop\n      pop\n      jump\t// out\n        /* \"Calculator.sol\":336:429  function multiply (uint a, uint b) public pure returns (uint) {... */\n    tag_16:\n        /* \"Calculator.sol\":392:396  uint */\n      0x00\n        /* \"Calculator.sol\":420:421  b */\n      dup2\n        /* \"Calculator.sol\":416:417  a */\n      dup4\n        /* \"Calculator.sol\":416:421  a * b */\n      tag_34\n      swap2\n      swap1\n      tag_35\n      jump\t// in\n    tag_34:\n        /* \"Calculator.sol\":409:421  return a * b */\n      swap1\n      pop\n        /* \"Calculator.sol\":336:429  function multiply (uint a, uint b) public pure returns (uint) {... */\n      swap3\n      swap2\n      pop\n      pop\n      jump\t// out\n        /* \"Calculator.sol\":102:188  function add (uint a, uint b) public pure returns (uint) {... */\n    tag_20:\n        /* \"Calculator.sol\":153:157  uint */\n      0x00\n        /* \"Calculator.sol\":179:180  b */\n      dup2\n        /* \"Calculator.sol\":175:176  a */\n      dup4\n        /* \"Calculator.sol\":175:180  a + b */\n      tag_37\n      swap2\n      swap1\n      tag_38\n      jump\t// in\n    tag_37:\n        /* \"Calculator.sol\":167:180  return  a + b */\n      swap1\n      pop\n        /* \"Calculator.sol\":102:188  function add (uint a, uint b) public pure returns (uint) {... */\n      swap3\n      swap2\n      pop\n      pop\n      jump\t// out\n        /* \"Calculator.sol\":563:655  function modulus (uint a, uint b) public pure returns (uint) {... */\n    tag_24:\n        /* \"Calculator.sol\":618:622  uint */\n      0x00\n        /* \"Calculator.sol\":646:647  b */\n      dup2\n        /* \"Calculator.sol\":642:643  a */\n      dup4\n        /* \"Calculator.sol\":642:647  a % b */\n      tag_40\n      swap2\n      swap1\n      tag_41\n      jump\t// in\n    tag_40:\n        /* \"Calculator.sol\":635:647  return a % b */\n      swap1\n      pop\n        /* \"Calculator.sol\":563:655  function modulus (uint a, uint b) public pure returns (uint) {... */\n      swap3\n      swap2\n      pop\n      pop\n      jump\t// out\n        /* \"Calculator.sol\":451:542  function divide (uint a, uint b) public pure returns (uint) {... */\n    tag_28:\n        /* \"Calculator.sol\":505:509  uint */\n      0x00\n        /* \"Calculator.sol\":533:534  b */\n      dup2\n        /* \"Calculator.sol\":529:530  a */\n      dup4\n        /* \"Calculator.sol\":529:534  a / b */\n      tag_43\n      swap2\n      swap1\n      tag_44\n      jump\t// in\n    tag_43:\n        /* \"Calculator.sol\":522:534  return a / b */\n      swap1\n      pop\n        /* \"Calculator.sol\":451:542  function divide (uint a, uint b) public pure returns (uint) {... */\n      swap3\n      swap2\n      pop\n      pop\n      jump\t// out\n        /* \"#utility.yul\":88:205   */\n    tag_46:\n        /* \"#utility.yul\":197:198   */\n      0x00\n        /* \"#utility.yul\":194:195   */\n      0x00\n        /* \"#utility.yul\":187:199   */\n      revert\n        /* \"#utility.yul\":334:411   */\n    tag_48:\n        /* \"#utility.yul\":371:378   */\n      0x00\n        /* \"#utility.yul\":400:405   */\n      dup2\n        /* \"#utility.yul\":389:405   */\n      swap1\n      pop\n        /* \"#utility.yul\":334:411   */\n      swap2\n      swap1\n      pop\n      jump\t// out\n        /* \"#utility.yul\":417:539   */\n    tag_49:\n        /* \"#utility.yul\":490:514   */\n      tag_60\n        /* \"#utility.yul\":508:513   */\n      dup2\n        /* \"#utility.yul\":490:514   */\n      tag_48\n      jump\t// in\n    tag_60:\n        /* \"#utility.yul\":483:488   */\n      dup2\n        /* \"#utility.yul\":480:515   */\n      eq\n        /* \"#utility.yul\":470:533   */\n      tag_61\n      jumpi\n        /* \"#utility.yul\":529:530   */\n      0x00\n        /* \"#utility.yul\":526:527   */\n      0x00\n        /* \"#utility.yul\":519:531   */\n      revert\n        /* \"#utility.yul\":470:533   */\n    tag_61:\n        /* \"#utility.yul\":417:539   */\n      pop\n      jump\t// out\n        /* \"#utility.yul\":545:684   */\n    tag_50:\n        /* \"#utility.yul\":591:596   */\n      0x00\n        /* \"#utility.yul\":629:635   */\n      dup2\n        /* \"#utility.yul\":616:636   */\n      calldataload\n        /* \"#utility.yul\":607:636   */\n      swap1\n      pop\n        /* \"#utility.yul\":645:678   */\n      tag_63\n        /* \"#utility.yul\":672:677   */\n      dup2\n        /* \"#utility.yul\":645:678   */\n      tag_49\n      jump\t// in\n    tag_63:\n        /* \"#utility.yul\":545:684   */\n      swap3\n      swap2\n      pop\n      pop\n      jump\t// out\n        /* \"#utility.yul\":690:1164   */\n    tag_10:\n        /* \"#utility.yul\":758:764   */\n      0x00\n        /* \"#utility.yul\":766:772   */\n      0x00\n        /* \"#utility.yul\":815:817   */\n      0x40\n        /* \"#utility.yul\":803:812   */\n      dup4\n        /* \"#utility.yul\":794:801   */\n      dup6\n        /* \"#utility.yul\":790:813   */\n      sub\n        /* \"#utility.yul\":786:818   */\n      slt\n        /* \"#utility.yul\":783:902   */\n      iszero\n      tag_65\n      jumpi\n        /* \"#utility.yul\":821:900   */\n      tag_66\n      tag_46\n      jump\t// in\n    tag_66:\n        /* \"#utility.yul\":783:902   */\n    tag_65:\n        /* \"#utility.yul\":941:942   */\n      0x00\n        /* \"#utility.yul\":966:1019   */\n      tag_67\n        /* \"#utility.yul\":1011:1018   */\n      dup6\n        /* \"#utility.yul\":1002:1008   */\n      dup3\n        /* \"#utility.yul\":991:1000   */\n      dup7\n        /* \"#utility.yul\":987:1009   */\n      add\n        /* \"#utility.yul\":966:1019   */\n      tag_50\n      jump\t// in\n    tag_67:\n        /* \"#utility.yul\":956:1019   */\n      swap3\n      pop\n        /* \"#utility.yul\":912:1029   */\n      pop\n        /* \"#utility.yul\":1068:1070   */\n      0x20\n        /* \"#utility.yul\":1094:1147   */\n      tag_68\n        /* \"#utility.yul\":1139:1146   */\n      dup6\n        /* \"#utility.yul\":1130:1136   */\n      dup3\n        /* \"#utility.yul\":1119:1128   */\n      dup7\n        /* \"#utility.yul\":1115:1137   */\n      add\n        /* \"#utility.yul\":1094:1147   */\n      tag_50\n      jump\t// in\n    tag_68:\n        /* \"#utility.yul\":1084:1147   */\n      swap2\n      pop\n        /* \"#utility.yul\":1039:1157   */\n      pop\n        /* \"#utility.yul\":690:1164   */\n      swap3\n      pop\n      swap3\n      swap1\n      pop\n      jump\t// out\n        /* \"#utility.yul\":1170:1288   */\n    tag_51:\n        /* \"#utility.yul\":1257:1281   */\n      tag_70\n        /* \"#utility.yul\":1275:1280   */\n      dup2\n        /* \"#utility.yul\":1257:1281   */\n      tag_48\n      jump\t// in\n    tag_70:\n        /* \"#utility.yul\":1252:1255   */\n      dup3\n        /* \"#utility.yul\":1245:1282   */\n      mstore\n        /* \"#utility.yul\":1170:1288   */\n      pop\n      pop\n      jump\t// out\n        /* \"#utility.yul\":1294:1516   */\n    tag_13:\n        /* \"#utility.yul\":1387:1391   */\n      0x00\n        /* \"#utility.yul\":1425:1427   */\n      0x20\n        /* \"#utility.yul\":1414:1423   */\n      dup3\n        /* \"#utility.yul\":1410:1428   */\n      add\n        /* \"#utility.yul\":1402:1428   */\n      swap1\n      pop\n        /* \"#utility.yul\":1438:1509   */\n      tag_72\n        /* \"#utility.yul\":1506:1507   */\n      0x00\n        /* \"#utility.yul\":1495:1504   */\n      dup4\n        /* \"#utility.yul\":1491:1508   */\n      add\n        /* \"#utility.yul\":1482:1488   */\n      dup5\n        /* \"#utility.yul\":1438:1509   */\n      tag_51\n      jump\t// in\n    tag_72:\n        /* \"#utility.yul\":1294:1516   */\n      swap3\n      swap2\n      pop\n      pop\n      jump\t// out\n        /* \"#utility.yul\":1522:1702   */\n    tag_52:\n        /* \"#utility.yul\":1570:1647   */\n      0x4e487b7100000000000000000000000000000000000000000000000000000000\n        /* \"#utility.yul\":1567:1568   */\n      0x00\n        /* \"#utility.yul\":1560:1648   */\n      mstore\n        /* \"#utility.yul\":1667:1671   */\n      0x11\n        /* \"#utility.yul\":1664:1665   */\n      0x04\n        /* \"#utility.yul\":1657:1672   */\n      mstore\n        /* \"#utility.yul\":1691:1695   */\n      0x24\n        /* \"#utility.yul\":1688:1689   */\n      0x00\n        /* \"#utility.yul\":1681:1696   */\n      revert\n        /* \"#utility.yul\":1708:1902   */\n    tag_32:\n        /* \"#utility.yul\":1748:1752   */\n      0x00\n        /* \"#utility.yul\":1768:1788   */\n      tag_75\n        /* \"#utility.yul\":1786:1787   */\n      dup3\n        /* \"#utility.yul\":1768:1788   */\n      tag_48\n      jump\t// in\n    tag_75:\n        /* \"#utility.yul\":1763:1788   */\n      swap2\n      pop\n        /* \"#utility.yul\":1802:1822   */\n      tag_76\n        /* \"#utility.yul\":1820:1821   */\n      dup4\n        /* \"#utility.yul\":1802:1822   */\n      tag_48\n      jump\t// in\n    tag_76:\n        /* \"#utility.yul\":1797:1822   */\n      swap3\n      pop\n        /* \"#utility.yul\":1846:1847   */\n      dup3\n        /* \"#utility.yul\":1843:1844   */\n      dup3\n        /* \"#utility.yul\":1839:1848   */\n      sub\n        /* \"#utility.yul\":1831:1848   */\n      swap1\n      pop\n        /* \"#utility.yul\":1870:1871   */\n      dup2\n        /* \"#utility.yul\":1864:1868   */\n      dup2\n        /* \"#utility.yul\":1861:1872   */\n      gt\n        /* \"#utility.yul\":1858:1895   */\n      iszero\n      tag_77\n      jumpi\n        /* \"#utility.yul\":1875:1893   */\n      tag_78\n      tag_52\n      jump\t// in\n    tag_78:\n        /* \"#utility.yul\":1858:1895   */\n    tag_77:\n        /* \"#utility.yul\":1708:1902   */\n      swap3\n      swap2\n      pop\n      pop\n      jump\t// out\n        /* \"#utility.yul\":1908:2318   */\n    tag_35:\n        /* \"#utility.yul\":1948:1955   */\n      0x00\n        /* \"#utility.yul\":1971:1991   */\n      tag_80\n        /* \"#utility.yul\":1989:1990   */\n      dup3\n        /* \"#utility.yul\":1971:1991   */\n      tag_48\n      jump\t// in\n    tag_80:\n        /* \"#utility.yul\":1966:1991   */\n      swap2\n      pop\n        /* \"#utility.yul\":2005:2025   */\n      tag_81\n        /* \"#utility.yul\":2023:2024   */\n      dup4\n        /* \"#utility.yul\":2005:2025   */\n      tag_48\n      jump\t// in\n    tag_81:\n        /* \"#utility.yul\":2000:2025   */\n      swap3\n      pop\n        /* \"#utility.yul\":2060:2061   */\n      dup3\n        /* \"#utility.yul\":2057:2058   */\n      dup3\n        /* \"#utility.yul\":2053:2062   */\n      mul\n        /* \"#utility.yul\":2082:2112   */\n      tag_82\n        /* \"#utility.yul\":2100:2111   */\n      dup2\n        /* \"#utility.yul\":2082:2112   */\n      tag_48\n      jump\t// in\n    tag_82:\n        /* \"#utility.yul\":2071:2112   */\n      swap2\n      pop\n        /* \"#utility.yul\":2261:2262   */\n      dup3\n        /* \"#utility.yul\":2252:2259   */\n      dup3\n        /* \"#utility.yul\":2248:2263   */\n      div\n        /* \"#utility.yul\":2245:2246   */\n      dup5\n        /* \"#utility.yul\":2242:2264   */\n      eq\n        /* \"#utility.yul\":2222:2223   */\n      dup4\n        /* \"#utility.yul\":2215:2224   */\n      iszero\n        /* \"#utility.yul\":2195:2278   */\n      or\n        /* \"#utility.yul\":2172:2311   */\n      tag_83\n      jumpi\n        /* \"#utility.yul\":2291:2309   */\n      tag_84\n      tag_52\n      jump\t// in\n    tag_84:\n        /* \"#utility.yul\":2172:2311   */\n    tag_83:\n        /* \"#utility.yul\":1956:2318   */\n      pop\n        /* \"#utility.yul\":1908:2318   */\n      swap3\n      swap2\n      pop\n      pop\n      jump\t// out\n        /* \"#utility.yul\":2324:2515   */\n    tag_38:\n        /* \"#utility.yul\":2364:2367   */\n      0x00\n        /* \"#utility.yul\":2383:2403   */\n      tag_86\n        /* \"#utility.yul\":2401:2402   */\n      dup3\n        /* \"#utility.yul\":2383:2403   */\n      tag_48\n      jump\t// in\n    tag_86:\n        /* \"#utility.yul\":2378:2403   */\n      swap2\n      pop\n        /* \"#utility.yul\":2417:2437   */\n      tag_87\n        /* \"#utility.yul\":2435:2436   */\n      dup4\n        /* \"#utility.yul\":2417:2437   */\n      tag_48\n      jump\t// in\n    tag_87:\n        /* \"#utility.yul\":2412:2437   */\n      swap3\n      pop\n        /* \"#utility.yul\":2460:2461   */\n      dup3\n        /* \"#utility.yul\":2457:2458   */\n      dup3\n        /* \"#utility.yul\":2453:2462   */\n      add\n        /* \"#utility.yul\":2446:2462   */\n      swap1\n      pop\n        /* \"#utility.yul\":2481:2484   */\n      dup1\n        /* \"#utility.yul\":2478:2479   */\n      dup3\n        /* \"#utility.yul\":2475:2485   */\n      gt\n        /* \"#utility.yul\":2472:2508   */\n      iszero\n      tag_88\n      jumpi\n        /* \"#utility.yul\":2488:2506   */\n      tag_89\n      tag_52\n      jump\t// in\n    tag_89:\n        /* \"#utility.yul\":2472:2508   */\n    tag_88:\n        /* \"#utility.yul\":2324:2515   */\n      swap3\n      swap2\n      pop\n      pop\n      jump\t// out\n        /* \"#utility.yul\":2521:2701   */\n    tag_53:\n        /* \"#utility.yul\":2569:2646   */\n      0x4e487b7100000000000000000000000000000000000000000000000000000000\n        /* \"#utility.yul\":2566:2567   */\n      0x00\n        /* \"#utility.yul\":2559:2647   */\n      mstore\n        /* \"#utility.yul\":2666:2670   */\n      0x12\n        /* \"#utility.yul\":2663:2664   */\n      0x04\n        /* \"#utility.yul\":2656:2671   */\n      mstore\n        /* \"#utility.yul\":2690:2694   */\n      0x24\n        /* \"#utility.yul\":2687:2688   */\n      0x00\n        /* \"#utility.yul\":2680:2695   */\n      revert\n        /* \"#utility.yul\":2707:2883   */\n    tag_41:\n        /* \"#utility.yul\":2739:2740   */\n      0x00\n        /* \"#utility.yul\":2756:2776   */\n      tag_92\n        /* \"#utility.yul\":2774:2775   */\n      dup3\n        /* \"#utility.yul\":2756:2776   */\n      tag_48\n      jump\t// in\n    tag_92:\n        /* \"#utility.yul\":2751:2776   */\n      swap2\n      pop\n        /* \"#utility.yul\":2790:2810   */\n      tag_93\n        /* \"#utility.yul\":2808:2809   */\n      dup4\n        /* \"#utility.yul\":2790:2810   */\n      tag_48\n      jump\t// in\n    tag_93:\n        /* \"#utility.yul\":2785:2810   */\n      swap3\n      pop\n        /* \"#utility.yul\":2829:2830   */\n      dup3\n        /* \"#utility.yul\":2819:2854   */\n      tag_94\n      jumpi\n        /* \"#utility.yul\":2834:2852   */\n      tag_95\n      tag_53\n      jump\t// in\n    tag_95:\n        /* \"#utility.yul\":2819:2854   */\n    tag_94:\n        /* \"#utility.yul\":2875:2876   */\n      dup3\n        /* \"#utility.yul\":2872:2873   */\n      dup3\n        /* \"#utility.yul\":2868:2877   */\n      mod\n        /* \"#utility.yul\":2863:2877   */\n      swap1\n      pop\n        /* \"#utility.yul\":2707:2883   */\n      swap3\n      swap2\n      pop\n      pop\n      jump\t// out\n        /* \"#utility.yul\":2889:3074   */\n    tag_44:\n        /* \"#utility.yul\":2929:2930   */\n      0x00\n        /* \"#utility.yul\":2946:2966   */\n      tag_97\n        /* \"#utility.yul\":2964:2965   */\n      dup3\n        /* \"#utility.yul\":2946:2966   */\n      tag_48\n      jump\t// in\n    tag_97:\n        /* \"#utility.yul\":2941:2966   */\n      swap2\n      pop\n        /* \"#utility.yul\":2980:3000   */\n      tag_98\n        /* \"#utility.yul\":2998:2999   */\n      dup4\n        /* \"#utility.yul\":2980:3000   */\n      tag_48\n      jump\t// in\n    tag_98:\n        /* \"#utility.yul\":2975:3000   */\n      swap3\n      pop\n        /* \"#utility.yul\":3019:3020   */\n      dup3\n        /* \"#utility.yul\":3009:3044   */\n      tag_99\n      jumpi\n        /* \"#utility.yul\":3024:3042   */\n      tag_100\n      tag_53\n      jump\t// in\n    tag_100:\n        /* \"#utility.yul\":3009:3044   */\n    tag_99:\n        /* \"#utility.yul\":3066:3067   */\n      dup3\n        /* \"#utility.yul\":3063:3064   */\n      dup3\n        /* \"#utility.yul\":3059:3068   */\n      div\n        /* \"#utility.yul\":3054:3068   */\n      swap1\n      pop\n        /* \"#utility.yul\":2889:3074   */\n      swap3\n      swap2\n      pop\n      pop\n      jump\t// out\n\n    auxdata: 0xa2646970667358221220c22bcff2f62a020a2743bb45740491ffc77aec67a030b95a46a0bab427043fb464736f6c634300081f0033\n}\n",
				"bytecode": {
					"linkReferences": {},
					"object": "6080604052348015600e575f5ffd5b506103e68061001c5f395ff3fe608060405234801561000f575f5ffd5b5060043610610055575f3560e01c80630e883d9e14610059578063165c4a1614610089578063771602f7146100b9578063ce406417146100e9578063f88e9fbf14610119575b5f5ffd5b610073600480360381019061006e91906101e9565b610149565b6040516100809190610236565b60405180910390f35b6100a3600480360381019061009e91906101e9565b61015e565b6040516100b09190610236565b60405180910390f35b6100d360048036038101906100ce91906101e9565b610173565b6040516100e09190610236565b60405180910390f35b61010360048036038101906100fe91906101e9565b610188565b6040516101109190610236565b60405180910390f35b610133600480360381019061012e91906101e9565b61019d565b6040516101409190610236565b60405180910390f35b5f8183610156919061027c565b905092915050565b5f818361016b91906102af565b905092915050565b5f818361018091906102f0565b905092915050565b5f81836101959190610350565b905092915050565b5f81836101aa9190610380565b905092915050565b5f5ffd5b5f819050919050565b6101c8816101b6565b81146101d2575f5ffd5b50565b5f813590506101e3816101bf565b92915050565b5f5f604083850312156101ff576101fe6101b2565b5b5f61020c858286016101d5565b925050602061021d858286016101d5565b9150509250929050565b610230816101b6565b82525050565b5f6020820190506102495f830184610227565b92915050565b7f4e487b71000000000000000000000000000000000000000000000000000000005f52601160045260245ffd5b5f610286826101b6565b9150610291836101b6565b92508282039050818111156102a9576102a861024f565b5b92915050565b5f6102b9826101b6565b91506102c4836101b6565b92508282026102d2816101b6565b915082820484148315176102e9576102e861024f565b5b5092915050565b5f6102fa826101b6565b9150610305836101b6565b925082820190508082111561031d5761031c61024f565b5b92915050565b7f4e487b71000000000000000000000000000000000000000000000000000000005f52601260045260245ffd5b5f61035a826101b6565b9150610365836101b6565b92508261037557610374610323565b5b828206905092915050565b5f61038a826101b6565b9150610395836101b6565b9250826103a5576103a4610323565b5b82820490509291505056fea2646970667358221220c22bcff2f62a020a2743bb45740491ffc77aec67a030b95a46a0bab427043fb464736f6c634300081f0033",
					"opcodes": "PUSH1 0x80 PUSH1 0x40 MSTORE CALLVALUE DUP1 ISZERO PUSH1 0xE JUMPI PUSH0 PUSH0 REVERT JUMPDEST POP PUSH2 0x3E6 DUP1 PUSH2 0x1C PUSH0 CODECOPY PUSH0 RETURN INVALID PUSH1 0x80 PUSH1 0x40 MSTORE CALLVALUE DUP1 ISZERO PUSH2 0xF JUMPI PUSH0 PUSH0 REVERT JUMPDEST POP PUSH1 0x4 CALLDATASIZE LT PUSH2 0x55 JUMPI PUSH0 CALLDATALOAD PUSH1 0xE0 SHR DUP1 PUSH4 0xE883D9E EQ PUSH2 0x59 JUMPI DUP1 PUSH4 0x165C4A16 EQ PUSH2 0x89 JUMPI DUP1 PUSH4 0x771602F7 EQ PUSH2 0xB9 JUMPI DUP1 PUSH4 0xCE406417 EQ PUSH2 0xE9 JUMPI DUP1 PUSH4 0xF88E9FBF EQ PUSH2 0x119 JUMPI JUMPDEST PUSH0 PUSH0 REVERT JUMPDEST PUSH2 0x73 PUSH1 0x4 DUP1 CALLDATASIZE SUB DUP2 ADD SWAP1 PUSH2 0x6E SWAP2 SWAP1 PUSH2 0x1E9 JUMP JUMPDEST PUSH2 0x149 JUMP JUMPDEST PUSH1 0x40 MLOAD PUSH2 0x80 SWAP2 SWAP1 PUSH2 0x236 JUMP JUMPDEST PUSH1 0x40 MLOAD DUP1 SWAP2 SUB SWAP1 RETURN JUMPDEST PUSH2 0xA3 PUSH1 0x4 DUP1 CALLDATASIZE SUB DUP2 ADD SWAP1 PUSH2 0x9E SWAP2 SWAP1 PUSH2 0x1E9 JUMP JUMPDEST PUSH2 0x15E JUMP JUMPDEST PUSH1 0x40 MLOAD PUSH2 0xB0 SWAP2 SWAP1 PUSH2 0x236 JUMP JUMPDEST PUSH1 0x40 MLOAD DUP1 SWAP2 SUB SWAP1 RETURN JUMPDEST PUSH2 0xD3 PUSH1 0x4 DUP1 CALLDATASIZE SUB DUP2 ADD SWAP1 PUSH2 0xCE SWAP2 SWAP1 PUSH2 0x1E9 JUMP JUMPDEST PUSH2 0x173 JUMP JUMPDEST PUSH1 0x40 MLOAD PUSH2 0xE0 SWAP2 SWAP1 PUSH2 0x236 JUMP JUMPDEST PUSH1 0x40 MLOAD DUP1 SWAP2 SUB SWAP1 RETURN JUMPDEST PUSH2 0x103 PUSH1 0x4 DUP1 CALLDATASIZE SUB DUP2 ADD SWAP1 PUSH2 0xFE SWAP2 SWAP1 PUSH2 0x1E9 JUMP JUMPDEST PUSH2 0x188 JUMP JUMPDEST PUSH1 0x40 MLOAD PUSH2 0x110 SWAP2 SWAP1 PUSH2 0x236 JUMP JUMPDEST PUSH1 0x40 MLOAD DUP1 SWAP2 SUB SWAP1 RETURN JUMPDEST PUSH2 0x133 PUSH1 0x4 DUP1 CALLDATASIZE SUB DUP2 ADD SWAP1 PUSH2 0x12E SWAP2 SWAP1 PUSH2 0x1E9 JUMP JUMPDEST PUSH2 0x19D JUMP JUMPDEST PUSH1 0x40 MLOAD PUSH2 0x140 SWAP2 SWAP1 PUSH2 0x236 JUMP JUMPDEST PUSH1 0x40 MLOAD DUP1 SWAP2 SUB SWAP1 RETURN JUMPDEST PUSH0 DUP2 DUP4 PUSH2 0x156 SWAP2 SWAP1 PUSH2 0x27C JUMP JUMPDEST SWAP1 POP SWAP3 SWAP2 POP POP JUMP JUMPDEST PUSH0 DUP2 DUP4 PUSH2 0x16B SWAP2 SWAP1 PUSH2 0x2AF JUMP JUMPDEST SWAP1 POP SWAP3 SWAP2 POP POP JUMP JUMPDEST PUSH0 DUP2 DUP4 PUSH2 0x180 SWAP2 SWAP1 PUSH2 0x2F0 JUMP JUMPDEST SWAP1 POP SWAP3 SWAP2 POP POP JUMP JUMPDEST PUSH0 DUP2 DUP4 PUSH2 0x195 SWAP2 SWAP1 PUSH2 0x350 JUMP JUMPDEST SWAP1 POP SWAP3 SWAP2 POP POP JUMP JUMPDEST PUSH0 DUP2 DUP4 PUSH2 0x1AA SWAP2 SWAP1 PUSH2 0x380 JUMP JUMPDEST SWAP1 POP SWAP3 SWAP2 POP POP JUMP JUMPDEST PUSH0 PUSH0 REVERT JUMPDEST PUSH0 DUP2 SWAP1 POP SWAP2 SWAP1 POP JUMP JUMPDEST PUSH2 0x1C8 DUP2 PUSH2 0x1B6 JUMP JUMPDEST DUP2 EQ PUSH2 0x1D2 JUMPI PUSH0 PUSH0 REVERT JUMPDEST POP JUMP JUMPDEST PUSH0 DUP2 CALLDATALOAD SWAP1 POP PUSH2 0x1E3 DUP2 PUSH2 0x1BF JUMP JUMPDEST SWAP3 SWAP2 POP POP JUMP JUMPDEST PUSH0 PUSH0 PUSH1 0x40 DUP4 DUP6 SUB SLT ISZERO PUSH2 0x1FF JUMPI PUSH2 0x1FE PUSH2 0x1B2 JUMP JUMPDEST JUMPDEST PUSH0 PUSH2 0x20C DUP6 DUP3 DUP7 ADD PUSH2 0x1D5 JUMP JUMPDEST SWAP3 POP POP PUSH1 0x20 PUSH2 0x21D DUP6 DUP3 DUP7 ADD PUSH2 0x1D5 JUMP JUMPDEST SWAP2 POP POP SWAP3 POP SWAP3 SWAP1 POP JUMP JUMPDEST PUSH2 0x230 DUP2 PUSH2 0x1B6 JUMP JUMPDEST DUP3 MSTORE POP POP JUMP JUMPDEST PUSH0 PUSH1 0x20 DUP3 ADD SWAP1 POP PUSH2 0x249 PUSH0 DUP4 ADD DUP5 PUSH2 0x227 JUMP JUMPDEST SWAP3 SWAP2 POP POP JUMP JUMPDEST PUSH32 0x4E487B7100000000000000000000000000000000000000000000000000000000 PUSH0 MSTORE PUSH1 0x11 PUSH1 0x4 MSTORE PUSH1 0x24 PUSH0 REVERT JUMPDEST PUSH0 PUSH2 0x286 DUP3 PUSH2 0x1B6 JUMP JUMPDEST SWAP2 POP PUSH2 0x291 DUP4 PUSH2 0x1B6 JUMP JUMPDEST SWAP3 POP DUP3 DUP3 SUB SWAP1 POP DUP2 DUP2 GT ISZERO PUSH2 0x2A9 JUMPI PUSH2 0x2A8 PUSH2 0x24F JUMP JUMPDEST JUMPDEST SWAP3 SWAP2 POP POP JUMP JUMPDEST PUSH0 PUSH2 0x2B9 DUP3 PUSH2 0x1B6 JUMP JUMPDEST SWAP2 POP PUSH2 0x2C4 DUP4 PUSH2 0x1B6 JUMP JUMPDEST SWAP3 POP DUP3 DUP3 MUL PUSH2 0x2D2 DUP2 PUSH2 0x1B6 JUMP JUMPDEST SWAP2 POP DUP3 DUP3 DIV DUP5 EQ DUP4 ISZERO OR PUSH2 0x2E9 JUMPI PUSH2 0x2E8 PUSH2 0x24F JUMP JUMPDEST JUMPDEST POP SWAP3 SWAP2 POP POP JUMP JUMPDEST PUSH0 PUSH2 0x2FA DUP3 PUSH2 0x1B6 JUMP JUMPDEST SWAP2 POP PUSH2 0x305 DUP4 PUSH2 0x1B6 JUMP JUMPDEST SWAP3 POP DUP3 DUP3 ADD SWAP1 POP DUP1 DUP3 GT ISZERO PUSH2 0x31D JUMPI PUSH2 0x31C PUSH2 0x24F JUMP JUMPDEST JUMPDEST SWAP3 SWAP2 POP POP JUMP JUMPDEST PUSH32 0x4E487B7100000000000000000000000000000000000000000000000000000000 PUSH0 MSTORE PUSH1 0x12 PUSH1 0x4 MSTORE PUSH1 0x24 PUSH0 REVERT JUMPDEST PUSH0 PUSH2 0x35A DUP3 PUSH2 0x1B6 JUMP JUMPDEST SWAP2 POP PUSH2 0x365 DUP4 PUSH2 0x1B6 JUMP JUMPDEST SWAP3 POP DUP3 PUSH2 0x375 JUMPI PUSH2 0x374 PUSH2 0x323 JUMP JUMPDEST JUMPDEST DUP3 DUP3 MOD SWAP1 POP SWAP3 SWAP2 POP POP JUMP JUMPDEST PUSH0 PUSH2 0x38A DUP3 PUSH2 0x1B6 JUMP JUMPDEST SWAP2 POP PUSH2 0x395 DUP4 PUSH2 0x1B6 JUMP JUMPDEST SWAP3 POP DUP3 PUSH2 0x3A5 JUMPI PUSH2 0x3A4 PUSH2 0x323 JUMP JUMPDEST JUMPDEST DUP3 DUP3 DIV SWAP1 POP SWAP3 SWAP2 POP POP JUMP INVALID LOG2 PUSH5 0x6970667358 0x22 SLT KECCAK256 0xC2 0x2B 0xCF CALLCODE 0xF6 0x2A MUL EXP 0x27 NUMBER 0xBB GASLIMIT PUSH21 0x491FFC77AEC67A030B95A46A0BAB427043FB46473 PUSH16 0x6C634300081F00330000000000000000 "
				},
				"gasEstimates": {
					"creation": {
						"codeDepositCost": "199600",
						"executionCost": "243",
						"totalCost": "199843"
					},
					"external": {
						"add(uint256,uint256)": "infinite",
						"divide(uint256,uint256)": "infinite",
						"modulus(uint256,uint256)": "infinite",
						"multiply(uint256,uint256)": "infinite",
						"subract(uint256,uint256)": "infinite"
					}
				},
				"methodIdentifiers": {
					"add(uint256,uint256)": "771602f7",
					"divide(uint256,uint256)": "f88e9fbf",
					"modulus(uint256,uint256)": "ce406417",
					"multiply(uint256,uint256)": "165c4a16",
					"subract(uint256,uint256)": "0e883d9e"
				}
			},
			"storageLayout": {
				"storage": [],
				"types": null
			},
			"userdoc": {
				"kind": "user",
				"methods": {},
				"version": 1
			}
		}
	}
}