{
	"Vottiny_System.sol": {
		"VotingSystem": {
			"abi": [
				{
					"inputs": [],
					"stateMutability": "nonpayable",
					"type": "constructor"
				},
				{
					"inputs": [
						{
							"internalType": "uint256",
							"name": "",
							"type": "uint256"
						}
					],
					"name": "candidates",
					"outputs": [
						{
							"internalType": "string",
							"name": "",
							"type": "string"
						}
					],
					"stateMutability": "view",
					"type": "function"
				},
				{
					"inputs": [],
					"name": "getCandidates",
					"outputs": [
						{
							"internalType": "string[]",
							"name": "",
							"type": "string[]"
						}
					],
					"stateMutability": "view",
					"type": "function"
				},
				{
					"inputs": [
						{
							"internalType": "address",
							"name": "",
							"type": "address"
						}
					],
					"name": "hasVoted",
					"outputs": [
						{
							"internalType": "bool",
							"name": "",
							"type": "bool"
						}
					],
					"stateMutability": "view",
					"type": "function"
				},
				{
					"inputs": [
						{
							"internalType": "string",
							"name": "_candidate",
							"type": "string"
						}
					],
					"name": "vote",
					"outputs": [],
					"stateMutability": "nonpayable",
					"type": "function"
				},
				{
					"inputs": [
						{
							"internalType": "string",
							"name": "",
							"type": "string"
						}
					],
					"name": "votes",
					"outputs": [
						{
							"internalType": "uint256",
							"name": "",
							"type": "uint256"
						}
					],
					"stateMutability": "view",
					"type": "function"
				}
			],
			"devdoc": {
				"kind": "dev",
				"methods": {},
				"version": 1
			},
			"evm": {
				"assembly": "    /* \"Vottiny_System.sol\":62:935  contract VotingSystem {... */\n  mstore(0x40, 0x80)\n    /* \"Vottiny_System.sol\":223:334  constructor() {... */\n  callvalue\n  dup1\n  iszero\n  tag_1\n  jumpi\n  revert(0x00, 0x00)\ntag_1:\n  pop\n    /* \"Vottiny_System.sol\":244:254  candidates */\n  0x00\n    /* \"Vottiny_System.sol\":244:268  candidates.push(\"Alice\") */\n  dup1\n  0x01\n  dup2\n  sload\n  add\n  dup1\n  dup3\n  sstore\n  dup1\n  swap2\n  pop\n  pop\n  0x01\n  swap1\n  sub\n  swap1\n  0x00\n  mstore\n  keccak256(0x00, 0x20)\n  add\n  0x00\n  mload(0x40)\n  dup1\n  0x40\n  add\n  0x40\n  mstore\n  dup1\n  0x05\n  dup2\n  mstore\n  0x20\n  add\n  0x416c696365000000000000000000000000000000000000000000000000000000\n  dup2\n  mstore\n  pop\n  swap1\n  swap2\n  swap1\n  swap2\n  pop\n  swap1\n  dup2\n  tag_5\n  swap2\n  swap1\n  tag_6\n  jump\t// in\ntag_5:\n  pop\n    /* \"Vottiny_System.sol\":275:285  candidates */\n  0x00\n    /* \"Vottiny_System.sol\":275:297  candidates.push(\"Bob\") */\n  dup1\n  0x01\n  dup2\n  sload\n  add\n  dup1\n  dup3\n  sstore\n  dup1\n  swap2\n  pop\n  pop\n  0x01\n  swap1\n  sub\n  swap1\n  0x00\n  mstore\n  keccak256(0x00, 0x20)\n  add\n  0x00\n  mload(0x40)\n  dup1\n  0x40\n  add\n  0x40\n  mstore\n  dup1\n  0x03\n  dup2\n  mstore\n  0x20\n  add\n  0x426f620000000000000000000000000000000000000000000000000000000000\n  dup2\n  mstore\n  pop\n  swap1\n  swap2\n  swap1\n  swap2\n  pop\n  swap1\n  dup2\n  tag_8\n  swap2\n  swap1\n  tag_6\n  jump\t// in\ntag_8:\n  pop\n    /* \"Vottiny_System.sol\":304:314  candidates */\n  0x00\n    /* \"Vottiny_System.sol\":304:330  candidates.push(\"Charlie\") */\n  dup1\n  0x01\n  dup2\n  sload\n  add\n  dup1\n  dup3\n  sstore\n  dup1\n  swap2\n  pop\n  pop\n  0x01\n  swap1\n  sub\n  swap1\n  0x00\n  mstore\n  keccak256(0x00, 0x20)\n  add\n  0x00\n  mload(0x40)\n  dup1\n  0x40\n  add\n  0x40\n  mstore\n  dup1\n  0x07\n  dup2\n  mstore\n  0x20\n  add\n  0x436861726c696500000000000000000000000000000000000000000000000000\n  dup2\n  mstore\n  pop\n  swap1\n  swap2\n  swap1\n  swap2\n  pop\n  swap1\n  dup2\n  tag_10\n  swap2\n  swap1\n  tag_6\n  jump\t// in\ntag_10:\n  pop\n    /* \"Vottiny_System.sol\":62:935  contract VotingSystem {... */\n  jump(tag_11)\n    /* \"#utility.yul\":7:106   */\ntag_12:\n    /* \"#utility.yul\":59:65   */\n  0x00\n    /* \"#utility.yul\":93:98   */\n  dup2\n    /* \"#utility.yul\":87:99   */\n  mload\n    /* \"#utility.yul\":77:99   */\n  swap1\n  pop\n    /* \"#utility.yul\":7:106   */\n  swap2\n  swap1\n  pop\n  jump\t// out\n    /* \"#utility.yul\":112:292   */\ntag_13:\n    /* \"#utility.yul\":160:237   */\n  0x4e487b7100000000000000000000000000000000000000000000000000000000\n    /* \"#utility.yul\":157:158   */\n  0x00\n    /* \"#utility.yul\":150:238   */\n  mstore\n    /* \"#utility.yul\":257:261   */\n  0x41\n    /* \"#utility.yul\":254:255   */\n  0x04\n    /* \"#utility.yul\":247:262   */\n  mstore\n    /* \"#utility.yul\":281:285   */\n  0x24\n    /* \"#utility.yul\":278:279   */\n  0x00\n    /* \"#utility.yul\":271:286   */\n  revert\n    /* \"#utility.yul\":298:478   */\ntag_14:\n    /* \"#utility.yul\":346:423   */\n  0x4e487b7100000000000000000000000000000000000000000000000000000000\n    /* \"#utility.yul\":343:344   */\n  0x00\n    /* \"#utility.yul\":336:424   */\n  mstore\n    /* \"#utility.yul\":443:447   */\n  0x22\n    /* \"#utility.yul\":440:441   */\n  0x04\n    /* \"#utility.yul\":433:448   */\n  mstore\n    /* \"#utility.yul\":467:471   */\n  0x24\n    /* \"#utility.yul\":464:465   */\n  0x00\n    /* \"#utility.yul\":457:472   */\n  revert\n    /* \"#utility.yul\":484:804   */\ntag_15:\n    /* \"#utility.yul\":528:534   */\n  0x00\n    /* \"#utility.yul\":565:566   */\n  0x02\n    /* \"#utility.yul\":559:563   */\n  dup3\n    /* \"#utility.yul\":555:567   */\n  div\n    /* \"#utility.yul\":545:567   */\n  swap1\n  pop\n    /* \"#utility.yul\":612:613   */\n  0x01\n    /* \"#utility.yul\":606:610   */\n  dup3\n    /* \"#utility.yul\":602:614   */\n  and\n    /* \"#utility.yul\":633:651   */\n  dup1\n    /* \"#utility.yul\":623:704   */\n  tag_37\n  jumpi\n    /* \"#utility.yul\":689:693   */\n  0x7f\n    /* \"#utility.yul\":681:687   */\n  dup3\n    /* \"#utility.yul\":677:694   */\n  and\n    /* \"#utility.yul\":667:694   */\n  swap2\n  pop\n    /* \"#utility.yul\":623:704   */\ntag_37:\n    /* \"#utility.yul\":751:753   */\n  0x20\n    /* \"#utility.yul\":743:749   */\n  dup3\n    /* \"#utility.yul\":740:754   */\n  lt\n    /* \"#utility.yul\":720:738   */\n  dup2\n    /* \"#utility.yul\":717:755   */\n  sub\n    /* \"#utility.yul\":714:798   */\n  tag_38\n  jumpi\n    /* \"#utility.yul\":770:788   */\n  tag_39\n  tag_14\n  jump\t// in\ntag_39:\n    /* \"#utility.yul\":714:798   */\ntag_38:\n    /* \"#utility.yul\":535:804   */\n  pop\n    /* \"#utility.yul\":484:804   */\n  swap2\n  swap1\n  pop\n  jump\t// out\n    /* \"#utility.yul\":810:951   */\ntag_16:\n    /* \"#utility.yul\":859:863   */\n  0x00\n    /* \"#utility.yul\":882:885   */\n  dup2\n    /* \"#utility.yul\":874:885   */\n  swap1\n  pop\n    /* \"#utility.yul\":905:908   */\n  dup2\n    /* \"#utility.yul\":902:903   */\n  0x00\n    /* \"#utility.yul\":895:909   */\n  mstore\n    /* \"#utility.yul\":939:943   */\n  0x20\n    /* \"#utility.yul\":936:937   */\n  0x00\n    /* \"#utility.yul\":926:944   */\n  keccak256\n    /* \"#utility.yul\":918:944   */\n  swap1\n  pop\n    /* \"#utility.yul\":810:951   */\n  swap2\n  swap1\n  pop\n  jump\t// out\n    /* \"#utility.yul\":957:1050   */\ntag_17:\n    /* \"#utility.yul\":994:1000   */\n  0x00\n    /* \"#utility.yul\":1041:1043   */\n  0x20\n    /* \"#utility.yul\":1036:1038   */\n  0x1f\n    /* \"#utility.yul\":1029:1034   */\n  dup4\n    /* \"#utility.yul\":1025:1039   */\n  add\n    /* \"#utility.yul\":1021:1044   */\n  div\n    /* \"#utility.yul\":1011:1044   */\n  swap1\n  pop\n    /* \"#utility.yul\":957:1050   */\n  swap2\n  swap1\n  pop\n  jump\t// out\n    /* \"#utility.yul\":1056:1163   */\ntag_18:\n    /* \"#utility.yul\":1100:1108   */\n  0x00\n    /* \"#utility.yul\":1150:1155   */\n  dup3\n    /* \"#utility.yul\":1144:1148   */\n  dup3\n    /* \"#utility.yul\":1140:1156   */\n  shl\n    /* \"#utility.yul\":1119:1156   */\n  swap1\n  pop\n    /* \"#utility.yul\":1056:1163   */\n  swap3\n  swap2\n  pop\n  pop\n  jump\t// out\n    /* \"#utility.yul\":1169:1562   */\ntag_19:\n    /* \"#utility.yul\":1238:1244   */\n  0x00\n    /* \"#utility.yul\":1288:1289   */\n  0x08\n    /* \"#utility.yul\":1276:1286   */\n  dup4\n    /* \"#utility.yul\":1272:1290   */\n  mul\n    /* \"#utility.yul\":1311:1408   */\n  tag_44\n    /* \"#utility.yul\":1341:1407   */\n  0xffffffffffffffffffffffffffffffffffffffffffffffffffffffffffffffff\n    /* \"#utility.yul\":1330:1339   */\n  dup3\n    /* \"#utility.yul\":1311:1408   */\n  tag_18\n  jump\t// in\ntag_44:\n    /* \"#utility.yul\":1429:1468   */\n  tag_45\n    /* \"#utility.yul\":1459:1467   */\n  dup7\n    /* \"#utility.yul\":1448:1457   */\n  dup4\n    /* \"#utility.yul\":1429:1468   */\n  tag_18\n  jump\t// in\ntag_45:\n    /* \"#utility.yul\":1417:1468   */\n  swap6\n  pop\n    /* \"#utility.yul\":1501:1505   */\n  dup1\n    /* \"#utility.yul\":1497:1506   */\n  not\n    /* \"#utility.yul\":1490:1495   */\n  dup5\n    /* \"#utility.yul\":1486:1507   */\n  and\n    /* \"#utility.yul\":1477:1507   */\n  swap4\n  pop\n    /* \"#utility.yul\":1550:1554   */\n  dup1\n    /* \"#utility.yul\":1540:1548   */\n  dup7\n    /* \"#utility.yul\":1536:1555   */\n  and\n    /* \"#utility.yul\":1529:1534   */\n  dup5\n    /* \"#utility.yul\":1526:1556   */\n  or\n    /* \"#utility.yul\":1516:1556   */\n  swap3\n  pop\n    /* \"#utility.yul\":1245:1562   */\n  pop\n  pop\n    /* \"#utility.yul\":1169:1562   */\n  swap4\n  swap3\n  pop\n  pop\n  pop\n  jump\t// out\n    /* \"#utility.yul\":1568:1645   */\ntag_20:\n    /* \"#utility.yul\":1605:1612   */\n  0x00\n    /* \"#utility.yul\":1634:1639   */\n  dup2\n    /* \"#utility.yul\":1623:1639   */\n  swap1\n  pop\n    /* \"#utility.yul\":1568:1645   */\n  swap2\n  swap1\n  pop\n  jump\t// out\n    /* \"#utility.yul\":1651:1711   */\ntag_21:\n    /* \"#utility.yul\":1679:1682   */\n  0x00\n    /* \"#utility.yul\":1700:1705   */\n  dup2\n    /* \"#utility.yul\":1693:1705   */\n  swap1\n  pop\n    /* \"#utility.yul\":1651:1711   */\n  swap2\n  swap1\n  pop\n  jump\t// out\n    /* \"#utility.yul\":1717:1859   */\ntag_22:\n    /* \"#utility.yul\":1767:1776   */\n  0x00\n    /* \"#utility.yul\":1800:1853   */\n  tag_49\n    /* \"#utility.yul\":1818:1852   */\n  tag_50\n    /* \"#utility.yul\":1827:1851   */\n  tag_51\n    /* \"#utility.yul\":1845:1850   */\n  dup5\n    /* \"#utility.yul\":1827:1851   */\n  tag_20\n  jump\t// in\ntag_51:\n    /* \"#utility.yul\":1818:1852   */\n  tag_21\n  jump\t// in\ntag_50:\n    /* \"#utility.yul\":1800:1853   */\n  tag_20\n  jump\t// in\ntag_49:\n    /* \"#utility.yul\":1787:1853   */\n  swap1\n  pop\n    /* \"#utility.yul\":1717:1859   */\n  swap2\n  swap1\n  pop\n  jump\t// out\n    /* \"#utility.yul\":1865:1940   */\ntag_23:\n    /* \"#utility.yul\":1908:1911   */\n  0x00\n    /* \"#utility.yul\":1929:1934   */\n  dup2\n    /* \"#utility.yul\":1922:1934   */\n  swap1\n  pop\n    /* \"#utility.yul\":1865:1940   */\n  swap2\n  swap1\n  pop\n  jump\t// out\n    /* \"#utility.yul\":1946:2215   */\ntag_24:\n    /* \"#utility.yul\":2056:2095   */\n  tag_54\n    /* \"#utility.yul\":2087:2094   */\n  dup4\n    /* \"#utility.yul\":2056:2095   */\n  tag_22\n  jump\t// in\ntag_54:\n    /* \"#utility.yul\":2117:2208   */\n  tag_55\n    /* \"#utility.yul\":2166:2207   */\n  tag_56\n    /* \"#utility.yul\":2190:2206   */\n  dup3\n    /* \"#utility.yul\":2166:2207   */\n  tag_23\n  jump\t// in\ntag_56:\n    /* \"#utility.yul\":2158:2164   */\n  dup5\n    /* \"#utility.yul\":2151:2155   */\n  dup5\n    /* \"#utility.yul\":2145:2156   */\n  sload\n    /* \"#utility.yul\":2117:2208   */\n  tag_19\n  jump\t// in\ntag_55:\n    /* \"#utility.yul\":2111:2115   */\n  dup3\n    /* \"#utility.yul\":2104:2209   */\n  sstore\n    /* \"#utility.yul\":2022:2215   */\n  pop\n    /* \"#utility.yul\":1946:2215   */\n  pop\n  pop\n  pop\n  jump\t// out\n    /* \"#utility.yul\":2221:2294   */\ntag_25:\n    /* \"#utility.yul\":2266:2269   */\n  0x00\n    /* \"#utility.yul\":2287:2288   */\n  0x00\n    /* \"#utility.yul\":2280:2288   */\n  swap1\n  pop\n    /* \"#utility.yul\":2221:2294   */\n  swap1\n  jump\t// out\n    /* \"#utility.yul\":2300:2489   */\ntag_26:\n    /* \"#utility.yul\":2377:2409   */\n  tag_59\n  tag_25\n  jump\t// in\ntag_59:\n    /* \"#utility.yul\":2418:2483   */\n  tag_60\n    /* \"#utility.yul\":2476:2482   */\n  dup2\n    /* \"#utility.yul\":2468:2474   */\n  dup5\n    /* \"#utility.yul\":2462:2466   */\n  dup5\n    /* \"#utility.yul\":2418:2483   */\n  tag_24\n  jump\t// in\ntag_60:\n    /* \"#utility.yul\":2353:2489   */\n  pop\n    /* \"#utility.yul\":2300:2489   */\n  pop\n  pop\n  jump\t// out\n    /* \"#utility.yul\":2495:2681   */\ntag_27:\n    /* \"#utility.yul\":2555:2675   */\ntag_62:\n    /* \"#utility.yul\":2572:2575   */\n  dup2\n    /* \"#utility.yul\":2565:2570   */\n  dup2\n    /* \"#utility.yul\":2562:2576   */\n  lt\n    /* \"#utility.yul\":2555:2675   */\n  iszero\n  tag_64\n  jumpi\n    /* \"#utility.yul\":2626:2665   */\n  tag_65\n    /* \"#utility.yul\":2663:2664   */\n  0x00\n    /* \"#utility.yul\":2656:2661   */\n  dup3\n    /* \"#utility.yul\":2626:2665   */\n  tag_26\n  jump\t// in\ntag_65:\n    /* \"#utility.yul\":2599:2600   */\n  0x01\n    /* \"#utility.yul\":2592:2597   */\n  dup2\n    /* \"#utility.yul\":2588:2601   */\n  add\n    /* \"#utility.yul\":2579:2601   */\n  swap1\n  pop\n    /* \"#utility.yul\":2555:2675   */\n  jump(tag_62)\ntag_64:\n    /* \"#utility.yul\":2495:2681   */\n  pop\n  pop\n  jump\t// out\n    /* \"#utility.yul\":2687:3230   */\ntag_28:\n    /* \"#utility.yul\":2788:2790   */\n  0x1f\n    /* \"#utility.yul\":2783:2786   */\n  dup3\n    /* \"#utility.yul\":2780:2791   */\n  gt\n    /* \"#utility.yul\":2777:3223   */\n  iszero\n  tag_67\n  jumpi\n    /* \"#utility.yul\":2822:2860   */\n  tag_68\n    /* \"#utility.yul\":2854:2859   */\n  dup2\n    /* \"#utility.yul\":2822:2860   */\n  tag_16\n  jump\t// in\ntag_68:\n    /* \"#utility.yul\":2906:2935   */\n  tag_69\n    /* \"#utility.yul\":2924:2934   */\n  dup5\n    /* \"#utility.yul\":2906:2935   */\n  tag_17\n  jump\t// in\ntag_69:\n    /* \"#utility.yul\":2896:2904   */\n  dup2\n    /* \"#utility.yul\":2892:2936   */\n  add\n    /* \"#utility.yul\":3089:3091   */\n  0x20\n    /* \"#utility.yul\":3077:3087   */\n  dup6\n    /* \"#utility.yul\":3074:3092   */\n  lt\n    /* \"#utility.yul\":3071:3120   */\n  iszero\n  tag_70\n  jumpi\n    /* \"#utility.yul\":3110:3118   */\n  dup2\n    /* \"#utility.yul\":3095:3118   */\n  swap1\n  pop\n    /* \"#utility.yul\":3071:3120   */\ntag_70:\n    /* \"#utility.yul\":3133:3213   */\n  tag_71\n    /* \"#utility.yul\":3189:3211   */\n  tag_72\n    /* \"#utility.yul\":3207:3210   */\n  dup6\n    /* \"#utility.yul\":3189:3211   */\n  tag_17\n  jump\t// in\ntag_72:\n    /* \"#utility.yul\":3179:3187   */\n  dup4\n    /* \"#utility.yul\":3175:3212   */\n  add\n    /* \"#utility.yul\":3162:3173   */\n  dup3\n    /* \"#utility.yul\":3133:3213   */\n  tag_27\n  jump\t// in\ntag_71:\n    /* \"#utility.yul\":2792:3223   */\n  pop\n  pop\n    /* \"#utility.yul\":2777:3223   */\ntag_67:\n    /* \"#utility.yul\":2687:3230   */\n  pop\n  pop\n  pop\n  jump\t// out\n    /* \"#utility.yul\":3236:3353   */\ntag_29:\n    /* \"#utility.yul\":3290:3298   */\n  0x00\n    /* \"#utility.yul\":3340:3345   */\n  dup3\n    /* \"#utility.yul\":3334:3338   */\n  dup3\n    /* \"#utility.yul\":3330:3346   */\n  shr\n    /* \"#utility.yul\":3309:3346   */\n  swap1\n  pop\n    /* \"#utility.yul\":3236:3353   */\n  swap3\n  swap2\n  pop\n  pop\n  jump\t// out\n    /* \"#utility.yul\":3359:3528   */\ntag_30:\n    /* \"#utility.yul\":3403:3409   */\n  0x00\n    /* \"#utility.yul\":3436:3487   */\n  tag_75\n    /* \"#utility.yul\":3484:3485   */\n  0x00\n    /* \"#utility.yul\":3480:3486   */\n  not\n    /* \"#utility.yul\":3472:3477   */\n  dup5\n    /* \"#utility.yul\":3469:3470   */\n  0x08\n    /* \"#utility.yul\":3465:3478   */\n  mul\n    /* \"#utility.yul\":3436:3487   */\n  tag_29\n  jump\t// in\ntag_75:\n    /* \"#utility.yul\":3432:3488   */\n  not\n    /* \"#utility.yul\":3517:3521   */\n  dup1\n    /* \"#utility.yul\":3511:3515   */\n  dup4\n    /* \"#utility.yul\":3507:3522   */\n  and\n    /* \"#utility.yul\":3497:3522   */\n  swap2\n  pop\n    /* \"#utility.yul\":3410:3528   */\n  pop\n    /* \"#utility.yul\":3359:3528   */\n  swap3\n  swap2\n  pop\n  pop\n  jump\t// out\n    /* \"#utility.yul\":3533:3828   */\ntag_31:\n    /* \"#utility.yul\":3609:3613   */\n  0x00\n    /* \"#utility.yul\":3755:3784   */\n  tag_77\n    /* \"#utility.yul\":3780:3783   */\n  dup4\n    /* \"#utility.yul\":3774:3778   */\n  dup4\n    /* \"#utility.yul\":3755:3784   */\n  tag_30\n  jump\t// in\ntag_77:\n    /* \"#utility.yul\":3747:3784   */\n  swap2\n  pop\n    /* \"#utility.yul\":3817:3820   */\n  dup3\n    /* \"#utility.yul\":3814:3815   */\n  0x02\n    /* \"#utility.yul\":3810:3821   */\n  mul\n    /* \"#utility.yul\":3804:3808   */\n  dup3\n    /* \"#utility.yul\":3801:3822   */\n  or\n    /* \"#utility.yul\":3793:3822   */\n  swap1\n  pop\n    /* \"#utility.yul\":3533:3828   */\n  swap3\n  swap2\n  pop\n  pop\n  jump\t// out\n    /* \"#utility.yul\":3833:5228   */\ntag_6:\n    /* \"#utility.yul\":3950:3987   */\n  tag_79\n    /* \"#utility.yul\":3983:3986   */\n  dup3\n    /* \"#utility.yul\":3950:3987   */\n  tag_12\n  jump\t// in\ntag_79:\n    /* \"#utility.yul\":4052:4070   */\n  0xffffffffffffffff\n    /* \"#utility.yul\":4044:4050   */\n  dup2\n    /* \"#utility.yul\":4041:4071   */\n  gt\n    /* \"#utility.yul\":4038:4094   */\n  iszero\n  tag_80\n  jumpi\n    /* \"#utility.yul\":4074:4092   */\n  tag_81\n  tag_13\n  jump\t// in\ntag_81:\n    /* \"#utility.yul\":4038:4094   */\ntag_80:\n    /* \"#utility.yul\":4118:4156   */\n  tag_82\n    /* \"#utility.yul\":4150:4154   */\n  dup3\n    /* \"#utility.yul\":4144:4155   */\n  sload\n    /* \"#utility.yul\":4118:4156   */\n  tag_15\n  jump\t// in\ntag_82:\n    /* \"#utility.yul\":4203:4270   */\n  tag_83\n    /* \"#utility.yul\":4263:4269   */\n  dup3\n    /* \"#utility.yul\":4255:4261   */\n  dup3\n    /* \"#utility.yul\":4249:4253   */\n  dup6\n    /* \"#utility.yul\":4203:4270   */\n  tag_28\n  jump\t// in\ntag_83:\n    /* \"#utility.yul\":4297:4298   */\n  0x00\n    /* \"#utility.yul\":4321:4325   */\n  0x20\n    /* \"#utility.yul\":4308:4325   */\n  swap1\n  pop\n    /* \"#utility.yul\":4353:4355   */\n  0x1f\n    /* \"#utility.yul\":4345:4351   */\n  dup4\n    /* \"#utility.yul\":4342:4356   */\n  gt\n    /* \"#utility.yul\":4370:4371   */\n  0x01\n    /* \"#utility.yul\":4365:4983   */\n  dup2\n  eq\n  tag_85\n  jumpi\n    /* \"#utility.yul\":5027:5028   */\n  0x00\n    /* \"#utility.yul\":5044:5050   */\n  dup5\n    /* \"#utility.yul\":5041:5118   */\n  iszero\n  tag_86\n  jumpi\n    /* \"#utility.yul\":5093:5102   */\n  dup3\n    /* \"#utility.yul\":5088:5091   */\n  dup8\n    /* \"#utility.yul\":5084:5103   */\n  add\n    /* \"#utility.yul\":5078:5104   */\n  mload\n    /* \"#utility.yul\":5069:5104   */\n  swap1\n  pop\n    /* \"#utility.yul\":5041:5118   */\ntag_86:\n    /* \"#utility.yul\":5144:5211   */\n  tag_87\n    /* \"#utility.yul\":5204:5210   */\n  dup6\n    /* \"#utility.yul\":5197:5202   */\n  dup3\n    /* \"#utility.yul\":5144:5211   */\n  tag_31\n  jump\t// in\ntag_87:\n    /* \"#utility.yul\":5138:5142   */\n  dup7\n    /* \"#utility.yul\":5131:5212   */\n  sstore\n    /* \"#utility.yul\":5000:5222   */\n  pop\n    /* \"#utility.yul\":4335:5222   */\n  jump(tag_84)\n    /* \"#utility.yul\":4365:4983   */\ntag_85:\n    /* \"#utility.yul\":4417:4421   */\n  0x1f\n    /* \"#utility.yul\":4413:4422   */\n  not\n    /* \"#utility.yul\":4405:4411   */\n  dup5\n    /* \"#utility.yul\":4401:4423   */\n  and\n    /* \"#utility.yul\":4451:4488   */\n  tag_88\n    /* \"#utility.yul\":4483:4487   */\n  dup7\n    /* \"#utility.yul\":4451:4488   */\n  tag_16\n  jump\t// in\ntag_88:\n    /* \"#utility.yul\":4510:4511   */\n  0x00\n    /* \"#utility.yul\":4524:4732   */\ntag_89:\n    /* \"#utility.yul\":4538:4545   */\n  dup3\n    /* \"#utility.yul\":4535:4536   */\n  dup2\n    /* \"#utility.yul\":4532:4546   */\n  lt\n    /* \"#utility.yul\":4524:4732   */\n  iszero\n  tag_91\n  jumpi\n    /* \"#utility.yul\":4617:4626   */\n  dup5\n    /* \"#utility.yul\":4612:4615   */\n  dup10\n    /* \"#utility.yul\":4608:4627   */\n  add\n    /* \"#utility.yul\":4602:4628   */\n  mload\n    /* \"#utility.yul\":4594:4600   */\n  dup3\n    /* \"#utility.yul\":4587:4629   */\n  sstore\n    /* \"#utility.yul\":4668:4669   */\n  0x01\n    /* \"#utility.yul\":4660:4666   */\n  dup3\n    /* \"#utility.yul\":4656:4670   */\n  add\n    /* \"#utility.yul\":4646:4670   */\n  swap2\n  pop\n    /* \"#utility.yul\":4715:4717   */\n  0x20\n    /* \"#utility.yul\":4704:4713   */\n  dup6\n    /* \"#utility.yul\":4700:4718   */\n  add\n    /* \"#utility.yul\":4687:4718   */\n  swap5\n  pop\n    /* \"#utility.yul\":4561:4565   */\n  0x20\n    /* \"#utility.yul\":4558:4559   */\n  dup2\n    /* \"#utility.yul\":4554:4566   */\n  add\n    /* \"#utility.yul\":4549:4566   */\n  swap1\n  pop\n    /* \"#utility.yul\":4524:4732   */\n  jump(tag_89)\ntag_91:\n    /* \"#utility.yul\":4760:4766   */\n  dup7\n    /* \"#utility.yul\":4751:4758   */\n  dup4\n    /* \"#utility.yul\":4748:4767   */\n  lt\n    /* \"#utility.yul\":4745:4924   */\n  iszero\n  tag_92\n  jumpi\n    /* \"#utility.yul\":4818:4827   */\n  dup5\n    /* \"#utility.yul\":4813:4816   */\n  dup10\n    /* \"#utility.yul\":4809:4828   */\n  add\n    /* \"#utility.yul\":4803:4829   */\n  mload\n    /* \"#utility.yul\":4861:4909   */\n  tag_93\n    /* \"#utility.yul\":4903:4907   */\n  0x1f\n    /* \"#utility.yul\":4895:4901   */\n  dup10\n    /* \"#utility.yul\":4891:4908   */\n  and\n    /* \"#utility.yul\":4880:4889   */\n  dup3\n    /* \"#utility.yul\":4861:4909   */\n  tag_30\n  jump\t// in\ntag_93:\n    /* \"#utility.yul\":4853:4859   */\n  dup4\n    /* \"#utility.yul\":4846:4910   */\n  sstore\n    /* \"#utility.yul\":4768:4924   */\n  pop\n    /* \"#utility.yul\":4745:4924   */\ntag_92:\n    /* \"#utility.yul\":4970:4971   */\n  0x01\n    /* \"#utility.yul\":4966:4967   */\n  0x02\n    /* \"#utility.yul\":4958:4964   */\n  dup9\n    /* \"#utility.yul\":4954:4968   */\n  mul\n    /* \"#utility.yul\":4950:4972   */\n  add\n    /* \"#utility.yul\":4944:4948   */\n  dup9\n    /* \"#utility.yul\":4937:4973   */\n  sstore\n    /* \"#utility.yul\":4372:4983   */\n  pop\n  pop\n  pop\n    /* \"#utility.yul\":4335:5222   */\ntag_84:\n  pop\n    /* \"#utility.yul\":3925:5228   */\n  pop\n  pop\n  pop\n    /* \"#utility.yul\":3833:5228   */\n  pop\n  pop\n  jump\t// out\n    /* \"Vottiny_System.sol\":62:935  contract VotingSystem {... */\ntag_11:\n  dataSize(sub_0)\n  dup1\n  dataOffset(sub_0)\n  0x00\n  codecopy\n  0x00\n  return\nstop\n\nsub_0: assembly {\n        /* \"Vottiny_System.sol\":62:935  contract VotingSystem {... */\n      mstore(0x40, 0x80)\n      callvalue\n      dup1\n      iszero\n      tag_1\n      jumpi\n      revert(0x00, 0x00)\n    tag_1:\n      pop\n      jumpi(tag_2, lt(calldatasize, 0x04))\n      shr(0xe0, calldataload(0x00))\n      dup1\n      0x06a49fce\n      eq\n      tag_3\n      jumpi\n      dup1\n      0x09eef43e\n      eq\n      tag_4\n      jumpi\n      dup1\n      0x3477ee2e\n      eq\n      tag_5\n      jumpi\n      dup1\n      0xb99ef1fa\n      eq\n      tag_6\n      jumpi\n      dup1\n      0xfc36e15b\n      eq\n      tag_7\n      jumpi\n    tag_2:\n      revert(0x00, 0x00)\n        /* \"Vottiny_System.sol\":833:932  function getCandidates() public view returns (string[] memory) {... */\n    tag_3:\n      tag_8\n      tag_9\n      jump\t// in\n    tag_8:\n      mload(0x40)\n      tag_10\n      swap2\n      swap1\n      tag_11\n      jump\t// in\n    tag_10:\n      mload(0x40)\n      dup1\n      swap2\n      sub\n      swap1\n      return\n        /* \"Vottiny_System.sol\":169:209  mapping(address => bool) public hasVoted */\n    tag_4:\n      tag_12\n      0x04\n      dup1\n      calldatasize\n      sub\n      dup2\n      add\n      swap1\n      tag_13\n      swap2\n      swap1\n      tag_14\n      jump\t// in\n    tag_13:\n      tag_15\n      jump\t// in\n    tag_12:\n      mload(0x40)\n      tag_16\n      swap2\n      swap1\n      tag_17\n      jump\t// in\n    tag_16:\n      mload(0x40)\n      dup1\n      swap2\n      sub\n      swap1\n      return\n        /* \"Vottiny_System.sol\":93:119  string[] public candidates */\n    tag_5:\n      tag_18\n      0x04\n      dup1\n      calldatasize\n      sub\n      dup2\n      add\n      swap1\n      tag_19\n      swap2\n      swap1\n      tag_20\n      jump\t// in\n    tag_19:\n      tag_21\n      jump\t// in\n    tag_18:\n      mload(0x40)\n      tag_22\n      swap2\n      swap1\n      tag_23\n      jump\t// in\n    tag_22:\n      mload(0x40)\n      dup1\n      swap2\n      sub\n      swap1\n      return\n        /* \"Vottiny_System.sol\":126:162  mapping(string => uint) public votes */\n    tag_6:\n      tag_24\n      0x04\n      dup1\n      calldatasize\n      sub\n      dup2\n      add\n      swap1\n      tag_25\n      swap2\n      swap1\n      tag_26\n      jump\t// in\n    tag_25:\n      tag_27\n      jump\t// in\n    tag_24:\n      mload(0x40)\n      tag_28\n      swap2\n      swap1\n      tag_29\n      jump\t// in\n    tag_28:\n      mload(0x40)\n      dup1\n      swap2\n      sub\n      swap1\n      return\n        /* \"Vottiny_System.sol\":340:825  function vote(string memory _candidate) public {... */\n    tag_7:\n      tag_30\n      0x04\n      dup1\n      calldatasize\n      sub\n      dup2\n      add\n      swap1\n      tag_31\n      swap2\n      swap1\n      tag_26\n      jump\t// in\n    tag_31:\n      tag_32\n      jump\t// in\n    tag_30:\n      stop\n        /* \"Vottiny_System.sol\":833:932  function getCandidates() public view returns (string[] memory) {... */\n    tag_9:\n        /* \"Vottiny_System.sol\":879:894  string[] memory */\n      0x60\n        /* \"Vottiny_System.sol\":914:924  candidates */\n      0x00\n        /* \"Vottiny_System.sol\":907:924  return candidates */\n      dup1\n      sload\n      dup1\n      0x20\n      mul\n      0x20\n      add\n      mload(0x40)\n      swap1\n      dup2\n      add\n      0x40\n      mstore\n      dup1\n      swap3\n      swap2\n      swap1\n      dup2\n      dup2\n      mstore\n      0x20\n      add\n      0x00\n      swap1\n    tag_34:\n      dup3\n      dup3\n      lt\n      iszero\n      tag_35\n      jumpi\n      dup4\n      dup3\n      swap1\n      0x00\n      mstore\n      keccak256(0x00, 0x20)\n      add\n      dup1\n      sload\n      tag_37\n      swap1\n      tag_38\n      jump\t// in\n    tag_37:\n      dup1\n      0x1f\n      add\n      0x20\n      dup1\n      swap2\n      div\n      mul\n      0x20\n      add\n      mload(0x40)\n      swap1\n      dup2\n      add\n      0x40\n      mstore\n      dup1\n      swap3\n      swap2\n      swap1\n      dup2\n      dup2\n      mstore\n      0x20\n      add\n      dup3\n      dup1\n      sload\n      tag_39\n      swap1\n      tag_38\n      jump\t// in\n    tag_39:\n      dup1\n      iszero\n      tag_40\n      jumpi\n      dup1\n      0x1f\n      lt\n      tag_41\n      jumpi\n      0x0100\n      dup1\n      dup4\n      sload\n      div\n      mul\n      dup4\n      mstore\n      swap2\n      0x20\n      add\n      swap2\n      jump(tag_40)\n    tag_41:\n      dup3\n      add\n      swap2\n      swap1\n      0x00\n      mstore\n      keccak256(0x00, 0x20)\n      swap1\n    tag_42:\n      dup2\n      sload\n      dup2\n      mstore\n      swap1\n      0x01\n      add\n      swap1\n      0x20\n      add\n      dup1\n      dup4\n      gt\n      tag_42\n      jumpi\n      dup3\n      swap1\n      sub\n      0x1f\n      and\n      dup3\n      add\n      swap2\n    tag_40:\n      pop\n      pop\n      pop\n      pop\n      pop\n      dup2\n      mstore\n      0x20\n      add\n      swap1\n      0x01\n      add\n      swap1\n      jump(tag_34)\n    tag_35:\n      pop\n      pop\n      pop\n      pop\n      swap1\n      pop\n        /* \"Vottiny_System.sol\":833:932  function getCandidates() public view returns (string[] memory) {... */\n      swap1\n      jump\t// out\n        /* \"Vottiny_System.sol\":169:209  mapping(address => bool) public hasVoted */\n    tag_15:\n      mstore(0x20, 0x02)\n      dup1\n      0x00\n      mstore\n      keccak256(0x00, 0x40)\n      0x00\n      swap2\n      pop\n      sload\n      swap1\n      0x0100\n      exp\n      swap1\n      div\n      0xff\n      and\n      dup2\n      jump\t// out\n        /* \"Vottiny_System.sol\":93:119  string[] public candidates */\n    tag_21:\n      0x00\n      dup2\n      dup2\n      sload\n      dup2\n      lt\n      tag_43\n      jumpi\n      0x00\n      dup1\n      revert\n    tag_43:\n      swap1\n      0x00\n      mstore\n      keccak256(0x00, 0x20)\n      add\n      0x00\n      swap2\n      pop\n      swap1\n      pop\n      dup1\n      sload\n      tag_45\n      swap1\n      tag_38\n      jump\t// in\n    tag_45:\n      dup1\n      0x1f\n      add\n      0x20\n      dup1\n      swap2\n      div\n      mul\n      0x20\n      add\n      mload(0x40)\n      swap1\n      dup2\n      add\n      0x40\n      mstore\n      dup1\n      swap3\n      swap2\n      swap1\n      dup2\n      dup2\n      mstore\n      0x20\n      add\n      dup3\n      dup1\n      sload\n      tag_46\n      swap1\n      tag_38\n      jump\t// in\n    tag_46:\n      dup1\n      iszero\n      tag_47\n      jumpi\n      dup1\n      0x1f\n      lt\n      tag_48\n      jumpi\n      0x0100\n      dup1\n      dup4\n      sload\n      div\n      mul\n      dup4\n      mstore\n      swap2\n      0x20\n      add\n      swap2\n      jump(tag_47)\n    tag_48:\n      dup3\n      add\n      swap2\n      swap1\n      0x00\n      mstore\n      keccak256(0x00, 0x20)\n      swap1\n    tag_49:\n      dup2\n      sload\n      dup2\n      mstore\n      swap1\n      0x01\n      add\n      swap1\n      0x20\n      add\n      dup1\n      dup4\n      gt\n      tag_49\n      jumpi\n      dup3\n      swap1\n      sub\n      0x1f\n      and\n      dup3\n      add\n      swap2\n    tag_47:\n      pop\n      pop\n      pop\n      pop\n      pop\n      dup2\n      jump\t// out\n        /* \"Vottiny_System.sol\":126:162  mapping(string => uint) public votes */\n    tag_27:\n      0x01\n      dup2\n      dup1\n      mload\n      0x20\n      dup2\n      add\n      dup3\n      add\n      dup1\n      mload\n      dup5\n      dup3\n      mstore\n      0x20\n      dup4\n      add\n      0x20\n      dup6\n      add\n      keccak256\n      dup2\n      dup4\n      mstore\n      dup1\n      swap6\n      pop\n      pop\n      pop\n      pop\n      pop\n      pop\n      0x00\n      swap2\n      pop\n      swap1\n      pop\n      sload\n      dup2\n      jump\t// out\n        /* \"Vottiny_System.sol\":340:825  function vote(string memory _candidate) public {... */\n    tag_32:\n        /* \"Vottiny_System.sol\":407:415  hasVoted */\n      0x02\n        /* \"Vottiny_System.sol\":407:427  hasVoted[msg.sender] */\n      0x00\n        /* \"Vottiny_System.sol\":416:426  msg.sender */\n      caller\n        /* \"Vottiny_System.sol\":407:427  hasVoted[msg.sender] */\n      0xffffffffffffffffffffffffffffffffffffffff\n      and\n      0xffffffffffffffffffffffffffffffffffffffff\n      and\n      dup2\n      mstore\n      0x20\n      add\n      swap1\n      dup2\n      mstore\n      0x20\n      add\n      0x00\n      keccak256\n      0x00\n      swap1\n      sload\n      swap1\n      0x0100\n      exp\n      swap1\n      div\n      0xff\n      and\n        /* \"Vottiny_System.sol\":406:427  !hasVoted[msg.sender] */\n      iszero\n        /* \"Vottiny_System.sol\":398:445  require(!hasVoted[msg.sender], \"Already voted\") */\n      tag_51\n      jumpi\n      mload(0x40)\n      0x08c379a000000000000000000000000000000000000000000000000000000000\n      dup2\n      mstore\n      0x04\n      add\n      tag_52\n      swap1\n      tag_53\n      jump\t// in\n    tag_52:\n      mload(0x40)\n      dup1\n      swap2\n      sub\n      swap1\n      revert\n    tag_51:\n        /* \"Vottiny_System.sol\":458:468  bool valid */\n      0x00\n        /* \"Vottiny_System.sol\":471:476  false */\n      0x00\n        /* \"Vottiny_System.sol\":458:476  bool valid = false */\n      swap1\n      pop\n        /* \"Vottiny_System.sol\":494:500  uint i */\n      0x00\n        /* \"Vottiny_System.sol\":503:504  0 */\n      0x00\n        /* \"Vottiny_System.sol\":494:504  uint i = 0 */\n      swap1\n      pop\n        /* \"Vottiny_System.sol\":489:700  for (uint i = 0; i < candidates.length; i++) {... */\n    tag_54:\n        /* \"Vottiny_System.sol\":510:520  candidates */\n      0x00\n        /* \"Vottiny_System.sol\":510:527  candidates.length */\n      dup1\n      sload\n      swap1\n      pop\n        /* \"Vottiny_System.sol\":506:507  i */\n      dup2\n        /* \"Vottiny_System.sol\":506:527  i < candidates.length */\n      lt\n        /* \"Vottiny_System.sol\":489:700  for (uint i = 0; i < candidates.length; i++) {... */\n      iszero\n      tag_55\n      jumpi\n        /* \"Vottiny_System.sol\":604:614  _candidate */\n      dup3\n        /* \"Vottiny_System.sol\":588:616  keccak256(bytes(_candidate)) */\n      dup1\n      mload\n      swap1\n      0x20\n      add\n      keccak256\n        /* \"Vottiny_System.sol\":569:579  candidates */\n      0x00\n        /* \"Vottiny_System.sol\":580:581  i */\n      dup3\n        /* \"Vottiny_System.sol\":569:582  candidates[i] */\n      dup2\n      sload\n      dup2\n      lt\n      tag_57\n      jumpi\n      tag_58\n      tag_59\n      jump\t// in\n    tag_58:\n    tag_57:\n      swap1\n      0x00\n      mstore\n      keccak256(0x00, 0x20)\n      add\n        /* \"Vottiny_System.sol\":553:584  keccak256(bytes(candidates[i])) */\n      mload(0x40)\n      tag_61\n      swap2\n      swap1\n      tag_62\n      jump\t// in\n    tag_61:\n      mload(0x40)\n      dup1\n      swap2\n      sub\n      swap1\n      keccak256\n        /* \"Vottiny_System.sol\":553:616  keccak256(bytes(candidates[i])) == keccak256(bytes(_candidate)) */\n      sub\n        /* \"Vottiny_System.sol\":549:689  if (keccak256(bytes(candidates[i])) == keccak256(bytes(_candidate))) {... */\n      tag_63\n      jumpi\n        /* \"Vottiny_System.sol\":645:649  true */\n      0x01\n        /* \"Vottiny_System.sol\":637:649  valid = true */\n      swap2\n      pop\n        /* \"Vottiny_System.sol\":668:673  break */\n      jump(tag_55)\n        /* \"Vottiny_System.sol\":549:689  if (keccak256(bytes(candidates[i])) == keccak256(bytes(_candidate))) {... */\n    tag_63:\n        /* \"Vottiny_System.sol\":529:532  i++ */\n      dup1\n      dup1\n      0x01\n      add\n      swap2\n      pop\n      pop\n        /* \"Vottiny_System.sol\":489:700  for (uint i = 0; i < candidates.length; i++) {... */\n      jump(tag_54)\n    tag_55:\n      pop\n        /* \"Vottiny_System.sol\":720:725  valid */\n      dup1\n        /* \"Vottiny_System.sol\":712:747  require(valid, \"Invalid candidate\") */\n      tag_64\n      jumpi\n      mload(0x40)\n      0x08c379a000000000000000000000000000000000000000000000000000000000\n      dup2\n      mstore\n      0x04\n      add\n      tag_65\n      swap1\n      tag_66\n      jump\t// in\n    tag_65:\n      mload(0x40)\n      dup1\n      swap2\n      sub\n      swap1\n      revert\n    tag_64:\n        /* \"Vottiny_System.sol\":760:765  votes */\n      0x01\n        /* \"Vottiny_System.sol\":766:776  _candidate */\n      dup3\n        /* \"Vottiny_System.sol\":760:777  votes[_candidate] */\n      mload(0x40)\n      tag_67\n      swap2\n      swap1\n      tag_68\n      jump\t// in\n    tag_67:\n      swap1\n      dup2\n      mstore\n      0x20\n      add\n      mload(0x40)\n      dup1\n      swap2\n      sub\n      swap1\n      keccak256\n      0x00\n        /* \"Vottiny_System.sol\":760:779  votes[_candidate]++ */\n      dup2\n      sload\n      dup1\n      swap3\n      swap2\n      swap1\n      tag_69\n      swap1\n      tag_70\n      jump\t// in\n    tag_69:\n      swap2\n      swap1\n      pop\n      sstore\n      pop\n        /* \"Vottiny_System.sol\":813:817  true */\n      0x01\n        /* \"Vottiny_System.sol\":790:798  hasVoted */\n      0x02\n        /* \"Vottiny_System.sol\":790:810  hasVoted[msg.sender] */\n      0x00\n        /* \"Vottiny_System.sol\":799:809  msg.sender */\n      caller\n        /* \"Vottiny_System.sol\":790:810  hasVoted[msg.sender] */\n      0xffffffffffffffffffffffffffffffffffffffff\n      and\n      0xffffffffffffffffffffffffffffffffffffffff\n      and\n      dup2\n      mstore\n      0x20\n      add\n      swap1\n      dup2\n      mstore\n      0x20\n      add\n      0x00\n      keccak256\n      0x00\n        /* \"Vottiny_System.sol\":790:817  hasVoted[msg.sender] = true */\n      0x0100\n      exp\n      dup2\n      sload\n      dup2\n      0xff\n      mul\n      not\n      and\n      swap1\n      dup4\n      iszero\n      iszero\n      mul\n      or\n      swap1\n      sstore\n      pop\n        /* \"Vottiny_System.sol\":387:825  {... */\n      pop\n        /* \"Vottiny_System.sol\":340:825  function vote(string memory _candidate) public {... */\n      pop\n      jump\t// out\n        /* \"#utility.yul\":7:131   */\n    tag_71:\n        /* \"#utility.yul\":84:90   */\n      0x00\n        /* \"#utility.yul\":118:123   */\n      dup2\n        /* \"#utility.yul\":112:124   */\n      mload\n        /* \"#utility.yul\":102:124   */\n      swap1\n      pop\n        /* \"#utility.yul\":7:131   */\n      swap2\n      swap1\n      pop\n      jump\t// out\n        /* \"#utility.yul\":137:331   */\n    tag_72:\n        /* \"#utility.yul\":246:257   */\n      0x00\n        /* \"#utility.yul\":280:286   */\n      dup3\n        /* \"#utility.yul\":275:278   */\n      dup3\n        /* \"#utility.yul\":268:287   */\n      mstore\n        /* \"#utility.yul\":320:324   */\n      0x20\n        /* \"#utility.yul\":315:318   */\n      dup3\n        /* \"#utility.yul\":311:325   */\n      add\n        /* \"#utility.yul\":296:325   */\n      swap1\n      pop\n        /* \"#utility.yul\":137:331   */\n      swap3\n      swap2\n      pop\n      pop\n      jump\t// out\n        /* \"#utility.yul\":337:479   */\n    tag_73:\n        /* \"#utility.yul\":414:418   */\n      0x00\n        /* \"#utility.yul\":437:440   */\n      dup2\n        /* \"#utility.yul\":429:440   */\n      swap1\n      pop\n        /* \"#utility.yul\":467:471   */\n      0x20\n        /* \"#utility.yul\":462:465   */\n      dup3\n        /* \"#utility.yul\":458:472   */\n      add\n        /* \"#utility.yul\":450:472   */\n      swap1\n      pop\n        /* \"#utility.yul\":337:479   */\n      swap2\n      swap1\n      pop\n      jump\t// out\n        /* \"#utility.yul\":485:584   */\n    tag_74:\n        /* \"#utility.yul\":537:543   */\n      0x00\n        /* \"#utility.yul\":571:576   */\n      dup2\n        /* \"#utility.yul\":565:577   */\n      mload\n        /* \"#utility.yul\":555:577   */\n      swap1\n      pop\n        /* \"#utility.yul\":485:584   */\n      swap2\n      swap1\n      pop\n      jump\t// out\n        /* \"#utility.yul\":590:749   */\n    tag_75:\n        /* \"#utility.yul\":664:675   */\n      0x00\n        /* \"#utility.yul\":698:704   */\n      dup3\n        /* \"#utility.yul\":693:696   */\n      dup3\n        /* \"#utility.yul\":686:705   */\n      mstore\n        /* \"#utility.yul\":738:742   */\n      0x20\n        /* \"#utility.yul\":733:736   */\n      dup3\n        /* \"#utility.yul\":729:743   */\n      add\n        /* \"#utility.yul\":714:743   */\n      swap1\n      pop\n        /* \"#utility.yul\":590:749   */\n      swap3\n      swap2\n      pop\n      pop\n      jump\t// out\n        /* \"#utility.yul\":755:894   */\n    tag_76:\n        /* \"#utility.yul\":844:850   */\n      dup3\n        /* \"#utility.yul\":839:842   */\n      dup2\n        /* \"#utility.yul\":834:837   */\n      dup4\n        /* \"#utility.yul\":828:851   */\n      mcopy\n        /* \"#utility.yul\":885:886   */\n      0x00\n        /* \"#utility.yul\":876:882   */\n      dup4\n        /* \"#utility.yul\":871:874   */\n      dup4\n        /* \"#utility.yul\":867:883   */\n      add\n        /* \"#utility.yul\":860:887   */\n      mstore\n        /* \"#utility.yul\":755:894   */\n      pop\n      pop\n      pop\n      jump\t// out\n        /* \"#utility.yul\":900:1002   */\n    tag_77:\n        /* \"#utility.yul\":941:947   */\n      0x00\n        /* \"#utility.yul\":992:994   */\n      0x1f\n        /* \"#utility.yul\":988:995   */\n      not\n        /* \"#utility.yul\":983:985   */\n      0x1f\n        /* \"#utility.yul\":976:981   */\n      dup4\n        /* \"#utility.yul\":972:986   */\n      add\n        /* \"#utility.yul\":968:996   */\n      and\n        /* \"#utility.yul\":958:996   */\n      swap1\n      pop\n        /* \"#utility.yul\":900:1002   */\n      swap2\n      swap1\n      pop\n      jump\t// out\n        /* \"#utility.yul\":1008:1365   */\n    tag_78:\n        /* \"#utility.yul\":1086:1089   */\n      0x00\n        /* \"#utility.yul\":1114:1153   */\n      tag_126\n        /* \"#utility.yul\":1147:1152   */\n      dup3\n        /* \"#utility.yul\":1114:1153   */\n      tag_74\n      jump\t// in\n    tag_126:\n        /* \"#utility.yul\":1169:1230   */\n      tag_127\n        /* \"#utility.yul\":1223:1229   */\n      dup2\n        /* \"#utility.yul\":1218:1221   */\n      dup6\n        /* \"#utility.yul\":1169:1230   */\n      tag_75\n      jump\t// in\n    tag_127:\n        /* \"#utility.yul\":1162:1230   */\n      swap4\n      pop\n        /* \"#utility.yul\":1239:1304   */\n      tag_128\n        /* \"#utility.yul\":1297:1303   */\n      dup2\n        /* \"#utility.yul\":1292:1295   */\n      dup6\n        /* \"#utility.yul\":1285:1289   */\n      0x20\n        /* \"#utility.yul\":1278:1283   */\n      dup7\n        /* \"#utility.yul\":1274:1290   */\n      add\n        /* \"#utility.yul\":1239:1304   */\n      tag_76\n      jump\t// in\n    tag_128:\n        /* \"#utility.yul\":1329:1358   */\n      tag_129\n        /* \"#utility.yul\":1351:1357   */\n      dup2\n        /* \"#utility.yul\":1329:1358   */\n      tag_77\n      jump\t// in\n    tag_129:\n        /* \"#utility.yul\":1324:1327   */\n      dup5\n        /* \"#utility.yul\":1320:1359   */\n      add\n        /* \"#utility.yul\":1313:1359   */\n      swap2\n      pop\n        /* \"#utility.yul\":1090:1365   */\n      pop\n        /* \"#utility.yul\":1008:1365   */\n      swap3\n      swap2\n      pop\n      pop\n      jump\t// out\n        /* \"#utility.yul\":1371:1567   */\n    tag_79:\n        /* \"#utility.yul\":1460:1470   */\n      0x00\n        /* \"#utility.yul\":1495:1561   */\n      tag_131\n        /* \"#utility.yul\":1557:1560   */\n      dup4\n        /* \"#utility.yul\":1549:1555   */\n      dup4\n        /* \"#utility.yul\":1495:1561   */\n      tag_78\n      jump\t// in\n    tag_131:\n        /* \"#utility.yul\":1481:1561   */\n      swap1\n      pop\n        /* \"#utility.yul\":1371:1567   */\n      swap3\n      swap2\n      pop\n      pop\n      jump\t// out\n        /* \"#utility.yul\":1573:1696   */\n    tag_80:\n        /* \"#utility.yul\":1653:1657   */\n      0x00\n        /* \"#utility.yul\":1685:1689   */\n      0x20\n        /* \"#utility.yul\":1680:1683   */\n      dup3\n        /* \"#utility.yul\":1676:1690   */\n      add\n        /* \"#utility.yul\":1668:1690   */\n      swap1\n      pop\n        /* \"#utility.yul\":1573:1696   */\n      swap2\n      swap1\n      pop\n      jump\t// out\n        /* \"#utility.yul\":1730:2721   */\n    tag_81:\n        /* \"#utility.yul\":1869:1872   */\n      0x00\n        /* \"#utility.yul\":1898:1962   */\n      tag_134\n        /* \"#utility.yul\":1956:1961   */\n      dup3\n        /* \"#utility.yul\":1898:1962   */\n      tag_71\n      jump\t// in\n    tag_134:\n        /* \"#utility.yul\":1978:2074   */\n      tag_135\n        /* \"#utility.yul\":2067:2073   */\n      dup2\n        /* \"#utility.yul\":2062:2065   */\n      dup6\n        /* \"#utility.yul\":1978:2074   */\n      tag_72\n      jump\t// in\n    tag_135:\n        /* \"#utility.yul\":1971:2074   */\n      swap4\n      pop\n        /* \"#utility.yul\":2100:2103   */\n      dup4\n        /* \"#utility.yul\":2145:2149   */\n      0x20\n        /* \"#utility.yul\":2137:2143   */\n      dup3\n        /* \"#utility.yul\":2133:2150   */\n      mul\n        /* \"#utility.yul\":2128:2131   */\n      dup6\n        /* \"#utility.yul\":2124:2151   */\n      add\n        /* \"#utility.yul\":2175:2241   */\n      tag_136\n        /* \"#utility.yul\":2235:2240   */\n      dup6\n        /* \"#utility.yul\":2175:2241   */\n      tag_73\n      jump\t// in\n    tag_136:\n        /* \"#utility.yul\":2264:2271   */\n      dup1\n        /* \"#utility.yul\":2295:2296   */\n      0x00\n        /* \"#utility.yul\":2280:2676   */\n    tag_137:\n        /* \"#utility.yul\":2305:2311   */\n      dup6\n        /* \"#utility.yul\":2302:2303   */\n      dup2\n        /* \"#utility.yul\":2299:2312   */\n      lt\n        /* \"#utility.yul\":2280:2676   */\n      iszero\n      tag_139\n      jumpi\n        /* \"#utility.yul\":2376:2385   */\n      dup5\n        /* \"#utility.yul\":2370:2374   */\n      dup5\n        /* \"#utility.yul\":2366:2386   */\n      sub\n        /* \"#utility.yul\":2361:2364   */\n      dup10\n        /* \"#utility.yul\":2354:2387   */\n      mstore\n        /* \"#utility.yul\":2427:2433   */\n      dup2\n        /* \"#utility.yul\":2421:2434   */\n      mload\n        /* \"#utility.yul\":2455:2539   */\n      tag_140\n        /* \"#utility.yul\":2534:2538   */\n      dup6\n        /* \"#utility.yul\":2519:2532   */\n      dup3\n        /* \"#utility.yul\":2455:2539   */\n      tag_79\n      jump\t// in\n    tag_140:\n        /* \"#utility.yul\":2447:2539   */\n      swap5\n      pop\n        /* \"#utility.yul\":2562:2632   */\n      tag_141\n        /* \"#utility.yul\":2625:2631   */\n      dup4\n        /* \"#utility.yul\":2562:2632   */\n      tag_80\n      jump\t// in\n    tag_141:\n        /* \"#utility.yul\":2552:2632   */\n      swap3\n      pop\n        /* \"#utility.yul\":2661:2665   */\n      0x20\n        /* \"#utility.yul\":2656:2659   */\n      dup11\n        /* \"#utility.yul\":2652:2666   */\n      add\n        /* \"#utility.yul\":2645:2666   */\n      swap10\n      pop\n        /* \"#utility.yul\":2340:2676   */\n      pop\n        /* \"#utility.yul\":2327:2328   */\n      0x01\n        /* \"#utility.yul\":2324:2325   */\n      dup2\n        /* \"#utility.yul\":2320:2329   */\n      add\n        /* \"#utility.yul\":2315:2329   */\n      swap1\n      pop\n        /* \"#utility.yul\":2280:2676   */\n      jump(tag_137)\n    tag_139:\n        /* \"#utility.yul\":2284:2298   */\n      pop\n        /* \"#utility.yul\":2692:2696   */\n      dup3\n        /* \"#utility.yul\":2685:2696   */\n      swap8\n      pop\n        /* \"#utility.yul\":2712:2715   */\n      dup8\n        /* \"#utility.yul\":2705:2715   */\n      swap6\n      pop\n        /* \"#utility.yul\":1874:2721   */\n      pop\n      pop\n      pop\n      pop\n      pop\n        /* \"#utility.yul\":1730:2721   */\n      swap3\n      swap2\n      pop\n      pop\n      jump\t// out\n        /* \"#utility.yul\":2727:3140   */\n    tag_11:\n        /* \"#utility.yul\":2890:2894   */\n      0x00\n        /* \"#utility.yul\":2928:2930   */\n      0x20\n        /* \"#utility.yul\":2917:2926   */\n      dup3\n        /* \"#utility.yul\":2913:2931   */\n      add\n        /* \"#utility.yul\":2905:2931   */\n      swap1\n      pop\n        /* \"#utility.yul\":2977:2986   */\n      dup2\n        /* \"#utility.yul\":2971:2975   */\n      dup2\n        /* \"#utility.yul\":2967:2987   */\n      sub\n        /* \"#utility.yul\":2963:2964   */\n      0x00\n        /* \"#utility.yul\":2952:2961   */\n      dup4\n        /* \"#utility.yul\":2948:2965   */\n      add\n        /* \"#utility.yul\":2941:2988   */\n      mstore\n        /* \"#utility.yul\":3005:3133   */\n      tag_143\n        /* \"#utility.yul\":3128:3132   */\n      dup2\n        /* \"#utility.yul\":3119:3125   */\n      dup5\n        /* \"#utility.yul\":3005:3133   */\n      tag_81\n      jump\t// in\n    tag_143:\n        /* \"#utility.yul\":2997:3133   */\n      swap1\n      pop\n        /* \"#utility.yul\":2727:3140   */\n      swap3\n      swap2\n      pop\n      pop\n      jump\t// out\n        /* \"#utility.yul\":3146:3221   */\n    tag_82:\n        /* \"#utility.yul\":3179:3185   */\n      0x00\n        /* \"#utility.yul\":3212:3214   */\n      0x40\n        /* \"#utility.yul\":3206:3215   */\n      mload\n        /* \"#utility.yul\":3196:3215   */\n      swap1\n      pop\n        /* \"#utility.yul\":3146:3221   */\n      swap1\n      jump\t// out\n        /* \"#utility.yul\":3227:3344   */\n    tag_83:\n        /* \"#utility.yul\":3336:3337   */\n      0x00\n        /* \"#utility.yul\":3333:3334   */\n      0x00\n        /* \"#utility.yul\":3326:3338   */\n      revert\n        /* \"#utility.yul\":3350:3467   */\n    tag_84:\n        /* \"#utility.yul\":3459:3460   */\n      0x00\n        /* \"#utility.yul\":3456:3457   */\n      0x00\n        /* \"#utility.yul\":3449:3461   */\n      revert\n        /* \"#utility.yul\":3473:3599   */\n    tag_85:\n        /* \"#utility.yul\":3510:3517   */\n      0x00\n        /* \"#utility.yul\":3550:3592   */\n      0xffffffffffffffffffffffffffffffffffffffff\n        /* \"#utility.yul\":3543:3548   */\n      dup3\n        /* \"#utility.yul\":3539:3593   */\n      and\n        /* \"#utility.yul\":3528:3593   */\n      swap1\n      pop\n        /* \"#utility.yul\":3473:3599   */\n      swap2\n      swap1\n      pop\n      jump\t// out\n        /* \"#utility.yul\":3605:3701   */\n    tag_86:\n        /* \"#utility.yul\":3642:3649   */\n      0x00\n        /* \"#utility.yul\":3671:3695   */\n      tag_149\n        /* \"#utility.yul\":3689:3694   */\n      dup3\n        /* \"#utility.yul\":3671:3695   */\n      tag_85\n      jump\t// in\n    tag_149:\n        /* \"#utility.yul\":3660:3695   */\n      swap1\n      pop\n        /* \"#utility.yul\":3605:3701   */\n      swap2\n      swap1\n      pop\n      jump\t// out\n        /* \"#utility.yul\":3707:3829   */\n    tag_87:\n        /* \"#utility.yul\":3780:3804   */\n      tag_151\n        /* \"#utility.yul\":3798:3803   */\n      dup2\n        /* \"#utility.yul\":3780:3804   */\n      tag_86\n      jump\t// in\n    tag_151:\n        /* \"#utility.yul\":3773:3778   */\n      dup2\n        /* \"#utility.yul\":3770:3805   */\n      eq\n        /* \"#utility.yul\":3760:3823   */\n      tag_152\n      jumpi\n        /* \"#utility.yul\":3819:3820   */\n      0x00\n        /* \"#utility.yul\":3816:3817   */\n      0x00\n        /* \"#utility.yul\":3809:3821   */\n      revert\n        /* \"#utility.yul\":3760:3823   */\n    tag_152:\n        /* \"#utility.yul\":3707:3829   */\n      pop\n      jump\t// out\n        /* \"#utility.yul\":3835:3974   */\n    tag_88:\n        /* \"#utility.yul\":3881:3886   */\n      0x00\n        /* \"#utility.yul\":3919:3925   */\n      dup2\n        /* \"#utility.yul\":3906:3926   */\n      calldataload\n        /* \"#utility.yul\":3897:3926   */\n      swap1\n      pop\n        /* \"#utility.yul\":3935:3968   */\n      tag_154\n        /* \"#utility.yul\":3962:3967   */\n      dup2\n        /* \"#utility.yul\":3935:3968   */\n      tag_87\n      jump\t// in\n    tag_154:\n        /* \"#utility.yul\":3835:3974   */\n      swap3\n      swap2\n      pop\n      pop\n      jump\t// out\n        /* \"#utility.yul\":3980:4309   */\n    tag_14:\n        /* \"#utility.yul\":4039:4045   */\n      0x00\n        /* \"#utility.yul\":4088:4090   */\n      0x20\n        /* \"#utility.yul\":4076:4085   */\n      dup3\n        /* \"#utility.yul\":4067:4074   */\n      dup5\n        /* \"#utility.yul\":4063:4086   */\n      sub\n        /* \"#utility.yul\":4059:4091   */\n      slt\n        /* \"#utility.yul\":4056:4175   */\n      iszero\n      tag_156\n      jumpi\n        /* \"#utility.yul\":4094:4173   */\n      tag_157\n      tag_83\n      jump\t// in\n    tag_157:\n        /* \"#utility.yul\":4056:4175   */\n    tag_156:\n        /* \"#utility.yul\":4214:4215   */\n      0x00\n        /* \"#utility.yul\":4239:4292   */\n      tag_158\n        /* \"#utility.yul\":4284:4291   */\n      dup5\n        /* \"#utility.yul\":4275:4281   */\n      dup3\n        /* \"#utility.yul\":4264:4273   */\n      dup6\n        /* \"#utility.yul\":4260:4282   */\n      add\n        /* \"#utility.yul\":4239:4292   */\n      tag_88\n      jump\t// in\n    tag_158:\n        /* \"#utility.yul\":4229:4292   */\n      swap2\n      pop\n        /* \"#utility.yul\":4185:4302   */\n      pop\n        /* \"#utility.yul\":3980:4309   */\n      swap3\n      swap2\n      pop\n      pop\n      jump\t// out\n        /* \"#utility.yul\":4315:4405   */\n    tag_89:\n        /* \"#utility.yul\":4349:4356   */\n      0x00\n        /* \"#utility.yul\":4392:4397   */\n      dup2\n        /* \"#utility.yul\":4385:4398   */\n      iszero\n        /* \"#utility.yul\":4378:4399   */\n      iszero\n        /* \"#utility.yul\":4367:4399   */\n      swap1\n      pop\n        /* \"#utility.yul\":4315:4405   */\n      swap2\n      swap1\n      pop\n      jump\t// out\n        /* \"#utility.yul\":4411:4520   */\n    tag_90:\n        /* \"#utility.yul\":4492:4513   */\n      tag_161\n        /* \"#utility.yul\":4507:4512   */\n      dup2\n        /* \"#utility.yul\":4492:4513   */\n      tag_89\n      jump\t// in\n    tag_161:\n        /* \"#utility.yul\":4487:4490   */\n      dup3\n        /* \"#utility.yul\":4480:4514   */\n      mstore\n        /* \"#utility.yul\":4411:4520   */\n      pop\n      pop\n      jump\t// out\n        /* \"#utility.yul\":4526:4736   */\n    tag_17:\n        /* \"#utility.yul\":4613:4617   */\n      0x00\n        /* \"#utility.yul\":4651:4653   */\n      0x20\n        /* \"#utility.yul\":4640:4649   */\n      dup3\n        /* \"#utility.yul\":4636:4654   */\n      add\n        /* \"#utility.yul\":4628:4654   */\n      swap1\n      pop\n        /* \"#utility.yul\":4664:4729   */\n      tag_163\n        /* \"#utility.yul\":4726:4727   */\n      0x00\n        /* \"#utility.yul\":4715:4724   */\n      dup4\n        /* \"#utility.yul\":4711:4728   */\n      add\n        /* \"#utility.yul\":4702:4708   */\n      dup5\n        /* \"#utility.yul\":4664:4729   */\n      tag_90\n      jump\t// in\n    tag_163:\n        /* \"#utility.yul\":4526:4736   */\n      swap3\n      swap2\n      pop\n      pop\n      jump\t// out\n        /* \"#utility.yul\":4742:4819   */\n    tag_91:\n        /* \"#utility.yul\":4779:4786   */\n      0x00\n        /* \"#utility.yul\":4808:4813   */\n      dup2\n        /* \"#utility.yul\":4797:4813   */\n      swap1\n      pop\n        /* \"#utility.yul\":4742:4819   */\n      swap2\n      swap1\n      pop\n      jump\t// out\n        /* \"#utility.yul\":4825:4947   */\n    tag_92:\n        /* \"#utility.yul\":4898:4922   */\n      tag_166\n        /* \"#utility.yul\":4916:4921   */\n      dup2\n        /* \"#utility.yul\":4898:4922   */\n      tag_91\n      jump\t// in\n    tag_166:\n        /* \"#utility.yul\":4891:4896   */\n      dup2\n        /* \"#utility.yul\":4888:4923   */\n      eq\n        /* \"#utility.yul\":4878:4941   */\n      tag_167\n      jumpi\n        /* \"#utility.yul\":4937:4938   */\n      0x00\n        /* \"#utility.yul\":4934:4935   */\n      0x00\n        /* \"#utility.yul\":4927:4939   */\n      revert\n        /* \"#utility.yul\":4878:4941   */\n    tag_167:\n        /* \"#utility.yul\":4825:4947   */\n      pop\n      jump\t// out\n        /* \"#utility.yul\":4953:5092   */\n    tag_93:\n        /* \"#utility.yul\":4999:5004   */\n      0x00\n        /* \"#utility.yul\":5037:5043   */\n      dup2\n        /* \"#utility.yul\":5024:5044   */\n      calldataload\n        /* \"#utility.yul\":5015:5044   */\n      swap1\n      pop\n        /* \"#utility.yul\":5053:5086   */\n      tag_169\n        /* \"#utility.yul\":5080:5085   */\n      dup2\n        /* \"#utility.yul\":5053:5086   */\n      tag_92\n      jump\t// in\n    tag_169:\n        /* \"#utility.yul\":4953:5092   */\n      swap3\n      swap2\n      pop\n      pop\n      jump\t// out\n        /* \"#utility.yul\":5098:5427   */\n    tag_20:\n        /* \"#utility.yul\":5157:5163   */\n      0x00\n        /* \"#utility.yul\":5206:5208   */\n      0x20\n        /* \"#utility.yul\":5194:5203   */\n      dup3\n        /* \"#utility.yul\":5185:5192   */\n      dup5\n        /* \"#utility.yul\":5181:5204   */\n      sub\n        /* \"#utility.yul\":5177:5209   */\n      slt\n        /* \"#utility.yul\":5174:5293   */\n      iszero\n      tag_171\n      jumpi\n        /* \"#utility.yul\":5212:5291   */\n      tag_172\n      tag_83\n      jump\t// in\n    tag_172:\n        /* \"#utility.yul\":5174:5293   */\n    tag_171:\n        /* \"#utility.yul\":5332:5333   */\n      0x00\n        /* \"#utility.yul\":5357:5410   */\n      tag_173\n        /* \"#utility.yul\":5402:5409   */\n      dup5\n        /* \"#utility.yul\":5393:5399   */\n      dup3\n        /* \"#utility.yul\":5382:5391   */\n      dup6\n        /* \"#utility.yul\":5378:5400   */\n      add\n        /* \"#utility.yul\":5357:5410   */\n      tag_93\n      jump\t// in\n    tag_173:\n        /* \"#utility.yul\":5347:5410   */\n      swap2\n      pop\n        /* \"#utility.yul\":5303:5420   */\n      pop\n        /* \"#utility.yul\":5098:5427   */\n      swap3\n      swap2\n      pop\n      pop\n      jump\t// out\n        /* \"#utility.yul\":5433:5602   */\n    tag_94:\n        /* \"#utility.yul\":5517:5528   */\n      0x00\n        /* \"#utility.yul\":5551:5557   */\n      dup3\n        /* \"#utility.yul\":5546:5549   */\n      dup3\n        /* \"#utility.yul\":5539:5558   */\n      mstore\n        /* \"#utility.yul\":5591:5595   */\n      0x20\n        /* \"#utility.yul\":5586:5589   */\n      dup3\n        /* \"#utility.yul\":5582:5596   */\n      add\n        /* \"#utility.yul\":5567:5596   */\n      swap1\n      pop\n        /* \"#utility.yul\":5433:5602   */\n      swap3\n      swap2\n      pop\n      pop\n      jump\t// out\n        /* \"#utility.yul\":5608:5985   */\n    tag_95:\n        /* \"#utility.yul\":5696:5699   */\n      0x00\n        /* \"#utility.yul\":5724:5763   */\n      tag_176\n        /* \"#utility.yul\":5757:5762   */\n      dup3\n        /* \"#utility.yul\":5724:5763   */\n      tag_74\n      jump\t// in\n    tag_176:\n        /* \"#utility.yul\":5779:5850   */\n      tag_177\n        /* \"#utility.yul\":5843:5849   */\n      dup2\n        /* \"#utility.yul\":5838:5841   */\n      dup6\n        /* \"#utility.yul\":5779:5850   */\n      tag_94\n      jump\t// in\n    tag_177:\n        /* \"#utility.yul\":5772:5850   */\n      swap4\n      pop\n        /* \"#utility.yul\":5859:5924   */\n      tag_178\n        /* \"#utility.yul\":5917:5923   */\n      dup2\n        /* \"#utility.yul\":5912:5915   */\n      dup6\n        /* \"#utility.yul\":5905:5909   */\n      0x20\n        /* \"#utility.yul\":5898:5903   */\n      dup7\n        /* \"#utility.yul\":5894:5910   */\n      add\n        /* \"#utility.yul\":5859:5924   */\n      tag_76\n      jump\t// in\n    tag_178:\n        /* \"#utility.yul\":5949:5978   */\n      tag_179\n        /* \"#utility.yul\":5971:5977   */\n      dup2\n        /* \"#utility.yul\":5949:5978   */\n      tag_77\n      jump\t// in\n    tag_179:\n        /* \"#utility.yul\":5944:5947   */\n      dup5\n        /* \"#utility.yul\":5940:5979   */\n      add\n        /* \"#utility.yul\":5933:5979   */\n      swap2\n      pop\n        /* \"#utility.yul\":5700:5985   */\n      pop\n        /* \"#utility.yul\":5608:5985   */\n      swap3\n      swap2\n      pop\n      pop\n      jump\t// out\n        /* \"#utility.yul\":5991:6304   */\n    tag_23:\n        /* \"#utility.yul\":6104:6108   */\n      0x00\n        /* \"#utility.yul\":6142:6144   */\n      0x20\n        /* \"#utility.yul\":6131:6140   */\n      dup3\n        /* \"#utility.yul\":6127:6145   */\n      add\n        /* \"#utility.yul\":6119:6145   */\n      swap1\n      pop\n        /* \"#utility.yul\":6191:6200   */\n      dup2\n        /* \"#utility.yul\":6185:6189   */\n      dup2\n        /* \"#utility.yul\":6181:6201   */\n      sub\n        /* \"#utility.yul\":6177:6178   */\n      0x00\n        /* \"#utility.yul\":6166:6175   */\n      dup4\n        /* \"#utility.yul\":6162:6179   */\n      add\n        /* \"#utility.yul\":6155:6202   */\n      mstore\n        /* \"#utility.yul\":6219:6297   */\n      tag_181\n        /* \"#utility.yul\":6292:6296   */\n      dup2\n        /* \"#utility.yul\":6283:6289   */\n      dup5\n        /* \"#utility.yul\":6219:6297   */\n      tag_95\n      jump\t// in\n    tag_181:\n        /* \"#utility.yul\":6211:6297   */\n      swap1\n      pop\n        /* \"#utility.yul\":5991:6304   */\n      swap3\n      swap2\n      pop\n      pop\n      jump\t// out\n        /* \"#utility.yul\":6310:6427   */\n    tag_96:\n        /* \"#utility.yul\":6419:6420   */\n      0x00\n        /* \"#utility.yul\":6416:6417   */\n      0x00\n        /* \"#utility.yul\":6409:6421   */\n      revert\n        /* \"#utility.yul\":6433:6550   */\n    tag_97:\n        /* \"#utility.yul\":6542:6543   */\n      0x00\n        /* \"#utility.yul\":6539:6540   */\n      0x00\n        /* \"#utility.yul\":6532:6544   */\n      revert\n        /* \"#utility.yul\":6556:6736   */\n    tag_98:\n        /* \"#utility.yul\":6604:6681   */\n      0x4e487b7100000000000000000000000000000000000000000000000000000000\n        /* \"#utility.yul\":6601:6602   */\n      0x00\n        /* \"#utility.yul\":6594:6682   */\n      mstore\n        /* \"#utility.yul\":6701:6705   */\n      0x41\n        /* \"#utility.yul\":6698:6699   */\n      0x04\n        /* \"#utility.yul\":6691:6706   */\n      mstore\n        /* \"#utility.yul\":6725:6729   */\n      0x24\n        /* \"#utility.yul\":6722:6723   */\n      0x00\n        /* \"#utility.yul\":6715:6730   */\n      revert\n        /* \"#utility.yul\":6742:7023   */\n    tag_99:\n        /* \"#utility.yul\":6825:6852   */\n      tag_186\n        /* \"#utility.yul\":6847:6851   */\n      dup3\n        /* \"#utility.yul\":6825:6852   */\n      tag_77\n      jump\t// in\n    tag_186:\n        /* \"#utility.yul\":6817:6823   */\n      dup2\n        /* \"#utility.yul\":6813:6853   */\n      add\n        /* \"#utility.yul\":6955:6961   */\n      dup2\n        /* \"#utility.yul\":6943:6953   */\n      dup2\n        /* \"#utility.yul\":6940:6962   */\n      lt\n        /* \"#utility.yul\":6919:6937   */\n      0xffffffffffffffff\n        /* \"#utility.yul\":6907:6917   */\n      dup3\n        /* \"#utility.yul\":6904:6938   */\n      gt\n        /* \"#utility.yul\":6901:6963   */\n      or\n        /* \"#utility.yul\":6898:6986   */\n      iszero\n      tag_187\n      jumpi\n        /* \"#utility.yul\":6966:6984   */\n      tag_188\n      tag_98\n      jump\t// in\n    tag_188:\n        /* \"#utility.yul\":6898:6986   */\n    tag_187:\n        /* \"#utility.yul\":7006:7016   */\n      dup1\n        /* \"#utility.yul\":7002:7004   */\n      0x40\n        /* \"#utility.yul\":6995:7017   */\n      mstore\n        /* \"#utility.yul\":6785:7023   */\n      pop\n        /* \"#utility.yul\":6742:7023   */\n      pop\n      pop\n      jump\t// out\n        /* \"#utility.yul\":7029:7158   */\n    tag_100:\n        /* \"#utility.yul\":7063:7069   */\n      0x00\n        /* \"#utility.yul\":7090:7110   */\n      tag_190\n      tag_82\n      jump\t// in\n    tag_190:\n        /* \"#utility.yul\":7080:7110   */\n      swap1\n      pop\n        /* \"#utility.yul\":7119:7152   */\n      tag_191\n        /* \"#utility.yul\":7147:7151   */\n      dup3\n        /* \"#utility.yul\":7139:7145   */\n      dup3\n        /* \"#utility.yul\":7119:7152   */\n      tag_99\n      jump\t// in\n    tag_191:\n        /* \"#utility.yul\":7029:7158   */\n      swap2\n      swap1\n      pop\n      jump\t// out\n        /* \"#utility.yul\":7164:7472   */\n    tag_101:\n        /* \"#utility.yul\":7226:7230   */\n      0x00\n        /* \"#utility.yul\":7316:7334   */\n      0xffffffffffffffff\n        /* \"#utility.yul\":7308:7314   */\n      dup3\n        /* \"#utility.yul\":7305:7335   */\n      gt\n        /* \"#utility.yul\":7302:7358   */\n      iszero\n      tag_193\n      jumpi\n        /* \"#utility.yul\":7338:7356   */\n      tag_194\n      tag_98\n      jump\t// in\n    tag_194:\n        /* \"#utility.yul\":7302:7358   */\n    tag_193:\n        /* \"#utility.yul\":7376:7405   */\n      tag_195\n        /* \"#utility.yul\":7398:7404   */\n      dup3\n        /* \"#utility.yul\":7376:7405   */\n      tag_77\n      jump\t// in\n    tag_195:\n        /* \"#utility.yul\":7368:7405   */\n      swap1\n      pop\n        /* \"#utility.yul\":7460:7464   */\n      0x20\n        /* \"#utility.yul\":7454:7458   */\n      dup2\n        /* \"#utility.yul\":7450:7465   */\n      add\n        /* \"#utility.yul\":7442:7465   */\n      swap1\n      pop\n        /* \"#utility.yul\":7164:7472   */\n      swap2\n      swap1\n      pop\n      jump\t// out\n        /* \"#utility.yul\":7478:7626   */\n    tag_102:\n        /* \"#utility.yul\":7576:7582   */\n      dup3\n        /* \"#utility.yul\":7571:7574   */\n      dup2\n        /* \"#utility.yul\":7566:7569   */\n      dup4\n        /* \"#utility.yul\":7553:7583   */\n      calldatacopy\n        /* \"#utility.yul\":7617:7618   */\n      0x00\n        /* \"#utility.yul\":7608:7614   */\n      dup4\n        /* \"#utility.yul\":7603:7606   */\n      dup4\n        /* \"#utility.yul\":7599:7615   */\n      add\n        /* \"#utility.yul\":7592:7619   */\n      mstore\n        /* \"#utility.yul\":7478:7626   */\n      pop\n      pop\n      pop\n      jump\t// out\n        /* \"#utility.yul\":7632:8057   */\n    tag_103:\n        /* \"#utility.yul\":7710:7715   */\n      0x00\n        /* \"#utility.yul\":7735:7801   */\n      tag_198\n        /* \"#utility.yul\":7751:7800   */\n      tag_199\n        /* \"#utility.yul\":7793:7799   */\n      dup5\n        /* \"#utility.yul\":7751:7800   */\n      tag_101\n      jump\t// in\n    tag_199:\n        /* \"#utility.yul\":7735:7801   */\n      tag_100\n      jump\t// in\n    tag_198:\n        /* \"#utility.yul\":7726:7801   */\n      swap1\n      pop\n        /* \"#utility.yul\":7824:7830   */\n      dup3\n        /* \"#utility.yul\":7817:7822   */\n      dup2\n        /* \"#utility.yul\":7810:7831   */\n      mstore\n        /* \"#utility.yul\":7862:7866   */\n      0x20\n        /* \"#utility.yul\":7855:7860   */\n      dup2\n        /* \"#utility.yul\":7851:7867   */\n      add\n        /* \"#utility.yul\":7900:7903   */\n      dup5\n        /* \"#utility.yul\":7891:7897   */\n      dup5\n        /* \"#utility.yul\":7886:7889   */\n      dup5\n        /* \"#utility.yul\":7882:7898   */\n      add\n        /* \"#utility.yul\":7879:7904   */\n      gt\n        /* \"#utility.yul\":7876:7988   */\n      iszero\n      tag_200\n      jumpi\n        /* \"#utility.yul\":7907:7986   */\n      tag_201\n      tag_97\n      jump\t// in\n    tag_201:\n        /* \"#utility.yul\":7876:7988   */\n    tag_200:\n        /* \"#utility.yul\":7997:8051   */\n      tag_202\n        /* \"#utility.yul\":8044:8050   */\n      dup5\n        /* \"#utility.yul\":8039:8042   */\n      dup3\n        /* \"#utility.yul\":8034:8037   */\n      dup6\n        /* \"#utility.yul\":7997:8051   */\n      tag_102\n      jump\t// in\n    tag_202:\n        /* \"#utility.yul\":7716:8057   */\n      pop\n        /* \"#utility.yul\":7632:8057   */\n      swap4\n      swap3\n      pop\n      pop\n      pop\n      jump\t// out\n        /* \"#utility.yul\":8077:8417   */\n    tag_104:\n        /* \"#utility.yul\":8133:8138   */\n      0x00\n        /* \"#utility.yul\":8182:8185   */\n      dup3\n        /* \"#utility.yul\":8175:8179   */\n      0x1f\n        /* \"#utility.yul\":8167:8173   */\n      dup4\n        /* \"#utility.yul\":8163:8180   */\n      add\n        /* \"#utility.yul\":8159:8186   */\n      slt\n        /* \"#utility.yul\":8149:8271   */\n      tag_204\n      jumpi\n        /* \"#utility.yul\":8190:8269   */\n      tag_205\n      tag_96\n      jump\t// in\n    tag_205:\n        /* \"#utility.yul\":8149:8271   */\n    tag_204:\n        /* \"#utility.yul\":8307:8313   */\n      dup2\n        /* \"#utility.yul\":8294:8314   */\n      calldataload\n        /* \"#utility.yul\":8332:8411   */\n      tag_206\n        /* \"#utility.yul\":8407:8410   */\n      dup5\n        /* \"#utility.yul\":8399:8405   */\n      dup3\n        /* \"#utility.yul\":8392:8396   */\n      0x20\n        /* \"#utility.yul\":8384:8390   */\n      dup7\n        /* \"#utility.yul\":8380:8397   */\n      add\n        /* \"#utility.yul\":8332:8411   */\n      tag_103\n      jump\t// in\n    tag_206:\n        /* \"#utility.yul\":8323:8411   */\n      swap2\n      pop\n        /* \"#utility.yul\":8139:8417   */\n      pop\n        /* \"#utility.yul\":8077:8417   */\n      swap3\n      swap2\n      pop\n      pop\n      jump\t// out\n        /* \"#utility.yul\":8423:8932   */\n    tag_26:\n        /* \"#utility.yul\":8492:8498   */\n      0x00\n        /* \"#utility.yul\":8541:8543   */\n      0x20\n        /* \"#utility.yul\":8529:8538   */\n      dup3\n        /* \"#utility.yul\":8520:8527   */\n      dup5\n        /* \"#utility.yul\":8516:8539   */\n      sub\n        /* \"#utility.yul\":8512:8544   */\n      slt\n        /* \"#utility.yul\":8509:8628   */\n      iszero\n      tag_208\n      jumpi\n        /* \"#utility.yul\":8547:8626   */\n      tag_209\n      tag_83\n      jump\t// in\n    tag_209:\n        /* \"#utility.yul\":8509:8628   */\n    tag_208:\n        /* \"#utility.yul\":8695:8696   */\n      0x00\n        /* \"#utility.yul\":8684:8693   */\n      dup3\n        /* \"#utility.yul\":8680:8697   */\n      add\n        /* \"#utility.yul\":8667:8698   */\n      calldataload\n        /* \"#utility.yul\":8725:8743   */\n      0xffffffffffffffff\n        /* \"#utility.yul\":8717:8723   */\n      dup2\n        /* \"#utility.yul\":8714:8744   */\n      gt\n        /* \"#utility.yul\":8711:8828   */\n      iszero\n      tag_210\n      jumpi\n        /* \"#utility.yul\":8747:8826   */\n      tag_211\n      tag_84\n      jump\t// in\n    tag_211:\n        /* \"#utility.yul\":8711:8828   */\n    tag_210:\n        /* \"#utility.yul\":8852:8915   */\n      tag_212\n        /* \"#utility.yul\":8907:8914   */\n      dup5\n        /* \"#utility.yul\":8898:8904   */\n      dup3\n        /* \"#utility.yul\":8887:8896   */\n      dup6\n        /* \"#utility.yul\":8883:8905   */\n      add\n        /* \"#utility.yul\":8852:8915   */\n      tag_104\n      jump\t// in\n    tag_212:\n        /* \"#utility.yul\":8842:8915   */\n      swap2\n      pop\n        /* \"#utility.yul\":8638:8925   */\n      pop\n        /* \"#utility.yul\":8423:8932   */\n      swap3\n      swap2\n      pop\n      pop\n      jump\t// out\n        /* \"#utility.yul\":8938:9056   */\n    tag_105:\n        /* \"#utility.yul\":9025:9049   */\n      tag_214\n        /* \"#utility.yul\":9043:9048   */\n      dup2\n        /* \"#utility.yul\":9025:9049   */\n      tag_91\n      jump\t// in\n    tag_214:\n        /* \"#utility.yul\":9020:9023   */\n      dup3\n        /* \"#utility.yul\":9013:9050   */\n      mstore\n        /* \"#utility.yul\":8938:9056   */\n      pop\n      pop\n      jump\t// out\n        /* \"#utility.yul\":9062:9284   */\n    tag_29:\n        /* \"#utility.yul\":9155:9159   */\n      0x00\n        /* \"#utility.yul\":9193:9195   */\n      0x20\n        /* \"#utility.yul\":9182:9191   */\n      dup3\n        /* \"#utility.yul\":9178:9196   */\n      add\n        /* \"#utility.yul\":9170:9196   */\n      swap1\n      pop\n        /* \"#utility.yul\":9206:9277   */\n      tag_216\n        /* \"#utility.yul\":9274:9275   */\n      0x00\n        /* \"#utility.yul\":9263:9272   */\n      dup4\n        /* \"#utility.yul\":9259:9276   */\n      add\n        /* \"#utility.yul\":9250:9256   */\n      dup5\n        /* \"#utility.yul\":9206:9277   */\n      tag_105\n      jump\t// in\n    tag_216:\n        /* \"#utility.yul\":9062:9284   */\n      swap3\n      swap2\n      pop\n      pop\n      jump\t// out\n        /* \"#utility.yul\":9290:9470   */\n    tag_106:\n        /* \"#utility.yul\":9338:9415   */\n      0x4e487b7100000000000000000000000000000000000000000000000000000000\n        /* \"#utility.yul\":9335:9336   */\n      0x00\n        /* \"#utility.yul\":9328:9416   */\n      mstore\n        /* \"#utility.yul\":9435:9439   */\n      0x22\n        /* \"#utility.yul\":9432:9433   */\n      0x04\n        /* \"#utility.yul\":9425:9440   */\n      mstore\n        /* \"#utility.yul\":9459:9463   */\n      0x24\n        /* \"#utility.yul\":9456:9457   */\n      0x00\n        /* \"#utility.yul\":9449:9464   */\n      revert\n        /* \"#utility.yul\":9476:9796   */\n    tag_38:\n        /* \"#utility.yul\":9520:9526   */\n      0x00\n        /* \"#utility.yul\":9557:9558   */\n      0x02\n        /* \"#utility.yul\":9551:9555   */\n      dup3\n        /* \"#utility.yul\":9547:9559   */\n      div\n        /* \"#utility.yul\":9537:9559   */\n      swap1\n      pop\n        /* \"#utility.yul\":9604:9605   */\n      0x01\n        /* \"#utility.yul\":9598:9602   */\n      dup3\n        /* \"#utility.yul\":9594:9606   */\n      and\n        /* \"#utility.yul\":9625:9643   */\n      dup1\n        /* \"#utility.yul\":9615:9696   */\n      tag_219\n      jumpi\n        /* \"#utility.yul\":9681:9685   */\n      0x7f\n        /* \"#utility.yul\":9673:9679   */\n      dup3\n        /* \"#utility.yul\":9669:9686   */\n      and\n        /* \"#utility.yul\":9659:9686   */\n      swap2\n      pop\n        /* \"#utility.yul\":9615:9696   */\n    tag_219:\n        /* \"#utility.yul\":9743:9745   */\n      0x20\n        /* \"#utility.yul\":9735:9741   */\n      dup3\n        /* \"#utility.yul\":9732:9746   */\n      lt\n        /* \"#utility.yul\":9712:9730   */\n      dup2\n        /* \"#utility.yul\":9709:9747   */\n      sub\n        /* \"#utility.yul\":9706:9790   */\n      tag_220\n      jumpi\n        /* \"#utility.yul\":9762:9780   */\n      tag_221\n      tag_106\n      jump\t// in\n    tag_221:\n        /* \"#utility.yul\":9706:9790   */\n    tag_220:\n        /* \"#utility.yul\":9527:9796   */\n      pop\n        /* \"#utility.yul\":9476:9796   */\n      swap2\n      swap1\n      pop\n      jump\t// out\n        /* \"#utility.yul\":9802:9965   */\n    tag_107:\n        /* \"#utility.yul\":9942:9957   */\n      0x416c726561647920766f74656400000000000000000000000000000000000000\n        /* \"#utility.yul\":9938:9939   */\n      0x00\n        /* \"#utility.yul\":9930:9936   */\n      dup3\n        /* \"#utility.yul\":9926:9940   */\n      add\n        /* \"#utility.yul\":9919:9958   */\n      mstore\n        /* \"#utility.yul\":9802:9965   */\n      pop\n      jump\t// out\n        /* \"#utility.yul\":9971:10337   */\n    tag_108:\n        /* \"#utility.yul\":10113:10116   */\n      0x00\n        /* \"#utility.yul\":10134:10201   */\n      tag_224\n        /* \"#utility.yul\":10198:10200   */\n      0x0d\n        /* \"#utility.yul\":10193:10196   */\n      dup4\n        /* \"#utility.yul\":10134:10201   */\n      tag_94\n      jump\t// in\n    tag_224:\n        /* \"#utility.yul\":10127:10201   */\n      swap2\n      pop\n        /* \"#utility.yul\":10210:10303   */\n      tag_225\n        /* \"#utility.yul\":10299:10302   */\n      dup3\n        /* \"#utility.yul\":10210:10303   */\n      tag_107\n      jump\t// in\n    tag_225:\n        /* \"#utility.yul\":10328:10330   */\n      0x20\n        /* \"#utility.yul\":10323:10326   */\n      dup3\n        /* \"#utility.yul\":10319:10331   */\n      add\n        /* \"#utility.yul\":10312:10331   */\n      swap1\n      pop\n        /* \"#utility.yul\":9971:10337   */\n      swap2\n      swap1\n      pop\n      jump\t// out\n        /* \"#utility.yul\":10343:10762   */\n    tag_53:\n        /* \"#utility.yul\":10509:10513   */\n      0x00\n        /* \"#utility.yul\":10547:10549   */\n      0x20\n        /* \"#utility.yul\":10536:10545   */\n      dup3\n        /* \"#utility.yul\":10532:10550   */\n      add\n        /* \"#utility.yul\":10524:10550   */\n      swap1\n      pop\n        /* \"#utility.yul\":10596:10605   */\n      dup2\n        /* \"#utility.yul\":10590:10594   */\n      dup2\n        /* \"#utility.yul\":10586:10606   */\n      sub\n        /* \"#utility.yul\":10582:10583   */\n      0x00\n        /* \"#utility.yul\":10571:10580   */\n      dup4\n        /* \"#utility.yul\":10567:10584   */\n      add\n        /* \"#utility.yul\":10560:10607   */\n      mstore\n        /* \"#utility.yul\":10624:10755   */\n      tag_227\n        /* \"#utility.yul\":10750:10754   */\n      dup2\n        /* \"#utility.yul\":10624:10755   */\n      tag_108\n      jump\t// in\n    tag_227:\n        /* \"#utility.yul\":10616:10755   */\n      swap1\n      pop\n        /* \"#utility.yul\":10343:10762   */\n      swap2\n      swap1\n      pop\n      jump\t// out\n        /* \"#utility.yul\":10768:10948   */\n    tag_59:\n        /* \"#utility.yul\":10816:10893   */\n      0x4e487b7100000000000000000000000000000000000000000000000000000000\n        /* \"#utility.yul\":10813:10814   */\n      0x00\n        /* \"#utility.yul\":10806:10894   */\n      mstore\n        /* \"#utility.yul\":10913:10917   */\n      0x32\n        /* \"#utility.yul\":10910:10911   */\n      0x04\n        /* \"#utility.yul\":10903:10918   */\n      mstore\n        /* \"#utility.yul\":10937:10941   */\n      0x24\n        /* \"#utility.yul\":10934:10935   */\n      0x00\n        /* \"#utility.yul\":10927:10942   */\n      revert\n        /* \"#utility.yul\":10954:11101   */\n    tag_109:\n        /* \"#utility.yul\":11055:11066   */\n      0x00\n        /* \"#utility.yul\":11092:11095   */\n      dup2\n        /* \"#utility.yul\":11077:11095   */\n      swap1\n      pop\n        /* \"#utility.yul\":10954:11101   */\n      swap3\n      swap2\n      pop\n      pop\n      jump\t// out\n        /* \"#utility.yul\":11107:11251   */\n    tag_110:\n        /* \"#utility.yul\":11159:11163   */\n      0x00\n        /* \"#utility.yul\":11182:11185   */\n      dup2\n        /* \"#utility.yul\":11174:11185   */\n      swap1\n      pop\n        /* \"#utility.yul\":11205:11208   */\n      dup2\n        /* \"#utility.yul\":11202:11203   */\n      0x00\n        /* \"#utility.yul\":11195:11209   */\n      mstore\n        /* \"#utility.yul\":11239:11243   */\n      0x20\n        /* \"#utility.yul\":11236:11237   */\n      0x00\n        /* \"#utility.yul\":11226:11244   */\n      keccak256\n        /* \"#utility.yul\":11218:11244   */\n      swap1\n      pop\n        /* \"#utility.yul\":11107:11251   */\n      swap2\n      swap1\n      pop\n      jump\t// out\n        /* \"#utility.yul\":11279:12157   */\n    tag_111:\n        /* \"#utility.yul\":11384:11387   */\n      0x00\n        /* \"#utility.yul\":11421:11426   */\n      dup2\n        /* \"#utility.yul\":11415:11427   */\n      sload\n        /* \"#utility.yul\":11450:11486   */\n      tag_232\n        /* \"#utility.yul\":11476:11485   */\n      dup2\n        /* \"#utility.yul\":11450:11486   */\n      tag_38\n      jump\t// in\n    tag_232:\n        /* \"#utility.yul\":11502:11590   */\n      tag_233\n        /* \"#utility.yul\":11583:11589   */\n      dup2\n        /* \"#utility.yul\":11578:11581   */\n      dup7\n        /* \"#utility.yul\":11502:11590   */\n      tag_109\n      jump\t// in\n    tag_233:\n        /* \"#utility.yul\":11495:11590   */\n      swap5\n      pop\n        /* \"#utility.yul\":11621:11622   */\n      0x01\n        /* \"#utility.yul\":11610:11619   */\n      dup3\n        /* \"#utility.yul\":11606:11623   */\n      and\n        /* \"#utility.yul\":11637:11638   */\n      0x00\n        /* \"#utility.yul\":11632:11798   */\n      dup2\n      eq\n      tag_235\n      jumpi\n        /* \"#utility.yul\":11812:11813   */\n      0x01\n        /* \"#utility.yul\":11807:12151   */\n      dup2\n      eq\n      tag_236\n      jumpi\n        /* \"#utility.yul\":11599:12151   */\n      jump(tag_234)\n        /* \"#utility.yul\":11632:11798   */\n    tag_235:\n        /* \"#utility.yul\":11716:11720   */\n      0xff\n        /* \"#utility.yul\":11712:11721   */\n      not\n        /* \"#utility.yul\":11701:11710   */\n      dup4\n        /* \"#utility.yul\":11697:11722   */\n      and\n        /* \"#utility.yul\":11692:11695   */\n      dup7\n        /* \"#utility.yul\":11685:11723   */\n      mstore\n        /* \"#utility.yul\":11778:11784   */\n      dup2\n        /* \"#utility.yul\":11771:11785   */\n      iszero\n        /* \"#utility.yul\":11764:11786   */\n      iszero\n        /* \"#utility.yul\":11756:11762   */\n      dup3\n        /* \"#utility.yul\":11752:11787   */\n      mul\n        /* \"#utility.yul\":11747:11750   */\n      dup7\n        /* \"#utility.yul\":11743:11788   */\n      add\n        /* \"#utility.yul\":11736:11788   */\n      swap4\n      pop\n        /* \"#utility.yul\":11632:11798   */\n      jump(tag_234)\n        /* \"#utility.yul\":11807:12151   */\n    tag_236:\n        /* \"#utility.yul\":11874:11915   */\n      tag_237\n        /* \"#utility.yul\":11909:11914   */\n      dup6\n        /* \"#utility.yul\":11874:11915   */\n      tag_110\n      jump\t// in\n    tag_237:\n        /* \"#utility.yul\":11937:11938   */\n      0x00\n        /* \"#utility.yul\":11951:12105   */\n    tag_238:\n        /* \"#utility.yul\":11965:11971   */\n      dup4\n        /* \"#utility.yul\":11962:11963   */\n      dup2\n        /* \"#utility.yul\":11959:11972   */\n      lt\n        /* \"#utility.yul\":11951:12105   */\n      iszero\n      tag_240\n      jumpi\n        /* \"#utility.yul\":12039:12046   */\n      dup2\n        /* \"#utility.yul\":12033:12047   */\n      sload\n        /* \"#utility.yul\":12029:12030   */\n      dup2\n        /* \"#utility.yul\":12024:12027   */\n      dup10\n        /* \"#utility.yul\":12020:12031   */\n      add\n        /* \"#utility.yul\":12013:12048   */\n      mstore\n        /* \"#utility.yul\":12089:12090   */\n      0x01\n        /* \"#utility.yul\":12080:12087   */\n      dup3\n        /* \"#utility.yul\":12076:12091   */\n      add\n        /* \"#utility.yul\":12065:12091   */\n      swap2\n      pop\n        /* \"#utility.yul\":11987:11991   */\n      0x20\n        /* \"#utility.yul\":11984:11985   */\n      dup2\n        /* \"#utility.yul\":11980:11992   */\n      add\n        /* \"#utility.yul\":11975:11992   */\n      swap1\n      pop\n        /* \"#utility.yul\":11951:12105   */\n      jump(tag_238)\n    tag_240:\n        /* \"#utility.yul\":12134:12140   */\n      dup4\n        /* \"#utility.yul\":12129:12132   */\n      dup9\n        /* \"#utility.yul\":12125:12141   */\n      add\n        /* \"#utility.yul\":12118:12141   */\n      swap6\n      pop\n        /* \"#utility.yul\":11814:12151   */\n      pop\n      pop\n        /* \"#utility.yul\":11599:12151   */\n    tag_234:\n      pop\n        /* \"#utility.yul\":11388:12157   */\n      pop\n      pop\n        /* \"#utility.yul\":11279:12157   */\n      swap3\n      swap2\n      pop\n      pop\n      jump\t// out\n        /* \"#utility.yul\":12163:12436   */\n    tag_62:\n        /* \"#utility.yul\":12294:12297   */\n      0x00\n        /* \"#utility.yul\":12316:12410   */\n      tag_242\n        /* \"#utility.yul\":12406:12409   */\n      dup3\n        /* \"#utility.yul\":12397:12403   */\n      dup5\n        /* \"#utility.yul\":12316:12410   */\n      tag_111\n      jump\t// in\n    tag_242:\n        /* \"#utility.yul\":12309:12410   */\n      swap2\n      pop\n        /* \"#utility.yul\":12427:12430   */\n      dup2\n        /* \"#utility.yul\":12420:12430   */\n      swap1\n      pop\n        /* \"#utility.yul\":12163:12436   */\n      swap3\n      swap2\n      pop\n      pop\n      jump\t// out\n        /* \"#utility.yul\":12442:12609   */\n    tag_112:\n        /* \"#utility.yul\":12582:12601   */\n      0x496e76616c69642063616e646964617465000000000000000000000000000000\n        /* \"#utility.yul\":12578:12579   */\n      0x00\n        /* \"#utility.yul\":12570:12576   */\n      dup3\n        /* \"#utility.yul\":12566:12580   */\n      add\n        /* \"#utility.yul\":12559:12602   */\n      mstore\n        /* \"#utility.yul\":12442:12609   */\n      pop\n      jump\t// out\n        /* \"#utility.yul\":12615:12981   */\n    tag_113:\n        /* \"#utility.yul\":12757:12760   */\n      0x00\n        /* \"#utility.yul\":12778:12845   */\n      tag_245\n        /* \"#utility.yul\":12842:12844   */\n      0x11\n        /* \"#utility.yul\":12837:12840   */\n      dup4\n        /* \"#utility.yul\":12778:12845   */\n      tag_94\n      jump\t// in\n    tag_245:\n        /* \"#utility.yul\":12771:12845   */\n      swap2\n      pop\n        /* \"#utility.yul\":12854:12947   */\n      tag_246\n        /* \"#utility.yul\":12943:12946   */\n      dup3\n        /* \"#utility.yul\":12854:12947   */\n      tag_112\n      jump\t// in\n    tag_246:\n        /* \"#utility.yul\":12972:12974   */\n      0x20\n        /* \"#utility.yul\":12967:12970   */\n      dup3\n        /* \"#utility.yul\":12963:12975   */\n      add\n        /* \"#utility.yul\":12956:12975   */\n      swap1\n      pop\n        /* \"#utility.yul\":12615:12981   */\n      swap2\n      swap1\n      pop\n      jump\t// out\n        /* \"#utility.yul\":12987:13406   */\n    tag_66:\n        /* \"#utility.yul\":13153:13157   */\n      0x00\n        /* \"#utility.yul\":13191:13193   */\n      0x20\n        /* \"#utility.yul\":13180:13189   */\n      dup3\n        /* \"#utility.yul\":13176:13194   */\n      add\n        /* \"#utility.yul\":13168:13194   */\n      swap1\n      pop\n        /* \"#utility.yul\":13240:13249   */\n      dup2\n        /* \"#utility.yul\":13234:13238   */\n      dup2\n        /* \"#utility.yul\":13230:13250   */\n      sub\n        /* \"#utility.yul\":13226:13227   */\n      0x00\n        /* \"#utility.yul\":13215:13224   */\n      dup4\n        /* \"#utility.yul\":13211:13228   */\n      add\n        /* \"#utility.yul\":13204:13251   */\n      mstore\n        /* \"#utility.yul\":13268:13399   */\n      tag_248\n        /* \"#utility.yul\":13394:13398   */\n      dup2\n        /* \"#utility.yul\":13268:13399   */\n      tag_113\n      jump\t// in\n    tag_248:\n        /* \"#utility.yul\":13260:13399   */\n      swap1\n      pop\n        /* \"#utility.yul\":12987:13406   */\n      swap2\n      swap1\n      pop\n      jump\t// out\n        /* \"#utility.yul\":13412:13560   */\n    tag_114:\n        /* \"#utility.yul\":13514:13525   */\n      0x00\n        /* \"#utility.yul\":13551:13554   */\n      dup2\n        /* \"#utility.yul\":13536:13554   */\n      swap1\n      pop\n        /* \"#utility.yul\":13412:13560   */\n      swap3\n      swap2\n      pop\n      pop\n      jump\t// out\n        /* \"#utility.yul\":13566:13956   */\n    tag_115:\n        /* \"#utility.yul\":13672:13675   */\n      0x00\n        /* \"#utility.yul\":13700:13739   */\n      tag_251\n        /* \"#utility.yul\":13733:13738   */\n      dup3\n        /* \"#utility.yul\":13700:13739   */\n      tag_74\n      jump\t// in\n    tag_251:\n        /* \"#utility.yul\":13755:13844   */\n      tag_252\n        /* \"#utility.yul\":13837:13843   */\n      dup2\n        /* \"#utility.yul\":13832:13835   */\n      dup6\n        /* \"#utility.yul\":13755:13844   */\n      tag_114\n      jump\t// in\n    tag_252:\n        /* \"#utility.yul\":13748:13844   */\n      swap4\n      pop\n        /* \"#utility.yul\":13853:13918   */\n      tag_253\n        /* \"#utility.yul\":13911:13917   */\n      dup2\n        /* \"#utility.yul\":13906:13909   */\n      dup6\n        /* \"#utility.yul\":13899:13903   */\n      0x20\n        /* \"#utility.yul\":13892:13897   */\n      dup7\n        /* \"#utility.yul\":13888:13904   */\n      add\n        /* \"#utility.yul\":13853:13918   */\n      tag_76\n      jump\t// in\n    tag_253:\n        /* \"#utility.yul\":13943:13949   */\n      dup1\n        /* \"#utility.yul\":13938:13941   */\n      dup5\n        /* \"#utility.yul\":13934:13950   */\n      add\n        /* \"#utility.yul\":13927:13950   */\n      swap2\n      pop\n        /* \"#utility.yul\":13676:13956   */\n      pop\n        /* \"#utility.yul\":13566:13956   */\n      swap3\n      swap2\n      pop\n      pop\n      jump\t// out\n        /* \"#utility.yul\":13962:14237   */\n    tag_68:\n        /* \"#utility.yul\":14094:14097   */\n      0x00\n        /* \"#utility.yul\":14116:14211   */\n      tag_255\n        /* \"#utility.yul\":14207:14210   */\n      dup3\n        /* \"#utility.yul\":14198:14204   */\n      dup5\n        /* \"#utility.yul\":14116:14211   */\n      tag_115\n      jump\t// in\n    tag_255:\n        /* \"#utility.yul\":14109:14211   */\n      swap2\n      pop\n        /* \"#utility.yul\":14228:14231   */\n      dup2\n        /* \"#utility.yul\":14221:14231   */\n      swap1\n      pop\n        /* \"#utility.yul\":13962:14237   */\n      swap3\n      swap2\n      pop\n      pop\n      jump\t// out\n        /* \"#utility.yul\":14243:14423   */\n    tag_116:\n        /* \"#utility.yul\":14291:14368   */\n      0x4e487b7100000000000000000000000000000000000000000000000000000000\n        /* \"#utility.yul\":14288:14289   */\n      0x00\n        /* \"#utility.yul\":14281:14369   */\n      mstore\n        /* \"#utility.yul\":14388:14392   */\n      0x11\n        /* \"#utility.yul\":14385:14386   */\n      0x04\n        /* \"#utility.yul\":14378:14393   */\n      mstore\n        /* \"#utility.yul\":14412:14416   */\n      0x24\n        /* \"#utility.yul\":14409:14410   */\n      0x00\n        /* \"#utility.yul\":14402:14417   */\n      revert\n        /* \"#utility.yul\":14429:14662   */\n    tag_70:\n        /* \"#utility.yul\":14468:14471   */\n      0x00\n        /* \"#utility.yul\":14491:14515   */\n      tag_258\n        /* \"#utility.yul\":14509:14514   */\n      dup3\n        /* \"#utility.yul\":14491:14515   */\n      tag_91\n      jump\t// in\n    tag_258:\n        /* \"#utility.yul\":14482:14515   */\n      swap2\n      pop\n        /* \"#utility.yul\":14537:14603   */\n      0xffffffffffffffffffffffffffffffffffffffffffffffffffffffffffffffff\n        /* \"#utility.yul\":14530:14535   */\n      dup3\n        /* \"#utility.yul\":14527:14604   */\n      sub\n        /* \"#utility.yul\":14524:14627   */\n      tag_259\n      jumpi\n        /* \"#utility.yul\":14607:14625   */\n      tag_260\n      tag_116\n      jump\t// in\n    tag_260:\n        /* \"#utility.yul\":14524:14627   */\n    tag_259:\n        /* \"#utility.yul\":14654:14655   */\n      0x01\n        /* \"#utility.yul\":14647:14652   */\n      dup3\n        /* \"#utility.yul\":14643:14656   */\n      add\n        /* \"#utility.yul\":14636:14656   */\n      swap1\n      pop\n        /* \"#utility.yul\":14429:14662   */\n      swap2\n      swap1\n      pop\n      jump\t// out\n\n    auxdata: 0xa2646970667358221220ecec3ec02f0aba903fec9b1b9e48cd8bbd3a49f44929ec2a99dde54ff89174bc64736f6c634300081f0033\n}\n",
				"bytecode": {
					"linkReferences": {},
					"object": "608060405234801561000f575f5ffd5b505f8060018154018082558091505060019003905f5260205f20015f6040518060400160405280600581526020017f416c69636500000000000000000000000000000000000000000000000000000081525090919091509081610072919061037b565b505f8060018154018082558091505060019003905f5260205f20015f6040518060400160405280600381526020017f426f620000000000000000000000000000000000000000000000000000000000815250909190915090816100d5919061037b565b505f8060018154018082558091505060019003905f5260205f20015f6040518060400160405280600781526020017f436861726c69650000000000000000000000000000000000000000000000000081525090919091509081610138919061037b565b5061044a565b5f81519050919050565b7f4e487b71000000000000000000000000000000000000000000000000000000005f52604160045260245ffd5b7f4e487b71000000000000000000000000000000000000000000000000000000005f52602260045260245ffd5b5f60028204905060018216806101b957607f821691505b6020821081036101cc576101cb610175565b5b50919050565b5f819050815f5260205f209050919050565b5f6020601f8301049050919050565b5f82821b905092915050565b5f6008830261022e7fffffffffffffffffffffffffffffffffffffffffffffffffffffffffffffffff826101f3565b61023886836101f3565b95508019841693508086168417925050509392505050565b5f819050919050565b5f819050919050565b5f61027c61027761027284610250565b610259565b610250565b9050919050565b5f819050919050565b61029583610262565b6102a96102a182610283565b8484546101ff565b825550505050565b5f5f905090565b6102c06102b1565b6102cb81848461028c565b505050565b5b818110156102ee576102e35f826102b8565b6001810190506102d1565b5050565b601f82111561033357610304816101d2565b61030d846101e4565b8101602085101561031c578190505b610330610328856101e4565b8301826102d0565b50505b505050565b5f82821c905092915050565b5f6103535f1984600802610338565b1980831691505092915050565b5f61036b8383610344565b9150826002028217905092915050565b6103848261013e565b67ffffffffffffffff81111561039d5761039c610148565b5b6103a782546101a2565b6103b28282856102f2565b5f60209050601f8311600181146103e3575f84156103d1578287015190505b6103db8582610360565b865550610442565b601f1984166103f1866101d2565b5f5b82811015610418578489015182556001820191506020850194506020810190506103f3565b868310156104355784890151610431601f891682610344565b8355505b6001600288020188555050505b505050505050565b610c1f806104575f395ff3fe608060405234801561000f575f5ffd5b5060043610610055575f3560e01c806306a49fce1461005957806309eef43e146100775780633477ee2e146100a7578063b99ef1fa146100d7578063fc36e15b14610107575b5f5ffd5b610061610123565b60405161006e91906105cf565b60405180910390f35b610091600480360381019061008c919061065a565b6101f6565b60405161009e919061069f565b60405180910390f35b6100c160048036038101906100bc91906106eb565b610213565b6040516100ce919061075e565b60405180910390f35b6100f160048036038101906100ec91906108aa565b6102b8565b6040516100fe9190610900565b60405180910390f35b610121600480360381019061011c91906108aa565b6102e5565b005b60605f805480602002602001604051908101604052809291908181526020015f905b828210156101ed578382905f5260205f2001805461016290610946565b80601f016020809104026020016040519081016040528092919081815260200182805461018e90610946565b80156101d95780601f106101b0576101008083540402835291602001916101d9565b820191905f5260205f20905b8154815290600101906020018083116101bc57829003601f168201915b505050505081526020019060010190610145565b50505050905090565b6002602052805f5260405f205f915054906101000a900460ff1681565b5f8181548110610221575f80fd5b905f5260205f20015f91509050805461023990610946565b80601f016020809104026020016040519081016040528092919081815260200182805461026590610946565b80156102b05780601f10610287576101008083540402835291602001916102b0565b820191905f5260205f20905b81548152906001019060200180831161029357829003601f168201915b505050505081565b6001818051602081018201805184825260208301602085012081835280955050505050505f915090505481565b60025f3373ffffffffffffffffffffffffffffffffffffffff1673ffffffffffffffffffffffffffffffffffffffff1681526020019081526020015f205f9054906101000a900460ff161561036f576040517f08c379a0000000000000000000000000000000000000000000000000000000008152600401610366906109c0565b60405180910390fd5b5f5f90505f5f90505b5f805490508110156103d75782805190602001205f828154811061039f5761039e6109de565b5b905f5260205f20016040516103b49190610aa7565b6040518091039020036103ca57600191506103d7565b8080600101915050610378565b5080610418576040517f08c379a000000000000000000000000000000000000000000000000000000000815260040161040f90610b07565b60405180910390fd5b6001826040516104289190610b5f565b90815260200160405180910390205f81548092919061044690610ba2565b9190505550600160025f3373ffffffffffffffffffffffffffffffffffffffff1673ffffffffffffffffffffffffffffffffffffffff1681526020019081526020015f205f6101000a81548160ff0219169083151502179055505050565b5f81519050919050565b5f82825260208201905092915050565b5f819050602082019050919050565b5f81519050919050565b5f82825260208201905092915050565b8281835e5f83830152505050565b5f601f19601f8301169050919050565b5f61050f826104cd565b61051981856104d7565b93506105298185602086016104e7565b610532816104f5565b840191505092915050565b5f6105488383610505565b905092915050565b5f602082019050919050565b5f610566826104a4565b61057081856104ae565b935083602082028501610582856104be565b805f5b858110156105bd578484038952815161059e858261053d565b94506105a983610550565b925060208a01995050600181019050610585565b50829750879550505050505092915050565b5f6020820190508181035f8301526105e7818461055c565b905092915050565b5f604051905090565b5f5ffd5b5f5ffd5b5f73ffffffffffffffffffffffffffffffffffffffff82169050919050565b5f61062982610600565b9050919050565b6106398161061f565b8114610643575f5ffd5b50565b5f8135905061065481610630565b92915050565b5f6020828403121561066f5761066e6105f8565b5b5f61067c84828501610646565b91505092915050565b5f8115159050919050565b61069981610685565b82525050565b5f6020820190506106b25f830184610690565b92915050565b5f819050919050565b6106ca816106b8565b81146106d4575f5ffd5b50565b5f813590506106e5816106c1565b92915050565b5f60208284031215610700576106ff6105f8565b5b5f61070d848285016106d7565b91505092915050565b5f82825260208201905092915050565b5f610730826104cd565b61073a8185610716565b935061074a8185602086016104e7565b610753816104f5565b840191505092915050565b5f6020820190508181035f8301526107768184610726565b905092915050565b5f5ffd5b5f5ffd5b7f4e487b71000000000000000000000000000000000000000000000000000000005f52604160045260245ffd5b6107bc826104f5565b810181811067ffffffffffffffff821117156107db576107da610786565b5b80604052505050565b5f6107ed6105ef565b90506107f982826107b3565b919050565b5f67ffffffffffffffff82111561081857610817610786565b5b610821826104f5565b9050602081019050919050565b828183375f83830152505050565b5f61084e610849846107fe565b6107e4565b90508281526020810184848401111561086a57610869610782565b5b61087584828561082e565b509392505050565b5f82601f8301126108915761089061077e565b5b81356108a184826020860161083c565b91505092915050565b5f602082840312156108bf576108be6105f8565b5b5f82013567ffffffffffffffff8111156108dc576108db6105fc565b5b6108e88482850161087d565b91505092915050565b6108fa816106b8565b82525050565b5f6020820190506109135f8301846108f1565b92915050565b7f4e487b71000000000000000000000000000000000000000000000000000000005f52602260045260245ffd5b5f600282049050600182168061095d57607f821691505b6020821081036109705761096f610919565b5b50919050565b7f416c726561647920766f746564000000000000000000000000000000000000005f82015250565b5f6109aa600d83610716565b91506109b582610976565b602082019050919050565b5f6020820190508181035f8301526109d78161099e565b9050919050565b7f4e487b71000000000000000000000000000000000000000000000000000000005f52603260045260245ffd5b5f81905092915050565b5f819050815f5260205f209050919050565b5f8154610a3381610946565b610a3d8186610a0b565b9450600182165f8114610a575760018114610a6c57610a9e565b60ff1983168652811515820286019350610a9e565b610a7585610a15565b5f5b83811015610a9657815481890152600182019150602081019050610a77565b838801955050505b50505092915050565b5f610ab28284610a27565b915081905092915050565b7f496e76616c69642063616e6469646174650000000000000000000000000000005f82015250565b5f610af1601183610716565b9150610afc82610abd565b602082019050919050565b5f6020820190508181035f830152610b1e81610ae5565b9050919050565b5f81905092915050565b5f610b39826104cd565b610b438185610b25565b9350610b538185602086016104e7565b80840191505092915050565b5f610b6a8284610b2f565b915081905092915050565b7f4e487b71000000000000000000000000000000000000000000000000000000005f52601160045260245ffd5b5f610bac826106b8565b91507fffffffffffffffffffffffffffffffffffffffffffffffffffffffffffffffff8203610bde57610bdd610b75565b5b60018201905091905056fea2646970667358221220ecec3ec02f0aba903fec9b1b9e48cd8bbd3a49f44929ec2a99dde54ff89174bc64736f6c634300081f0033",
					"opcodes": "PUSH1 0x80 PUSH1 0x40 MSTORE CALLVALUE DUP1 ISZERO PUSH2 0xF JUMPI PUSH0 PUSH0 REVERT JUMPDEST POP PUSH0 DUP1 PUSH1 0x1 DUP2 SLOAD ADD DUP1 DUP3 SSTORE DUP1 SWAP2 POP POP PUSH1 0x1 SWAP1 SUB SWAP1 PUSH0 MSTORE PUSH1 0x20 PUSH0 KECCAK256 ADD PUSH0 PUSH1 0x40 MLOAD DUP1 PUSH1 0x40 ADD PUSH1 0x40 MSTORE DUP1 PUSH1 0x5 DUP2 MSTORE PUSH1 0x20 ADD PUSH32 0x416C696365000000000000000000000000000000000000000000000000000000 DUP2 MSTORE POP SWAP1 SWAP2 SWAP1 SWAP2 POP SWAP1 DUP2 PUSH2 0x72 SWAP2 SWAP1 PUSH2 0x37B JUMP JUMPDEST POP PUSH0 DUP1 PUSH1 0x1 DUP2 SLOAD ADD DUP1 DUP3 SSTORE DUP1 SWAP2 POP POP PUSH1 0x1 SWAP1 SUB SWAP1 PUSH0 MSTORE PUSH1 0x20 PUSH0 KECCAK256 ADD PUSH0 PUSH1 0x40 MLOAD DUP1 PUSH1 0x40 ADD PUSH1 0x40 MSTORE DUP1 PUSH1 0x3 DUP2 MSTORE PUSH1 0x20 ADD PUSH32 0x426F620000000000000000000000000000000000000000000000000000000000 DUP2 MSTORE POP SWAP1 SWAP2 SWAP1 SWAP2 POP SWAP1 DUP2 PUSH2 0xD5 SWAP2 SWAP1 PUSH2 0x37B JUMP JUMPDEST POP PUSH0 DUP1 PUSH1 0x1 DUP2 SLOAD ADD DUP1 DUP3 SSTORE DUP1 SWAP2 POP POP PUSH1 0x1 SWAP1 SUB SWAP1 PUSH0 MSTORE PUSH1 0x20 PUSH0 KECCAK256 ADD PUSH0 PUSH1 0x40 MLOAD DUP1 PUSH1 0x40 ADD PUSH1 0x40 MSTORE DUP1 PUSH1 0x7 DUP2 MSTORE PUSH1 0x20 ADD PUSH32 0x436861726C696500000000000000000000000000000000000000000000000000 DUP2 MSTORE POP SWAP1 SWAP2 SWAP1 SWAP2 POP SWAP1 DUP2 PUSH2 0x138 SWAP2 SWAP1 PUSH2 0x37B JUMP JUMPDEST POP PUSH2 0x44A JUMP JUMPDEST PUSH0 DUP2 MLOAD SWAP1 POP SWAP2 SWAP1 POP JUMP JUMPDEST PUSH32 0x4E487B7100000000000000000000000000000000000000000000000000000000 PUSH0 MSTORE PUSH1 0x41 PUSH1 0x4 MSTORE PUSH1 0x24 PUSH0 REVERT JUMPDEST PUSH32 0x4E487B7100000000000000000000000000000000000000000000000000000000 PUSH0 MSTORE PUSH1 0x22 PUSH1 0x4 MSTORE PUSH1 0x24 PUSH0 REVERT JUMPDEST PUSH0 PUSH1 0x2 DUP3 DIV SWAP1 POP PUSH1 0x1 DUP3 AND DUP1 PUSH2 0x1B9 JUMPI PUSH1 0x7F DUP3 AND SWAP2 POP JUMPDEST PUSH1 0x20 DUP3 LT DUP2 SUB PUSH2 0x1CC JUMPI PUSH2 0x1CB PUSH2 0x175 JUMP JUMPDEST JUMPDEST POP SWAP2 SWAP1 POP JUMP JUMPDEST PUSH0 DUP2 SWAP1 POP DUP2 PUSH0 MSTORE PUSH1 0x20 PUSH0 KECCAK256 SWAP1 POP SWAP2 SWAP1 POP JUMP JUMPDEST PUSH0 PUSH1 0x20 PUSH1 0x1F DUP4 ADD DIV SWAP1 POP SWAP2 SWAP1 POP JUMP JUMPDEST PUSH0 DUP3 DUP3 SHL SWAP1 POP SWAP3 SWAP2 POP POP JUMP JUMPDEST PUSH0 PUSH1 0x8 DUP4 MUL PUSH2 0x22E PUSH32 0xFFFFFFFFFFFFFFFFFFFFFFFFFFFFFFFFFFFFFFFFFFFFFFFFFFFFFFFFFFFFFFFF DUP3 PUSH2 0x1F3 JUMP JUMPDEST PUSH2 0x238 DUP7 DUP4 PUSH2 0x1F3 JUMP JUMPDEST SWAP6 POP DUP1 NOT DUP5 AND SWAP4 POP DUP1 DUP7 AND DUP5 OR SWAP3 POP POP POP SWAP4 SWAP3 POP POP POP JUMP JUMPDEST PUSH0 DUP2 SWAP1 POP SWAP2 SWAP1 POP JUMP JUMPDEST PUSH0 DUP2 SWAP1 POP SWAP2 SWAP1 POP JUMP JUMPDEST PUSH0 PUSH2 0x27C PUSH2 0x277 PUSH2 0x272 DUP5 PUSH2 0x250 JUMP JUMPDEST PUSH2 0x259 JUMP JUMPDEST PUSH2 0x250 JUMP JUMPDEST SWAP1 POP SWAP2 SWAP1 POP JUMP JUMPDEST PUSH0 DUP2 SWAP1 POP SWAP2 SWAP1 POP JUMP JUMPDEST PUSH2 0x295 DUP4 PUSH2 0x262 JUMP JUMPDEST PUSH2 0x2A9 PUSH2 0x2A1 DUP3 PUSH2 0x283 JUMP JUMPDEST DUP5 DUP5 SLOAD PUSH2 0x1FF JUMP JUMPDEST DUP3 SSTORE POP POP POP POP JUMP JUMPDEST PUSH0 PUSH0 SWAP1 POP SWAP1 JUMP JUMPDEST PUSH2 0x2C0 PUSH2 0x2B1 JUMP JUMPDEST PUSH2 0x2CB DUP2 DUP5 DUP5 PUSH2 0x28C JUMP JUMPDEST POP POP POP JUMP JUMPDEST JUMPDEST DUP2 DUP2 LT ISZERO PUSH2 0x2EE JUMPI PUSH2 0x2E3 PUSH0 DUP3 PUSH2 0x2B8 JUMP JUMPDEST PUSH1 0x1 DUP2 ADD SWAP1 POP PUSH2 0x2D1 JUMP JUMPDEST POP POP JUMP JUMPDEST PUSH1 0x1F DUP3 GT ISZERO PUSH2 0x333 JUMPI PUSH2 0x304 DUP2 PUSH2 0x1D2 JUMP JUMPDEST PUSH2 0x30D DUP5 PUSH2 0x1E4 JUMP JUMPDEST DUP2 ADD PUSH1 0x20 DUP6 LT ISZERO PUSH2 0x31C JUMPI DUP2 SWAP1 POP JUMPDEST PUSH2 0x330 PUSH2 0x328 DUP6 PUSH2 0x1E4 JUMP JUMPDEST DUP4 ADD DUP3 PUSH2 0x2D0 JUMP JUMPDEST POP POP JUMPDEST POP POP POP JUMP JUMPDEST PUSH0 DUP3 DUP3 SHR SWAP1 POP SWAP3 SWAP2 POP POP JUMP JUMPDEST PUSH0 PUSH2 0x353 PUSH0 NOT DUP5 PUSH1 0x8 MUL PUSH2 0x338 JUMP JUMPDEST NOT DUP1 DUP4 AND SWAP2 POP POP SWAP3 SWAP2 POP POP JUMP JUMPDEST PUSH0 PUSH2 0x36B DUP4 DUP4 PUSH2 0x344 JUMP JUMPDEST SWAP2 POP DUP3 PUSH1 0x2 MUL DUP3 OR SWAP1 POP SWAP3 SWAP2 POP POP JUMP JUMPDEST PUSH2 0x384 DUP3 PUSH2 0x13E JUMP JUMPDEST PUSH8 0xFFFFFFFFFFFFFFFF DUP2 GT ISZERO PUSH2 0x39D JUMPI PUSH2 0x39C PUSH2 0x148 JUMP JUMPDEST JUMPDEST PUSH2 0x3A7 DUP3 SLOAD PUSH2 0x1A2 JUMP JUMPDEST PUSH2 0x3B2 DUP3 DUP3 DUP6 PUSH2 0x2F2 JUMP JUMPDEST PUSH0 PUSH1 0x20 SWAP1 POP PUSH1 0x1F DUP4 GT PUSH1 0x1 DUP2 EQ PUSH2 0x3E3 JUMPI PUSH0 DUP5 ISZERO PUSH2 0x3D1 JUMPI DUP3 DUP8 ADD MLOAD SWAP1 POP JUMPDEST PUSH2 0x3DB DUP6 DUP3 PUSH2 0x360 JUMP JUMPDEST DUP7 SSTORE POP PUSH2 0x442 JUMP JUMPDEST PUSH1 0x1F NOT DUP5 AND PUSH2 0x3F1 DUP7 PUSH2 0x1D2 JUMP JUMPDEST PUSH0 JUMPDEST DUP3 DUP2 LT ISZERO PUSH2 0x418 JUMPI DUP5 DUP10 ADD MLOAD DUP3 SSTORE PUSH1 0x1 DUP3 ADD SWAP2 POP PUSH1 0x20 DUP6 ADD SWAP5 POP PUSH1 0x20 DUP2 ADD SWAP1 POP PUSH2 0x3F3 JUMP JUMPDEST DUP7 DUP4 LT ISZERO PUSH2 0x435 JUMPI DUP5 DUP10 ADD MLOAD PUSH2 0x431 PUSH1 0x1F DUP10 AND DUP3 PUSH2 0x344 JUMP JUMPDEST DUP4 SSTORE POP JUMPDEST PUSH1 0x1 PUSH1 0x2 DUP9 MUL ADD DUP9 SSTORE POP POP POP JUMPDEST POP POP POP POP POP POP JUMP JUMPDEST PUSH2 0xC1F DUP1 PUSH2 0x457 PUSH0 CODECOPY PUSH0 RETURN INVALID PUSH1 0x80 PUSH1 0x40 MSTORE CALLVALUE DUP1 ISZERO PUSH2 0xF JUMPI PUSH0 PUSH0 REVERT JUMPDEST POP PUSH1 0x4 CALLDATASIZE LT PUSH2 0x55 JUMPI PUSH0 CALLDATALOAD PUSH1 0xE0 SHR DUP1 PUSH4 0x6A49FCE EQ PUSH2 0x59 JUMPI DUP1 PUSH4 0x9EEF43E EQ PUSH2 0x77 JUMPI DUP1 PUSH4 0x3477EE2E EQ PUSH2 0xA7 JUMPI DUP1 PUSH4 0xB99EF1FA EQ PUSH2 0xD7 JUMPI DUP1 PUSH4 0xFC36E15B EQ PUSH2 0x107 JUMPI JUMPDEST PUSH0 PUSH0 REVERT JUMPDEST PUSH2 0x61 PUSH2 0x123 JUMP JUMPDEST PUSH1 0x40 MLOAD PUSH2 0x6E SWAP2 SWAP1 PUSH2 0x5CF JUMP JUMPDEST PUSH1 0x40 MLOAD DUP1 SWAP2 SUB SWAP1 RETURN JUMPDEST PUSH2 0x91 PUSH1 0x4 DUP1 CALLDATASIZE SUB DUP2 ADD SWAP1 PUSH2 0x8C SWAP2 SWAP1 PUSH2 0x65A JUMP JUMPDEST PUSH2 0x1F6 JUMP JUMPDEST PUSH1 0x40 MLOAD PUSH2 0x9E SWAP2 SWAP1 PUSH2 0x69F JUMP JUMPDEST PUSH1 0x40 MLOAD DUP1 SWAP2 SUB SWAP1 RETURN JUMPDEST PUSH2 0xC1 PUSH1 0x4 DUP1 CALLDATASIZE SUB DUP2 ADD SWAP1 PUSH2 0xBC SWAP2 SWAP1 PUSH2 0x6EB JUMP JUMPDEST PUSH2 0x213 JUMP JUMPDEST PUSH1 0x40 MLOAD PUSH2 0xCE SWAP2 SWAP1 PUSH2 0x75E JUMP JUMPDEST PUSH1 0x40 MLOAD DUP1 SWAP2 SUB SWAP1 RETURN JUMPDEST PUSH2 0xF1 PUSH1 0x4 DUP1 CALLDATASIZE SUB DUP2 ADD SWAP1 PUSH2 0xEC SWAP2 SWAP1 PUSH2 0x8AA JUMP JUMPDEST PUSH2 0x2B8 JUMP JUMPDEST PUSH1 0x40 MLOAD PUSH2 0xFE SWAP2 SWAP1 PUSH2 0x900 JUMP JUMPDEST PUSH1 0x40 MLOAD DUP1 SWAP2 SUB SWAP1 RETURN JUMPDEST PUSH2 0x121 PUSH1 0x4 DUP1 CALLDATASIZE SUB DUP2 ADD SWAP1 PUSH2 0x11C SWAP2 SWAP1 PUSH2 0x8AA JUMP JUMPDEST PUSH2 0x2E5 JUMP JUMPDEST STOP JUMPDEST PUSH1 0x60 PUSH0 DUP1 SLOAD DUP1 PUSH1 0x20 MUL PUSH1 0x20 ADD PUSH1 0x40 MLOAD SWAP1 DUP2 ADD PUSH1 0x40 MSTORE DUP1 SWAP3 SWAP2 SWAP1 DUP2 DUP2 MSTORE PUSH1 0x20 ADD PUSH0 SWAP1 JUMPDEST DUP3 DUP3 LT ISZERO PUSH2 0x1ED JUMPI DUP4 DUP3 SWAP1 PUSH0 MSTORE PUSH1 0x20 PUSH0 KECCAK256 ADD DUP1 SLOAD PUSH2 0x162 SWAP1 PUSH2 0x946 JUMP JUMPDEST DUP1 PUSH1 0x1F ADD PUSH1 0x20 DUP1 SWAP2 DIV MUL PUSH1 0x20 ADD PUSH1 0x40 MLOAD SWAP1 DUP2 ADD PUSH1 0x40 MSTORE DUP1 SWAP3 SWAP2 SWAP1 DUP2 DUP2 MSTORE PUSH1 0x20 ADD DUP3 DUP1 SLOAD PUSH2 0x18E SWAP1 PUSH2 0x946 JUMP JUMPDEST DUP1 ISZERO PUSH2 0x1D9 JUMPI DUP1 PUSH1 0x1F LT PUSH2 0x1B0 JUMPI PUSH2 0x100 DUP1 DUP4 SLOAD DIV MUL DUP4 MSTORE SWAP2 PUSH1 0x20 ADD SWAP2 PUSH2 0x1D9 JUMP JUMPDEST DUP3 ADD SWAP2 SWAP1 PUSH0 MSTORE PUSH1 0x20 PUSH0 KECCAK256 SWAP1 JUMPDEST DUP2 SLOAD DUP2 MSTORE SWAP1 PUSH1 0x1 ADD SWAP1 PUSH1 0x20 ADD DUP1 DUP4 GT PUSH2 0x1BC JUMPI DUP3 SWAP1 SUB PUSH1 0x1F AND DUP3 ADD SWAP2 JUMPDEST POP POP POP POP POP DUP2 MSTORE PUSH1 0x20 ADD SWAP1 PUSH1 0x1 ADD SWAP1 PUSH2 0x145 JUMP JUMPDEST POP POP POP POP SWAP1 POP SWAP1 JUMP JUMPDEST PUSH1 0x2 PUSH1 0x20 MSTORE DUP1 PUSH0 MSTORE PUSH1 0x40 PUSH0 KECCAK256 PUSH0 SWAP2 POP SLOAD SWAP1 PUSH2 0x100 EXP SWAP1 DIV PUSH1 0xFF AND DUP2 JUMP JUMPDEST PUSH0 DUP2 DUP2 SLOAD DUP2 LT PUSH2 0x221 JUMPI PUSH0 DUP1 REVERT JUMPDEST SWAP1 PUSH0 MSTORE PUSH1 0x20 PUSH0 KECCAK256 ADD PUSH0 SWAP2 POP SWAP1 POP DUP1 SLOAD PUSH2 0x239 SWAP1 PUSH2 0x946 JUMP JUMPDEST DUP1 PUSH1 0x1F ADD PUSH1 0x20 DUP1 SWAP2 DIV MUL PUSH1 0x20 ADD PUSH1 0x40 MLOAD SWAP1 DUP2 ADD PUSH1 0x40 MSTORE DUP1 SWAP3 SWAP2 SWAP1 DUP2 DUP2 MSTORE PUSH1 0x20 ADD DUP3 DUP1 SLOAD PUSH2 0x265 SWAP1 PUSH2 0x946 JUMP JUMPDEST DUP1 ISZERO PUSH2 0x2B0 JUMPI DUP1 PUSH1 0x1F LT PUSH2 0x287 JUMPI PUSH2 0x100 DUP1 DUP4 SLOAD DIV MUL DUP4 MSTORE SWAP2 PUSH1 0x20 ADD SWAP2 PUSH2 0x2B0 JUMP JUMPDEST DUP3 ADD SWAP2 SWAP1 PUSH0 MSTORE PUSH1 0x20 PUSH0 KECCAK256 SWAP1 JUMPDEST DUP2 SLOAD DUP2 MSTORE SWAP1 PUSH1 0x1 ADD SWAP1 PUSH1 0x20 ADD DUP1 DUP4 GT PUSH2 0x293 JUMPI DUP3 SWAP1 SUB PUSH1 0x1F AND DUP3 ADD SWAP2 JUMPDEST POP POP POP POP POP DUP2 JUMP JUMPDEST PUSH1 0x1 DUP2 DUP1 MLOAD PUSH1 0x20 DUP2 ADD DUP3 ADD DUP1 MLOAD DUP5 DUP3 MSTORE PUSH1 0x20 DUP4 ADD PUSH1 0x20 DUP6 ADD KECCAK256 DUP2 DUP4 MSTORE DUP1 SWAP6 POP POP POP POP POP POP PUSH0 SWAP2 POP SWAP1 POP SLOAD DUP2 JUMP JUMPDEST PUSH1 0x2 PUSH0 CALLER PUSH20 0xFFFFFFFFFFFFFFFFFFFFFFFFFFFFFFFFFFFFFFFF AND PUSH20 0xFFFFFFFFFFFFFFFFFFFFFFFFFFFFFFFFFFFFFFFF AND DUP2 MSTORE PUSH1 0x20 ADD SWAP1 DUP2 MSTORE PUSH1 0x20 ADD PUSH0 KECCAK256 PUSH0 SWAP1 SLOAD SWAP1 PUSH2 0x100 EXP SWAP1 DIV PUSH1 0xFF AND ISZERO PUSH2 0x36F JUMPI PUSH1 0x40 MLOAD PUSH32 0x8C379A000000000000000000000000000000000000000000000000000000000 DUP2 MSTORE PUSH1 0x4 ADD PUSH2 0x366 SWAP1 PUSH2 0x9C0 JUMP JUMPDEST PUSH1 0x40 MLOAD DUP1 SWAP2 SUB SWAP1 REVERT JUMPDEST PUSH0 PUSH0 SWAP1 POP PUSH0 PUSH0 SWAP1 POP JUMPDEST PUSH0 DUP1 SLOAD SWAP1 POP DUP2 LT ISZERO PUSH2 0x3D7 JUMPI DUP3 DUP1 MLOAD SWAP1 PUSH1 0x20 ADD KECCAK256 PUSH0 DUP3 DUP2 SLOAD DUP2 LT PUSH2 0x39F JUMPI PUSH2 0x39E PUSH2 0x9DE JUMP JUMPDEST JUMPDEST SWAP1 PUSH0 MSTORE PUSH1 0x20 PUSH0 KECCAK256 ADD PUSH1 0x40 MLOAD PUSH2 0x3B4 SWAP2 SWAP1 PUSH2 0xAA7 JUMP JUMPDEST PUSH1 0x40 MLOAD DUP1 SWAP2 SUB SWAP1 KECCAK256 SUB PUSH2 0x3CA JUMPI PUSH1 0x1 SWAP2 POP PUSH2 0x3D7 JUMP JUMPDEST DUP1 DUP1 PUSH1 0x1 ADD SWAP2 POP POP PUSH2 0x378 JUMP JUMPDEST POP DUP1 PUSH2 0x418 JUMPI PUSH1 0x40 MLOAD PUSH32 0x8C379A000000000000000000000000000000000000000000000000000000000 DUP2 MSTORE PUSH1 0x4 ADD PUSH2 0x40F SWAP1 PUSH2 0xB07 JUMP JUMPDEST PUSH1 0x40 MLOAD DUP1 SWAP2 SUB SWAP1 REVERT JUMPDEST PUSH1 0x1 DUP3 PUSH1 0x40 MLOAD PUSH2 0x428 SWAP2 SWAP1 PUSH2 0xB5F JUMP JUMPDEST SWAP1 DUP2 MSTORE PUSH1 0x20 ADD PUSH1 0x40 MLOAD DUP1 SWAP2 SUB SWAP1 KECCAK256 PUSH0 DUP2 SLOAD DUP1 SWAP3 SWAP2 SWAP1 PUSH2 0x446 SWAP1 PUSH2 0xBA2 JUMP JUMPDEST SWAP2 SWAP1 POP SSTORE POP PUSH1 0x1 PUSH1 0x2 PUSH0 CALLER PUSH20 0xFFFFFFFFFFFFFFFFFFFFFFFFFFFFFFFFFFFFFFFF AND PUSH20 0xFFFFFFFFFFFFFFFFFFFFFFFFFFFFFFFFFFFFFFFF AND DUP2 MSTORE PUSH1 0x20 ADD SWAP1 DUP2 MSTORE PUSH1 0x20 ADD PUSH0 KECCAK256 PUSH0 PUSH2 0x100 EXP DUP2 SLOAD DUP2 PUSH1 0xFF MUL NOT AND SWAP1 DUP4 ISZERO ISZERO MUL OR SWAP1 SSTORE POP POP POP JUMP JUMPDEST PUSH0 DUP2 MLOAD SWAP1 POP SWAP2 SWAP1 POP JUMP JUMPDEST PUSH0 DUP3 DUP3 MSTORE PUSH1 0x20 DUP3 ADD SWAP1 POP SWAP3 SWAP2 POP POP JUMP JUMPDEST PUSH0 DUP2 SWAP1 POP PUSH1 0x20 DUP3 ADD SWAP1 POP SWAP2 SWAP1 POP JUMP JUMPDEST PUSH0 DUP2 MLOAD SWAP1 POP SWAP2 SWAP1 POP JUMP JUMPDEST PUSH0 DUP3 DUP3 MSTORE PUSH1 0x20 DUP3 ADD SWAP1 POP SWAP3 SWAP2 POP POP JUMP JUMPDEST DUP3 DUP2 DUP4 MCOPY PUSH0 DUP4 DUP4 ADD MSTORE POP POP POP JUMP JUMPDEST PUSH0 PUSH1 0x1F NOT PUSH1 0x1F DUP4 ADD AND SWAP1 POP SWAP2 SWAP1 POP JUMP JUMPDEST PUSH0 PUSH2 0x50F DUP3 PUSH2 0x4CD JUMP JUMPDEST PUSH2 0x519 DUP2 DUP6 PUSH2 0x4D7 JUMP JUMPDEST SWAP4 POP PUSH2 0x529 DUP2 DUP6 PUSH1 0x20 DUP7 ADD PUSH2 0x4E7 JUMP JUMPDEST PUSH2 0x532 DUP2 PUSH2 0x4F5 JUMP JUMPDEST DUP5 ADD SWAP2 POP POP SWAP3 SWAP2 POP POP JUMP JUMPDEST PUSH0 PUSH2 0x548 DUP4 DUP4 PUSH2 0x505 JUMP JUMPDEST SWAP1 POP SWAP3 SWAP2 POP POP JUMP JUMPDEST PUSH0 PUSH1 0x20 DUP3 ADD SWAP1 POP SWAP2 SWAP1 POP JUMP JUMPDEST PUSH0 PUSH2 0x566 DUP3 PUSH2 0x4A4 JUMP JUMPDEST PUSH2 0x570 DUP2 DUP6 PUSH2 0x4AE JUMP JUMPDEST SWAP4 POP DUP4 PUSH1 0x20 DUP3 MUL DUP6 ADD PUSH2 0x582 DUP6 PUSH2 0x4BE JUMP JUMPDEST DUP1 PUSH0 JUMPDEST DUP6 DUP2 LT ISZERO PUSH2 0x5BD JUMPI DUP5 DUP5 SUB DUP10 MSTORE DUP2 MLOAD PUSH2 0x59E DUP6 DUP3 PUSH2 0x53D JUMP JUMPDEST SWAP5 POP PUSH2 0x5A9 DUP4 PUSH2 0x550 JUMP JUMPDEST SWAP3 POP PUSH1 0x20 DUP11 ADD SWAP10 POP POP PUSH1 0x1 DUP2 ADD SWAP1 POP PUSH2 0x585 JUMP JUMPDEST POP DUP3 SWAP8 POP DUP8 SWAP6 POP POP POP POP POP POP SWAP3 SWAP2 POP POP JUMP JUMPDEST PUSH0 PUSH1 0x20 DUP3 ADD SWAP1 POP DUP2 DUP2 SUB PUSH0 DUP4 ADD MSTORE PUSH2 0x5E7 DUP2 DUP5 PUSH2 0x55C JUMP JUMPDEST SWAP1 POP SWAP3 SWAP2 POP POP JUMP JUMPDEST PUSH0 PUSH1 0x40 MLOAD SWAP1 POP SWAP1 JUMP JUMPDEST PUSH0 PUSH0 REVERT JUMPDEST PUSH0 PUSH0 REVERT JUMPDEST PUSH0 PUSH20 0xFFFFFFFFFFFFFFFFFFFFFFFFFFFFFFFFFFFFFFFF DUP3 AND SWAP1 POP SWAP2 SWAP1 POP JUMP JUMPDEST PUSH0 PUSH2 0x629 DUP3 PUSH2 0x600 JUMP JUMPDEST SWAP1 POP SWAP2 SWAP1 POP JUMP JUMPDEST PUSH2 0x639 DUP2 PUSH2 0x61F JUMP JUMPDEST DUP2 EQ PUSH2 0x643 JUMPI PUSH0 PUSH0 REVERT JUMPDEST POP JUMP JUMPDEST PUSH0 DUP2 CALLDATALOAD SWAP1 POP PUSH2 0x654 DUP2 PUSH2 0x630 JUMP JUMPDEST SWAP3 SWAP2 POP POP JUMP JUMPDEST PUSH0 PUSH1 0x20 DUP3 DUP5 SUB SLT ISZERO PUSH2 0x66F JUMPI PUSH2 0x66E PUSH2 0x5F8 JUMP JUMPDEST JUMPDEST PUSH0 PUSH2 0x67C DUP5 DUP3 DUP6 ADD PUSH2 0x646 JUMP JUMPDEST SWAP2 POP POP SWAP3 SWAP2 POP POP JUMP JUMPDEST PUSH0 DUP2 ISZERO ISZERO SWAP1 POP SWAP2 SWAP1 POP JUMP JUMPDEST PUSH2 0x699 DUP2 PUSH2 0x685 JUMP JUMPDEST DUP3 MSTORE POP POP JUMP JUMPDEST PUSH0 PUSH1 0x20 DUP3 ADD SWAP1 POP PUSH2 0x6B2 PUSH0 DUP4 ADD DUP5 PUSH2 0x690 JUMP JUMPDEST SWAP3 SWAP2 POP POP JUMP JUMPDEST PUSH0 DUP2 SWAP1 POP SWAP2 SWAP1 POP JUMP JUMPDEST PUSH2 0x6CA DUP2 PUSH2 0x6B8 JUMP JUMPDEST DUP2 EQ PUSH2 0x6D4 JUMPI PUSH0 PUSH0 REVERT JUMPDEST POP JUMP JUMPDEST PUSH0 DUP2 CALLDATALOAD SWAP1 POP PUSH2 0x6E5 DUP2 PUSH2 0x6C1 JUMP JUMPDEST SWAP3 SWAP2 POP POP JUMP JUMPDEST PUSH0 PUSH1 0x20 DUP3 DUP5 SUB SLT ISZERO PUSH2 0x700 JUMPI PUSH2 0x6FF PUSH2 0x5F8 JUMP JUMPDEST JUMPDEST PUSH0 PUSH2 0x70D DUP5 DUP3 DUP6 ADD PUSH2 0x6D7 JUMP JUMPDEST SWAP2 POP POP SWAP3 SWAP2 POP POP JUMP JUMPDEST PUSH0 DUP3 DUP3 MSTORE PUSH1 0x20 DUP3 ADD SWAP1 POP SWAP3 SWAP2 POP POP JUMP JUMPDEST PUSH0 PUSH2 0x730 DUP3 PUSH2 0x4CD JUMP JUMPDEST PUSH2 0x73A DUP2 DUP6 PUSH2 0x716 JUMP JUMPDEST SWAP4 POP PUSH2 0x74A DUP2 DUP6 PUSH1 0x20 DUP7 ADD PUSH2 0x4E7 JUMP JUMPDEST PUSH2 0x753 DUP2 PUSH2 0x4F5 JUMP JUMPDEST DUP5 ADD SWAP2 POP POP SWAP3 SWAP2 POP POP JUMP JUMPDEST PUSH0 PUSH1 0x20 DUP3 ADD SWAP1 POP DUP2 DUP2 SUB PUSH0 DUP4 ADD MSTORE PUSH2 0x776 DUP2 DUP5 PUSH2 0x726 JUMP JUMPDEST SWAP1 POP SWAP3 SWAP2 POP POP JUMP JUMPDEST PUSH0 PUSH0 REVERT JUMPDEST PUSH0 PUSH0 REVERT JUMPDEST PUSH32 0x4E487B7100000000000000000000000000000000000000000000000000000000 PUSH0 MSTORE PUSH1 0x41 PUSH1 0x4 MSTORE PUSH1 0x24 PUSH0 REVERT JUMPDEST PUSH2 0x7BC DUP3 PUSH2 0x4F5 JUMP JUMPDEST DUP2 ADD DUP2 DUP2 LT PUSH8 0xFFFFFFFFFFFFFFFF DUP3 GT OR ISZERO PUSH2 0x7DB JUMPI PUSH2 0x7DA PUSH2 0x786 JUMP JUMPDEST JUMPDEST DUP1 PUSH1 0x40 MSTORE POP POP POP JUMP JUMPDEST PUSH0 PUSH2 0x7ED PUSH2 0x5EF JUMP JUMPDEST SWAP1 POP PUSH2 0x7F9 DUP3 DUP3 PUSH2 0x7B3 JUMP JUMPDEST SWAP2 SWAP1 POP JUMP JUMPDEST PUSH0 PUSH8 0xFFFFFFFFFFFFFFFF DUP3 GT ISZERO PUSH2 0x818 JUMPI PUSH2 0x817 PUSH2 0x786 JUMP JUMPDEST JUMPDEST PUSH2 0x821 DUP3 PUSH2 0x4F5 JUMP JUMPDEST SWAP1 POP PUSH1 0x20 DUP2 ADD SWAP1 POP SWAP2 SWAP1 POP JUMP JUMPDEST DUP3 DUP2 DUP4 CALLDATACOPY PUSH0 DUP4 DUP4 ADD MSTORE POP POP POP JUMP JUMPDEST PUSH0 PUSH2 0x84E PUSH2 0x849 DUP5 PUSH2 0x7FE JUMP JUMPDEST PUSH2 0x7E4 JUMP JUMPDEST SWAP1 POP DUP3 DUP2 MSTORE PUSH1 0x20 DUP2 ADD DUP5 DUP5 DUP5 ADD GT ISZERO PUSH2 0x86A JUMPI PUSH2 0x869 PUSH2 0x782 JUMP JUMPDEST JUMPDEST PUSH2 0x875 DUP5 DUP3 DUP6 PUSH2 0x82E JUMP JUMPDEST POP SWAP4 SWAP3 POP POP POP JUMP JUMPDEST PUSH0 DUP3 PUSH1 0x1F DUP4 ADD SLT PUSH2 0x891 JUMPI PUSH2 0x890 PUSH2 0x77E JUMP JUMPDEST JUMPDEST DUP2 CALLDATALOAD PUSH2 0x8A1 DUP5 DUP3 PUSH1 0x20 DUP7 ADD PUSH2 0x83C JUMP JUMPDEST SWAP2 POP POP SWAP3 SWAP2 POP POP JUMP JUMPDEST PUSH0 PUSH1 0x20 DUP3 DUP5 SUB SLT ISZERO PUSH2 0x8BF JUMPI PUSH2 0x8BE PUSH2 0x5F8 JUMP JUMPDEST JUMPDEST PUSH0 DUP3 ADD CALLDATALOAD PUSH8 0xFFFFFFFFFFFFFFFF DUP2 GT ISZERO PUSH2 0x8DC JUMPI PUSH2 0x8DB PUSH2 0x5FC JUMP JUMPDEST JUMPDEST PUSH2 0x8E8 DUP5 DUP3 DUP6 ADD PUSH2 0x87D JUMP JUMPDEST SWAP2 POP POP SWAP3 SWAP2 POP POP JUMP JUMPDEST PUSH2 0x8FA DUP2 PUSH2 0x6B8 JUMP JUMPDEST DUP3 MSTORE POP POP JUMP JUMPDEST PUSH0 PUSH1 0x20 DUP3 ADD SWAP1 POP PUSH2 0x913 PUSH0 DUP4 ADD DUP5 PUSH2 0x8F1 JUMP JUMPDEST SWAP3 SWAP2 POP POP JUMP JUMPDEST PUSH32 0x4E487B7100000000000000000000000000000000000000000000000000000000 PUSH0 MSTORE PUSH1 0x22 PUSH1 0x4 MSTORE PUSH1 0x24 PUSH0 REVERT JUMPDEST PUSH0 PUSH1 0x2 DUP3 DIV SWAP1 POP PUSH1 0x1 DUP3 AND DUP1 PUSH2 0x95D JUMPI PUSH1 0x7F DUP3 AND SWAP2 POP JUMPDEST PUSH1 0x20 DUP3 LT DUP2 SUB PUSH2 0x970 JUMPI PUSH2 0x96F PUSH2 0x919 JUMP JUMPDEST JUMPDEST POP SWAP2 SWAP1 POP JUMP JUMPDEST PUSH32 0x416C726561647920766F74656400000000000000000000000000000000000000 PUSH0 DUP3 ADD MSTORE POP JUMP JUMPDEST PUSH0 PUSH2 0x9AA PUSH1 0xD DUP4 PUSH2 0x716 JUMP JUMPDEST SWAP2 POP PUSH2 0x9B5 DUP3 PUSH2 0x976 JUMP JUMPDEST PUSH1 0x20 DUP3 ADD SWAP1 POP SWAP2 SWAP1 POP JUMP JUMPDEST PUSH0 PUSH1 0x20 DUP3 ADD SWAP1 POP DUP2 DUP2 SUB PUSH0 DUP4 ADD MSTORE PUSH2 0x9D7 DUP2 PUSH2 0x99E JUMP JUMPDEST SWAP1 POP SWAP2 SWAP1 POP JUMP JUMPDEST PUSH32 0x4E487B7100000000000000000000000000000000000000000000000000000000 PUSH0 MSTORE PUSH1 0x32 PUSH1 0x4 MSTORE PUSH1 0x24 PUSH0 REVERT JUMPDEST PUSH0 DUP2 SWAP1 POP SWAP3 SWAP2 POP POP JUMP JUMPDEST PUSH0 DUP2 SWAP1 POP DUP2 PUSH0 MSTORE PUSH1 0x20 PUSH0 KECCAK256 SWAP1 POP SWAP2 SWAP1 POP JUMP JUMPDEST PUSH0 DUP2 SLOAD PUSH2 0xA33 DUP2 PUSH2 0x946 JUMP JUMPDEST PUSH2 0xA3D DUP2 DUP7 PUSH2 0xA0B JUMP JUMPDEST SWAP5 POP PUSH1 0x1 DUP3 AND PUSH0 DUP2 EQ PUSH2 0xA57 JUMPI PUSH1 0x1 DUP2 EQ PUSH2 0xA6C JUMPI PUSH2 0xA9E JUMP JUMPDEST PUSH1 0xFF NOT DUP4 AND DUP7 MSTORE DUP2 ISZERO ISZERO DUP3 MUL DUP7 ADD SWAP4 POP PUSH2 0xA9E JUMP JUMPDEST PUSH2 0xA75 DUP6 PUSH2 0xA15 JUMP JUMPDEST PUSH0 JUMPDEST DUP4 DUP2 LT ISZERO PUSH2 0xA96 JUMPI DUP2 SLOAD DUP2 DUP10 ADD MSTORE PUSH1 0x1 DUP3 ADD SWAP2 POP PUSH1 0x20 DUP2 ADD SWAP1 POP PUSH2 0xA77 JUMP JUMPDEST DUP4 DUP9 ADD SWAP6 POP POP POP JUMPDEST POP POP POP SWAP3 SWAP2 POP POP JUMP JUMPDEST PUSH0 PUSH2 0xAB2 DUP3 DUP5 PUSH2 0xA27 JUMP JUMPDEST SWAP2 POP DUP2 SWAP1 POP SWAP3 SWAP2 POP POP JUMP JUMPDEST PUSH32 0x496E76616C69642063616E646964617465000000000000000000000000000000 PUSH0 DUP3 ADD MSTORE POP JUMP JUMPDEST PUSH0 PUSH2 0xAF1 PUSH1 0x11 DUP4 PUSH2 0x716 JUMP JUMPDEST SWAP2 POP PUSH2 0xAFC DUP3 PUSH2 0xABD JUMP JUMPDEST PUSH1 0x20 DUP3 ADD SWAP1 POP SWAP2 SWAP1 POP JUMP JUMPDEST PUSH0 PUSH1 0x20 DUP3 ADD SWAP1 POP DUP2 DUP2 SUB PUSH0 DUP4 ADD MSTORE PUSH2 0xB1E DUP2 PUSH2 0xAE5 JUMP JUMPDEST SWAP1 POP SWAP2 SWAP1 POP JUMP JUMPDEST PUSH0 DUP2 SWAP1 POP SWAP3 SWAP2 POP POP JUMP JUMPDEST PUSH0 PUSH2 0xB39 DUP3 PUSH2 0x4CD JUMP JUMPDEST PUSH2 0xB43 DUP2 DUP6 PUSH2 0xB25 JUMP JUMPDEST SWAP4 POP PUSH2 0xB53 DUP2 DUP6 PUSH1 0x20 DUP7 ADD PUSH2 0x4E7 JUMP JUMPDEST DUP1 DUP5 ADD SWAP2 POP POP SWAP3 SWAP2 POP POP JUMP JUMPDEST PUSH0 PUSH2 0xB6A DUP3 DUP5 PUSH2 0xB2F JUMP JUMPDEST SWAP2 POP DUP2 SWAP1 POP SWAP3 SWAP2 POP POP JUMP JUMPDEST PUSH32 0x4E487B7100000000000000000000000000000000000000000000000000000000 PUSH0 MSTORE PUSH1 0x11 PUSH1 0x4 MSTORE PUSH1 0x24 PUSH0 REVERT JUMPDEST PUSH0 PUSH2 0xBAC DUP3 PUSH2 0x6B8 JUMP JUMPDEST SWAP2 POP PUSH32 0xFFFFFFFFFFFFFFFFFFFFFFFFFFFFFFFFFFFFFFFFFFFFFFFFFFFFFFFFFFFFFFFF DUP3 SUB PUSH2 0xBDE JUMPI PUSH2 0xBDD PUSH2 0xB75 JUMP JUMPDEST JUMPDEST PUSH1 0x1 DUP3 ADD SWAP1 POP SWAP2 SWAP1 POP JUMP INVALID LOG2 PUSH5 0x6970667358 0x22 SLT KECCAK256 EOFCREATE 0xEC RETURNDATACOPY 0xC0 0x2F EXP 0xBA SWAP1 EXTCODEHASH EOFCREATE 0x9B SHL SWAP15 BASEFEE 0xCD DUP12 0xBD GASPRICE BLOBHASH DELEGATECALL BLOBHASH 0x29 EOFCREATE 0x2A SWAP10 0xDD JUMPF 0x4FF8 SWAP2 PUSH21 0xBC64736F6C634300081F0033000000000000000000 "
				},
				"gasEstimates": {
					"creation": {
						"codeDepositCost": "620600",
						"executionCost": "infinite",
						"totalCost": "infinite"
					},
					"external": {
						"candidates(uint256)": "infinite",
						"getCandidates()": "infinite",
						"hasVoted(address)": "2833",
						"vote(string)": "infinite",
						"votes(string)": "infinite"
					}
				},
				"methodIdentifiers": {
					"candidates(uint256)": "3477ee2e",
					"getCandidates()": "06a49fce",
					"hasVoted(address)": "09eef43e",
					"vote(string)": "fc36e15b",
					"votes(string)": "b99ef1fa"
				}
			},
			"storageLayout": {
				"storage": [
					{
						"astId": 4,
						"contract": "Vottiny_System.sol:VotingSystem",
						"label": "candidates",
						"offset": 0,
						"slot": "0",
						"type": "t_array(t_string_storage)dyn_storage"
					},
					{
						"astId": 8,
						"contract": "Vottiny_System.sol:VotingSystem",
						"label": "votes",
						"offset": 0,
						"slot": "1",
						"type": "t_mapping(t_string_memory_ptr,t_uint256)"
					},
					{
						"astId": 12,
						"contract": "Vottiny_System.sol:VotingSystem",
						"label": "hasVoted",
						"offset": 0,
						"slot": "2",
						"type": "t_mapping(t_address,t_bool)"
					}
				],
				"types": {
					"t_address": {
						"encoding": "inplace",
						"label": "address",
						"numberOfBytes": "20"
					},
					"t_array(t_string_storage)dyn_storage": {
						"base": "t_string_storage",
						"encoding": "dynamic_array",
						"label": "string[]",
						"numberOfBytes": "32"
					},
					"t_bool": {
						"encoding": "inplace",
						"label": "bool",
						"numberOfBytes": "1"
					},
					"t_mapping(t_address,t_bool)": {
						"encoding": "mapping",
						"key": "t_address",
						"label": "mapping(address => bool)",
						"numberOfBytes": "32",
						"value": "t_bool"
					},
					"t_mapping(t_string_memory_ptr,t_uint256)": {
						"encoding": "mapping",
						"key": "t_string_memory_ptr",
						"label": "mapping(string => uint256)",
						"numberOfBytes": "32",
						"value": "t_uint256"
					},
					"t_string_memory_ptr": {
						"encoding": "bytes",
						"label": "string",
						"numberOfBytes": "32"
					},
					"t_string_storage": {
						"encoding": "bytes",
						"label": "string",
						"numberOfBytes": "32"
					},
					"t_uint256": {
						"encoding": "inplace",
						"label": "uint256",
						"numberOfBytes": "32"
					}
				}
			},
			"userdoc": {
				"kind": "user",
				"methods": {},
				"version": 1
			}
		}
	}
}