{
	"Calculator1sol.sol": {
		"Calculator": {
			"abi": [
				{
					"inputs": [
						{
							"internalType": "uint256",
							"name": "a",
							"type": "uint256"
						},
						{
							"internalType": "uint256",
							"name": "b",
							"type": "uint256"
						}
					],
					"name": "add",
					"outputs": [
						{
							"internalType": "uint256",
							"name": "",
							"type": "uint256"
						}
					],
					"stateMutability": "pure",
					"type": "function"
				},
				{
					"inputs": [
						{
							"internalType": "uint256",
							"name": "a",
							"type": "uint256"
						},
						{
							"internalType": "uint256",
							"name": "b",
							"type": "uint256"
						}
					],
					"name": "divide",
					"outputs": [
						{
							"internalType": "uint256",
							"name": "",
							"type": "uint256"
						}
					],
					"stateMutability": "pure",
					"type": "function"
				},
				{
					"inputs": [
						{
							"internalType": "uint256",
							"name": "a",
							"type": "uint256"
						},
						{
							"internalType": "uint256",
							"name": "b",
							"type": "uint256"
						}
					],
					"name": "modulus",
					"outputs": [
						{
							"internalType": "uint256",
							"name": "",
							"type": "uint256"
						}
					],
					"stateMutability": "pure",
					"type": "function"
				},
				{
					"inputs": [
						{
							"internalType": "uint256",
							"name": "a",
							"type": "uint256"
						},
						{
							"internalType": "uint256",
							"name": "b",
							"type": "uint256"
						}
					],
					"name": "multiply",
					"outputs": [
						{
							"internalType": "uint256",
							"name": "",
							"type": "uint256"
						}
					],
					"stateMutability": "pure",
					"type": "function"
				},
				{
					"inputs": [
						{
							"internalType": "uint256",
							"name": "a",
							"type": "uint256"
						},
						{
							"internalType": "uint256",
							"name": "b",
							"type": "uint256"
						}
					],
					"name": "subtract",
					"outputs": [
						{
							"internalType": "uint256",
							"name": "",
							"type": "uint256"
						}
					],
					"stateMutability": "pure",
					"type": "function"
				}
			],
			"devdoc": {
				"kind": "dev",
				"methods": {},
				"version": 1
			},
			"evm": {
				"assembly": "    /* \"Calculator1sol.sol\":60:834  contract Calculator {... */\n  mstore(0x40, 0x80)\n  callvalue\n  dup1\n  iszero\n  tag_1\n  jumpi\n  revert(0x00, 0x00)\ntag_1:\n  pop\n  dataSize(sub_0)\n  dup1\n  dataOffset(sub_0)\n  0x00\n  codecopy\n  0x00\n  return\nstop\n\nsub_0: assembly {\n        /* \"Calculator1sol.sol\":60:834  contract Calculator {... */\n      mstore(0x40, 0x80)\n      callvalue\n      dup1\n      iszero\n      tag_1\n      jumpi\n      revert(0x00, 0x00)\n    tag_1:\n      pop\n      jumpi(tag_2, lt(calldatasize, 0x04))\n      shr(0xe0, calldataload(0x00))\n      dup1\n      0x165c4a16\n      eq\n      tag_3\n      jumpi\n      dup1\n      0x3ef5e445\n      eq\n      tag_4\n      jumpi\n      dup1\n      0x771602f7\n      eq\n      tag_5\n      jumpi\n      dup1\n      0xce406417\n      eq\n      tag_6\n      jumpi\n      dup1\n      0xf88e9fbf\n      eq\n      tag_7\n      jumpi\n    tag_2:\n      revert(0x00, 0x00)\n        /* \"Calculator1sol.sol\":395:487  function multiply(uint a, uint b) public pure returns (uint) {... */\n    tag_3:\n      tag_8\n      0x04\n      dup1\n      calldatasize\n      sub\n      dup2\n      add\n      swap1\n      tag_9\n      swap2\n      swap1\n      tag_10\n      jump\t// in\n    tag_9:\n      tag_11\n      jump\t// in\n    tag_8:\n      mload(0x40)\n      tag_12\n      swap2\n      swap1\n      tag_13\n      jump\t// in\n    tag_12:\n      mload(0x40)\n      dup1\n      swap2\n      sub\n      swap1\n      return\n        /* \"Calculator1sol.sol\":221:364  function subtract(uint a, uint b) public pure returns (uint) {... */\n    tag_4:\n      tag_14\n      0x04\n      dup1\n      calldatasize\n      sub\n      dup2\n      add\n      swap1\n      tag_15\n      swap2\n      swap1\n      tag_10\n      jump\t// in\n    tag_15:\n      tag_16\n      jump\t// in\n    tag_14:\n      mload(0x40)\n      tag_17\n      swap2\n      swap1\n      tag_13\n      jump\t// in\n    tag_17:\n      mload(0x40)\n      dup1\n      swap2\n      sub\n      swap1\n      return\n        /* \"Calculator1sol.sol\":106:193  function add(uint a, uint b) public pure returns (uint) {... */\n    tag_5:\n      tag_18\n      0x04\n      dup1\n      calldatasize\n      sub\n      dup2\n      add\n      swap1\n      tag_19\n      swap2\n      swap1\n      tag_10\n      jump\t// in\n    tag_19:\n      tag_20\n      jump\t// in\n    tag_18:\n      mload(0x40)\n      tag_21\n      swap2\n      swap1\n      tag_13\n      jump\t// in\n    tag_21:\n      mload(0x40)\n      dup1\n      swap2\n      sub\n      swap1\n      return\n        /* \"Calculator1sol.sol\":684:831  function modulus(uint a, uint b) public pure returns (uint) {... */\n    tag_6:\n      tag_22\n      0x04\n      dup1\n      calldatasize\n      sub\n      dup2\n      add\n      swap1\n      tag_23\n      swap2\n      swap1\n      tag_10\n      jump\t// in\n    tag_23:\n      tag_24\n      jump\t// in\n    tag_22:\n      mload(0x40)\n      tag_25\n      swap2\n      swap1\n      tag_13\n      jump\t// in\n    tag_25:\n      mload(0x40)\n      dup1\n      swap2\n      sub\n      swap1\n      return\n        /* \"Calculator1sol.sol\":512:660  function divide(uint a, uint b) public pure returns (uint) {... */\n    tag_7:\n      tag_26\n      0x04\n      dup1\n      calldatasize\n      sub\n      dup2\n      add\n      swap1\n      tag_27\n      swap2\n      swap1\n      tag_10\n      jump\t// in\n    tag_27:\n      tag_28\n      jump\t// in\n    tag_26:\n      mload(0x40)\n      tag_29\n      swap2\n      swap1\n      tag_13\n      jump\t// in\n    tag_29:\n      mload(0x40)\n      dup1\n      swap2\n      sub\n      swap1\n      return\n        /* \"Calculator1sol.sol\":395:487  function multiply(uint a, uint b) public pure returns (uint) {... */\n    tag_11:\n        /* \"Calculator1sol.sol\":450:454  uint */\n      0x00\n        /* \"Calculator1sol.sol\":478:479  b */\n      dup2\n        /* \"Calculator1sol.sol\":474:475  a */\n      dup4\n        /* \"Calculator1sol.sol\":474:479  a * b */\n      tag_31\n      swap2\n      swap1\n      tag_32\n      jump\t// in\n    tag_31:\n        /* \"Calculator1sol.sol\":467:479  return a * b */\n      swap1\n      pop\n        /* \"Calculator1sol.sol\":395:487  function multiply(uint a, uint b) public pure returns (uint) {... */\n      swap3\n      swap2\n      pop\n      pop\n      jump\t// out\n        /* \"Calculator1sol.sol\":221:364  function subtract(uint a, uint b) public pure returns (uint) {... */\n    tag_16:\n        /* \"Calculator1sol.sol\":276:280  uint */\n      0x00\n        /* \"Calculator1sol.sol\":306:307  a */\n      dup3\n        /* \"Calculator1sol.sol\":301:302  b */\n      dup3\n        /* \"Calculator1sol.sol\":301:307  b <= a */\n      gt\n      iszero\n        /* \"Calculator1sol.sol\":293:333  require(b <= a, \"Subtraction underflow\") */\n      tag_34\n      jumpi\n      mload(0x40)\n      0x08c379a000000000000000000000000000000000000000000000000000000000\n      dup2\n      mstore\n      0x04\n      add\n      tag_35\n      swap1\n      tag_36\n      jump\t// in\n    tag_35:\n      mload(0x40)\n      dup1\n      swap2\n      sub\n      swap1\n      revert\n    tag_34:\n        /* \"Calculator1sol.sol\":355:356  b */\n      dup2\n        /* \"Calculator1sol.sol\":351:352  a */\n      dup4\n        /* \"Calculator1sol.sol\":351:356  a - b */\n      tag_37\n      swap2\n      swap1\n      tag_38\n      jump\t// in\n    tag_37:\n        /* \"Calculator1sol.sol\":344:356  return a - b */\n      swap1\n      pop\n        /* \"Calculator1sol.sol\":221:364  function subtract(uint a, uint b) public pure returns (uint) {... */\n      swap3\n      swap2\n      pop\n      pop\n      jump\t// out\n        /* \"Calculator1sol.sol\":106:193  function add(uint a, uint b) public pure returns (uint) {... */\n    tag_20:\n        /* \"Calculator1sol.sol\":156:160  uint */\n      0x00\n        /* \"Calculator1sol.sol\":184:185  b */\n      dup2\n        /* \"Calculator1sol.sol\":180:181  a */\n      dup4\n        /* \"Calculator1sol.sol\":180:185  a + b */\n      tag_40\n      swap2\n      swap1\n      tag_41\n      jump\t// in\n    tag_40:\n        /* \"Calculator1sol.sol\":173:185  return a + b */\n      swap1\n      pop\n        /* \"Calculator1sol.sol\":106:193  function add(uint a, uint b) public pure returns (uint) {... */\n      swap3\n      swap2\n      pop\n      pop\n      jump\t// out\n        /* \"Calculator1sol.sol\":684:831  function modulus(uint a, uint b) public pure returns (uint) {... */\n    tag_24:\n        /* \"Calculator1sol.sol\":738:742  uint */\n      0x00\n        /* \"Calculator1sol.sol\":768:769  0 */\n      0x00\n        /* \"Calculator1sol.sol\":763:764  b */\n      dup3\n        /* \"Calculator1sol.sol\":763:769  b != 0 */\n      sub\n        /* \"Calculator1sol.sol\":755:800  require(b != 0, \"Modulo by zero not allowed\") */\n      tag_43\n      jumpi\n      mload(0x40)\n      0x08c379a000000000000000000000000000000000000000000000000000000000\n      dup2\n      mstore\n      0x04\n      add\n      tag_44\n      swap1\n      tag_45\n      jump\t// in\n    tag_44:\n      mload(0x40)\n      dup1\n      swap2\n      sub\n      swap1\n      revert\n    tag_43:\n        /* \"Calculator1sol.sol\":822:823  b */\n      dup2\n        /* \"Calculator1sol.sol\":818:819  a */\n      dup4\n        /* \"Calculator1sol.sol\":818:823  a % b */\n      tag_46\n      swap2\n      swap1\n      tag_47\n      jump\t// in\n    tag_46:\n        /* \"Calculator1sol.sol\":811:823  return a % b */\n      swap1\n      pop\n        /* \"Calculator1sol.sol\":684:831  function modulus(uint a, uint b) public pure returns (uint) {... */\n      swap3\n      swap2\n      pop\n      pop\n      jump\t// out\n        /* \"Calculator1sol.sol\":512:660  function divide(uint a, uint b) public pure returns (uint) {... */\n    tag_28:\n        /* \"Calculator1sol.sol\":565:569  uint */\n      0x00\n        /* \"Calculator1sol.sol\":595:596  0 */\n      0x00\n        /* \"Calculator1sol.sol\":590:591  b */\n      dup3\n        /* \"Calculator1sol.sol\":590:596  b != 0 */\n      sub\n        /* \"Calculator1sol.sol\":582:629  require(b != 0, \"Division by zero not allowed\") */\n      tag_49\n      jumpi\n      mload(0x40)\n      0x08c379a000000000000000000000000000000000000000000000000000000000\n      dup2\n      mstore\n      0x04\n      add\n      tag_50\n      swap1\n      tag_51\n      jump\t// in\n    tag_50:\n      mload(0x40)\n      dup1\n      swap2\n      sub\n      swap1\n      revert\n    tag_49:\n        /* \"Calculator1sol.sol\":651:652  b */\n      dup2\n        /* \"Calculator1sol.sol\":647:648  a */\n      dup4\n        /* \"Calculator1sol.sol\":647:652  a / b */\n      tag_52\n      swap2\n      swap1\n      tag_53\n      jump\t// in\n    tag_52:\n        /* \"Calculator1sol.sol\":640:652  return a / b */\n      swap1\n      pop\n        /* \"Calculator1sol.sol\":512:660  function divide(uint a, uint b) public pure returns (uint) {... */\n      swap3\n      swap2\n      pop\n      pop\n      jump\t// out\n        /* \"#utility.yul\":88:205   */\n    tag_55:\n        /* \"#utility.yul\":197:198   */\n      0x00\n        /* \"#utility.yul\":194:195   */\n      0x00\n        /* \"#utility.yul\":187:199   */\n      revert\n        /* \"#utility.yul\":334:411   */\n    tag_57:\n        /* \"#utility.yul\":371:378   */\n      0x00\n        /* \"#utility.yul\":400:405   */\n      dup2\n        /* \"#utility.yul\":389:405   */\n      swap1\n      pop\n        /* \"#utility.yul\":334:411   */\n      swap2\n      swap1\n      pop\n      jump\t// out\n        /* \"#utility.yul\":417:539   */\n    tag_58:\n        /* \"#utility.yul\":490:514   */\n      tag_76\n        /* \"#utility.yul\":508:513   */\n      dup2\n        /* \"#utility.yul\":490:514   */\n      tag_57\n      jump\t// in\n    tag_76:\n        /* \"#utility.yul\":483:488   */\n      dup2\n        /* \"#utility.yul\":480:515   */\n      eq\n        /* \"#utility.yul\":470:533   */\n      tag_77\n      jumpi\n        /* \"#utility.yul\":529:530   */\n      0x00\n        /* \"#utility.yul\":526:527   */\n      0x00\n        /* \"#utility.yul\":519:531   */\n      revert\n        /* \"#utility.yul\":470:533   */\n    tag_77:\n        /* \"#utility.yul\":417:539   */\n      pop\n      jump\t// out\n        /* \"#utility.yul\":545:684   */\n    tag_59:\n        /* \"#utility.yul\":591:596   */\n      0x00\n        /* \"#utility.yul\":629:635   */\n      dup2\n        /* \"#utility.yul\":616:636   */\n      calldataload\n        /* \"#utility.yul\":607:636   */\n      swap1\n      pop\n        /* \"#utility.yul\":645:678   */\n      tag_79\n        /* \"#utility.yul\":672:677   */\n      dup2\n        /* \"#utility.yul\":645:678   */\n      tag_58\n      jump\t// in\n    tag_79:\n        /* \"#utility.yul\":545:684   */\n      swap3\n      swap2\n      pop\n      pop\n      jump\t// out\n        /* \"#utility.yul\":690:1164   */\n    tag_10:\n        /* \"#utility.yul\":758:764   */\n      0x00\n        /* \"#utility.yul\":766:772   */\n      0x00\n        /* \"#utility.yul\":815:817   */\n      0x40\n        /* \"#utility.yul\":803:812   */\n      dup4\n        /* \"#utility.yul\":794:801   */\n      dup6\n        /* \"#utility.yul\":790:813   */\n      sub\n        /* \"#utility.yul\":786:818   */\n      slt\n        /* \"#utility.yul\":783:902   */\n      iszero\n      tag_81\n      jumpi\n        /* \"#utility.yul\":821:900   */\n      tag_82\n      tag_55\n      jump\t// in\n    tag_82:\n        /* \"#utility.yul\":783:902   */\n    tag_81:\n        /* \"#utility.yul\":941:942   */\n      0x00\n        /* \"#utility.yul\":966:1019   */\n      tag_83\n        /* \"#utility.yul\":1011:1018   */\n      dup6\n        /* \"#utility.yul\":1002:1008   */\n      dup3\n        /* \"#utility.yul\":991:1000   */\n      dup7\n        /* \"#utility.yul\":987:1009   */\n      add\n        /* \"#utility.yul\":966:1019   */\n      tag_59\n      jump\t// in\n    tag_83:\n        /* \"#utility.yul\":956:1019   */\n      swap3\n      pop\n        /* \"#utility.yul\":912:1029   */\n      pop\n        /* \"#utility.yul\":1068:1070   */\n      0x20\n        /* \"#utility.yul\":1094:1147   */\n      tag_84\n        /* \"#utility.yul\":1139:1146   */\n      dup6\n        /* \"#utility.yul\":1130:1136   */\n      dup3\n        /* \"#utility.yul\":1119:1128   */\n      dup7\n        /* \"#utility.yul\":1115:1137   */\n      add\n        /* \"#utility.yul\":1094:1147   */\n      tag_59\n      jump\t// in\n    tag_84:\n        /* \"#utility.yul\":1084:1147   */\n      swap2\n      pop\n        /* \"#utility.yul\":1039:1157   */\n      pop\n        /* \"#utility.yul\":690:1164   */\n      swap3\n      pop\n      swap3\n      swap1\n      pop\n      jump\t// out\n        /* \"#utility.yul\":1170:1288   */\n    tag_60:\n        /* \"#utility.yul\":1257:1281   */\n      tag_86\n        /* \"#utility.yul\":1275:1280   */\n      dup2\n        /* \"#utility.yul\":1257:1281   */\n      tag_57\n      jump\t// in\n    tag_86:\n        /* \"#utility.yul\":1252:1255   */\n      dup3\n        /* \"#utility.yul\":1245:1282   */\n      mstore\n        /* \"#utility.yul\":1170:1288   */\n      pop\n      pop\n      jump\t// out\n        /* \"#utility.yul\":1294:1516   */\n    tag_13:\n        /* \"#utility.yul\":1387:1391   */\n      0x00\n        /* \"#utility.yul\":1425:1427   */\n      0x20\n        /* \"#utility.yul\":1414:1423   */\n      dup3\n        /* \"#utility.yul\":1410:1428   */\n      add\n        /* \"#utility.yul\":1402:1428   */\n      swap1\n      pop\n        /* \"#utility.yul\":1438:1509   */\n      tag_88\n        /* \"#utility.yul\":1506:1507   */\n      0x00\n        /* \"#utility.yul\":1495:1504   */\n      dup4\n        /* \"#utility.yul\":1491:1508   */\n      add\n        /* \"#utility.yul\":1482:1488   */\n      dup5\n        /* \"#utility.yul\":1438:1509   */\n      tag_60\n      jump\t// in\n    tag_88:\n        /* \"#utility.yul\":1294:1516   */\n      swap3\n      swap2\n      pop\n      pop\n      jump\t// out\n        /* \"#utility.yul\":1522:1702   */\n    tag_61:\n        /* \"#utility.yul\":1570:1647   */\n      0x4e487b7100000000000000000000000000000000000000000000000000000000\n        /* \"#utility.yul\":1567:1568   */\n      0x00\n        /* \"#utility.yul\":1560:1648   */\n      mstore\n        /* \"#utility.yul\":1667:1671   */\n      0x11\n        /* \"#utility.yul\":1664:1665   */\n      0x04\n        /* \"#utility.yul\":1657:1672   */\n      mstore\n        /* \"#utility.yul\":1691:1695   */\n      0x24\n        /* \"#utility.yul\":1688:1689   */\n      0x00\n        /* \"#utility.yul\":1681:1696   */\n      revert\n        /* \"#utility.yul\":1708:2118   */\n    tag_32:\n        /* \"#utility.yul\":1748:1755   */\n      0x00\n        /* \"#utility.yul\":1771:1791   */\n      tag_91\n        /* \"#utility.yul\":1789:1790   */\n      dup3\n        /* \"#utility.yul\":1771:1791   */\n      tag_57\n      jump\t// in\n    tag_91:\n        /* \"#utility.yul\":1766:1791   */\n      swap2\n      pop\n        /* \"#utility.yul\":1805:1825   */\n      tag_92\n        /* \"#utility.yul\":1823:1824   */\n      dup4\n        /* \"#utility.yul\":1805:1825   */\n      tag_57\n      jump\t// in\n    tag_92:\n        /* \"#utility.yul\":1800:1825   */\n      swap3\n      pop\n        /* \"#utility.yul\":1860:1861   */\n      dup3\n        /* \"#utility.yul\":1857:1858   */\n      dup3\n        /* \"#utility.yul\":1853:1862   */\n      mul\n        /* \"#utility.yul\":1882:1912   */\n      tag_93\n        /* \"#utility.yul\":1900:1911   */\n      dup2\n        /* \"#utility.yul\":1882:1912   */\n      tag_57\n      jump\t// in\n    tag_93:\n        /* \"#utility.yul\":1871:1912   */\n      swap2\n      pop\n        /* \"#utility.yul\":2061:2062   */\n      dup3\n        /* \"#utility.yul\":2052:2059   */\n      dup3\n        /* \"#utility.yul\":2048:2063   */\n      div\n        /* \"#utility.yul\":2045:2046   */\n      dup5\n        /* \"#utility.yul\":2042:2064   */\n      eq\n        /* \"#utility.yul\":2022:2023   */\n      dup4\n        /* \"#utility.yul\":2015:2024   */\n      iszero\n        /* \"#utility.yul\":1995:2078   */\n      or\n        /* \"#utility.yul\":1972:2111   */\n      tag_94\n      jumpi\n        /* \"#utility.yul\":2091:2109   */\n      tag_95\n      tag_61\n      jump\t// in\n    tag_95:\n        /* \"#utility.yul\":1972:2111   */\n    tag_94:\n        /* \"#utility.yul\":1756:2118   */\n      pop\n        /* \"#utility.yul\":1708:2118   */\n      swap3\n      swap2\n      pop\n      pop\n      jump\t// out\n        /* \"#utility.yul\":2124:2293   */\n    tag_62:\n        /* \"#utility.yul\":2208:2219   */\n      0x00\n        /* \"#utility.yul\":2242:2248   */\n      dup3\n        /* \"#utility.yul\":2237:2240   */\n      dup3\n        /* \"#utility.yul\":2230:2249   */\n      mstore\n        /* \"#utility.yul\":2282:2286   */\n      0x20\n        /* \"#utility.yul\":2277:2280   */\n      dup3\n        /* \"#utility.yul\":2273:2287   */\n      add\n        /* \"#utility.yul\":2258:2287   */\n      swap1\n      pop\n        /* \"#utility.yul\":2124:2293   */\n      swap3\n      swap2\n      pop\n      pop\n      jump\t// out\n        /* \"#utility.yul\":2299:2470   */\n    tag_63:\n        /* \"#utility.yul\":2439:2462   */\n      0x5375627472616374696f6e20756e646572666c6f770000000000000000000000\n        /* \"#utility.yul\":2435:2436   */\n      0x00\n        /* \"#utility.yul\":2427:2433   */\n      dup3\n        /* \"#utility.yul\":2423:2437   */\n      add\n        /* \"#utility.yul\":2416:2463   */\n      mstore\n        /* \"#utility.yul\":2299:2470   */\n      pop\n      jump\t// out\n        /* \"#utility.yul\":2476:2842   */\n    tag_64:\n        /* \"#utility.yul\":2618:2621   */\n      0x00\n        /* \"#utility.yul\":2639:2706   */\n      tag_99\n        /* \"#utility.yul\":2703:2705   */\n      0x15\n        /* \"#utility.yul\":2698:2701   */\n      dup4\n        /* \"#utility.yul\":2639:2706   */\n      tag_62\n      jump\t// in\n    tag_99:\n        /* \"#utility.yul\":2632:2706   */\n      swap2\n      pop\n        /* \"#utility.yul\":2715:2808   */\n      tag_100\n        /* \"#utility.yul\":2804:2807   */\n      dup3\n        /* \"#utility.yul\":2715:2808   */\n      tag_63\n      jump\t// in\n    tag_100:\n        /* \"#utility.yul\":2833:2835   */\n      0x20\n        /* \"#utility.yul\":2828:2831   */\n      dup3\n        /* \"#utility.yul\":2824:2836   */\n      add\n        /* \"#utility.yul\":2817:2836   */\n      swap1\n      pop\n        /* \"#utility.yul\":2476:2842   */\n      swap2\n      swap1\n      pop\n      jump\t// out\n        /* \"#utility.yul\":2848:3267   */\n    tag_36:\n        /* \"#utility.yul\":3014:3018   */\n      0x00\n        /* \"#utility.yul\":3052:3054   */\n      0x20\n        /* \"#utility.yul\":3041:3050   */\n      dup3\n        /* \"#utility.yul\":3037:3055   */\n      add\n        /* \"#utility.yul\":3029:3055   */\n      swap1\n      pop\n        /* \"#utility.yul\":3101:3110   */\n      dup2\n        /* \"#utility.yul\":3095:3099   */\n      dup2\n        /* \"#utility.yul\":3091:3111   */\n      sub\n        /* \"#utility.yul\":3087:3088   */\n      0x00\n        /* \"#utility.yul\":3076:3085   */\n      dup4\n        /* \"#utility.yul\":3072:3089   */\n      add\n        /* \"#utility.yul\":3065:3112   */\n      mstore\n        /* \"#utility.yul\":3129:3260   */\n      tag_102\n        /* \"#utility.yul\":3255:3259   */\n      dup2\n        /* \"#utility.yul\":3129:3260   */\n      tag_64\n      jump\t// in\n    tag_102:\n        /* \"#utility.yul\":3121:3260   */\n      swap1\n      pop\n        /* \"#utility.yul\":2848:3267   */\n      swap2\n      swap1\n      pop\n      jump\t// out\n        /* \"#utility.yul\":3273:3467   */\n    tag_38:\n        /* \"#utility.yul\":3313:3317   */\n      0x00\n        /* \"#utility.yul\":3333:3353   */\n      tag_104\n        /* \"#utility.yul\":3351:3352   */\n      dup3\n        /* \"#utility.yul\":3333:3353   */\n      tag_57\n      jump\t// in\n    tag_104:\n        /* \"#utility.yul\":3328:3353   */\n      swap2\n      pop\n        /* \"#utility.yul\":3367:3387   */\n      tag_105\n        /* \"#utility.yul\":3385:3386   */\n      dup4\n        /* \"#utility.yul\":3367:3387   */\n      tag_57\n      jump\t// in\n    tag_105:\n        /* \"#utility.yul\":3362:3387   */\n      swap3\n      pop\n        /* \"#utility.yul\":3411:3412   */\n      dup3\n        /* \"#utility.yul\":3408:3409   */\n      dup3\n        /* \"#utility.yul\":3404:3413   */\n      sub\n        /* \"#utility.yul\":3396:3413   */\n      swap1\n      pop\n        /* \"#utility.yul\":3435:3436   */\n      dup2\n        /* \"#utility.yul\":3429:3433   */\n      dup2\n        /* \"#utility.yul\":3426:3437   */\n      gt\n        /* \"#utility.yul\":3423:3460   */\n      iszero\n      tag_106\n      jumpi\n        /* \"#utility.yul\":3440:3458   */\n      tag_107\n      tag_61\n      jump\t// in\n    tag_107:\n        /* \"#utility.yul\":3423:3460   */\n    tag_106:\n        /* \"#utility.yul\":3273:3467   */\n      swap3\n      swap2\n      pop\n      pop\n      jump\t// out\n        /* \"#utility.yul\":3473:3664   */\n    tag_41:\n        /* \"#utility.yul\":3513:3516   */\n      0x00\n        /* \"#utility.yul\":3532:3552   */\n      tag_109\n        /* \"#utility.yul\":3550:3551   */\n      dup3\n        /* \"#utility.yul\":3532:3552   */\n      tag_57\n      jump\t// in\n    tag_109:\n        /* \"#utility.yul\":3527:3552   */\n      swap2\n      pop\n        /* \"#utility.yul\":3566:3586   */\n      tag_110\n        /* \"#utility.yul\":3584:3585   */\n      dup4\n        /* \"#utility.yul\":3566:3586   */\n      tag_57\n      jump\t// in\n    tag_110:\n        /* \"#utility.yul\":3561:3586   */\n      swap3\n      pop\n        /* \"#utility.yul\":3609:3610   */\n      dup3\n        /* \"#utility.yul\":3606:3607   */\n      dup3\n        /* \"#utility.yul\":3602:3611   */\n      add\n        /* \"#utility.yul\":3595:3611   */\n      swap1\n      pop\n        /* \"#utility.yul\":3630:3633   */\n      dup1\n        /* \"#utility.yul\":3627:3628   */\n      dup3\n        /* \"#utility.yul\":3624:3634   */\n      gt\n        /* \"#utility.yul\":3621:3657   */\n      iszero\n      tag_111\n      jumpi\n        /* \"#utility.yul\":3637:3655   */\n      tag_112\n      tag_61\n      jump\t// in\n    tag_112:\n        /* \"#utility.yul\":3621:3657   */\n    tag_111:\n        /* \"#utility.yul\":3473:3664   */\n      swap3\n      swap2\n      pop\n      pop\n      jump\t// out\n        /* \"#utility.yul\":3670:3846   */\n    tag_65:\n        /* \"#utility.yul\":3810:3838   */\n      0x4d6f64756c6f206279207a65726f206e6f7420616c6c6f776564000000000000\n        /* \"#utility.yul\":3806:3807   */\n      0x00\n        /* \"#utility.yul\":3798:3804   */\n      dup3\n        /* \"#utility.yul\":3794:3808   */\n      add\n        /* \"#utility.yul\":3787:3839   */\n      mstore\n        /* \"#utility.yul\":3670:3846   */\n      pop\n      jump\t// out\n        /* \"#utility.yul\":3852:4218   */\n    tag_66:\n        /* \"#utility.yul\":3994:3997   */\n      0x00\n        /* \"#utility.yul\":4015:4082   */\n      tag_115\n        /* \"#utility.yul\":4079:4081   */\n      0x1a\n        /* \"#utility.yul\":4074:4077   */\n      dup4\n        /* \"#utility.yul\":4015:4082   */\n      tag_62\n      jump\t// in\n    tag_115:\n        /* \"#utility.yul\":4008:4082   */\n      swap2\n      pop\n        /* \"#utility.yul\":4091:4184   */\n      tag_116\n        /* \"#utility.yul\":4180:4183   */\n      dup3\n        /* \"#utility.yul\":4091:4184   */\n      tag_65\n      jump\t// in\n    tag_116:\n        /* \"#utility.yul\":4209:4211   */\n      0x20\n        /* \"#utility.yul\":4204:4207   */\n      dup3\n        /* \"#utility.yul\":4200:4212   */\n      add\n        /* \"#utility.yul\":4193:4212   */\n      swap1\n      pop\n        /* \"#utility.yul\":3852:4218   */\n      swap2\n      swap1\n      pop\n      jump\t// out\n        /* \"#utility.yul\":4224:4643   */\n    tag_45:\n        /* \"#utility.yul\":4390:4394   */\n      0x00\n        /* \"#utility.yul\":4428:4430   */\n      0x20\n        /* \"#utility.yul\":4417:4426   */\n      dup3\n        /* \"#utility.yul\":4413:4431   */\n      add\n        /* \"#utility.yul\":4405:4431   */\n      swap1\n      pop\n        /* \"#utility.yul\":4477:4486   */\n      dup2\n        /* \"#utility.yul\":4471:4475   */\n      dup2\n        /* \"#utility.yul\":4467:4487   */\n      sub\n        /* \"#utility.yul\":4463:4464   */\n      0x00\n        /* \"#utility.yul\":4452:4461   */\n      dup4\n        /* \"#utility.yul\":4448:4465   */\n      add\n        /* \"#utility.yul\":4441:4488   */\n      mstore\n        /* \"#utility.yul\":4505:4636   */\n      tag_118\n        /* \"#utility.yul\":4631:4635   */\n      dup2\n        /* \"#utility.yul\":4505:4636   */\n      tag_66\n      jump\t// in\n    tag_118:\n        /* \"#utility.yul\":4497:4636   */\n      swap1\n      pop\n        /* \"#utility.yul\":4224:4643   */\n      swap2\n      swap1\n      pop\n      jump\t// out\n        /* \"#utility.yul\":4649:4829   */\n    tag_67:\n        /* \"#utility.yul\":4697:4774   */\n      0x4e487b7100000000000000000000000000000000000000000000000000000000\n        /* \"#utility.yul\":4694:4695   */\n      0x00\n        /* \"#utility.yul\":4687:4775   */\n      mstore\n        /* \"#utility.yul\":4794:4798   */\n      0x12\n        /* \"#utility.yul\":4791:4792   */\n      0x04\n        /* \"#utility.yul\":4784:4799   */\n      mstore\n        /* \"#utility.yul\":4818:4822   */\n      0x24\n        /* \"#utility.yul\":4815:4816   */\n      0x00\n        /* \"#utility.yul\":4808:4823   */\n      revert\n        /* \"#utility.yul\":4835:5011   */\n    tag_47:\n        /* \"#utility.yul\":4867:4868   */\n      0x00\n        /* \"#utility.yul\":4884:4904   */\n      tag_121\n        /* \"#utility.yul\":4902:4903   */\n      dup3\n        /* \"#utility.yul\":4884:4904   */\n      tag_57\n      jump\t// in\n    tag_121:\n        /* \"#utility.yul\":4879:4904   */\n      swap2\n      pop\n        /* \"#utility.yul\":4918:4938   */\n      tag_122\n        /* \"#utility.yul\":4936:4937   */\n      dup4\n        /* \"#utility.yul\":4918:4938   */\n      tag_57\n      jump\t// in\n    tag_122:\n        /* \"#utility.yul\":4913:4938   */\n      swap3\n      pop\n        /* \"#utility.yul\":4957:4958   */\n      dup3\n        /* \"#utility.yul\":4947:4982   */\n      tag_123\n      jumpi\n        /* \"#utility.yul\":4962:4980   */\n      tag_124\n      tag_67\n      jump\t// in\n    tag_124:\n        /* \"#utility.yul\":4947:4982   */\n    tag_123:\n        /* \"#utility.yul\":5003:5004   */\n      dup3\n        /* \"#utility.yul\":5000:5001   */\n      dup3\n        /* \"#utility.yul\":4996:5005   */\n      mod\n        /* \"#utility.yul\":4991:5005   */\n      swap1\n      pop\n        /* \"#utility.yul\":4835:5011   */\n      swap3\n      swap2\n      pop\n      pop\n      jump\t// out\n        /* \"#utility.yul\":5017:5195   */\n    tag_68:\n        /* \"#utility.yul\":5157:5187   */\n      0x4469766973696f6e206279207a65726f206e6f7420616c6c6f77656400000000\n        /* \"#utility.yul\":5153:5154   */\n      0x00\n        /* \"#utility.yul\":5145:5151   */\n      dup3\n        /* \"#utility.yul\":5141:5155   */\n      add\n        /* \"#utility.yul\":5134:5188   */\n      mstore\n        /* \"#utility.yul\":5017:5195   */\n      pop\n      jump\t// out\n        /* \"#utility.yul\":5201:5567   */\n    tag_69:\n        /* \"#utility.yul\":5343:5346   */\n      0x00\n        /* \"#utility.yul\":5364:5431   */\n      tag_127\n        /* \"#utility.yul\":5428:5430   */\n      0x1c\n        /* \"#utility.yul\":5423:5426   */\n      dup4\n        /* \"#utility.yul\":5364:5431   */\n      tag_62\n      jump\t// in\n    tag_127:\n        /* \"#utility.yul\":5357:5431   */\n      swap2\n      pop\n        /* \"#utility.yul\":5440:5533   */\n      tag_128\n        /* \"#utility.yul\":5529:5532   */\n      dup3\n        /* \"#utility.yul\":5440:5533   */\n      tag_68\n      jump\t// in\n    tag_128:\n        /* \"#utility.yul\":5558:5560   */\n      0x20\n        /* \"#utility.yul\":5553:5556   */\n      dup3\n        /* \"#utility.yul\":5549:5561   */\n      add\n        /* \"#utility.yul\":5542:5561   */\n      swap1\n      pop\n        /* \"#utility.yul\":5201:5567   */\n      swap2\n      swap1\n      pop\n      jump\t// out\n        /* \"#utility.yul\":5573:5992   */\n    tag_51:\n        /* \"#utility.yul\":5739:5743   */\n      0x00\n        /* \"#utility.yul\":5777:5779   */\n      0x20\n        /* \"#utility.yul\":5766:5775   */\n      dup3\n        /* \"#utility.yul\":5762:5780   */\n      add\n        /* \"#utility.yul\":5754:5780   */\n      swap1\n      pop\n        /* \"#utility.yul\":5826:5835   */\n      dup2\n        /* \"#utility.yul\":5820:5824   */\n      dup2\n        /* \"#utility.yul\":5816:5836   */\n      sub\n        /* \"#utility.yul\":5812:5813   */\n      0x00\n        /* \"#utility.yul\":5801:5810   */\n      dup4\n        /* \"#utility.yul\":5797:5814   */\n      add\n        /* \"#utility.yul\":5790:5837   */\n      mstore\n        /* \"#utility.yul\":5854:5985   */\n      tag_130\n        /* \"#utility.yul\":5980:5984   */\n      dup2\n        /* \"#utility.yul\":5854:5985   */\n      tag_69\n      jump\t// in\n    tag_130:\n        /* \"#utility.yul\":5846:5985   */\n      swap1\n      pop\n        /* \"#utility.yul\":5573:5992   */\n      swap2\n      swap1\n      pop\n      jump\t// out\n        /* \"#utility.yul\":5998:6183   */\n    tag_53:\n        /* \"#utility.yul\":6038:6039   */\n      0x00\n        /* \"#utility.yul\":6055:6075   */\n      tag_132\n        /* \"#utility.yul\":6073:6074   */\n      dup3\n        /* \"#utility.yul\":6055:6075   */\n      tag_57\n      jump\t// in\n    tag_132:\n        /* \"#utility.yul\":6050:6075   */\n      swap2\n      pop\n        /* \"#utility.yul\":6089:6109   */\n      tag_133\n        /* \"#utility.yul\":6107:6108   */\n      dup4\n        /* \"#utility.yul\":6089:6109   */\n      tag_57\n      jump\t// in\n    tag_133:\n        /* \"#utility.yul\":6084:6109   */\n      swap3\n      pop\n        /* \"#utility.yul\":6128:6129   */\n      dup3\n        /* \"#utility.yul\":6118:6153   */\n      tag_134\n      jumpi\n        /* \"#utility.yul\":6133:6151   */\n      tag_135\n      tag_67\n      jump\t// in\n    tag_135:\n        /* \"#utility.yul\":6118:6153   */\n    tag_134:\n        /* \"#utility.yul\":6175:6176   */\n      dup3\n        /* \"#utility.yul\":6172:6173   */\n      dup3\n        /* \"#utility.yul\":6168:6177   */\n      div\n        /* \"#utility.yul\":6163:6177   */\n      swap1\n      pop\n        /* \"#utility.yul\":5998:6183   */\n      swap3\n      swap2\n      pop\n      pop\n      jump\t// out\n\n    auxdata: 0xa2646970667358221220e12aebccb5233b978f1128ed49057e43d3283c24c4e7257d0f864bb0d736d98564736f6c634300081f0033\n}\n",
				"bytecode": {
					"linkReferences": {},
					"object": "6080604052348015600e575f5ffd5b506105f58061001c5f395ff3fe608060405234801561000f575f5ffd5b5060043610610055575f3560e01c8063165c4a16146100595780633ef5e44514610089578063771602f7146100b9578063ce406417146100e9578063f88e9fbf14610119575b5f5ffd5b610073600480360381019061006e91906102b0565b610149565b60405161008091906102fd565b60405180910390f35b6100a3600480360381019061009e91906102b0565b61015e565b6040516100b091906102fd565b60405180910390f35b6100d360048036038101906100ce91906102b0565b6101b6565b6040516100e091906102fd565b60405180910390f35b61010360048036038101906100fe91906102b0565b6101cb565b60405161011091906102fd565b60405180910390f35b610133600480360381019061012e91906102b0565b610222565b60405161014091906102fd565b60405180910390f35b5f81836101569190610343565b905092915050565b5f828211156101a2576040517f08c379a0000000000000000000000000000000000000000000000000000000008152600401610199906103de565b60405180910390fd5b81836101ae91906103fc565b905092915050565b5f81836101c3919061042f565b905092915050565b5f5f820361020e576040517f08c379a0000000000000000000000000000000000000000000000000000000008152600401610205906104ac565b60405180910390fd5b818361021a91906104f7565b905092915050565b5f5f8203610265576040517f08c379a000000000000000000000000000000000000000000000000000000000815260040161025c90610571565b60405180910390fd5b8183610271919061058f565b905092915050565b5f5ffd5b5f819050919050565b61028f8161027d565b8114610299575f5ffd5b50565b5f813590506102aa81610286565b92915050565b5f5f604083850312156102c6576102c5610279565b5b5f6102d38582860161029c565b92505060206102e48582860161029c565b9150509250929050565b6102f78161027d565b82525050565b5f6020820190506103105f8301846102ee565b92915050565b7f4e487b71000000000000000000000000000000000000000000000000000000005f52601160045260245ffd5b5f61034d8261027d565b91506103588361027d565b92508282026103668161027d565b9150828204841483151761037d5761037c610316565b5b5092915050565b5f82825260208201905092915050565b7f5375627472616374696f6e20756e646572666c6f7700000000000000000000005f82015250565b5f6103c8601583610384565b91506103d382610394565b602082019050919050565b5f6020820190508181035f8301526103f5816103bc565b9050919050565b5f6104068261027d565b91506104118361027d565b925082820390508181111561042957610428610316565b5b92915050565b5f6104398261027d565b91506104448361027d565b925082820190508082111561045c5761045b610316565b5b92915050565b7f4d6f64756c6f206279207a65726f206e6f7420616c6c6f7765640000000000005f82015250565b5f610496601a83610384565b91506104a182610462565b602082019050919050565b5f6020820190508181035f8301526104c38161048a565b9050919050565b7f4e487b71000000000000000000000000000000000000000000000000000000005f52601260045260245ffd5b5f6105018261027d565b915061050c8361027d565b92508261051c5761051b6104ca565b5b828206905092915050565b7f4469766973696f6e206279207a65726f206e6f7420616c6c6f776564000000005f82015250565b5f61055b601c83610384565b915061056682610527565b602082019050919050565b5f6020820190508181035f8301526105888161054f565b9050919050565b5f6105998261027d565b91506105a48361027d565b9250826105b4576105b36104ca565b5b82820490509291505056fea2646970667358221220e12aebccb5233b978f1128ed49057e43d3283c24c4e7257d0f864bb0d736d98564736f6c634300081f0033",
					"opcodes": "PUSH1 0x80 PUSH1 0x40 MSTORE CALLVALUE DUP1 ISZERO PUSH1 0xE JUMPI PUSH0 PUSH0 REVERT JUMPDEST POP PUSH2 0x5F5 DUP1 PUSH2 0x1C PUSH0 CODECOPY PUSH0 RETURN INVALID PUSH1 0x80 PUSH1 0x40 MSTORE CALLVALUE DUP1 ISZERO PUSH2 0xF JUMPI PUSH0 PUSH0 REVERT JUMPDEST POP PUSH1 0x4 CALLDATASIZE LT PUSH2 0x55 JUMPI PUSH0 CALLDATALOAD PUSH1 0xE0 SHR DUP1 PUSH4 0x165C4A16 EQ PUSH2 0x59 JUMPI DUP1 PUSH4 0x3EF5E445 EQ PUSH2 0x89 JUMPI DUP1 PUSH4 0x771602F7 EQ PUSH2 0xB9 JUMPI DUP1 PUSH4 0xCE406417 EQ PUSH2 0xE9 JUMPI DUP1 PUSH4 0xF88E9FBF EQ PUSH2 0x119 JUMPI JUMPDEST PUSH0 PUSH0 REVERT JUMPDEST PUSH2 0x73 PUSH1 0x4 DUP1 CALLDATASIZE SUB DUP2 ADD SWAP1 PUSH2 0x6E SWAP2 SWAP1 PUSH2 0x2B0 JUMP JUMPDEST PUSH2 0x149 JUMP JUMPDEST PUSH1 0x40 MLOAD PUSH2 0x80 SWAP2 SWAP1 PUSH2 0x2FD JUMP JUMPDEST PUSH1 0x40 MLOAD DUP1 SWAP2 SUB SWAP1 RETURN JUMPDEST PUSH2 0xA3 PUSH1 0x4 DUP1 CALLDATASIZE SUB DUP2 ADD SWAP1 PUSH2 0x9E SWAP2 SWAP1 PUSH2 0x2B0 JUMP JUMPDEST PUSH2 0x15E JUMP JUMPDEST PUSH1 0x40 MLOAD PUSH2 0xB0 SWAP2 SWAP1 PUSH2 0x2FD JUMP JUMPDEST PUSH1 0x40 MLOAD DUP1 SWAP2 SUB SWAP1 RETURN JUMPDEST PUSH2 0xD3 PUSH1 0x4 DUP1 CALLDATASIZE SUB DUP2 ADD SWAP1 PUSH2 0xCE SWAP2 SWAP1 PUSH2 0x2B0 JUMP JUMPDEST PUSH2 0x1B6 JUMP JUMPDEST PUSH1 0x40 MLOAD PUSH2 0xE0 SWAP2 SWAP1 PUSH2 0x2FD JUMP JUMPDEST PUSH1 0x40 MLOAD DUP1 SWAP2 SUB SWAP1 RETURN JUMPDEST PUSH2 0x103 PUSH1 0x4 DUP1 CALLDATASIZE SUB DUP2 ADD SWAP1 PUSH2 0xFE SWAP2 SWAP1 PUSH2 0x2B0 JUMP JUMPDEST PUSH2 0x1CB JUMP JUMPDEST PUSH1 0x40 MLOAD PUSH2 0x110 SWAP2 SWAP1 PUSH2 0x2FD JUMP JUMPDEST PUSH1 0x40 MLOAD DUP1 SWAP2 SUB SWAP1 RETURN JUMPDEST PUSH2 0x133 PUSH1 0x4 DUP1 CALLDATASIZE SUB DUP2 ADD SWAP1 PUSH2 0x12E SWAP2 SWAP1 PUSH2 0x2B0 JUMP JUMPDEST PUSH2 0x222 JUMP JUMPDEST PUSH1 0x40 MLOAD PUSH2 0x140 SWAP2 SWAP1 PUSH2 0x2FD JUMP JUMPDEST PUSH1 0x40 MLOAD DUP1 SWAP2 SUB SWAP1 RETURN JUMPDEST PUSH0 DUP2 DUP4 PUSH2 0x156 SWAP2 SWAP1 PUSH2 0x343 JUMP JUMPDEST SWAP1 POP SWAP3 SWAP2 POP POP JUMP JUMPDEST PUSH0 DUP3 DUP3 GT ISZERO PUSH2 0x1A2 JUMPI PUSH1 0x40 MLOAD PUSH32 0x8C379A000000000000000000000000000000000000000000000000000000000 DUP2 MSTORE PUSH1 0x4 ADD PUSH2 0x199 SWAP1 PUSH2 0x3DE JUMP JUMPDEST PUSH1 0x40 MLOAD DUP1 SWAP2 SUB SWAP1 REVERT JUMPDEST DUP2 DUP4 PUSH2 0x1AE SWAP2 SWAP1 PUSH2 0x3FC JUMP JUMPDEST SWAP1 POP SWAP3 SWAP2 POP POP JUMP JUMPDEST PUSH0 DUP2 DUP4 PUSH2 0x1C3 SWAP2 SWAP1 PUSH2 0x42F JUMP JUMPDEST SWAP1 POP SWAP3 SWAP2 POP POP JUMP JUMPDEST PUSH0 PUSH0 DUP3 SUB PUSH2 0x20E JUMPI PUSH1 0x40 MLOAD PUSH32 0x8C379A000000000000000000000000000000000000000000000000000000000 DUP2 MSTORE PUSH1 0x4 ADD PUSH2 0x205 SWAP1 PUSH2 0x4AC JUMP JUMPDEST PUSH1 0x40 MLOAD DUP1 SWAP2 SUB SWAP1 REVERT JUMPDEST DUP2 DUP4 PUSH2 0x21A SWAP2 SWAP1 PUSH2 0x4F7 JUMP JUMPDEST SWAP1 POP SWAP3 SWAP2 POP POP JUMP JUMPDEST PUSH0 PUSH0 DUP3 SUB PUSH2 0x265 JUMPI PUSH1 0x40 MLOAD PUSH32 0x8C379A000000000000000000000000000000000000000000000000000000000 DUP2 MSTORE PUSH1 0x4 ADD PUSH2 0x25C SWAP1 PUSH2 0x571 JUMP JUMPDEST PUSH1 0x40 MLOAD DUP1 SWAP2 SUB SWAP1 REVERT JUMPDEST DUP2 DUP4 PUSH2 0x271 SWAP2 SWAP1 PUSH2 0x58F JUMP JUMPDEST SWAP1 POP SWAP3 SWAP2 POP POP JUMP JUMPDEST PUSH0 PUSH0 REVERT JUMPDEST PUSH0 DUP2 SWAP1 POP SWAP2 SWAP1 POP JUMP JUMPDEST PUSH2 0x28F DUP2 PUSH2 0x27D JUMP JUMPDEST DUP2 EQ PUSH2 0x299 JUMPI PUSH0 PUSH0 REVERT JUMPDEST POP JUMP JUMPDEST PUSH0 DUP2 CALLDATALOAD SWAP1 POP PUSH2 0x2AA DUP2 PUSH2 0x286 JUMP JUMPDEST SWAP3 SWAP2 POP POP JUMP JUMPDEST PUSH0 PUSH0 PUSH1 0x40 DUP4 DUP6 SUB SLT ISZERO PUSH2 0x2C6 JUMPI PUSH2 0x2C5 PUSH2 0x279 JUMP JUMPDEST JUMPDEST PUSH0 PUSH2 0x2D3 DUP6 DUP3 DUP7 ADD PUSH2 0x29C JUMP JUMPDEST SWAP3 POP POP PUSH1 0x20 PUSH2 0x2E4 DUP6 DUP3 DUP7 ADD PUSH2 0x29C JUMP JUMPDEST SWAP2 POP POP SWAP3 POP SWAP3 SWAP1 POP JUMP JUMPDEST PUSH2 0x2F7 DUP2 PUSH2 0x27D JUMP JUMPDEST DUP3 MSTORE POP POP JUMP JUMPDEST PUSH0 PUSH1 0x20 DUP3 ADD SWAP1 POP PUSH2 0x310 PUSH0 DUP4 ADD DUP5 PUSH2 0x2EE JUMP JUMPDEST SWAP3 SWAP2 POP POP JUMP JUMPDEST PUSH32 0x4E487B7100000000000000000000000000000000000000000000000000000000 PUSH0 MSTORE PUSH1 0x11 PUSH1 0x4 MSTORE PUSH1 0x24 PUSH0 REVERT JUMPDEST PUSH0 PUSH2 0x34D DUP3 PUSH2 0x27D JUMP JUMPDEST SWAP2 POP PUSH2 0x358 DUP4 PUSH2 0x27D JUMP JUMPDEST SWAP3 POP DUP3 DUP3 MUL PUSH2 0x366 DUP2 PUSH2 0x27D JUMP JUMPDEST SWAP2 POP DUP3 DUP3 DIV DUP5 EQ DUP4 ISZERO OR PUSH2 0x37D JUMPI PUSH2 0x37C PUSH2 0x316 JUMP JUMPDEST JUMPDEST POP SWAP3 SWAP2 POP POP JUMP JUMPDEST PUSH0 DUP3 DUP3 MSTORE PUSH1 0x20 DUP3 ADD SWAP1 POP SWAP3 SWAP2 POP POP JUMP JUMPDEST PUSH32 0x5375627472616374696F6E20756E646572666C6F770000000000000000000000 PUSH0 DUP3 ADD MSTORE POP JUMP JUMPDEST PUSH0 PUSH2 0x3C8 PUSH1 0x15 DUP4 PUSH2 0x384 JUMP JUMPDEST SWAP2 POP PUSH2 0x3D3 DUP3 PUSH2 0x394 JUMP JUMPDEST PUSH1 0x20 DUP3 ADD SWAP1 POP SWAP2 SWAP1 POP JUMP JUMPDEST PUSH0 PUSH1 0x20 DUP3 ADD SWAP1 POP DUP2 DUP2 SUB PUSH0 DUP4 ADD MSTORE PUSH2 0x3F5 DUP2 PUSH2 0x3BC JUMP JUMPDEST SWAP1 POP SWAP2 SWAP1 POP JUMP JUMPDEST PUSH0 PUSH2 0x406 DUP3 PUSH2 0x27D JUMP JUMPDEST SWAP2 POP PUSH2 0x411 DUP4 PUSH2 0x27D JUMP JUMPDEST SWAP3 POP DUP3 DUP3 SUB SWAP1 POP DUP2 DUP2 GT ISZERO PUSH2 0x429 JUMPI PUSH2 0x428 PUSH2 0x316 JUMP JUMPDEST JUMPDEST SWAP3 SWAP2 POP POP JUMP JUMPDEST PUSH0 PUSH2 0x439 DUP3 PUSH2 0x27D JUMP JUMPDEST SWAP2 POP PUSH2 0x444 DUP4 PUSH2 0x27D JUMP JUMPDEST SWAP3 POP DUP3 DUP3 ADD SWAP1 POP DUP1 DUP3 GT ISZERO PUSH2 0x45C JUMPI PUSH2 0x45B PUSH2 0x316 JUMP JUMPDEST JUMPDEST SWAP3 SWAP2 POP POP JUMP JUMPDEST PUSH32 0x4D6F64756C6F206279207A65726F206E6F7420616C6C6F776564000000000000 PUSH0 DUP3 ADD MSTORE POP JUMP JUMPDEST PUSH0 PUSH2 0x496 PUSH1 0x1A DUP4 PUSH2 0x384 JUMP JUMPDEST SWAP2 POP PUSH2 0x4A1 DUP3 PUSH2 0x462 JUMP JUMPDEST PUSH1 0x20 DUP3 ADD SWAP1 POP SWAP2 SWAP1 POP JUMP JUMPDEST PUSH0 PUSH1 0x20 DUP3 ADD SWAP1 POP DUP2 DUP2 SUB PUSH0 DUP4 ADD MSTORE PUSH2 0x4C3 DUP2 PUSH2 0x48A JUMP JUMPDEST SWAP1 POP SWAP2 SWAP1 POP JUMP JUMPDEST PUSH32 0x4E487B7100000000000000000000000000000000000000000000000000000000 PUSH0 MSTORE PUSH1 0x12 PUSH1 0x4 MSTORE PUSH1 0x24 PUSH0 REVERT JUMPDEST PUSH0 PUSH2 0x501 DUP3 PUSH2 0x27D JUMP JUMPDEST SWAP2 POP PUSH2 0x50C DUP4 PUSH2 0x27D JUMP JUMPDEST SWAP3 POP DUP3 PUSH2 0x51C JUMPI PUSH2 0x51B PUSH2 0x4CA JUMP JUMPDEST JUMPDEST DUP3 DUP3 MOD SWAP1 POP SWAP3 SWAP2 POP POP JUMP JUMPDEST PUSH32 0x4469766973696F6E206279207A65726F206E6F7420616C6C6F77656400000000 PUSH0 DUP3 ADD MSTORE POP JUMP JUMPDEST PUSH0 PUSH2 0x55B PUSH1 0x1C DUP4 PUSH2 0x384 JUMP JUMPDEST SWAP2 POP PUSH2 0x566 DUP3 PUSH2 0x527 JUMP JUMPDEST PUSH1 0x20 DUP3 ADD SWAP1 POP SWAP2 SWAP1 POP JUMP JUMPDEST PUSH0 PUSH1 0x20 DUP3 ADD SWAP1 POP DUP2 DUP2 SUB PUSH0 DUP4 ADD MSTORE PUSH2 0x588 DUP2 PUSH2 0x54F JUMP JUMPDEST SWAP1 POP SWAP2 SWAP1 POP JUMP JUMPDEST PUSH0 PUSH2 0x599 DUP3 PUSH2 0x27D JUMP JUMPDEST SWAP2 POP PUSH2 0x5A4 DUP4 PUSH2 0x27D JUMP JUMPDEST SWAP3 POP DUP3 PUSH2 0x5B4 JUMPI PUSH2 0x5B3 PUSH2 0x4CA JUMP JUMPDEST JUMPDEST DUP3 DUP3 DIV SWAP1 POP SWAP3 SWAP2 POP POP JUMP INVALID LOG2 PUSH5 0x6970667358 0x22 SLT KECCAK256 RJUMPI 0x2AEB 0xCC 0xB5 0x23 EXTCODESIZE SWAP8 DUP16 GT 0x28 0xED BLOBHASH SDIV PUSH31 0x43D3283C24C4E7257D0F864BB0D736D98564736F6C634300081F0033000000 "
				},
				"gasEstimates": {
					"creation": {
						"codeDepositCost": "305000",
						"executionCost": "341",
						"totalCost": "305341"
					},
					"external": {
						"add(uint256,uint256)": "infinite",
						"divide(uint256,uint256)": "infinite",
						"modulus(uint256,uint256)": "infinite",
						"multiply(uint256,uint256)": "infinite",
						"subtract(uint256,uint256)": "infinite"
					}
				},
				"methodIdentifiers": {
					"add(uint256,uint256)": "771602f7",
					"divide(uint256,uint256)": "f88e9fbf",
					"modulus(uint256,uint256)": "ce406417",
					"multiply(uint256,uint256)": "165c4a16",
					"subtract(uint256,uint256)": "3ef5e445"
				}
			},
			"storageLayout": {
				"storage": [],
				"types": null
			},
			"userdoc": {
				"kind": "user",
				"methods": {},
				"version": 1
			}
		}
	}
}