{
	"Atm.sol": {
		"userbank": {
			"abi": [
				{
					"inputs": [
						{
							"internalType": "uint256",
							"name": "amount",
							"type": "uint256"
						}
					],
					"name": "deposit",
					"outputs": [],
					"stateMutability": "nonpayable",
					"type": "function"
				},
				{
					"inputs": [],
					"name": "get_balance",
					"outputs": [
						{
							"internalType": "uint256",
							"name": "",
							"type": "uint256"
						}
					],
					"stateMutability": "view",
					"type": "function"
				},
				{
					"inputs": [
						{
							"internalType": "uint256",
							"name": "_amount",
							"type": "uint256"
						}
					],
					"name": "withdraw_cash",
					"outputs": [],
					"stateMutability": "nonpayable",
					"type": "function"
				}
			],
			"devdoc": {
				"kind": "dev",
				"methods": {},
				"version": 1
			},
			"evm": {
				"assembly": "    /* \"Atm.sol\":60:541  contract userbank{... */\n  mstore(0x40, 0x80)\n  callvalue\n  dup1\n  iszero\n  tag_1\n  jumpi\n  revert(0x00, 0x00)\ntag_1:\n  pop\n  dataSize(sub_0)\n  dup1\n  dataOffset(sub_0)\n  0x00\n  codecopy\n  0x00\n  return\nstop\n\nsub_0: assembly {\n        /* \"Atm.sol\":60:541  contract userbank{... */\n      mstore(0x40, 0x80)\n      callvalue\n      dup1\n      iszero\n      tag_1\n      jumpi\n      revert(0x00, 0x00)\n    tag_1:\n      pop\n      jumpi(tag_2, lt(calldatasize, 0x04))\n      shr(0xe0, calldataload(0x00))\n      dup1\n      0xb6b55f25\n      eq\n      tag_3\n      jumpi\n      dup1\n      0xb9c18f1c\n      eq\n      tag_4\n      jumpi\n      dup1\n      0xc1cfb99a\n      eq\n      tag_5\n      jumpi\n    tag_2:\n      revert(0x00, 0x00)\n        /* \"Atm.sol\":132:268  function deposit (uint amount) public {... */\n    tag_3:\n      tag_6\n      0x04\n      dup1\n      calldatasize\n      sub\n      dup2\n      add\n      swap1\n      tag_7\n      swap2\n      swap1\n      tag_8\n      jump\t// in\n    tag_7:\n      tag_9\n      jump\t// in\n    tag_6:\n      stop\n        /* \"Atm.sol\":276:439  function withdraw_cash (uint _amount) public {... */\n    tag_4:\n      tag_10\n      0x04\n      dup1\n      calldatasize\n      sub\n      dup2\n      add\n      swap1\n      tag_11\n      swap2\n      swap1\n      tag_8\n      jump\t// in\n    tag_11:\n      tag_12\n      jump\t// in\n    tag_10:\n      stop\n        /* \"Atm.sol\":451:538  function get_balance() public view returns (uint){... */\n    tag_5:\n      tag_13\n      tag_14\n      jump\t// in\n    tag_13:\n      mload(0x40)\n      tag_15\n      swap2\n      swap1\n      tag_16\n      jump\t// in\n    tag_15:\n      mload(0x40)\n      dup1\n      swap2\n      sub\n      swap1\n      return\n        /* \"Atm.sol\":132:268  function deposit (uint amount) public {... */\n    tag_9:\n        /* \"Atm.sol\":198:201  100 */\n      0x64\n        /* \"Atm.sol\":189:195  amount */\n      dup2\n        /* \"Atm.sol\":189:201  amount > 100 */\n      gt\n        /* \"Atm.sol\":181:227  require(amount > 100,\"add above than INR 100\") */\n      tag_18\n      jumpi\n      mload(0x40)\n      0x08c379a000000000000000000000000000000000000000000000000000000000\n      dup2\n      mstore\n      0x04\n      add\n      tag_19\n      swap1\n      tag_20\n      jump\t// in\n    tag_19:\n      mload(0x40)\n      dup1\n      swap2\n      sub\n      swap1\n      revert\n    tag_18:\n        /* \"Atm.sol\":254:260  amount */\n      dup1\n        /* \"Atm.sol\":238:250  totalbalance */\n      0x01\n      0x00\n        /* \"Atm.sol\":238:260  totalbalance += amount */\n      dup3\n      dup3\n      sload\n      tag_21\n      swap2\n      swap1\n      tag_22\n      jump\t// in\n    tag_21:\n      swap3\n      pop\n      pop\n      dup2\n      swap1\n      sstore\n      pop\n        /* \"Atm.sol\":132:268  function deposit (uint amount) public {... */\n      pop\n      jump\t// out\n        /* \"Atm.sol\":276:439  function withdraw_cash (uint _amount) public {... */\n    tag_12:\n        /* \"Atm.sol\":347:354  _amount */\n      dup1\n        /* \"Atm.sol\":340:343  100 */\n      0x64\n        /* \"Atm.sol\":340:354  100 <= _amount */\n      gt\n      iszero\n        /* \"Atm.sol\":332:397  require(100 <= _amount, \"Minimum Withdrawal Should be above 100\") */\n      tag_24\n      jumpi\n      mload(0x40)\n      0x08c379a000000000000000000000000000000000000000000000000000000000\n      dup2\n      mstore\n      0x04\n      add\n      tag_25\n      swap1\n      tag_26\n      jump\t// in\n    tag_25:\n      mload(0x40)\n      dup1\n      swap2\n      sub\n      swap1\n      revert\n    tag_24:\n        /* \"Atm.sol\":424:431  _amount */\n      dup1\n        /* \"Atm.sol\":408:420  totalbalance */\n      0x01\n      0x00\n        /* \"Atm.sol\":408:431  totalbalance -= _amount */\n      dup3\n      dup3\n      sload\n      tag_27\n      swap2\n      swap1\n      tag_28\n      jump\t// in\n    tag_27:\n      swap3\n      pop\n      pop\n      dup2\n      swap1\n      sstore\n      pop\n        /* \"Atm.sol\":276:439  function withdraw_cash (uint _amount) public {... */\n      pop\n      jump\t// out\n        /* \"Atm.sol\":451:538  function get_balance() public view returns (uint){... */\n    tag_14:\n        /* \"Atm.sol\":495:499  uint */\n      0x00\n        /* \"Atm.sol\":518:530  totalbalance */\n      sload(0x01)\n        /* \"Atm.sol\":511:530  return totalbalance */\n      swap1\n      pop\n        /* \"Atm.sol\":451:538  function get_balance() public view returns (uint){... */\n      swap1\n      jump\t// out\n        /* \"#utility.yul\":88:205   */\n    tag_31:\n        /* \"#utility.yul\":197:198   */\n      0x00\n        /* \"#utility.yul\":194:195   */\n      0x00\n        /* \"#utility.yul\":187:199   */\n      revert\n        /* \"#utility.yul\":334:411   */\n    tag_33:\n        /* \"#utility.yul\":371:378   */\n      0x00\n        /* \"#utility.yul\":400:405   */\n      dup2\n        /* \"#utility.yul\":389:405   */\n      swap1\n      pop\n        /* \"#utility.yul\":334:411   */\n      swap2\n      swap1\n      pop\n      jump\t// out\n        /* \"#utility.yul\":417:539   */\n    tag_34:\n        /* \"#utility.yul\":490:514   */\n      tag_49\n        /* \"#utility.yul\":508:513   */\n      dup2\n        /* \"#utility.yul\":490:514   */\n      tag_33\n      jump\t// in\n    tag_49:\n        /* \"#utility.yul\":483:488   */\n      dup2\n        /* \"#utility.yul\":480:515   */\n      eq\n        /* \"#utility.yul\":470:533   */\n      tag_50\n      jumpi\n        /* \"#utility.yul\":529:530   */\n      0x00\n        /* \"#utility.yul\":526:527   */\n      0x00\n        /* \"#utility.yul\":519:531   */\n      revert\n        /* \"#utility.yul\":470:533   */\n    tag_50:\n        /* \"#utility.yul\":417:539   */\n      pop\n      jump\t// out\n        /* \"#utility.yul\":545:684   */\n    tag_35:\n        /* \"#utility.yul\":591:596   */\n      0x00\n        /* \"#utility.yul\":629:635   */\n      dup2\n        /* \"#utility.yul\":616:636   */\n      calldataload\n        /* \"#utility.yul\":607:636   */\n      swap1\n      pop\n        /* \"#utility.yul\":645:678   */\n      tag_52\n        /* \"#utility.yul\":672:677   */\n      dup2\n        /* \"#utility.yul\":645:678   */\n      tag_34\n      jump\t// in\n    tag_52:\n        /* \"#utility.yul\":545:684   */\n      swap3\n      swap2\n      pop\n      pop\n      jump\t// out\n        /* \"#utility.yul\":690:1019   */\n    tag_8:\n        /* \"#utility.yul\":749:755   */\n      0x00\n        /* \"#utility.yul\":798:800   */\n      0x20\n        /* \"#utility.yul\":786:795   */\n      dup3\n        /* \"#utility.yul\":777:784   */\n      dup5\n        /* \"#utility.yul\":773:796   */\n      sub\n        /* \"#utility.yul\":769:801   */\n      slt\n        /* \"#utility.yul\":766:885   */\n      iszero\n      tag_54\n      jumpi\n        /* \"#utility.yul\":804:883   */\n      tag_55\n      tag_31\n      jump\t// in\n    tag_55:\n        /* \"#utility.yul\":766:885   */\n    tag_54:\n        /* \"#utility.yul\":924:925   */\n      0x00\n        /* \"#utility.yul\":949:1002   */\n      tag_56\n        /* \"#utility.yul\":994:1001   */\n      dup5\n        /* \"#utility.yul\":985:991   */\n      dup3\n        /* \"#utility.yul\":974:983   */\n      dup6\n        /* \"#utility.yul\":970:992   */\n      add\n        /* \"#utility.yul\":949:1002   */\n      tag_35\n      jump\t// in\n    tag_56:\n        /* \"#utility.yul\":939:1002   */\n      swap2\n      pop\n        /* \"#utility.yul\":895:1012   */\n      pop\n        /* \"#utility.yul\":690:1019   */\n      swap3\n      swap2\n      pop\n      pop\n      jump\t// out\n        /* \"#utility.yul\":1025:1143   */\n    tag_36:\n        /* \"#utility.yul\":1112:1136   */\n      tag_58\n        /* \"#utility.yul\":1130:1135   */\n      dup2\n        /* \"#utility.yul\":1112:1136   */\n      tag_33\n      jump\t// in\n    tag_58:\n        /* \"#utility.yul\":1107:1110   */\n      dup3\n        /* \"#utility.yul\":1100:1137   */\n      mstore\n        /* \"#utility.yul\":1025:1143   */\n      pop\n      pop\n      jump\t// out\n        /* \"#utility.yul\":1149:1371   */\n    tag_16:\n        /* \"#utility.yul\":1242:1246   */\n      0x00\n        /* \"#utility.yul\":1280:1282   */\n      0x20\n        /* \"#utility.yul\":1269:1278   */\n      dup3\n        /* \"#utility.yul\":1265:1283   */\n      add\n        /* \"#utility.yul\":1257:1283   */\n      swap1\n      pop\n        /* \"#utility.yul\":1293:1364   */\n      tag_60\n        /* \"#utility.yul\":1361:1362   */\n      0x00\n        /* \"#utility.yul\":1350:1359   */\n      dup4\n        /* \"#utility.yul\":1346:1363   */\n      add\n        /* \"#utility.yul\":1337:1343   */\n      dup5\n        /* \"#utility.yul\":1293:1364   */\n      tag_36\n      jump\t// in\n    tag_60:\n        /* \"#utility.yul\":1149:1371   */\n      swap3\n      swap2\n      pop\n      pop\n      jump\t// out\n        /* \"#utility.yul\":1377:1546   */\n    tag_37:\n        /* \"#utility.yul\":1461:1472   */\n      0x00\n        /* \"#utility.yul\":1495:1501   */\n      dup3\n        /* \"#utility.yul\":1490:1493   */\n      dup3\n        /* \"#utility.yul\":1483:1502   */\n      mstore\n        /* \"#utility.yul\":1535:1539   */\n      0x20\n        /* \"#utility.yul\":1530:1533   */\n      dup3\n        /* \"#utility.yul\":1526:1540   */\n      add\n        /* \"#utility.yul\":1511:1540   */\n      swap1\n      pop\n        /* \"#utility.yul\":1377:1546   */\n      swap3\n      swap2\n      pop\n      pop\n      jump\t// out\n        /* \"#utility.yul\":1552:1724   */\n    tag_38:\n        /* \"#utility.yul\":1692:1716   */\n      0x6164642061626f7665207468616e20494e522031303000000000000000000000\n        /* \"#utility.yul\":1688:1689   */\n      0x00\n        /* \"#utility.yul\":1680:1686   */\n      dup3\n        /* \"#utility.yul\":1676:1690   */\n      add\n        /* \"#utility.yul\":1669:1717   */\n      mstore\n        /* \"#utility.yul\":1552:1724   */\n      pop\n      jump\t// out\n        /* \"#utility.yul\":1730:2096   */\n    tag_39:\n        /* \"#utility.yul\":1872:1875   */\n      0x00\n        /* \"#utility.yul\":1893:1960   */\n      tag_64\n        /* \"#utility.yul\":1957:1959   */\n      0x16\n        /* \"#utility.yul\":1952:1955   */\n      dup4\n        /* \"#utility.yul\":1893:1960   */\n      tag_37\n      jump\t// in\n    tag_64:\n        /* \"#utility.yul\":1886:1960   */\n      swap2\n      pop\n        /* \"#utility.yul\":1969:2062   */\n      tag_65\n        /* \"#utility.yul\":2058:2061   */\n      dup3\n        /* \"#utility.yul\":1969:2062   */\n      tag_38\n      jump\t// in\n    tag_65:\n        /* \"#utility.yul\":2087:2089   */\n      0x20\n        /* \"#utility.yul\":2082:2085   */\n      dup3\n        /* \"#utility.yul\":2078:2090   */\n      add\n        /* \"#utility.yul\":2071:2090   */\n      swap1\n      pop\n        /* \"#utility.yul\":1730:2096   */\n      swap2\n      swap1\n      pop\n      jump\t// out\n        /* \"#utility.yul\":2102:2521   */\n    tag_20:\n        /* \"#utility.yul\":2268:2272   */\n      0x00\n        /* \"#utility.yul\":2306:2308   */\n      0x20\n        /* \"#utility.yul\":2295:2304   */\n      dup3\n        /* \"#utility.yul\":2291:2309   */\n      add\n        /* \"#utility.yul\":2283:2309   */\n      swap1\n      pop\n        /* \"#utility.yul\":2355:2364   */\n      dup2\n        /* \"#utility.yul\":2349:2353   */\n      dup2\n        /* \"#utility.yul\":2345:2365   */\n      sub\n        /* \"#utility.yul\":2341:2342   */\n      0x00\n        /* \"#utility.yul\":2330:2339   */\n      dup4\n        /* \"#utility.yul\":2326:2343   */\n      add\n        /* \"#utility.yul\":2319:2366   */\n      mstore\n        /* \"#utility.yul\":2383:2514   */\n      tag_67\n        /* \"#utility.yul\":2509:2513   */\n      dup2\n        /* \"#utility.yul\":2383:2514   */\n      tag_39\n      jump\t// in\n    tag_67:\n        /* \"#utility.yul\":2375:2514   */\n      swap1\n      pop\n        /* \"#utility.yul\":2102:2521   */\n      swap2\n      swap1\n      pop\n      jump\t// out\n        /* \"#utility.yul\":2527:2707   */\n    tag_40:\n        /* \"#utility.yul\":2575:2652   */\n      0x4e487b7100000000000000000000000000000000000000000000000000000000\n        /* \"#utility.yul\":2572:2573   */\n      0x00\n        /* \"#utility.yul\":2565:2653   */\n      mstore\n        /* \"#utility.yul\":2672:2676   */\n      0x11\n        /* \"#utility.yul\":2669:2670   */\n      0x04\n        /* \"#utility.yul\":2662:2677   */\n      mstore\n        /* \"#utility.yul\":2696:2700   */\n      0x24\n        /* \"#utility.yul\":2693:2694   */\n      0x00\n        /* \"#utility.yul\":2686:2701   */\n      revert\n        /* \"#utility.yul\":2713:2904   */\n    tag_22:\n        /* \"#utility.yul\":2753:2756   */\n      0x00\n        /* \"#utility.yul\":2772:2792   */\n      tag_70\n        /* \"#utility.yul\":2790:2791   */\n      dup3\n        /* \"#utility.yul\":2772:2792   */\n      tag_33\n      jump\t// in\n    tag_70:\n        /* \"#utility.yul\":2767:2792   */\n      swap2\n      pop\n        /* \"#utility.yul\":2806:2826   */\n      tag_71\n        /* \"#utility.yul\":2824:2825   */\n      dup4\n        /* \"#utility.yul\":2806:2826   */\n      tag_33\n      jump\t// in\n    tag_71:\n        /* \"#utility.yul\":2801:2826   */\n      swap3\n      pop\n        /* \"#utility.yul\":2849:2850   */\n      dup3\n        /* \"#utility.yul\":2846:2847   */\n      dup3\n        /* \"#utility.yul\":2842:2851   */\n      add\n        /* \"#utility.yul\":2835:2851   */\n      swap1\n      pop\n        /* \"#utility.yul\":2870:2873   */\n      dup1\n        /* \"#utility.yul\":2867:2868   */\n      dup3\n        /* \"#utility.yul\":2864:2874   */\n      gt\n        /* \"#utility.yul\":2861:2897   */\n      iszero\n      tag_72\n      jumpi\n        /* \"#utility.yul\":2877:2895   */\n      tag_73\n      tag_40\n      jump\t// in\n    tag_73:\n        /* \"#utility.yul\":2861:2897   */\n    tag_72:\n        /* \"#utility.yul\":2713:2904   */\n      swap3\n      swap2\n      pop\n      pop\n      jump\t// out\n        /* \"#utility.yul\":2910:3135   */\n    tag_41:\n        /* \"#utility.yul\":3050:3084   */\n      0x4d696e696d756d205769746864726177616c2053686f756c642062652061626f\n        /* \"#utility.yul\":3046:3047   */\n      0x00\n        /* \"#utility.yul\":3038:3044   */\n      dup3\n        /* \"#utility.yul\":3034:3048   */\n      add\n        /* \"#utility.yul\":3027:3085   */\n      mstore\n        /* \"#utility.yul\":3119:3127   */\n      0x7665203130300000000000000000000000000000000000000000000000000000\n        /* \"#utility.yul\":3114:3116   */\n      0x20\n        /* \"#utility.yul\":3106:3112   */\n      dup3\n        /* \"#utility.yul\":3102:3117   */\n      add\n        /* \"#utility.yul\":3095:3128   */\n      mstore\n        /* \"#utility.yul\":2910:3135   */\n      pop\n      jump\t// out\n        /* \"#utility.yul\":3141:3507   */\n    tag_42:\n        /* \"#utility.yul\":3283:3286   */\n      0x00\n        /* \"#utility.yul\":3304:3371   */\n      tag_76\n        /* \"#utility.yul\":3368:3370   */\n      0x26\n        /* \"#utility.yul\":3363:3366   */\n      dup4\n        /* \"#utility.yul\":3304:3371   */\n      tag_37\n      jump\t// in\n    tag_76:\n        /* \"#utility.yul\":3297:3371   */\n      swap2\n      pop\n        /* \"#utility.yul\":3380:3473   */\n      tag_77\n        /* \"#utility.yul\":3469:3472   */\n      dup3\n        /* \"#utility.yul\":3380:3473   */\n      tag_41\n      jump\t// in\n    tag_77:\n        /* \"#utility.yul\":3498:3500   */\n      0x40\n        /* \"#utility.yul\":3493:3496   */\n      dup3\n        /* \"#utility.yul\":3489:3501   */\n      add\n        /* \"#utility.yul\":3482:3501   */\n      swap1\n      pop\n        /* \"#utility.yul\":3141:3507   */\n      swap2\n      swap1\n      pop\n      jump\t// out\n        /* \"#utility.yul\":3513:3932   */\n    tag_26:\n        /* \"#utility.yul\":3679:3683   */\n      0x00\n        /* \"#utility.yul\":3717:3719   */\n      0x20\n        /* \"#utility.yul\":3706:3715   */\n      dup3\n        /* \"#utility.yul\":3702:3720   */\n      add\n        /* \"#utility.yul\":3694:3720   */\n      swap1\n      pop\n        /* \"#utility.yul\":3766:3775   */\n      dup2\n        /* \"#utility.yul\":3760:3764   */\n      dup2\n        /* \"#utility.yul\":3756:3776   */\n      sub\n        /* \"#utility.yul\":3752:3753   */\n      0x00\n        /* \"#utility.yul\":3741:3750   */\n      dup4\n        /* \"#utility.yul\":3737:3754   */\n      add\n        /* \"#utility.yul\":3730:3777   */\n      mstore\n        /* \"#utility.yul\":3794:3925   */\n      tag_79\n        /* \"#utility.yul\":3920:3924   */\n      dup2\n        /* \"#utility.yul\":3794:3925   */\n      tag_42\n      jump\t// in\n    tag_79:\n        /* \"#utility.yul\":3786:3925   */\n      swap1\n      pop\n        /* \"#utility.yul\":3513:3932   */\n      swap2\n      swap1\n      pop\n      jump\t// out\n        /* \"#utility.yul\":3938:4132   */\n    tag_28:\n        /* \"#utility.yul\":3978:3982   */\n      0x00\n        /* \"#utility.yul\":3998:4018   */\n      tag_81\n        /* \"#utility.yul\":4016:4017   */\n      dup3\n        /* \"#utility.yul\":3998:4018   */\n      tag_33\n      jump\t// in\n    tag_81:\n        /* \"#utility.yul\":3993:4018   */\n      swap2\n      pop\n        /* \"#utility.yul\":4032:4052   */\n      tag_82\n        /* \"#utility.yul\":4050:4051   */\n      dup4\n        /* \"#utility.yul\":4032:4052   */\n      tag_33\n      jump\t// in\n    tag_82:\n        /* \"#utility.yul\":4027:4052   */\n      swap3\n      pop\n        /* \"#utility.yul\":4076:4077   */\n      dup3\n        /* \"#utility.yul\":4073:4074   */\n      dup3\n        /* \"#utility.yul\":4069:4078   */\n      sub\n        /* \"#utility.yul\":4061:4078   */\n      swap1\n      pop\n        /* \"#utility.yul\":4100:4101   */\n      dup2\n        /* \"#utility.yul\":4094:4098   */\n      dup2\n        /* \"#utility.yul\":4091:4102   */\n      gt\n        /* \"#utility.yul\":4088:4125   */\n      iszero\n      tag_83\n      jumpi\n        /* \"#utility.yul\":4105:4123   */\n      tag_84\n      tag_40\n      jump\t// in\n    tag_84:\n        /* \"#utility.yul\":4088:4125   */\n    tag_83:\n        /* \"#utility.yul\":3938:4132   */\n      swap3\n      swap2\n      pop\n      pop\n      jump\t// out\n\n    auxdata: 0xa2646970667358221220cdf6c112955f0d9c7b2e6b187c3eb37153f99bf6fd5d8e105662e7e425e0d4d564736f6c634300081f0033\n}\n",
				"bytecode": {
					"linkReferences": {},
					"object": "6080604052348015600e575f5ffd5b506103b88061001c5f395ff3fe608060405234801561000f575f5ffd5b506004361061003f575f3560e01c8063b6b55f2514610043578063b9c18f1c1461005f578063c1cfb99a1461007b575b5f5ffd5b61005d60048036038101906100589190610196565b610099565b005b61007960048036038101906100749190610196565b6100f7565b005b610083610156565b60405161009091906101d0565b60405180910390f35b606481116100dc576040517f08c379a00000000000000000000000000000000000000000000000000000000081526004016100d390610243565b60405180910390fd5b8060015f8282546100ed919061028e565b9250508190555050565b806064111561013b576040517f08c379a000000000000000000000000000000000000000000000000000000000815260040161013290610331565b60405180910390fd5b8060015f82825461014c919061034f565b9250508190555050565b5f600154905090565b5f5ffd5b5f819050919050565b61017581610163565b811461017f575f5ffd5b50565b5f813590506101908161016c565b92915050565b5f602082840312156101ab576101aa61015f565b5b5f6101b884828501610182565b91505092915050565b6101ca81610163565b82525050565b5f6020820190506101e35f8301846101c1565b92915050565b5f82825260208201905092915050565b7f6164642061626f7665207468616e20494e5220313030000000000000000000005f82015250565b5f61022d6016836101e9565b9150610238826101f9565b602082019050919050565b5f6020820190508181035f83015261025a81610221565b9050919050565b7f4e487b71000000000000000000000000000000000000000000000000000000005f52601160045260245ffd5b5f61029882610163565b91506102a383610163565b92508282019050808211156102bb576102ba610261565b5b92915050565b7f4d696e696d756d205769746864726177616c2053686f756c642062652061626f5f8201527f7665203130300000000000000000000000000000000000000000000000000000602082015250565b5f61031b6026836101e9565b9150610326826102c1565b604082019050919050565b5f6020820190508181035f8301526103488161030f565b9050919050565b5f61035982610163565b915061036483610163565b925082820390508181111561037c5761037b610261565b5b9291505056fea2646970667358221220cdf6c112955f0d9c7b2e6b187c3eb37153f99bf6fd5d8e105662e7e425e0d4d564736f6c634300081f0033",
					"opcodes": "PUSH1 0x80 PUSH1 0x40 MSTORE CALLVALUE DUP1 ISZERO PUSH1 0xE JUMPI PUSH0 PUSH0 REVERT JUMPDEST POP PUSH2 0x3B8 DUP1 PUSH2 0x1C PUSH0 CODECOPY PUSH0 RETURN INVALID PUSH1 0x80 PUSH1 0x40 MSTORE CALLVALUE DUP1 ISZERO PUSH2 0xF JUMPI PUSH0 PUSH0 REVERT JUMPDEST POP PUSH1 0x4 CALLDATASIZE LT PUSH2 0x3F JUMPI PUSH0 CALLDATALOAD PUSH1 0xE0 SHR DUP1 PUSH4 0xB6B55F25 EQ PUSH2 0x43 JUMPI DUP1 PUSH4 0xB9C18F1C EQ PUSH2 0x5F JUMPI DUP1 PUSH4 0xC1CFB99A EQ PUSH2 0x7B JUMPI JUMPDEST PUSH0 PUSH0 REVERT JUMPDEST PUSH2 0x5D PUSH1 0x4 DUP1 CALLDATASIZE SUB DUP2 ADD SWAP1 PUSH2 0x58 SWAP2 SWAP1 PUSH2 0x196 JUMP JUMPDEST PUSH2 0x99 JUMP JUMPDEST STOP JUMPDEST PUSH2 0x79 PUSH1 0x4 DUP1 CALLDATASIZE SUB DUP2 ADD SWAP1 PUSH2 0x74 SWAP2 SWAP1 PUSH2 0x196 JUMP JUMPDEST PUSH2 0xF7 JUMP JUMPDEST STOP JUMPDEST PUSH2 0x83 PUSH2 0x156 JUMP JUMPDEST PUSH1 0x40 MLOAD PUSH2 0x90 SWAP2 SWAP1 PUSH2 0x1D0 JUMP JUMPDEST PUSH1 0x40 MLOAD DUP1 SWAP2 SUB SWAP1 RETURN JUMPDEST PUSH1 0x64 DUP2 GT PUSH2 0xDC JUMPI PUSH1 0x40 MLOAD PUSH32 0x8C379A000000000000000000000000000000000000000000000000000000000 DUP2 MSTORE PUSH1 0x4 ADD PUSH2 0xD3 SWAP1 PUSH2 0x243 JUMP JUMPDEST PUSH1 0x40 MLOAD DUP1 SWAP2 SUB SWAP1 REVERT JUMPDEST DUP1 PUSH1 0x1 PUSH0 DUP3 DUP3 SLOAD PUSH2 0xED SWAP2 SWAP1 PUSH2 0x28E JUMP JUMPDEST SWAP3 POP POP DUP2 SWAP1 SSTORE POP POP JUMP JUMPDEST DUP1 PUSH1 0x64 GT ISZERO PUSH2 0x13B JUMPI PUSH1 0x40 MLOAD PUSH32 0x8C379A000000000000000000000000000000000000000000000000000000000 DUP2 MSTORE PUSH1 0x4 ADD PUSH2 0x132 SWAP1 PUSH2 0x331 JUMP JUMPDEST PUSH1 0x40 MLOAD DUP1 SWAP2 SUB SWAP1 REVERT JUMPDEST DUP1 PUSH1 0x1 PUSH0 DUP3 DUP3 SLOAD PUSH2 0x14C SWAP2 SWAP1 PUSH2 0x34F JUMP JUMPDEST SWAP3 POP POP DUP2 SWAP1 SSTORE POP POP JUMP JUMPDEST PUSH0 PUSH1 0x1 SLOAD SWAP1 POP SWAP1 JUMP JUMPDEST PUSH0 PUSH0 REVERT JUMPDEST PUSH0 DUP2 SWAP1 POP SWAP2 SWAP1 POP JUMP JUMPDEST PUSH2 0x175 DUP2 PUSH2 0x163 JUMP JUMPDEST DUP2 EQ PUSH2 0x17F JUMPI PUSH0 PUSH0 REVERT JUMPDEST POP JUMP JUMPDEST PUSH0 DUP2 CALLDATALOAD SWAP1 POP PUSH2 0x190 DUP2 PUSH2 0x16C JUMP JUMPDEST SWAP3 SWAP2 POP POP JUMP JUMPDEST PUSH0 PUSH1 0x20 DUP3 DUP5 SUB SLT ISZERO PUSH2 0x1AB JUMPI PUSH2 0x1AA PUSH2 0x15F JUMP JUMPDEST JUMPDEST PUSH0 PUSH2 0x1B8 DUP5 DUP3 DUP6 ADD PUSH2 0x182 JUMP JUMPDEST SWAP2 POP POP SWAP3 SWAP2 POP POP JUMP JUMPDEST PUSH2 0x1CA DUP2 PUSH2 0x163 JUMP JUMPDEST DUP3 MSTORE POP POP JUMP JUMPDEST PUSH0 PUSH1 0x20 DUP3 ADD SWAP1 POP PUSH2 0x1E3 PUSH0 DUP4 ADD DUP5 PUSH2 0x1C1 JUMP JUMPDEST SWAP3 SWAP2 POP POP JUMP JUMPDEST PUSH0 DUP3 DUP3 MSTORE PUSH1 0x20 DUP3 ADD SWAP1 POP SWAP3 SWAP2 POP POP JUMP JUMPDEST PUSH32 0x6164642061626F7665207468616E20494E522031303000000000000000000000 PUSH0 DUP3 ADD MSTORE POP JUMP JUMPDEST PUSH0 PUSH2 0x22D PUSH1 0x16 DUP4 PUSH2 0x1E9 JUMP JUMPDEST SWAP2 POP PUSH2 0x238 DUP3 PUSH2 0x1F9 JUMP JUMPDEST PUSH1 0x20 DUP3 ADD SWAP1 POP SWAP2 SWAP1 POP JUMP JUMPDEST PUSH0 PUSH1 0x20 DUP3 ADD SWAP1 POP DUP2 DUP2 SUB PUSH0 DUP4 ADD MSTORE PUSH2 0x25A DUP2 PUSH2 0x221 JUMP JUMPDEST SWAP1 POP SWAP2 SWAP1 POP JUMP JUMPDEST PUSH32 0x4E487B7100000000000000000000000000000000000000000000000000000000 PUSH0 MSTORE PUSH1 0x11 PUSH1 0x4 MSTORE PUSH1 0x24 PUSH0 REVERT JUMPDEST PUSH0 PUSH2 0x298 DUP3 PUSH2 0x163 JUMP JUMPDEST SWAP2 POP PUSH2 0x2A3 DUP4 PUSH2 0x163 JUMP JUMPDEST SWAP3 POP DUP3 DUP3 ADD SWAP1 POP DUP1 DUP3 GT ISZERO PUSH2 0x2BB JUMPI PUSH2 0x2BA PUSH2 0x261 JUMP JUMPDEST JUMPDEST SWAP3 SWAP2 POP POP JUMP JUMPDEST PUSH32 0x4D696E696D756D205769746864726177616C2053686F756C642062652061626F PUSH0 DUP3 ADD MSTORE PUSH32 0x7665203130300000000000000000000000000000000000000000000000000000 PUSH1 0x20 DUP3 ADD MSTORE POP JUMP JUMPDEST PUSH0 PUSH2 0x31B PUSH1 0x26 DUP4 PUSH2 0x1E9 JUMP JUMPDEST SWAP2 POP PUSH2 0x326 DUP3 PUSH2 0x2C1 JUMP JUMPDEST PUSH1 0x40 DUP3 ADD SWAP1 POP SWAP2 SWAP1 POP JUMP JUMPDEST PUSH0 PUSH1 0x20 DUP3 ADD SWAP1 POP DUP2 DUP2 SUB PUSH0 DUP4 ADD MSTORE PUSH2 0x348 DUP2 PUSH2 0x30F JUMP JUMPDEST SWAP1 POP SWAP2 SWAP1 POP JUMP JUMPDEST PUSH0 PUSH2 0x359 DUP3 PUSH2 0x163 JUMP JUMPDEST SWAP2 POP PUSH2 0x364 DUP4 PUSH2 0x163 JUMP JUMPDEST SWAP3 POP DUP3 DUP3 SUB SWAP1 POP DUP2 DUP2 GT ISZERO PUSH2 0x37C JUMPI PUSH2 0x37B PUSH2 0x261 JUMP JUMPDEST JUMPDEST SWAP3 SWAP2 POP POP JUMP INVALID LOG2 PUSH5 0x6970667358 0x22 SLT KECCAK256 0xCD 0xF6 0xC1 SLT SWAP6 PUSH0 0xD SWAP13 PUSH28 0x2E6B187C3EB37153F99BF6FD5D8E105662E7E425E0D4D564736F6C63 NUMBER STOP ADDMOD 0x1F STOP CALLER "
				},
				"gasEstimates": {
					"creation": {
						"codeDepositCost": "190400",
						"executionCost": "230",
						"totalCost": "190630"
					},
					"external": {
						"deposit(uint256)": "infinite",
						"get_balance()": "2454",
						"withdraw_cash(uint256)": "infinite"
					}
				},
				"methodIdentifiers": {
					"deposit(uint256)": "b6b55f25",
					"get_balance()": "c1cfb99a",
					"withdraw_cash(uint256)": "b9c18f1c"
				}
			},
			"storageLayout": {
				"storage": [
					{
						"astId": 3,
						"contract": "Atm.sol:userbank",
						"label": "owner",
						"offset": 0,
						"slot": "0",
						"type": "t_address"
					},
					{
						"astId": 5,
						"contract": "Atm.sol:userbank",
						"label": "totalbalance",
						"offset": 0,
						"slot": "1",
						"type": "t_uint256"
					}
				],
				"types": {
					"t_address": {
						"encoding": "inplace",
						"label": "address",
						"numberOfBytes": "20"
					},
					"t_uint256": {
						"encoding": "inplace",
						"label": "uint256",
						"numberOfBytes": "32"
					}
				}
			},
			"userdoc": {
				"kind": "user",
				"methods": {},
				"version": 1
			}
		}
	}
}