{
	"BankacountSystem.sol": {
		"BankAccountSystem": {
			"abi": [
				{
					"inputs": [
						{
							"internalType": "address",
							"name": "",
							"type": "address"
						}
					],
					"name": "accounts",
					"outputs": [
						{
							"internalType": "string",
							"name": "holderName",
							"type": "string"
						},
						{
							"internalType": "uint256",
							"name": "balance",
							"type": "uint256"
						},
						{
							"internalType": "uint256",
							"name": "accountNumber",
							"type": "uint256"
						}
					],
					"stateMutability": "view",
					"type": "function"
				},
				{
					"inputs": [
						{
							"internalType": "string",
							"name": "_name",
							"type": "string"
						},
						{
							"internalType": "uint256",
							"name": "_accountNumber",
							"type": "uint256"
						}
					],
					"name": "createAccount",
					"outputs": [],
					"stateMutability": "nonpayable",
					"type": "function"
				},
				{
					"inputs": [
						{
							"internalType": "uint256",
							"name": "_amount",
							"type": "uint256"
						}
					],
					"name": "deposit",
					"outputs": [],
					"stateMutability": "nonpayable",
					"type": "function"
				},
				{
					"inputs": [],
					"name": "getAccount",
					"outputs": [
						{
							"internalType": "string",
							"name": "",
							"type": "string"
						},
						{
							"internalType": "uint256",
							"name": "",
							"type": "uint256"
						},
						{
							"internalType": "uint256",
							"name": "",
							"type": "uint256"
						}
					],
					"stateMutability": "view",
					"type": "function"
				},
				{
					"inputs": [
						{
							"internalType": "uint256",
							"name": "_amount",
							"type": "uint256"
						}
					],
					"name": "withdraw",
					"outputs": [],
					"stateMutability": "nonpayable",
					"type": "function"
				}
			],
			"devdoc": {
				"kind": "dev",
				"methods": {},
				"version": 1
			},
			"evm": {
				"assembly": "    /* \"BankacountSystem.sol\":60:1469  contract BankAccountSystem {... */\n  mstore(0x40, 0x80)\n  callvalue\n  dup1\n  iszero\n  tag_1\n  jumpi\n  revert(0x00, 0x00)\ntag_1:\n  pop\n  dataSize(sub_0)\n  dup1\n  dataOffset(sub_0)\n  0x00\n  codecopy\n  0x00\n  return\nstop\n\nsub_0: assembly {\n        /* \"BankacountSystem.sol\":60:1469  contract BankAccountSystem {... */\n      mstore(0x40, 0x80)\n      callvalue\n      dup1\n      iszero\n      tag_1\n      jumpi\n      revert(0x00, 0x00)\n    tag_1:\n      pop\n      jumpi(tag_2, lt(calldatasize, 0x04))\n      shr(0xe0, calldataload(0x00))\n      dup1\n      0x2e1a7d4d\n      eq\n      tag_3\n      jumpi\n      dup1\n      0x5e5c06e2\n      eq\n      tag_4\n      jumpi\n      dup1\n      0x6586ace6\n      eq\n      tag_5\n      jumpi\n      dup1\n      0xb6b55f25\n      eq\n      tag_6\n      jumpi\n      dup1\n      0xdb613e81\n      eq\n      tag_7\n      jumpi\n    tag_2:\n      revert(0x00, 0x00)\n        /* \"BankacountSystem.sol\":868:1157  function withdraw(uint _amount) public {... */\n    tag_3:\n      tag_8\n      0x04\n      dup1\n      calldatasize\n      sub\n      dup2\n      add\n      swap1\n      tag_9\n      swap2\n      swap1\n      tag_10\n      jump\t// in\n    tag_9:\n      tag_11\n      jump\t// in\n    tag_8:\n      stop\n        /* \"BankacountSystem.sol\":304:347  mapping(address => Account) public accounts */\n    tag_4:\n      tag_12\n      0x04\n      dup1\n      calldatasize\n      sub\n      dup2\n      add\n      swap1\n      tag_13\n      swap2\n      swap1\n      tag_14\n      jump\t// in\n    tag_13:\n      tag_15\n      jump\t// in\n    tag_12:\n      mload(0x40)\n      tag_16\n      swap4\n      swap3\n      swap2\n      swap1\n      tag_17\n      jump\t// in\n    tag_16:\n      mload(0x40)\n      dup1\n      swap2\n      sub\n      swap1\n      return\n        /* \"BankacountSystem.sol\":379:641  function createAccount(... */\n    tag_5:\n      tag_18\n      0x04\n      dup1\n      calldatasize\n      sub\n      dup2\n      add\n      swap1\n      tag_19\n      swap2\n      swap1\n      tag_20\n      jump\t// in\n    tag_19:\n      tag_21\n      jump\t// in\n    tag_18:\n      stop\n        /* \"BankacountSystem.sol\":671:837  function deposit(uint _amount) public {... */\n    tag_6:\n      tag_22\n      0x04\n      dup1\n      calldatasize\n      sub\n      dup2\n      add\n      swap1\n      tag_23\n      swap2\n      swap1\n      tag_10\n      jump\t// in\n    tag_23:\n      tag_24\n      jump\t// in\n    tag_22:\n      stop\n        /* \"BankacountSystem.sol\":1194:1466  function getAccount() public view returns(... */\n    tag_7:\n      tag_25\n      tag_26\n      jump\t// in\n    tag_25:\n      mload(0x40)\n      tag_27\n      swap4\n      swap3\n      swap2\n      swap1\n      tag_17\n      jump\t// in\n    tag_27:\n      mload(0x40)\n      dup1\n      swap2\n      sub\n      swap1\n      return\n        /* \"BankacountSystem.sol\":868:1157  function withdraw(uint _amount) public {... */\n    tag_11:\n        /* \"BankacountSystem.sol\":938:939  0 */\n      0x00\n        /* \"BankacountSystem.sol\":928:935  _amount */\n      dup2\n        /* \"BankacountSystem.sol\":928:939  _amount > 0 */\n      gt\n        /* \"BankacountSystem.sol\":920:975  require(_amount > 0, \"Amount should be greater than 0\") */\n      tag_29\n      jumpi\n      mload(0x40)\n      0x08c379a000000000000000000000000000000000000000000000000000000000\n      dup2\n      mstore\n      0x04\n      add\n      tag_30\n      swap1\n      tag_31\n      jump\t// in\n    tag_30:\n      mload(0x40)\n      dup1\n      swap2\n      sub\n      swap1\n      revert\n    tag_29:\n        /* \"BankacountSystem.sol\":1042:1049  _amount */\n      dup1\n        /* \"BankacountSystem.sol\":1010:1018  accounts */\n      0x00\n        /* \"BankacountSystem.sol\":1010:1030  accounts[msg.sender] */\n      0x00\n        /* \"BankacountSystem.sol\":1019:1029  msg.sender */\n      caller\n        /* \"BankacountSystem.sol\":1010:1030  accounts[msg.sender] */\n      0xffffffffffffffffffffffffffffffffffffffff\n      and\n      0xffffffffffffffffffffffffffffffffffffffff\n      and\n      dup2\n      mstore\n      0x20\n      add\n      swap1\n      dup2\n      mstore\n      0x20\n      add\n      0x00\n      keccak256\n        /* \"BankacountSystem.sol\":1010:1038  accounts[msg.sender].balance */\n      0x01\n      add\n      sload\n        /* \"BankacountSystem.sol\":1010:1049  accounts[msg.sender].balance >= _amount */\n      lt\n      iszero\n        /* \"BankacountSystem.sol\":988:1097  require(... */\n      tag_32\n      jumpi\n      mload(0x40)\n      0x08c379a000000000000000000000000000000000000000000000000000000000\n      dup2\n      mstore\n      0x04\n      add\n      tag_33\n      swap1\n      tag_34\n      jump\t// in\n    tag_33:\n      mload(0x40)\n      dup1\n      swap2\n      sub\n      swap1\n      revert\n    tag_32:\n        /* \"BankacountSystem.sol\":1142:1149  _amount */\n      dup1\n        /* \"BankacountSystem.sol\":1110:1118  accounts */\n      0x00\n        /* \"BankacountSystem.sol\":1110:1130  accounts[msg.sender] */\n      0x00\n        /* \"BankacountSystem.sol\":1119:1129  msg.sender */\n      caller\n        /* \"BankacountSystem.sol\":1110:1130  accounts[msg.sender] */\n      0xffffffffffffffffffffffffffffffffffffffff\n      and\n      0xffffffffffffffffffffffffffffffffffffffff\n      and\n      dup2\n      mstore\n      0x20\n      add\n      swap1\n      dup2\n      mstore\n      0x20\n      add\n      0x00\n      keccak256\n        /* \"BankacountSystem.sol\":1110:1138  accounts[msg.sender].balance */\n      0x01\n      add\n      0x00\n        /* \"BankacountSystem.sol\":1110:1149  accounts[msg.sender].balance -= _amount */\n      dup3\n      dup3\n      sload\n      tag_35\n      swap2\n      swap1\n      tag_36\n      jump\t// in\n    tag_35:\n      swap3\n      pop\n      pop\n      dup2\n      swap1\n      sstore\n      pop\n        /* \"BankacountSystem.sol\":868:1157  function withdraw(uint _amount) public {... */\n      pop\n      jump\t// out\n        /* \"BankacountSystem.sol\":304:347  mapping(address => Account) public accounts */\n    tag_15:\n      mstore(0x20, 0x00)\n      dup1\n      0x00\n      mstore\n      keccak256(0x00, 0x40)\n      0x00\n      swap2\n      pop\n      swap1\n      pop\n      dup1\n      0x00\n      add\n      dup1\n      sload\n      tag_37\n      swap1\n      tag_38\n      jump\t// in\n    tag_37:\n      dup1\n      0x1f\n      add\n      0x20\n      dup1\n      swap2\n      div\n      mul\n      0x20\n      add\n      mload(0x40)\n      swap1\n      dup2\n      add\n      0x40\n      mstore\n      dup1\n      swap3\n      swap2\n      swap1\n      dup2\n      dup2\n      mstore\n      0x20\n      add\n      dup3\n      dup1\n      sload\n      tag_39\n      swap1\n      tag_38\n      jump\t// in\n    tag_39:\n      dup1\n      iszero\n      tag_40\n      jumpi\n      dup1\n      0x1f\n      lt\n      tag_41\n      jumpi\n      0x0100\n      dup1\n      dup4\n      sload\n      div\n      mul\n      dup4\n      mstore\n      swap2\n      0x20\n      add\n      swap2\n      jump(tag_40)\n    tag_41:\n      dup3\n      add\n      swap2\n      swap1\n      0x00\n      mstore\n      keccak256(0x00, 0x20)\n      swap1\n    tag_42:\n      dup2\n      sload\n      dup2\n      mstore\n      swap1\n      0x01\n      add\n      swap1\n      0x20\n      add\n      dup1\n      dup4\n      gt\n      tag_42\n      jumpi\n      dup3\n      swap1\n      sub\n      0x1f\n      and\n      dup3\n      add\n      swap2\n    tag_40:\n      pop\n      pop\n      pop\n      pop\n      pop\n      swap1\n      dup1\n      0x01\n      add\n      sload\n      swap1\n      dup1\n      0x02\n      add\n      sload\n      swap1\n      pop\n      dup4\n      jump\t// out\n        /* \"BankacountSystem.sol\":379:641  function createAccount(... */\n    tag_21:\n        /* \"BankacountSystem.sol\":512:633  Account({... */\n      mload(0x40)\n      dup1\n      0x60\n      add\n      0x40\n      mstore\n      dup1\n        /* \"BankacountSystem.sol\":547:552  _name */\n      dup4\n        /* \"BankacountSystem.sol\":512:633  Account({... */\n      dup2\n      mstore\n      0x20\n      add\n        /* \"BankacountSystem.sol\":576:577  0 */\n      0x00\n        /* \"BankacountSystem.sol\":512:633  Account({... */\n      dup2\n      mstore\n      0x20\n      add\n        /* \"BankacountSystem.sol\":607:621  _accountNumber */\n      dup3\n        /* \"BankacountSystem.sol\":512:633  Account({... */\n      dup2\n      mstore\n      pop\n        /* \"BankacountSystem.sol\":489:497  accounts */\n      0x00\n        /* \"BankacountSystem.sol\":489:509  accounts[msg.sender] */\n      0x00\n        /* \"BankacountSystem.sol\":498:508  msg.sender */\n      caller\n        /* \"BankacountSystem.sol\":489:509  accounts[msg.sender] */\n      0xffffffffffffffffffffffffffffffffffffffff\n      and\n      0xffffffffffffffffffffffffffffffffffffffff\n      and\n      dup2\n      mstore\n      0x20\n      add\n      swap1\n      dup2\n      mstore\n      0x20\n      add\n      0x00\n      keccak256\n        /* \"BankacountSystem.sol\":489:633  accounts[msg.sender] = Account({... */\n      0x00\n      dup3\n      add\n      mload\n      dup2\n      0x00\n      add\n      swap1\n      dup2\n      tag_44\n      swap2\n      swap1\n      tag_45\n      jump\t// in\n    tag_44:\n      pop\n      0x20\n      dup3\n      add\n      mload\n      dup2\n      0x01\n      add\n      sstore\n      0x40\n      dup3\n      add\n      mload\n      dup2\n      0x02\n      add\n      sstore\n      swap1\n      pop\n      pop\n        /* \"BankacountSystem.sol\":379:641  function createAccount(... */\n      pop\n      pop\n      jump\t// out\n        /* \"BankacountSystem.sol\":671:837  function deposit(uint _amount) public {... */\n    tag_24:\n        /* \"BankacountSystem.sol\":740:741  0 */\n      0x00\n        /* \"BankacountSystem.sol\":730:737  _amount */\n      dup2\n        /* \"BankacountSystem.sol\":730:741  _amount > 0 */\n      gt\n        /* \"BankacountSystem.sol\":722:777  require(_amount > 0, \"Amount should be greater than 0\") */\n      tag_47\n      jumpi\n      mload(0x40)\n      0x08c379a000000000000000000000000000000000000000000000000000000000\n      dup2\n      mstore\n      0x04\n      add\n      tag_48\n      swap1\n      tag_31\n      jump\t// in\n    tag_48:\n      mload(0x40)\n      dup1\n      swap2\n      sub\n      swap1\n      revert\n    tag_47:\n        /* \"BankacountSystem.sol\":822:829  _amount */\n      dup1\n        /* \"BankacountSystem.sol\":790:798  accounts */\n      0x00\n        /* \"BankacountSystem.sol\":790:810  accounts[msg.sender] */\n      0x00\n        /* \"BankacountSystem.sol\":799:809  msg.sender */\n      caller\n        /* \"BankacountSystem.sol\":790:810  accounts[msg.sender] */\n      0xffffffffffffffffffffffffffffffffffffffff\n      and\n      0xffffffffffffffffffffffffffffffffffffffff\n      and\n      dup2\n      mstore\n      0x20\n      add\n      swap1\n      dup2\n      mstore\n      0x20\n      add\n      0x00\n      keccak256\n        /* \"BankacountSystem.sol\":790:818  accounts[msg.sender].balance */\n      0x01\n      add\n      0x00\n        /* \"BankacountSystem.sol\":790:829  accounts[msg.sender].balance += _amount */\n      dup3\n      dup3\n      sload\n      tag_49\n      swap2\n      swap1\n      tag_50\n      jump\t// in\n    tag_49:\n      swap3\n      pop\n      pop\n      dup2\n      swap1\n      sstore\n      pop\n        /* \"BankacountSystem.sol\":671:837  function deposit(uint _amount) public {... */\n      pop\n      jump\t// out\n        /* \"BankacountSystem.sol\":1194:1466  function getAccount() public view returns(... */\n    tag_26:\n        /* \"BankacountSystem.sol\":1246:1259  string memory */\n      0x60\n        /* \"BankacountSystem.sol\":1270:1274  uint */\n      0x00\n        /* \"BankacountSystem.sol\":1285:1289  uint */\n      0x00\n        /* \"BankacountSystem.sol\":1307:1323  Account memory a */\n      0x00\n        /* \"BankacountSystem.sol\":1326:1334  accounts */\n      0x00\n        /* \"BankacountSystem.sol\":1326:1346  accounts[msg.sender] */\n      0x00\n        /* \"BankacountSystem.sol\":1335:1345  msg.sender */\n      caller\n        /* \"BankacountSystem.sol\":1326:1346  accounts[msg.sender] */\n      0xffffffffffffffffffffffffffffffffffffffff\n      and\n      0xffffffffffffffffffffffffffffffffffffffff\n      and\n      dup2\n      mstore\n      0x20\n      add\n      swap1\n      dup2\n      mstore\n      0x20\n      add\n      0x00\n      keccak256\n        /* \"BankacountSystem.sol\":1307:1346  Account memory a = accounts[msg.sender] */\n      mload(0x40)\n      dup1\n      0x60\n      add\n      0x40\n      mstore\n      swap1\n      dup2\n      0x00\n      dup3\n      add\n      dup1\n      sload\n      tag_52\n      swap1\n      tag_38\n      jump\t// in\n    tag_52:\n      dup1\n      0x1f\n      add\n      0x20\n      dup1\n      swap2\n      div\n      mul\n      0x20\n      add\n      mload(0x40)\n      swap1\n      dup2\n      add\n      0x40\n      mstore\n      dup1\n      swap3\n      swap2\n      swap1\n      dup2\n      dup2\n      mstore\n      0x20\n      add\n      dup3\n      dup1\n      sload\n      tag_53\n      swap1\n      tag_38\n      jump\t// in\n    tag_53:\n      dup1\n      iszero\n      tag_54\n      jumpi\n      dup1\n      0x1f\n      lt\n      tag_55\n      jumpi\n      0x0100\n      dup1\n      dup4\n      sload\n      div\n      mul\n      dup4\n      mstore\n      swap2\n      0x20\n      add\n      swap2\n      jump(tag_54)\n    tag_55:\n      dup3\n      add\n      swap2\n      swap1\n      0x00\n      mstore\n      keccak256(0x00, 0x20)\n      swap1\n    tag_56:\n      dup2\n      sload\n      dup2\n      mstore\n      swap1\n      0x01\n      add\n      swap1\n      0x20\n      add\n      dup1\n      dup4\n      gt\n      tag_56\n      jumpi\n      dup3\n      swap1\n      sub\n      0x1f\n      and\n      dup3\n      add\n      swap2\n    tag_54:\n      pop\n      pop\n      pop\n      pop\n      pop\n      dup2\n      mstore\n      0x20\n      add\n      0x01\n      dup3\n      add\n      sload\n      dup2\n      mstore\n      0x20\n      add\n      0x02\n      dup3\n      add\n      sload\n      dup2\n      mstore\n      pop\n      pop\n      swap1\n      pop\n        /* \"BankacountSystem.sol\":1381:1382  a */\n      dup1\n        /* \"BankacountSystem.sol\":1381:1393  a.holderName */\n      0x00\n      add\n      mload\n        /* \"BankacountSystem.sol\":1408:1409  a */\n      dup2\n        /* \"BankacountSystem.sol\":1408:1417  a.balance */\n      0x20\n      add\n      mload\n        /* \"BankacountSystem.sol\":1432:1433  a */\n      dup3\n        /* \"BankacountSystem.sol\":1432:1447  a.accountNumber */\n      0x40\n      add\n      mload\n        /* \"BankacountSystem.sol\":1359:1458  return (... */\n      swap4\n      pop\n      swap4\n      pop\n      swap4\n      pop\n      pop\n        /* \"BankacountSystem.sol\":1194:1466  function getAccount() public view returns(... */\n      swap1\n      swap2\n      swap3\n      jump\t// out\n        /* \"#utility.yul\":7:82   */\n    tag_57:\n        /* \"#utility.yul\":40:46   */\n      0x00\n        /* \"#utility.yul\":73:75   */\n      0x40\n        /* \"#utility.yul\":67:76   */\n      mload\n        /* \"#utility.yul\":57:76   */\n      swap1\n      pop\n        /* \"#utility.yul\":7:82   */\n      swap1\n      jump\t// out\n        /* \"#utility.yul\":88:205   */\n    tag_58:\n        /* \"#utility.yul\":197:198   */\n      0x00\n        /* \"#utility.yul\":194:195   */\n      0x00\n        /* \"#utility.yul\":187:199   */\n      revert\n        /* \"#utility.yul\":211:328   */\n    tag_59:\n        /* \"#utility.yul\":320:321   */\n      0x00\n        /* \"#utility.yul\":317:318   */\n      0x00\n        /* \"#utility.yul\":310:322   */\n      revert\n        /* \"#utility.yul\":334:411   */\n    tag_60:\n        /* \"#utility.yul\":371:378   */\n      0x00\n        /* \"#utility.yul\":400:405   */\n      dup2\n        /* \"#utility.yul\":389:405   */\n      swap1\n      pop\n        /* \"#utility.yul\":334:411   */\n      swap2\n      swap1\n      pop\n      jump\t// out\n        /* \"#utility.yul\":417:539   */\n    tag_61:\n        /* \"#utility.yul\":490:514   */\n      tag_109\n        /* \"#utility.yul\":508:513   */\n      dup2\n        /* \"#utility.yul\":490:514   */\n      tag_60\n      jump\t// in\n    tag_109:\n        /* \"#utility.yul\":483:488   */\n      dup2\n        /* \"#utility.yul\":480:515   */\n      eq\n        /* \"#utility.yul\":470:533   */\n      tag_110\n      jumpi\n        /* \"#utility.yul\":529:530   */\n      0x00\n        /* \"#utility.yul\":526:527   */\n      0x00\n        /* \"#utility.yul\":519:531   */\n      revert\n        /* \"#utility.yul\":470:533   */\n    tag_110:\n        /* \"#utility.yul\":417:539   */\n      pop\n      jump\t// out\n        /* \"#utility.yul\":545:684   */\n    tag_62:\n        /* \"#utility.yul\":591:596   */\n      0x00\n        /* \"#utility.yul\":629:635   */\n      dup2\n        /* \"#utility.yul\":616:636   */\n      calldataload\n        /* \"#utility.yul\":607:636   */\n      swap1\n      pop\n        /* \"#utility.yul\":645:678   */\n      tag_112\n        /* \"#utility.yul\":672:677   */\n      dup2\n        /* \"#utility.yul\":645:678   */\n      tag_61\n      jump\t// in\n    tag_112:\n        /* \"#utility.yul\":545:684   */\n      swap3\n      swap2\n      pop\n      pop\n      jump\t// out\n        /* \"#utility.yul\":690:1019   */\n    tag_10:\n        /* \"#utility.yul\":749:755   */\n      0x00\n        /* \"#utility.yul\":798:800   */\n      0x20\n        /* \"#utility.yul\":786:795   */\n      dup3\n        /* \"#utility.yul\":777:784   */\n      dup5\n        /* \"#utility.yul\":773:796   */\n      sub\n        /* \"#utility.yul\":769:801   */\n      slt\n        /* \"#utility.yul\":766:885   */\n      iszero\n      tag_114\n      jumpi\n        /* \"#utility.yul\":804:883   */\n      tag_115\n      tag_58\n      jump\t// in\n    tag_115:\n        /* \"#utility.yul\":766:885   */\n    tag_114:\n        /* \"#utility.yul\":924:925   */\n      0x00\n        /* \"#utility.yul\":949:1002   */\n      tag_116\n        /* \"#utility.yul\":994:1001   */\n      dup5\n        /* \"#utility.yul\":985:991   */\n      dup3\n        /* \"#utility.yul\":974:983   */\n      dup6\n        /* \"#utility.yul\":970:992   */\n      add\n        /* \"#utility.yul\":949:1002   */\n      tag_62\n      jump\t// in\n    tag_116:\n        /* \"#utility.yul\":939:1002   */\n      swap2\n      pop\n        /* \"#utility.yul\":895:1012   */\n      pop\n        /* \"#utility.yul\":690:1019   */\n      swap3\n      swap2\n      pop\n      pop\n      jump\t// out\n        /* \"#utility.yul\":1025:1151   */\n    tag_63:\n        /* \"#utility.yul\":1062:1069   */\n      0x00\n        /* \"#utility.yul\":1102:1144   */\n      0xffffffffffffffffffffffffffffffffffffffff\n        /* \"#utility.yul\":1095:1100   */\n      dup3\n        /* \"#utility.yul\":1091:1145   */\n      and\n        /* \"#utility.yul\":1080:1145   */\n      swap1\n      pop\n        /* \"#utility.yul\":1025:1151   */\n      swap2\n      swap1\n      pop\n      jump\t// out\n        /* \"#utility.yul\":1157:1253   */\n    tag_64:\n        /* \"#utility.yul\":1194:1201   */\n      0x00\n        /* \"#utility.yul\":1223:1247   */\n      tag_119\n        /* \"#utility.yul\":1241:1246   */\n      dup3\n        /* \"#utility.yul\":1223:1247   */\n      tag_63\n      jump\t// in\n    tag_119:\n        /* \"#utility.yul\":1212:1247   */\n      swap1\n      pop\n        /* \"#utility.yul\":1157:1253   */\n      swap2\n      swap1\n      pop\n      jump\t// out\n        /* \"#utility.yul\":1259:1381   */\n    tag_65:\n        /* \"#utility.yul\":1332:1356   */\n      tag_121\n        /* \"#utility.yul\":1350:1355   */\n      dup2\n        /* \"#utility.yul\":1332:1356   */\n      tag_64\n      jump\t// in\n    tag_121:\n        /* \"#utility.yul\":1325:1330   */\n      dup2\n        /* \"#utility.yul\":1322:1357   */\n      eq\n        /* \"#utility.yul\":1312:1375   */\n      tag_122\n      jumpi\n        /* \"#utility.yul\":1371:1372   */\n      0x00\n        /* \"#utility.yul\":1368:1369   */\n      0x00\n        /* \"#utility.yul\":1361:1373   */\n      revert\n        /* \"#utility.yul\":1312:1375   */\n    tag_122:\n        /* \"#utility.yul\":1259:1381   */\n      pop\n      jump\t// out\n        /* \"#utility.yul\":1387:1526   */\n    tag_66:\n        /* \"#utility.yul\":1433:1438   */\n      0x00\n        /* \"#utility.yul\":1471:1477   */\n      dup2\n        /* \"#utility.yul\":1458:1478   */\n      calldataload\n        /* \"#utility.yul\":1449:1478   */\n      swap1\n      pop\n        /* \"#utility.yul\":1487:1520   */\n      tag_124\n        /* \"#utility.yul\":1514:1519   */\n      dup2\n        /* \"#utility.yul\":1487:1520   */\n      tag_65\n      jump\t// in\n    tag_124:\n        /* \"#utility.yul\":1387:1526   */\n      swap3\n      swap2\n      pop\n      pop\n      jump\t// out\n        /* \"#utility.yul\":1532:1861   */\n    tag_14:\n        /* \"#utility.yul\":1591:1597   */\n      0x00\n        /* \"#utility.yul\":1640:1642   */\n      0x20\n        /* \"#utility.yul\":1628:1637   */\n      dup3\n        /* \"#utility.yul\":1619:1626   */\n      dup5\n        /* \"#utility.yul\":1615:1638   */\n      sub\n        /* \"#utility.yul\":1611:1643   */\n      slt\n        /* \"#utility.yul\":1608:1727   */\n      iszero\n      tag_126\n      jumpi\n        /* \"#utility.yul\":1646:1725   */\n      tag_127\n      tag_58\n      jump\t// in\n    tag_127:\n        /* \"#utility.yul\":1608:1727   */\n    tag_126:\n        /* \"#utility.yul\":1766:1767   */\n      0x00\n        /* \"#utility.yul\":1791:1844   */\n      tag_128\n        /* \"#utility.yul\":1836:1843   */\n      dup5\n        /* \"#utility.yul\":1827:1833   */\n      dup3\n        /* \"#utility.yul\":1816:1825   */\n      dup6\n        /* \"#utility.yul\":1812:1834   */\n      add\n        /* \"#utility.yul\":1791:1844   */\n      tag_66\n      jump\t// in\n    tag_128:\n        /* \"#utility.yul\":1781:1844   */\n      swap2\n      pop\n        /* \"#utility.yul\":1737:1854   */\n      pop\n        /* \"#utility.yul\":1532:1861   */\n      swap3\n      swap2\n      pop\n      pop\n      jump\t// out\n        /* \"#utility.yul\":1867:1966   */\n    tag_67:\n        /* \"#utility.yul\":1919:1925   */\n      0x00\n        /* \"#utility.yul\":1953:1958   */\n      dup2\n        /* \"#utility.yul\":1947:1959   */\n      mload\n        /* \"#utility.yul\":1937:1959   */\n      swap1\n      pop\n        /* \"#utility.yul\":1867:1966   */\n      swap2\n      swap1\n      pop\n      jump\t// out\n        /* \"#utility.yul\":1972:2141   */\n    tag_68:\n        /* \"#utility.yul\":2056:2067   */\n      0x00\n        /* \"#utility.yul\":2090:2096   */\n      dup3\n        /* \"#utility.yul\":2085:2088   */\n      dup3\n        /* \"#utility.yul\":2078:2097   */\n      mstore\n        /* \"#utility.yul\":2130:2134   */\n      0x20\n        /* \"#utility.yul\":2125:2128   */\n      dup3\n        /* \"#utility.yul\":2121:2135   */\n      add\n        /* \"#utility.yul\":2106:2135   */\n      swap1\n      pop\n        /* \"#utility.yul\":1972:2141   */\n      swap3\n      swap2\n      pop\n      pop\n      jump\t// out\n        /* \"#utility.yul\":2147:2286   */\n    tag_69:\n        /* \"#utility.yul\":2236:2242   */\n      dup3\n        /* \"#utility.yul\":2231:2234   */\n      dup2\n        /* \"#utility.yul\":2226:2229   */\n      dup4\n        /* \"#utility.yul\":2220:2243   */\n      mcopy\n        /* \"#utility.yul\":2277:2278   */\n      0x00\n        /* \"#utility.yul\":2268:2274   */\n      dup4\n        /* \"#utility.yul\":2263:2266   */\n      dup4\n        /* \"#utility.yul\":2259:2275   */\n      add\n        /* \"#utility.yul\":2252:2279   */\n      mstore\n        /* \"#utility.yul\":2147:2286   */\n      pop\n      pop\n      pop\n      jump\t// out\n        /* \"#utility.yul\":2292:2394   */\n    tag_70:\n        /* \"#utility.yul\":2333:2339   */\n      0x00\n        /* \"#utility.yul\":2384:2386   */\n      0x1f\n        /* \"#utility.yul\":2380:2387   */\n      not\n        /* \"#utility.yul\":2375:2377   */\n      0x1f\n        /* \"#utility.yul\":2368:2373   */\n      dup4\n        /* \"#utility.yul\":2364:2378   */\n      add\n        /* \"#utility.yul\":2360:2388   */\n      and\n        /* \"#utility.yul\":2350:2388   */\n      swap1\n      pop\n        /* \"#utility.yul\":2292:2394   */\n      swap2\n      swap1\n      pop\n      jump\t// out\n        /* \"#utility.yul\":2400:2777   */\n    tag_71:\n        /* \"#utility.yul\":2488:2491   */\n      0x00\n        /* \"#utility.yul\":2516:2555   */\n      tag_134\n        /* \"#utility.yul\":2549:2554   */\n      dup3\n        /* \"#utility.yul\":2516:2555   */\n      tag_67\n      jump\t// in\n    tag_134:\n        /* \"#utility.yul\":2571:2642   */\n      tag_135\n        /* \"#utility.yul\":2635:2641   */\n      dup2\n        /* \"#utility.yul\":2630:2633   */\n      dup6\n        /* \"#utility.yul\":2571:2642   */\n      tag_68\n      jump\t// in\n    tag_135:\n        /* \"#utility.yul\":2564:2642   */\n      swap4\n      pop\n        /* \"#utility.yul\":2651:2716   */\n      tag_136\n        /* \"#utility.yul\":2709:2715   */\n      dup2\n        /* \"#utility.yul\":2704:2707   */\n      dup6\n        /* \"#utility.yul\":2697:2701   */\n      0x20\n        /* \"#utility.yul\":2690:2695   */\n      dup7\n        /* \"#utility.yul\":2686:2702   */\n      add\n        /* \"#utility.yul\":2651:2716   */\n      tag_69\n      jump\t// in\n    tag_136:\n        /* \"#utility.yul\":2741:2770   */\n      tag_137\n        /* \"#utility.yul\":2763:2769   */\n      dup2\n        /* \"#utility.yul\":2741:2770   */\n      tag_70\n      jump\t// in\n    tag_137:\n        /* \"#utility.yul\":2736:2739   */\n      dup5\n        /* \"#utility.yul\":2732:2771   */\n      add\n        /* \"#utility.yul\":2725:2771   */\n      swap2\n      pop\n        /* \"#utility.yul\":2492:2777   */\n      pop\n        /* \"#utility.yul\":2400:2777   */\n      swap3\n      swap2\n      pop\n      pop\n      jump\t// out\n        /* \"#utility.yul\":2783:2901   */\n    tag_72:\n        /* \"#utility.yul\":2870:2894   */\n      tag_139\n        /* \"#utility.yul\":2888:2893   */\n      dup2\n        /* \"#utility.yul\":2870:2894   */\n      tag_60\n      jump\t// in\n    tag_139:\n        /* \"#utility.yul\":2865:2868   */\n      dup3\n        /* \"#utility.yul\":2858:2895   */\n      mstore\n        /* \"#utility.yul\":2783:2901   */\n      pop\n      pop\n      jump\t// out\n        /* \"#utility.yul\":2907:3440   */\n    tag_17:\n        /* \"#utility.yul\":3076:3080   */\n      0x00\n        /* \"#utility.yul\":3114:3116   */\n      0x60\n        /* \"#utility.yul\":3103:3112   */\n      dup3\n        /* \"#utility.yul\":3099:3117   */\n      add\n        /* \"#utility.yul\":3091:3117   */\n      swap1\n      pop\n        /* \"#utility.yul\":3163:3172   */\n      dup2\n        /* \"#utility.yul\":3157:3161   */\n      dup2\n        /* \"#utility.yul\":3153:3173   */\n      sub\n        /* \"#utility.yul\":3149:3150   */\n      0x00\n        /* \"#utility.yul\":3138:3147   */\n      dup4\n        /* \"#utility.yul\":3134:3151   */\n      add\n        /* \"#utility.yul\":3127:3174   */\n      mstore\n        /* \"#utility.yul\":3191:3269   */\n      tag_141\n        /* \"#utility.yul\":3264:3268   */\n      dup2\n        /* \"#utility.yul\":3255:3261   */\n      dup7\n        /* \"#utility.yul\":3191:3269   */\n      tag_71\n      jump\t// in\n    tag_141:\n        /* \"#utility.yul\":3183:3269   */\n      swap1\n      pop\n        /* \"#utility.yul\":3279:3351   */\n      tag_142\n        /* \"#utility.yul\":3347:3349   */\n      0x20\n        /* \"#utility.yul\":3336:3345   */\n      dup4\n        /* \"#utility.yul\":3332:3350   */\n      add\n        /* \"#utility.yul\":3323:3329   */\n      dup6\n        /* \"#utility.yul\":3279:3351   */\n      tag_72\n      jump\t// in\n    tag_142:\n        /* \"#utility.yul\":3361:3433   */\n      tag_143\n        /* \"#utility.yul\":3429:3431   */\n      0x40\n        /* \"#utility.yul\":3418:3427   */\n      dup4\n        /* \"#utility.yul\":3414:3432   */\n      add\n        /* \"#utility.yul\":3405:3411   */\n      dup5\n        /* \"#utility.yul\":3361:3433   */\n      tag_72\n      jump\t// in\n    tag_143:\n        /* \"#utility.yul\":2907:3440   */\n      swap5\n      swap4\n      pop\n      pop\n      pop\n      pop\n      jump\t// out\n        /* \"#utility.yul\":3446:3563   */\n    tag_73:\n        /* \"#utility.yul\":3555:3556   */\n      0x00\n        /* \"#utility.yul\":3552:3553   */\n      0x00\n        /* \"#utility.yul\":3545:3557   */\n      revert\n        /* \"#utility.yul\":3569:3686   */\n    tag_74:\n        /* \"#utility.yul\":3678:3679   */\n      0x00\n        /* \"#utility.yul\":3675:3676   */\n      0x00\n        /* \"#utility.yul\":3668:3680   */\n      revert\n        /* \"#utility.yul\":3692:3872   */\n    tag_75:\n        /* \"#utility.yul\":3740:3817   */\n      0x4e487b7100000000000000000000000000000000000000000000000000000000\n        /* \"#utility.yul\":3737:3738   */\n      0x00\n        /* \"#utility.yul\":3730:3818   */\n      mstore\n        /* \"#utility.yul\":3837:3841   */\n      0x41\n        /* \"#utility.yul\":3834:3835   */\n      0x04\n        /* \"#utility.yul\":3827:3842   */\n      mstore\n        /* \"#utility.yul\":3861:3865   */\n      0x24\n        /* \"#utility.yul\":3858:3859   */\n      0x00\n        /* \"#utility.yul\":3851:3866   */\n      revert\n        /* \"#utility.yul\":3878:4159   */\n    tag_76:\n        /* \"#utility.yul\":3961:3988   */\n      tag_148\n        /* \"#utility.yul\":3983:3987   */\n      dup3\n        /* \"#utility.yul\":3961:3988   */\n      tag_70\n      jump\t// in\n    tag_148:\n        /* \"#utility.yul\":3953:3959   */\n      dup2\n        /* \"#utility.yul\":3949:3989   */\n      add\n        /* \"#utility.yul\":4091:4097   */\n      dup2\n        /* \"#utility.yul\":4079:4089   */\n      dup2\n        /* \"#utility.yul\":4076:4098   */\n      lt\n        /* \"#utility.yul\":4055:4073   */\n      0xffffffffffffffff\n        /* \"#utility.yul\":4043:4053   */\n      dup3\n        /* \"#utility.yul\":4040:4074   */\n      gt\n        /* \"#utility.yul\":4037:4099   */\n      or\n        /* \"#utility.yul\":4034:4122   */\n      iszero\n      tag_149\n      jumpi\n        /* \"#utility.yul\":4102:4120   */\n      tag_150\n      tag_75\n      jump\t// in\n    tag_150:\n        /* \"#utility.yul\":4034:4122   */\n    tag_149:\n        /* \"#utility.yul\":4142:4152   */\n      dup1\n        /* \"#utility.yul\":4138:4140   */\n      0x40\n        /* \"#utility.yul\":4131:4153   */\n      mstore\n        /* \"#utility.yul\":3921:4159   */\n      pop\n        /* \"#utility.yul\":3878:4159   */\n      pop\n      pop\n      jump\t// out\n        /* \"#utility.yul\":4165:4294   */\n    tag_77:\n        /* \"#utility.yul\":4199:4205   */\n      0x00\n        /* \"#utility.yul\":4226:4246   */\n      tag_152\n      tag_57\n      jump\t// in\n    tag_152:\n        /* \"#utility.yul\":4216:4246   */\n      swap1\n      pop\n        /* \"#utility.yul\":4255:4288   */\n      tag_153\n        /* \"#utility.yul\":4283:4287   */\n      dup3\n        /* \"#utility.yul\":4275:4281   */\n      dup3\n        /* \"#utility.yul\":4255:4288   */\n      tag_76\n      jump\t// in\n    tag_153:\n        /* \"#utility.yul\":4165:4294   */\n      swap2\n      swap1\n      pop\n      jump\t// out\n        /* \"#utility.yul\":4300:4608   */\n    tag_78:\n        /* \"#utility.yul\":4362:4366   */\n      0x00\n        /* \"#utility.yul\":4452:4470   */\n      0xffffffffffffffff\n        /* \"#utility.yul\":4444:4450   */\n      dup3\n        /* \"#utility.yul\":4441:4471   */\n      gt\n        /* \"#utility.yul\":4438:4494   */\n      iszero\n      tag_155\n      jumpi\n        /* \"#utility.yul\":4474:4492   */\n      tag_156\n      tag_75\n      jump\t// in\n    tag_156:\n        /* \"#utility.yul\":4438:4494   */\n    tag_155:\n        /* \"#utility.yul\":4512:4541   */\n      tag_157\n        /* \"#utility.yul\":4534:4540   */\n      dup3\n        /* \"#utility.yul\":4512:4541   */\n      tag_70\n      jump\t// in\n    tag_157:\n        /* \"#utility.yul\":4504:4541   */\n      swap1\n      pop\n        /* \"#utility.yul\":4596:4600   */\n      0x20\n        /* \"#utility.yul\":4590:4594   */\n      dup2\n        /* \"#utility.yul\":4586:4601   */\n      add\n        /* \"#utility.yul\":4578:4601   */\n      swap1\n      pop\n        /* \"#utility.yul\":4300:4608   */\n      swap2\n      swap1\n      pop\n      jump\t// out\n        /* \"#utility.yul\":4614:4762   */\n    tag_79:\n        /* \"#utility.yul\":4712:4718   */\n      dup3\n        /* \"#utility.yul\":4707:4710   */\n      dup2\n        /* \"#utility.yul\":4702:4705   */\n      dup4\n        /* \"#utility.yul\":4689:4719   */\n      calldatacopy\n        /* \"#utility.yul\":4753:4754   */\n      0x00\n        /* \"#utility.yul\":4744:4750   */\n      dup4\n        /* \"#utility.yul\":4739:4742   */\n      dup4\n        /* \"#utility.yul\":4735:4751   */\n      add\n        /* \"#utility.yul\":4728:4755   */\n      mstore\n        /* \"#utility.yul\":4614:4762   */\n      pop\n      pop\n      pop\n      jump\t// out\n        /* \"#utility.yul\":4768:5193   */\n    tag_80:\n        /* \"#utility.yul\":4846:4851   */\n      0x00\n        /* \"#utility.yul\":4871:4937   */\n      tag_160\n        /* \"#utility.yul\":4887:4936   */\n      tag_161\n        /* \"#utility.yul\":4929:4935   */\n      dup5\n        /* \"#utility.yul\":4887:4936   */\n      tag_78\n      jump\t// in\n    tag_161:\n        /* \"#utility.yul\":4871:4937   */\n      tag_77\n      jump\t// in\n    tag_160:\n        /* \"#utility.yul\":4862:4937   */\n      swap1\n      pop\n        /* \"#utility.yul\":4960:4966   */\n      dup3\n        /* \"#utility.yul\":4953:4958   */\n      dup2\n        /* \"#utility.yul\":4946:4967   */\n      mstore\n        /* \"#utility.yul\":4998:5002   */\n      0x20\n        /* \"#utility.yul\":4991:4996   */\n      dup2\n        /* \"#utility.yul\":4987:5003   */\n      add\n        /* \"#utility.yul\":5036:5039   */\n      dup5\n        /* \"#utility.yul\":5027:5033   */\n      dup5\n        /* \"#utility.yul\":5022:5025   */\n      dup5\n        /* \"#utility.yul\":5018:5034   */\n      add\n        /* \"#utility.yul\":5015:5040   */\n      gt\n        /* \"#utility.yul\":5012:5124   */\n      iszero\n      tag_162\n      jumpi\n        /* \"#utility.yul\":5043:5122   */\n      tag_163\n      tag_74\n      jump\t// in\n    tag_163:\n        /* \"#utility.yul\":5012:5124   */\n    tag_162:\n        /* \"#utility.yul\":5133:5187   */\n      tag_164\n        /* \"#utility.yul\":5180:5186   */\n      dup5\n        /* \"#utility.yul\":5175:5178   */\n      dup3\n        /* \"#utility.yul\":5170:5173   */\n      dup6\n        /* \"#utility.yul\":5133:5187   */\n      tag_79\n      jump\t// in\n    tag_164:\n        /* \"#utility.yul\":4852:5193   */\n      pop\n        /* \"#utility.yul\":4768:5193   */\n      swap4\n      swap3\n      pop\n      pop\n      pop\n      jump\t// out\n        /* \"#utility.yul\":5213:5553   */\n    tag_81:\n        /* \"#utility.yul\":5269:5274   */\n      0x00\n        /* \"#utility.yul\":5318:5321   */\n      dup3\n        /* \"#utility.yul\":5311:5315   */\n      0x1f\n        /* \"#utility.yul\":5303:5309   */\n      dup4\n        /* \"#utility.yul\":5299:5316   */\n      add\n        /* \"#utility.yul\":5295:5322   */\n      slt\n        /* \"#utility.yul\":5285:5407   */\n      tag_166\n      jumpi\n        /* \"#utility.yul\":5326:5405   */\n      tag_167\n      tag_73\n      jump\t// in\n    tag_167:\n        /* \"#utility.yul\":5285:5407   */\n    tag_166:\n        /* \"#utility.yul\":5443:5449   */\n      dup2\n        /* \"#utility.yul\":5430:5450   */\n      calldataload\n        /* \"#utility.yul\":5468:5547   */\n      tag_168\n        /* \"#utility.yul\":5543:5546   */\n      dup5\n        /* \"#utility.yul\":5535:5541   */\n      dup3\n        /* \"#utility.yul\":5528:5532   */\n      0x20\n        /* \"#utility.yul\":5520:5526   */\n      dup7\n        /* \"#utility.yul\":5516:5533   */\n      add\n        /* \"#utility.yul\":5468:5547   */\n      tag_80\n      jump\t// in\n    tag_168:\n        /* \"#utility.yul\":5459:5547   */\n      swap2\n      pop\n        /* \"#utility.yul\":5275:5553   */\n      pop\n        /* \"#utility.yul\":5213:5553   */\n      swap3\n      swap2\n      pop\n      pop\n      jump\t// out\n        /* \"#utility.yul\":5559:6213   */\n    tag_20:\n        /* \"#utility.yul\":5637:5643   */\n      0x00\n        /* \"#utility.yul\":5645:5651   */\n      0x00\n        /* \"#utility.yul\":5694:5696   */\n      0x40\n        /* \"#utility.yul\":5682:5691   */\n      dup4\n        /* \"#utility.yul\":5673:5680   */\n      dup6\n        /* \"#utility.yul\":5669:5692   */\n      sub\n        /* \"#utility.yul\":5665:5697   */\n      slt\n        /* \"#utility.yul\":5662:5781   */\n      iszero\n      tag_170\n      jumpi\n        /* \"#utility.yul\":5700:5779   */\n      tag_171\n      tag_58\n      jump\t// in\n    tag_171:\n        /* \"#utility.yul\":5662:5781   */\n    tag_170:\n        /* \"#utility.yul\":5848:5849   */\n      0x00\n        /* \"#utility.yul\":5837:5846   */\n      dup4\n        /* \"#utility.yul\":5833:5850   */\n      add\n        /* \"#utility.yul\":5820:5851   */\n      calldataload\n        /* \"#utility.yul\":5878:5896   */\n      0xffffffffffffffff\n        /* \"#utility.yul\":5870:5876   */\n      dup2\n        /* \"#utility.yul\":5867:5897   */\n      gt\n        /* \"#utility.yul\":5864:5981   */\n      iszero\n      tag_172\n      jumpi\n        /* \"#utility.yul\":5900:5979   */\n      tag_173\n      tag_59\n      jump\t// in\n    tag_173:\n        /* \"#utility.yul\":5864:5981   */\n    tag_172:\n        /* \"#utility.yul\":6005:6068   */\n      tag_174\n        /* \"#utility.yul\":6060:6067   */\n      dup6\n        /* \"#utility.yul\":6051:6057   */\n      dup3\n        /* \"#utility.yul\":6040:6049   */\n      dup7\n        /* \"#utility.yul\":6036:6058   */\n      add\n        /* \"#utility.yul\":6005:6068   */\n      tag_81\n      jump\t// in\n    tag_174:\n        /* \"#utility.yul\":5995:6068   */\n      swap3\n      pop\n        /* \"#utility.yul\":5791:6078   */\n      pop\n        /* \"#utility.yul\":6117:6119   */\n      0x20\n        /* \"#utility.yul\":6143:6196   */\n      tag_175\n        /* \"#utility.yul\":6188:6195   */\n      dup6\n        /* \"#utility.yul\":6179:6185   */\n      dup3\n        /* \"#utility.yul\":6168:6177   */\n      dup7\n        /* \"#utility.yul\":6164:6186   */\n      add\n        /* \"#utility.yul\":6143:6196   */\n      tag_62\n      jump\t// in\n    tag_175:\n        /* \"#utility.yul\":6133:6196   */\n      swap2\n      pop\n        /* \"#utility.yul\":6088:6206   */\n      pop\n        /* \"#utility.yul\":5559:6213   */\n      swap3\n      pop\n      swap3\n      swap1\n      pop\n      jump\t// out\n        /* \"#utility.yul\":6219:6400   */\n    tag_82:\n        /* \"#utility.yul\":6359:6392   */\n      0x416d6f756e742073686f756c642062652067726561746572207468616e203000\n        /* \"#utility.yul\":6355:6356   */\n      0x00\n        /* \"#utility.yul\":6347:6353   */\n      dup3\n        /* \"#utility.yul\":6343:6357   */\n      add\n        /* \"#utility.yul\":6336:6393   */\n      mstore\n        /* \"#utility.yul\":6219:6400   */\n      pop\n      jump\t// out\n        /* \"#utility.yul\":6406:6772   */\n    tag_83:\n        /* \"#utility.yul\":6548:6551   */\n      0x00\n        /* \"#utility.yul\":6569:6636   */\n      tag_178\n        /* \"#utility.yul\":6633:6635   */\n      0x1f\n        /* \"#utility.yul\":6628:6631   */\n      dup4\n        /* \"#utility.yul\":6569:6636   */\n      tag_68\n      jump\t// in\n    tag_178:\n        /* \"#utility.yul\":6562:6636   */\n      swap2\n      pop\n        /* \"#utility.yul\":6645:6738   */\n      tag_179\n        /* \"#utility.yul\":6734:6737   */\n      dup3\n        /* \"#utility.yul\":6645:6738   */\n      tag_82\n      jump\t// in\n    tag_179:\n        /* \"#utility.yul\":6763:6765   */\n      0x20\n        /* \"#utility.yul\":6758:6761   */\n      dup3\n        /* \"#utility.yul\":6754:6766   */\n      add\n        /* \"#utility.yul\":6747:6766   */\n      swap1\n      pop\n        /* \"#utility.yul\":6406:6772   */\n      swap2\n      swap1\n      pop\n      jump\t// out\n        /* \"#utility.yul\":6778:7197   */\n    tag_31:\n        /* \"#utility.yul\":6944:6948   */\n      0x00\n        /* \"#utility.yul\":6982:6984   */\n      0x20\n        /* \"#utility.yul\":6971:6980   */\n      dup3\n        /* \"#utility.yul\":6967:6985   */\n      add\n        /* \"#utility.yul\":6959:6985   */\n      swap1\n      pop\n        /* \"#utility.yul\":7031:7040   */\n      dup2\n        /* \"#utility.yul\":7025:7029   */\n      dup2\n        /* \"#utility.yul\":7021:7041   */\n      sub\n        /* \"#utility.yul\":7017:7018   */\n      0x00\n        /* \"#utility.yul\":7006:7015   */\n      dup4\n        /* \"#utility.yul\":7002:7019   */\n      add\n        /* \"#utility.yul\":6995:7042   */\n      mstore\n        /* \"#utility.yul\":7059:7190   */\n      tag_181\n        /* \"#utility.yul\":7185:7189   */\n      dup2\n        /* \"#utility.yul\":7059:7190   */\n      tag_83\n      jump\t// in\n    tag_181:\n        /* \"#utility.yul\":7051:7190   */\n      swap1\n      pop\n        /* \"#utility.yul\":6778:7197   */\n      swap2\n      swap1\n      pop\n      jump\t// out\n        /* \"#utility.yul\":7203:7373   */\n    tag_84:\n        /* \"#utility.yul\":7343:7365   */\n      0x496e73756666696369656e742062616c616e6365000000000000000000000000\n        /* \"#utility.yul\":7339:7340   */\n      0x00\n        /* \"#utility.yul\":7331:7337   */\n      dup3\n        /* \"#utility.yul\":7327:7341   */\n      add\n        /* \"#utility.yul\":7320:7366   */\n      mstore\n        /* \"#utility.yul\":7203:7373   */\n      pop\n      jump\t// out\n        /* \"#utility.yul\":7379:7745   */\n    tag_85:\n        /* \"#utility.yul\":7521:7524   */\n      0x00\n        /* \"#utility.yul\":7542:7609   */\n      tag_184\n        /* \"#utility.yul\":7606:7608   */\n      0x14\n        /* \"#utility.yul\":7601:7604   */\n      dup4\n        /* \"#utility.yul\":7542:7609   */\n      tag_68\n      jump\t// in\n    tag_184:\n        /* \"#utility.yul\":7535:7609   */\n      swap2\n      pop\n        /* \"#utility.yul\":7618:7711   */\n      tag_185\n        /* \"#utility.yul\":7707:7710   */\n      dup3\n        /* \"#utility.yul\":7618:7711   */\n      tag_84\n      jump\t// in\n    tag_185:\n        /* \"#utility.yul\":7736:7738   */\n      0x20\n        /* \"#utility.yul\":7731:7734   */\n      dup3\n        /* \"#utility.yul\":7727:7739   */\n      add\n        /* \"#utility.yul\":7720:7739   */\n      swap1\n      pop\n        /* \"#utility.yul\":7379:7745   */\n      swap2\n      swap1\n      pop\n      jump\t// out\n        /* \"#utility.yul\":7751:8170   */\n    tag_34:\n        /* \"#utility.yul\":7917:7921   */\n      0x00\n        /* \"#utility.yul\":7955:7957   */\n      0x20\n        /* \"#utility.yul\":7944:7953   */\n      dup3\n        /* \"#utility.yul\":7940:7958   */\n      add\n        /* \"#utility.yul\":7932:7958   */\n      swap1\n      pop\n        /* \"#utility.yul\":8004:8013   */\n      dup2\n        /* \"#utility.yul\":7998:8002   */\n      dup2\n        /* \"#utility.yul\":7994:8014   */\n      sub\n        /* \"#utility.yul\":7990:7991   */\n      0x00\n        /* \"#utility.yul\":7979:7988   */\n      dup4\n        /* \"#utility.yul\":7975:7992   */\n      add\n        /* \"#utility.yul\":7968:8015   */\n      mstore\n        /* \"#utility.yul\":8032:8163   */\n      tag_187\n        /* \"#utility.yul\":8158:8162   */\n      dup2\n        /* \"#utility.yul\":8032:8163   */\n      tag_85\n      jump\t// in\n    tag_187:\n        /* \"#utility.yul\":8024:8163   */\n      swap1\n      pop\n        /* \"#utility.yul\":7751:8170   */\n      swap2\n      swap1\n      pop\n      jump\t// out\n        /* \"#utility.yul\":8176:8356   */\n    tag_86:\n        /* \"#utility.yul\":8224:8301   */\n      0x4e487b7100000000000000000000000000000000000000000000000000000000\n        /* \"#utility.yul\":8221:8222   */\n      0x00\n        /* \"#utility.yul\":8214:8302   */\n      mstore\n        /* \"#utility.yul\":8321:8325   */\n      0x11\n        /* \"#utility.yul\":8318:8319   */\n      0x04\n        /* \"#utility.yul\":8311:8326   */\n      mstore\n        /* \"#utility.yul\":8345:8349   */\n      0x24\n        /* \"#utility.yul\":8342:8343   */\n      0x00\n        /* \"#utility.yul\":8335:8350   */\n      revert\n        /* \"#utility.yul\":8362:8556   */\n    tag_36:\n        /* \"#utility.yul\":8402:8406   */\n      0x00\n        /* \"#utility.yul\":8422:8442   */\n      tag_190\n        /* \"#utility.yul\":8440:8441   */\n      dup3\n        /* \"#utility.yul\":8422:8442   */\n      tag_60\n      jump\t// in\n    tag_190:\n        /* \"#utility.yul\":8417:8442   */\n      swap2\n      pop\n        /* \"#utility.yul\":8456:8476   */\n      tag_191\n        /* \"#utility.yul\":8474:8475   */\n      dup4\n        /* \"#utility.yul\":8456:8476   */\n      tag_60\n      jump\t// in\n    tag_191:\n        /* \"#utility.yul\":8451:8476   */\n      swap3\n      pop\n        /* \"#utility.yul\":8500:8501   */\n      dup3\n        /* \"#utility.yul\":8497:8498   */\n      dup3\n        /* \"#utility.yul\":8493:8502   */\n      sub\n        /* \"#utility.yul\":8485:8502   */\n      swap1\n      pop\n        /* \"#utility.yul\":8524:8525   */\n      dup2\n        /* \"#utility.yul\":8518:8522   */\n      dup2\n        /* \"#utility.yul\":8515:8526   */\n      gt\n        /* \"#utility.yul\":8512:8549   */\n      iszero\n      tag_192\n      jumpi\n        /* \"#utility.yul\":8529:8547   */\n      tag_193\n      tag_86\n      jump\t// in\n    tag_193:\n        /* \"#utility.yul\":8512:8549   */\n    tag_192:\n        /* \"#utility.yul\":8362:8556   */\n      swap3\n      swap2\n      pop\n      pop\n      jump\t// out\n        /* \"#utility.yul\":8562:8742   */\n    tag_87:\n        /* \"#utility.yul\":8610:8687   */\n      0x4e487b7100000000000000000000000000000000000000000000000000000000\n        /* \"#utility.yul\":8607:8608   */\n      0x00\n        /* \"#utility.yul\":8600:8688   */\n      mstore\n        /* \"#utility.yul\":8707:8711   */\n      0x22\n        /* \"#utility.yul\":8704:8705   */\n      0x04\n        /* \"#utility.yul\":8697:8712   */\n      mstore\n        /* \"#utility.yul\":8731:8735   */\n      0x24\n        /* \"#utility.yul\":8728:8729   */\n      0x00\n        /* \"#utility.yul\":8721:8736   */\n      revert\n        /* \"#utility.yul\":8748:9068   */\n    tag_38:\n        /* \"#utility.yul\":8792:8798   */\n      0x00\n        /* \"#utility.yul\":8829:8830   */\n      0x02\n        /* \"#utility.yul\":8823:8827   */\n      dup3\n        /* \"#utility.yul\":8819:8831   */\n      div\n        /* \"#utility.yul\":8809:8831   */\n      swap1\n      pop\n        /* \"#utility.yul\":8876:8877   */\n      0x01\n        /* \"#utility.yul\":8870:8874   */\n      dup3\n        /* \"#utility.yul\":8866:8878   */\n      and\n        /* \"#utility.yul\":8897:8915   */\n      dup1\n        /* \"#utility.yul\":8887:8968   */\n      tag_196\n      jumpi\n        /* \"#utility.yul\":8953:8957   */\n      0x7f\n        /* \"#utility.yul\":8945:8951   */\n      dup3\n        /* \"#utility.yul\":8941:8958   */\n      and\n        /* \"#utility.yul\":8931:8958   */\n      swap2\n      pop\n        /* \"#utility.yul\":8887:8968   */\n    tag_196:\n        /* \"#utility.yul\":9015:9017   */\n      0x20\n        /* \"#utility.yul\":9007:9013   */\n      dup3\n        /* \"#utility.yul\":9004:9018   */\n      lt\n        /* \"#utility.yul\":8984:9002   */\n      dup2\n        /* \"#utility.yul\":8981:9019   */\n      sub\n        /* \"#utility.yul\":8978:9062   */\n      tag_197\n      jumpi\n        /* \"#utility.yul\":9034:9052   */\n      tag_198\n      tag_87\n      jump\t// in\n    tag_198:\n        /* \"#utility.yul\":8978:9062   */\n    tag_197:\n        /* \"#utility.yul\":8799:9068   */\n      pop\n        /* \"#utility.yul\":8748:9068   */\n      swap2\n      swap1\n      pop\n      jump\t// out\n        /* \"#utility.yul\":9074:9215   */\n    tag_88:\n        /* \"#utility.yul\":9123:9127   */\n      0x00\n        /* \"#utility.yul\":9146:9149   */\n      dup2\n        /* \"#utility.yul\":9138:9149   */\n      swap1\n      pop\n        /* \"#utility.yul\":9169:9172   */\n      dup2\n        /* \"#utility.yul\":9166:9167   */\n      0x00\n        /* \"#utility.yul\":9159:9173   */\n      mstore\n        /* \"#utility.yul\":9203:9207   */\n      0x20\n        /* \"#utility.yul\":9200:9201   */\n      0x00\n        /* \"#utility.yul\":9190:9208   */\n      keccak256\n        /* \"#utility.yul\":9182:9208   */\n      swap1\n      pop\n        /* \"#utility.yul\":9074:9215   */\n      swap2\n      swap1\n      pop\n      jump\t// out\n        /* \"#utility.yul\":9221:9314   */\n    tag_89:\n        /* \"#utility.yul\":9258:9264   */\n      0x00\n        /* \"#utility.yul\":9305:9307   */\n      0x20\n        /* \"#utility.yul\":9300:9302   */\n      0x1f\n        /* \"#utility.yul\":9293:9298   */\n      dup4\n        /* \"#utility.yul\":9289:9303   */\n      add\n        /* \"#utility.yul\":9285:9308   */\n      div\n        /* \"#utility.yul\":9275:9308   */\n      swap1\n      pop\n        /* \"#utility.yul\":9221:9314   */\n      swap2\n      swap1\n      pop\n      jump\t// out\n        /* \"#utility.yul\":9320:9427   */\n    tag_90:\n        /* \"#utility.yul\":9364:9372   */\n      0x00\n        /* \"#utility.yul\":9414:9419   */\n      dup3\n        /* \"#utility.yul\":9408:9412   */\n      dup3\n        /* \"#utility.yul\":9404:9420   */\n      shl\n        /* \"#utility.yul\":9383:9420   */\n      swap1\n      pop\n        /* \"#utility.yul\":9320:9427   */\n      swap3\n      swap2\n      pop\n      pop\n      jump\t// out\n        /* \"#utility.yul\":9433:9826   */\n    tag_91:\n        /* \"#utility.yul\":9502:9508   */\n      0x00\n        /* \"#utility.yul\":9552:9553   */\n      0x08\n        /* \"#utility.yul\":9540:9550   */\n      dup4\n        /* \"#utility.yul\":9536:9554   */\n      mul\n        /* \"#utility.yul\":9575:9672   */\n      tag_203\n        /* \"#utility.yul\":9605:9671   */\n      0xffffffffffffffffffffffffffffffffffffffffffffffffffffffffffffffff\n        /* \"#utility.yul\":9594:9603   */\n      dup3\n        /* \"#utility.yul\":9575:9672   */\n      tag_90\n      jump\t// in\n    tag_203:\n        /* \"#utility.yul\":9693:9732   */\n      tag_204\n        /* \"#utility.yul\":9723:9731   */\n      dup7\n        /* \"#utility.yul\":9712:9721   */\n      dup4\n        /* \"#utility.yul\":9693:9732   */\n      tag_90\n      jump\t// in\n    tag_204:\n        /* \"#utility.yul\":9681:9732   */\n      swap6\n      pop\n        /* \"#utility.yul\":9765:9769   */\n      dup1\n        /* \"#utility.yul\":9761:9770   */\n      not\n        /* \"#utility.yul\":9754:9759   */\n      dup5\n        /* \"#utility.yul\":9750:9771   */\n      and\n        /* \"#utility.yul\":9741:9771   */\n      swap4\n      pop\n        /* \"#utility.yul\":9814:9818   */\n      dup1\n        /* \"#utility.yul\":9804:9812   */\n      dup7\n        /* \"#utility.yul\":9800:9819   */\n      and\n        /* \"#utility.yul\":9793:9798   */\n      dup5\n        /* \"#utility.yul\":9790:9820   */\n      or\n        /* \"#utility.yul\":9780:9820   */\n      swap3\n      pop\n        /* \"#utility.yul\":9509:9826   */\n      pop\n      pop\n        /* \"#utility.yul\":9433:9826   */\n      swap4\n      swap3\n      pop\n      pop\n      pop\n      jump\t// out\n        /* \"#utility.yul\":9832:9892   */\n    tag_92:\n        /* \"#utility.yul\":9860:9863   */\n      0x00\n        /* \"#utility.yul\":9881:9886   */\n      dup2\n        /* \"#utility.yul\":9874:9886   */\n      swap1\n      pop\n        /* \"#utility.yul\":9832:9892   */\n      swap2\n      swap1\n      pop\n      jump\t// out\n        /* \"#utility.yul\":9898:10040   */\n    tag_93:\n        /* \"#utility.yul\":9948:9957   */\n      0x00\n        /* \"#utility.yul\":9981:10034   */\n      tag_207\n        /* \"#utility.yul\":9999:10033   */\n      tag_208\n        /* \"#utility.yul\":10008:10032   */\n      tag_209\n        /* \"#utility.yul\":10026:10031   */\n      dup5\n        /* \"#utility.yul\":10008:10032   */\n      tag_60\n      jump\t// in\n    tag_209:\n        /* \"#utility.yul\":9999:10033   */\n      tag_92\n      jump\t// in\n    tag_208:\n        /* \"#utility.yul\":9981:10034   */\n      tag_60\n      jump\t// in\n    tag_207:\n        /* \"#utility.yul\":9968:10034   */\n      swap1\n      pop\n        /* \"#utility.yul\":9898:10040   */\n      swap2\n      swap1\n      pop\n      jump\t// out\n        /* \"#utility.yul\":10046:10121   */\n    tag_94:\n        /* \"#utility.yul\":10089:10092   */\n      0x00\n        /* \"#utility.yul\":10110:10115   */\n      dup2\n        /* \"#utility.yul\":10103:10115   */\n      swap1\n      pop\n        /* \"#utility.yul\":10046:10121   */\n      swap2\n      swap1\n      pop\n      jump\t// out\n        /* \"#utility.yul\":10127:10396   */\n    tag_95:\n        /* \"#utility.yul\":10237:10276   */\n      tag_212\n        /* \"#utility.yul\":10268:10275   */\n      dup4\n        /* \"#utility.yul\":10237:10276   */\n      tag_93\n      jump\t// in\n    tag_212:\n        /* \"#utility.yul\":10298:10389   */\n      tag_213\n        /* \"#utility.yul\":10347:10388   */\n      tag_214\n        /* \"#utility.yul\":10371:10387   */\n      dup3\n        /* \"#utility.yul\":10347:10388   */\n      tag_94\n      jump\t// in\n    tag_214:\n        /* \"#utility.yul\":10339:10345   */\n      dup5\n        /* \"#utility.yul\":10332:10336   */\n      dup5\n        /* \"#utility.yul\":10326:10337   */\n      sload\n        /* \"#utility.yul\":10298:10389   */\n      tag_91\n      jump\t// in\n    tag_213:\n        /* \"#utility.yul\":10292:10296   */\n      dup3\n        /* \"#utility.yul\":10285:10390   */\n      sstore\n        /* \"#utility.yul\":10203:10396   */\n      pop\n        /* \"#utility.yul\":10127:10396   */\n      pop\n      pop\n      pop\n      jump\t// out\n        /* \"#utility.yul\":10402:10475   */\n    tag_96:\n        /* \"#utility.yul\":10447:10450   */\n      0x00\n        /* \"#utility.yul\":10468:10469   */\n      0x00\n        /* \"#utility.yul\":10461:10469   */\n      swap1\n      pop\n        /* \"#utility.yul\":10402:10475   */\n      swap1\n      jump\t// out\n        /* \"#utility.yul\":10481:10670   */\n    tag_97:\n        /* \"#utility.yul\":10558:10590   */\n      tag_217\n      tag_96\n      jump\t// in\n    tag_217:\n        /* \"#utility.yul\":10599:10664   */\n      tag_218\n        /* \"#utility.yul\":10657:10663   */\n      dup2\n        /* \"#utility.yul\":10649:10655   */\n      dup5\n        /* \"#utility.yul\":10643:10647   */\n      dup5\n        /* \"#utility.yul\":10599:10664   */\n      tag_95\n      jump\t// in\n    tag_218:\n        /* \"#utility.yul\":10534:10670   */\n      pop\n        /* \"#utility.yul\":10481:10670   */\n      pop\n      pop\n      jump\t// out\n        /* \"#utility.yul\":10676:10862   */\n    tag_98:\n        /* \"#utility.yul\":10736:10856   */\n    tag_220:\n        /* \"#utility.yul\":10753:10756   */\n      dup2\n        /* \"#utility.yul\":10746:10751   */\n      dup2\n        /* \"#utility.yul\":10743:10757   */\n      lt\n        /* \"#utility.yul\":10736:10856   */\n      iszero\n      tag_222\n      jumpi\n        /* \"#utility.yul\":10807:10846   */\n      tag_223\n        /* \"#utility.yul\":10844:10845   */\n      0x00\n        /* \"#utility.yul\":10837:10842   */\n      dup3\n        /* \"#utility.yul\":10807:10846   */\n      tag_97\n      jump\t// in\n    tag_223:\n        /* \"#utility.yul\":10780:10781   */\n      0x01\n        /* \"#utility.yul\":10773:10778   */\n      dup2\n        /* \"#utility.yul\":10769:10782   */\n      add\n        /* \"#utility.yul\":10760:10782   */\n      swap1\n      pop\n        /* \"#utility.yul\":10736:10856   */\n      jump(tag_220)\n    tag_222:\n        /* \"#utility.yul\":10676:10862   */\n      pop\n      pop\n      jump\t// out\n        /* \"#utility.yul\":10868:11411   */\n    tag_99:\n        /* \"#utility.yul\":10969:10971   */\n      0x1f\n        /* \"#utility.yul\":10964:10967   */\n      dup3\n        /* \"#utility.yul\":10961:10972   */\n      gt\n        /* \"#utility.yul\":10958:11404   */\n      iszero\n      tag_225\n      jumpi\n        /* \"#utility.yul\":11003:11041   */\n      tag_226\n        /* \"#utility.yul\":11035:11040   */\n      dup2\n        /* \"#utility.yul\":11003:11041   */\n      tag_88\n      jump\t// in\n    tag_226:\n        /* \"#utility.yul\":11087:11116   */\n      tag_227\n        /* \"#utility.yul\":11105:11115   */\n      dup5\n        /* \"#utility.yul\":11087:11116   */\n      tag_89\n      jump\t// in\n    tag_227:\n        /* \"#utility.yul\":11077:11085   */\n      dup2\n        /* \"#utility.yul\":11073:11117   */\n      add\n        /* \"#utility.yul\":11270:11272   */\n      0x20\n        /* \"#utility.yul\":11258:11268   */\n      dup6\n        /* \"#utility.yul\":11255:11273   */\n      lt\n        /* \"#utility.yul\":11252:11301   */\n      iszero\n      tag_228\n      jumpi\n        /* \"#utility.yul\":11291:11299   */\n      dup2\n        /* \"#utility.yul\":11276:11299   */\n      swap1\n      pop\n        /* \"#utility.yul\":11252:11301   */\n    tag_228:\n        /* \"#utility.yul\":11314:11394   */\n      tag_229\n        /* \"#utility.yul\":11370:11392   */\n      tag_230\n        /* \"#utility.yul\":11388:11391   */\n      dup6\n        /* \"#utility.yul\":11370:11392   */\n      tag_89\n      jump\t// in\n    tag_230:\n        /* \"#utility.yul\":11360:11368   */\n      dup4\n        /* \"#utility.yul\":11356:11393   */\n      add\n        /* \"#utility.yul\":11343:11354   */\n      dup3\n        /* \"#utility.yul\":11314:11394   */\n      tag_98\n      jump\t// in\n    tag_229:\n        /* \"#utility.yul\":10973:11404   */\n      pop\n      pop\n        /* \"#utility.yul\":10958:11404   */\n    tag_225:\n        /* \"#utility.yul\":10868:11411   */\n      pop\n      pop\n      pop\n      jump\t// out\n        /* \"#utility.yul\":11417:11534   */\n    tag_100:\n        /* \"#utility.yul\":11471:11479   */\n      0x00\n        /* \"#utility.yul\":11521:11526   */\n      dup3\n        /* \"#utility.yul\":11515:11519   */\n      dup3\n        /* \"#utility.yul\":11511:11527   */\n      shr\n        /* \"#utility.yul\":11490:11527   */\n      swap1\n      pop\n        /* \"#utility.yul\":11417:11534   */\n      swap3\n      swap2\n      pop\n      pop\n      jump\t// out\n        /* \"#utility.yul\":11540:11709   */\n    tag_101:\n        /* \"#utility.yul\":11584:11590   */\n      0x00\n        /* \"#utility.yul\":11617:11668   */\n      tag_233\n        /* \"#utility.yul\":11665:11666   */\n      0x00\n        /* \"#utility.yul\":11661:11667   */\n      not\n        /* \"#utility.yul\":11653:11658   */\n      dup5\n        /* \"#utility.yul\":11650:11651   */\n      0x08\n        /* \"#utility.yul\":11646:11659   */\n      mul\n        /* \"#utility.yul\":11617:11668   */\n      tag_100\n      jump\t// in\n    tag_233:\n        /* \"#utility.yul\":11613:11669   */\n      not\n        /* \"#utility.yul\":11698:11702   */\n      dup1\n        /* \"#utility.yul\":11692:11696   */\n      dup4\n        /* \"#utility.yul\":11688:11703   */\n      and\n        /* \"#utility.yul\":11678:11703   */\n      swap2\n      pop\n        /* \"#utility.yul\":11591:11709   */\n      pop\n        /* \"#utility.yul\":11540:11709   */\n      swap3\n      swap2\n      pop\n      pop\n      jump\t// out\n        /* \"#utility.yul\":11714:12009   */\n    tag_102:\n        /* \"#utility.yul\":11790:11794   */\n      0x00\n        /* \"#utility.yul\":11936:11965   */\n      tag_235\n        /* \"#utility.yul\":11961:11964   */\n      dup4\n        /* \"#utility.yul\":11955:11959   */\n      dup4\n        /* \"#utility.yul\":11936:11965   */\n      tag_101\n      jump\t// in\n    tag_235:\n        /* \"#utility.yul\":11928:11965   */\n      swap2\n      pop\n        /* \"#utility.yul\":11998:12001   */\n      dup3\n        /* \"#utility.yul\":11995:11996   */\n      0x02\n        /* \"#utility.yul\":11991:12002   */\n      mul\n        /* \"#utility.yul\":11985:11989   */\n      dup3\n        /* \"#utility.yul\":11982:12003   */\n      or\n        /* \"#utility.yul\":11974:12003   */\n      swap1\n      pop\n        /* \"#utility.yul\":11714:12009   */\n      swap3\n      swap2\n      pop\n      pop\n      jump\t// out\n        /* \"#utility.yul\":12014:13409   */\n    tag_45:\n        /* \"#utility.yul\":12131:12168   */\n      tag_237\n        /* \"#utility.yul\":12164:12167   */\n      dup3\n        /* \"#utility.yul\":12131:12168   */\n      tag_67\n      jump\t// in\n    tag_237:\n        /* \"#utility.yul\":12233:12251   */\n      0xffffffffffffffff\n        /* \"#utility.yul\":12225:12231   */\n      dup2\n        /* \"#utility.yul\":12222:12252   */\n      gt\n        /* \"#utility.yul\":12219:12275   */\n      iszero\n      tag_238\n      jumpi\n        /* \"#utility.yul\":12255:12273   */\n      tag_239\n      tag_75\n      jump\t// in\n    tag_239:\n        /* \"#utility.yul\":12219:12275   */\n    tag_238:\n        /* \"#utility.yul\":12299:12337   */\n      tag_240\n        /* \"#utility.yul\":12331:12335   */\n      dup3\n        /* \"#utility.yul\":12325:12336   */\n      sload\n        /* \"#utility.yul\":12299:12337   */\n      tag_38\n      jump\t// in\n    tag_240:\n        /* \"#utility.yul\":12384:12451   */\n      tag_241\n        /* \"#utility.yul\":12444:12450   */\n      dup3\n        /* \"#utility.yul\":12436:12442   */\n      dup3\n        /* \"#utility.yul\":12430:12434   */\n      dup6\n        /* \"#utility.yul\":12384:12451   */\n      tag_99\n      jump\t// in\n    tag_241:\n        /* \"#utility.yul\":12478:12479   */\n      0x00\n        /* \"#utility.yul\":12502:12506   */\n      0x20\n        /* \"#utility.yul\":12489:12506   */\n      swap1\n      pop\n        /* \"#utility.yul\":12534:12536   */\n      0x1f\n        /* \"#utility.yul\":12526:12532   */\n      dup4\n        /* \"#utility.yul\":12523:12537   */\n      gt\n        /* \"#utility.yul\":12551:12552   */\n      0x01\n        /* \"#utility.yul\":12546:13164   */\n      dup2\n      eq\n      tag_243\n      jumpi\n        /* \"#utility.yul\":13208:13209   */\n      0x00\n        /* \"#utility.yul\":13225:13231   */\n      dup5\n        /* \"#utility.yul\":13222:13299   */\n      iszero\n      tag_244\n      jumpi\n        /* \"#utility.yul\":13274:13283   */\n      dup3\n        /* \"#utility.yul\":13269:13272   */\n      dup8\n        /* \"#utility.yul\":13265:13284   */\n      add\n        /* \"#utility.yul\":13259:13285   */\n      mload\n        /* \"#utility.yul\":13250:13285   */\n      swap1\n      pop\n        /* \"#utility.yul\":13222:13299   */\n    tag_244:\n        /* \"#utility.yul\":13325:13392   */\n      tag_245\n        /* \"#utility.yul\":13385:13391   */\n      dup6\n        /* \"#utility.yul\":13378:13383   */\n      dup3\n        /* \"#utility.yul\":13325:13392   */\n      tag_102\n      jump\t// in\n    tag_245:\n        /* \"#utility.yul\":13319:13323   */\n      dup7\n        /* \"#utility.yul\":13312:13393   */\n      sstore\n        /* \"#utility.yul\":13181:13403   */\n      pop\n        /* \"#utility.yul\":12516:13403   */\n      jump(tag_242)\n        /* \"#utility.yul\":12546:13164   */\n    tag_243:\n        /* \"#utility.yul\":12598:12602   */\n      0x1f\n        /* \"#utility.yul\":12594:12603   */\n      not\n        /* \"#utility.yul\":12586:12592   */\n      dup5\n        /* \"#utility.yul\":12582:12604   */\n      and\n        /* \"#utility.yul\":12632:12669   */\n      tag_246\n        /* \"#utility.yul\":12664:12668   */\n      dup7\n        /* \"#utility.yul\":12632:12669   */\n      tag_88\n      jump\t// in\n    tag_246:\n        /* \"#utility.yul\":12691:12692   */\n      0x00\n        /* \"#utility.yul\":12705:12913   */\n    tag_247:\n        /* \"#utility.yul\":12719:12726   */\n      dup3\n        /* \"#utility.yul\":12716:12717   */\n      dup2\n        /* \"#utility.yul\":12713:12727   */\n      lt\n        /* \"#utility.yul\":12705:12913   */\n      iszero\n      tag_249\n      jumpi\n        /* \"#utility.yul\":12798:12807   */\n      dup5\n        /* \"#utility.yul\":12793:12796   */\n      dup10\n        /* \"#utility.yul\":12789:12808   */\n      add\n        /* \"#utility.yul\":12783:12809   */\n      mload\n        /* \"#utility.yul\":12775:12781   */\n      dup3\n        /* \"#utility.yul\":12768:12810   */\n      sstore\n        /* \"#utility.yul\":12849:12850   */\n      0x01\n        /* \"#utility.yul\":12841:12847   */\n      dup3\n        /* \"#utility.yul\":12837:12851   */\n      add\n        /* \"#utility.yul\":12827:12851   */\n      swap2\n      pop\n        /* \"#utility.yul\":12896:12898   */\n      0x20\n        /* \"#utility.yul\":12885:12894   */\n      dup6\n        /* \"#utility.yul\":12881:12899   */\n      add\n        /* \"#utility.yul\":12868:12899   */\n      swap5\n      pop\n        /* \"#utility.yul\":12742:12746   */\n      0x20\n        /* \"#utility.yul\":12739:12740   */\n      dup2\n        /* \"#utility.yul\":12735:12747   */\n      add\n        /* \"#utility.yul\":12730:12747   */\n      swap1\n      pop\n        /* \"#utility.yul\":12705:12913   */\n      jump(tag_247)\n    tag_249:\n        /* \"#utility.yul\":12941:12947   */\n      dup7\n        /* \"#utility.yul\":12932:12939   */\n      dup4\n        /* \"#utility.yul\":12929:12948   */\n      lt\n        /* \"#utility.yul\":12926:13105   */\n      iszero\n      tag_250\n      jumpi\n        /* \"#utility.yul\":12999:13008   */\n      dup5\n        /* \"#utility.yul\":12994:12997   */\n      dup10\n        /* \"#utility.yul\":12990:13009   */\n      add\n        /* \"#utility.yul\":12984:13010   */\n      mload\n        /* \"#utility.yul\":13042:13090   */\n      tag_251\n        /* \"#utility.yul\":13084:13088   */\n      0x1f\n        /* \"#utility.yul\":13076:13082   */\n      dup10\n        /* \"#utility.yul\":13072:13089   */\n      and\n        /* \"#utility.yul\":13061:13070   */\n      dup3\n        /* \"#utility.yul\":13042:13090   */\n      tag_101\n      jump\t// in\n    tag_251:\n        /* \"#utility.yul\":13034:13040   */\n      dup4\n        /* \"#utility.yul\":13027:13091   */\n      sstore\n        /* \"#utility.yul\":12949:13105   */\n      pop\n        /* \"#utility.yul\":12926:13105   */\n    tag_250:\n        /* \"#utility.yul\":13151:13152   */\n      0x01\n        /* \"#utility.yul\":13147:13148   */\n      0x02\n        /* \"#utility.yul\":13139:13145   */\n      dup9\n        /* \"#utility.yul\":13135:13149   */\n      mul\n        /* \"#utility.yul\":13131:13153   */\n      add\n        /* \"#utility.yul\":13125:13129   */\n      dup9\n        /* \"#utility.yul\":13118:13154   */\n      sstore\n        /* \"#utility.yul\":12553:13164   */\n      pop\n      pop\n      pop\n        /* \"#utility.yul\":12516:13403   */\n    tag_242:\n      pop\n        /* \"#utility.yul\":12106:13409   */\n      pop\n      pop\n      pop\n        /* \"#utility.yul\":12014:13409   */\n      pop\n      pop\n      jump\t// out\n        /* \"#utility.yul\":13415:13606   */\n    tag_50:\n        /* \"#utility.yul\":13455:13458   */\n      0x00\n        /* \"#utility.yul\":13474:13494   */\n      tag_253\n        /* \"#utility.yul\":13492:13493   */\n      dup3\n        /* \"#utility.yul\":13474:13494   */\n      tag_60\n      jump\t// in\n    tag_253:\n        /* \"#utility.yul\":13469:13494   */\n      swap2\n      pop\n        /* \"#utility.yul\":13508:13528   */\n      tag_254\n        /* \"#utility.yul\":13526:13527   */\n      dup4\n        /* \"#utility.yul\":13508:13528   */\n      tag_60\n      jump\t// in\n    tag_254:\n        /* \"#utility.yul\":13503:13528   */\n      swap3\n      pop\n        /* \"#utility.yul\":13551:13552   */\n      dup3\n        /* \"#utility.yul\":13548:13549   */\n      dup3\n        /* \"#utility.yul\":13544:13553   */\n      add\n        /* \"#utility.yul\":13537:13553   */\n      swap1\n      pop\n        /* \"#utility.yul\":13572:13575   */\n      dup1\n        /* \"#utility.yul\":13569:13570   */\n      dup3\n        /* \"#utility.yul\":13566:13576   */\n      gt\n        /* \"#utility.yul\":13563:13599   */\n      iszero\n      tag_255\n      jumpi\n        /* \"#utility.yul\":13579:13597   */\n      tag_256\n      tag_86\n      jump\t// in\n    tag_256:\n        /* \"#utility.yul\":13563:13599   */\n    tag_255:\n        /* \"#utility.yul\":13415:13606   */\n      swap3\n      swap2\n      pop\n      pop\n      jump\t// out\n\n    auxdata: 0xa264697066735822122062543e014a2fb55ad5055f8daef3c7e7425dacc75ada4929dcb1d3b9d80f4c5764736f6c634300081f0033\n}\n",
				"bytecode": {
					"linkReferences": {},
					"object": "6080604052348015600e575f5ffd5b50610c8b8061001c5f395ff3fe608060405234801561000f575f5ffd5b5060043610610055575f3560e01c80632e1a7d4d146100595780635e5c06e2146100755780636586ace6146100a7578063b6b55f25146100c3578063db613e81146100df575b5f5ffd5b610073600480360381019061006e9190610535565b6100ff565b005b61008f600480360381019061008a91906105ba565b61021b565b60405161009e93929190610664565b60405180910390f35b6100c160048036038101906100bc91906107cc565b6102c6565b005b6100dd60048036038101906100d89190610535565b61034c565b005b6100e76103e6565b6040516100f693929190610664565b60405180910390f35b5f8111610141576040517f08c379a000000000000000000000000000000000000000000000000000000000815260040161013890610870565b60405180910390fd5b805f5f3373ffffffffffffffffffffffffffffffffffffffff1673ffffffffffffffffffffffffffffffffffffffff1681526020019081526020015f206001015410156101c3576040517f08c379a00000000000000000000000000000000000000000000000000000000081526004016101ba906108d8565b60405180910390fd5b805f5f3373ffffffffffffffffffffffffffffffffffffffff1673ffffffffffffffffffffffffffffffffffffffff1681526020019081526020015f206001015f8282546102119190610923565b9250508190555050565b5f602052805f5260405f205f91509050805f01805461023990610983565b80601f016020809104026020016040519081016040528092919081815260200182805461026590610983565b80156102b05780601f10610287576101008083540402835291602001916102b0565b820191905f5260205f20905b81548152906001019060200180831161029357829003601f168201915b5050505050908060010154908060020154905083565b60405180606001604052808381526020015f8152602001828152505f5f3373ffffffffffffffffffffffffffffffffffffffff1673ffffffffffffffffffffffffffffffffffffffff1681526020019081526020015f205f820151815f0190816103309190610b53565b5060208201518160010155604082015181600201559050505050565b5f811161038e576040517f08c379a000000000000000000000000000000000000000000000000000000000815260040161038590610870565b60405180910390fd5b805f5f3373ffffffffffffffffffffffffffffffffffffffff1673ffffffffffffffffffffffffffffffffffffffff1681526020019081526020015f206001015f8282546103dc9190610c22565b9250508190555050565b60605f5f5f5f5f3373ffffffffffffffffffffffffffffffffffffffff1673ffffffffffffffffffffffffffffffffffffffff1681526020019081526020015f206040518060600160405290815f8201805461044190610983565b80601f016020809104026020016040519081016040528092919081815260200182805461046d90610983565b80156104b85780601f1061048f576101008083540402835291602001916104b8565b820191905f5260205f20905b81548152906001019060200180831161049b57829003601f168201915b50505050508152602001600182015481526020016002820154815250509050805f01518160200151826040015193509350935050909192565b5f604051905090565b5f5ffd5b5f5ffd5b5f819050919050565b61051481610502565b811461051e575f5ffd5b50565b5f8135905061052f8161050b565b92915050565b5f6020828403121561054a576105496104fa565b5b5f61055784828501610521565b91505092915050565b5f73ffffffffffffffffffffffffffffffffffffffff82169050919050565b5f61058982610560565b9050919050565b6105998161057f565b81146105a3575f5ffd5b50565b5f813590506105b481610590565b92915050565b5f602082840312156105cf576105ce6104fa565b5b5f6105dc848285016105a6565b91505092915050565b5f81519050919050565b5f82825260208201905092915050565b8281835e5f83830152505050565b5f601f19601f8301169050919050565b5f610627826105e5565b61063181856105ef565b93506106418185602086016105ff565b61064a8161060d565b840191505092915050565b61065e81610502565b82525050565b5f6060820190508181035f83015261067c818661061d565b905061068b6020830185610655565b6106986040830184610655565b949350505050565b5f5ffd5b5f5ffd5b7f4e487b71000000000000000000000000000000000000000000000000000000005f52604160045260245ffd5b6106de8261060d565b810181811067ffffffffffffffff821117156106fd576106fc6106a8565b5b80604052505050565b5f61070f6104f1565b905061071b82826106d5565b919050565b5f67ffffffffffffffff82111561073a576107396106a8565b5b6107438261060d565b9050602081019050919050565b828183375f83830152505050565b5f61077061076b84610720565b610706565b90508281526020810184848401111561078c5761078b6106a4565b5b610797848285610750565b509392505050565b5f82601f8301126107b3576107b26106a0565b5b81356107c384826020860161075e565b91505092915050565b5f5f604083850312156107e2576107e16104fa565b5b5f83013567ffffffffffffffff8111156107ff576107fe6104fe565b5b61080b8582860161079f565b925050602061081c85828601610521565b9150509250929050565b7f416d6f756e742073686f756c642062652067726561746572207468616e2030005f82015250565b5f61085a601f836105ef565b915061086582610826565b602082019050919050565b5f6020820190508181035f8301526108878161084e565b9050919050565b7f496e73756666696369656e742062616c616e63650000000000000000000000005f82015250565b5f6108c26014836105ef565b91506108cd8261088e565b602082019050919050565b5f6020820190508181035f8301526108ef816108b6565b9050919050565b7f4e487b71000000000000000000000000000000000000000000000000000000005f52601160045260245ffd5b5f61092d82610502565b915061093883610502565b92508282039050818111156109505761094f6108f6565b5b92915050565b7f4e487b71000000000000000000000000000000000000000000000000000000005f52602260045260245ffd5b5f600282049050600182168061099a57607f821691505b6020821081036109ad576109ac610956565b5b50919050565b5f819050815f5260205f209050919050565b5f6020601f8301049050919050565b5f82821b905092915050565b5f60088302610a0f7fffffffffffffffffffffffffffffffffffffffffffffffffffffffffffffffff826109d4565b610a1986836109d4565b95508019841693508086168417925050509392505050565b5f819050919050565b5f610a54610a4f610a4a84610502565b610a31565b610502565b9050919050565b5f819050919050565b610a6d83610a3a565b610a81610a7982610a5b565b8484546109e0565b825550505050565b5f5f905090565b610a98610a89565b610aa3818484610a64565b505050565b5b81811015610ac657610abb5f82610a90565b600181019050610aa9565b5050565b601f821115610b0b57610adc816109b3565b610ae5846109c5565b81016020851015610af4578190505b610b08610b00856109c5565b830182610aa8565b50505b505050565b5f82821c905092915050565b5f610b2b5f1984600802610b10565b1980831691505092915050565b5f610b438383610b1c565b9150826002028217905092915050565b610b5c826105e5565b67ffffffffffffffff811115610b7557610b746106a8565b5b610b7f8254610983565b610b8a828285610aca565b5f60209050601f831160018114610bbb575f8415610ba9578287015190505b610bb38582610b38565b865550610c1a565b601f198416610bc9866109b3565b5f5b82811015610bf057848901518255600182019150602085019450602081019050610bcb565b86831015610c0d5784890151610c09601f891682610b1c565b8355505b6001600288020188555050505b505050505050565b5f610c2c82610502565b9150610c3783610502565b9250828201905080821115610c4f57610c4e6108f6565b5b9291505056fea264697066735822122062543e014a2fb55ad5055f8daef3c7e7425dacc75ada4929dcb1d3b9d80f4c5764736f6c634300081f0033",
					"opcodes": "PUSH1 0x80 PUSH1 0x40 MSTORE CALLVALUE DUP1 ISZERO PUSH1 0xE JUMPI PUSH0 PUSH0 REVERT JUMPDEST POP PUSH2 0xC8B DUP1 PUSH2 0x1C PUSH0 CODECOPY PUSH0 RETURN INVALID PUSH1 0x80 PUSH1 0x40 MSTORE CALLVALUE DUP1 ISZERO PUSH2 0xF JUMPI PUSH0 PUSH0 REVERT JUMPDEST POP PUSH1 0x4 CALLDATASIZE LT PUSH2 0x55 JUMPI PUSH0 CALLDATALOAD PUSH1 0xE0 SHR DUP1 PUSH4 0x2E1A7D4D EQ PUSH2 0x59 JUMPI DUP1 PUSH4 0x5E5C06E2 EQ PUSH2 0x75 JUMPI DUP1 PUSH4 0x6586ACE6 EQ PUSH2 0xA7 JUMPI DUP1 PUSH4 0xB6B55F25 EQ PUSH2 0xC3 JUMPI DUP1 PUSH4 0xDB613E81 EQ PUSH2 0xDF JUMPI JUMPDEST PUSH0 PUSH0 REVERT JUMPDEST PUSH2 0x73 PUSH1 0x4 DUP1 CALLDATASIZE SUB DUP2 ADD SWAP1 PUSH2 0x6E SWAP2 SWAP1 PUSH2 0x535 JUMP JUMPDEST PUSH2 0xFF JUMP JUMPDEST STOP JUMPDEST PUSH2 0x8F PUSH1 0x4 DUP1 CALLDATASIZE SUB DUP2 ADD SWAP1 PUSH2 0x8A SWAP2 SWAP1 PUSH2 0x5BA JUMP JUMPDEST PUSH2 0x21B JUMP JUMPDEST PUSH1 0x40 MLOAD PUSH2 0x9E SWAP4 SWAP3 SWAP2 SWAP1 PUSH2 0x664 JUMP JUMPDEST PUSH1 0x40 MLOAD DUP1 SWAP2 SUB SWAP1 RETURN JUMPDEST PUSH2 0xC1 PUSH1 0x4 DUP1 CALLDATASIZE SUB DUP2 ADD SWAP1 PUSH2 0xBC SWAP2 SWAP1 PUSH2 0x7CC JUMP JUMPDEST PUSH2 0x2C6 JUMP JUMPDEST STOP JUMPDEST PUSH2 0xDD PUSH1 0x4 DUP1 CALLDATASIZE SUB DUP2 ADD SWAP1 PUSH2 0xD8 SWAP2 SWAP1 PUSH2 0x535 JUMP JUMPDEST PUSH2 0x34C JUMP JUMPDEST STOP JUMPDEST PUSH2 0xE7 PUSH2 0x3E6 JUMP JUMPDEST PUSH1 0x40 MLOAD PUSH2 0xF6 SWAP4 SWAP3 SWAP2 SWAP1 PUSH2 0x664 JUMP JUMPDEST PUSH1 0x40 MLOAD DUP1 SWAP2 SUB SWAP1 RETURN JUMPDEST PUSH0 DUP2 GT PUSH2 0x141 JUMPI PUSH1 0x40 MLOAD PUSH32 0x8C379A000000000000000000000000000000000000000000000000000000000 DUP2 MSTORE PUSH1 0x4 ADD PUSH2 0x138 SWAP1 PUSH2 0x870 JUMP JUMPDEST PUSH1 0x40 MLOAD DUP1 SWAP2 SUB SWAP1 REVERT JUMPDEST DUP1 PUSH0 PUSH0 CALLER PUSH20 0xFFFFFFFFFFFFFFFFFFFFFFFFFFFFFFFFFFFFFFFF AND PUSH20 0xFFFFFFFFFFFFFFFFFFFFFFFFFFFFFFFFFFFFFFFF AND DUP2 MSTORE PUSH1 0x20 ADD SWAP1 DUP2 MSTORE PUSH1 0x20 ADD PUSH0 KECCAK256 PUSH1 0x1 ADD SLOAD LT ISZERO PUSH2 0x1C3 JUMPI PUSH1 0x40 MLOAD PUSH32 0x8C379A000000000000000000000000000000000000000000000000000000000 DUP2 MSTORE PUSH1 0x4 ADD PUSH2 0x1BA SWAP1 PUSH2 0x8D8 JUMP JUMPDEST PUSH1 0x40 MLOAD DUP1 SWAP2 SUB SWAP1 REVERT JUMPDEST DUP1 PUSH0 PUSH0 CALLER PUSH20 0xFFFFFFFFFFFFFFFFFFFFFFFFFFFFFFFFFFFFFFFF AND PUSH20 0xFFFFFFFFFFFFFFFFFFFFFFFFFFFFFFFFFFFFFFFF AND DUP2 MSTORE PUSH1 0x20 ADD SWAP1 DUP2 MSTORE PUSH1 0x20 ADD PUSH0 KECCAK256 PUSH1 0x1 ADD PUSH0 DUP3 DUP3 SLOAD PUSH2 0x211 SWAP2 SWAP1 PUSH2 0x923 JUMP JUMPDEST SWAP3 POP POP DUP2 SWAP1 SSTORE POP POP JUMP JUMPDEST PUSH0 PUSH1 0x20 MSTORE DUP1 PUSH0 MSTORE PUSH1 0x40 PUSH0 KECCAK256 PUSH0 SWAP2 POP SWAP1 POP DUP1 PUSH0 ADD DUP1 SLOAD PUSH2 0x239 SWAP1 PUSH2 0x983 JUMP JUMPDEST DUP1 PUSH1 0x1F ADD PUSH1 0x20 DUP1 SWAP2 DIV MUL PUSH1 0x20 ADD PUSH1 0x40 MLOAD SWAP1 DUP2 ADD PUSH1 0x40 MSTORE DUP1 SWAP3 SWAP2 SWAP1 DUP2 DUP2 MSTORE PUSH1 0x20 ADD DUP3 DUP1 SLOAD PUSH2 0x265 SWAP1 PUSH2 0x983 JUMP JUMPDEST DUP1 ISZERO PUSH2 0x2B0 JUMPI DUP1 PUSH1 0x1F LT PUSH2 0x287 JUMPI PUSH2 0x100 DUP1 DUP4 SLOAD DIV MUL DUP4 MSTORE SWAP2 PUSH1 0x20 ADD SWAP2 PUSH2 0x2B0 JUMP JUMPDEST DUP3 ADD SWAP2 SWAP1 PUSH0 MSTORE PUSH1 0x20 PUSH0 KECCAK256 SWAP1 JUMPDEST DUP2 SLOAD DUP2 MSTORE SWAP1 PUSH1 0x1 ADD SWAP1 PUSH1 0x20 ADD DUP1 DUP4 GT PUSH2 0x293 JUMPI DUP3 SWAP1 SUB PUSH1 0x1F AND DUP3 ADD SWAP2 JUMPDEST POP POP POP POP POP SWAP1 DUP1 PUSH1 0x1 ADD SLOAD SWAP1 DUP1 PUSH1 0x2 ADD SLOAD SWAP1 POP DUP4 JUMP JUMPDEST PUSH1 0x40 MLOAD DUP1 PUSH1 0x60 ADD PUSH1 0x40 MSTORE DUP1 DUP4 DUP2 MSTORE PUSH1 0x20 ADD PUSH0 DUP2 MSTORE PUSH1 0x20 ADD DUP3 DUP2 MSTORE POP PUSH0 PUSH0 CALLER PUSH20 0xFFFFFFFFFFFFFFFFFFFFFFFFFFFFFFFFFFFFFFFF AND PUSH20 0xFFFFFFFFFFFFFFFFFFFFFFFFFFFFFFFFFFFFFFFF AND DUP2 MSTORE PUSH1 0x20 ADD SWAP1 DUP2 MSTORE PUSH1 0x20 ADD PUSH0 KECCAK256 PUSH0 DUP3 ADD MLOAD DUP2 PUSH0 ADD SWAP1 DUP2 PUSH2 0x330 SWAP2 SWAP1 PUSH2 0xB53 JUMP JUMPDEST POP PUSH1 0x20 DUP3 ADD MLOAD DUP2 PUSH1 0x1 ADD SSTORE PUSH1 0x40 DUP3 ADD MLOAD DUP2 PUSH1 0x2 ADD SSTORE SWAP1 POP POP POP POP JUMP JUMPDEST PUSH0 DUP2 GT PUSH2 0x38E JUMPI PUSH1 0x40 MLOAD PUSH32 0x8C379A000000000000000000000000000000000000000000000000000000000 DUP2 MSTORE PUSH1 0x4 ADD PUSH2 0x385 SWAP1 PUSH2 0x870 JUMP JUMPDEST PUSH1 0x40 MLOAD DUP1 SWAP2 SUB SWAP1 REVERT JUMPDEST DUP1 PUSH0 PUSH0 CALLER PUSH20 0xFFFFFFFFFFFFFFFFFFFFFFFFFFFFFFFFFFFFFFFF AND PUSH20 0xFFFFFFFFFFFFFFFFFFFFFFFFFFFFFFFFFFFFFFFF AND DUP2 MSTORE PUSH1 0x20 ADD SWAP1 DUP2 MSTORE PUSH1 0x20 ADD PUSH0 KECCAK256 PUSH1 0x1 ADD PUSH0 DUP3 DUP3 SLOAD PUSH2 0x3DC SWAP2 SWAP1 PUSH2 0xC22 JUMP JUMPDEST SWAP3 POP POP DUP2 SWAP1 SSTORE POP POP JUMP JUMPDEST PUSH1 0x60 PUSH0 PUSH0 PUSH0 PUSH0 PUSH0 CALLER PUSH20 0xFFFFFFFFFFFFFFFFFFFFFFFFFFFFFFFFFFFFFFFF AND PUSH20 0xFFFFFFFFFFFFFFFFFFFFFFFFFFFFFFFFFFFFFFFF AND DUP2 MSTORE PUSH1 0x20 ADD SWAP1 DUP2 MSTORE PUSH1 0x20 ADD PUSH0 KECCAK256 PUSH1 0x40 MLOAD DUP1 PUSH1 0x60 ADD PUSH1 0x40 MSTORE SWAP1 DUP2 PUSH0 DUP3 ADD DUP1 SLOAD PUSH2 0x441 SWAP1 PUSH2 0x983 JUMP JUMPDEST DUP1 PUSH1 0x1F ADD PUSH1 0x20 DUP1 SWAP2 DIV MUL PUSH1 0x20 ADD PUSH1 0x40 MLOAD SWAP1 DUP2 ADD PUSH1 0x40 MSTORE DUP1 SWAP3 SWAP2 SWAP1 DUP2 DUP2 MSTORE PUSH1 0x20 ADD DUP3 DUP1 SLOAD PUSH2 0x46D SWAP1 PUSH2 0x983 JUMP JUMPDEST DUP1 ISZERO PUSH2 0x4B8 JUMPI DUP1 PUSH1 0x1F LT PUSH2 0x48F JUMPI PUSH2 0x100 DUP1 DUP4 SLOAD DIV MUL DUP4 MSTORE SWAP2 PUSH1 0x20 ADD SWAP2 PUSH2 0x4B8 JUMP JUMPDEST DUP3 ADD SWAP2 SWAP1 PUSH0 MSTORE PUSH1 0x20 PUSH0 KECCAK256 SWAP1 JUMPDEST DUP2 SLOAD DUP2 MSTORE SWAP1 PUSH1 0x1 ADD SWAP1 PUSH1 0x20 ADD DUP1 DUP4 GT PUSH2 0x49B JUMPI DUP3 SWAP1 SUB PUSH1 0x1F AND DUP3 ADD SWAP2 JUMPDEST POP POP POP POP POP DUP2 MSTORE PUSH1 0x20 ADD PUSH1 0x1 DUP3 ADD SLOAD DUP2 MSTORE PUSH1 0x20 ADD PUSH1 0x2 DUP3 ADD SLOAD DUP2 MSTORE POP POP SWAP1 POP DUP1 PUSH0 ADD MLOAD DUP2 PUSH1 0x20 ADD MLOAD DUP3 PUSH1 0x40 ADD MLOAD SWAP4 POP SWAP4 POP SWAP4 POP POP SWAP1 SWAP2 SWAP3 JUMP JUMPDEST PUSH0 PUSH1 0x40 MLOAD SWAP1 POP SWAP1 JUMP JUMPDEST PUSH0 PUSH0 REVERT JUMPDEST PUSH0 PUSH0 REVERT JUMPDEST PUSH0 DUP2 SWAP1 POP SWAP2 SWAP1 POP JUMP JUMPDEST PUSH2 0x514 DUP2 PUSH2 0x502 JUMP JUMPDEST DUP2 EQ PUSH2 0x51E JUMPI PUSH0 PUSH0 REVERT JUMPDEST POP JUMP JUMPDEST PUSH0 DUP2 CALLDATALOAD SWAP1 POP PUSH2 0x52F DUP2 PUSH2 0x50B JUMP JUMPDEST SWAP3 SWAP2 POP POP JUMP JUMPDEST PUSH0 PUSH1 0x20 DUP3 DUP5 SUB SLT ISZERO PUSH2 0x54A JUMPI PUSH2 0x549 PUSH2 0x4FA JUMP JUMPDEST JUMPDEST PUSH0 PUSH2 0x557 DUP5 DUP3 DUP6 ADD PUSH2 0x521 JUMP JUMPDEST SWAP2 POP POP SWAP3 SWAP2 POP POP JUMP JUMPDEST PUSH0 PUSH20 0xFFFFFFFFFFFFFFFFFFFFFFFFFFFFFFFFFFFFFFFF DUP3 AND SWAP1 POP SWAP2 SWAP1 POP JUMP JUMPDEST PUSH0 PUSH2 0x589 DUP3 PUSH2 0x560 JUMP JUMPDEST SWAP1 POP SWAP2 SWAP1 POP JUMP JUMPDEST PUSH2 0x599 DUP2 PUSH2 0x57F JUMP JUMPDEST DUP2 EQ PUSH2 0x5A3 JUMPI PUSH0 PUSH0 REVERT JUMPDEST POP JUMP JUMPDEST PUSH0 DUP2 CALLDATALOAD SWAP1 POP PUSH2 0x5B4 DUP2 PUSH2 0x590 JUMP JUMPDEST SWAP3 SWAP2 POP POP JUMP JUMPDEST PUSH0 PUSH1 0x20 DUP3 DUP5 SUB SLT ISZERO PUSH2 0x5CF JUMPI PUSH2 0x5CE PUSH2 0x4FA JUMP JUMPDEST JUMPDEST PUSH0 PUSH2 0x5DC DUP5 DUP3 DUP6 ADD PUSH2 0x5A6 JUMP JUMPDEST SWAP2 POP POP SWAP3 SWAP2 POP POP JUMP JUMPDEST PUSH0 DUP2 MLOAD SWAP1 POP SWAP2 SWAP1 POP JUMP JUMPDEST PUSH0 DUP3 DUP3 MSTORE PUSH1 0x20 DUP3 ADD SWAP1 POP SWAP3 SWAP2 POP POP JUMP JUMPDEST DUP3 DUP2 DUP4 MCOPY PUSH0 DUP4 DUP4 ADD MSTORE POP POP POP JUMP JUMPDEST PUSH0 PUSH1 0x1F NOT PUSH1 0x1F DUP4 ADD AND SWAP1 POP SWAP2 SWAP1 POP JUMP JUMPDEST PUSH0 PUSH2 0x627 DUP3 PUSH2 0x5E5 JUMP JUMPDEST PUSH2 0x631 DUP2 DUP6 PUSH2 0x5EF JUMP JUMPDEST SWAP4 POP PUSH2 0x641 DUP2 DUP6 PUSH1 0x20 DUP7 ADD PUSH2 0x5FF JUMP JUMPDEST PUSH2 0x64A DUP2 PUSH2 0x60D JUMP JUMPDEST DUP5 ADD SWAP2 POP POP SWAP3 SWAP2 POP POP JUMP JUMPDEST PUSH2 0x65E DUP2 PUSH2 0x502 JUMP JUMPDEST DUP3 MSTORE POP POP JUMP JUMPDEST PUSH0 PUSH1 0x60 DUP3 ADD SWAP1 POP DUP2 DUP2 SUB PUSH0 DUP4 ADD MSTORE PUSH2 0x67C DUP2 DUP7 PUSH2 0x61D JUMP JUMPDEST SWAP1 POP PUSH2 0x68B PUSH1 0x20 DUP4 ADD DUP6 PUSH2 0x655 JUMP JUMPDEST PUSH2 0x698 PUSH1 0x40 DUP4 ADD DUP5 PUSH2 0x655 JUMP JUMPDEST SWAP5 SWAP4 POP POP POP POP JUMP JUMPDEST PUSH0 PUSH0 REVERT JUMPDEST PUSH0 PUSH0 REVERT JUMPDEST PUSH32 0x4E487B7100000000000000000000000000000000000000000000000000000000 PUSH0 MSTORE PUSH1 0x41 PUSH1 0x4 MSTORE PUSH1 0x24 PUSH0 REVERT JUMPDEST PUSH2 0x6DE DUP3 PUSH2 0x60D JUMP JUMPDEST DUP2 ADD DUP2 DUP2 LT PUSH8 0xFFFFFFFFFFFFFFFF DUP3 GT OR ISZERO PUSH2 0x6FD JUMPI PUSH2 0x6FC PUSH2 0x6A8 JUMP JUMPDEST JUMPDEST DUP1 PUSH1 0x40 MSTORE POP POP POP JUMP JUMPDEST PUSH0 PUSH2 0x70F PUSH2 0x4F1 JUMP JUMPDEST SWAP1 POP PUSH2 0x71B DUP3 DUP3 PUSH2 0x6D5 JUMP JUMPDEST SWAP2 SWAP1 POP JUMP JUMPDEST PUSH0 PUSH8 0xFFFFFFFFFFFFFFFF DUP3 GT ISZERO PUSH2 0x73A JUMPI PUSH2 0x739 PUSH2 0x6A8 JUMP JUMPDEST JUMPDEST PUSH2 0x743 DUP3 PUSH2 0x60D JUMP JUMPDEST SWAP1 POP PUSH1 0x20 DUP2 ADD SWAP1 POP SWAP2 SWAP1 POP JUMP JUMPDEST DUP3 DUP2 DUP4 CALLDATACOPY PUSH0 DUP4 DUP4 ADD MSTORE POP POP POP JUMP JUMPDEST PUSH0 PUSH2 0x770 PUSH2 0x76B DUP5 PUSH2 0x720 JUMP JUMPDEST PUSH2 0x706 JUMP JUMPDEST SWAP1 POP DUP3 DUP2 MSTORE PUSH1 0x20 DUP2 ADD DUP5 DUP5 DUP5 ADD GT ISZERO PUSH2 0x78C JUMPI PUSH2 0x78B PUSH2 0x6A4 JUMP JUMPDEST JUMPDEST PUSH2 0x797 DUP5 DUP3 DUP6 PUSH2 0x750 JUMP JUMPDEST POP SWAP4 SWAP3 POP POP POP JUMP JUMPDEST PUSH0 DUP3 PUSH1 0x1F DUP4 ADD SLT PUSH2 0x7B3 JUMPI PUSH2 0x7B2 PUSH2 0x6A0 JUMP JUMPDEST JUMPDEST DUP2 CALLDATALOAD PUSH2 0x7C3 DUP5 DUP3 PUSH1 0x20 DUP7 ADD PUSH2 0x75E JUMP JUMPDEST SWAP2 POP POP SWAP3 SWAP2 POP POP JUMP JUMPDEST PUSH0 PUSH0 PUSH1 0x40 DUP4 DUP6 SUB SLT ISZERO PUSH2 0x7E2 JUMPI PUSH2 0x7E1 PUSH2 0x4FA JUMP JUMPDEST JUMPDEST PUSH0 DUP4 ADD CALLDATALOAD PUSH8 0xFFFFFFFFFFFFFFFF DUP2 GT ISZERO PUSH2 0x7FF JUMPI PUSH2 0x7FE PUSH2 0x4FE JUMP JUMPDEST JUMPDEST PUSH2 0x80B DUP6 DUP3 DUP7 ADD PUSH2 0x79F JUMP JUMPDEST SWAP3 POP POP PUSH1 0x20 PUSH2 0x81C DUP6 DUP3 DUP7 ADD PUSH2 0x521 JUMP JUMPDEST SWAP2 POP POP SWAP3 POP SWAP3 SWAP1 POP JUMP JUMPDEST PUSH32 0x416D6F756E742073686F756C642062652067726561746572207468616E203000 PUSH0 DUP3 ADD MSTORE POP JUMP JUMPDEST PUSH0 PUSH2 0x85A PUSH1 0x1F DUP4 PUSH2 0x5EF JUMP JUMPDEST SWAP2 POP PUSH2 0x865 DUP3 PUSH2 0x826 JUMP JUMPDEST PUSH1 0x20 DUP3 ADD SWAP1 POP SWAP2 SWAP1 POP JUMP JUMPDEST PUSH0 PUSH1 0x20 DUP3 ADD SWAP1 POP DUP2 DUP2 SUB PUSH0 DUP4 ADD MSTORE PUSH2 0x887 DUP2 PUSH2 0x84E JUMP JUMPDEST SWAP1 POP SWAP2 SWAP1 POP JUMP JUMPDEST PUSH32 0x496E73756666696369656E742062616C616E6365000000000000000000000000 PUSH0 DUP3 ADD MSTORE POP JUMP JUMPDEST PUSH0 PUSH2 0x8C2 PUSH1 0x14 DUP4 PUSH2 0x5EF JUMP JUMPDEST SWAP2 POP PUSH2 0x8CD DUP3 PUSH2 0x88E JUMP JUMPDEST PUSH1 0x20 DUP3 ADD SWAP1 POP SWAP2 SWAP1 POP JUMP JUMPDEST PUSH0 PUSH1 0x20 DUP3 ADD SWAP1 POP DUP2 DUP2 SUB PUSH0 DUP4 ADD MSTORE PUSH2 0x8EF DUP2 PUSH2 0x8B6 JUMP JUMPDEST SWAP1 POP SWAP2 SWAP1 POP JUMP JUMPDEST PUSH32 0x4E487B7100000000000000000000000000000000000000000000000000000000 PUSH0 MSTORE PUSH1 0x11 PUSH1 0x4 MSTORE PUSH1 0x24 PUSH0 REVERT JUMPDEST PUSH0 PUSH2 0x92D DUP3 PUSH2 0x502 JUMP JUMPDEST SWAP2 POP PUSH2 0x938 DUP4 PUSH2 0x502 JUMP JUMPDEST SWAP3 POP DUP3 DUP3 SUB SWAP1 POP DUP2 DUP2 GT ISZERO PUSH2 0x950 JUMPI PUSH2 0x94F PUSH2 0x8F6 JUMP JUMPDEST JUMPDEST SWAP3 SWAP2 POP POP JUMP JUMPDEST PUSH32 0x4E487B7100000000000000000000000000000000000000000000000000000000 PUSH0 MSTORE PUSH1 0x22 PUSH1 0x4 MSTORE PUSH1 0x24 PUSH0 REVERT JUMPDEST PUSH0 PUSH1 0x2 DUP3 DIV SWAP1 POP PUSH1 0x1 DUP3 AND DUP1 PUSH2 0x99A JUMPI PUSH1 0x7F DUP3 AND SWAP2 POP JUMPDEST PUSH1 0x20 DUP3 LT DUP2 SUB PUSH2 0x9AD JUMPI PUSH2 0x9AC PUSH2 0x956 JUMP JUMPDEST JUMPDEST POP SWAP2 SWAP1 POP JUMP JUMPDEST PUSH0 DUP2 SWAP1 POP DUP2 PUSH0 MSTORE PUSH1 0x20 PUSH0 KECCAK256 SWAP1 POP SWAP2 SWAP1 POP JUMP JUMPDEST PUSH0 PUSH1 0x20 PUSH1 0x1F DUP4 ADD DIV SWAP1 POP SWAP2 SWAP1 POP JUMP JUMPDEST PUSH0 DUP3 DUP3 SHL SWAP1 POP SWAP3 SWAP2 POP POP JUMP JUMPDEST PUSH0 PUSH1 0x8 DUP4 MUL PUSH2 0xA0F PUSH32 0xFFFFFFFFFFFFFFFFFFFFFFFFFFFFFFFFFFFFFFFFFFFFFFFFFFFFFFFFFFFFFFFF DUP3 PUSH2 0x9D4 JUMP JUMPDEST PUSH2 0xA19 DUP7 DUP4 PUSH2 0x9D4 JUMP JUMPDEST SWAP6 POP DUP1 NOT DUP5 AND SWAP4 POP DUP1 DUP7 AND DUP5 OR SWAP3 POP POP POP SWAP4 SWAP3 POP POP POP JUMP JUMPDEST PUSH0 DUP2 SWAP1 POP SWAP2 SWAP1 POP JUMP JUMPDEST PUSH0 PUSH2 0xA54 PUSH2 0xA4F PUSH2 0xA4A DUP5 PUSH2 0x502 JUMP JUMPDEST PUSH2 0xA31 JUMP JUMPDEST PUSH2 0x502 JUMP JUMPDEST SWAP1 POP SWAP2 SWAP1 POP JUMP JUMPDEST PUSH0 DUP2 SWAP1 POP SWAP2 SWAP1 POP JUMP JUMPDEST PUSH2 0xA6D DUP4 PUSH2 0xA3A JUMP JUMPDEST PUSH2 0xA81 PUSH2 0xA79 DUP3 PUSH2 0xA5B JUMP JUMPDEST DUP5 DUP5 SLOAD PUSH2 0x9E0 JUMP JUMPDEST DUP3 SSTORE POP POP POP POP JUMP JUMPDEST PUSH0 PUSH0 SWAP1 POP SWAP1 JUMP JUMPDEST PUSH2 0xA98 PUSH2 0xA89 JUMP JUMPDEST PUSH2 0xAA3 DUP2 DUP5 DUP5 PUSH2 0xA64 JUMP JUMPDEST POP POP POP JUMP JUMPDEST JUMPDEST DUP2 DUP2 LT ISZERO PUSH2 0xAC6 JUMPI PUSH2 0xABB PUSH0 DUP3 PUSH2 0xA90 JUMP JUMPDEST PUSH1 0x1 DUP2 ADD SWAP1 POP PUSH2 0xAA9 JUMP JUMPDEST POP POP JUMP JUMPDEST PUSH1 0x1F DUP3 GT ISZERO PUSH2 0xB0B JUMPI PUSH2 0xADC DUP2 PUSH2 0x9B3 JUMP JUMPDEST PUSH2 0xAE5 DUP5 PUSH2 0x9C5 JUMP JUMPDEST DUP2 ADD PUSH1 0x20 DUP6 LT ISZERO PUSH2 0xAF4 JUMPI DUP2 SWAP1 POP JUMPDEST PUSH2 0xB08 PUSH2 0xB00 DUP6 PUSH2 0x9C5 JUMP JUMPDEST DUP4 ADD DUP3 PUSH2 0xAA8 JUMP JUMPDEST POP POP JUMPDEST POP POP POP JUMP JUMPDEST PUSH0 DUP3 DUP3 SHR SWAP1 POP SWAP3 SWAP2 POP POP JUMP JUMPDEST PUSH0 PUSH2 0xB2B PUSH0 NOT DUP5 PUSH1 0x8 MUL PUSH2 0xB10 JUMP JUMPDEST NOT DUP1 DUP4 AND SWAP2 POP POP SWAP3 SWAP2 POP POP JUMP JUMPDEST PUSH0 PUSH2 0xB43 DUP4 DUP4 PUSH2 0xB1C JUMP JUMPDEST SWAP2 POP DUP3 PUSH1 0x2 MUL DUP3 OR SWAP1 POP SWAP3 SWAP2 POP POP JUMP JUMPDEST PUSH2 0xB5C DUP3 PUSH2 0x5E5 JUMP JUMPDEST PUSH8 0xFFFFFFFFFFFFFFFF DUP2 GT ISZERO PUSH2 0xB75 JUMPI PUSH2 0xB74 PUSH2 0x6A8 JUMP JUMPDEST JUMPDEST PUSH2 0xB7F DUP3 SLOAD PUSH2 0x983 JUMP JUMPDEST PUSH2 0xB8A DUP3 DUP3 DUP6 PUSH2 0xACA JUMP JUMPDEST PUSH0 PUSH1 0x20 SWAP1 POP PUSH1 0x1F DUP4 GT PUSH1 0x1 DUP2 EQ PUSH2 0xBBB JUMPI PUSH0 DUP5 ISZERO PUSH2 0xBA9 JUMPI DUP3 DUP8 ADD MLOAD SWAP1 POP JUMPDEST PUSH2 0xBB3 DUP6 DUP3 PUSH2 0xB38 JUMP JUMPDEST DUP7 SSTORE POP PUSH2 0xC1A JUMP JUMPDEST PUSH1 0x1F NOT DUP5 AND PUSH2 0xBC9 DUP7 PUSH2 0x9B3 JUMP JUMPDEST PUSH0 JUMPDEST DUP3 DUP2 LT ISZERO PUSH2 0xBF0 JUMPI DUP5 DUP10 ADD MLOAD DUP3 SSTORE PUSH1 0x1 DUP3 ADD SWAP2 POP PUSH1 0x20 DUP6 ADD SWAP5 POP PUSH1 0x20 DUP2 ADD SWAP1 POP PUSH2 0xBCB JUMP JUMPDEST DUP7 DUP4 LT ISZERO PUSH2 0xC0D JUMPI DUP5 DUP10 ADD MLOAD PUSH2 0xC09 PUSH1 0x1F DUP10 AND DUP3 PUSH2 0xB1C JUMP JUMPDEST DUP4 SSTORE POP JUMPDEST PUSH1 0x1 PUSH1 0x2 DUP9 MUL ADD DUP9 SSTORE POP POP POP JUMPDEST POP POP POP POP POP POP JUMP JUMPDEST PUSH0 PUSH2 0xC2C DUP3 PUSH2 0x502 JUMP JUMPDEST SWAP2 POP PUSH2 0xC37 DUP4 PUSH2 0x502 JUMP JUMPDEST SWAP3 POP DUP3 DUP3 ADD SWAP1 POP DUP1 DUP3 GT ISZERO PUSH2 0xC4F JUMPI PUSH2 0xC4E PUSH2 0x8F6 JUMP JUMPDEST JUMPDEST SWAP3 SWAP2 POP POP JUMP INVALID LOG2 PUSH5 0x6970667358 0x22 SLT KECCAK256 PUSH3 0x543E01 BLOBBASEFEE 0x2F 0xB5 GAS 0xD5 SDIV PUSH0 DUP14 0xAE RETURN 0xC7 SWAPN 0x42 TSTORE 0xAC 0xC7 GAS 0xDA BLOBHASH 0x29 0xDC 0xB1 0xD3 0xB9 0xD8 0xF 0x4C JUMPI PUSH5 0x736F6C6343 STOP ADDMOD 0x1F STOP CALLER "
				},
				"gasEstimates": {
					"creation": {
						"codeDepositCost": "642200",
						"executionCost": "674",
						"totalCost": "642874"
					},
					"external": {
						"accounts(address)": "infinite",
						"createAccount(string,uint256)": "infinite",
						"deposit(uint256)": "infinite",
						"getAccount()": "infinite",
						"withdraw(uint256)": "infinite"
					}
				},
				"methodIdentifiers": {
					"accounts(address)": "5e5c06e2",
					"createAccount(string,uint256)": "6586ace6",
					"deposit(uint256)": "b6b55f25",
					"getAccount()": "db613e81",
					"withdraw(uint256)": "2e1a7d4d"
				}
			},
			"storageLayout": {
				"storage": [
					{
						"astId": 13,
						"contract": "BankacountSystem.sol:BankAccountSystem",
						"label": "accounts",
						"offset": 0,
						"slot": "0",
						"type": "t_mapping(t_address,t_struct(Account)8_storage)"
					}
				],
				"types": {
					"t_address": {
						"encoding": "inplace",
						"label": "address",
						"numberOfBytes": "20"
					},
					"t_mapping(t_address,t_struct(Account)8_storage)": {
						"encoding": "mapping",
						"key": "t_address",
						"label": "mapping(address => struct BankAccountSystem.Account)",
						"numberOfBytes": "32",
						"value": "t_struct(Account)8_storage"
					},
					"t_string_storage": {
						"encoding": "bytes",
						"label": "string",
						"numberOfBytes": "32"
					},
					"t_struct(Account)8_storage": {
						"encoding": "inplace",
						"label": "struct BankAccountSystem.Account",
						"members": [
							{
								"astId": 3,
								"contract": "BankacountSystem.sol:BankAccountSystem",
								"label": "holderName",
								"offset": 0,
								"slot": "0",
								"type": "t_string_storage"
							},
							{
								"astId": 5,
								"contract": "BankacountSystem.sol:BankAccountSystem",
								"label": "balance",
								"offset": 0,
								"slot": "1",
								"type": "t_uint256"
							},
							{
								"astId": 7,
								"contract": "BankacountSystem.sol:BankAccountSystem",
								"label": "accountNumber",
								"offset": 0,
								"slot": "2",
								"type": "t_uint256"
							}
						],
						"numberOfBytes": "96"
					},
					"t_uint256": {
						"encoding": "inplace",
						"label": "uint256",
						"numberOfBytes": "32"
					}
				}
			},
			"userdoc": {
				"kind": "user",
				"methods": {},
				"version": 1
			}
		}
	}
}