{
	"eventpassing.sol": {
		"Eventpassing": {
			"abi": [
				{
					"anonymous": false,
					"inputs": [
						{
							"indexed": true,
							"internalType": "address",
							"name": "acc",
							"type": "address"
						},
						{
							"indexed": false,
							"internalType": "uint256",
							"name": "amount",
							"type": "uint256"
						}
					],
					"name": "account",
					"type": "event"
				},
				{
					"anonymous": false,
					"inputs": [
						{
							"indexed": false,
							"internalType": "uint256",
							"name": "amount",
							"type": "uint256"
						}
					],
					"name": "deposite",
					"type": "event"
				},
				{
					"inputs": [],
					"name": "accounts",
					"outputs": [],
					"stateMutability": "payable",
					"type": "function"
				},
				{
					"inputs": [
						{
							"internalType": "uint256",
							"name": "amount",
							"type": "uint256"
						}
					],
					"name": "depositeAmount",
					"outputs": [],
					"stateMutability": "nonpayable",
					"type": "function"
				},
				{
					"inputs": [
						{
							"internalType": "uint256",
							"name": "amount",
							"type": "uint256"
						}
					],
					"name": "withdrwalamount",
					"outputs": [],
					"stateMutability": "nonpayable",
					"type": "function"
				}
			],
			"devdoc": {
				"kind": "dev",
				"methods": {},
				"version": 1
			},
			"evm": {
				"assembly": "    /* \"eventpassing.sol\":60:475  contract Eventpassing {\r... */\n  mstore(0x40, 0x80)\n  callvalue\n  dup1\n  iszero\n  tag_1\n  jumpi\n  0x00\n  dup1\n  revert\ntag_1:\n  pop\n  dataSize(sub_0)\n  dup1\n  dataOffset(sub_0)\n  0x00\n  codecopy\n  0x00\n  return\nstop\n\nsub_0: assembly {\n        /* \"eventpassing.sol\":60:475  contract Eventpassing {\r... */\n      mstore(0x40, 0x80)\n      jumpi(tag_1, lt(calldatasize, 0x04))\n      shr(0xe0, calldataload(0x00))\n      dup1\n      0x68cd03f6\n      eq\n      tag_2\n      jumpi\n      dup1\n      0x7f59f33a\n      eq\n      tag_3\n      jumpi\n      dup1\n      0x93631d75\n      eq\n      tag_4\n      jumpi\n    tag_1:\n      0x00\n      dup1\n      revert\n        /* \"eventpassing.sol\":390:472  function accounts() public payable {\r... */\n    tag_2:\n      tag_5\n      tag_6\n      jump\t// in\n    tag_5:\n      stop\n        /* \"eventpassing.sol\":208:309  function depositeAmount(uint amount) public {\r... */\n    tag_3:\n      callvalue\n      dup1\n      iszero\n      tag_7\n      jumpi\n      0x00\n      dup1\n      revert\n    tag_7:\n      pop\n      tag_8\n      0x04\n      dup1\n      calldatasize\n      sub\n      dup2\n      add\n      swap1\n      tag_9\n      swap2\n      swap1\n      tag_10\n      jump\t// in\n    tag_9:\n      tag_11\n      jump\t// in\n    tag_8:\n      stop\n        /* \"eventpassing.sol\":313:387  function withdrwalamount(uint amount) public {\r... */\n    tag_4:\n      callvalue\n      dup1\n      iszero\n      tag_12\n      jumpi\n      0x00\n      dup1\n      revert\n    tag_12:\n      pop\n      tag_13\n      0x04\n      dup1\n      calldatasize\n      sub\n      dup2\n      add\n      swap1\n      tag_14\n      swap2\n      swap1\n      tag_10\n      jump\t// in\n    tag_14:\n      tag_15\n      jump\t// in\n    tag_13:\n      stop\n        /* \"eventpassing.sol\":390:472  function accounts() public payable {\r... */\n    tag_6:\n        /* \"eventpassing.sol\":446:456  msg.sender */\n      caller\n        /* \"eventpassing.sol\":437:467  account (msg.sender,msg.value) */\n      0xffffffffffffffffffffffffffffffffffffffff\n      and\n      0x192df65545492a4e25de6ea536004d8943eb4a546248ee4fbfe3207c25896f83\n        /* \"eventpassing.sol\":457:466  msg.value */\n      callvalue\n        /* \"eventpassing.sol\":437:467  account (msg.sender,msg.value) */\n      mload(0x40)\n      tag_17\n      swap2\n      swap1\n      tag_18\n      jump\t// in\n    tag_17:\n      mload(0x40)\n      dup1\n      swap2\n      sub\n      swap1\n      log2\n        /* \"eventpassing.sol\":390:472  function accounts() public payable {\r... */\n      jump\t// out\n        /* \"eventpassing.sol\":208:309  function depositeAmount(uint amount) public {\r... */\n    tag_11:\n        /* \"eventpassing.sol\":268:274  amount */\n      dup1\n        /* \"eventpassing.sol\":257:264  balance */\n      0x01\n      0x00\n        /* \"eventpassing.sol\":257:274  balance += amount */\n      dup3\n      dup3\n      sload\n      tag_20\n      swap2\n      swap1\n      tag_21\n      jump\t// in\n    tag_20:\n      swap3\n      pop\n      pop\n      dup2\n      swap1\n      sstore\n      pop\n        /* \"eventpassing.sol\":286:302  deposite(amount) */\n      0x3104562b1bf3cb2cd86485b58949d12955c64feb34ae2de34aad229f5eb87df9\n        /* \"eventpassing.sol\":295:301  amount */\n      dup2\n        /* \"eventpassing.sol\":286:302  deposite(amount) */\n      mload(0x40)\n      tag_22\n      swap2\n      swap1\n      tag_18\n      jump\t// in\n    tag_22:\n      mload(0x40)\n      dup1\n      swap2\n      sub\n      swap1\n      log1\n        /* \"eventpassing.sol\":208:309  function depositeAmount(uint amount) public {\r... */\n      pop\n      jump\t// out\n        /* \"eventpassing.sol\":313:387  function withdrwalamount(uint amount) public {\r... */\n    tag_15:\n        /* \"eventpassing.sol\":376:382  amount */\n      dup1\n        /* \"eventpassing.sol\":365:372  balance */\n      0x01\n      0x00\n        /* \"eventpassing.sol\":365:382  balance -= amount */\n      dup3\n      dup3\n      sload\n      tag_24\n      swap2\n      swap1\n      tag_25\n      jump\t// in\n    tag_24:\n      swap3\n      pop\n      pop\n      dup2\n      swap1\n      sstore\n      pop\n        /* \"eventpassing.sol\":313:387  function withdrwalamount(uint amount) public {\r... */\n      pop\n      jump\t// out\n        /* \"#utility.yul\":7:146   */\n    tag_27:\n      0x00\n        /* \"#utility.yul\":91:97   */\n      dup2\n        /* \"#utility.yul\":78:98   */\n      calldataload\n        /* \"#utility.yul\":69:98   */\n      swap1\n      pop\n        /* \"#utility.yul\":107:140   */\n      tag_29\n        /* \"#utility.yul\":134:139   */\n      dup2\n        /* \"#utility.yul\":107:140   */\n      tag_30\n      jump\t// in\n    tag_29:\n        /* \"#utility.yul\":59:146   */\n      swap3\n      swap2\n      pop\n      pop\n      jump\t// out\n        /* \"#utility.yul\":152:414   */\n    tag_10:\n      0x00\n        /* \"#utility.yul\":260:262   */\n      0x20\n        /* \"#utility.yul\":248:257   */\n      dup3\n        /* \"#utility.yul\":239:246   */\n      dup5\n        /* \"#utility.yul\":235:258   */\n      sub\n        /* \"#utility.yul\":231:263   */\n      slt\n        /* \"#utility.yul\":228:230   */\n      iszero\n      tag_32\n      jumpi\n        /* \"#utility.yul\":276:277   */\n      0x00\n        /* \"#utility.yul\":273:274   */\n      dup1\n        /* \"#utility.yul\":266:278   */\n      revert\n        /* \"#utility.yul\":228:230   */\n    tag_32:\n        /* \"#utility.yul\":319:320   */\n      0x00\n        /* \"#utility.yul\":344:397   */\n      tag_33\n        /* \"#utility.yul\":389:396   */\n      dup5\n        /* \"#utility.yul\":380:386   */\n      dup3\n        /* \"#utility.yul\":369:378   */\n      dup6\n        /* \"#utility.yul\":365:387   */\n      add\n        /* \"#utility.yul\":344:397   */\n      tag_27\n      jump\t// in\n    tag_33:\n        /* \"#utility.yul\":334:397   */\n      swap2\n      pop\n        /* \"#utility.yul\":290:407   */\n      pop\n        /* \"#utility.yul\":218:414   */\n      swap3\n      swap2\n      pop\n      pop\n      jump\t// out\n        /* \"#utility.yul\":420:538   */\n    tag_34:\n        /* \"#utility.yul\":507:531   */\n      tag_36\n        /* \"#utility.yul\":525:530   */\n      dup2\n        /* \"#utility.yul\":507:531   */\n      tag_37\n      jump\t// in\n    tag_36:\n        /* \"#utility.yul\":502:505   */\n      dup3\n        /* \"#utility.yul\":495:532   */\n      mstore\n        /* \"#utility.yul\":485:538   */\n      pop\n      pop\n      jump\t// out\n        /* \"#utility.yul\":544:766   */\n    tag_18:\n      0x00\n        /* \"#utility.yul\":675:677   */\n      0x20\n        /* \"#utility.yul\":664:673   */\n      dup3\n        /* \"#utility.yul\":660:678   */\n      add\n        /* \"#utility.yul\":652:678   */\n      swap1\n      pop\n        /* \"#utility.yul\":688:759   */\n      tag_39\n        /* \"#utility.yul\":756:757   */\n      0x00\n        /* \"#utility.yul\":745:754   */\n      dup4\n        /* \"#utility.yul\":741:758   */\n      add\n        /* \"#utility.yul\":732:738   */\n      dup5\n        /* \"#utility.yul\":688:759   */\n      tag_34\n      jump\t// in\n    tag_39:\n        /* \"#utility.yul\":642:766   */\n      swap3\n      swap2\n      pop\n      pop\n      jump\t// out\n        /* \"#utility.yul\":772:1077   */\n    tag_21:\n      0x00\n        /* \"#utility.yul\":831:851   */\n      tag_41\n        /* \"#utility.yul\":849:850   */\n      dup3\n        /* \"#utility.yul\":831:851   */\n      tag_37\n      jump\t// in\n    tag_41:\n        /* \"#utility.yul\":826:851   */\n      swap2\n      pop\n        /* \"#utility.yul\":865:885   */\n      tag_42\n        /* \"#utility.yul\":883:884   */\n      dup4\n        /* \"#utility.yul\":865:885   */\n      tag_37\n      jump\t// in\n    tag_42:\n        /* \"#utility.yul\":860:885   */\n      swap3\n      pop\n        /* \"#utility.yul\":1019:1020   */\n      dup3\n        /* \"#utility.yul\":951:1017   */\n      0xffffffffffffffffffffffffffffffffffffffffffffffffffffffffffffffff\n        /* \"#utility.yul\":947:1021   */\n      sub\n        /* \"#utility.yul\":944:945   */\n      dup3\n        /* \"#utility.yul\":941:1022   */\n      gt\n        /* \"#utility.yul\":938:940   */\n      iszero\n      tag_43\n      jumpi\n        /* \"#utility.yul\":1025:1043   */\n      tag_44\n      tag_45\n      jump\t// in\n    tag_44:\n        /* \"#utility.yul\":938:940   */\n    tag_43:\n        /* \"#utility.yul\":1069:1070   */\n      dup3\n        /* \"#utility.yul\":1066:1067   */\n      dup3\n        /* \"#utility.yul\":1062:1071   */\n      add\n        /* \"#utility.yul\":1055:1071   */\n      swap1\n      pop\n        /* \"#utility.yul\":816:1077   */\n      swap3\n      swap2\n      pop\n      pop\n      jump\t// out\n        /* \"#utility.yul\":1083:1274   */\n    tag_25:\n      0x00\n        /* \"#utility.yul\":1143:1163   */\n      tag_47\n        /* \"#utility.yul\":1161:1162   */\n      dup3\n        /* \"#utility.yul\":1143:1163   */\n      tag_37\n      jump\t// in\n    tag_47:\n        /* \"#utility.yul\":1138:1163   */\n      swap2\n      pop\n        /* \"#utility.yul\":1177:1197   */\n      tag_48\n        /* \"#utility.yul\":1195:1196   */\n      dup4\n        /* \"#utility.yul\":1177:1197   */\n      tag_37\n      jump\t// in\n    tag_48:\n        /* \"#utility.yul\":1172:1197   */\n      swap3\n      pop\n        /* \"#utility.yul\":1216:1217   */\n      dup3\n        /* \"#utility.yul\":1213:1214   */\n      dup3\n        /* \"#utility.yul\":1210:1218   */\n      lt\n        /* \"#utility.yul\":1207:1209   */\n      iszero\n      tag_49\n      jumpi\n        /* \"#utility.yul\":1221:1239   */\n      tag_50\n      tag_45\n      jump\t// in\n    tag_50:\n        /* \"#utility.yul\":1207:1209   */\n    tag_49:\n        /* \"#utility.yul\":1266:1267   */\n      dup3\n        /* \"#utility.yul\":1263:1264   */\n      dup3\n        /* \"#utility.yul\":1259:1268   */\n      sub\n        /* \"#utility.yul\":1251:1268   */\n      swap1\n      pop\n        /* \"#utility.yul\":1128:1274   */\n      swap3\n      swap2\n      pop\n      pop\n      jump\t// out\n        /* \"#utility.yul\":1280:1357   */\n    tag_37:\n      0x00\n        /* \"#utility.yul\":1346:1351   */\n      dup2\n        /* \"#utility.yul\":1335:1351   */\n      swap1\n      pop\n        /* \"#utility.yul\":1325:1357   */\n      swap2\n      swap1\n      pop\n      jump\t// out\n        /* \"#utility.yul\":1363:1543   */\n    tag_45:\n        /* \"#utility.yul\":1411:1488   */\n      0x4e487b7100000000000000000000000000000000000000000000000000000000\n        /* \"#utility.yul\":1408:1409   */\n      0x00\n        /* \"#utility.yul\":1401:1489   */\n      mstore\n        /* \"#utility.yul\":1508:1512   */\n      0x11\n        /* \"#utility.yul\":1505:1506   */\n      0x04\n        /* \"#utility.yul\":1498:1513   */\n      mstore\n        /* \"#utility.yul\":1532:1536   */\n      0x24\n        /* \"#utility.yul\":1529:1530   */\n      0x00\n        /* \"#utility.yul\":1522:1537   */\n      revert\n        /* \"#utility.yul\":1549:1671   */\n    tag_30:\n        /* \"#utility.yul\":1622:1646   */\n      tag_54\n        /* \"#utility.yul\":1640:1645   */\n      dup2\n        /* \"#utility.yul\":1622:1646   */\n      tag_37\n      jump\t// in\n    tag_54:\n        /* \"#utility.yul\":1615:1620   */\n      dup2\n        /* \"#utility.yul\":1612:1647   */\n      eq\n        /* \"#utility.yul\":1602:1604   */\n      tag_55\n      jumpi\n        /* \"#utility.yul\":1661:1662   */\n      0x00\n        /* \"#utility.yul\":1658:1659   */\n      dup1\n        /* \"#utility.yul\":1651:1663   */\n      revert\n        /* \"#utility.yul\":1602:1604   */\n    tag_55:\n        /* \"#utility.yul\":1592:1671   */\n      pop\n      jump\t// out\n\n    auxdata: 0xa2646970667358221220cbe92af76bf3235f2d068e9c23ac94b61c4d9b9e6b3725a06bc25ae2fc05d19164736f6c63430008000033\n}\n",
				"bytecode": {
					"linkReferences": {},
					"object": "608060405234801561001057600080fd5b506102cc806100206000396000f3fe6080604052600436106100345760003560e01c806368cd03f6146100395780637f59f33a1461004357806393631d751461006c575b600080fd5b610041610095565b005b34801561004f57600080fd5b5061006a60048036038101906100659190610169565b6100e5565b005b34801561007857600080fd5b50610093600480360381019061008e9190610169565b610138565b005b3373ffffffffffffffffffffffffffffffffffffffff167f192df65545492a4e25de6ea536004d8943eb4a546248ee4fbfe3207c25896f83346040516100db91906101a1565b60405180910390a2565b80600160008282546100f791906101bc565b925050819055507f3104562b1bf3cb2cd86485b58949d12955c64feb34ae2de34aad229f5eb87df98160405161012d91906101a1565b60405180910390a150565b806001600082825461014a9190610212565b9250508190555050565b6000813590506101638161027f565b92915050565b60006020828403121561017b57600080fd5b600061018984828501610154565b91505092915050565b61019b81610246565b82525050565b60006020820190506101b66000830184610192565b92915050565b60006101c782610246565b91506101d283610246565b9250827fffffffffffffffffffffffffffffffffffffffffffffffffffffffffffffffff0382111561020757610206610250565b5b828201905092915050565b600061021d82610246565b915061022883610246565b92508282101561023b5761023a610250565b5b828203905092915050565b6000819050919050565b7f4e487b7100000000000000000000000000000000000000000000000000000000600052601160045260246000fd5b61028881610246565b811461029357600080fd5b5056fea2646970667358221220cbe92af76bf3235f2d068e9c23ac94b61c4d9b9e6b3725a06bc25ae2fc05d19164736f6c63430008000033",
					"opcodes": "PUSH1 0x80 PUSH1 0x40 MSTORE CALLVALUE DUP1 ISZERO PUSH2 0x10 JUMPI PUSH1 0x0 DUP1 REVERT JUMPDEST POP PUSH2 0x2CC DUP1 PUSH2 0x20 PUSH1 0x0 CODECOPY PUSH1 0x0 RETURN INVALID PUSH1 0x80 PUSH1 0x40 MSTORE PUSH1 0x4 CALLDATASIZE LT PUSH2 0x34 JUMPI PUSH1 0x0 CALLDATALOAD PUSH1 0xE0 SHR DUP1 PUSH4 0x68CD03F6 EQ PUSH2 0x39 JUMPI DUP1 PUSH4 0x7F59F33A EQ PUSH2 0x43 JUMPI DUP1 PUSH4 0x93631D75 EQ PUSH2 0x6C JUMPI JUMPDEST PUSH1 0x0 DUP1 REVERT JUMPDEST PUSH2 0x41 PUSH2 0x95 JUMP JUMPDEST STOP JUMPDEST CALLVALUE DUP1 ISZERO PUSH2 0x4F JUMPI PUSH1 0x0 DUP1 REVERT JUMPDEST POP PUSH2 0x6A PUSH1 0x4 DUP1 CALLDATASIZE SUB DUP2 ADD SWAP1 PUSH2 0x65 SWAP2 SWAP1 PUSH2 0x169 JUMP JUMPDEST PUSH2 0xE5 JUMP JUMPDEST STOP JUMPDEST CALLVALUE DUP1 ISZERO PUSH2 0x78 JUMPI PUSH1 0x0 DUP1 REVERT JUMPDEST POP PUSH2 0x93 PUSH1 0x4 DUP1 CALLDATASIZE SUB DUP2 ADD SWAP1 PUSH2 0x8E SWAP2 SWAP1 PUSH2 0x169 JUMP JUMPDEST PUSH2 0x138 JUMP JUMPDEST STOP JUMPDEST CALLER PUSH20 0xFFFFFFFFFFFFFFFFFFFFFFFFFFFFFFFFFFFFFFFF AND PUSH32 0x192DF65545492A4E25DE6EA536004D8943EB4A546248EE4FBFE3207C25896F83 CALLVALUE PUSH1 0x40 MLOAD PUSH2 0xDB SWAP2 SWAP1 PUSH2 0x1A1 JUMP JUMPDEST PUSH1 0x40 MLOAD DUP1 SWAP2 SUB SWAP1 LOG2 JUMP JUMPDEST DUP1 PUSH1 0x1 PUSH1 0x0 DUP3 DUP3 SLOAD PUSH2 0xF7 SWAP2 SWAP1 PUSH2 0x1BC JUMP JUMPDEST SWAP3 POP POP DUP2 SWAP1 SSTORE POP PUSH32 0x3104562B1BF3CB2CD86485B58949D12955C64FEB34AE2DE34AAD229F5EB87DF9 DUP2 PUSH1 0x40 MLOAD PUSH2 0x12D SWAP2 SWAP1 PUSH2 0x1A1 JUMP JUMPDEST PUSH1 0x40 MLOAD DUP1 SWAP2 SUB SWAP1 LOG1 POP JUMP JUMPDEST DUP1 PUSH1 0x1 PUSH1 0x0 DUP3 DUP3 SLOAD PUSH2 0x14A SWAP2 SWAP1 PUSH2 0x212 JUMP JUMPDEST SWAP3 POP POP DUP2 SWAP1 SSTORE POP POP JUMP JUMPDEST PUSH1 0x0 DUP2 CALLDATALOAD SWAP1 POP PUSH2 0x163 DUP2 PUSH2 0x27F JUMP JUMPDEST SWAP3 SWAP2 POP POP JUMP JUMPDEST PUSH1 0x0 PUSH1 0x20 DUP3 DUP5 SUB SLT ISZERO PUSH2 0x17B JUMPI PUSH1 0x0 DUP1 REVERT JUMPDEST PUSH1 0x0 PUSH2 0x189 DUP5 DUP3 DUP6 ADD PUSH2 0x154 JUMP JUMPDEST SWAP2 POP POP SWAP3 SWAP2 POP POP JUMP JUMPDEST PUSH2 0x19B DUP2 PUSH2 0x246 JUMP JUMPDEST DUP3 MSTORE POP POP JUMP JUMPDEST PUSH1 0x0 PUSH1 0x20 DUP3 ADD SWAP1 POP PUSH2 0x1B6 PUSH1 0x0 DUP4 ADD DUP5 PUSH2 0x192 JUMP JUMPDEST SWAP3 SWAP2 POP POP JUMP JUMPDEST PUSH1 0x0 PUSH2 0x1C7 DUP3 PUSH2 0x246 JUMP JUMPDEST SWAP2 POP PUSH2 0x1D2 DUP4 PUSH2 0x246 JUMP JUMPDEST SWAP3 POP DUP3 PUSH32 0xFFFFFFFFFFFFFFFFFFFFFFFFFFFFFFFFFFFFFFFFFFFFFFFFFFFFFFFFFFFFFFFF SUB DUP3 GT ISZERO PUSH2 0x207 JUMPI PUSH2 0x206 PUSH2 0x250 JUMP JUMPDEST JUMPDEST DUP3 DUP3 ADD SWAP1 POP SWAP3 SWAP2 POP POP JUMP JUMPDEST PUSH1 0x0 PUSH2 0x21D DUP3 PUSH2 0x246 JUMP JUMPDEST SWAP2 POP PUSH2 0x228 DUP4 PUSH2 0x246 JUMP JUMPDEST SWAP3 POP DUP3 DUP3 LT ISZERO PUSH2 0x23B JUMPI PUSH2 0x23A PUSH2 0x250 JUMP JUMPDEST JUMPDEST DUP3 DUP3 SUB SWAP1 POP SWAP3 SWAP2 POP POP JUMP JUMPDEST PUSH1 0x0 DUP2 SWAP1 POP SWAP2 SWAP1 POP JUMP JUMPDEST PUSH32 0x4E487B7100000000000000000000000000000000000000000000000000000000 PUSH1 0x0 MSTORE PUSH1 0x11 PUSH1 0x4 MSTORE PUSH1 0x24 PUSH1 0x0 REVERT JUMPDEST PUSH2 0x288 DUP2 PUSH2 0x246 JUMP JUMPDEST DUP2 EQ PUSH2 0x293 JUMPI PUSH1 0x0 DUP1 REVERT JUMPDEST POP JUMP INVALID LOG2 PUSH5 0x6970667358 0x22 SLT KECCAK256 0xCB 0xE9 0x2A 0xF7 PUSH12 0xF3235F2D068E9C23AC94B61C 0x4D SWAP12 SWAP15 PUSH12 0x3725A06BC25AE2FC05D19164 PUSH20 0x6F6C634300080000330000000000000000000000 "
				},
				"gasEstimates": {
					"creation": {
						"codeDepositCost": "143200",
						"executionCost": "190",
						"totalCost": "143390"
					},
					"external": {
						"accounts()": "1671",
						"depositeAmount(uint256)": "infinite",
						"withdrwalamount(uint256)": "infinite"
					}
				},
				"methodIdentifiers": {
					"accounts()": "68cd03f6",
					"depositeAmount(uint256)": "7f59f33a",
					"withdrwalamount(uint256)": "93631d75"
				}
			},
			"storageLayout": {
				"storage": [
					{
						"astId": 3,
						"contract": "eventpassing.sol:Eventpassing",
						"label": "wallet",
						"offset": 0,
						"slot": "0",
						"type": "t_address"
					},
					{
						"astId": 5,
						"contract": "eventpassing.sol:Eventpassing",
						"label": "balance",
						"offset": 0,
						"slot": "1",
						"type": "t_uint256"
					}
				],
				"types": {
					"t_address": {
						"encoding": "inplace",
						"label": "address",
						"numberOfBytes": "20"
					},
					"t_uint256": {
						"encoding": "inplace",
						"label": "uint256",
						"numberOfBytes": "32"
					}
				}
			},
			"userdoc": {
				"kind": "user",
				"methods": {},
				"version": 1
			}
		}
	}
}