{
	"Products.sol": {
		"productstruct": {
			"abi": [
				{
					"inputs": [
						{
							"internalType": "uint256",
							"name": "",
							"type": "uint256"
						}
					],
					"name": "products",
					"outputs": [
						{
							"internalType": "uint256",
							"name": "Batch_no",
							"type": "uint256"
						},
						{
							"internalType": "string",
							"name": "names",
							"type": "string"
						},
						{
							"internalType": "bool",
							"name": "expired",
							"type": "bool"
						}
					],
					"stateMutability": "view",
					"type": "function"
				},
				{
					"inputs": [],
					"name": "productss",
					"outputs": [
						{
							"internalType": "uint256",
							"name": "Batch_no",
							"type": "uint256"
						},
						{
							"internalType": "string",
							"name": "names",
							"type": "string"
						},
						{
							"internalType": "bool",
							"name": "expired",
							"type": "bool"
						}
					],
					"stateMutability": "view",
					"type": "function"
				},
				{
					"inputs": [
						{
							"internalType": "uint256",
							"name": "_Batch_no",
							"type": "uint256"
						},
						{
							"internalType": "string",
							"name": "_names",
							"type": "string"
						},
						{
							"internalType": "bool",
							"name": "_expired",
							"type": "bool"
						}
					],
					"name": "set_arr",
					"outputs": [],
					"stateMutability": "nonpayable",
					"type": "function"
				}
			],
			"devdoc": {
				"kind": "dev",
				"methods": {},
				"version": 1
			},
			"evm": {
				"assembly": "    /* \"Products.sol\":60:745  contract productstruct{... */\n  mstore(0x40, 0x80)\n  callvalue\n  dup1\n  iszero\n  tag_1\n  jumpi\n  revert(0x00, 0x00)\ntag_1:\n  pop\n  dataSize(sub_0)\n  dup1\n  dataOffset(sub_0)\n  0x00\n  codecopy\n  0x00\n  return\nstop\n\nsub_0: assembly {\n        /* \"Products.sol\":60:745  contract productstruct{... */\n      mstore(0x40, 0x80)\n      callvalue\n      dup1\n      iszero\n      tag_1\n      jumpi\n      revert(0x00, 0x00)\n    tag_1:\n      pop\n      jumpi(tag_2, lt(calldatasize, 0x04))\n      shr(0xe0, calldataload(0x00))\n      dup1\n      0x1b3ce40e\n      eq\n      tag_3\n      jumpi\n      dup1\n      0x7acc0b20\n      eq\n      tag_4\n      jumpi\n      dup1\n      0xa7e82e23\n      eq\n      tag_5\n      jumpi\n    tag_2:\n      revert(0x00, 0x00)\n        /* \"Products.sol\":479:627  function set_arr (uint _Batch_no, string memory _names, bool _expired) public {... */\n    tag_3:\n      tag_6\n      0x04\n      dup1\n      calldatasize\n      sub\n      dup2\n      add\n      swap1\n      tag_7\n      swap2\n      swap1\n      tag_8\n      jump\t// in\n    tag_7:\n      tag_9\n      jump\t// in\n    tag_6:\n      stop\n        /* \"Products.sol\":192:217  product[] public products */\n    tag_4:\n      tag_10\n      0x04\n      dup1\n      calldatasize\n      sub\n      dup2\n      add\n      swap1\n      tag_11\n      swap2\n      swap1\n      tag_12\n      jump\t// in\n    tag_11:\n      tag_13\n      jump\t// in\n    tag_10:\n      mload(0x40)\n      tag_14\n      swap4\n      swap3\n      swap2\n      swap1\n      tag_15\n      jump\t// in\n    tag_14:\n      mload(0x40)\n      dup1\n      swap2\n      sub\n      swap1\n      return\n        /* \"Products.sol\":224:248  product public productss */\n    tag_5:\n      tag_16\n      tag_17\n      jump\t// in\n    tag_16:\n      mload(0x40)\n      tag_18\n      swap4\n      swap3\n      swap2\n      swap1\n      tag_15\n      jump\t// in\n    tag_18:\n      mload(0x40)\n      dup1\n      swap2\n      sub\n      swap1\n      return\n        /* \"Products.sol\":479:627  function set_arr (uint _Batch_no, string memory _names, bool _expired) public {... */\n    tag_9:\n        /* \"Products.sol\":568:576  products */\n      0x00\n        /* \"Products.sol\":582:616  product(_Batch_no,_names,_expired) */\n      mload(0x40)\n      dup1\n      0x60\n      add\n      0x40\n      mstore\n      dup1\n        /* \"Products.sol\":590:599  _Batch_no */\n      dup6\n        /* \"Products.sol\":582:616  product(_Batch_no,_names,_expired) */\n      dup2\n      mstore\n      0x20\n      add\n        /* \"Products.sol\":600:606  _names */\n      dup5\n        /* \"Products.sol\":582:616  product(_Batch_no,_names,_expired) */\n      dup2\n      mstore\n      0x20\n      add\n        /* \"Products.sol\":607:615  _expired */\n      dup4\n        /* \"Products.sol\":582:616  product(_Batch_no,_names,_expired) */\n      iszero\n      iszero\n      dup2\n      mstore\n      pop\n        /* \"Products.sol\":568:617  products.push(product(_Batch_no,_names,_expired)) */\n      swap1\n      dup1\n      0x01\n      dup2\n      sload\n      add\n      dup1\n      dup3\n      sstore\n      dup1\n      swap2\n      pop\n      pop\n      0x01\n      swap1\n      sub\n      swap1\n      0x00\n      mstore\n      keccak256(0x00, 0x20)\n      swap1\n      0x03\n      mul\n      add\n      0x00\n      swap1\n      swap2\n      swap1\n      swap2\n      swap1\n      swap2\n      pop\n      0x00\n      dup3\n      add\n      mload\n      dup2\n      0x00\n      add\n      sstore\n      0x20\n      dup3\n      add\n      mload\n      dup2\n      0x01\n      add\n      swap1\n      dup2\n      tag_21\n      swap2\n      swap1\n      tag_22\n      jump\t// in\n    tag_21:\n      pop\n      0x40\n      dup3\n      add\n      mload\n      dup2\n      0x02\n      add\n      exp(0x0100, 0x00)\n      dup2\n      sload\n      dup2\n      0xff\n      mul\n      not\n      and\n      swap1\n      dup4\n      iszero\n      iszero\n      mul\n      or\n      swap1\n      sstore\n      pop\n      pop\n      pop\n        /* \"Products.sol\":479:627  function set_arr (uint _Batch_no, string memory _names, bool _expired) public {... */\n      pop\n      pop\n      pop\n      jump\t// out\n        /* \"Products.sol\":192:217  product[] public products */\n    tag_13:\n      0x00\n      dup2\n      dup2\n      sload\n      dup2\n      lt\n      tag_23\n      jumpi\n      0x00\n      dup1\n      revert\n    tag_23:\n      swap1\n      0x00\n      mstore\n      keccak256(0x00, 0x20)\n      swap1\n      0x03\n      mul\n      add\n      0x00\n      swap2\n      pop\n      swap1\n      pop\n      dup1\n      0x00\n      add\n      sload\n      swap1\n      dup1\n      0x01\n      add\n      dup1\n      sload\n      tag_25\n      swap1\n      tag_26\n      jump\t// in\n    tag_25:\n      dup1\n      0x1f\n      add\n      0x20\n      dup1\n      swap2\n      div\n      mul\n      0x20\n      add\n      mload(0x40)\n      swap1\n      dup2\n      add\n      0x40\n      mstore\n      dup1\n      swap3\n      swap2\n      swap1\n      dup2\n      dup2\n      mstore\n      0x20\n      add\n      dup3\n      dup1\n      sload\n      tag_27\n      swap1\n      tag_26\n      jump\t// in\n    tag_27:\n      dup1\n      iszero\n      tag_28\n      jumpi\n      dup1\n      0x1f\n      lt\n      tag_29\n      jumpi\n      0x0100\n      dup1\n      dup4\n      sload\n      div\n      mul\n      dup4\n      mstore\n      swap2\n      0x20\n      add\n      swap2\n      jump(tag_28)\n    tag_29:\n      dup3\n      add\n      swap2\n      swap1\n      0x00\n      mstore\n      keccak256(0x00, 0x20)\n      swap1\n    tag_30:\n      dup2\n      sload\n      dup2\n      mstore\n      swap1\n      0x01\n      add\n      swap1\n      0x20\n      add\n      dup1\n      dup4\n      gt\n      tag_30\n      jumpi\n      dup3\n      swap1\n      sub\n      0x1f\n      and\n      dup3\n      add\n      swap2\n    tag_28:\n      pop\n      pop\n      pop\n      pop\n      pop\n      swap1\n      dup1\n      0x02\n      add\n      0x00\n      swap1\n      sload\n      swap1\n      0x0100\n      exp\n      swap1\n      div\n      0xff\n      and\n      swap1\n      pop\n      dup4\n      jump\t// out\n        /* \"Products.sol\":224:248  product public productss */\n    tag_17:\n      0x01\n      dup1\n      0x00\n      add\n      sload\n      swap1\n      dup1\n      0x01\n      add\n      dup1\n      sload\n      tag_31\n      swap1\n      tag_26\n      jump\t// in\n    tag_31:\n      dup1\n      0x1f\n      add\n      0x20\n      dup1\n      swap2\n      div\n      mul\n      0x20\n      add\n      mload(0x40)\n      swap1\n      dup2\n      add\n      0x40\n      mstore\n      dup1\n      swap3\n      swap2\n      swap1\n      dup2\n      dup2\n      mstore\n      0x20\n      add\n      dup3\n      dup1\n      sload\n      tag_32\n      swap1\n      tag_26\n      jump\t// in\n    tag_32:\n      dup1\n      iszero\n      tag_33\n      jumpi\n      dup1\n      0x1f\n      lt\n      tag_34\n      jumpi\n      0x0100\n      dup1\n      dup4\n      sload\n      div\n      mul\n      dup4\n      mstore\n      swap2\n      0x20\n      add\n      swap2\n      jump(tag_33)\n    tag_34:\n      dup3\n      add\n      swap2\n      swap1\n      0x00\n      mstore\n      keccak256(0x00, 0x20)\n      swap1\n    tag_35:\n      dup2\n      sload\n      dup2\n      mstore\n      swap1\n      0x01\n      add\n      swap1\n      0x20\n      add\n      dup1\n      dup4\n      gt\n      tag_35\n      jumpi\n      dup3\n      swap1\n      sub\n      0x1f\n      and\n      dup3\n      add\n      swap2\n    tag_33:\n      pop\n      pop\n      pop\n      pop\n      pop\n      swap1\n      dup1\n      0x02\n      add\n      0x00\n      swap1\n      sload\n      swap1\n      0x0100\n      exp\n      swap1\n      div\n      0xff\n      and\n      swap1\n      pop\n      dup4\n      jump\t// out\n        /* \"#utility.yul\":7:82   */\n    tag_36:\n        /* \"#utility.yul\":40:46   */\n      0x00\n        /* \"#utility.yul\":73:75   */\n      0x40\n        /* \"#utility.yul\":67:76   */\n      mload\n        /* \"#utility.yul\":57:76   */\n      swap1\n      pop\n        /* \"#utility.yul\":7:82   */\n      swap1\n      jump\t// out\n        /* \"#utility.yul\":88:205   */\n    tag_37:\n        /* \"#utility.yul\":197:198   */\n      0x00\n        /* \"#utility.yul\":194:195   */\n      0x00\n        /* \"#utility.yul\":187:199   */\n      revert\n        /* \"#utility.yul\":211:328   */\n    tag_38:\n        /* \"#utility.yul\":320:321   */\n      0x00\n        /* \"#utility.yul\":317:318   */\n      0x00\n        /* \"#utility.yul\":310:322   */\n      revert\n        /* \"#utility.yul\":334:411   */\n    tag_39:\n        /* \"#utility.yul\":371:378   */\n      0x00\n        /* \"#utility.yul\":400:405   */\n      dup2\n        /* \"#utility.yul\":389:405   */\n      swap1\n      pop\n        /* \"#utility.yul\":334:411   */\n      swap2\n      swap1\n      pop\n      jump\t// out\n        /* \"#utility.yul\":417:539   */\n    tag_40:\n        /* \"#utility.yul\":490:514   */\n      tag_83\n        /* \"#utility.yul\":508:513   */\n      dup2\n        /* \"#utility.yul\":490:514   */\n      tag_39\n      jump\t// in\n    tag_83:\n        /* \"#utility.yul\":483:488   */\n      dup2\n        /* \"#utility.yul\":480:515   */\n      eq\n        /* \"#utility.yul\":470:533   */\n      tag_84\n      jumpi\n        /* \"#utility.yul\":529:530   */\n      0x00\n        /* \"#utility.yul\":526:527   */\n      0x00\n        /* \"#utility.yul\":519:531   */\n      revert\n        /* \"#utility.yul\":470:533   */\n    tag_84:\n        /* \"#utility.yul\":417:539   */\n      pop\n      jump\t// out\n        /* \"#utility.yul\":545:684   */\n    tag_41:\n        /* \"#utility.yul\":591:596   */\n      0x00\n        /* \"#utility.yul\":629:635   */\n      dup2\n        /* \"#utility.yul\":616:636   */\n      calldataload\n        /* \"#utility.yul\":607:636   */\n      swap1\n      pop\n        /* \"#utility.yul\":645:678   */\n      tag_86\n        /* \"#utility.yul\":672:677   */\n      dup2\n        /* \"#utility.yul\":645:678   */\n      tag_40\n      jump\t// in\n    tag_86:\n        /* \"#utility.yul\":545:684   */\n      swap3\n      swap2\n      pop\n      pop\n      jump\t// out\n        /* \"#utility.yul\":690:807   */\n    tag_42:\n        /* \"#utility.yul\":799:800   */\n      0x00\n        /* \"#utility.yul\":796:797   */\n      0x00\n        /* \"#utility.yul\":789:801   */\n      revert\n        /* \"#utility.yul\":813:930   */\n    tag_43:\n        /* \"#utility.yul\":922:923   */\n      0x00\n        /* \"#utility.yul\":919:920   */\n      0x00\n        /* \"#utility.yul\":912:924   */\n      revert\n        /* \"#utility.yul\":936:1038   */\n    tag_44:\n        /* \"#utility.yul\":977:983   */\n      0x00\n        /* \"#utility.yul\":1028:1030   */\n      0x1f\n        /* \"#utility.yul\":1024:1031   */\n      not\n        /* \"#utility.yul\":1019:1021   */\n      0x1f\n        /* \"#utility.yul\":1012:1017   */\n      dup4\n        /* \"#utility.yul\":1008:1022   */\n      add\n        /* \"#utility.yul\":1004:1032   */\n      and\n        /* \"#utility.yul\":994:1032   */\n      swap1\n      pop\n        /* \"#utility.yul\":936:1038   */\n      swap2\n      swap1\n      pop\n      jump\t// out\n        /* \"#utility.yul\":1044:1224   */\n    tag_45:\n        /* \"#utility.yul\":1092:1169   */\n      0x4e487b7100000000000000000000000000000000000000000000000000000000\n        /* \"#utility.yul\":1089:1090   */\n      0x00\n        /* \"#utility.yul\":1082:1170   */\n      mstore\n        /* \"#utility.yul\":1189:1193   */\n      0x41\n        /* \"#utility.yul\":1186:1187   */\n      0x04\n        /* \"#utility.yul\":1179:1194   */\n      mstore\n        /* \"#utility.yul\":1213:1217   */\n      0x24\n        /* \"#utility.yul\":1210:1211   */\n      0x00\n        /* \"#utility.yul\":1203:1218   */\n      revert\n        /* \"#utility.yul\":1230:1511   */\n    tag_46:\n        /* \"#utility.yul\":1313:1340   */\n      tag_92\n        /* \"#utility.yul\":1335:1339   */\n      dup3\n        /* \"#utility.yul\":1313:1340   */\n      tag_44\n      jump\t// in\n    tag_92:\n        /* \"#utility.yul\":1305:1311   */\n      dup2\n        /* \"#utility.yul\":1301:1341   */\n      add\n        /* \"#utility.yul\":1443:1449   */\n      dup2\n        /* \"#utility.yul\":1431:1441   */\n      dup2\n        /* \"#utility.yul\":1428:1450   */\n      lt\n        /* \"#utility.yul\":1407:1425   */\n      0xffffffffffffffff\n        /* \"#utility.yul\":1395:1405   */\n      dup3\n        /* \"#utility.yul\":1392:1426   */\n      gt\n        /* \"#utility.yul\":1389:1451   */\n      or\n        /* \"#utility.yul\":1386:1474   */\n      iszero\n      tag_93\n      jumpi\n        /* \"#utility.yul\":1454:1472   */\n      tag_94\n      tag_45\n      jump\t// in\n    tag_94:\n        /* \"#utility.yul\":1386:1474   */\n    tag_93:\n        /* \"#utility.yul\":1494:1504   */\n      dup1\n        /* \"#utility.yul\":1490:1492   */\n      0x40\n        /* \"#utility.yul\":1483:1505   */\n      mstore\n        /* \"#utility.yul\":1273:1511   */\n      pop\n        /* \"#utility.yul\":1230:1511   */\n      pop\n      pop\n      jump\t// out\n        /* \"#utility.yul\":1517:1646   */\n    tag_47:\n        /* \"#utility.yul\":1551:1557   */\n      0x00\n        /* \"#utility.yul\":1578:1598   */\n      tag_96\n      tag_36\n      jump\t// in\n    tag_96:\n        /* \"#utility.yul\":1568:1598   */\n      swap1\n      pop\n        /* \"#utility.yul\":1607:1640   */\n      tag_97\n        /* \"#utility.yul\":1635:1639   */\n      dup3\n        /* \"#utility.yul\":1627:1633   */\n      dup3\n        /* \"#utility.yul\":1607:1640   */\n      tag_46\n      jump\t// in\n    tag_97:\n        /* \"#utility.yul\":1517:1646   */\n      swap2\n      swap1\n      pop\n      jump\t// out\n        /* \"#utility.yul\":1652:1960   */\n    tag_48:\n        /* \"#utility.yul\":1714:1718   */\n      0x00\n        /* \"#utility.yul\":1804:1822   */\n      0xffffffffffffffff\n        /* \"#utility.yul\":1796:1802   */\n      dup3\n        /* \"#utility.yul\":1793:1823   */\n      gt\n        /* \"#utility.yul\":1790:1846   */\n      iszero\n      tag_99\n      jumpi\n        /* \"#utility.yul\":1826:1844   */\n      tag_100\n      tag_45\n      jump\t// in\n    tag_100:\n        /* \"#utility.yul\":1790:1846   */\n    tag_99:\n        /* \"#utility.yul\":1864:1893   */\n      tag_101\n        /* \"#utility.yul\":1886:1892   */\n      dup3\n        /* \"#utility.yul\":1864:1893   */\n      tag_44\n      jump\t// in\n    tag_101:\n        /* \"#utility.yul\":1856:1893   */\n      swap1\n      pop\n        /* \"#utility.yul\":1948:1952   */\n      0x20\n        /* \"#utility.yul\":1942:1946   */\n      dup2\n        /* \"#utility.yul\":1938:1953   */\n      add\n        /* \"#utility.yul\":1930:1953   */\n      swap1\n      pop\n        /* \"#utility.yul\":1652:1960   */\n      swap2\n      swap1\n      pop\n      jump\t// out\n        /* \"#utility.yul\":1966:2114   */\n    tag_49:\n        /* \"#utility.yul\":2064:2070   */\n      dup3\n        /* \"#utility.yul\":2059:2062   */\n      dup2\n        /* \"#utility.yul\":2054:2057   */\n      dup4\n        /* \"#utility.yul\":2041:2071   */\n      calldatacopy\n        /* \"#utility.yul\":2105:2106   */\n      0x00\n        /* \"#utility.yul\":2096:2102   */\n      dup4\n        /* \"#utility.yul\":2091:2094   */\n      dup4\n        /* \"#utility.yul\":2087:2103   */\n      add\n        /* \"#utility.yul\":2080:2107   */\n      mstore\n        /* \"#utility.yul\":1966:2114   */\n      pop\n      pop\n      pop\n      jump\t// out\n        /* \"#utility.yul\":2120:2545   */\n    tag_50:\n        /* \"#utility.yul\":2198:2203   */\n      0x00\n        /* \"#utility.yul\":2223:2289   */\n      tag_104\n        /* \"#utility.yul\":2239:2288   */\n      tag_105\n        /* \"#utility.yul\":2281:2287   */\n      dup5\n        /* \"#utility.yul\":2239:2288   */\n      tag_48\n      jump\t// in\n    tag_105:\n        /* \"#utility.yul\":2223:2289   */\n      tag_47\n      jump\t// in\n    tag_104:\n        /* \"#utility.yul\":2214:2289   */\n      swap1\n      pop\n        /* \"#utility.yul\":2312:2318   */\n      dup3\n        /* \"#utility.yul\":2305:2310   */\n      dup2\n        /* \"#utility.yul\":2298:2319   */\n      mstore\n        /* \"#utility.yul\":2350:2354   */\n      0x20\n        /* \"#utility.yul\":2343:2348   */\n      dup2\n        /* \"#utility.yul\":2339:2355   */\n      add\n        /* \"#utility.yul\":2388:2391   */\n      dup5\n        /* \"#utility.yul\":2379:2385   */\n      dup5\n        /* \"#utility.yul\":2374:2377   */\n      dup5\n        /* \"#utility.yul\":2370:2386   */\n      add\n        /* \"#utility.yul\":2367:2392   */\n      gt\n        /* \"#utility.yul\":2364:2476   */\n      iszero\n      tag_106\n      jumpi\n        /* \"#utility.yul\":2395:2474   */\n      tag_107\n      tag_43\n      jump\t// in\n    tag_107:\n        /* \"#utility.yul\":2364:2476   */\n    tag_106:\n        /* \"#utility.yul\":2485:2539   */\n      tag_108\n        /* \"#utility.yul\":2532:2538   */\n      dup5\n        /* \"#utility.yul\":2527:2530   */\n      dup3\n        /* \"#utility.yul\":2522:2525   */\n      dup6\n        /* \"#utility.yul\":2485:2539   */\n      tag_49\n      jump\t// in\n    tag_108:\n        /* \"#utility.yul\":2204:2545   */\n      pop\n        /* \"#utility.yul\":2120:2545   */\n      swap4\n      swap3\n      pop\n      pop\n      pop\n      jump\t// out\n        /* \"#utility.yul\":2565:2905   */\n    tag_51:\n        /* \"#utility.yul\":2621:2626   */\n      0x00\n        /* \"#utility.yul\":2670:2673   */\n      dup3\n        /* \"#utility.yul\":2663:2667   */\n      0x1f\n        /* \"#utility.yul\":2655:2661   */\n      dup4\n        /* \"#utility.yul\":2651:2668   */\n      add\n        /* \"#utility.yul\":2647:2674   */\n      slt\n        /* \"#utility.yul\":2637:2759   */\n      tag_110\n      jumpi\n        /* \"#utility.yul\":2678:2757   */\n      tag_111\n      tag_42\n      jump\t// in\n    tag_111:\n        /* \"#utility.yul\":2637:2759   */\n    tag_110:\n        /* \"#utility.yul\":2795:2801   */\n      dup2\n        /* \"#utility.yul\":2782:2802   */\n      calldataload\n        /* \"#utility.yul\":2820:2899   */\n      tag_112\n        /* \"#utility.yul\":2895:2898   */\n      dup5\n        /* \"#utility.yul\":2887:2893   */\n      dup3\n        /* \"#utility.yul\":2880:2884   */\n      0x20\n        /* \"#utility.yul\":2872:2878   */\n      dup7\n        /* \"#utility.yul\":2868:2885   */\n      add\n        /* \"#utility.yul\":2820:2899   */\n      tag_50\n      jump\t// in\n    tag_112:\n        /* \"#utility.yul\":2811:2899   */\n      swap2\n      pop\n        /* \"#utility.yul\":2627:2905   */\n      pop\n        /* \"#utility.yul\":2565:2905   */\n      swap3\n      swap2\n      pop\n      pop\n      jump\t// out\n        /* \"#utility.yul\":2911:3001   */\n    tag_52:\n        /* \"#utility.yul\":2945:2952   */\n      0x00\n        /* \"#utility.yul\":2988:2993   */\n      dup2\n        /* \"#utility.yul\":2981:2994   */\n      iszero\n        /* \"#utility.yul\":2974:2995   */\n      iszero\n        /* \"#utility.yul\":2963:2995   */\n      swap1\n      pop\n        /* \"#utility.yul\":2911:3001   */\n      swap2\n      swap1\n      pop\n      jump\t// out\n        /* \"#utility.yul\":3007:3123   */\n    tag_53:\n        /* \"#utility.yul\":3077:3098   */\n      tag_115\n        /* \"#utility.yul\":3092:3097   */\n      dup2\n        /* \"#utility.yul\":3077:3098   */\n      tag_52\n      jump\t// in\n    tag_115:\n        /* \"#utility.yul\":3070:3075   */\n      dup2\n        /* \"#utility.yul\":3067:3099   */\n      eq\n        /* \"#utility.yul\":3057:3117   */\n      tag_116\n      jumpi\n        /* \"#utility.yul\":3113:3114   */\n      0x00\n        /* \"#utility.yul\":3110:3111   */\n      0x00\n        /* \"#utility.yul\":3103:3115   */\n      revert\n        /* \"#utility.yul\":3057:3117   */\n    tag_116:\n        /* \"#utility.yul\":3007:3123   */\n      pop\n      jump\t// out\n        /* \"#utility.yul\":3129:3262   */\n    tag_54:\n        /* \"#utility.yul\":3172:3177   */\n      0x00\n        /* \"#utility.yul\":3210:3216   */\n      dup2\n        /* \"#utility.yul\":3197:3217   */\n      calldataload\n        /* \"#utility.yul\":3188:3217   */\n      swap1\n      pop\n        /* \"#utility.yul\":3226:3256   */\n      tag_118\n        /* \"#utility.yul\":3250:3255   */\n      dup2\n        /* \"#utility.yul\":3226:3256   */\n      tag_53\n      jump\t// in\n    tag_118:\n        /* \"#utility.yul\":3129:3262   */\n      swap3\n      swap2\n      pop\n      pop\n      jump\t// out\n        /* \"#utility.yul\":3268:4061   */\n    tag_8:\n        /* \"#utility.yul\":3352:3358   */\n      0x00\n        /* \"#utility.yul\":3360:3366   */\n      0x00\n        /* \"#utility.yul\":3368:3374   */\n      0x00\n        /* \"#utility.yul\":3417:3419   */\n      0x60\n        /* \"#utility.yul\":3405:3414   */\n      dup5\n        /* \"#utility.yul\":3396:3403   */\n      dup7\n        /* \"#utility.yul\":3392:3415   */\n      sub\n        /* \"#utility.yul\":3388:3420   */\n      slt\n        /* \"#utility.yul\":3385:3504   */\n      iszero\n      tag_120\n      jumpi\n        /* \"#utility.yul\":3423:3502   */\n      tag_121\n      tag_37\n      jump\t// in\n    tag_121:\n        /* \"#utility.yul\":3385:3504   */\n    tag_120:\n        /* \"#utility.yul\":3543:3544   */\n      0x00\n        /* \"#utility.yul\":3568:3621   */\n      tag_122\n        /* \"#utility.yul\":3613:3620   */\n      dup7\n        /* \"#utility.yul\":3604:3610   */\n      dup3\n        /* \"#utility.yul\":3593:3602   */\n      dup8\n        /* \"#utility.yul\":3589:3611   */\n      add\n        /* \"#utility.yul\":3568:3621   */\n      tag_41\n      jump\t// in\n    tag_122:\n        /* \"#utility.yul\":3558:3621   */\n      swap4\n      pop\n        /* \"#utility.yul\":3514:3631   */\n      pop\n        /* \"#utility.yul\":3698:3700   */\n      0x20\n        /* \"#utility.yul\":3687:3696   */\n      dup5\n        /* \"#utility.yul\":3683:3701   */\n      add\n        /* \"#utility.yul\":3670:3702   */\n      calldataload\n        /* \"#utility.yul\":3729:3747   */\n      0xffffffffffffffff\n        /* \"#utility.yul\":3721:3727   */\n      dup2\n        /* \"#utility.yul\":3718:3748   */\n      gt\n        /* \"#utility.yul\":3715:3832   */\n      iszero\n      tag_123\n      jumpi\n        /* \"#utility.yul\":3751:3830   */\n      tag_124\n      tag_38\n      jump\t// in\n    tag_124:\n        /* \"#utility.yul\":3715:3832   */\n    tag_123:\n        /* \"#utility.yul\":3856:3919   */\n      tag_125\n        /* \"#utility.yul\":3911:3918   */\n      dup7\n        /* \"#utility.yul\":3902:3908   */\n      dup3\n        /* \"#utility.yul\":3891:3900   */\n      dup8\n        /* \"#utility.yul\":3887:3909   */\n      add\n        /* \"#utility.yul\":3856:3919   */\n      tag_51\n      jump\t// in\n    tag_125:\n        /* \"#utility.yul\":3846:3919   */\n      swap3\n      pop\n        /* \"#utility.yul\":3641:3929   */\n      pop\n        /* \"#utility.yul\":3968:3970   */\n      0x40\n        /* \"#utility.yul\":3994:4044   */\n      tag_126\n        /* \"#utility.yul\":4036:4043   */\n      dup7\n        /* \"#utility.yul\":4027:4033   */\n      dup3\n        /* \"#utility.yul\":4016:4025   */\n      dup8\n        /* \"#utility.yul\":4012:4034   */\n      add\n        /* \"#utility.yul\":3994:4044   */\n      tag_54\n      jump\t// in\n    tag_126:\n        /* \"#utility.yul\":3984:4044   */\n      swap2\n      pop\n        /* \"#utility.yul\":3939:4054   */\n      pop\n        /* \"#utility.yul\":3268:4061   */\n      swap3\n      pop\n      swap3\n      pop\n      swap3\n      jump\t// out\n        /* \"#utility.yul\":4067:4396   */\n    tag_12:\n        /* \"#utility.yul\":4126:4132   */\n      0x00\n        /* \"#utility.yul\":4175:4177   */\n      0x20\n        /* \"#utility.yul\":4163:4172   */\n      dup3\n        /* \"#utility.yul\":4154:4161   */\n      dup5\n        /* \"#utility.yul\":4150:4173   */\n      sub\n        /* \"#utility.yul\":4146:4178   */\n      slt\n        /* \"#utility.yul\":4143:4262   */\n      iszero\n      tag_128\n      jumpi\n        /* \"#utility.yul\":4181:4260   */\n      tag_129\n      tag_37\n      jump\t// in\n    tag_129:\n        /* \"#utility.yul\":4143:4262   */\n    tag_128:\n        /* \"#utility.yul\":4301:4302   */\n      0x00\n        /* \"#utility.yul\":4326:4379   */\n      tag_130\n        /* \"#utility.yul\":4371:4378   */\n      dup5\n        /* \"#utility.yul\":4362:4368   */\n      dup3\n        /* \"#utility.yul\":4351:4360   */\n      dup6\n        /* \"#utility.yul\":4347:4369   */\n      add\n        /* \"#utility.yul\":4326:4379   */\n      tag_41\n      jump\t// in\n    tag_130:\n        /* \"#utility.yul\":4316:4379   */\n      swap2\n      pop\n        /* \"#utility.yul\":4272:4389   */\n      pop\n        /* \"#utility.yul\":4067:4396   */\n      swap3\n      swap2\n      pop\n      pop\n      jump\t// out\n        /* \"#utility.yul\":4402:4520   */\n    tag_55:\n        /* \"#utility.yul\":4489:4513   */\n      tag_132\n        /* \"#utility.yul\":4507:4512   */\n      dup2\n        /* \"#utility.yul\":4489:4513   */\n      tag_39\n      jump\t// in\n    tag_132:\n        /* \"#utility.yul\":4484:4487   */\n      dup3\n        /* \"#utility.yul\":4477:4514   */\n      mstore\n        /* \"#utility.yul\":4402:4520   */\n      pop\n      pop\n      jump\t// out\n        /* \"#utility.yul\":4526:4625   */\n    tag_56:\n        /* \"#utility.yul\":4578:4584   */\n      0x00\n        /* \"#utility.yul\":4612:4617   */\n      dup2\n        /* \"#utility.yul\":4606:4618   */\n      mload\n        /* \"#utility.yul\":4596:4618   */\n      swap1\n      pop\n        /* \"#utility.yul\":4526:4625   */\n      swap2\n      swap1\n      pop\n      jump\t// out\n        /* \"#utility.yul\":4631:4800   */\n    tag_57:\n        /* \"#utility.yul\":4715:4726   */\n      0x00\n        /* \"#utility.yul\":4749:4755   */\n      dup3\n        /* \"#utility.yul\":4744:4747   */\n      dup3\n        /* \"#utility.yul\":4737:4756   */\n      mstore\n        /* \"#utility.yul\":4789:4793   */\n      0x20\n        /* \"#utility.yul\":4784:4787   */\n      dup3\n        /* \"#utility.yul\":4780:4794   */\n      add\n        /* \"#utility.yul\":4765:4794   */\n      swap1\n      pop\n        /* \"#utility.yul\":4631:4800   */\n      swap3\n      swap2\n      pop\n      pop\n      jump\t// out\n        /* \"#utility.yul\":4806:4945   */\n    tag_58:\n        /* \"#utility.yul\":4895:4901   */\n      dup3\n        /* \"#utility.yul\":4890:4893   */\n      dup2\n        /* \"#utility.yul\":4885:4888   */\n      dup4\n        /* \"#utility.yul\":4879:4902   */\n      mcopy\n        /* \"#utility.yul\":4936:4937   */\n      0x00\n        /* \"#utility.yul\":4927:4933   */\n      dup4\n        /* \"#utility.yul\":4922:4925   */\n      dup4\n        /* \"#utility.yul\":4918:4934   */\n      add\n        /* \"#utility.yul\":4911:4938   */\n      mstore\n        /* \"#utility.yul\":4806:4945   */\n      pop\n      pop\n      pop\n      jump\t// out\n        /* \"#utility.yul\":4951:5328   */\n    tag_59:\n        /* \"#utility.yul\":5039:5042   */\n      0x00\n        /* \"#utility.yul\":5067:5106   */\n      tag_137\n        /* \"#utility.yul\":5100:5105   */\n      dup3\n        /* \"#utility.yul\":5067:5106   */\n      tag_56\n      jump\t// in\n    tag_137:\n        /* \"#utility.yul\":5122:5193   */\n      tag_138\n        /* \"#utility.yul\":5186:5192   */\n      dup2\n        /* \"#utility.yul\":5181:5184   */\n      dup6\n        /* \"#utility.yul\":5122:5193   */\n      tag_57\n      jump\t// in\n    tag_138:\n        /* \"#utility.yul\":5115:5193   */\n      swap4\n      pop\n        /* \"#utility.yul\":5202:5267   */\n      tag_139\n        /* \"#utility.yul\":5260:5266   */\n      dup2\n        /* \"#utility.yul\":5255:5258   */\n      dup6\n        /* \"#utility.yul\":5248:5252   */\n      0x20\n        /* \"#utility.yul\":5241:5246   */\n      dup7\n        /* \"#utility.yul\":5237:5253   */\n      add\n        /* \"#utility.yul\":5202:5267   */\n      tag_58\n      jump\t// in\n    tag_139:\n        /* \"#utility.yul\":5292:5321   */\n      tag_140\n        /* \"#utility.yul\":5314:5320   */\n      dup2\n        /* \"#utility.yul\":5292:5321   */\n      tag_44\n      jump\t// in\n    tag_140:\n        /* \"#utility.yul\":5287:5290   */\n      dup5\n        /* \"#utility.yul\":5283:5322   */\n      add\n        /* \"#utility.yul\":5276:5322   */\n      swap2\n      pop\n        /* \"#utility.yul\":5043:5328   */\n      pop\n        /* \"#utility.yul\":4951:5328   */\n      swap3\n      swap2\n      pop\n      pop\n      jump\t// out\n        /* \"#utility.yul\":5334:5443   */\n    tag_60:\n        /* \"#utility.yul\":5415:5436   */\n      tag_142\n        /* \"#utility.yul\":5430:5435   */\n      dup2\n        /* \"#utility.yul\":5415:5436   */\n      tag_52\n      jump\t// in\n    tag_142:\n        /* \"#utility.yul\":5410:5413   */\n      dup3\n        /* \"#utility.yul\":5403:5437   */\n      mstore\n        /* \"#utility.yul\":5334:5443   */\n      pop\n      pop\n      jump\t// out\n        /* \"#utility.yul\":5449:5970   */\n    tag_15:\n        /* \"#utility.yul\":5612:5616   */\n      0x00\n        /* \"#utility.yul\":5650:5652   */\n      0x60\n        /* \"#utility.yul\":5639:5648   */\n      dup3\n        /* \"#utility.yul\":5635:5653   */\n      add\n        /* \"#utility.yul\":5627:5653   */\n      swap1\n      pop\n        /* \"#utility.yul\":5663:5734   */\n      tag_144\n        /* \"#utility.yul\":5731:5732   */\n      0x00\n        /* \"#utility.yul\":5720:5729   */\n      dup4\n        /* \"#utility.yul\":5716:5733   */\n      add\n        /* \"#utility.yul\":5707:5713   */\n      dup7\n        /* \"#utility.yul\":5663:5734   */\n      tag_55\n      jump\t// in\n    tag_144:\n        /* \"#utility.yul\":5781:5790   */\n      dup2\n        /* \"#utility.yul\":5775:5779   */\n      dup2\n        /* \"#utility.yul\":5771:5791   */\n      sub\n        /* \"#utility.yul\":5766:5768   */\n      0x20\n        /* \"#utility.yul\":5755:5764   */\n      dup4\n        /* \"#utility.yul\":5751:5769   */\n      add\n        /* \"#utility.yul\":5744:5792   */\n      mstore\n        /* \"#utility.yul\":5809:5887   */\n      tag_145\n        /* \"#utility.yul\":5882:5886   */\n      dup2\n        /* \"#utility.yul\":5873:5879   */\n      dup6\n        /* \"#utility.yul\":5809:5887   */\n      tag_59\n      jump\t// in\n    tag_145:\n        /* \"#utility.yul\":5801:5887   */\n      swap1\n      pop\n        /* \"#utility.yul\":5897:5963   */\n      tag_146\n        /* \"#utility.yul\":5959:5961   */\n      0x40\n        /* \"#utility.yul\":5948:5957   */\n      dup4\n        /* \"#utility.yul\":5944:5962   */\n      add\n        /* \"#utility.yul\":5935:5941   */\n      dup5\n        /* \"#utility.yul\":5897:5963   */\n      tag_60\n      jump\t// in\n    tag_146:\n        /* \"#utility.yul\":5449:5970   */\n      swap5\n      swap4\n      pop\n      pop\n      pop\n      pop\n      jump\t// out\n        /* \"#utility.yul\":5976:6156   */\n    tag_61:\n        /* \"#utility.yul\":6024:6101   */\n      0x4e487b7100000000000000000000000000000000000000000000000000000000\n        /* \"#utility.yul\":6021:6022   */\n      0x00\n        /* \"#utility.yul\":6014:6102   */\n      mstore\n        /* \"#utility.yul\":6121:6125   */\n      0x22\n        /* \"#utility.yul\":6118:6119   */\n      0x04\n        /* \"#utility.yul\":6111:6126   */\n      mstore\n        /* \"#utility.yul\":6145:6149   */\n      0x24\n        /* \"#utility.yul\":6142:6143   */\n      0x00\n        /* \"#utility.yul\":6135:6150   */\n      revert\n        /* \"#utility.yul\":6162:6482   */\n    tag_26:\n        /* \"#utility.yul\":6206:6212   */\n      0x00\n        /* \"#utility.yul\":6243:6244   */\n      0x02\n        /* \"#utility.yul\":6237:6241   */\n      dup3\n        /* \"#utility.yul\":6233:6245   */\n      div\n        /* \"#utility.yul\":6223:6245   */\n      swap1\n      pop\n        /* \"#utility.yul\":6290:6291   */\n      0x01\n        /* \"#utility.yul\":6284:6288   */\n      dup3\n        /* \"#utility.yul\":6280:6292   */\n      and\n        /* \"#utility.yul\":6311:6329   */\n      dup1\n        /* \"#utility.yul\":6301:6382   */\n      tag_149\n      jumpi\n        /* \"#utility.yul\":6367:6371   */\n      0x7f\n        /* \"#utility.yul\":6359:6365   */\n      dup3\n        /* \"#utility.yul\":6355:6372   */\n      and\n        /* \"#utility.yul\":6345:6372   */\n      swap2\n      pop\n        /* \"#utility.yul\":6301:6382   */\n    tag_149:\n        /* \"#utility.yul\":6429:6431   */\n      0x20\n        /* \"#utility.yul\":6421:6427   */\n      dup3\n        /* \"#utility.yul\":6418:6432   */\n      lt\n        /* \"#utility.yul\":6398:6416   */\n      dup2\n        /* \"#utility.yul\":6395:6433   */\n      sub\n        /* \"#utility.yul\":6392:6476   */\n      tag_150\n      jumpi\n        /* \"#utility.yul\":6448:6466   */\n      tag_151\n      tag_61\n      jump\t// in\n    tag_151:\n        /* \"#utility.yul\":6392:6476   */\n    tag_150:\n        /* \"#utility.yul\":6213:6482   */\n      pop\n        /* \"#utility.yul\":6162:6482   */\n      swap2\n      swap1\n      pop\n      jump\t// out\n        /* \"#utility.yul\":6488:6629   */\n    tag_62:\n        /* \"#utility.yul\":6537:6541   */\n      0x00\n        /* \"#utility.yul\":6560:6563   */\n      dup2\n        /* \"#utility.yul\":6552:6563   */\n      swap1\n      pop\n        /* \"#utility.yul\":6583:6586   */\n      dup2\n        /* \"#utility.yul\":6580:6581   */\n      0x00\n        /* \"#utility.yul\":6573:6587   */\n      mstore\n        /* \"#utility.yul\":6617:6621   */\n      0x20\n        /* \"#utility.yul\":6614:6615   */\n      0x00\n        /* \"#utility.yul\":6604:6622   */\n      keccak256\n        /* \"#utility.yul\":6596:6622   */\n      swap1\n      pop\n        /* \"#utility.yul\":6488:6629   */\n      swap2\n      swap1\n      pop\n      jump\t// out\n        /* \"#utility.yul\":6635:6728   */\n    tag_63:\n        /* \"#utility.yul\":6672:6678   */\n      0x00\n        /* \"#utility.yul\":6719:6721   */\n      0x20\n        /* \"#utility.yul\":6714:6716   */\n      0x1f\n        /* \"#utility.yul\":6707:6712   */\n      dup4\n        /* \"#utility.yul\":6703:6717   */\n      add\n        /* \"#utility.yul\":6699:6722   */\n      div\n        /* \"#utility.yul\":6689:6722   */\n      swap1\n      pop\n        /* \"#utility.yul\":6635:6728   */\n      swap2\n      swap1\n      pop\n      jump\t// out\n        /* \"#utility.yul\":6734:6841   */\n    tag_64:\n        /* \"#utility.yul\":6778:6786   */\n      0x00\n        /* \"#utility.yul\":6828:6833   */\n      dup3\n        /* \"#utility.yul\":6822:6826   */\n      dup3\n        /* \"#utility.yul\":6818:6834   */\n      shl\n        /* \"#utility.yul\":6797:6834   */\n      swap1\n      pop\n        /* \"#utility.yul\":6734:6841   */\n      swap3\n      swap2\n      pop\n      pop\n      jump\t// out\n        /* \"#utility.yul\":6847:7240   */\n    tag_65:\n        /* \"#utility.yul\":6916:6922   */\n      0x00\n        /* \"#utility.yul\":6966:6967   */\n      0x08\n        /* \"#utility.yul\":6954:6964   */\n      dup4\n        /* \"#utility.yul\":6950:6968   */\n      mul\n        /* \"#utility.yul\":6989:7086   */\n      tag_156\n        /* \"#utility.yul\":7019:7085   */\n      0xffffffffffffffffffffffffffffffffffffffffffffffffffffffffffffffff\n        /* \"#utility.yul\":7008:7017   */\n      dup3\n        /* \"#utility.yul\":6989:7086   */\n      tag_64\n      jump\t// in\n    tag_156:\n        /* \"#utility.yul\":7107:7146   */\n      tag_157\n        /* \"#utility.yul\":7137:7145   */\n      dup7\n        /* \"#utility.yul\":7126:7135   */\n      dup4\n        /* \"#utility.yul\":7107:7146   */\n      tag_64\n      jump\t// in\n    tag_157:\n        /* \"#utility.yul\":7095:7146   */\n      swap6\n      pop\n        /* \"#utility.yul\":7179:7183   */\n      dup1\n        /* \"#utility.yul\":7175:7184   */\n      not\n        /* \"#utility.yul\":7168:7173   */\n      dup5\n        /* \"#utility.yul\":7164:7185   */\n      and\n        /* \"#utility.yul\":7155:7185   */\n      swap4\n      pop\n        /* \"#utility.yul\":7228:7232   */\n      dup1\n        /* \"#utility.yul\":7218:7226   */\n      dup7\n        /* \"#utility.yul\":7214:7233   */\n      and\n        /* \"#utility.yul\":7207:7212   */\n      dup5\n        /* \"#utility.yul\":7204:7234   */\n      or\n        /* \"#utility.yul\":7194:7234   */\n      swap3\n      pop\n        /* \"#utility.yul\":6923:7240   */\n      pop\n      pop\n        /* \"#utility.yul\":6847:7240   */\n      swap4\n      swap3\n      pop\n      pop\n      pop\n      jump\t// out\n        /* \"#utility.yul\":7246:7306   */\n    tag_66:\n        /* \"#utility.yul\":7274:7277   */\n      0x00\n        /* \"#utility.yul\":7295:7300   */\n      dup2\n        /* \"#utility.yul\":7288:7300   */\n      swap1\n      pop\n        /* \"#utility.yul\":7246:7306   */\n      swap2\n      swap1\n      pop\n      jump\t// out\n        /* \"#utility.yul\":7312:7454   */\n    tag_67:\n        /* \"#utility.yul\":7362:7371   */\n      0x00\n        /* \"#utility.yul\":7395:7448   */\n      tag_160\n        /* \"#utility.yul\":7413:7447   */\n      tag_161\n        /* \"#utility.yul\":7422:7446   */\n      tag_162\n        /* \"#utility.yul\":7440:7445   */\n      dup5\n        /* \"#utility.yul\":7422:7446   */\n      tag_39\n      jump\t// in\n    tag_162:\n        /* \"#utility.yul\":7413:7447   */\n      tag_66\n      jump\t// in\n    tag_161:\n        /* \"#utility.yul\":7395:7448   */\n      tag_39\n      jump\t// in\n    tag_160:\n        /* \"#utility.yul\":7382:7448   */\n      swap1\n      pop\n        /* \"#utility.yul\":7312:7454   */\n      swap2\n      swap1\n      pop\n      jump\t// out\n        /* \"#utility.yul\":7460:7535   */\n    tag_68:\n        /* \"#utility.yul\":7503:7506   */\n      0x00\n        /* \"#utility.yul\":7524:7529   */\n      dup2\n        /* \"#utility.yul\":7517:7529   */\n      swap1\n      pop\n        /* \"#utility.yul\":7460:7535   */\n      swap2\n      swap1\n      pop\n      jump\t// out\n        /* \"#utility.yul\":7541:7810   */\n    tag_69:\n        /* \"#utility.yul\":7651:7690   */\n      tag_165\n        /* \"#utility.yul\":7682:7689   */\n      dup4\n        /* \"#utility.yul\":7651:7690   */\n      tag_67\n      jump\t// in\n    tag_165:\n        /* \"#utility.yul\":7712:7803   */\n      tag_166\n        /* \"#utility.yul\":7761:7802   */\n      tag_167\n        /* \"#utility.yul\":7785:7801   */\n      dup3\n        /* \"#utility.yul\":7761:7802   */\n      tag_68\n      jump\t// in\n    tag_167:\n        /* \"#utility.yul\":7753:7759   */\n      dup5\n        /* \"#utility.yul\":7746:7750   */\n      dup5\n        /* \"#utility.yul\":7740:7751   */\n      sload\n        /* \"#utility.yul\":7712:7803   */\n      tag_65\n      jump\t// in\n    tag_166:\n        /* \"#utility.yul\":7706:7710   */\n      dup3\n        /* \"#utility.yul\":7699:7804   */\n      sstore\n        /* \"#utility.yul\":7617:7810   */\n      pop\n        /* \"#utility.yul\":7541:7810   */\n      pop\n      pop\n      pop\n      jump\t// out\n        /* \"#utility.yul\":7816:7889   */\n    tag_70:\n        /* \"#utility.yul\":7861:7864   */\n      0x00\n        /* \"#utility.yul\":7882:7883   */\n      0x00\n        /* \"#utility.yul\":7875:7883   */\n      swap1\n      pop\n        /* \"#utility.yul\":7816:7889   */\n      swap1\n      jump\t// out\n        /* \"#utility.yul\":7895:8084   */\n    tag_71:\n        /* \"#utility.yul\":7972:8004   */\n      tag_170\n      tag_70\n      jump\t// in\n    tag_170:\n        /* \"#utility.yul\":8013:8078   */\n      tag_171\n        /* \"#utility.yul\":8071:8077   */\n      dup2\n        /* \"#utility.yul\":8063:8069   */\n      dup5\n        /* \"#utility.yul\":8057:8061   */\n      dup5\n        /* \"#utility.yul\":8013:8078   */\n      tag_69\n      jump\t// in\n    tag_171:\n        /* \"#utility.yul\":7948:8084   */\n      pop\n        /* \"#utility.yul\":7895:8084   */\n      pop\n      pop\n      jump\t// out\n        /* \"#utility.yul\":8090:8276   */\n    tag_72:\n        /* \"#utility.yul\":8150:8270   */\n    tag_173:\n        /* \"#utility.yul\":8167:8170   */\n      dup2\n        /* \"#utility.yul\":8160:8165   */\n      dup2\n        /* \"#utility.yul\":8157:8171   */\n      lt\n        /* \"#utility.yul\":8150:8270   */\n      iszero\n      tag_175\n      jumpi\n        /* \"#utility.yul\":8221:8260   */\n      tag_176\n        /* \"#utility.yul\":8258:8259   */\n      0x00\n        /* \"#utility.yul\":8251:8256   */\n      dup3\n        /* \"#utility.yul\":8221:8260   */\n      tag_71\n      jump\t// in\n    tag_176:\n        /* \"#utility.yul\":8194:8195   */\n      0x01\n        /* \"#utility.yul\":8187:8192   */\n      dup2\n        /* \"#utility.yul\":8183:8196   */\n      add\n        /* \"#utility.yul\":8174:8196   */\n      swap1\n      pop\n        /* \"#utility.yul\":8150:8270   */\n      jump(tag_173)\n    tag_175:\n        /* \"#utility.yul\":8090:8276   */\n      pop\n      pop\n      jump\t// out\n        /* \"#utility.yul\":8282:8825   */\n    tag_73:\n        /* \"#utility.yul\":8383:8385   */\n      0x1f\n        /* \"#utility.yul\":8378:8381   */\n      dup3\n        /* \"#utility.yul\":8375:8386   */\n      gt\n        /* \"#utility.yul\":8372:8818   */\n      iszero\n      tag_178\n      jumpi\n        /* \"#utility.yul\":8417:8455   */\n      tag_179\n        /* \"#utility.yul\":8449:8454   */\n      dup2\n        /* \"#utility.yul\":8417:8455   */\n      tag_62\n      jump\t// in\n    tag_179:\n        /* \"#utility.yul\":8501:8530   */\n      tag_180\n        /* \"#utility.yul\":8519:8529   */\n      dup5\n        /* \"#utility.yul\":8501:8530   */\n      tag_63\n      jump\t// in\n    tag_180:\n        /* \"#utility.yul\":8491:8499   */\n      dup2\n        /* \"#utility.yul\":8487:8531   */\n      add\n        /* \"#utility.yul\":8684:8686   */\n      0x20\n        /* \"#utility.yul\":8672:8682   */\n      dup6\n        /* \"#utility.yul\":8669:8687   */\n      lt\n        /* \"#utility.yul\":8666:8715   */\n      iszero\n      tag_181\n      jumpi\n        /* \"#utility.yul\":8705:8713   */\n      dup2\n        /* \"#utility.yul\":8690:8713   */\n      swap1\n      pop\n        /* \"#utility.yul\":8666:8715   */\n    tag_181:\n        /* \"#utility.yul\":8728:8808   */\n      tag_182\n        /* \"#utility.yul\":8784:8806   */\n      tag_183\n        /* \"#utility.yul\":8802:8805   */\n      dup6\n        /* \"#utility.yul\":8784:8806   */\n      tag_63\n      jump\t// in\n    tag_183:\n        /* \"#utility.yul\":8774:8782   */\n      dup4\n        /* \"#utility.yul\":8770:8807   */\n      add\n        /* \"#utility.yul\":8757:8768   */\n      dup3\n        /* \"#utility.yul\":8728:8808   */\n      tag_72\n      jump\t// in\n    tag_182:\n        /* \"#utility.yul\":8387:8818   */\n      pop\n      pop\n        /* \"#utility.yul\":8372:8818   */\n    tag_178:\n        /* \"#utility.yul\":8282:8825   */\n      pop\n      pop\n      pop\n      jump\t// out\n        /* \"#utility.yul\":8831:8948   */\n    tag_74:\n        /* \"#utility.yul\":8885:8893   */\n      0x00\n        /* \"#utility.yul\":8935:8940   */\n      dup3\n        /* \"#utility.yul\":8929:8933   */\n      dup3\n        /* \"#utility.yul\":8925:8941   */\n      shr\n        /* \"#utility.yul\":8904:8941   */\n      swap1\n      pop\n        /* \"#utility.yul\":8831:8948   */\n      swap3\n      swap2\n      pop\n      pop\n      jump\t// out\n        /* \"#utility.yul\":8954:9123   */\n    tag_75:\n        /* \"#utility.yul\":8998:9004   */\n      0x00\n        /* \"#utility.yul\":9031:9082   */\n      tag_186\n        /* \"#utility.yul\":9079:9080   */\n      0x00\n        /* \"#utility.yul\":9075:9081   */\n      not\n        /* \"#utility.yul\":9067:9072   */\n      dup5\n        /* \"#utility.yul\":9064:9065   */\n      0x08\n        /* \"#utility.yul\":9060:9073   */\n      mul\n        /* \"#utility.yul\":9031:9082   */\n      tag_74\n      jump\t// in\n    tag_186:\n        /* \"#utility.yul\":9027:9083   */\n      not\n        /* \"#utility.yul\":9112:9116   */\n      dup1\n        /* \"#utility.yul\":9106:9110   */\n      dup4\n        /* \"#utility.yul\":9102:9117   */\n      and\n        /* \"#utility.yul\":9092:9117   */\n      swap2\n      pop\n        /* \"#utility.yul\":9005:9123   */\n      pop\n        /* \"#utility.yul\":8954:9123   */\n      swap3\n      swap2\n      pop\n      pop\n      jump\t// out\n        /* \"#utility.yul\":9128:9423   */\n    tag_76:\n        /* \"#utility.yul\":9204:9208   */\n      0x00\n        /* \"#utility.yul\":9350:9379   */\n      tag_188\n        /* \"#utility.yul\":9375:9378   */\n      dup4\n        /* \"#utility.yul\":9369:9373   */\n      dup4\n        /* \"#utility.yul\":9350:9379   */\n      tag_75\n      jump\t// in\n    tag_188:\n        /* \"#utility.yul\":9342:9379   */\n      swap2\n      pop\n        /* \"#utility.yul\":9412:9415   */\n      dup3\n        /* \"#utility.yul\":9409:9410   */\n      0x02\n        /* \"#utility.yul\":9405:9416   */\n      mul\n        /* \"#utility.yul\":9399:9403   */\n      dup3\n        /* \"#utility.yul\":9396:9417   */\n      or\n        /* \"#utility.yul\":9388:9417   */\n      swap1\n      pop\n        /* \"#utility.yul\":9128:9423   */\n      swap3\n      swap2\n      pop\n      pop\n      jump\t// out\n        /* \"#utility.yul\":9428:10823   */\n    tag_22:\n        /* \"#utility.yul\":9545:9582   */\n      tag_190\n        /* \"#utility.yul\":9578:9581   */\n      dup3\n        /* \"#utility.yul\":9545:9582   */\n      tag_56\n      jump\t// in\n    tag_190:\n        /* \"#utility.yul\":9647:9665   */\n      0xffffffffffffffff\n        /* \"#utility.yul\":9639:9645   */\n      dup2\n        /* \"#utility.yul\":9636:9666   */\n      gt\n        /* \"#utility.yul\":9633:9689   */\n      iszero\n      tag_191\n      jumpi\n        /* \"#utility.yul\":9669:9687   */\n      tag_192\n      tag_45\n      jump\t// in\n    tag_192:\n        /* \"#utility.yul\":9633:9689   */\n    tag_191:\n        /* \"#utility.yul\":9713:9751   */\n      tag_193\n        /* \"#utility.yul\":9745:9749   */\n      dup3\n        /* \"#utility.yul\":9739:9750   */\n      sload\n        /* \"#utility.yul\":9713:9751   */\n      tag_26\n      jump\t// in\n    tag_193:\n        /* \"#utility.yul\":9798:9865   */\n      tag_194\n        /* \"#utility.yul\":9858:9864   */\n      dup3\n        /* \"#utility.yul\":9850:9856   */\n      dup3\n        /* \"#utility.yul\":9844:9848   */\n      dup6\n        /* \"#utility.yul\":9798:9865   */\n      tag_73\n      jump\t// in\n    tag_194:\n        /* \"#utility.yul\":9892:9893   */\n      0x00\n        /* \"#utility.yul\":9916:9920   */\n      0x20\n        /* \"#utility.yul\":9903:9920   */\n      swap1\n      pop\n        /* \"#utility.yul\":9948:9950   */\n      0x1f\n        /* \"#utility.yul\":9940:9946   */\n      dup4\n        /* \"#utility.yul\":9937:9951   */\n      gt\n        /* \"#utility.yul\":9965:9966   */\n      0x01\n        /* \"#utility.yul\":9960:10578   */\n      dup2\n      eq\n      tag_196\n      jumpi\n        /* \"#utility.yul\":10622:10623   */\n      0x00\n        /* \"#utility.yul\":10639:10645   */\n      dup5\n        /* \"#utility.yul\":10636:10713   */\n      iszero\n      tag_197\n      jumpi\n        /* \"#utility.yul\":10688:10697   */\n      dup3\n        /* \"#utility.yul\":10683:10686   */\n      dup8\n        /* \"#utility.yul\":10679:10698   */\n      add\n        /* \"#utility.yul\":10673:10699   */\n      mload\n        /* \"#utility.yul\":10664:10699   */\n      swap1\n      pop\n        /* \"#utility.yul\":10636:10713   */\n    tag_197:\n        /* \"#utility.yul\":10739:10806   */\n      tag_198\n        /* \"#utility.yul\":10799:10805   */\n      dup6\n        /* \"#utility.yul\":10792:10797   */\n      dup3\n        /* \"#utility.yul\":10739:10806   */\n      tag_76\n      jump\t// in\n    tag_198:\n        /* \"#utility.yul\":10733:10737   */\n      dup7\n        /* \"#utility.yul\":10726:10807   */\n      sstore\n        /* \"#utility.yul\":10595:10817   */\n      pop\n        /* \"#utility.yul\":9930:10817   */\n      jump(tag_195)\n        /* \"#utility.yul\":9960:10578   */\n    tag_196:\n        /* \"#utility.yul\":10012:10016   */\n      0x1f\n        /* \"#utility.yul\":10008:10017   */\n      not\n        /* \"#utility.yul\":10000:10006   */\n      dup5\n        /* \"#utility.yul\":9996:10018   */\n      and\n        /* \"#utility.yul\":10046:10083   */\n      tag_199\n        /* \"#utility.yul\":10078:10082   */\n      dup7\n        /* \"#utility.yul\":10046:10083   */\n      tag_62\n      jump\t// in\n    tag_199:\n        /* \"#utility.yul\":10105:10106   */\n      0x00\n        /* \"#utility.yul\":10119:10327   */\n    tag_200:\n        /* \"#utility.yul\":10133:10140   */\n      dup3\n        /* \"#utility.yul\":10130:10131   */\n      dup2\n        /* \"#utility.yul\":10127:10141   */\n      lt\n        /* \"#utility.yul\":10119:10327   */\n      iszero\n      tag_202\n      jumpi\n        /* \"#utility.yul\":10212:10221   */\n      dup5\n        /* \"#utility.yul\":10207:10210   */\n      dup10\n        /* \"#utility.yul\":10203:10222   */\n      add\n        /* \"#utility.yul\":10197:10223   */\n      mload\n        /* \"#utility.yul\":10189:10195   */\n      dup3\n        /* \"#utility.yul\":10182:10224   */\n      sstore\n        /* \"#utility.yul\":10263:10264   */\n      0x01\n        /* \"#utility.yul\":10255:10261   */\n      dup3\n        /* \"#utility.yul\":10251:10265   */\n      add\n        /* \"#utility.yul\":10241:10265   */\n      swap2\n      pop\n        /* \"#utility.yul\":10310:10312   */\n      0x20\n        /* \"#utility.yul\":10299:10308   */\n      dup6\n        /* \"#utility.yul\":10295:10313   */\n      add\n        /* \"#utility.yul\":10282:10313   */\n      swap5\n      pop\n        /* \"#utility.yul\":10156:10160   */\n      0x20\n        /* \"#utility.yul\":10153:10154   */\n      dup2\n        /* \"#utility.yul\":10149:10161   */\n      add\n        /* \"#utility.yul\":10144:10161   */\n      swap1\n      pop\n        /* \"#utility.yul\":10119:10327   */\n      jump(tag_200)\n    tag_202:\n        /* \"#utility.yul\":10355:10361   */\n      dup7\n        /* \"#utility.yul\":10346:10353   */\n      dup4\n        /* \"#utility.yul\":10343:10362   */\n      lt\n        /* \"#utility.yul\":10340:10519   */\n      iszero\n      tag_203\n      jumpi\n        /* \"#utility.yul\":10413:10422   */\n      dup5\n        /* \"#utility.yul\":10408:10411   */\n      dup10\n        /* \"#utility.yul\":10404:10423   */\n      add\n        /* \"#utility.yul\":10398:10424   */\n      mload\n        /* \"#utility.yul\":10456:10504   */\n      tag_204\n        /* \"#utility.yul\":10498:10502   */\n      0x1f\n        /* \"#utility.yul\":10490:10496   */\n      dup10\n        /* \"#utility.yul\":10486:10503   */\n      and\n        /* \"#utility.yul\":10475:10484   */\n      dup3\n        /* \"#utility.yul\":10456:10504   */\n      tag_75\n      jump\t// in\n    tag_204:\n        /* \"#utility.yul\":10448:10454   */\n      dup4\n        /* \"#utility.yul\":10441:10505   */\n      sstore\n        /* \"#utility.yul\":10363:10519   */\n      pop\n        /* \"#utility.yul\":10340:10519   */\n    tag_203:\n        /* \"#utility.yul\":10565:10566   */\n      0x01\n        /* \"#utility.yul\":10561:10562   */\n      0x02\n        /* \"#utility.yul\":10553:10559   */\n      dup9\n        /* \"#utility.yul\":10549:10563   */\n      mul\n        /* \"#utility.yul\":10545:10567   */\n      add\n        /* \"#utility.yul\":10539:10543   */\n      dup9\n        /* \"#utility.yul\":10532:10568   */\n      sstore\n        /* \"#utility.yul\":9967:10578   */\n      pop\n      pop\n      pop\n        /* \"#utility.yul\":9930:10817   */\n    tag_195:\n      pop\n        /* \"#utility.yul\":9520:10823   */\n      pop\n      pop\n      pop\n        /* \"#utility.yul\":9428:10823   */\n      pop\n      pop\n      jump\t// out\n\n    auxdata: 0xa26469706673582212200a10f0dc278260d5cc5b03d234e3a92f41d8843d57e9be878ce8eb593414f8a464736f6c634300081f0033\n}\n",
				"bytecode": {
					"linkReferences": {},
					"object": "6080604052348015600e575f5ffd5b506108b08061001c5f395ff3fe608060405234801561000f575f5ffd5b506004361061003f575f3560e01c80631b3ce40e146100435780637acc0b201461005f578063a7e82e2314610091575b5f5ffd5b61005d6004803603810190610058919061045d565b6100b1565b005b610079600480360381019061007491906104c9565b610139565b60405161008893929190610572565b60405180910390f35b6100996101ff565b6040516100a893929190610572565b60405180910390f35b5f6040518060600160405280858152602001848152602001831515815250908060018154018082558091505060019003905f5260205f2090600302015f909190919091505f820151815f0155602082015181600101908161011291906107ab565b506040820151816002015f6101000a81548160ff0219169083151502179055505050505050565b5f8181548110610147575f80fd5b905f5260205f2090600302015f91509050805f01549080600101805461016c906105db565b80601f0160208091040260200160405190810160405280929190818152602001828054610198906105db565b80156101e35780601f106101ba576101008083540402835291602001916101e3565b820191905f5260205f20905b8154815290600101906020018083116101c657829003601f168201915b505050505090806002015f9054906101000a900460ff16905083565b6001805f015490806001018054610215906105db565b80601f0160208091040260200160405190810160405280929190818152602001828054610241906105db565b801561028c5780601f106102635761010080835404028352916020019161028c565b820191905f5260205f20905b81548152906001019060200180831161026f57829003601f168201915b505050505090806002015f9054906101000a900460ff16905083565b5f604051905090565b5f5ffd5b5f5ffd5b5f819050919050565b6102cb816102b9565b81146102d5575f5ffd5b50565b5f813590506102e6816102c2565b92915050565b5f5ffd5b5f5ffd5b5f601f19601f8301169050919050565b7f4e487b71000000000000000000000000000000000000000000000000000000005f52604160045260245ffd5b61033a826102f4565b810181811067ffffffffffffffff8211171561035957610358610304565b5b80604052505050565b5f61036b6102a8565b90506103778282610331565b919050565b5f67ffffffffffffffff82111561039657610395610304565b5b61039f826102f4565b9050602081019050919050565b828183375f83830152505050565b5f6103cc6103c78461037c565b610362565b9050828152602081018484840111156103e8576103e76102f0565b5b6103f38482856103ac565b509392505050565b5f82601f83011261040f5761040e6102ec565b5b813561041f8482602086016103ba565b91505092915050565b5f8115159050919050565b61043c81610428565b8114610446575f5ffd5b50565b5f8135905061045781610433565b92915050565b5f5f5f60608486031215610474576104736102b1565b5b5f610481868287016102d8565b935050602084013567ffffffffffffffff8111156104a2576104a16102b5565b5b6104ae868287016103fb565b92505060406104bf86828701610449565b9150509250925092565b5f602082840312156104de576104dd6102b1565b5b5f6104eb848285016102d8565b91505092915050565b6104fd816102b9565b82525050565b5f81519050919050565b5f82825260208201905092915050565b8281835e5f83830152505050565b5f61053582610503565b61053f818561050d565b935061054f81856020860161051d565b610558816102f4565b840191505092915050565b61056c81610428565b82525050565b5f6060820190506105855f8301866104f4565b8181036020830152610597818561052b565b90506105a66040830184610563565b949350505050565b7f4e487b71000000000000000000000000000000000000000000000000000000005f52602260045260245ffd5b5f60028204905060018216806105f257607f821691505b602082108103610605576106046105ae565b5b50919050565b5f819050815f5260205f209050919050565b5f6020601f8301049050919050565b5f82821b905092915050565b5f600883026106677fffffffffffffffffffffffffffffffffffffffffffffffffffffffffffffffff8261062c565b610671868361062c565b95508019841693508086168417925050509392505050565b5f819050919050565b5f6106ac6106a76106a2846102b9565b610689565b6102b9565b9050919050565b5f819050919050565b6106c583610692565b6106d96106d1826106b3565b848454610638565b825550505050565b5f5f905090565b6106f06106e1565b6106fb8184846106bc565b505050565b5b8181101561071e576107135f826106e8565b600181019050610701565b5050565b601f821115610763576107348161060b565b61073d8461061d565b8101602085101561074c578190505b6107606107588561061d565b830182610700565b50505b505050565b5f82821c905092915050565b5f6107835f1984600802610768565b1980831691505092915050565b5f61079b8383610774565b9150826002028217905092915050565b6107b482610503565b67ffffffffffffffff8111156107cd576107cc610304565b5b6107d782546105db565b6107e2828285610722565b5f60209050601f831160018114610813575f8415610801578287015190505b61080b8582610790565b865550610872565b601f1984166108218661060b565b5f5b8281101561084857848901518255600182019150602085019450602081019050610823565b868310156108655784890151610861601f891682610774565b8355505b6001600288020188555050505b50505050505056fea26469706673582212200a10f0dc278260d5cc5b03d234e3a92f41d8843d57e9be878ce8eb593414f8a464736f6c634300081f0033",
					"opcodes": "PUSH1 0x80 PUSH1 0x40 MSTORE CALLVALUE DUP1 ISZERO PUSH1 0xE JUMPI PUSH0 PUSH0 REVERT JUMPDEST POP PUSH2 0x8B0 DUP1 PUSH2 0x1C PUSH0 CODECOPY PUSH0 RETURN INVALID PUSH1 0x80 PUSH1 0x40 MSTORE CALLVALUE DUP1 ISZERO PUSH2 0xF JUMPI PUSH0 PUSH0 REVERT JUMPDEST POP PUSH1 0x4 CALLDATASIZE LT PUSH2 0x3F JUMPI PUSH0 CALLDATALOAD PUSH1 0xE0 SHR DUP1 PUSH4 0x1B3CE40E EQ PUSH2 0x43 JUMPI DUP1 PUSH4 0x7ACC0B20 EQ PUSH2 0x5F JUMPI DUP1 PUSH4 0xA7E82E23 EQ PUSH2 0x91 JUMPI JUMPDEST PUSH0 PUSH0 REVERT JUMPDEST PUSH2 0x5D PUSH1 0x4 DUP1 CALLDATASIZE SUB DUP2 ADD SWAP1 PUSH2 0x58 SWAP2 SWAP1 PUSH2 0x45D JUMP JUMPDEST PUSH2 0xB1 JUMP JUMPDEST STOP JUMPDEST PUSH2 0x79 PUSH1 0x4 DUP1 CALLDATASIZE SUB DUP2 ADD SWAP1 PUSH2 0x74 SWAP2 SWAP1 PUSH2 0x4C9 JUMP JUMPDEST PUSH2 0x139 JUMP JUMPDEST PUSH1 0x40 MLOAD PUSH2 0x88 SWAP4 SWAP3 SWAP2 SWAP1 PUSH2 0x572 JUMP JUMPDEST PUSH1 0x40 MLOAD DUP1 SWAP2 SUB SWAP1 RETURN JUMPDEST PUSH2 0x99 PUSH2 0x1FF JUMP JUMPDEST PUSH1 0x40 MLOAD PUSH2 0xA8 SWAP4 SWAP3 SWAP2 SWAP1 PUSH2 0x572 JUMP JUMPDEST PUSH1 0x40 MLOAD DUP1 SWAP2 SUB SWAP1 RETURN JUMPDEST PUSH0 PUSH1 0x40 MLOAD DUP1 PUSH1 0x60 ADD PUSH1 0x40 MSTORE DUP1 DUP6 DUP2 MSTORE PUSH1 0x20 ADD DUP5 DUP2 MSTORE PUSH1 0x20 ADD DUP4 ISZERO ISZERO DUP2 MSTORE POP SWAP1 DUP1 PUSH1 0x1 DUP2 SLOAD ADD DUP1 DUP3 SSTORE DUP1 SWAP2 POP POP PUSH1 0x1 SWAP1 SUB SWAP1 PUSH0 MSTORE PUSH1 0x20 PUSH0 KECCAK256 SWAP1 PUSH1 0x3 MUL ADD PUSH0 SWAP1 SWAP2 SWAP1 SWAP2 SWAP1 SWAP2 POP PUSH0 DUP3 ADD MLOAD DUP2 PUSH0 ADD SSTORE PUSH1 0x20 DUP3 ADD MLOAD DUP2 PUSH1 0x1 ADD SWAP1 DUP2 PUSH2 0x112 SWAP2 SWAP1 PUSH2 0x7AB JUMP JUMPDEST POP PUSH1 0x40 DUP3 ADD MLOAD DUP2 PUSH1 0x2 ADD PUSH0 PUSH2 0x100 EXP DUP2 SLOAD DUP2 PUSH1 0xFF MUL NOT AND SWAP1 DUP4 ISZERO ISZERO MUL OR SWAP1 SSTORE POP POP POP POP POP POP JUMP JUMPDEST PUSH0 DUP2 DUP2 SLOAD DUP2 LT PUSH2 0x147 JUMPI PUSH0 DUP1 REVERT JUMPDEST SWAP1 PUSH0 MSTORE PUSH1 0x20 PUSH0 KECCAK256 SWAP1 PUSH1 0x3 MUL ADD PUSH0 SWAP2 POP SWAP1 POP DUP1 PUSH0 ADD SLOAD SWAP1 DUP1 PUSH1 0x1 ADD DUP1 SLOAD PUSH2 0x16C SWAP1 PUSH2 0x5DB JUMP JUMPDEST DUP1 PUSH1 0x1F ADD PUSH1 0x20 DUP1 SWAP2 DIV MUL PUSH1 0x20 ADD PUSH1 0x40 MLOAD SWAP1 DUP2 ADD PUSH1 0x40 MSTORE DUP1 SWAP3 SWAP2 SWAP1 DUP2 DUP2 MSTORE PUSH1 0x20 ADD DUP3 DUP1 SLOAD PUSH2 0x198 SWAP1 PUSH2 0x5DB JUMP JUMPDEST DUP1 ISZERO PUSH2 0x1E3 JUMPI DUP1 PUSH1 0x1F LT PUSH2 0x1BA JUMPI PUSH2 0x100 DUP1 DUP4 SLOAD DIV MUL DUP4 MSTORE SWAP2 PUSH1 0x20 ADD SWAP2 PUSH2 0x1E3 JUMP JUMPDEST DUP3 ADD SWAP2 SWAP1 PUSH0 MSTORE PUSH1 0x20 PUSH0 KECCAK256 SWAP1 JUMPDEST DUP2 SLOAD DUP2 MSTORE SWAP1 PUSH1 0x1 ADD SWAP1 PUSH1 0x20 ADD DUP1 DUP4 GT PUSH2 0x1C6 JUMPI DUP3 SWAP1 SUB PUSH1 0x1F AND DUP3 ADD SWAP2 JUMPDEST POP POP POP POP POP SWAP1 DUP1 PUSH1 0x2 ADD PUSH0 SWAP1 SLOAD SWAP1 PUSH2 0x100 EXP SWAP1 DIV PUSH1 0xFF AND SWAP1 POP DUP4 JUMP JUMPDEST PUSH1 0x1 DUP1 PUSH0 ADD SLOAD SWAP1 DUP1 PUSH1 0x1 ADD DUP1 SLOAD PUSH2 0x215 SWAP1 PUSH2 0x5DB JUMP JUMPDEST DUP1 PUSH1 0x1F ADD PUSH1 0x20 DUP1 SWAP2 DIV MUL PUSH1 0x20 ADD PUSH1 0x40 MLOAD SWAP1 DUP2 ADD PUSH1 0x40 MSTORE DUP1 SWAP3 SWAP2 SWAP1 DUP2 DUP2 MSTORE PUSH1 0x20 ADD DUP3 DUP1 SLOAD PUSH2 0x241 SWAP1 PUSH2 0x5DB JUMP JUMPDEST DUP1 ISZERO PUSH2 0x28C JUMPI DUP1 PUSH1 0x1F LT PUSH2 0x263 JUMPI PUSH2 0x100 DUP1 DUP4 SLOAD DIV MUL DUP4 MSTORE SWAP2 PUSH1 0x20 ADD SWAP2 PUSH2 0x28C JUMP JUMPDEST DUP3 ADD SWAP2 SWAP1 PUSH0 MSTORE PUSH1 0x20 PUSH0 KECCAK256 SWAP1 JUMPDEST DUP2 SLOAD DUP2 MSTORE SWAP1 PUSH1 0x1 ADD SWAP1 PUSH1 0x20 ADD DUP1 DUP4 GT PUSH2 0x26F JUMPI DUP3 SWAP1 SUB PUSH1 0x1F AND DUP3 ADD SWAP2 JUMPDEST POP POP POP POP POP SWAP1 DUP1 PUSH1 0x2 ADD PUSH0 SWAP1 SLOAD SWAP1 PUSH2 0x100 EXP SWAP1 DIV PUSH1 0xFF AND SWAP1 POP DUP4 JUMP JUMPDEST PUSH0 PUSH1 0x40 MLOAD SWAP1 POP SWAP1 JUMP JUMPDEST PUSH0 PUSH0 REVERT JUMPDEST PUSH0 PUSH0 REVERT JUMPDEST PUSH0 DUP2 SWAP1 POP SWAP2 SWAP1 POP JUMP JUMPDEST PUSH2 0x2CB DUP2 PUSH2 0x2B9 JUMP JUMPDEST DUP2 EQ PUSH2 0x2D5 JUMPI PUSH0 PUSH0 REVERT JUMPDEST POP JUMP JUMPDEST PUSH0 DUP2 CALLDATALOAD SWAP1 POP PUSH2 0x2E6 DUP2 PUSH2 0x2C2 JUMP JUMPDEST SWAP3 SWAP2 POP POP JUMP JUMPDEST PUSH0 PUSH0 REVERT JUMPDEST PUSH0 PUSH0 REVERT JUMPDEST PUSH0 PUSH1 0x1F NOT PUSH1 0x1F DUP4 ADD AND SWAP1 POP SWAP2 SWAP1 POP JUMP JUMPDEST PUSH32 0x4E487B7100000000000000000000000000000000000000000000000000000000 PUSH0 MSTORE PUSH1 0x41 PUSH1 0x4 MSTORE PUSH1 0x24 PUSH0 REVERT JUMPDEST PUSH2 0x33A DUP3 PUSH2 0x2F4 JUMP JUMPDEST DUP2 ADD DUP2 DUP2 LT PUSH8 0xFFFFFFFFFFFFFFFF DUP3 GT OR ISZERO PUSH2 0x359 JUMPI PUSH2 0x358 PUSH2 0x304 JUMP JUMPDEST JUMPDEST DUP1 PUSH1 0x40 MSTORE POP POP POP JUMP JUMPDEST PUSH0 PUSH2 0x36B PUSH2 0x2A8 JUMP JUMPDEST SWAP1 POP PUSH2 0x377 DUP3 DUP3 PUSH2 0x331 JUMP JUMPDEST SWAP2 SWAP1 POP JUMP JUMPDEST PUSH0 PUSH8 0xFFFFFFFFFFFFFFFF DUP3 GT ISZERO PUSH2 0x396 JUMPI PUSH2 0x395 PUSH2 0x304 JUMP JUMPDEST JUMPDEST PUSH2 0x39F DUP3 PUSH2 0x2F4 JUMP JUMPDEST SWAP1 POP PUSH1 0x20 DUP2 ADD SWAP1 POP SWAP2 SWAP1 POP JUMP JUMPDEST DUP3 DUP2 DUP4 CALLDATACOPY PUSH0 DUP4 DUP4 ADD MSTORE POP POP POP JUMP JUMPDEST PUSH0 PUSH2 0x3CC PUSH2 0x3C7 DUP5 PUSH2 0x37C JUMP JUMPDEST PUSH2 0x362 JUMP JUMPDEST SWAP1 POP DUP3 DUP2 MSTORE PUSH1 0x20 DUP2 ADD DUP5 DUP5 DUP5 ADD GT ISZERO PUSH2 0x3E8 JUMPI PUSH2 0x3E7 PUSH2 0x2F0 JUMP JUMPDEST JUMPDEST PUSH2 0x3F3 DUP5 DUP3 DUP6 PUSH2 0x3AC JUMP JUMPDEST POP SWAP4 SWAP3 POP POP POP JUMP JUMPDEST PUSH0 DUP3 PUSH1 0x1F DUP4 ADD SLT PUSH2 0x40F JUMPI PUSH2 0x40E PUSH2 0x2EC JUMP JUMPDEST JUMPDEST DUP2 CALLDATALOAD PUSH2 0x41F DUP5 DUP3 PUSH1 0x20 DUP7 ADD PUSH2 0x3BA JUMP JUMPDEST SWAP2 POP POP SWAP3 SWAP2 POP POP JUMP JUMPDEST PUSH0 DUP2 ISZERO ISZERO SWAP1 POP SWAP2 SWAP1 POP JUMP JUMPDEST PUSH2 0x43C DUP2 PUSH2 0x428 JUMP JUMPDEST DUP2 EQ PUSH2 0x446 JUMPI PUSH0 PUSH0 REVERT JUMPDEST POP JUMP JUMPDEST PUSH0 DUP2 CALLDATALOAD SWAP1 POP PUSH2 0x457 DUP2 PUSH2 0x433 JUMP JUMPDEST SWAP3 SWAP2 POP POP JUMP JUMPDEST PUSH0 PUSH0 PUSH0 PUSH1 0x60 DUP5 DUP7 SUB SLT ISZERO PUSH2 0x474 JUMPI PUSH2 0x473 PUSH2 0x2B1 JUMP JUMPDEST JUMPDEST PUSH0 PUSH2 0x481 DUP7 DUP3 DUP8 ADD PUSH2 0x2D8 JUMP JUMPDEST SWAP4 POP POP PUSH1 0x20 DUP5 ADD CALLDATALOAD PUSH8 0xFFFFFFFFFFFFFFFF DUP2 GT ISZERO PUSH2 0x4A2 JUMPI PUSH2 0x4A1 PUSH2 0x2B5 JUMP JUMPDEST JUMPDEST PUSH2 0x4AE DUP7 DUP3 DUP8 ADD PUSH2 0x3FB JUMP JUMPDEST SWAP3 POP POP PUSH1 0x40 PUSH2 0x4BF DUP7 DUP3 DUP8 ADD PUSH2 0x449 JUMP JUMPDEST SWAP2 POP POP SWAP3 POP SWAP3 POP SWAP3 JUMP JUMPDEST PUSH0 PUSH1 0x20 DUP3 DUP5 SUB SLT ISZERO PUSH2 0x4DE JUMPI PUSH2 0x4DD PUSH2 0x2B1 JUMP JUMPDEST JUMPDEST PUSH0 PUSH2 0x4EB DUP5 DUP3 DUP6 ADD PUSH2 0x2D8 JUMP JUMPDEST SWAP2 POP POP SWAP3 SWAP2 POP POP JUMP JUMPDEST PUSH2 0x4FD DUP2 PUSH2 0x2B9 JUMP JUMPDEST DUP3 MSTORE POP POP JUMP JUMPDEST PUSH0 DUP2 MLOAD SWAP1 POP SWAP2 SWAP1 POP JUMP JUMPDEST PUSH0 DUP3 DUP3 MSTORE PUSH1 0x20 DUP3 ADD SWAP1 POP SWAP3 SWAP2 POP POP JUMP JUMPDEST DUP3 DUP2 DUP4 MCOPY PUSH0 DUP4 DUP4 ADD MSTORE POP POP POP JUMP JUMPDEST PUSH0 PUSH2 0x535 DUP3 PUSH2 0x503 JUMP JUMPDEST PUSH2 0x53F DUP2 DUP6 PUSH2 0x50D JUMP JUMPDEST SWAP4 POP PUSH2 0x54F DUP2 DUP6 PUSH1 0x20 DUP7 ADD PUSH2 0x51D JUMP JUMPDEST PUSH2 0x558 DUP2 PUSH2 0x2F4 JUMP JUMPDEST DUP5 ADD SWAP2 POP POP SWAP3 SWAP2 POP POP JUMP JUMPDEST PUSH2 0x56C DUP2 PUSH2 0x428 JUMP JUMPDEST DUP3 MSTORE POP POP JUMP JUMPDEST PUSH0 PUSH1 0x60 DUP3 ADD SWAP1 POP PUSH2 0x585 PUSH0 DUP4 ADD DUP7 PUSH2 0x4F4 JUMP JUMPDEST DUP2 DUP2 SUB PUSH1 0x20 DUP4 ADD MSTORE PUSH2 0x597 DUP2 DUP6 PUSH2 0x52B JUMP JUMPDEST SWAP1 POP PUSH2 0x5A6 PUSH1 0x40 DUP4 ADD DUP5 PUSH2 0x563 JUMP JUMPDEST SWAP5 SWAP4 POP POP POP POP JUMP JUMPDEST PUSH32 0x4E487B7100000000000000000000000000000000000000000000000000000000 PUSH0 MSTORE PUSH1 0x22 PUSH1 0x4 MSTORE PUSH1 0x24 PUSH0 REVERT JUMPDEST PUSH0 PUSH1 0x2 DUP3 DIV SWAP1 POP PUSH1 0x1 DUP3 AND DUP1 PUSH2 0x5F2 JUMPI PUSH1 0x7F DUP3 AND SWAP2 POP JUMPDEST PUSH1 0x20 DUP3 LT DUP2 SUB PUSH2 0x605 JUMPI PUSH2 0x604 PUSH2 0x5AE JUMP JUMPDEST JUMPDEST POP SWAP2 SWAP1 POP JUMP JUMPDEST PUSH0 DUP2 SWAP1 POP DUP2 PUSH0 MSTORE PUSH1 0x20 PUSH0 KECCAK256 SWAP1 POP SWAP2 SWAP1 POP JUMP JUMPDEST PUSH0 PUSH1 0x20 PUSH1 0x1F DUP4 ADD DIV SWAP1 POP SWAP2 SWAP1 POP JUMP JUMPDEST PUSH0 DUP3 DUP3 SHL SWAP1 POP SWAP3 SWAP2 POP POP JUMP JUMPDEST PUSH0 PUSH1 0x8 DUP4 MUL PUSH2 0x667 PUSH32 0xFFFFFFFFFFFFFFFFFFFFFFFFFFFFFFFFFFFFFFFFFFFFFFFFFFFFFFFFFFFFFFFF DUP3 PUSH2 0x62C JUMP JUMPDEST PUSH2 0x671 DUP7 DUP4 PUSH2 0x62C JUMP JUMPDEST SWAP6 POP DUP1 NOT DUP5 AND SWAP4 POP DUP1 DUP7 AND DUP5 OR SWAP3 POP POP POP SWAP4 SWAP3 POP POP POP JUMP JUMPDEST PUSH0 DUP2 SWAP1 POP SWAP2 SWAP1 POP JUMP JUMPDEST PUSH0 PUSH2 0x6AC PUSH2 0x6A7 PUSH2 0x6A2 DUP5 PUSH2 0x2B9 JUMP JUMPDEST PUSH2 0x689 JUMP JUMPDEST PUSH2 0x2B9 JUMP JUMPDEST SWAP1 POP SWAP2 SWAP1 POP JUMP JUMPDEST PUSH0 DUP2 SWAP1 POP SWAP2 SWAP1 POP JUMP JUMPDEST PUSH2 0x6C5 DUP4 PUSH2 0x692 JUMP JUMPDEST PUSH2 0x6D9 PUSH2 0x6D1 DUP3 PUSH2 0x6B3 JUMP JUMPDEST DUP5 DUP5 SLOAD PUSH2 0x638 JUMP JUMPDEST DUP3 SSTORE POP POP POP POP JUMP JUMPDEST PUSH0 PUSH0 SWAP1 POP SWAP1 JUMP JUMPDEST PUSH2 0x6F0 PUSH2 0x6E1 JUMP JUMPDEST PUSH2 0x6FB DUP2 DUP5 DUP5 PUSH2 0x6BC JUMP JUMPDEST POP POP POP JUMP JUMPDEST JUMPDEST DUP2 DUP2 LT ISZERO PUSH2 0x71E JUMPI PUSH2 0x713 PUSH0 DUP3 PUSH2 0x6E8 JUMP JUMPDEST PUSH1 0x1 DUP2 ADD SWAP1 POP PUSH2 0x701 JUMP JUMPDEST POP POP JUMP JUMPDEST PUSH1 0x1F DUP3 GT ISZERO PUSH2 0x763 JUMPI PUSH2 0x734 DUP2 PUSH2 0x60B JUMP JUMPDEST PUSH2 0x73D DUP5 PUSH2 0x61D JUMP JUMPDEST DUP2 ADD PUSH1 0x20 DUP6 LT ISZERO PUSH2 0x74C JUMPI DUP2 SWAP1 POP JUMPDEST PUSH2 0x760 PUSH2 0x758 DUP6 PUSH2 0x61D JUMP JUMPDEST DUP4 ADD DUP3 PUSH2 0x700 JUMP JUMPDEST POP POP JUMPDEST POP POP POP JUMP JUMPDEST PUSH0 DUP3 DUP3 SHR SWAP1 POP SWAP3 SWAP2 POP POP JUMP JUMPDEST PUSH0 PUSH2 0x783 PUSH0 NOT DUP5 PUSH1 0x8 MUL PUSH2 0x768 JUMP JUMPDEST NOT DUP1 DUP4 AND SWAP2 POP POP SWAP3 SWAP2 POP POP JUMP JUMPDEST PUSH0 PUSH2 0x79B DUP4 DUP4 PUSH2 0x774 JUMP JUMPDEST SWAP2 POP DUP3 PUSH1 0x2 MUL DUP3 OR SWAP1 POP SWAP3 SWAP2 POP POP JUMP JUMPDEST PUSH2 0x7B4 DUP3 PUSH2 0x503 JUMP JUMPDEST PUSH8 0xFFFFFFFFFFFFFFFF DUP2 GT ISZERO PUSH2 0x7CD JUMPI PUSH2 0x7CC PUSH2 0x304 JUMP JUMPDEST JUMPDEST PUSH2 0x7D7 DUP3 SLOAD PUSH2 0x5DB JUMP JUMPDEST PUSH2 0x7E2 DUP3 DUP3 DUP6 PUSH2 0x722 JUMP JUMPDEST PUSH0 PUSH1 0x20 SWAP1 POP PUSH1 0x1F DUP4 GT PUSH1 0x1 DUP2 EQ PUSH2 0x813 JUMPI PUSH0 DUP5 ISZERO PUSH2 0x801 JUMPI DUP3 DUP8 ADD MLOAD SWAP1 POP JUMPDEST PUSH2 0x80B DUP6 DUP3 PUSH2 0x790 JUMP JUMPDEST DUP7 SSTORE POP PUSH2 0x872 JUMP JUMPDEST PUSH1 0x1F NOT DUP5 AND PUSH2 0x821 DUP7 PUSH2 0x60B JUMP JUMPDEST PUSH0 JUMPDEST DUP3 DUP2 LT ISZERO PUSH2 0x848 JUMPI DUP5 DUP10 ADD MLOAD DUP3 SSTORE PUSH1 0x1 DUP3 ADD SWAP2 POP PUSH1 0x20 DUP6 ADD SWAP5 POP PUSH1 0x20 DUP2 ADD SWAP1 POP PUSH2 0x823 JUMP JUMPDEST DUP7 DUP4 LT ISZERO PUSH2 0x865 JUMPI DUP5 DUP10 ADD MLOAD PUSH2 0x861 PUSH1 0x1F DUP10 AND DUP3 PUSH2 0x774 JUMP JUMPDEST DUP4 SSTORE POP JUMPDEST PUSH1 0x1 PUSH1 0x2 DUP9 MUL ADD DUP9 SSTORE POP POP POP JUMPDEST POP POP POP POP POP POP JUMP INVALID LOG2 PUSH5 0x6970667358 0x22 SLT KECCAK256 EXP LT CREATE 0xDC 0x27 DUP3 PUSH1 0xD5 0xCC JUMPDEST SUB 0xD2 CALLVALUE CALLF 0xA92F COINBASE 0xD8 DUP5 RETURNDATASIZE JUMPI 0xE9 0xBE DUP8 DUP13 0xE8 0xEB MSIZE CALLVALUE EQ EXTCALL LOG4 PUSH5 0x736F6C6343 STOP ADDMOD 0x1F STOP CALLER "
				},
				"gasEstimates": {
					"creation": {
						"codeDepositCost": "444800",
						"executionCost": "478",
						"totalCost": "445278"
					},
					"external": {
						"products(uint256)": "infinite",
						"productss()": "infinite",
						"set_arr(uint256,string,bool)": "infinite"
					}
				},
				"methodIdentifiers": {
					"products(uint256)": "7acc0b20",
					"productss()": "a7e82e23",
					"set_arr(uint256,string,bool)": "1b3ce40e"
				}
			},
			"storageLayout": {
				"storage": [
					{
						"astId": 12,
						"contract": "Products.sol:productstruct",
						"label": "products",
						"offset": 0,
						"slot": "0",
						"type": "t_array(t_struct(product)8_storage)dyn_storage"
					},
					{
						"astId": 15,
						"contract": "Products.sol:productstruct",
						"label": "productss",
						"offset": 0,
						"slot": "1",
						"type": "t_struct(product)8_storage"
					}
				],
				"types": {
					"t_array(t_struct(product)8_storage)dyn_storage": {
						"base": "t_struct(product)8_storage",
						"encoding": "dynamic_array",
						"label": "struct productstruct.product[]",
						"numberOfBytes": "32"
					},
					"t_bool": {
						"encoding": "inplace",
						"label": "bool",
						"numberOfBytes": "1"
					},
					"t_string_storage": {
						"encoding": "bytes",
						"label": "string",
						"numberOfBytes": "32"
					},
					"t_struct(product)8_storage": {
						"encoding": "inplace",
						"label": "struct productstruct.product",
						"members": [
							{
								"astId": 3,
								"contract": "Products.sol:productstruct",
								"label": "Batch_no",
								"offset": 0,
								"slot": "0",
								"type": "t_uint256"
							},
							{
								"astId": 5,
								"contract": "Products.sol:productstruct",
								"label": "names",
								"offset": 0,
								"slot": "1",
								"type": "t_string_storage"
							},
							{
								"astId": 7,
								"contract": "Products.sol:productstruct",
								"label": "expired",
								"offset": 0,
								"slot": "2",
								"type": "t_bool"
							}
						],
						"numberOfBytes": "96"
					},
					"t_uint256": {
						"encoding": "inplace",
						"label": "uint256",
						"numberOfBytes": "32"
					}
				}
			},
			"userdoc": {
				"kind": "user",
				"methods": {},
				"version": 1
			}
		}
	}
}