{
	"student.sol": {
		"StudentRecords": {
			"abi": [
				{
					"inputs": [
						{
							"internalType": "uint256",
							"name": "_roll",
							"type": "uint256"
						},
						{
							"internalType": "string",
							"name": "_name",
							"type": "string"
						},
						{
							"internalType": "uint256",
							"name": "_marks",
							"type": "uint256"
						},
						{
							"internalType": "bool",
							"name": "_present",
							"type": "bool"
						}
					],
					"stateMutability": "nonpayable",
					"type": "constructor"
				},
				{
					"inputs": [],
					"name": "s1",
					"outputs": [
						{
							"internalType": "uint256",
							"name": "roll",
							"type": "uint256"
						},
						{
							"internalType": "string",
							"name": "name",
							"type": "string"
						},
						{
							"internalType": "uint256",
							"name": "marks",
							"type": "uint256"
						},
						{
							"internalType": "bool",
							"name": "present",
							"type": "bool"
						}
					],
					"stateMutability": "view",
					"type": "function"
				}
			],
			"devdoc": {
				"kind": "dev",
				"methods": {},
				"version": 1
			},
			"evm": {
				"assembly": "    /* \"student.sol\":60:397  contract StudentRecords{... */\n  mstore(0x40, 0x80)\n    /* \"student.sol\":238:392  constructor(uint _roll, string memory _name , uint _marks, bool _present){... */\n  callvalue\n  dup1\n  iszero\n  tag_1\n  jumpi\n  revert(0x00, 0x00)\ntag_1:\n  pop\n  mload(0x40)\n  sub(codesize, bytecodeSize)\n  dup1\n  bytecodeSize\n  dup4\n  codecopy\n  dup2\n  dup2\n  add\n  0x40\n  mstore\n  dup2\n  add\n  swap1\n  tag_2\n  swap2\n  swap1\n  tag_3\n  jump\t// in\ntag_2:\n    /* \"student.sol\":324:329  _roll */\n  dup4\n    /* \"student.sol\":315:317  s1 */\n  0x00\n    /* \"student.sol\":315:322  s1.roll */\n  0x00\n  add\n    /* \"student.sol\":315:329  s1.roll= _roll */\n  dup2\n  swap1\n  sstore\n  pop\n    /* \"student.sol\":341:346  _name */\n  dup3\n    /* \"student.sol\":333:335  s1 */\n  0x00\n    /* \"student.sol\":333:340  s1.name */\n  0x01\n  add\n    /* \"student.sol\":333:346  s1.name=_name */\n  swap1\n  dup2\n  tag_6\n  swap2\n  swap1\n  tag_7\n  jump\t// in\ntag_6:\n  pop\n    /* \"student.sol\":359:365  _marks */\n  dup2\n    /* \"student.sol\":350:352  s1 */\n  0x00\n    /* \"student.sol\":350:358  s1.marks */\n  0x02\n  add\n    /* \"student.sol\":350:365  s1.marks=_marks */\n  dup2\n  swap1\n  sstore\n  pop\n    /* \"student.sol\":380:388  _present */\n  dup1\n    /* \"student.sol\":369:371  s1 */\n  0x00\n    /* \"student.sol\":369:379  s1.present */\n  0x03\n  add\n  0x00\n    /* \"student.sol\":369:388  s1.present=_present */\n  0x0100\n  exp\n  dup2\n  sload\n  dup2\n  0xff\n  mul\n  not\n  and\n  swap1\n  dup4\n  iszero\n  iszero\n  mul\n  or\n  swap1\n  sstore\n  pop\n    /* \"student.sol\":238:392  constructor(uint _roll, string memory _name , uint _marks, bool _present){... */\n  pop\n  pop\n  pop\n  pop\n    /* \"student.sol\":60:397  contract StudentRecords{... */\n  jump(tag_8)\n    /* \"#utility.yul\":7:82   */\ntag_9:\n    /* \"#utility.yul\":40:46   */\n  0x00\n    /* \"#utility.yul\":73:75   */\n  0x40\n    /* \"#utility.yul\":67:76   */\n  mload\n    /* \"#utility.yul\":57:76   */\n  swap1\n  pop\n    /* \"#utility.yul\":7:82   */\n  swap1\n  jump\t// out\n    /* \"#utility.yul\":88:205   */\ntag_10:\n    /* \"#utility.yul\":197:198   */\n  0x00\n    /* \"#utility.yul\":194:195   */\n  0x00\n    /* \"#utility.yul\":187:199   */\n  revert\n    /* \"#utility.yul\":211:328   */\ntag_11:\n    /* \"#utility.yul\":320:321   */\n  0x00\n    /* \"#utility.yul\":317:318   */\n  0x00\n    /* \"#utility.yul\":310:322   */\n  revert\n    /* \"#utility.yul\":334:411   */\ntag_12:\n    /* \"#utility.yul\":371:378   */\n  0x00\n    /* \"#utility.yul\":400:405   */\n  dup2\n    /* \"#utility.yul\":389:405   */\n  swap1\n  pop\n    /* \"#utility.yul\":334:411   */\n  swap2\n  swap1\n  pop\n  jump\t// out\n    /* \"#utility.yul\":417:539   */\ntag_13:\n    /* \"#utility.yul\":490:514   */\n  tag_52\n    /* \"#utility.yul\":508:513   */\n  dup2\n    /* \"#utility.yul\":490:514   */\n  tag_12\n  jump\t// in\ntag_52:\n    /* \"#utility.yul\":483:488   */\n  dup2\n    /* \"#utility.yul\":480:515   */\n  eq\n    /* \"#utility.yul\":470:533   */\n  tag_53\n  jumpi\n    /* \"#utility.yul\":529:530   */\n  0x00\n    /* \"#utility.yul\":526:527   */\n  0x00\n    /* \"#utility.yul\":519:531   */\n  revert\n    /* \"#utility.yul\":470:533   */\ntag_53:\n    /* \"#utility.yul\":417:539   */\n  pop\n  jump\t// out\n    /* \"#utility.yul\":545:688   */\ntag_14:\n    /* \"#utility.yul\":602:607   */\n  0x00\n    /* \"#utility.yul\":633:639   */\n  dup2\n    /* \"#utility.yul\":627:640   */\n  mload\n    /* \"#utility.yul\":618:640   */\n  swap1\n  pop\n    /* \"#utility.yul\":649:682   */\n  tag_55\n    /* \"#utility.yul\":676:681   */\n  dup2\n    /* \"#utility.yul\":649:682   */\n  tag_13\n  jump\t// in\ntag_55:\n    /* \"#utility.yul\":545:688   */\n  swap3\n  swap2\n  pop\n  pop\n  jump\t// out\n    /* \"#utility.yul\":694:811   */\ntag_15:\n    /* \"#utility.yul\":803:804   */\n  0x00\n    /* \"#utility.yul\":800:801   */\n  0x00\n    /* \"#utility.yul\":793:805   */\n  revert\n    /* \"#utility.yul\":817:934   */\ntag_16:\n    /* \"#utility.yul\":926:927   */\n  0x00\n    /* \"#utility.yul\":923:924   */\n  0x00\n    /* \"#utility.yul\":916:928   */\n  revert\n    /* \"#utility.yul\":940:1042   */\ntag_17:\n    /* \"#utility.yul\":981:987   */\n  0x00\n    /* \"#utility.yul\":1032:1034   */\n  0x1f\n    /* \"#utility.yul\":1028:1035   */\n  not\n    /* \"#utility.yul\":1023:1025   */\n  0x1f\n    /* \"#utility.yul\":1016:1021   */\n  dup4\n    /* \"#utility.yul\":1012:1026   */\n  add\n    /* \"#utility.yul\":1008:1036   */\n  and\n    /* \"#utility.yul\":998:1036   */\n  swap1\n  pop\n    /* \"#utility.yul\":940:1042   */\n  swap2\n  swap1\n  pop\n  jump\t// out\n    /* \"#utility.yul\":1048:1228   */\ntag_18:\n    /* \"#utility.yul\":1096:1173   */\n  0x4e487b7100000000000000000000000000000000000000000000000000000000\n    /* \"#utility.yul\":1093:1094   */\n  0x00\n    /* \"#utility.yul\":1086:1174   */\n  mstore\n    /* \"#utility.yul\":1193:1197   */\n  0x41\n    /* \"#utility.yul\":1190:1191   */\n  0x04\n    /* \"#utility.yul\":1183:1198   */\n  mstore\n    /* \"#utility.yul\":1217:1221   */\n  0x24\n    /* \"#utility.yul\":1214:1215   */\n  0x00\n    /* \"#utility.yul\":1207:1222   */\n  revert\n    /* \"#utility.yul\":1234:1515   */\ntag_19:\n    /* \"#utility.yul\":1317:1344   */\n  tag_61\n    /* \"#utility.yul\":1339:1343   */\n  dup3\n    /* \"#utility.yul\":1317:1344   */\n  tag_17\n  jump\t// in\ntag_61:\n    /* \"#utility.yul\":1309:1315   */\n  dup2\n    /* \"#utility.yul\":1305:1345   */\n  add\n    /* \"#utility.yul\":1447:1453   */\n  dup2\n    /* \"#utility.yul\":1435:1445   */\n  dup2\n    /* \"#utility.yul\":1432:1454   */\n  lt\n    /* \"#utility.yul\":1411:1429   */\n  0xffffffffffffffff\n    /* \"#utility.yul\":1399:1409   */\n  dup3\n    /* \"#utility.yul\":1396:1430   */\n  gt\n    /* \"#utility.yul\":1393:1455   */\n  or\n    /* \"#utility.yul\":1390:1478   */\n  iszero\n  tag_62\n  jumpi\n    /* \"#utility.yul\":1458:1476   */\n  tag_63\n  tag_18\n  jump\t// in\ntag_63:\n    /* \"#utility.yul\":1390:1478   */\ntag_62:\n    /* \"#utility.yul\":1498:1508   */\n  dup1\n    /* \"#utility.yul\":1494:1496   */\n  0x40\n    /* \"#utility.yul\":1487:1509   */\n  mstore\n    /* \"#utility.yul\":1277:1515   */\n  pop\n    /* \"#utility.yul\":1234:1515   */\n  pop\n  pop\n  jump\t// out\n    /* \"#utility.yul\":1521:1650   */\ntag_20:\n    /* \"#utility.yul\":1555:1561   */\n  0x00\n    /* \"#utility.yul\":1582:1602   */\n  tag_65\n  tag_9\n  jump\t// in\ntag_65:\n    /* \"#utility.yul\":1572:1602   */\n  swap1\n  pop\n    /* \"#utility.yul\":1611:1644   */\n  tag_66\n    /* \"#utility.yul\":1639:1643   */\n  dup3\n    /* \"#utility.yul\":1631:1637   */\n  dup3\n    /* \"#utility.yul\":1611:1644   */\n  tag_19\n  jump\t// in\ntag_66:\n    /* \"#utility.yul\":1521:1650   */\n  swap2\n  swap1\n  pop\n  jump\t// out\n    /* \"#utility.yul\":1656:1964   */\ntag_21:\n    /* \"#utility.yul\":1718:1722   */\n  0x00\n    /* \"#utility.yul\":1808:1826   */\n  0xffffffffffffffff\n    /* \"#utility.yul\":1800:1806   */\n  dup3\n    /* \"#utility.yul\":1797:1827   */\n  gt\n    /* \"#utility.yul\":1794:1850   */\n  iszero\n  tag_68\n  jumpi\n    /* \"#utility.yul\":1830:1848   */\n  tag_69\n  tag_18\n  jump\t// in\ntag_69:\n    /* \"#utility.yul\":1794:1850   */\ntag_68:\n    /* \"#utility.yul\":1868:1897   */\n  tag_70\n    /* \"#utility.yul\":1890:1896   */\n  dup3\n    /* \"#utility.yul\":1868:1897   */\n  tag_17\n  jump\t// in\ntag_70:\n    /* \"#utility.yul\":1860:1897   */\n  swap1\n  pop\n    /* \"#utility.yul\":1952:1956   */\n  0x20\n    /* \"#utility.yul\":1946:1950   */\n  dup2\n    /* \"#utility.yul\":1942:1957   */\n  add\n    /* \"#utility.yul\":1934:1957   */\n  swap1\n  pop\n    /* \"#utility.yul\":1656:1964   */\n  swap2\n  swap1\n  pop\n  jump\t// out\n    /* \"#utility.yul\":1970:2109   */\ntag_22:\n    /* \"#utility.yul\":2059:2065   */\n  dup3\n    /* \"#utility.yul\":2054:2057   */\n  dup2\n    /* \"#utility.yul\":2049:2052   */\n  dup4\n    /* \"#utility.yul\":2043:2066   */\n  mcopy\n    /* \"#utility.yul\":2100:2101   */\n  0x00\n    /* \"#utility.yul\":2091:2097   */\n  dup4\n    /* \"#utility.yul\":2086:2089   */\n  dup4\n    /* \"#utility.yul\":2082:2098   */\n  add\n    /* \"#utility.yul\":2075:2102   */\n  mstore\n    /* \"#utility.yul\":1970:2109   */\n  pop\n  pop\n  pop\n  jump\t// out\n    /* \"#utility.yul\":2115:2549   */\ntag_23:\n    /* \"#utility.yul\":2204:2209   */\n  0x00\n    /* \"#utility.yul\":2229:2295   */\n  tag_73\n    /* \"#utility.yul\":2245:2294   */\n  tag_74\n    /* \"#utility.yul\":2287:2293   */\n  dup5\n    /* \"#utility.yul\":2245:2294   */\n  tag_21\n  jump\t// in\ntag_74:\n    /* \"#utility.yul\":2229:2295   */\n  tag_20\n  jump\t// in\ntag_73:\n    /* \"#utility.yul\":2220:2295   */\n  swap1\n  pop\n    /* \"#utility.yul\":2318:2324   */\n  dup3\n    /* \"#utility.yul\":2311:2316   */\n  dup2\n    /* \"#utility.yul\":2304:2325   */\n  mstore\n    /* \"#utility.yul\":2356:2360   */\n  0x20\n    /* \"#utility.yul\":2349:2354   */\n  dup2\n    /* \"#utility.yul\":2345:2361   */\n  add\n    /* \"#utility.yul\":2394:2397   */\n  dup5\n    /* \"#utility.yul\":2385:2391   */\n  dup5\n    /* \"#utility.yul\":2380:2383   */\n  dup5\n    /* \"#utility.yul\":2376:2392   */\n  add\n    /* \"#utility.yul\":2373:2398   */\n  gt\n    /* \"#utility.yul\":2370:2482   */\n  iszero\n  tag_75\n  jumpi\n    /* \"#utility.yul\":2401:2480   */\n  tag_76\n  tag_16\n  jump\t// in\ntag_76:\n    /* \"#utility.yul\":2370:2482   */\ntag_75:\n    /* \"#utility.yul\":2491:2543   */\n  tag_77\n    /* \"#utility.yul\":2536:2542   */\n  dup5\n    /* \"#utility.yul\":2531:2534   */\n  dup3\n    /* \"#utility.yul\":2526:2529   */\n  dup6\n    /* \"#utility.yul\":2491:2543   */\n  tag_22\n  jump\t// in\ntag_77:\n    /* \"#utility.yul\":2210:2549   */\n  pop\n    /* \"#utility.yul\":2115:2549   */\n  swap4\n  swap3\n  pop\n  pop\n  pop\n  jump\t// out\n    /* \"#utility.yul\":2569:2924   */\ntag_24:\n    /* \"#utility.yul\":2636:2641   */\n  0x00\n    /* \"#utility.yul\":2685:2688   */\n  dup3\n    /* \"#utility.yul\":2678:2682   */\n  0x1f\n    /* \"#utility.yul\":2670:2676   */\n  dup4\n    /* \"#utility.yul\":2666:2683   */\n  add\n    /* \"#utility.yul\":2662:2689   */\n  slt\n    /* \"#utility.yul\":2652:2774   */\n  tag_79\n  jumpi\n    /* \"#utility.yul\":2693:2772   */\n  tag_80\n  tag_15\n  jump\t// in\ntag_80:\n    /* \"#utility.yul\":2652:2774   */\ntag_79:\n    /* \"#utility.yul\":2803:2809   */\n  dup2\n    /* \"#utility.yul\":2797:2810   */\n  mload\n    /* \"#utility.yul\":2828:2918   */\n  tag_81\n    /* \"#utility.yul\":2914:2917   */\n  dup5\n    /* \"#utility.yul\":2906:2912   */\n  dup3\n    /* \"#utility.yul\":2899:2903   */\n  0x20\n    /* \"#utility.yul\":2891:2897   */\n  dup7\n    /* \"#utility.yul\":2887:2904   */\n  add\n    /* \"#utility.yul\":2828:2918   */\n  tag_23\n  jump\t// in\ntag_81:\n    /* \"#utility.yul\":2819:2918   */\n  swap2\n  pop\n    /* \"#utility.yul\":2642:2924   */\n  pop\n    /* \"#utility.yul\":2569:2924   */\n  swap3\n  swap2\n  pop\n  pop\n  jump\t// out\n    /* \"#utility.yul\":2930:3020   */\ntag_25:\n    /* \"#utility.yul\":2964:2971   */\n  0x00\n    /* \"#utility.yul\":3007:3012   */\n  dup2\n    /* \"#utility.yul\":3000:3013   */\n  iszero\n    /* \"#utility.yul\":2993:3014   */\n  iszero\n    /* \"#utility.yul\":2982:3014   */\n  swap1\n  pop\n    /* \"#utility.yul\":2930:3020   */\n  swap2\n  swap1\n  pop\n  jump\t// out\n    /* \"#utility.yul\":3026:3142   */\ntag_26:\n    /* \"#utility.yul\":3096:3117   */\n  tag_84\n    /* \"#utility.yul\":3111:3116   */\n  dup2\n    /* \"#utility.yul\":3096:3117   */\n  tag_25\n  jump\t// in\ntag_84:\n    /* \"#utility.yul\":3089:3094   */\n  dup2\n    /* \"#utility.yul\":3086:3118   */\n  eq\n    /* \"#utility.yul\":3076:3136   */\n  tag_85\n  jumpi\n    /* \"#utility.yul\":3132:3133   */\n  0x00\n    /* \"#utility.yul\":3129:3130   */\n  0x00\n    /* \"#utility.yul\":3122:3134   */\n  revert\n    /* \"#utility.yul\":3076:3136   */\ntag_85:\n    /* \"#utility.yul\":3026:3142   */\n  pop\n  jump\t// out\n    /* \"#utility.yul\":3148:3285   */\ntag_27:\n    /* \"#utility.yul\":3202:3207   */\n  0x00\n    /* \"#utility.yul\":3233:3239   */\n  dup2\n    /* \"#utility.yul\":3227:3240   */\n  mload\n    /* \"#utility.yul\":3218:3240   */\n  swap1\n  pop\n    /* \"#utility.yul\":3249:3279   */\n  tag_87\n    /* \"#utility.yul\":3273:3278   */\n  dup2\n    /* \"#utility.yul\":3249:3279   */\n  tag_26\n  jump\t// in\ntag_87:\n    /* \"#utility.yul\":3148:3285   */\n  swap3\n  swap2\n  pop\n  pop\n  jump\t// out\n    /* \"#utility.yul\":3291:4278   */\ntag_3:\n    /* \"#utility.yul\":3395:3401   */\n  0x00\n    /* \"#utility.yul\":3403:3409   */\n  0x00\n    /* \"#utility.yul\":3411:3417   */\n  0x00\n    /* \"#utility.yul\":3419:3425   */\n  0x00\n    /* \"#utility.yul\":3468:3471   */\n  0x80\n    /* \"#utility.yul\":3456:3465   */\n  dup6\n    /* \"#utility.yul\":3447:3454   */\n  dup8\n    /* \"#utility.yul\":3443:3466   */\n  sub\n    /* \"#utility.yul\":3439:3472   */\n  slt\n    /* \"#utility.yul\":3436:3556   */\n  iszero\n  tag_89\n  jumpi\n    /* \"#utility.yul\":3475:3554   */\n  tag_90\n  tag_10\n  jump\t// in\ntag_90:\n    /* \"#utility.yul\":3436:3556   */\ntag_89:\n    /* \"#utility.yul\":3595:3596   */\n  0x00\n    /* \"#utility.yul\":3620:3684   */\n  tag_91\n    /* \"#utility.yul\":3676:3683   */\n  dup8\n    /* \"#utility.yul\":3667:3673   */\n  dup3\n    /* \"#utility.yul\":3656:3665   */\n  dup9\n    /* \"#utility.yul\":3652:3674   */\n  add\n    /* \"#utility.yul\":3620:3684   */\n  tag_14\n  jump\t// in\ntag_91:\n    /* \"#utility.yul\":3610:3684   */\n  swap5\n  pop\n    /* \"#utility.yul\":3566:3694   */\n  pop\n    /* \"#utility.yul\":3754:3756   */\n  0x20\n    /* \"#utility.yul\":3743:3752   */\n  dup6\n    /* \"#utility.yul\":3739:3757   */\n  add\n    /* \"#utility.yul\":3733:3758   */\n  mload\n    /* \"#utility.yul\":3785:3803   */\n  0xffffffffffffffff\n    /* \"#utility.yul\":3777:3783   */\n  dup2\n    /* \"#utility.yul\":3774:3804   */\n  gt\n    /* \"#utility.yul\":3771:3888   */\n  iszero\n  tag_92\n  jumpi\n    /* \"#utility.yul\":3807:3886   */\n  tag_93\n  tag_11\n  jump\t// in\ntag_93:\n    /* \"#utility.yul\":3771:3888   */\ntag_92:\n    /* \"#utility.yul\":3912:3986   */\n  tag_94\n    /* \"#utility.yul\":3978:3985   */\n  dup8\n    /* \"#utility.yul\":3969:3975   */\n  dup3\n    /* \"#utility.yul\":3958:3967   */\n  dup9\n    /* \"#utility.yul\":3954:3976   */\n  add\n    /* \"#utility.yul\":3912:3986   */\n  tag_24\n  jump\t// in\ntag_94:\n    /* \"#utility.yul\":3902:3986   */\n  swap4\n  pop\n    /* \"#utility.yul\":3704:3996   */\n  pop\n    /* \"#utility.yul\":4035:4037   */\n  0x40\n    /* \"#utility.yul\":4061:4125   */\n  tag_95\n    /* \"#utility.yul\":4117:4124   */\n  dup8\n    /* \"#utility.yul\":4108:4114   */\n  dup3\n    /* \"#utility.yul\":4097:4106   */\n  dup9\n    /* \"#utility.yul\":4093:4115   */\n  add\n    /* \"#utility.yul\":4061:4125   */\n  tag_14\n  jump\t// in\ntag_95:\n    /* \"#utility.yul\":4051:4125   */\n  swap3\n  pop\n    /* \"#utility.yul\":4006:4135   */\n  pop\n    /* \"#utility.yul\":4174:4176   */\n  0x60\n    /* \"#utility.yul\":4200:4261   */\n  tag_96\n    /* \"#utility.yul\":4253:4260   */\n  dup8\n    /* \"#utility.yul\":4244:4250   */\n  dup3\n    /* \"#utility.yul\":4233:4242   */\n  dup9\n    /* \"#utility.yul\":4229:4251   */\n  add\n    /* \"#utility.yul\":4200:4261   */\n  tag_27\n  jump\t// in\ntag_96:\n    /* \"#utility.yul\":4190:4261   */\n  swap2\n  pop\n    /* \"#utility.yul\":4145:4271   */\n  pop\n    /* \"#utility.yul\":3291:4278   */\n  swap3\n  swap6\n  swap2\n  swap5\n  pop\n  swap3\n  pop\n  jump\t// out\n    /* \"#utility.yul\":4284:4383   */\ntag_28:\n    /* \"#utility.yul\":4336:4342   */\n  0x00\n    /* \"#utility.yul\":4370:4375   */\n  dup2\n    /* \"#utility.yul\":4364:4376   */\n  mload\n    /* \"#utility.yul\":4354:4376   */\n  swap1\n  pop\n    /* \"#utility.yul\":4284:4383   */\n  swap2\n  swap1\n  pop\n  jump\t// out\n    /* \"#utility.yul\":4389:4569   */\ntag_29:\n    /* \"#utility.yul\":4437:4514   */\n  0x4e487b7100000000000000000000000000000000000000000000000000000000\n    /* \"#utility.yul\":4434:4435   */\n  0x00\n    /* \"#utility.yul\":4427:4515   */\n  mstore\n    /* \"#utility.yul\":4534:4538   */\n  0x22\n    /* \"#utility.yul\":4531:4532   */\n  0x04\n    /* \"#utility.yul\":4524:4539   */\n  mstore\n    /* \"#utility.yul\":4558:4562   */\n  0x24\n    /* \"#utility.yul\":4555:4556   */\n  0x00\n    /* \"#utility.yul\":4548:4563   */\n  revert\n    /* \"#utility.yul\":4575:4895   */\ntag_30:\n    /* \"#utility.yul\":4619:4625   */\n  0x00\n    /* \"#utility.yul\":4656:4657   */\n  0x02\n    /* \"#utility.yul\":4650:4654   */\n  dup3\n    /* \"#utility.yul\":4646:4658   */\n  div\n    /* \"#utility.yul\":4636:4658   */\n  swap1\n  pop\n    /* \"#utility.yul\":4703:4704   */\n  0x01\n    /* \"#utility.yul\":4697:4701   */\n  dup3\n    /* \"#utility.yul\":4693:4705   */\n  and\n    /* \"#utility.yul\":4724:4742   */\n  dup1\n    /* \"#utility.yul\":4714:4795   */\n  tag_100\n  jumpi\n    /* \"#utility.yul\":4780:4784   */\n  0x7f\n    /* \"#utility.yul\":4772:4778   */\n  dup3\n    /* \"#utility.yul\":4768:4785   */\n  and\n    /* \"#utility.yul\":4758:4785   */\n  swap2\n  pop\n    /* \"#utility.yul\":4714:4795   */\ntag_100:\n    /* \"#utility.yul\":4842:4844   */\n  0x20\n    /* \"#utility.yul\":4834:4840   */\n  dup3\n    /* \"#utility.yul\":4831:4845   */\n  lt\n    /* \"#utility.yul\":4811:4829   */\n  dup2\n    /* \"#utility.yul\":4808:4846   */\n  sub\n    /* \"#utility.yul\":4805:4889   */\n  tag_101\n  jumpi\n    /* \"#utility.yul\":4861:4879   */\n  tag_102\n  tag_29\n  jump\t// in\ntag_102:\n    /* \"#utility.yul\":4805:4889   */\ntag_101:\n    /* \"#utility.yul\":4626:4895   */\n  pop\n    /* \"#utility.yul\":4575:4895   */\n  swap2\n  swap1\n  pop\n  jump\t// out\n    /* \"#utility.yul\":4901:5042   */\ntag_31:\n    /* \"#utility.yul\":4950:4954   */\n  0x00\n    /* \"#utility.yul\":4973:4976   */\n  dup2\n    /* \"#utility.yul\":4965:4976   */\n  swap1\n  pop\n    /* \"#utility.yul\":4996:4999   */\n  dup2\n    /* \"#utility.yul\":4993:4994   */\n  0x00\n    /* \"#utility.yul\":4986:5000   */\n  mstore\n    /* \"#utility.yul\":5030:5034   */\n  0x20\n    /* \"#utility.yul\":5027:5028   */\n  0x00\n    /* \"#utility.yul\":5017:5035   */\n  keccak256\n    /* \"#utility.yul\":5009:5035   */\n  swap1\n  pop\n    /* \"#utility.yul\":4901:5042   */\n  swap2\n  swap1\n  pop\n  jump\t// out\n    /* \"#utility.yul\":5048:5141   */\ntag_32:\n    /* \"#utility.yul\":5085:5091   */\n  0x00\n    /* \"#utility.yul\":5132:5134   */\n  0x20\n    /* \"#utility.yul\":5127:5129   */\n  0x1f\n    /* \"#utility.yul\":5120:5125   */\n  dup4\n    /* \"#utility.yul\":5116:5130   */\n  add\n    /* \"#utility.yul\":5112:5135   */\n  div\n    /* \"#utility.yul\":5102:5135   */\n  swap1\n  pop\n    /* \"#utility.yul\":5048:5141   */\n  swap2\n  swap1\n  pop\n  jump\t// out\n    /* \"#utility.yul\":5147:5254   */\ntag_33:\n    /* \"#utility.yul\":5191:5199   */\n  0x00\n    /* \"#utility.yul\":5241:5246   */\n  dup3\n    /* \"#utility.yul\":5235:5239   */\n  dup3\n    /* \"#utility.yul\":5231:5247   */\n  shl\n    /* \"#utility.yul\":5210:5247   */\n  swap1\n  pop\n    /* \"#utility.yul\":5147:5254   */\n  swap3\n  swap2\n  pop\n  pop\n  jump\t// out\n    /* \"#utility.yul\":5260:5653   */\ntag_34:\n    /* \"#utility.yul\":5329:5335   */\n  0x00\n    /* \"#utility.yul\":5379:5380   */\n  0x08\n    /* \"#utility.yul\":5367:5377   */\n  dup4\n    /* \"#utility.yul\":5363:5381   */\n  mul\n    /* \"#utility.yul\":5402:5499   */\n  tag_107\n    /* \"#utility.yul\":5432:5498   */\n  0xffffffffffffffffffffffffffffffffffffffffffffffffffffffffffffffff\n    /* \"#utility.yul\":5421:5430   */\n  dup3\n    /* \"#utility.yul\":5402:5499   */\n  tag_33\n  jump\t// in\ntag_107:\n    /* \"#utility.yul\":5520:5559   */\n  tag_108\n    /* \"#utility.yul\":5550:5558   */\n  dup7\n    /* \"#utility.yul\":5539:5548   */\n  dup4\n    /* \"#utility.yul\":5520:5559   */\n  tag_33\n  jump\t// in\ntag_108:\n    /* \"#utility.yul\":5508:5559   */\n  swap6\n  pop\n    /* \"#utility.yul\":5592:5596   */\n  dup1\n    /* \"#utility.yul\":5588:5597   */\n  not\n    /* \"#utility.yul\":5581:5586   */\n  dup5\n    /* \"#utility.yul\":5577:5598   */\n  and\n    /* \"#utility.yul\":5568:5598   */\n  swap4\n  pop\n    /* \"#utility.yul\":5641:5645   */\n  dup1\n    /* \"#utility.yul\":5631:5639   */\n  dup7\n    /* \"#utility.yul\":5627:5646   */\n  and\n    /* \"#utility.yul\":5620:5625   */\n  dup5\n    /* \"#utility.yul\":5617:5647   */\n  or\n    /* \"#utility.yul\":5607:5647   */\n  swap3\n  pop\n    /* \"#utility.yul\":5336:5653   */\n  pop\n  pop\n    /* \"#utility.yul\":5260:5653   */\n  swap4\n  swap3\n  pop\n  pop\n  pop\n  jump\t// out\n    /* \"#utility.yul\":5659:5719   */\ntag_35:\n    /* \"#utility.yul\":5687:5690   */\n  0x00\n    /* \"#utility.yul\":5708:5713   */\n  dup2\n    /* \"#utility.yul\":5701:5713   */\n  swap1\n  pop\n    /* \"#utility.yul\":5659:5719   */\n  swap2\n  swap1\n  pop\n  jump\t// out\n    /* \"#utility.yul\":5725:5867   */\ntag_36:\n    /* \"#utility.yul\":5775:5784   */\n  0x00\n    /* \"#utility.yul\":5808:5861   */\n  tag_111\n    /* \"#utility.yul\":5826:5860   */\n  tag_112\n    /* \"#utility.yul\":5835:5859   */\n  tag_113\n    /* \"#utility.yul\":5853:5858   */\n  dup5\n    /* \"#utility.yul\":5835:5859   */\n  tag_12\n  jump\t// in\ntag_113:\n    /* \"#utility.yul\":5826:5860   */\n  tag_35\n  jump\t// in\ntag_112:\n    /* \"#utility.yul\":5808:5861   */\n  tag_12\n  jump\t// in\ntag_111:\n    /* \"#utility.yul\":5795:5861   */\n  swap1\n  pop\n    /* \"#utility.yul\":5725:5867   */\n  swap2\n  swap1\n  pop\n  jump\t// out\n    /* \"#utility.yul\":5873:5948   */\ntag_37:\n    /* \"#utility.yul\":5916:5919   */\n  0x00\n    /* \"#utility.yul\":5937:5942   */\n  dup2\n    /* \"#utility.yul\":5930:5942   */\n  swap1\n  pop\n    /* \"#utility.yul\":5873:5948   */\n  swap2\n  swap1\n  pop\n  jump\t// out\n    /* \"#utility.yul\":5954:6223   */\ntag_38:\n    /* \"#utility.yul\":6064:6103   */\n  tag_116\n    /* \"#utility.yul\":6095:6102   */\n  dup4\n    /* \"#utility.yul\":6064:6103   */\n  tag_36\n  jump\t// in\ntag_116:\n    /* \"#utility.yul\":6125:6216   */\n  tag_117\n    /* \"#utility.yul\":6174:6215   */\n  tag_118\n    /* \"#utility.yul\":6198:6214   */\n  dup3\n    /* \"#utility.yul\":6174:6215   */\n  tag_37\n  jump\t// in\ntag_118:\n    /* \"#utility.yul\":6166:6172   */\n  dup5\n    /* \"#utility.yul\":6159:6163   */\n  dup5\n    /* \"#utility.yul\":6153:6164   */\n  sload\n    /* \"#utility.yul\":6125:6216   */\n  tag_34\n  jump\t// in\ntag_117:\n    /* \"#utility.yul\":6119:6123   */\n  dup3\n    /* \"#utility.yul\":6112:6217   */\n  sstore\n    /* \"#utility.yul\":6030:6223   */\n  pop\n    /* \"#utility.yul\":5954:6223   */\n  pop\n  pop\n  pop\n  jump\t// out\n    /* \"#utility.yul\":6229:6302   */\ntag_39:\n    /* \"#utility.yul\":6274:6277   */\n  0x00\n    /* \"#utility.yul\":6295:6296   */\n  0x00\n    /* \"#utility.yul\":6288:6296   */\n  swap1\n  pop\n    /* \"#utility.yul\":6229:6302   */\n  swap1\n  jump\t// out\n    /* \"#utility.yul\":6308:6497   */\ntag_40:\n    /* \"#utility.yul\":6385:6417   */\n  tag_121\n  tag_39\n  jump\t// in\ntag_121:\n    /* \"#utility.yul\":6426:6491   */\n  tag_122\n    /* \"#utility.yul\":6484:6490   */\n  dup2\n    /* \"#utility.yul\":6476:6482   */\n  dup5\n    /* \"#utility.yul\":6470:6474   */\n  dup5\n    /* \"#utility.yul\":6426:6491   */\n  tag_38\n  jump\t// in\ntag_122:\n    /* \"#utility.yul\":6361:6497   */\n  pop\n    /* \"#utility.yul\":6308:6497   */\n  pop\n  pop\n  jump\t// out\n    /* \"#utility.yul\":6503:6689   */\ntag_41:\n    /* \"#utility.yul\":6563:6683   */\ntag_124:\n    /* \"#utility.yul\":6580:6583   */\n  dup2\n    /* \"#utility.yul\":6573:6578   */\n  dup2\n    /* \"#utility.yul\":6570:6584   */\n  lt\n    /* \"#utility.yul\":6563:6683   */\n  iszero\n  tag_126\n  jumpi\n    /* \"#utility.yul\":6634:6673   */\n  tag_127\n    /* \"#utility.yul\":6671:6672   */\n  0x00\n    /* \"#utility.yul\":6664:6669   */\n  dup3\n    /* \"#utility.yul\":6634:6673   */\n  tag_40\n  jump\t// in\ntag_127:\n    /* \"#utility.yul\":6607:6608   */\n  0x01\n    /* \"#utility.yul\":6600:6605   */\n  dup2\n    /* \"#utility.yul\":6596:6609   */\n  add\n    /* \"#utility.yul\":6587:6609   */\n  swap1\n  pop\n    /* \"#utility.yul\":6563:6683   */\n  jump(tag_124)\ntag_126:\n    /* \"#utility.yul\":6503:6689   */\n  pop\n  pop\n  jump\t// out\n    /* \"#utility.yul\":6695:7238   */\ntag_42:\n    /* \"#utility.yul\":6796:6798   */\n  0x1f\n    /* \"#utility.yul\":6791:6794   */\n  dup3\n    /* \"#utility.yul\":6788:6799   */\n  gt\n    /* \"#utility.yul\":6785:7231   */\n  iszero\n  tag_129\n  jumpi\n    /* \"#utility.yul\":6830:6868   */\n  tag_130\n    /* \"#utility.yul\":6862:6867   */\n  dup2\n    /* \"#utility.yul\":6830:6868   */\n  tag_31\n  jump\t// in\ntag_130:\n    /* \"#utility.yul\":6914:6943   */\n  tag_131\n    /* \"#utility.yul\":6932:6942   */\n  dup5\n    /* \"#utility.yul\":6914:6943   */\n  tag_32\n  jump\t// in\ntag_131:\n    /* \"#utility.yul\":6904:6912   */\n  dup2\n    /* \"#utility.yul\":6900:6944   */\n  add\n    /* \"#utility.yul\":7097:7099   */\n  0x20\n    /* \"#utility.yul\":7085:7095   */\n  dup6\n    /* \"#utility.yul\":7082:7100   */\n  lt\n    /* \"#utility.yul\":7079:7128   */\n  iszero\n  tag_132\n  jumpi\n    /* \"#utility.yul\":7118:7126   */\n  dup2\n    /* \"#utility.yul\":7103:7126   */\n  swap1\n  pop\n    /* \"#utility.yul\":7079:7128   */\ntag_132:\n    /* \"#utility.yul\":7141:7221   */\n  tag_133\n    /* \"#utility.yul\":7197:7219   */\n  tag_134\n    /* \"#utility.yul\":7215:7218   */\n  dup6\n    /* \"#utility.yul\":7197:7219   */\n  tag_32\n  jump\t// in\ntag_134:\n    /* \"#utility.yul\":7187:7195   */\n  dup4\n    /* \"#utility.yul\":7183:7220   */\n  add\n    /* \"#utility.yul\":7170:7181   */\n  dup3\n    /* \"#utility.yul\":7141:7221   */\n  tag_41\n  jump\t// in\ntag_133:\n    /* \"#utility.yul\":6800:7231   */\n  pop\n  pop\n    /* \"#utility.yul\":6785:7231   */\ntag_129:\n    /* \"#utility.yul\":6695:7238   */\n  pop\n  pop\n  pop\n  jump\t// out\n    /* \"#utility.yul\":7244:7361   */\ntag_43:\n    /* \"#utility.yul\":7298:7306   */\n  0x00\n    /* \"#utility.yul\":7348:7353   */\n  dup3\n    /* \"#utility.yul\":7342:7346   */\n  dup3\n    /* \"#utility.yul\":7338:7354   */\n  shr\n    /* \"#utility.yul\":7317:7354   */\n  swap1\n  pop\n    /* \"#utility.yul\":7244:7361   */\n  swap3\n  swap2\n  pop\n  pop\n  jump\t// out\n    /* \"#utility.yul\":7367:7536   */\ntag_44:\n    /* \"#utility.yul\":7411:7417   */\n  0x00\n    /* \"#utility.yul\":7444:7495   */\n  tag_137\n    /* \"#utility.yul\":7492:7493   */\n  0x00\n    /* \"#utility.yul\":7488:7494   */\n  not\n    /* \"#utility.yul\":7480:7485   */\n  dup5\n    /* \"#utility.yul\":7477:7478   */\n  0x08\n    /* \"#utility.yul\":7473:7486   */\n  mul\n    /* \"#utility.yul\":7444:7495   */\n  tag_43\n  jump\t// in\ntag_137:\n    /* \"#utility.yul\":7440:7496   */\n  not\n    /* \"#utility.yul\":7525:7529   */\n  dup1\n    /* \"#utility.yul\":7519:7523   */\n  dup4\n    /* \"#utility.yul\":7515:7530   */\n  and\n    /* \"#utility.yul\":7505:7530   */\n  swap2\n  pop\n    /* \"#utility.yul\":7418:7536   */\n  pop\n    /* \"#utility.yul\":7367:7536   */\n  swap3\n  swap2\n  pop\n  pop\n  jump\t// out\n    /* \"#utility.yul\":7541:7836   */\ntag_45:\n    /* \"#utility.yul\":7617:7621   */\n  0x00\n    /* \"#utility.yul\":7763:7792   */\n  tag_139\n    /* \"#utility.yul\":7788:7791   */\n  dup4\n    /* \"#utility.yul\":7782:7786   */\n  dup4\n    /* \"#utility.yul\":7763:7792   */\n  tag_44\n  jump\t// in\ntag_139:\n    /* \"#utility.yul\":7755:7792   */\n  swap2\n  pop\n    /* \"#utility.yul\":7825:7828   */\n  dup3\n    /* \"#utility.yul\":7822:7823   */\n  0x02\n    /* \"#utility.yul\":7818:7829   */\n  mul\n    /* \"#utility.yul\":7812:7816   */\n  dup3\n    /* \"#utility.yul\":7809:7830   */\n  or\n    /* \"#utility.yul\":7801:7830   */\n  swap1\n  pop\n    /* \"#utility.yul\":7541:7836   */\n  swap3\n  swap2\n  pop\n  pop\n  jump\t// out\n    /* \"#utility.yul\":7841:9236   */\ntag_7:\n    /* \"#utility.yul\":7958:7995   */\n  tag_141\n    /* \"#utility.yul\":7991:7994   */\n  dup3\n    /* \"#utility.yul\":7958:7995   */\n  tag_28\n  jump\t// in\ntag_141:\n    /* \"#utility.yul\":8060:8078   */\n  0xffffffffffffffff\n    /* \"#utility.yul\":8052:8058   */\n  dup2\n    /* \"#utility.yul\":8049:8079   */\n  gt\n    /* \"#utility.yul\":8046:8102   */\n  iszero\n  tag_142\n  jumpi\n    /* \"#utility.yul\":8082:8100   */\n  tag_143\n  tag_18\n  jump\t// in\ntag_143:\n    /* \"#utility.yul\":8046:8102   */\ntag_142:\n    /* \"#utility.yul\":8126:8164   */\n  tag_144\n    /* \"#utility.yul\":8158:8162   */\n  dup3\n    /* \"#utility.yul\":8152:8163   */\n  sload\n    /* \"#utility.yul\":8126:8164   */\n  tag_30\n  jump\t// in\ntag_144:\n    /* \"#utility.yul\":8211:8278   */\n  tag_145\n    /* \"#utility.yul\":8271:8277   */\n  dup3\n    /* \"#utility.yul\":8263:8269   */\n  dup3\n    /* \"#utility.yul\":8257:8261   */\n  dup6\n    /* \"#utility.yul\":8211:8278   */\n  tag_42\n  jump\t// in\ntag_145:\n    /* \"#utility.yul\":8305:8306   */\n  0x00\n    /* \"#utility.yul\":8329:8333   */\n  0x20\n    /* \"#utility.yul\":8316:8333   */\n  swap1\n  pop\n    /* \"#utility.yul\":8361:8363   */\n  0x1f\n    /* \"#utility.yul\":8353:8359   */\n  dup4\n    /* \"#utility.yul\":8350:8364   */\n  gt\n    /* \"#utility.yul\":8378:8379   */\n  0x01\n    /* \"#utility.yul\":8373:8991   */\n  dup2\n  eq\n  tag_147\n  jumpi\n    /* \"#utility.yul\":9035:9036   */\n  0x00\n    /* \"#utility.yul\":9052:9058   */\n  dup5\n    /* \"#utility.yul\":9049:9126   */\n  iszero\n  tag_148\n  jumpi\n    /* \"#utility.yul\":9101:9110   */\n  dup3\n    /* \"#utility.yul\":9096:9099   */\n  dup8\n    /* \"#utility.yul\":9092:9111   */\n  add\n    /* \"#utility.yul\":9086:9112   */\n  mload\n    /* \"#utility.yul\":9077:9112   */\n  swap1\n  pop\n    /* \"#utility.yul\":9049:9126   */\ntag_148:\n    /* \"#utility.yul\":9152:9219   */\n  tag_149\n    /* \"#utility.yul\":9212:9218   */\n  dup6\n    /* \"#utility.yul\":9205:9210   */\n  dup3\n    /* \"#utility.yul\":9152:9219   */\n  tag_45\n  jump\t// in\ntag_149:\n    /* \"#utility.yul\":9146:9150   */\n  dup7\n    /* \"#utility.yul\":9139:9220   */\n  sstore\n    /* \"#utility.yul\":9008:9230   */\n  pop\n    /* \"#utility.yul\":8343:9230   */\n  jump(tag_146)\n    /* \"#utility.yul\":8373:8991   */\ntag_147:\n    /* \"#utility.yul\":8425:8429   */\n  0x1f\n    /* \"#utility.yul\":8421:8430   */\n  not\n    /* \"#utility.yul\":8413:8419   */\n  dup5\n    /* \"#utility.yul\":8409:8431   */\n  and\n    /* \"#utility.yul\":8459:8496   */\n  tag_150\n    /* \"#utility.yul\":8491:8495   */\n  dup7\n    /* \"#utility.yul\":8459:8496   */\n  tag_31\n  jump\t// in\ntag_150:\n    /* \"#utility.yul\":8518:8519   */\n  0x00\n    /* \"#utility.yul\":8532:8740   */\ntag_151:\n    /* \"#utility.yul\":8546:8553   */\n  dup3\n    /* \"#utility.yul\":8543:8544   */\n  dup2\n    /* \"#utility.yul\":8540:8554   */\n  lt\n    /* \"#utility.yul\":8532:8740   */\n  iszero\n  tag_153\n  jumpi\n    /* \"#utility.yul\":8625:8634   */\n  dup5\n    /* \"#utility.yul\":8620:8623   */\n  dup10\n    /* \"#utility.yul\":8616:8635   */\n  add\n    /* \"#utility.yul\":8610:8636   */\n  mload\n    /* \"#utility.yul\":8602:8608   */\n  dup3\n    /* \"#utility.yul\":8595:8637   */\n  sstore\n    /* \"#utility.yul\":8676:8677   */\n  0x01\n    /* \"#utility.yul\":8668:8674   */\n  dup3\n    /* \"#utility.yul\":8664:8678   */\n  add\n    /* \"#utility.yul\":8654:8678   */\n  swap2\n  pop\n    /* \"#utility.yul\":8723:8725   */\n  0x20\n    /* \"#utility.yul\":8712:8721   */\n  dup6\n    /* \"#utility.yul\":8708:8726   */\n  add\n    /* \"#utility.yul\":8695:8726   */\n  swap5\n  pop\n    /* \"#utility.yul\":8569:8573   */\n  0x20\n    /* \"#utility.yul\":8566:8567   */\n  dup2\n    /* \"#utility.yul\":8562:8574   */\n  add\n    /* \"#utility.yul\":8557:8574   */\n  swap1\n  pop\n    /* \"#utility.yul\":8532:8740   */\n  jump(tag_151)\ntag_153:\n    /* \"#utility.yul\":8768:8774   */\n  dup7\n    /* \"#utility.yul\":8759:8766   */\n  dup4\n    /* \"#utility.yul\":8756:8775   */\n  lt\n    /* \"#utility.yul\":8753:8932   */\n  iszero\n  tag_154\n  jumpi\n    /* \"#utility.yul\":8826:8835   */\n  dup5\n    /* \"#utility.yul\":8821:8824   */\n  dup10\n    /* \"#utility.yul\":8817:8836   */\n  add\n    /* \"#utility.yul\":8811:8837   */\n  mload\n    /* \"#utility.yul\":8869:8917   */\n  tag_155\n    /* \"#utility.yul\":8911:8915   */\n  0x1f\n    /* \"#utility.yul\":8903:8909   */\n  dup10\n    /* \"#utility.yul\":8899:8916   */\n  and\n    /* \"#utility.yul\":8888:8897   */\n  dup3\n    /* \"#utility.yul\":8869:8917   */\n  tag_44\n  jump\t// in\ntag_155:\n    /* \"#utility.yul\":8861:8867   */\n  dup4\n    /* \"#utility.yul\":8854:8918   */\n  sstore\n    /* \"#utility.yul\":8776:8932   */\n  pop\n    /* \"#utility.yul\":8753:8932   */\ntag_154:\n    /* \"#utility.yul\":8978:8979   */\n  0x01\n    /* \"#utility.yul\":8974:8975   */\n  0x02\n    /* \"#utility.yul\":8966:8972   */\n  dup9\n    /* \"#utility.yul\":8962:8976   */\n  mul\n    /* \"#utility.yul\":8958:8980   */\n  add\n    /* \"#utility.yul\":8952:8956   */\n  dup9\n    /* \"#utility.yul\":8945:8981   */\n  sstore\n    /* \"#utility.yul\":8380:8991   */\n  pop\n  pop\n  pop\n    /* \"#utility.yul\":8343:9230   */\ntag_146:\n  pop\n    /* \"#utility.yul\":7933:9236   */\n  pop\n  pop\n  pop\n    /* \"#utility.yul\":7841:9236   */\n  pop\n  pop\n  jump\t// out\n    /* \"student.sol\":60:397  contract StudentRecords{... */\ntag_8:\n  dataSize(sub_0)\n  dup1\n  dataOffset(sub_0)\n  0x00\n  codecopy\n  0x00\n  return\nstop\n\nsub_0: assembly {\n        /* \"student.sol\":60:397  contract StudentRecords{... */\n      mstore(0x40, 0x80)\n      callvalue\n      dup1\n      iszero\n      tag_1\n      jumpi\n      revert(0x00, 0x00)\n    tag_1:\n      pop\n      jumpi(tag_2, lt(calldatasize, 0x04))\n      shr(0xe0, calldataload(0x00))\n      dup1\n      0x6cc014de\n      eq\n      tag_3\n      jumpi\n    tag_2:\n      revert(0x00, 0x00)\n        /* \"student.sol\":210:233  studentrecord public s1 */\n    tag_3:\n      tag_4\n      tag_5\n      jump\t// in\n    tag_4:\n      mload(0x40)\n      tag_6\n      swap5\n      swap4\n      swap3\n      swap2\n      swap1\n      tag_7\n      jump\t// in\n    tag_6:\n      mload(0x40)\n      dup1\n      swap2\n      sub\n      swap1\n      return\n    tag_5:\n      0x00\n      dup1\n      0x00\n      add\n      sload\n      swap1\n      dup1\n      0x01\n      add\n      dup1\n      sload\n      tag_8\n      swap1\n      tag_9\n      jump\t// in\n    tag_8:\n      dup1\n      0x1f\n      add\n      0x20\n      dup1\n      swap2\n      div\n      mul\n      0x20\n      add\n      mload(0x40)\n      swap1\n      dup2\n      add\n      0x40\n      mstore\n      dup1\n      swap3\n      swap2\n      swap1\n      dup2\n      dup2\n      mstore\n      0x20\n      add\n      dup3\n      dup1\n      sload\n      tag_10\n      swap1\n      tag_9\n      jump\t// in\n    tag_10:\n      dup1\n      iszero\n      tag_11\n      jumpi\n      dup1\n      0x1f\n      lt\n      tag_12\n      jumpi\n      0x0100\n      dup1\n      dup4\n      sload\n      div\n      mul\n      dup4\n      mstore\n      swap2\n      0x20\n      add\n      swap2\n      jump(tag_11)\n    tag_12:\n      dup3\n      add\n      swap2\n      swap1\n      0x00\n      mstore\n      keccak256(0x00, 0x20)\n      swap1\n    tag_13:\n      dup2\n      sload\n      dup2\n      mstore\n      swap1\n      0x01\n      add\n      swap1\n      0x20\n      add\n      dup1\n      dup4\n      gt\n      tag_13\n      jumpi\n      dup3\n      swap1\n      sub\n      0x1f\n      and\n      dup3\n      add\n      swap2\n    tag_11:\n      pop\n      pop\n      pop\n      pop\n      pop\n      swap1\n      dup1\n      0x02\n      add\n      sload\n      swap1\n      dup1\n      0x03\n      add\n      0x00\n      swap1\n      sload\n      swap1\n      0x0100\n      exp\n      swap1\n      div\n      0xff\n      and\n      swap1\n      pop\n      dup5\n      jump\t// out\n        /* \"#utility.yul\":7:84   */\n    tag_14:\n        /* \"#utility.yul\":44:51   */\n      0x00\n        /* \"#utility.yul\":73:78   */\n      dup2\n        /* \"#utility.yul\":62:78   */\n      swap1\n      pop\n        /* \"#utility.yul\":7:84   */\n      swap2\n      swap1\n      pop\n      jump\t// out\n        /* \"#utility.yul\":90:208   */\n    tag_15:\n        /* \"#utility.yul\":177:201   */\n      tag_27\n        /* \"#utility.yul\":195:200   */\n      dup2\n        /* \"#utility.yul\":177:201   */\n      tag_14\n      jump\t// in\n    tag_27:\n        /* \"#utility.yul\":172:175   */\n      dup3\n        /* \"#utility.yul\":165:202   */\n      mstore\n        /* \"#utility.yul\":90:208   */\n      pop\n      pop\n      jump\t// out\n        /* \"#utility.yul\":214:313   */\n    tag_16:\n        /* \"#utility.yul\":266:272   */\n      0x00\n        /* \"#utility.yul\":300:305   */\n      dup2\n        /* \"#utility.yul\":294:306   */\n      mload\n        /* \"#utility.yul\":284:306   */\n      swap1\n      pop\n        /* \"#utility.yul\":214:313   */\n      swap2\n      swap1\n      pop\n      jump\t// out\n        /* \"#utility.yul\":319:488   */\n    tag_17:\n        /* \"#utility.yul\":403:414   */\n      0x00\n        /* \"#utility.yul\":437:443   */\n      dup3\n        /* \"#utility.yul\":432:435   */\n      dup3\n        /* \"#utility.yul\":425:444   */\n      mstore\n        /* \"#utility.yul\":477:481   */\n      0x20\n        /* \"#utility.yul\":472:475   */\n      dup3\n        /* \"#utility.yul\":468:482   */\n      add\n        /* \"#utility.yul\":453:482   */\n      swap1\n      pop\n        /* \"#utility.yul\":319:488   */\n      swap3\n      swap2\n      pop\n      pop\n      jump\t// out\n        /* \"#utility.yul\":494:633   */\n    tag_18:\n        /* \"#utility.yul\":583:589   */\n      dup3\n        /* \"#utility.yul\":578:581   */\n      dup2\n        /* \"#utility.yul\":573:576   */\n      dup4\n        /* \"#utility.yul\":567:590   */\n      mcopy\n        /* \"#utility.yul\":624:625   */\n      0x00\n        /* \"#utility.yul\":615:621   */\n      dup4\n        /* \"#utility.yul\":610:613   */\n      dup4\n        /* \"#utility.yul\":606:622   */\n      add\n        /* \"#utility.yul\":599:626   */\n      mstore\n        /* \"#utility.yul\":494:633   */\n      pop\n      pop\n      pop\n      jump\t// out\n        /* \"#utility.yul\":639:741   */\n    tag_19:\n        /* \"#utility.yul\":680:686   */\n      0x00\n        /* \"#utility.yul\":731:733   */\n      0x1f\n        /* \"#utility.yul\":727:734   */\n      not\n        /* \"#utility.yul\":722:724   */\n      0x1f\n        /* \"#utility.yul\":715:720   */\n      dup4\n        /* \"#utility.yul\":711:725   */\n      add\n        /* \"#utility.yul\":707:735   */\n      and\n        /* \"#utility.yul\":697:735   */\n      swap1\n      pop\n        /* \"#utility.yul\":639:741   */\n      swap2\n      swap1\n      pop\n      jump\t// out\n        /* \"#utility.yul\":747:1124   */\n    tag_20:\n        /* \"#utility.yul\":835:838   */\n      0x00\n        /* \"#utility.yul\":863:902   */\n      tag_33\n        /* \"#utility.yul\":896:901   */\n      dup3\n        /* \"#utility.yul\":863:902   */\n      tag_16\n      jump\t// in\n    tag_33:\n        /* \"#utility.yul\":918:989   */\n      tag_34\n        /* \"#utility.yul\":982:988   */\n      dup2\n        /* \"#utility.yul\":977:980   */\n      dup6\n        /* \"#utility.yul\":918:989   */\n      tag_17\n      jump\t// in\n    tag_34:\n        /* \"#utility.yul\":911:989   */\n      swap4\n      pop\n        /* \"#utility.yul\":998:1063   */\n      tag_35\n        /* \"#utility.yul\":1056:1062   */\n      dup2\n        /* \"#utility.yul\":1051:1054   */\n      dup6\n        /* \"#utility.yul\":1044:1048   */\n      0x20\n        /* \"#utility.yul\":1037:1042   */\n      dup7\n        /* \"#utility.yul\":1033:1049   */\n      add\n        /* \"#utility.yul\":998:1063   */\n      tag_18\n      jump\t// in\n    tag_35:\n        /* \"#utility.yul\":1088:1117   */\n      tag_36\n        /* \"#utility.yul\":1110:1116   */\n      dup2\n        /* \"#utility.yul\":1088:1117   */\n      tag_19\n      jump\t// in\n    tag_36:\n        /* \"#utility.yul\":1083:1086   */\n      dup5\n        /* \"#utility.yul\":1079:1118   */\n      add\n        /* \"#utility.yul\":1072:1118   */\n      swap2\n      pop\n        /* \"#utility.yul\":839:1124   */\n      pop\n        /* \"#utility.yul\":747:1124   */\n      swap3\n      swap2\n      pop\n      pop\n      jump\t// out\n        /* \"#utility.yul\":1130:1220   */\n    tag_21:\n        /* \"#utility.yul\":1164:1171   */\n      0x00\n        /* \"#utility.yul\":1207:1212   */\n      dup2\n        /* \"#utility.yul\":1200:1213   */\n      iszero\n        /* \"#utility.yul\":1193:1214   */\n      iszero\n        /* \"#utility.yul\":1182:1214   */\n      swap1\n      pop\n        /* \"#utility.yul\":1130:1220   */\n      swap2\n      swap1\n      pop\n      jump\t// out\n        /* \"#utility.yul\":1226:1335   */\n    tag_22:\n        /* \"#utility.yul\":1307:1328   */\n      tag_39\n        /* \"#utility.yul\":1322:1327   */\n      dup2\n        /* \"#utility.yul\":1307:1328   */\n      tag_21\n      jump\t// in\n    tag_39:\n        /* \"#utility.yul\":1302:1305   */\n      dup3\n        /* \"#utility.yul\":1295:1329   */\n      mstore\n        /* \"#utility.yul\":1226:1335   */\n      pop\n      pop\n      jump\t// out\n        /* \"#utility.yul\":1341:1973   */\n    tag_7:\n        /* \"#utility.yul\":1532:1536   */\n      0x00\n        /* \"#utility.yul\":1570:1573   */\n      0x80\n        /* \"#utility.yul\":1559:1568   */\n      dup3\n        /* \"#utility.yul\":1555:1574   */\n      add\n        /* \"#utility.yul\":1547:1574   */\n      swap1\n      pop\n        /* \"#utility.yul\":1584:1655   */\n      tag_41\n        /* \"#utility.yul\":1652:1653   */\n      0x00\n        /* \"#utility.yul\":1641:1650   */\n      dup4\n        /* \"#utility.yul\":1637:1654   */\n      add\n        /* \"#utility.yul\":1628:1634   */\n      dup8\n        /* \"#utility.yul\":1584:1655   */\n      tag_15\n      jump\t// in\n    tag_41:\n        /* \"#utility.yul\":1702:1711   */\n      dup2\n        /* \"#utility.yul\":1696:1700   */\n      dup2\n        /* \"#utility.yul\":1692:1712   */\n      sub\n        /* \"#utility.yul\":1687:1689   */\n      0x20\n        /* \"#utility.yul\":1676:1685   */\n      dup4\n        /* \"#utility.yul\":1672:1690   */\n      add\n        /* \"#utility.yul\":1665:1713   */\n      mstore\n        /* \"#utility.yul\":1730:1808   */\n      tag_42\n        /* \"#utility.yul\":1803:1807   */\n      dup2\n        /* \"#utility.yul\":1794:1800   */\n      dup7\n        /* \"#utility.yul\":1730:1808   */\n      tag_20\n      jump\t// in\n    tag_42:\n        /* \"#utility.yul\":1722:1808   */\n      swap1\n      pop\n        /* \"#utility.yul\":1818:1890   */\n      tag_43\n        /* \"#utility.yul\":1886:1888   */\n      0x40\n        /* \"#utility.yul\":1875:1884   */\n      dup4\n        /* \"#utility.yul\":1871:1889   */\n      add\n        /* \"#utility.yul\":1862:1868   */\n      dup6\n        /* \"#utility.yul\":1818:1890   */\n      tag_15\n      jump\t// in\n    tag_43:\n        /* \"#utility.yul\":1900:1966   */\n      tag_44\n        /* \"#utility.yul\":1962:1964   */\n      0x60\n        /* \"#utility.yul\":1951:1960   */\n      dup4\n        /* \"#utility.yul\":1947:1965   */\n      add\n        /* \"#utility.yul\":1938:1944   */\n      dup5\n        /* \"#utility.yul\":1900:1966   */\n      tag_22\n      jump\t// in\n    tag_44:\n        /* \"#utility.yul\":1341:1973   */\n      swap6\n      swap5\n      pop\n      pop\n      pop\n      pop\n      pop\n      jump\t// out\n        /* \"#utility.yul\":1979:2159   */\n    tag_23:\n        /* \"#utility.yul\":2027:2104   */\n      0x4e487b7100000000000000000000000000000000000000000000000000000000\n        /* \"#utility.yul\":2024:2025   */\n      0x00\n        /* \"#utility.yul\":2017:2105   */\n      mstore\n        /* \"#utility.yul\":2124:2128   */\n      0x22\n        /* \"#utility.yul\":2121:2122   */\n      0x04\n        /* \"#utility.yul\":2114:2129   */\n      mstore\n        /* \"#utility.yul\":2148:2152   */\n      0x24\n        /* \"#utility.yul\":2145:2146   */\n      0x00\n        /* \"#utility.yul\":2138:2153   */\n      revert\n        /* \"#utility.yul\":2165:2485   */\n    tag_9:\n        /* \"#utility.yul\":2209:2215   */\n      0x00\n        /* \"#utility.yul\":2246:2247   */\n      0x02\n        /* \"#utility.yul\":2240:2244   */\n      dup3\n        /* \"#utility.yul\":2236:2248   */\n      div\n        /* \"#utility.yul\":2226:2248   */\n      swap1\n      pop\n        /* \"#utility.yul\":2293:2294   */\n      0x01\n        /* \"#utility.yul\":2287:2291   */\n      dup3\n        /* \"#utility.yul\":2283:2295   */\n      and\n        /* \"#utility.yul\":2314:2332   */\n      dup1\n        /* \"#utility.yul\":2304:2385   */\n      tag_47\n      jumpi\n        /* \"#utility.yul\":2370:2374   */\n      0x7f\n        /* \"#utility.yul\":2362:2368   */\n      dup3\n        /* \"#utility.yul\":2358:2375   */\n      and\n        /* \"#utility.yul\":2348:2375   */\n      swap2\n      pop\n        /* \"#utility.yul\":2304:2385   */\n    tag_47:\n        /* \"#utility.yul\":2432:2434   */\n      0x20\n        /* \"#utility.yul\":2424:2430   */\n      dup3\n        /* \"#utility.yul\":2421:2435   */\n      lt\n        /* \"#utility.yul\":2401:2419   */\n      dup2\n        /* \"#utility.yul\":2398:2436   */\n      sub\n        /* \"#utility.yul\":2395:2479   */\n      tag_48\n      jumpi\n        /* \"#utility.yul\":2451:2469   */\n      tag_49\n      tag_23\n      jump\t// in\n    tag_49:\n        /* \"#utility.yul\":2395:2479   */\n    tag_48:\n        /* \"#utility.yul\":2216:2485   */\n      pop\n        /* \"#utility.yul\":2165:2485   */\n      swap2\n      swap1\n      pop\n      jump\t// out\n\n    auxdata: 0xa2646970667358221220d413e21670914e46384162a1f444076a5ff528fe8c66d0c449276b207d3c872a64736f6c634300081f0033\n}\n",
				"bytecode": {
					"linkReferences": {},
					"object": "608060405234801561000f575f5ffd5b5060405161080b38038061080b8339818101604052810190610031919061022d565b835f5f0181905550825f600101908161004a91906104b4565b50815f60020181905550805f6003015f6101000a81548160ff02191690831515021790555050505050610583565b5f604051905090565b5f5ffd5b5f5ffd5b5f819050919050565b61009b81610089565b81146100a5575f5ffd5b50565b5f815190506100b681610092565b92915050565b5f5ffd5b5f5ffd5b5f601f19601f8301169050919050565b7f4e487b71000000000000000000000000000000000000000000000000000000005f52604160045260245ffd5b61010a826100c4565b810181811067ffffffffffffffff82111715610129576101286100d4565b5b80604052505050565b5f61013b610078565b90506101478282610101565b919050565b5f67ffffffffffffffff821115610166576101656100d4565b5b61016f826100c4565b9050602081019050919050565b8281835e5f83830152505050565b5f61019c6101978461014c565b610132565b9050828152602081018484840111156101b8576101b76100c0565b5b6101c384828561017c565b509392505050565b5f82601f8301126101df576101de6100bc565b5b81516101ef84826020860161018a565b91505092915050565b5f8115159050919050565b61020c816101f8565b8114610216575f5ffd5b50565b5f8151905061022781610203565b92915050565b5f5f5f5f6080858703121561024557610244610081565b5b5f610252878288016100a8565b945050602085015167ffffffffffffffff81111561027357610272610085565b5b61027f878288016101cb565b9350506040610290878288016100a8565b92505060606102a187828801610219565b91505092959194509250565b5f81519050919050565b7f4e487b71000000000000000000000000000000000000000000000000000000005f52602260045260245ffd5b5f60028204905060018216806102fb57607f821691505b60208210810361030e5761030d6102b7565b5b50919050565b5f819050815f5260205f209050919050565b5f6020601f8301049050919050565b5f82821b905092915050565b5f600883026103707fffffffffffffffffffffffffffffffffffffffffffffffffffffffffffffffff82610335565b61037a8683610335565b95508019841693508086168417925050509392505050565b5f819050919050565b5f6103b56103b06103ab84610089565b610392565b610089565b9050919050565b5f819050919050565b6103ce8361039b565b6103e26103da826103bc565b848454610341565b825550505050565b5f5f905090565b6103f96103ea565b6104048184846103c5565b505050565b5b818110156104275761041c5f826103f1565b60018101905061040a565b5050565b601f82111561046c5761043d81610314565b61044684610326565b81016020851015610455578190505b61046961046185610326565b830182610409565b50505b505050565b5f82821c905092915050565b5f61048c5f1984600802610471565b1980831691505092915050565b5f6104a4838361047d565b9150826002028217905092915050565b6104bd826102ad565b67ffffffffffffffff8111156104d6576104d56100d4565b5b6104e082546102e4565b6104eb82828561042b565b5f60209050601f83116001811461051c575f841561050a578287015190505b6105148582610499565b86555061057b565b601f19841661052a86610314565b5f5b828110156105515784890151825560018201915060208501945060208101905061052c565b8683101561056e578489015161056a601f89168261047d565b8355505b6001600288020188555050505b505050505050565b61027b806105905f395ff3fe608060405234801561000f575f5ffd5b5060043610610029575f3560e01c80636cc014de1461002d575b5f5ffd5b61003561004e565b604051610045949392919061019e565b60405180910390f35b5f805f01549080600101805461006390610215565b80601f016020809104026020016040519081016040528092919081815260200182805461008f90610215565b80156100da5780601f106100b1576101008083540402835291602001916100da565b820191905f5260205f20905b8154815290600101906020018083116100bd57829003601f168201915b505050505090806002015490806003015f9054906101000a900460ff16905084565b5f819050919050565b61010e816100fc565b82525050565b5f81519050919050565b5f82825260208201905092915050565b8281835e5f83830152505050565b5f601f19601f8301169050919050565b5f61015682610114565b610160818561011e565b935061017081856020860161012e565b6101798161013c565b840191505092915050565b5f8115159050919050565b61019881610184565b82525050565b5f6080820190506101b15f830187610105565b81810360208301526101c3818661014c565b90506101d26040830185610105565b6101df606083018461018f565b95945050505050565b7f4e487b71000000000000000000000000000000000000000000000000000000005f52602260045260245ffd5b5f600282049050600182168061022c57607f821691505b60208210810361023f5761023e6101e8565b5b5091905056fea2646970667358221220d413e21670914e46384162a1f444076a5ff528fe8c66d0c449276b207d3c872a64736f6c634300081f0033",
					"opcodes": "PUSH1 0x80 PUSH1 0x40 MSTORE CALLVALUE DUP1 ISZERO PUSH2 0xF JUMPI PUSH0 PUSH0 REVERT JUMPDEST POP PUSH1 0x40 MLOAD PUSH2 0x80B CODESIZE SUB DUP1 PUSH2 0x80B DUP4 CODECOPY DUP2 DUP2 ADD PUSH1 0x40 MSTORE DUP2 ADD SWAP1 PUSH2 0x31 SWAP2 SWAP1 PUSH2 0x22D JUMP JUMPDEST DUP4 PUSH0 PUSH0 ADD DUP2 SWAP1 SSTORE POP DUP3 PUSH0 PUSH1 0x1 ADD SWAP1 DUP2 PUSH2 0x4A SWAP2 SWAP1 PUSH2 0x4B4 JUMP JUMPDEST POP DUP2 PUSH0 PUSH1 0x2 ADD DUP2 SWAP1 SSTORE POP DUP1 PUSH0 PUSH1 0x3 ADD PUSH0 PUSH2 0x100 EXP DUP2 SLOAD DUP2 PUSH1 0xFF MUL NOT AND SWAP1 DUP4 ISZERO ISZERO MUL OR SWAP1 SSTORE POP POP POP POP POP PUSH2 0x583 JUMP JUMPDEST PUSH0 PUSH1 0x40 MLOAD SWAP1 POP SWAP1 JUMP JUMPDEST PUSH0 PUSH0 REVERT JUMPDEST PUSH0 PUSH0 REVERT JUMPDEST PUSH0 DUP2 SWAP1 POP SWAP2 SWAP1 POP JUMP JUMPDEST PUSH2 0x9B DUP2 PUSH2 0x89 JUMP JUMPDEST DUP2 EQ PUSH2 0xA5 JUMPI PUSH0 PUSH0 REVERT JUMPDEST POP JUMP JUMPDEST PUSH0 DUP2 MLOAD SWAP1 POP PUSH2 0xB6 DUP2 PUSH2 0x92 JUMP JUMPDEST SWAP3 SWAP2 POP POP JUMP JUMPDEST PUSH0 PUSH0 REVERT JUMPDEST PUSH0 PUSH0 REVERT JUMPDEST PUSH0 PUSH1 0x1F NOT PUSH1 0x1F DUP4 ADD AND SWAP1 POP SWAP2 SWAP1 POP JUMP JUMPDEST PUSH32 0x4E487B7100000000000000000000000000000000000000000000000000000000 PUSH0 MSTORE PUSH1 0x41 PUSH1 0x4 MSTORE PUSH1 0x24 PUSH0 REVERT JUMPDEST PUSH2 0x10A DUP3 PUSH2 0xC4 JUMP JUMPDEST DUP2 ADD DUP2 DUP2 LT PUSH8 0xFFFFFFFFFFFFFFFF DUP3 GT OR ISZERO PUSH2 0x129 JUMPI PUSH2 0x128 PUSH2 0xD4 JUMP JUMPDEST JUMPDEST DUP1 PUSH1 0x40 MSTORE POP POP POP JUMP JUMPDEST PUSH0 PUSH2 0x13B PUSH2 0x78 JUMP JUMPDEST SWAP1 POP PUSH2 0x147 DUP3 DUP3 PUSH2 0x101 JUMP JUMPDEST SWAP2 SWAP1 POP JUMP JUMPDEST PUSH0 PUSH8 0xFFFFFFFFFFFFFFFF DUP3 GT ISZERO PUSH2 0x166 JUMPI PUSH2 0x165 PUSH2 0xD4 JUMP JUMPDEST JUMPDEST PUSH2 0x16F DUP3 PUSH2 0xC4 JUMP JUMPDEST SWAP1 POP PUSH1 0x20 DUP2 ADD SWAP1 POP SWAP2 SWAP1 POP JUMP JUMPDEST DUP3 DUP2 DUP4 MCOPY PUSH0 DUP4 DUP4 ADD MSTORE POP POP POP JUMP JUMPDEST PUSH0 PUSH2 0x19C PUSH2 0x197 DUP5 PUSH2 0x14C JUMP JUMPDEST PUSH2 0x132 JUMP JUMPDEST SWAP1 POP DUP3 DUP2 MSTORE PUSH1 0x20 DUP2 ADD DUP5 DUP5 DUP5 ADD GT ISZERO PUSH2 0x1B8 JUMPI PUSH2 0x1B7 PUSH2 0xC0 JUMP JUMPDEST JUMPDEST PUSH2 0x1C3 DUP5 DUP3 DUP6 PUSH2 0x17C JUMP JUMPDEST POP SWAP4 SWAP3 POP POP POP JUMP JUMPDEST PUSH0 DUP3 PUSH1 0x1F DUP4 ADD SLT PUSH2 0x1DF JUMPI PUSH2 0x1DE PUSH2 0xBC JUMP JUMPDEST JUMPDEST DUP2 MLOAD PUSH2 0x1EF DUP5 DUP3 PUSH1 0x20 DUP7 ADD PUSH2 0x18A JUMP JUMPDEST SWAP2 POP POP SWAP3 SWAP2 POP POP JUMP JUMPDEST PUSH0 DUP2 ISZERO ISZERO SWAP1 POP SWAP2 SWAP1 POP JUMP JUMPDEST PUSH2 0x20C DUP2 PUSH2 0x1F8 JUMP JUMPDEST DUP2 EQ PUSH2 0x216 JUMPI PUSH0 PUSH0 REVERT JUMPDEST POP JUMP JUMPDEST PUSH0 DUP2 MLOAD SWAP1 POP PUSH2 0x227 DUP2 PUSH2 0x203 JUMP JUMPDEST SWAP3 SWAP2 POP POP JUMP JUMPDEST PUSH0 PUSH0 PUSH0 PUSH0 PUSH1 0x80 DUP6 DUP8 SUB SLT ISZERO PUSH2 0x245 JUMPI PUSH2 0x244 PUSH2 0x81 JUMP JUMPDEST JUMPDEST PUSH0 PUSH2 0x252 DUP8 DUP3 DUP9 ADD PUSH2 0xA8 JUMP JUMPDEST SWAP5 POP POP PUSH1 0x20 DUP6 ADD MLOAD PUSH8 0xFFFFFFFFFFFFFFFF DUP2 GT ISZERO PUSH2 0x273 JUMPI PUSH2 0x272 PUSH2 0x85 JUMP JUMPDEST JUMPDEST PUSH2 0x27F DUP8 DUP3 DUP9 ADD PUSH2 0x1CB JUMP JUMPDEST SWAP4 POP POP PUSH1 0x40 PUSH2 0x290 DUP8 DUP3 DUP9 ADD PUSH2 0xA8 JUMP JUMPDEST SWAP3 POP POP PUSH1 0x60 PUSH2 0x2A1 DUP8 DUP3 DUP9 ADD PUSH2 0x219 JUMP JUMPDEST SWAP2 POP POP SWAP3 SWAP6 SWAP2 SWAP5 POP SWAP3 POP JUMP JUMPDEST PUSH0 DUP2 MLOAD SWAP1 POP SWAP2 SWAP1 POP JUMP JUMPDEST PUSH32 0x4E487B7100000000000000000000000000000000000000000000000000000000 PUSH0 MSTORE PUSH1 0x22 PUSH1 0x4 MSTORE PUSH1 0x24 PUSH0 REVERT JUMPDEST PUSH0 PUSH1 0x2 DUP3 DIV SWAP1 POP PUSH1 0x1 DUP3 AND DUP1 PUSH2 0x2FB JUMPI PUSH1 0x7F DUP3 AND SWAP2 POP JUMPDEST PUSH1 0x20 DUP3 LT DUP2 SUB PUSH2 0x30E JUMPI PUSH2 0x30D PUSH2 0x2B7 JUMP JUMPDEST JUMPDEST POP SWAP2 SWAP1 POP JUMP JUMPDEST PUSH0 DUP2 SWAP1 POP DUP2 PUSH0 MSTORE PUSH1 0x20 PUSH0 KECCAK256 SWAP1 POP SWAP2 SWAP1 POP JUMP JUMPDEST PUSH0 PUSH1 0x20 PUSH1 0x1F DUP4 ADD DIV SWAP1 POP SWAP2 SWAP1 POP JUMP JUMPDEST PUSH0 DUP3 DUP3 SHL SWAP1 POP SWAP3 SWAP2 POP POP JUMP JUMPDEST PUSH0 PUSH1 0x8 DUP4 MUL PUSH2 0x370 PUSH32 0xFFFFFFFFFFFFFFFFFFFFFFFFFFFFFFFFFFFFFFFFFFFFFFFFFFFFFFFFFFFFFFFF DUP3 PUSH2 0x335 JUMP JUMPDEST PUSH2 0x37A DUP7 DUP4 PUSH2 0x335 JUMP JUMPDEST SWAP6 POP DUP1 NOT DUP5 AND SWAP4 POP DUP1 DUP7 AND DUP5 OR SWAP3 POP POP POP SWAP4 SWAP3 POP POP POP JUMP JUMPDEST PUSH0 DUP2 SWAP1 POP SWAP2 SWAP1 POP JUMP JUMPDEST PUSH0 PUSH2 0x3B5 PUSH2 0x3B0 PUSH2 0x3AB DUP5 PUSH2 0x89 JUMP JUMPDEST PUSH2 0x392 JUMP JUMPDEST PUSH2 0x89 JUMP JUMPDEST SWAP1 POP SWAP2 SWAP1 POP JUMP JUMPDEST PUSH0 DUP2 SWAP1 POP SWAP2 SWAP1 POP JUMP JUMPDEST PUSH2 0x3CE DUP4 PUSH2 0x39B JUMP JUMPDEST PUSH2 0x3E2 PUSH2 0x3DA DUP3 PUSH2 0x3BC JUMP JUMPDEST DUP5 DUP5 SLOAD PUSH2 0x341 JUMP JUMPDEST DUP3 SSTORE POP POP POP POP JUMP JUMPDEST PUSH0 PUSH0 SWAP1 POP SWAP1 JUMP JUMPDEST PUSH2 0x3F9 PUSH2 0x3EA JUMP JUMPDEST PUSH2 0x404 DUP2 DUP5 DUP5 PUSH2 0x3C5 JUMP JUMPDEST POP POP POP JUMP JUMPDEST JUMPDEST DUP2 DUP2 LT ISZERO PUSH2 0x427 JUMPI PUSH2 0x41C PUSH0 DUP3 PUSH2 0x3F1 JUMP JUMPDEST PUSH1 0x1 DUP2 ADD SWAP1 POP PUSH2 0x40A JUMP JUMPDEST POP POP JUMP JUMPDEST PUSH1 0x1F DUP3 GT ISZERO PUSH2 0x46C JUMPI PUSH2 0x43D DUP2 PUSH2 0x314 JUMP JUMPDEST PUSH2 0x446 DUP5 PUSH2 0x326 JUMP JUMPDEST DUP2 ADD PUSH1 0x20 DUP6 LT ISZERO PUSH2 0x455 JUMPI DUP2 SWAP1 POP JUMPDEST PUSH2 0x469 PUSH2 0x461 DUP6 PUSH2 0x326 JUMP JUMPDEST DUP4 ADD DUP3 PUSH2 0x409 JUMP JUMPDEST POP POP JUMPDEST POP POP POP JUMP JUMPDEST PUSH0 DUP3 DUP3 SHR SWAP1 POP SWAP3 SWAP2 POP POP JUMP JUMPDEST PUSH0 PUSH2 0x48C PUSH0 NOT DUP5 PUSH1 0x8 MUL PUSH2 0x471 JUMP JUMPDEST NOT DUP1 DUP4 AND SWAP2 POP POP SWAP3 SWAP2 POP POP JUMP JUMPDEST PUSH0 PUSH2 0x4A4 DUP4 DUP4 PUSH2 0x47D JUMP JUMPDEST SWAP2 POP DUP3 PUSH1 0x2 MUL DUP3 OR SWAP1 POP SWAP3 SWAP2 POP POP JUMP JUMPDEST PUSH2 0x4BD DUP3 PUSH2 0x2AD JUMP JUMPDEST PUSH8 0xFFFFFFFFFFFFFFFF DUP2 GT ISZERO PUSH2 0x4D6 JUMPI PUSH2 0x4D5 PUSH2 0xD4 JUMP JUMPDEST JUMPDEST PUSH2 0x4E0 DUP3 SLOAD PUSH2 0x2E4 JUMP JUMPDEST PUSH2 0x4EB DUP3 DUP3 DUP6 PUSH2 0x42B JUMP JUMPDEST PUSH0 PUSH1 0x20 SWAP1 POP PUSH1 0x1F DUP4 GT PUSH1 0x1 DUP2 EQ PUSH2 0x51C JUMPI PUSH0 DUP5 ISZERO PUSH2 0x50A JUMPI DUP3 DUP8 ADD MLOAD SWAP1 POP JUMPDEST PUSH2 0x514 DUP6 DUP3 PUSH2 0x499 JUMP JUMPDEST DUP7 SSTORE POP PUSH2 0x57B JUMP JUMPDEST PUSH1 0x1F NOT DUP5 AND PUSH2 0x52A DUP7 PUSH2 0x314 JUMP JUMPDEST PUSH0 JUMPDEST DUP3 DUP2 LT ISZERO PUSH2 0x551 JUMPI DUP5 DUP10 ADD MLOAD DUP3 SSTORE PUSH1 0x1 DUP3 ADD SWAP2 POP PUSH1 0x20 DUP6 ADD SWAP5 POP PUSH1 0x20 DUP2 ADD SWAP1 POP PUSH2 0x52C JUMP JUMPDEST DUP7 DUP4 LT ISZERO PUSH2 0x56E JUMPI DUP5 DUP10 ADD MLOAD PUSH2 0x56A PUSH1 0x1F DUP10 AND DUP3 PUSH2 0x47D JUMP JUMPDEST DUP4 SSTORE POP JUMPDEST PUSH1 0x1 PUSH1 0x2 DUP9 MUL ADD DUP9 SSTORE POP POP POP JUMPDEST POP POP POP POP POP POP JUMP JUMPDEST PUSH2 0x27B DUP1 PUSH2 0x590 PUSH0 CODECOPY PUSH0 RETURN INVALID PUSH1 0x80 PUSH1 0x40 MSTORE CALLVALUE DUP1 ISZERO PUSH2 0xF JUMPI PUSH0 PUSH0 REVERT JUMPDEST POP PUSH1 0x4 CALLDATASIZE LT PUSH2 0x29 JUMPI PUSH0 CALLDATALOAD PUSH1 0xE0 SHR DUP1 PUSH4 0x6CC014DE EQ PUSH2 0x2D JUMPI JUMPDEST PUSH0 PUSH0 REVERT JUMPDEST PUSH2 0x35 PUSH2 0x4E JUMP JUMPDEST PUSH1 0x40 MLOAD PUSH2 0x45 SWAP5 SWAP4 SWAP3 SWAP2 SWAP1 PUSH2 0x19E JUMP JUMPDEST PUSH1 0x40 MLOAD DUP1 SWAP2 SUB SWAP1 RETURN JUMPDEST PUSH0 DUP1 PUSH0 ADD SLOAD SWAP1 DUP1 PUSH1 0x1 ADD DUP1 SLOAD PUSH2 0x63 SWAP1 PUSH2 0x215 JUMP JUMPDEST DUP1 PUSH1 0x1F ADD PUSH1 0x20 DUP1 SWAP2 DIV MUL PUSH1 0x20 ADD PUSH1 0x40 MLOAD SWAP1 DUP2 ADD PUSH1 0x40 MSTORE DUP1 SWAP3 SWAP2 SWAP1 DUP2 DUP2 MSTORE PUSH1 0x20 ADD DUP3 DUP1 SLOAD PUSH2 0x8F SWAP1 PUSH2 0x215 JUMP JUMPDEST DUP1 ISZERO PUSH2 0xDA JUMPI DUP1 PUSH1 0x1F LT PUSH2 0xB1 JUMPI PUSH2 0x100 DUP1 DUP4 SLOAD DIV MUL DUP4 MSTORE SWAP2 PUSH1 0x20 ADD SWAP2 PUSH2 0xDA JUMP JUMPDEST DUP3 ADD SWAP2 SWAP1 PUSH0 MSTORE PUSH1 0x20 PUSH0 KECCAK256 SWAP1 JUMPDEST DUP2 SLOAD DUP2 MSTORE SWAP1 PUSH1 0x1 ADD SWAP1 PUSH1 0x20 ADD DUP1 DUP4 GT PUSH2 0xBD JUMPI DUP3 SWAP1 SUB PUSH1 0x1F AND DUP3 ADD SWAP2 JUMPDEST POP POP POP POP POP SWAP1 DUP1 PUSH1 0x2 ADD SLOAD SWAP1 DUP1 PUSH1 0x3 ADD PUSH0 SWAP1 SLOAD SWAP1 PUSH2 0x100 EXP SWAP1 DIV PUSH1 0xFF AND SWAP1 POP DUP5 JUMP JUMPDEST PUSH0 DUP2 SWAP1 POP SWAP2 SWAP1 POP JUMP JUMPDEST PUSH2 0x10E DUP2 PUSH2 0xFC JUMP JUMPDEST DUP3 MSTORE POP POP JUMP JUMPDEST PUSH0 DUP2 MLOAD SWAP1 POP SWAP2 SWAP1 POP JUMP JUMPDEST PUSH0 DUP3 DUP3 MSTORE PUSH1 0x20 DUP3 ADD SWAP1 POP SWAP3 SWAP2 POP POP JUMP JUMPDEST DUP3 DUP2 DUP4 MCOPY PUSH0 DUP4 DUP4 ADD MSTORE POP POP POP JUMP JUMPDEST PUSH0 PUSH1 0x1F NOT PUSH1 0x1F DUP4 ADD AND SWAP1 POP SWAP2 SWAP1 POP JUMP JUMPDEST PUSH0 PUSH2 0x156 DUP3 PUSH2 0x114 JUMP JUMPDEST PUSH2 0x160 DUP2 DUP6 PUSH2 0x11E JUMP JUMPDEST SWAP4 POP PUSH2 0x170 DUP2 DUP6 PUSH1 0x20 DUP7 ADD PUSH2 0x12E JUMP JUMPDEST PUSH2 0x179 DUP2 PUSH2 0x13C JUMP JUMPDEST DUP5 ADD SWAP2 POP POP SWAP3 SWAP2 POP POP JUMP JUMPDEST PUSH0 DUP2 ISZERO ISZERO SWAP1 POP SWAP2 SWAP1 POP JUMP JUMPDEST PUSH2 0x198 DUP2 PUSH2 0x184 JUMP JUMPDEST DUP3 MSTORE POP POP JUMP JUMPDEST PUSH0 PUSH1 0x80 DUP3 ADD SWAP1 POP PUSH2 0x1B1 PUSH0 DUP4 ADD DUP8 PUSH2 0x105 JUMP JUMPDEST DUP2 DUP2 SUB PUSH1 0x20 DUP4 ADD MSTORE PUSH2 0x1C3 DUP2 DUP7 PUSH2 0x14C JUMP JUMPDEST SWAP1 POP PUSH2 0x1D2 PUSH1 0x40 DUP4 ADD DUP6 PUSH2 0x105 JUMP JUMPDEST PUSH2 0x1DF PUSH1 0x60 DUP4 ADD DUP5 PUSH2 0x18F JUMP JUMPDEST SWAP6 SWAP5 POP POP POP POP POP JUMP JUMPDEST PUSH32 0x4E487B7100000000000000000000000000000000000000000000000000000000 PUSH0 MSTORE PUSH1 0x22 PUSH1 0x4 MSTORE PUSH1 0x24 PUSH0 REVERT JUMPDEST PUSH0 PUSH1 0x2 DUP3 DIV SWAP1 POP PUSH1 0x1 DUP3 AND DUP1 PUSH2 0x22C JUMPI PUSH1 0x7F DUP3 AND SWAP2 POP JUMPDEST PUSH1 0x20 DUP3 LT DUP2 SUB PUSH2 0x23F JUMPI PUSH2 0x23E PUSH2 0x1E8 JUMP JUMPDEST JUMPDEST POP SWAP2 SWAP1 POP JUMP INVALID LOG2 PUSH5 0x6970667358 0x22 SLT KECCAK256 0xD4 SGT 0xE2 AND PUSH17 0x914E46384162A1F444076A5FF528FE8C66 0xD0 0xC4 BLOBHASH 0x27 PUSH12 0x207D3C872A64736F6C634300 ADDMOD 0x1F STOP CALLER "
				},
				"gasEstimates": {
					"creation": {
						"codeDepositCost": "127000",
						"executionCost": "infinite",
						"totalCost": "infinite"
					},
					"external": {
						"s1()": "infinite"
					}
				},
				"methodIdentifiers": {
					"s1()": "6cc014de"
				}
			},
			"storageLayout": {
				"storage": [
					{
						"astId": 13,
						"contract": "student.sol:StudentRecords",
						"label": "s1",
						"offset": 0,
						"slot": "0",
						"type": "t_struct(studentrecord)10_storage"
					}
				],
				"types": {
					"t_bool": {
						"encoding": "inplace",
						"label": "bool",
						"numberOfBytes": "1"
					},
					"t_string_storage": {
						"encoding": "bytes",
						"label": "string",
						"numberOfBytes": "32"
					},
					"t_struct(studentrecord)10_storage": {
						"encoding": "inplace",
						"label": "struct StudentRecords.studentrecord",
						"members": [
							{
								"astId": 3,
								"contract": "student.sol:StudentRecords",
								"label": "roll",
								"offset": 0,
								"slot": "0",
								"type": "t_uint256"
							},
							{
								"astId": 5,
								"contract": "student.sol:StudentRecords",
								"label": "name",
								"offset": 0,
								"slot": "1",
								"type": "t_string_storage"
							},
							{
								"astId": 7,
								"contract": "student.sol:StudentRecords",
								"label": "marks",
								"offset": 0,
								"slot": "2",
								"type": "t_uint256"
							},
							{
								"astId": 9,
								"contract": "student.sol:StudentRecords",
								"label": "present",
								"offset": 0,
								"slot": "3",
								"type": "t_bool"
							}
						],
						"numberOfBytes": "128"
					},
					"t_uint256": {
						"encoding": "inplace",
						"label": "uint256",
						"numberOfBytes": "32"
					}
				}
			},
			"userdoc": {
				"kind": "user",
				"methods": {},
				"version": 1
			}
		}
	}
}