{
	"Smart_Contract.sol": {
		"StudentManagement": {
			"abi": [
				{
					"inputs": [],
					"stateMutability": "nonpayable",
					"type": "constructor"
				},
				{
					"inputs": [
						{
							"internalType": "uint256",
							"name": "_id",
							"type": "uint256"
						},
						{
							"internalType": "string",
							"name": "_name",
							"type": "string"
						},
						{
							"internalType": "uint256",
							"name": "_age",
							"type": "uint256"
						}
					],
					"name": "addStudent",
					"outputs": [],
					"stateMutability": "nonpayable",
					"type": "function"
				},
				{
					"inputs": [
						{
							"internalType": "uint256",
							"name": "_id",
							"type": "uint256"
						}
					],
					"name": "getStudent",
					"outputs": [
						{
							"internalType": "string",
							"name": "",
							"type": "string"
						},
						{
							"internalType": "uint256",
							"name": "",
							"type": "uint256"
						},
						{
							"internalType": "bool",
							"name": "",
							"type": "bool"
						}
					],
					"stateMutability": "view",
					"type": "function"
				},
				{
					"inputs": [],
					"name": "getTotalStudents",
					"outputs": [
						{
							"internalType": "uint256",
							"name": "",
							"type": "uint256"
						}
					],
					"stateMutability": "view",
					"type": "function"
				},
				{
					"inputs": [],
					"name": "owner",
					"outputs": [
						{
							"internalType": "address",
							"name": "",
							"type": "address"
						}
					],
					"stateMutability": "view",
					"type": "function"
				},
				{
					"inputs": [],
					"name": "register",
					"outputs": [],
					"stateMutability": "nonpayable",
					"type": "function"
				},
				{
					"inputs": [
						{
							"internalType": "address",
							"name": "",
							"type": "address"
						}
					],
					"name": "registered",
					"outputs": [
						{
							"internalType": "bool",
							"name": "",
							"type": "bool"
						}
					],
					"stateMutability": "view",
					"type": "function"
				},
				{
					"inputs": [
						{
							"internalType": "uint256",
							"name": "",
							"type": "uint256"
						}
					],
					"name": "studentById",
					"outputs": [
						{
							"internalType": "uint256",
							"name": "id",
							"type": "uint256"
						},
						{
							"internalType": "string",
							"name": "name",
							"type": "string"
						},
						{
							"internalType": "uint256",
							"name": "age",
							"type": "uint256"
						},
						{
							"internalType": "bool",
							"name": "isEnrolled",
							"type": "bool"
						}
					],
					"stateMutability": "view",
					"type": "function"
				},
				{
					"inputs": [
						{
							"internalType": "uint256",
							"name": "",
							"type": "uint256"
						}
					],
					"name": "students",
					"outputs": [
						{
							"internalType": "uint256",
							"name": "id",
							"type": "uint256"
						},
						{
							"internalType": "string",
							"name": "name",
							"type": "string"
						},
						{
							"internalType": "uint256",
							"name": "age",
							"type": "uint256"
						},
						{
							"internalType": "bool",
							"name": "isEnrolled",
							"type": "bool"
						}
					],
					"stateMutability": "view",
					"type": "function"
				},
				{
					"inputs": [],
					"name": "totalStudents",
					"outputs": [
						{
							"internalType": "uint256",
							"name": "",
							"type": "uint256"
						}
					],
					"stateMutability": "view",
					"type": "function"
				}
			],
			"devdoc": {
				"kind": "dev",
				"methods": {},
				"version": 1
			},
			"evm": {
				"assembly": "    /* \"Smart_Contract.sol\":60:1551  contract StudentManagement {... */\n  mstore(0x40, 0x80)\n    /* \"Smart_Contract.sol\":502:553  constructor() {... */\n  callvalue\n  dup1\n  iszero\n  tag_1\n  jumpi\n  revert(0x00, 0x00)\ntag_1:\n  pop\n    /* \"Smart_Contract.sol\":535:545  msg.sender */\n  caller\n    /* \"Smart_Contract.sol\":527:532  owner */\n  0x00\n  0x00\n    /* \"Smart_Contract.sol\":527:545  owner = msg.sender */\n  0x0100\n  exp\n  dup2\n  sload\n  dup2\n  0xffffffffffffffffffffffffffffffffffffffff\n  mul\n  not\n  and\n  swap1\n  dup4\n  0xffffffffffffffffffffffffffffffffffffffff\n  and\n  mul\n  or\n  swap1\n  sstore\n  pop\n    /* \"Smart_Contract.sol\":60:1551  contract StudentManagement {... */\n  dataSize(sub_0)\n  dup1\n  dataOffset(sub_0)\n  0x00\n  codecopy\n  0x00\n  return\nstop\n\nsub_0: assembly {\n        /* \"Smart_Contract.sol\":60:1551  contract StudentManagement {... */\n      mstore(0x40, 0x80)\n      callvalue\n      dup1\n      iszero\n      tag_1\n      jumpi\n      revert(0x00, 0x00)\n    tag_1:\n      pop\n      jumpi(tag_2, lt(calldatasize, 0x04))\n      shr(0xe0, calldataload(0x00))\n      dup1\n      0x642f9163\n      gt\n      tag_12\n      jumpi\n      dup1\n      0x642f9163\n      eq\n      tag_7\n      jumpi\n      dup1\n      0x8da5cb5b\n      eq\n      tag_8\n      jumpi\n      dup1\n      0x9852bf8e\n      eq\n      tag_9\n      jumpi\n      dup1\n      0xb2dd5c07\n      eq\n      tag_10\n      jumpi\n      dup1\n      0xc1bea1db\n      eq\n      tag_11\n      jumpi\n      jump(tag_2)\n    tag_12:\n      dup1\n      0x06ead22e\n      eq\n      tag_3\n      jumpi\n      dup1\n      0x1aa3a008\n      eq\n      tag_4\n      jumpi\n      dup1\n      0x1c9f7bb9\n      eq\n      tag_5\n      jumpi\n      dup1\n      0x28bcb51a\n      eq\n      tag_6\n      jumpi\n    tag_2:\n      revert(0x00, 0x00)\n        /* \"Smart_Contract.sol\":329:354  Student[] public students */\n    tag_3:\n      tag_13\n      0x04\n      dup1\n      calldatasize\n      sub\n      dup2\n      add\n      swap1\n      tag_14\n      swap2\n      swap1\n      tag_15\n      jump\t// in\n    tag_14:\n      tag_16\n      jump\t// in\n    tag_13:\n      mload(0x40)\n      tag_17\n      swap5\n      swap4\n      swap3\n      swap2\n      swap1\n      tag_18\n      jump\t// in\n    tag_17:\n      mload(0x40)\n      dup1\n      swap2\n      sub\n      swap1\n      return\n        /* \"Smart_Contract.sol\":1279:1419  function register() public {... */\n    tag_4:\n      tag_19\n      tag_20\n      jump\t// in\n    tag_19:\n      stop\n        /* \"Smart_Contract.sol\":380:423  mapping(uint => Student) public studentById */\n    tag_5:\n      tag_21\n      0x04\n      dup1\n      calldatasize\n      sub\n      dup2\n      add\n      swap1\n      tag_22\n      swap2\n      swap1\n      tag_15\n      jump\t// in\n    tag_22:\n      tag_23\n      jump\t// in\n    tag_21:\n      mload(0x40)\n      tag_24\n      swap5\n      swap4\n      swap3\n      swap2\n      swap1\n      tag_18\n      jump\t// in\n    tag_24:\n      mload(0x40)\n      dup1\n      swap2\n      sub\n      swap1\n      return\n        /* \"Smart_Contract.sol\":1454:1548  function getTotalStudents() public view returns (uint) {... */\n    tag_6:\n      tag_25\n      tag_26\n      jump\t// in\n    tag_25:\n      mload(0x40)\n      tag_27\n      swap2\n      swap1\n      tag_28\n      jump\t// in\n    tag_27:\n      mload(0x40)\n      dup1\n      swap2\n      sub\n      swap1\n      return\n        /* \"Smart_Contract.sol\":1056:1235  function getStudent(uint _id) public view returns (string memory, uint, bool) {... */\n    tag_7:\n      tag_29\n      0x04\n      dup1\n      calldatasize\n      sub\n      dup2\n      add\n      swap1\n      tag_30\n      swap2\n      swap1\n      tag_15\n      jump\t// in\n    tag_30:\n      tag_31\n      jump\t// in\n    tag_29:\n      mload(0x40)\n      tag_32\n      swap4\n      swap3\n      swap2\n      swap1\n      tag_33\n      jump\t// in\n    tag_32:\n      mload(0x40)\n      dup1\n      swap2\n      sub\n      swap1\n      return\n        /* \"Smart_Contract.sol\":121:141  address public owner */\n    tag_8:\n      tag_34\n      tag_35\n      jump\t// in\n    tag_34:\n      mload(0x40)\n      tag_36\n      swap2\n      swap1\n      tag_37\n      jump\t// in\n    tag_36:\n      mload(0x40)\n      dup1\n      swap2\n      sub\n      swap1\n      return\n        /* \"Smart_Contract.sol\":148:173  uint public totalStudents */\n    tag_9:\n      tag_38\n      tag_39\n      jump\t// in\n    tag_38:\n      mload(0x40)\n      tag_40\n      swap2\n      swap1\n      tag_28\n      jump\t// in\n    tag_40:\n      mload(0x40)\n      dup1\n      swap2\n      sub\n      swap1\n      return\n        /* \"Smart_Contract.sol\":430:472  mapping(address => bool) public registered */\n    tag_10:\n      tag_41\n      0x04\n      dup1\n      calldatasize\n      sub\n      dup2\n      add\n      swap1\n      tag_42\n      swap2\n      swap1\n      tag_43\n      jump\t// in\n    tag_42:\n      tag_44\n      jump\t// in\n    tag_41:\n      mload(0x40)\n      tag_45\n      swap2\n      swap1\n      tag_46\n      jump\t// in\n    tag_45:\n      mload(0x40)\n      dup1\n      swap2\n      sub\n      swap1\n      return\n        /* \"Smart_Contract.sol\":759:1022  function addStudent(uint _id, string memory _name, uint _age) public onlyOwner {... */\n    tag_11:\n      tag_47\n      0x04\n      dup1\n      calldatasize\n      sub\n      dup2\n      add\n      swap1\n      tag_48\n      swap2\n      swap1\n      tag_49\n      jump\t// in\n    tag_48:\n      tag_50\n      jump\t// in\n    tag_47:\n      stop\n        /* \"Smart_Contract.sol\":329:354  Student[] public students */\n    tag_16:\n      0x02\n      dup2\n      dup2\n      sload\n      dup2\n      lt\n      tag_51\n      jumpi\n      0x00\n      dup1\n      revert\n    tag_51:\n      swap1\n      0x00\n      mstore\n      keccak256(0x00, 0x20)\n      swap1\n      0x04\n      mul\n      add\n      0x00\n      swap2\n      pop\n      swap1\n      pop\n      dup1\n      0x00\n      add\n      sload\n      swap1\n      dup1\n      0x01\n      add\n      dup1\n      sload\n      tag_53\n      swap1\n      tag_54\n      jump\t// in\n    tag_53:\n      dup1\n      0x1f\n      add\n      0x20\n      dup1\n      swap2\n      div\n      mul\n      0x20\n      add\n      mload(0x40)\n      swap1\n      dup2\n      add\n      0x40\n      mstore\n      dup1\n      swap3\n      swap2\n      swap1\n      dup2\n      dup2\n      mstore\n      0x20\n      add\n      dup3\n      dup1\n      sload\n      tag_55\n      swap1\n      tag_54\n      jump\t// in\n    tag_55:\n      dup1\n      iszero\n      tag_56\n      jumpi\n      dup1\n      0x1f\n      lt\n      tag_57\n      jumpi\n      0x0100\n      dup1\n      dup4\n      sload\n      div\n      mul\n      dup4\n      mstore\n      swap2\n      0x20\n      add\n      swap2\n      jump(tag_56)\n    tag_57:\n      dup3\n      add\n      swap2\n      swap1\n      0x00\n      mstore\n      keccak256(0x00, 0x20)\n      swap1\n    tag_58:\n      dup2\n      sload\n      dup2\n      mstore\n      swap1\n      0x01\n      add\n      swap1\n      0x20\n      add\n      dup1\n      dup4\n      gt\n      tag_58\n      jumpi\n      dup3\n      swap1\n      sub\n      0x1f\n      and\n      dup3\n      add\n      swap2\n    tag_56:\n      pop\n      pop\n      pop\n      pop\n      pop\n      swap1\n      dup1\n      0x02\n      add\n      sload\n      swap1\n      dup1\n      0x03\n      add\n      0x00\n      swap1\n      sload\n      swap1\n      0x0100\n      exp\n      swap1\n      div\n      0xff\n      and\n      swap1\n      pop\n      dup5\n      jump\t// out\n        /* \"Smart_Contract.sol\":1279:1419  function register() public {... */\n    tag_20:\n        /* \"Smart_Contract.sol\":1326:1336  registered */\n      0x04\n        /* \"Smart_Contract.sol\":1326:1348  registered[msg.sender] */\n      0x00\n        /* \"Smart_Contract.sol\":1337:1347  msg.sender */\n      caller\n        /* \"Smart_Contract.sol\":1326:1348  registered[msg.sender] */\n      0xffffffffffffffffffffffffffffffffffffffff\n      and\n      0xffffffffffffffffffffffffffffffffffffffff\n      and\n      dup2\n      mstore\n      0x20\n      add\n      swap1\n      dup2\n      mstore\n      0x20\n      add\n      0x00\n      keccak256\n      0x00\n      swap1\n      sload\n      swap1\n      0x0100\n      exp\n      swap1\n      div\n      0xff\n      and\n        /* \"Smart_Contract.sol\":1325:1348  !registered[msg.sender] */\n      iszero\n        /* \"Smart_Contract.sol\":1317:1371  require(!registered[msg.sender], \"Already registered\") */\n      tag_60\n      jumpi\n      mload(0x40)\n      0x08c379a000000000000000000000000000000000000000000000000000000000\n      dup2\n      mstore\n      0x04\n      add\n      tag_61\n      swap1\n      tag_62\n      jump\t// in\n    tag_61:\n      mload(0x40)\n      dup1\n      swap2\n      sub\n      swap1\n      revert\n    tag_60:\n        /* \"Smart_Contract.sol\":1407:1411  true */\n      0x01\n        /* \"Smart_Contract.sol\":1382:1392  registered */\n      0x04\n        /* \"Smart_Contract.sol\":1382:1404  registered[msg.sender] */\n      0x00\n        /* \"Smart_Contract.sol\":1393:1403  msg.sender */\n      caller\n        /* \"Smart_Contract.sol\":1382:1404  registered[msg.sender] */\n      0xffffffffffffffffffffffffffffffffffffffff\n      and\n      0xffffffffffffffffffffffffffffffffffffffff\n      and\n      dup2\n      mstore\n      0x20\n      add\n      swap1\n      dup2\n      mstore\n      0x20\n      add\n      0x00\n      keccak256\n      0x00\n        /* \"Smart_Contract.sol\":1382:1411  registered[msg.sender] = true */\n      0x0100\n      exp\n      dup2\n      sload\n      dup2\n      0xff\n      mul\n      not\n      and\n      swap1\n      dup4\n      iszero\n      iszero\n      mul\n      or\n      swap1\n      sstore\n      pop\n        /* \"Smart_Contract.sol\":1279:1419  function register() public {... */\n      jump\t// out\n        /* \"Smart_Contract.sol\":380:423  mapping(uint => Student) public studentById */\n    tag_23:\n      mstore(0x20, 0x03)\n      dup1\n      0x00\n      mstore\n      keccak256(0x00, 0x40)\n      0x00\n      swap2\n      pop\n      swap1\n      pop\n      dup1\n      0x00\n      add\n      sload\n      swap1\n      dup1\n      0x01\n      add\n      dup1\n      sload\n      tag_63\n      swap1\n      tag_54\n      jump\t// in\n    tag_63:\n      dup1\n      0x1f\n      add\n      0x20\n      dup1\n      swap2\n      div\n      mul\n      0x20\n      add\n      mload(0x40)\n      swap1\n      dup2\n      add\n      0x40\n      mstore\n      dup1\n      swap3\n      swap2\n      swap1\n      dup2\n      dup2\n      mstore\n      0x20\n      add\n      dup3\n      dup1\n      sload\n      tag_64\n      swap1\n      tag_54\n      jump\t// in\n    tag_64:\n      dup1\n      iszero\n      tag_65\n      jumpi\n      dup1\n      0x1f\n      lt\n      tag_66\n      jumpi\n      0x0100\n      dup1\n      dup4\n      sload\n      div\n      mul\n      dup4\n      mstore\n      swap2\n      0x20\n      add\n      swap2\n      jump(tag_65)\n    tag_66:\n      dup3\n      add\n      swap2\n      swap1\n      0x00\n      mstore\n      keccak256(0x00, 0x20)\n      swap1\n    tag_67:\n      dup2\n      sload\n      dup2\n      mstore\n      swap1\n      0x01\n      add\n      swap1\n      0x20\n      add\n      dup1\n      dup4\n      gt\n      tag_67\n      jumpi\n      dup3\n      swap1\n      sub\n      0x1f\n      and\n      dup3\n      add\n      swap2\n    tag_65:\n      pop\n      pop\n      pop\n      pop\n      pop\n      swap1\n      dup1\n      0x02\n      add\n      sload\n      swap1\n      dup1\n      0x03\n      add\n      0x00\n      swap1\n      sload\n      swap1\n      0x0100\n      exp\n      swap1\n      div\n      0xff\n      and\n      swap1\n      pop\n      dup5\n      jump\t// out\n        /* \"Smart_Contract.sol\":1454:1548  function getTotalStudents() public view returns (uint) {... */\n    tag_26:\n        /* \"Smart_Contract.sol\":1503:1507  uint */\n      0x00\n        /* \"Smart_Contract.sol\":1527:1540  totalStudents */\n      sload(0x01)\n        /* \"Smart_Contract.sol\":1520:1540  return totalStudents */\n      swap1\n      pop\n        /* \"Smart_Contract.sol\":1454:1548  function getTotalStudents() public view returns (uint) {... */\n      swap1\n      jump\t// out\n        /* \"Smart_Contract.sol\":1056:1235  function getStudent(uint _id) public view returns (string memory, uint, bool) {... */\n    tag_31:\n        /* \"Smart_Contract.sol\":1107:1120  string memory */\n      0x60\n        /* \"Smart_Contract.sol\":1122:1126  uint */\n      0x00\n        /* \"Smart_Contract.sol\":1128:1132  bool */\n      0x00\n        /* \"Smart_Contract.sol\":1145:1161  Student memory s */\n      0x00\n        /* \"Smart_Contract.sol\":1164:1175  studentById */\n      0x03\n        /* \"Smart_Contract.sol\":1164:1180  studentById[_id] */\n      0x00\n        /* \"Smart_Contract.sol\":1176:1179  _id */\n      dup7\n        /* \"Smart_Contract.sol\":1164:1180  studentById[_id] */\n      dup2\n      mstore\n      0x20\n      add\n      swap1\n      dup2\n      mstore\n      0x20\n      add\n      0x00\n      keccak256\n        /* \"Smart_Contract.sol\":1145:1180  Student memory s = studentById[_id] */\n      mload(0x40)\n      dup1\n      0x80\n      add\n      0x40\n      mstore\n      swap1\n      dup2\n      0x00\n      dup3\n      add\n      sload\n      dup2\n      mstore\n      0x20\n      add\n      0x01\n      dup3\n      add\n      dup1\n      sload\n      tag_70\n      swap1\n      tag_54\n      jump\t// in\n    tag_70:\n      dup1\n      0x1f\n      add\n      0x20\n      dup1\n      swap2\n      div\n      mul\n      0x20\n      add\n      mload(0x40)\n      swap1\n      dup2\n      add\n      0x40\n      mstore\n      dup1\n      swap3\n      swap2\n      swap1\n      dup2\n      dup2\n      mstore\n      0x20\n      add\n      dup3\n      dup1\n      sload\n      tag_71\n      swap1\n      tag_54\n      jump\t// in\n    tag_71:\n      dup1\n      iszero\n      tag_72\n      jumpi\n      dup1\n      0x1f\n      lt\n      tag_73\n      jumpi\n      0x0100\n      dup1\n      dup4\n      sload\n      div\n      mul\n      dup4\n      mstore\n      swap2\n      0x20\n      add\n      swap2\n      jump(tag_72)\n    tag_73:\n      dup3\n      add\n      swap2\n      swap1\n      0x00\n      mstore\n      keccak256(0x00, 0x20)\n      swap1\n    tag_74:\n      dup2\n      sload\n      dup2\n      mstore\n      swap1\n      0x01\n      add\n      swap1\n      0x20\n      add\n      dup1\n      dup4\n      gt\n      tag_74\n      jumpi\n      dup3\n      swap1\n      sub\n      0x1f\n      and\n      dup3\n      add\n      swap2\n    tag_72:\n      pop\n      pop\n      pop\n      pop\n      pop\n      dup2\n      mstore\n      0x20\n      add\n      0x02\n      dup3\n      add\n      sload\n      dup2\n      mstore\n      0x20\n      add\n      0x03\n      dup3\n      add\n      0x00\n      swap1\n      sload\n      swap1\n      0x0100\n      exp\n      swap1\n      div\n      0xff\n      and\n      iszero\n      iszero\n      iszero\n      iszero\n      dup2\n      mstore\n      pop\n      pop\n      swap1\n      pop\n        /* \"Smart_Contract.sol\":1199:1200  s */\n      dup1\n        /* \"Smart_Contract.sol\":1199:1205  s.name */\n      0x20\n      add\n      mload\n        /* \"Smart_Contract.sol\":1207:1208  s */\n      dup2\n        /* \"Smart_Contract.sol\":1207:1212  s.age */\n      0x40\n      add\n      mload\n        /* \"Smart_Contract.sol\":1214:1215  s */\n      dup3\n        /* \"Smart_Contract.sol\":1214:1226  s.isEnrolled */\n      0x60\n      add\n      mload\n        /* \"Smart_Contract.sol\":1191:1227  return (s.name, s.age, s.isEnrolled) */\n      swap4\n      pop\n      swap4\n      pop\n      swap4\n      pop\n      pop\n        /* \"Smart_Contract.sol\":1056:1235  function getStudent(uint _id) public view returns (string memory, uint, bool) {... */\n      swap2\n      swap4\n      swap1\n      swap3\n      pop\n      jump\t// out\n        /* \"Smart_Contract.sol\":121:141  address public owner */\n    tag_35:\n      0x00\n      0x00\n      swap1\n      sload\n      swap1\n      0x0100\n      exp\n      swap1\n      div\n      0xffffffffffffffffffffffffffffffffffffffff\n      and\n      dup2\n      jump\t// out\n        /* \"Smart_Contract.sol\":148:173  uint public totalStudents */\n    tag_39:\n      sload(0x01)\n      dup2\n      jump\t// out\n        /* \"Smart_Contract.sol\":430:472  mapping(address => bool) public registered */\n    tag_44:\n      mstore(0x20, 0x04)\n      dup1\n      0x00\n      mstore\n      keccak256(0x00, 0x40)\n      0x00\n      swap2\n      pop\n      sload\n      swap1\n      0x0100\n      exp\n      swap1\n      div\n      0xff\n      and\n      dup2\n      jump\t// out\n        /* \"Smart_Contract.sol\":759:1022  function addStudent(uint _id, string memory _name, uint _age) public onlyOwner {... */\n    tag_50:\n        /* \"Smart_Contract.sol\":633:638  owner */\n      0x00\n      0x00\n      swap1\n      sload\n      swap1\n      0x0100\n      exp\n      swap1\n      div\n      0xffffffffffffffffffffffffffffffffffffffff\n      and\n        /* \"Smart_Contract.sol\":619:638  msg.sender == owner */\n      0xffffffffffffffffffffffffffffffffffffffff\n      and\n        /* \"Smart_Contract.sol\":619:629  msg.sender */\n      caller\n        /* \"Smart_Contract.sol\":619:638  msg.sender == owner */\n      0xffffffffffffffffffffffffffffffffffffffff\n      and\n      eq\n        /* \"Smart_Contract.sol\":611:677  require(msg.sender == owner, \"Only owner can perform this action\") */\n      tag_76\n      jumpi\n      mload(0x40)\n      0x08c379a000000000000000000000000000000000000000000000000000000000\n      dup2\n      mstore\n      0x04\n      add\n      tag_77\n      swap1\n      tag_78\n      jump\t// in\n    tag_77:\n      mload(0x40)\n      dup1\n      swap2\n      sub\n      swap1\n      revert\n    tag_76:\n        /* \"Smart_Contract.sol\":849:874  Student memory newStudent */\n      0x00\n        /* \"Smart_Contract.sol\":877:908  Student(_id, _name, _age, true) */\n      mload(0x40)\n      dup1\n      0x80\n      add\n      0x40\n      mstore\n      dup1\n        /* \"Smart_Contract.sol\":885:888  _id */\n      dup6\n        /* \"Smart_Contract.sol\":877:908  Student(_id, _name, _age, true) */\n      dup2\n      mstore\n      0x20\n      add\n        /* \"Smart_Contract.sol\":890:895  _name */\n      dup5\n        /* \"Smart_Contract.sol\":877:908  Student(_id, _name, _age, true) */\n      dup2\n      mstore\n      0x20\n      add\n        /* \"Smart_Contract.sol\":897:901  _age */\n      dup4\n        /* \"Smart_Contract.sol\":877:908  Student(_id, _name, _age, true) */\n      dup2\n      mstore\n      0x20\n      add\n        /* \"Smart_Contract.sol\":903:907  true */\n      0x01\n        /* \"Smart_Contract.sol\":877:908  Student(_id, _name, _age, true) */\n      iszero\n      iszero\n      dup2\n      mstore\n      pop\n        /* \"Smart_Contract.sol\":849:908  Student memory newStudent = Student(_id, _name, _age, true) */\n      swap1\n      pop\n        /* \"Smart_Contract.sol\":921:929  students */\n      0x02\n        /* \"Smart_Contract.sol\":935:945  newStudent */\n      dup2\n        /* \"Smart_Contract.sol\":921:946  students.push(newStudent) */\n      swap1\n      dup1\n      0x01\n      dup2\n      sload\n      add\n      dup1\n      dup3\n      sstore\n      dup1\n      swap2\n      pop\n      pop\n      0x01\n      swap1\n      sub\n      swap1\n      0x00\n      mstore\n      keccak256(0x00, 0x20)\n      swap1\n      0x04\n      mul\n      add\n      0x00\n      swap1\n      swap2\n      swap1\n      swap2\n      swap1\n      swap2\n      pop\n      0x00\n      dup3\n      add\n      mload\n      dup2\n      0x00\n      add\n      sstore\n      0x20\n      dup3\n      add\n      mload\n      dup2\n      0x01\n      add\n      swap1\n      dup2\n      tag_81\n      swap2\n      swap1\n      tag_82\n      jump\t// in\n    tag_81:\n      pop\n      0x40\n      dup3\n      add\n      mload\n      dup2\n      0x02\n      add\n      sstore\n      0x60\n      dup3\n      add\n      mload\n      dup2\n      0x03\n      add\n      exp(0x0100, 0x00)\n      dup2\n      sload\n      dup2\n      0xff\n      mul\n      not\n      and\n      swap1\n      dup4\n      iszero\n      iszero\n      mul\n      or\n      swap1\n      sstore\n      pop\n      pop\n      pop\n        /* \"Smart_Contract.sol\":976:986  newStudent */\n      dup1\n        /* \"Smart_Contract.sol\":957:968  studentById */\n      0x03\n        /* \"Smart_Contract.sol\":957:973  studentById[_id] */\n      0x00\n        /* \"Smart_Contract.sol\":969:972  _id */\n      dup7\n        /* \"Smart_Contract.sol\":957:973  studentById[_id] */\n      dup2\n      mstore\n      0x20\n      add\n      swap1\n      dup2\n      mstore\n      0x20\n      add\n      0x00\n      keccak256\n        /* \"Smart_Contract.sol\":957:986  studentById[_id] = newStudent */\n      0x00\n      dup3\n      add\n      mload\n      dup2\n      0x00\n      add\n      sstore\n      0x20\n      dup3\n      add\n      mload\n      dup2\n      0x01\n      add\n      swap1\n      dup2\n      tag_83\n      swap2\n      swap1\n      tag_82\n      jump\t// in\n    tag_83:\n      pop\n      0x40\n      dup3\n      add\n      mload\n      dup2\n      0x02\n      add\n      sstore\n      0x60\n      dup3\n      add\n      mload\n      dup2\n      0x03\n      add\n      exp(0x0100, 0x00)\n      dup2\n      sload\n      dup2\n      0xff\n      mul\n      not\n      and\n      swap1\n      dup4\n      iszero\n      iszero\n      mul\n      or\n      swap1\n      sstore\n      pop\n      swap1\n      pop\n      pop\n        /* \"Smart_Contract.sol\":999:1012  totalStudents */\n      0x01\n      0x00\n        /* \"Smart_Contract.sol\":999:1014  totalStudents++ */\n      dup2\n      sload\n      dup1\n      swap3\n      swap2\n      swap1\n      tag_84\n      swap1\n      tag_85\n      jump\t// in\n    tag_84:\n      swap2\n      swap1\n      pop\n      sstore\n      pop\n        /* \"Smart_Contract.sol\":838:1022  {... */\n      pop\n        /* \"Smart_Contract.sol\":759:1022  function addStudent(uint _id, string memory _name, uint _age) public onlyOwner {... */\n      pop\n      pop\n      pop\n      jump\t// out\n        /* \"#utility.yul\":7:82   */\n    tag_86:\n        /* \"#utility.yul\":40:46   */\n      0x00\n        /* \"#utility.yul\":73:75   */\n      0x40\n        /* \"#utility.yul\":67:76   */\n      mload\n        /* \"#utility.yul\":57:76   */\n      swap1\n      pop\n        /* \"#utility.yul\":7:82   */\n      swap1\n      jump\t// out\n        /* \"#utility.yul\":88:205   */\n    tag_87:\n        /* \"#utility.yul\":197:198   */\n      0x00\n        /* \"#utility.yul\":194:195   */\n      0x00\n        /* \"#utility.yul\":187:199   */\n      revert\n        /* \"#utility.yul\":211:328   */\n    tag_88:\n        /* \"#utility.yul\":320:321   */\n      0x00\n        /* \"#utility.yul\":317:318   */\n      0x00\n        /* \"#utility.yul\":310:322   */\n      revert\n        /* \"#utility.yul\":334:411   */\n    tag_89:\n        /* \"#utility.yul\":371:378   */\n      0x00\n        /* \"#utility.yul\":400:405   */\n      dup2\n        /* \"#utility.yul\":389:405   */\n      swap1\n      pop\n        /* \"#utility.yul\":334:411   */\n      swap2\n      swap1\n      pop\n      jump\t// out\n        /* \"#utility.yul\":417:539   */\n    tag_90:\n        /* \"#utility.yul\":490:514   */\n      tag_141\n        /* \"#utility.yul\":508:513   */\n      dup2\n        /* \"#utility.yul\":490:514   */\n      tag_89\n      jump\t// in\n    tag_141:\n        /* \"#utility.yul\":483:488   */\n      dup2\n        /* \"#utility.yul\":480:515   */\n      eq\n        /* \"#utility.yul\":470:533   */\n      tag_142\n      jumpi\n        /* \"#utility.yul\":529:530   */\n      0x00\n        /* \"#utility.yul\":526:527   */\n      0x00\n        /* \"#utility.yul\":519:531   */\n      revert\n        /* \"#utility.yul\":470:533   */\n    tag_142:\n        /* \"#utility.yul\":417:539   */\n      pop\n      jump\t// out\n        /* \"#utility.yul\":545:684   */\n    tag_91:\n        /* \"#utility.yul\":591:596   */\n      0x00\n        /* \"#utility.yul\":629:635   */\n      dup2\n        /* \"#utility.yul\":616:636   */\n      calldataload\n        /* \"#utility.yul\":607:636   */\n      swap1\n      pop\n        /* \"#utility.yul\":645:678   */\n      tag_144\n        /* \"#utility.yul\":672:677   */\n      dup2\n        /* \"#utility.yul\":645:678   */\n      tag_90\n      jump\t// in\n    tag_144:\n        /* \"#utility.yul\":545:684   */\n      swap3\n      swap2\n      pop\n      pop\n      jump\t// out\n        /* \"#utility.yul\":690:1019   */\n    tag_15:\n        /* \"#utility.yul\":749:755   */\n      0x00\n        /* \"#utility.yul\":798:800   */\n      0x20\n        /* \"#utility.yul\":786:795   */\n      dup3\n        /* \"#utility.yul\":777:784   */\n      dup5\n        /* \"#utility.yul\":773:796   */\n      sub\n        /* \"#utility.yul\":769:801   */\n      slt\n        /* \"#utility.yul\":766:885   */\n      iszero\n      tag_146\n      jumpi\n        /* \"#utility.yul\":804:883   */\n      tag_147\n      tag_87\n      jump\t// in\n    tag_147:\n        /* \"#utility.yul\":766:885   */\n    tag_146:\n        /* \"#utility.yul\":924:925   */\n      0x00\n        /* \"#utility.yul\":949:1002   */\n      tag_148\n        /* \"#utility.yul\":994:1001   */\n      dup5\n        /* \"#utility.yul\":985:991   */\n      dup3\n        /* \"#utility.yul\":974:983   */\n      dup6\n        /* \"#utility.yul\":970:992   */\n      add\n        /* \"#utility.yul\":949:1002   */\n      tag_91\n      jump\t// in\n    tag_148:\n        /* \"#utility.yul\":939:1002   */\n      swap2\n      pop\n        /* \"#utility.yul\":895:1012   */\n      pop\n        /* \"#utility.yul\":690:1019   */\n      swap3\n      swap2\n      pop\n      pop\n      jump\t// out\n        /* \"#utility.yul\":1025:1143   */\n    tag_92:\n        /* \"#utility.yul\":1112:1136   */\n      tag_150\n        /* \"#utility.yul\":1130:1135   */\n      dup2\n        /* \"#utility.yul\":1112:1136   */\n      tag_89\n      jump\t// in\n    tag_150:\n        /* \"#utility.yul\":1107:1110   */\n      dup3\n        /* \"#utility.yul\":1100:1137   */\n      mstore\n        /* \"#utility.yul\":1025:1143   */\n      pop\n      pop\n      jump\t// out\n        /* \"#utility.yul\":1149:1248   */\n    tag_93:\n        /* \"#utility.yul\":1201:1207   */\n      0x00\n        /* \"#utility.yul\":1235:1240   */\n      dup2\n        /* \"#utility.yul\":1229:1241   */\n      mload\n        /* \"#utility.yul\":1219:1241   */\n      swap1\n      pop\n        /* \"#utility.yul\":1149:1248   */\n      swap2\n      swap1\n      pop\n      jump\t// out\n        /* \"#utility.yul\":1254:1423   */\n    tag_94:\n        /* \"#utility.yul\":1338:1349   */\n      0x00\n        /* \"#utility.yul\":1372:1378   */\n      dup3\n        /* \"#utility.yul\":1367:1370   */\n      dup3\n        /* \"#utility.yul\":1360:1379   */\n      mstore\n        /* \"#utility.yul\":1412:1416   */\n      0x20\n        /* \"#utility.yul\":1407:1410   */\n      dup3\n        /* \"#utility.yul\":1403:1417   */\n      add\n        /* \"#utility.yul\":1388:1417   */\n      swap1\n      pop\n        /* \"#utility.yul\":1254:1423   */\n      swap3\n      swap2\n      pop\n      pop\n      jump\t// out\n        /* \"#utility.yul\":1429:1568   */\n    tag_95:\n        /* \"#utility.yul\":1518:1524   */\n      dup3\n        /* \"#utility.yul\":1513:1516   */\n      dup2\n        /* \"#utility.yul\":1508:1511   */\n      dup4\n        /* \"#utility.yul\":1502:1525   */\n      mcopy\n        /* \"#utility.yul\":1559:1560   */\n      0x00\n        /* \"#utility.yul\":1550:1556   */\n      dup4\n        /* \"#utility.yul\":1545:1548   */\n      dup4\n        /* \"#utility.yul\":1541:1557   */\n      add\n        /* \"#utility.yul\":1534:1561   */\n      mstore\n        /* \"#utility.yul\":1429:1568   */\n      pop\n      pop\n      pop\n      jump\t// out\n        /* \"#utility.yul\":1574:1676   */\n    tag_96:\n        /* \"#utility.yul\":1615:1621   */\n      0x00\n        /* \"#utility.yul\":1666:1668   */\n      0x1f\n        /* \"#utility.yul\":1662:1669   */\n      not\n        /* \"#utility.yul\":1657:1659   */\n      0x1f\n        /* \"#utility.yul\":1650:1655   */\n      dup4\n        /* \"#utility.yul\":1646:1660   */\n      add\n        /* \"#utility.yul\":1642:1670   */\n      and\n        /* \"#utility.yul\":1632:1670   */\n      swap1\n      pop\n        /* \"#utility.yul\":1574:1676   */\n      swap2\n      swap1\n      pop\n      jump\t// out\n        /* \"#utility.yul\":1682:2059   */\n    tag_97:\n        /* \"#utility.yul\":1770:1773   */\n      0x00\n        /* \"#utility.yul\":1798:1837   */\n      tag_156\n        /* \"#utility.yul\":1831:1836   */\n      dup3\n        /* \"#utility.yul\":1798:1837   */\n      tag_93\n      jump\t// in\n    tag_156:\n        /* \"#utility.yul\":1853:1924   */\n      tag_157\n        /* \"#utility.yul\":1917:1923   */\n      dup2\n        /* \"#utility.yul\":1912:1915   */\n      dup6\n        /* \"#utility.yul\":1853:1924   */\n      tag_94\n      jump\t// in\n    tag_157:\n        /* \"#utility.yul\":1846:1924   */\n      swap4\n      pop\n        /* \"#utility.yul\":1933:1998   */\n      tag_158\n        /* \"#utility.yul\":1991:1997   */\n      dup2\n        /* \"#utility.yul\":1986:1989   */\n      dup6\n        /* \"#utility.yul\":1979:1983   */\n      0x20\n        /* \"#utility.yul\":1972:1977   */\n      dup7\n        /* \"#utility.yul\":1968:1984   */\n      add\n        /* \"#utility.yul\":1933:1998   */\n      tag_95\n      jump\t// in\n    tag_158:\n        /* \"#utility.yul\":2023:2052   */\n      tag_159\n        /* \"#utility.yul\":2045:2051   */\n      dup2\n        /* \"#utility.yul\":2023:2052   */\n      tag_96\n      jump\t// in\n    tag_159:\n        /* \"#utility.yul\":2018:2021   */\n      dup5\n        /* \"#utility.yul\":2014:2053   */\n      add\n        /* \"#utility.yul\":2007:2053   */\n      swap2\n      pop\n        /* \"#utility.yul\":1774:2059   */\n      pop\n        /* \"#utility.yul\":1682:2059   */\n      swap3\n      swap2\n      pop\n      pop\n      jump\t// out\n        /* \"#utility.yul\":2065:2155   */\n    tag_98:\n        /* \"#utility.yul\":2099:2106   */\n      0x00\n        /* \"#utility.yul\":2142:2147   */\n      dup2\n        /* \"#utility.yul\":2135:2148   */\n      iszero\n        /* \"#utility.yul\":2128:2149   */\n      iszero\n        /* \"#utility.yul\":2117:2149   */\n      swap1\n      pop\n        /* \"#utility.yul\":2065:2155   */\n      swap2\n      swap1\n      pop\n      jump\t// out\n        /* \"#utility.yul\":2161:2270   */\n    tag_99:\n        /* \"#utility.yul\":2242:2263   */\n      tag_162\n        /* \"#utility.yul\":2257:2262   */\n      dup2\n        /* \"#utility.yul\":2242:2263   */\n      tag_98\n      jump\t// in\n    tag_162:\n        /* \"#utility.yul\":2237:2240   */\n      dup3\n        /* \"#utility.yul\":2230:2264   */\n      mstore\n        /* \"#utility.yul\":2161:2270   */\n      pop\n      pop\n      jump\t// out\n        /* \"#utility.yul\":2276:2908   */\n    tag_18:\n        /* \"#utility.yul\":2467:2471   */\n      0x00\n        /* \"#utility.yul\":2505:2508   */\n      0x80\n        /* \"#utility.yul\":2494:2503   */\n      dup3\n        /* \"#utility.yul\":2490:2509   */\n      add\n        /* \"#utility.yul\":2482:2509   */\n      swap1\n      pop\n        /* \"#utility.yul\":2519:2590   */\n      tag_164\n        /* \"#utility.yul\":2587:2588   */\n      0x00\n        /* \"#utility.yul\":2576:2585   */\n      dup4\n        /* \"#utility.yul\":2572:2589   */\n      add\n        /* \"#utility.yul\":2563:2569   */\n      dup8\n        /* \"#utility.yul\":2519:2590   */\n      tag_92\n      jump\t// in\n    tag_164:\n        /* \"#utility.yul\":2637:2646   */\n      dup2\n        /* \"#utility.yul\":2631:2635   */\n      dup2\n        /* \"#utility.yul\":2627:2647   */\n      sub\n        /* \"#utility.yul\":2622:2624   */\n      0x20\n        /* \"#utility.yul\":2611:2620   */\n      dup4\n        /* \"#utility.yul\":2607:2625   */\n      add\n        /* \"#utility.yul\":2600:2648   */\n      mstore\n        /* \"#utility.yul\":2665:2743   */\n      tag_165\n        /* \"#utility.yul\":2738:2742   */\n      dup2\n        /* \"#utility.yul\":2729:2735   */\n      dup7\n        /* \"#utility.yul\":2665:2743   */\n      tag_97\n      jump\t// in\n    tag_165:\n        /* \"#utility.yul\":2657:2743   */\n      swap1\n      pop\n        /* \"#utility.yul\":2753:2825   */\n      tag_166\n        /* \"#utility.yul\":2821:2823   */\n      0x40\n        /* \"#utility.yul\":2810:2819   */\n      dup4\n        /* \"#utility.yul\":2806:2824   */\n      add\n        /* \"#utility.yul\":2797:2803   */\n      dup6\n        /* \"#utility.yul\":2753:2825   */\n      tag_92\n      jump\t// in\n    tag_166:\n        /* \"#utility.yul\":2835:2901   */\n      tag_167\n        /* \"#utility.yul\":2897:2899   */\n      0x60\n        /* \"#utility.yul\":2886:2895   */\n      dup4\n        /* \"#utility.yul\":2882:2900   */\n      add\n        /* \"#utility.yul\":2873:2879   */\n      dup5\n        /* \"#utility.yul\":2835:2901   */\n      tag_99\n      jump\t// in\n    tag_167:\n        /* \"#utility.yul\":2276:2908   */\n      swap6\n      swap5\n      pop\n      pop\n      pop\n      pop\n      pop\n      jump\t// out\n        /* \"#utility.yul\":2914:3136   */\n    tag_28:\n        /* \"#utility.yul\":3007:3011   */\n      0x00\n        /* \"#utility.yul\":3045:3047   */\n      0x20\n        /* \"#utility.yul\":3034:3043   */\n      dup3\n        /* \"#utility.yul\":3030:3048   */\n      add\n        /* \"#utility.yul\":3022:3048   */\n      swap1\n      pop\n        /* \"#utility.yul\":3058:3129   */\n      tag_169\n        /* \"#utility.yul\":3126:3127   */\n      0x00\n        /* \"#utility.yul\":3115:3124   */\n      dup4\n        /* \"#utility.yul\":3111:3128   */\n      add\n        /* \"#utility.yul\":3102:3108   */\n      dup5\n        /* \"#utility.yul\":3058:3129   */\n      tag_92\n      jump\t// in\n    tag_169:\n        /* \"#utility.yul\":2914:3136   */\n      swap3\n      swap2\n      pop\n      pop\n      jump\t// out\n        /* \"#utility.yul\":3142:3663   */\n    tag_33:\n        /* \"#utility.yul\":3305:3309   */\n      0x00\n        /* \"#utility.yul\":3343:3345   */\n      0x60\n        /* \"#utility.yul\":3332:3341   */\n      dup3\n        /* \"#utility.yul\":3328:3346   */\n      add\n        /* \"#utility.yul\":3320:3346   */\n      swap1\n      pop\n        /* \"#utility.yul\":3392:3401   */\n      dup2\n        /* \"#utility.yul\":3386:3390   */\n      dup2\n        /* \"#utility.yul\":3382:3402   */\n      sub\n        /* \"#utility.yul\":3378:3379   */\n      0x00\n        /* \"#utility.yul\":3367:3376   */\n      dup4\n        /* \"#utility.yul\":3363:3380   */\n      add\n        /* \"#utility.yul\":3356:3403   */\n      mstore\n        /* \"#utility.yul\":3420:3498   */\n      tag_171\n        /* \"#utility.yul\":3493:3497   */\n      dup2\n        /* \"#utility.yul\":3484:3490   */\n      dup7\n        /* \"#utility.yul\":3420:3498   */\n      tag_97\n      jump\t// in\n    tag_171:\n        /* \"#utility.yul\":3412:3498   */\n      swap1\n      pop\n        /* \"#utility.yul\":3508:3580   */\n      tag_172\n        /* \"#utility.yul\":3576:3578   */\n      0x20\n        /* \"#utility.yul\":3565:3574   */\n      dup4\n        /* \"#utility.yul\":3561:3579   */\n      add\n        /* \"#utility.yul\":3552:3558   */\n      dup6\n        /* \"#utility.yul\":3508:3580   */\n      tag_92\n      jump\t// in\n    tag_172:\n        /* \"#utility.yul\":3590:3656   */\n      tag_173\n        /* \"#utility.yul\":3652:3654   */\n      0x40\n        /* \"#utility.yul\":3641:3650   */\n      dup4\n        /* \"#utility.yul\":3637:3655   */\n      add\n        /* \"#utility.yul\":3628:3634   */\n      dup5\n        /* \"#utility.yul\":3590:3656   */\n      tag_99\n      jump\t// in\n    tag_173:\n        /* \"#utility.yul\":3142:3663   */\n      swap5\n      swap4\n      pop\n      pop\n      pop\n      pop\n      jump\t// out\n        /* \"#utility.yul\":3669:3795   */\n    tag_100:\n        /* \"#utility.yul\":3706:3713   */\n      0x00\n        /* \"#utility.yul\":3746:3788   */\n      0xffffffffffffffffffffffffffffffffffffffff\n        /* \"#utility.yul\":3739:3744   */\n      dup3\n        /* \"#utility.yul\":3735:3789   */\n      and\n        /* \"#utility.yul\":3724:3789   */\n      swap1\n      pop\n        /* \"#utility.yul\":3669:3795   */\n      swap2\n      swap1\n      pop\n      jump\t// out\n        /* \"#utility.yul\":3801:3897   */\n    tag_101:\n        /* \"#utility.yul\":3838:3845   */\n      0x00\n        /* \"#utility.yul\":3867:3891   */\n      tag_176\n        /* \"#utility.yul\":3885:3890   */\n      dup3\n        /* \"#utility.yul\":3867:3891   */\n      tag_100\n      jump\t// in\n    tag_176:\n        /* \"#utility.yul\":3856:3891   */\n      swap1\n      pop\n        /* \"#utility.yul\":3801:3897   */\n      swap2\n      swap1\n      pop\n      jump\t// out\n        /* \"#utility.yul\":3903:4021   */\n    tag_102:\n        /* \"#utility.yul\":3990:4014   */\n      tag_178\n        /* \"#utility.yul\":4008:4013   */\n      dup2\n        /* \"#utility.yul\":3990:4014   */\n      tag_101\n      jump\t// in\n    tag_178:\n        /* \"#utility.yul\":3985:3988   */\n      dup3\n        /* \"#utility.yul\":3978:4015   */\n      mstore\n        /* \"#utility.yul\":3903:4021   */\n      pop\n      pop\n      jump\t// out\n        /* \"#utility.yul\":4027:4249   */\n    tag_37:\n        /* \"#utility.yul\":4120:4124   */\n      0x00\n        /* \"#utility.yul\":4158:4160   */\n      0x20\n        /* \"#utility.yul\":4147:4156   */\n      dup3\n        /* \"#utility.yul\":4143:4161   */\n      add\n        /* \"#utility.yul\":4135:4161   */\n      swap1\n      pop\n        /* \"#utility.yul\":4171:4242   */\n      tag_180\n        /* \"#utility.yul\":4239:4240   */\n      0x00\n        /* \"#utility.yul\":4228:4237   */\n      dup4\n        /* \"#utility.yul\":4224:4241   */\n      add\n        /* \"#utility.yul\":4215:4221   */\n      dup5\n        /* \"#utility.yul\":4171:4242   */\n      tag_102\n      jump\t// in\n    tag_180:\n        /* \"#utility.yul\":4027:4249   */\n      swap3\n      swap2\n      pop\n      pop\n      jump\t// out\n        /* \"#utility.yul\":4255:4377   */\n    tag_103:\n        /* \"#utility.yul\":4328:4352   */\n      tag_182\n        /* \"#utility.yul\":4346:4351   */\n      dup2\n        /* \"#utility.yul\":4328:4352   */\n      tag_101\n      jump\t// in\n    tag_182:\n        /* \"#utility.yul\":4321:4326   */\n      dup2\n        /* \"#utility.yul\":4318:4353   */\n      eq\n        /* \"#utility.yul\":4308:4371   */\n      tag_183\n      jumpi\n        /* \"#utility.yul\":4367:4368   */\n      0x00\n        /* \"#utility.yul\":4364:4365   */\n      0x00\n        /* \"#utility.yul\":4357:4369   */\n      revert\n        /* \"#utility.yul\":4308:4371   */\n    tag_183:\n        /* \"#utility.yul\":4255:4377   */\n      pop\n      jump\t// out\n        /* \"#utility.yul\":4383:4522   */\n    tag_104:\n        /* \"#utility.yul\":4429:4434   */\n      0x00\n        /* \"#utility.yul\":4467:4473   */\n      dup2\n        /* \"#utility.yul\":4454:4474   */\n      calldataload\n        /* \"#utility.yul\":4445:4474   */\n      swap1\n      pop\n        /* \"#utility.yul\":4483:4516   */\n      tag_185\n        /* \"#utility.yul\":4510:4515   */\n      dup2\n        /* \"#utility.yul\":4483:4516   */\n      tag_103\n      jump\t// in\n    tag_185:\n        /* \"#utility.yul\":4383:4522   */\n      swap3\n      swap2\n      pop\n      pop\n      jump\t// out\n        /* \"#utility.yul\":4528:4857   */\n    tag_43:\n        /* \"#utility.yul\":4587:4593   */\n      0x00\n        /* \"#utility.yul\":4636:4638   */\n      0x20\n        /* \"#utility.yul\":4624:4633   */\n      dup3\n        /* \"#utility.yul\":4615:4622   */\n      dup5\n        /* \"#utility.yul\":4611:4634   */\n      sub\n        /* \"#utility.yul\":4607:4639   */\n      slt\n        /* \"#utility.yul\":4604:4723   */\n      iszero\n      tag_187\n      jumpi\n        /* \"#utility.yul\":4642:4721   */\n      tag_188\n      tag_87\n      jump\t// in\n    tag_188:\n        /* \"#utility.yul\":4604:4723   */\n    tag_187:\n        /* \"#utility.yul\":4762:4763   */\n      0x00\n        /* \"#utility.yul\":4787:4840   */\n      tag_189\n        /* \"#utility.yul\":4832:4839   */\n      dup5\n        /* \"#utility.yul\":4823:4829   */\n      dup3\n        /* \"#utility.yul\":4812:4821   */\n      dup6\n        /* \"#utility.yul\":4808:4830   */\n      add\n        /* \"#utility.yul\":4787:4840   */\n      tag_104\n      jump\t// in\n    tag_189:\n        /* \"#utility.yul\":4777:4840   */\n      swap2\n      pop\n        /* \"#utility.yul\":4733:4850   */\n      pop\n        /* \"#utility.yul\":4528:4857   */\n      swap3\n      swap2\n      pop\n      pop\n      jump\t// out\n        /* \"#utility.yul\":4863:5073   */\n    tag_46:\n        /* \"#utility.yul\":4950:4954   */\n      0x00\n        /* \"#utility.yul\":4988:4990   */\n      0x20\n        /* \"#utility.yul\":4977:4986   */\n      dup3\n        /* \"#utility.yul\":4973:4991   */\n      add\n        /* \"#utility.yul\":4965:4991   */\n      swap1\n      pop\n        /* \"#utility.yul\":5001:5066   */\n      tag_191\n        /* \"#utility.yul\":5063:5064   */\n      0x00\n        /* \"#utility.yul\":5052:5061   */\n      dup4\n        /* \"#utility.yul\":5048:5065   */\n      add\n        /* \"#utility.yul\":5039:5045   */\n      dup5\n        /* \"#utility.yul\":5001:5066   */\n      tag_99\n      jump\t// in\n    tag_191:\n        /* \"#utility.yul\":4863:5073   */\n      swap3\n      swap2\n      pop\n      pop\n      jump\t// out\n        /* \"#utility.yul\":5079:5196   */\n    tag_105:\n        /* \"#utility.yul\":5188:5189   */\n      0x00\n        /* \"#utility.yul\":5185:5186   */\n      0x00\n        /* \"#utility.yul\":5178:5190   */\n      revert\n        /* \"#utility.yul\":5202:5319   */\n    tag_106:\n        /* \"#utility.yul\":5311:5312   */\n      0x00\n        /* \"#utility.yul\":5308:5309   */\n      0x00\n        /* \"#utility.yul\":5301:5313   */\n      revert\n        /* \"#utility.yul\":5325:5505   */\n    tag_107:\n        /* \"#utility.yul\":5373:5450   */\n      0x4e487b7100000000000000000000000000000000000000000000000000000000\n        /* \"#utility.yul\":5370:5371   */\n      0x00\n        /* \"#utility.yul\":5363:5451   */\n      mstore\n        /* \"#utility.yul\":5470:5474   */\n      0x41\n        /* \"#utility.yul\":5467:5468   */\n      0x04\n        /* \"#utility.yul\":5460:5475   */\n      mstore\n        /* \"#utility.yul\":5494:5498   */\n      0x24\n        /* \"#utility.yul\":5491:5492   */\n      0x00\n        /* \"#utility.yul\":5484:5499   */\n      revert\n        /* \"#utility.yul\":5511:5792   */\n    tag_108:\n        /* \"#utility.yul\":5594:5621   */\n      tag_196\n        /* \"#utility.yul\":5616:5620   */\n      dup3\n        /* \"#utility.yul\":5594:5621   */\n      tag_96\n      jump\t// in\n    tag_196:\n        /* \"#utility.yul\":5586:5592   */\n      dup2\n        /* \"#utility.yul\":5582:5622   */\n      add\n        /* \"#utility.yul\":5724:5730   */\n      dup2\n        /* \"#utility.yul\":5712:5722   */\n      dup2\n        /* \"#utility.yul\":5709:5731   */\n      lt\n        /* \"#utility.yul\":5688:5706   */\n      0xffffffffffffffff\n        /* \"#utility.yul\":5676:5686   */\n      dup3\n        /* \"#utility.yul\":5673:5707   */\n      gt\n        /* \"#utility.yul\":5670:5732   */\n      or\n        /* \"#utility.yul\":5667:5755   */\n      iszero\n      tag_197\n      jumpi\n        /* \"#utility.yul\":5735:5753   */\n      tag_198\n      tag_107\n      jump\t// in\n    tag_198:\n        /* \"#utility.yul\":5667:5755   */\n    tag_197:\n        /* \"#utility.yul\":5775:5785   */\n      dup1\n        /* \"#utility.yul\":5771:5773   */\n      0x40\n        /* \"#utility.yul\":5764:5786   */\n      mstore\n        /* \"#utility.yul\":5554:5792   */\n      pop\n        /* \"#utility.yul\":5511:5792   */\n      pop\n      pop\n      jump\t// out\n        /* \"#utility.yul\":5798:5927   */\n    tag_109:\n        /* \"#utility.yul\":5832:5838   */\n      0x00\n        /* \"#utility.yul\":5859:5879   */\n      tag_200\n      tag_86\n      jump\t// in\n    tag_200:\n        /* \"#utility.yul\":5849:5879   */\n      swap1\n      pop\n        /* \"#utility.yul\":5888:5921   */\n      tag_201\n        /* \"#utility.yul\":5916:5920   */\n      dup3\n        /* \"#utility.yul\":5908:5914   */\n      dup3\n        /* \"#utility.yul\":5888:5921   */\n      tag_108\n      jump\t// in\n    tag_201:\n        /* \"#utility.yul\":5798:5927   */\n      swap2\n      swap1\n      pop\n      jump\t// out\n        /* \"#utility.yul\":5933:6241   */\n    tag_110:\n        /* \"#utility.yul\":5995:5999   */\n      0x00\n        /* \"#utility.yul\":6085:6103   */\n      0xffffffffffffffff\n        /* \"#utility.yul\":6077:6083   */\n      dup3\n        /* \"#utility.yul\":6074:6104   */\n      gt\n        /* \"#utility.yul\":6071:6127   */\n      iszero\n      tag_203\n      jumpi\n        /* \"#utility.yul\":6107:6125   */\n      tag_204\n      tag_107\n      jump\t// in\n    tag_204:\n        /* \"#utility.yul\":6071:6127   */\n    tag_203:\n        /* \"#utility.yul\":6145:6174   */\n      tag_205\n        /* \"#utility.yul\":6167:6173   */\n      dup3\n        /* \"#utility.yul\":6145:6174   */\n      tag_96\n      jump\t// in\n    tag_205:\n        /* \"#utility.yul\":6137:6174   */\n      swap1\n      pop\n        /* \"#utility.yul\":6229:6233   */\n      0x20\n        /* \"#utility.yul\":6223:6227   */\n      dup2\n        /* \"#utility.yul\":6219:6234   */\n      add\n        /* \"#utility.yul\":6211:6234   */\n      swap1\n      pop\n        /* \"#utility.yul\":5933:6241   */\n      swap2\n      swap1\n      pop\n      jump\t// out\n        /* \"#utility.yul\":6247:6395   */\n    tag_111:\n        /* \"#utility.yul\":6345:6351   */\n      dup3\n        /* \"#utility.yul\":6340:6343   */\n      dup2\n        /* \"#utility.yul\":6335:6338   */\n      dup4\n        /* \"#utility.yul\":6322:6352   */\n      calldatacopy\n        /* \"#utility.yul\":6386:6387   */\n      0x00\n        /* \"#utility.yul\":6377:6383   */\n      dup4\n        /* \"#utility.yul\":6372:6375   */\n      dup4\n        /* \"#utility.yul\":6368:6384   */\n      add\n        /* \"#utility.yul\":6361:6388   */\n      mstore\n        /* \"#utility.yul\":6247:6395   */\n      pop\n      pop\n      pop\n      jump\t// out\n        /* \"#utility.yul\":6401:6826   */\n    tag_112:\n        /* \"#utility.yul\":6479:6484   */\n      0x00\n        /* \"#utility.yul\":6504:6570   */\n      tag_208\n        /* \"#utility.yul\":6520:6569   */\n      tag_209\n        /* \"#utility.yul\":6562:6568   */\n      dup5\n        /* \"#utility.yul\":6520:6569   */\n      tag_110\n      jump\t// in\n    tag_209:\n        /* \"#utility.yul\":6504:6570   */\n      tag_109\n      jump\t// in\n    tag_208:\n        /* \"#utility.yul\":6495:6570   */\n      swap1\n      pop\n        /* \"#utility.yul\":6593:6599   */\n      dup3\n        /* \"#utility.yul\":6586:6591   */\n      dup2\n        /* \"#utility.yul\":6579:6600   */\n      mstore\n        /* \"#utility.yul\":6631:6635   */\n      0x20\n        /* \"#utility.yul\":6624:6629   */\n      dup2\n        /* \"#utility.yul\":6620:6636   */\n      add\n        /* \"#utility.yul\":6669:6672   */\n      dup5\n        /* \"#utility.yul\":6660:6666   */\n      dup5\n        /* \"#utility.yul\":6655:6658   */\n      dup5\n        /* \"#utility.yul\":6651:6667   */\n      add\n        /* \"#utility.yul\":6648:6673   */\n      gt\n        /* \"#utility.yul\":6645:6757   */\n      iszero\n      tag_210\n      jumpi\n        /* \"#utility.yul\":6676:6755   */\n      tag_211\n      tag_106\n      jump\t// in\n    tag_211:\n        /* \"#utility.yul\":6645:6757   */\n    tag_210:\n        /* \"#utility.yul\":6766:6820   */\n      tag_212\n        /* \"#utility.yul\":6813:6819   */\n      dup5\n        /* \"#utility.yul\":6808:6811   */\n      dup3\n        /* \"#utility.yul\":6803:6806   */\n      dup6\n        /* \"#utility.yul\":6766:6820   */\n      tag_111\n      jump\t// in\n    tag_212:\n        /* \"#utility.yul\":6485:6826   */\n      pop\n        /* \"#utility.yul\":6401:6826   */\n      swap4\n      swap3\n      pop\n      pop\n      pop\n      jump\t// out\n        /* \"#utility.yul\":6846:7186   */\n    tag_113:\n        /* \"#utility.yul\":6902:6907   */\n      0x00\n        /* \"#utility.yul\":6951:6954   */\n      dup3\n        /* \"#utility.yul\":6944:6948   */\n      0x1f\n        /* \"#utility.yul\":6936:6942   */\n      dup4\n        /* \"#utility.yul\":6932:6949   */\n      add\n        /* \"#utility.yul\":6928:6955   */\n      slt\n        /* \"#utility.yul\":6918:7040   */\n      tag_214\n      jumpi\n        /* \"#utility.yul\":6959:7038   */\n      tag_215\n      tag_105\n      jump\t// in\n    tag_215:\n        /* \"#utility.yul\":6918:7040   */\n    tag_214:\n        /* \"#utility.yul\":7076:7082   */\n      dup2\n        /* \"#utility.yul\":7063:7083   */\n      calldataload\n        /* \"#utility.yul\":7101:7180   */\n      tag_216\n        /* \"#utility.yul\":7176:7179   */\n      dup5\n        /* \"#utility.yul\":7168:7174   */\n      dup3\n        /* \"#utility.yul\":7161:7165   */\n      0x20\n        /* \"#utility.yul\":7153:7159   */\n      dup7\n        /* \"#utility.yul\":7149:7166   */\n      add\n        /* \"#utility.yul\":7101:7180   */\n      tag_112\n      jump\t// in\n    tag_216:\n        /* \"#utility.yul\":7092:7180   */\n      swap2\n      pop\n        /* \"#utility.yul\":6908:7186   */\n      pop\n        /* \"#utility.yul\":6846:7186   */\n      swap3\n      swap2\n      pop\n      pop\n      jump\t// out\n        /* \"#utility.yul\":7192:7991   */\n    tag_49:\n        /* \"#utility.yul\":7279:7285   */\n      0x00\n        /* \"#utility.yul\":7287:7293   */\n      0x00\n        /* \"#utility.yul\":7295:7301   */\n      0x00\n        /* \"#utility.yul\":7344:7346   */\n      0x60\n        /* \"#utility.yul\":7332:7341   */\n      dup5\n        /* \"#utility.yul\":7323:7330   */\n      dup7\n        /* \"#utility.yul\":7319:7342   */\n      sub\n        /* \"#utility.yul\":7315:7347   */\n      slt\n        /* \"#utility.yul\":7312:7431   */\n      iszero\n      tag_218\n      jumpi\n        /* \"#utility.yul\":7350:7429   */\n      tag_219\n      tag_87\n      jump\t// in\n    tag_219:\n        /* \"#utility.yul\":7312:7431   */\n    tag_218:\n        /* \"#utility.yul\":7470:7471   */\n      0x00\n        /* \"#utility.yul\":7495:7548   */\n      tag_220\n        /* \"#utility.yul\":7540:7547   */\n      dup7\n        /* \"#utility.yul\":7531:7537   */\n      dup3\n        /* \"#utility.yul\":7520:7529   */\n      dup8\n        /* \"#utility.yul\":7516:7538   */\n      add\n        /* \"#utility.yul\":7495:7548   */\n      tag_91\n      jump\t// in\n    tag_220:\n        /* \"#utility.yul\":7485:7548   */\n      swap4\n      pop\n        /* \"#utility.yul\":7441:7558   */\n      pop\n        /* \"#utility.yul\":7625:7627   */\n      0x20\n        /* \"#utility.yul\":7614:7623   */\n      dup5\n        /* \"#utility.yul\":7610:7628   */\n      add\n        /* \"#utility.yul\":7597:7629   */\n      calldataload\n        /* \"#utility.yul\":7656:7674   */\n      0xffffffffffffffff\n        /* \"#utility.yul\":7648:7654   */\n      dup2\n        /* \"#utility.yul\":7645:7675   */\n      gt\n        /* \"#utility.yul\":7642:7759   */\n      iszero\n      tag_221\n      jumpi\n        /* \"#utility.yul\":7678:7757   */\n      tag_222\n      tag_88\n      jump\t// in\n    tag_222:\n        /* \"#utility.yul\":7642:7759   */\n    tag_221:\n        /* \"#utility.yul\":7783:7846   */\n      tag_223\n        /* \"#utility.yul\":7838:7845   */\n      dup7\n        /* \"#utility.yul\":7829:7835   */\n      dup3\n        /* \"#utility.yul\":7818:7827   */\n      dup8\n        /* \"#utility.yul\":7814:7836   */\n      add\n        /* \"#utility.yul\":7783:7846   */\n      tag_113\n      jump\t// in\n    tag_223:\n        /* \"#utility.yul\":7773:7846   */\n      swap3\n      pop\n        /* \"#utility.yul\":7568:7856   */\n      pop\n        /* \"#utility.yul\":7895:7897   */\n      0x40\n        /* \"#utility.yul\":7921:7974   */\n      tag_224\n        /* \"#utility.yul\":7966:7973   */\n      dup7\n        /* \"#utility.yul\":7957:7963   */\n      dup3\n        /* \"#utility.yul\":7946:7955   */\n      dup8\n        /* \"#utility.yul\":7942:7964   */\n      add\n        /* \"#utility.yul\":7921:7974   */\n      tag_91\n      jump\t// in\n    tag_224:\n        /* \"#utility.yul\":7911:7974   */\n      swap2\n      pop\n        /* \"#utility.yul\":7866:7984   */\n      pop\n        /* \"#utility.yul\":7192:7991   */\n      swap3\n      pop\n      swap3\n      pop\n      swap3\n      jump\t// out\n        /* \"#utility.yul\":7997:8177   */\n    tag_114:\n        /* \"#utility.yul\":8045:8122   */\n      0x4e487b7100000000000000000000000000000000000000000000000000000000\n        /* \"#utility.yul\":8042:8043   */\n      0x00\n        /* \"#utility.yul\":8035:8123   */\n      mstore\n        /* \"#utility.yul\":8142:8146   */\n      0x22\n        /* \"#utility.yul\":8139:8140   */\n      0x04\n        /* \"#utility.yul\":8132:8147   */\n      mstore\n        /* \"#utility.yul\":8166:8170   */\n      0x24\n        /* \"#utility.yul\":8163:8164   */\n      0x00\n        /* \"#utility.yul\":8156:8171   */\n      revert\n        /* \"#utility.yul\":8183:8503   */\n    tag_54:\n        /* \"#utility.yul\":8227:8233   */\n      0x00\n        /* \"#utility.yul\":8264:8265   */\n      0x02\n        /* \"#utility.yul\":8258:8262   */\n      dup3\n        /* \"#utility.yul\":8254:8266   */\n      div\n        /* \"#utility.yul\":8244:8266   */\n      swap1\n      pop\n        /* \"#utility.yul\":8311:8312   */\n      0x01\n        /* \"#utility.yul\":8305:8309   */\n      dup3\n        /* \"#utility.yul\":8301:8313   */\n      and\n        /* \"#utility.yul\":8332:8350   */\n      dup1\n        /* \"#utility.yul\":8322:8403   */\n      tag_227\n      jumpi\n        /* \"#utility.yul\":8388:8392   */\n      0x7f\n        /* \"#utility.yul\":8380:8386   */\n      dup3\n        /* \"#utility.yul\":8376:8393   */\n      and\n        /* \"#utility.yul\":8366:8393   */\n      swap2\n      pop\n        /* \"#utility.yul\":8322:8403   */\n    tag_227:\n        /* \"#utility.yul\":8450:8452   */\n      0x20\n        /* \"#utility.yul\":8442:8448   */\n      dup3\n        /* \"#utility.yul\":8439:8453   */\n      lt\n        /* \"#utility.yul\":8419:8437   */\n      dup2\n        /* \"#utility.yul\":8416:8454   */\n      sub\n        /* \"#utility.yul\":8413:8497   */\n      tag_228\n      jumpi\n        /* \"#utility.yul\":8469:8487   */\n      tag_229\n      tag_114\n      jump\t// in\n    tag_229:\n        /* \"#utility.yul\":8413:8497   */\n    tag_228:\n        /* \"#utility.yul\":8234:8503   */\n      pop\n        /* \"#utility.yul\":8183:8503   */\n      swap2\n      swap1\n      pop\n      jump\t// out\n        /* \"#utility.yul\":8509:8677   */\n    tag_115:\n        /* \"#utility.yul\":8649:8669   */\n      0x416c726561647920726567697374657265640000000000000000000000000000\n        /* \"#utility.yul\":8645:8646   */\n      0x00\n        /* \"#utility.yul\":8637:8643   */\n      dup3\n        /* \"#utility.yul\":8633:8647   */\n      add\n        /* \"#utility.yul\":8626:8670   */\n      mstore\n        /* \"#utility.yul\":8509:8677   */\n      pop\n      jump\t// out\n        /* \"#utility.yul\":8683:9049   */\n    tag_116:\n        /* \"#utility.yul\":8825:8828   */\n      0x00\n        /* \"#utility.yul\":8846:8913   */\n      tag_232\n        /* \"#utility.yul\":8910:8912   */\n      0x12\n        /* \"#utility.yul\":8905:8908   */\n      dup4\n        /* \"#utility.yul\":8846:8913   */\n      tag_94\n      jump\t// in\n    tag_232:\n        /* \"#utility.yul\":8839:8913   */\n      swap2\n      pop\n        /* \"#utility.yul\":8922:9015   */\n      tag_233\n        /* \"#utility.yul\":9011:9014   */\n      dup3\n        /* \"#utility.yul\":8922:9015   */\n      tag_115\n      jump\t// in\n    tag_233:\n        /* \"#utility.yul\":9040:9042   */\n      0x20\n        /* \"#utility.yul\":9035:9038   */\n      dup3\n        /* \"#utility.yul\":9031:9043   */\n      add\n        /* \"#utility.yul\":9024:9043   */\n      swap1\n      pop\n        /* \"#utility.yul\":8683:9049   */\n      swap2\n      swap1\n      pop\n      jump\t// out\n        /* \"#utility.yul\":9055:9474   */\n    tag_62:\n        /* \"#utility.yul\":9221:9225   */\n      0x00\n        /* \"#utility.yul\":9259:9261   */\n      0x20\n        /* \"#utility.yul\":9248:9257   */\n      dup3\n        /* \"#utility.yul\":9244:9262   */\n      add\n        /* \"#utility.yul\":9236:9262   */\n      swap1\n      pop\n        /* \"#utility.yul\":9308:9317   */\n      dup2\n        /* \"#utility.yul\":9302:9306   */\n      dup2\n        /* \"#utility.yul\":9298:9318   */\n      sub\n        /* \"#utility.yul\":9294:9295   */\n      0x00\n        /* \"#utility.yul\":9283:9292   */\n      dup4\n        /* \"#utility.yul\":9279:9296   */\n      add\n        /* \"#utility.yul\":9272:9319   */\n      mstore\n        /* \"#utility.yul\":9336:9467   */\n      tag_235\n        /* \"#utility.yul\":9462:9466   */\n      dup2\n        /* \"#utility.yul\":9336:9467   */\n      tag_116\n      jump\t// in\n    tag_235:\n        /* \"#utility.yul\":9328:9467   */\n      swap1\n      pop\n        /* \"#utility.yul\":9055:9474   */\n      swap2\n      swap1\n      pop\n      jump\t// out\n        /* \"#utility.yul\":9480:9701   */\n    tag_117:\n        /* \"#utility.yul\":9620:9654   */\n      0x4f6e6c79206f776e65722063616e20706572666f726d20746869732061637469\n        /* \"#utility.yul\":9616:9617   */\n      0x00\n        /* \"#utility.yul\":9608:9614   */\n      dup3\n        /* \"#utility.yul\":9604:9618   */\n      add\n        /* \"#utility.yul\":9597:9655   */\n      mstore\n        /* \"#utility.yul\":9689:9693   */\n      0x6f6e000000000000000000000000000000000000000000000000000000000000\n        /* \"#utility.yul\":9684:9686   */\n      0x20\n        /* \"#utility.yul\":9676:9682   */\n      dup3\n        /* \"#utility.yul\":9672:9687   */\n      add\n        /* \"#utility.yul\":9665:9694   */\n      mstore\n        /* \"#utility.yul\":9480:9701   */\n      pop\n      jump\t// out\n        /* \"#utility.yul\":9707:10073   */\n    tag_118:\n        /* \"#utility.yul\":9849:9852   */\n      0x00\n        /* \"#utility.yul\":9870:9937   */\n      tag_238\n        /* \"#utility.yul\":9934:9936   */\n      0x22\n        /* \"#utility.yul\":9929:9932   */\n      dup4\n        /* \"#utility.yul\":9870:9937   */\n      tag_94\n      jump\t// in\n    tag_238:\n        /* \"#utility.yul\":9863:9937   */\n      swap2\n      pop\n        /* \"#utility.yul\":9946:10039   */\n      tag_239\n        /* \"#utility.yul\":10035:10038   */\n      dup3\n        /* \"#utility.yul\":9946:10039   */\n      tag_117\n      jump\t// in\n    tag_239:\n        /* \"#utility.yul\":10064:10066   */\n      0x40\n        /* \"#utility.yul\":10059:10062   */\n      dup3\n        /* \"#utility.yul\":10055:10067   */\n      add\n        /* \"#utility.yul\":10048:10067   */\n      swap1\n      pop\n        /* \"#utility.yul\":9707:10073   */\n      swap2\n      swap1\n      pop\n      jump\t// out\n        /* \"#utility.yul\":10079:10498   */\n    tag_78:\n        /* \"#utility.yul\":10245:10249   */\n      0x00\n        /* \"#utility.yul\":10283:10285   */\n      0x20\n        /* \"#utility.yul\":10272:10281   */\n      dup3\n        /* \"#utility.yul\":10268:10286   */\n      add\n        /* \"#utility.yul\":10260:10286   */\n      swap1\n      pop\n        /* \"#utility.yul\":10332:10341   */\n      dup2\n        /* \"#utility.yul\":10326:10330   */\n      dup2\n        /* \"#utility.yul\":10322:10342   */\n      sub\n        /* \"#utility.yul\":10318:10319   */\n      0x00\n        /* \"#utility.yul\":10307:10316   */\n      dup4\n        /* \"#utility.yul\":10303:10320   */\n      add\n        /* \"#utility.yul\":10296:10343   */\n      mstore\n        /* \"#utility.yul\":10360:10491   */\n      tag_241\n        /* \"#utility.yul\":10486:10490   */\n      dup2\n        /* \"#utility.yul\":10360:10491   */\n      tag_118\n      jump\t// in\n    tag_241:\n        /* \"#utility.yul\":10352:10491   */\n      swap1\n      pop\n        /* \"#utility.yul\":10079:10498   */\n      swap2\n      swap1\n      pop\n      jump\t// out\n        /* \"#utility.yul\":10504:10645   */\n    tag_119:\n        /* \"#utility.yul\":10553:10557   */\n      0x00\n        /* \"#utility.yul\":10576:10579   */\n      dup2\n        /* \"#utility.yul\":10568:10579   */\n      swap1\n      pop\n        /* \"#utility.yul\":10599:10602   */\n      dup2\n        /* \"#utility.yul\":10596:10597   */\n      0x00\n        /* \"#utility.yul\":10589:10603   */\n      mstore\n        /* \"#utility.yul\":10633:10637   */\n      0x20\n        /* \"#utility.yul\":10630:10631   */\n      0x00\n        /* \"#utility.yul\":10620:10638   */\n      keccak256\n        /* \"#utility.yul\":10612:10638   */\n      swap1\n      pop\n        /* \"#utility.yul\":10504:10645   */\n      swap2\n      swap1\n      pop\n      jump\t// out\n        /* \"#utility.yul\":10651:10744   */\n    tag_120:\n        /* \"#utility.yul\":10688:10694   */\n      0x00\n        /* \"#utility.yul\":10735:10737   */\n      0x20\n        /* \"#utility.yul\":10730:10732   */\n      0x1f\n        /* \"#utility.yul\":10723:10728   */\n      dup4\n        /* \"#utility.yul\":10719:10733   */\n      add\n        /* \"#utility.yul\":10715:10738   */\n      div\n        /* \"#utility.yul\":10705:10738   */\n      swap1\n      pop\n        /* \"#utility.yul\":10651:10744   */\n      swap2\n      swap1\n      pop\n      jump\t// out\n        /* \"#utility.yul\":10750:10857   */\n    tag_121:\n        /* \"#utility.yul\":10794:10802   */\n      0x00\n        /* \"#utility.yul\":10844:10849   */\n      dup3\n        /* \"#utility.yul\":10838:10842   */\n      dup3\n        /* \"#utility.yul\":10834:10850   */\n      shl\n        /* \"#utility.yul\":10813:10850   */\n      swap1\n      pop\n        /* \"#utility.yul\":10750:10857   */\n      swap3\n      swap2\n      pop\n      pop\n      jump\t// out\n        /* \"#utility.yul\":10863:11256   */\n    tag_122:\n        /* \"#utility.yul\":10932:10938   */\n      0x00\n        /* \"#utility.yul\":10982:10983   */\n      0x08\n        /* \"#utility.yul\":10970:10980   */\n      dup4\n        /* \"#utility.yul\":10966:10984   */\n      mul\n        /* \"#utility.yul\":11005:11102   */\n      tag_246\n        /* \"#utility.yul\":11035:11101   */\n      0xffffffffffffffffffffffffffffffffffffffffffffffffffffffffffffffff\n        /* \"#utility.yul\":11024:11033   */\n      dup3\n        /* \"#utility.yul\":11005:11102   */\n      tag_121\n      jump\t// in\n    tag_246:\n        /* \"#utility.yul\":11123:11162   */\n      tag_247\n        /* \"#utility.yul\":11153:11161   */\n      dup7\n        /* \"#utility.yul\":11142:11151   */\n      dup4\n        /* \"#utility.yul\":11123:11162   */\n      tag_121\n      jump\t// in\n    tag_247:\n        /* \"#utility.yul\":11111:11162   */\n      swap6\n      pop\n        /* \"#utility.yul\":11195:11199   */\n      dup1\n        /* \"#utility.yul\":11191:11200   */\n      not\n        /* \"#utility.yul\":11184:11189   */\n      dup5\n        /* \"#utility.yul\":11180:11201   */\n      and\n        /* \"#utility.yul\":11171:11201   */\n      swap4\n      pop\n        /* \"#utility.yul\":11244:11248   */\n      dup1\n        /* \"#utility.yul\":11234:11242   */\n      dup7\n        /* \"#utility.yul\":11230:11249   */\n      and\n        /* \"#utility.yul\":11223:11228   */\n      dup5\n        /* \"#utility.yul\":11220:11250   */\n      or\n        /* \"#utility.yul\":11210:11250   */\n      swap3\n      pop\n        /* \"#utility.yul\":10939:11256   */\n      pop\n      pop\n        /* \"#utility.yul\":10863:11256   */\n      swap4\n      swap3\n      pop\n      pop\n      pop\n      jump\t// out\n        /* \"#utility.yul\":11262:11322   */\n    tag_123:\n        /* \"#utility.yul\":11290:11293   */\n      0x00\n        /* \"#utility.yul\":11311:11316   */\n      dup2\n        /* \"#utility.yul\":11304:11316   */\n      swap1\n      pop\n        /* \"#utility.yul\":11262:11322   */\n      swap2\n      swap1\n      pop\n      jump\t// out\n        /* \"#utility.yul\":11328:11470   */\n    tag_124:\n        /* \"#utility.yul\":11378:11387   */\n      0x00\n        /* \"#utility.yul\":11411:11464   */\n      tag_250\n        /* \"#utility.yul\":11429:11463   */\n      tag_251\n        /* \"#utility.yul\":11438:11462   */\n      tag_252\n        /* \"#utility.yul\":11456:11461   */\n      dup5\n        /* \"#utility.yul\":11438:11462   */\n      tag_89\n      jump\t// in\n    tag_252:\n        /* \"#utility.yul\":11429:11463   */\n      tag_123\n      jump\t// in\n    tag_251:\n        /* \"#utility.yul\":11411:11464   */\n      tag_89\n      jump\t// in\n    tag_250:\n        /* \"#utility.yul\":11398:11464   */\n      swap1\n      pop\n        /* \"#utility.yul\":11328:11470   */\n      swap2\n      swap1\n      pop\n      jump\t// out\n        /* \"#utility.yul\":11476:11551   */\n    tag_125:\n        /* \"#utility.yul\":11519:11522   */\n      0x00\n        /* \"#utility.yul\":11540:11545   */\n      dup2\n        /* \"#utility.yul\":11533:11545   */\n      swap1\n      pop\n        /* \"#utility.yul\":11476:11551   */\n      swap2\n      swap1\n      pop\n      jump\t// out\n        /* \"#utility.yul\":11557:11826   */\n    tag_126:\n        /* \"#utility.yul\":11667:11706   */\n      tag_255\n        /* \"#utility.yul\":11698:11705   */\n      dup4\n        /* \"#utility.yul\":11667:11706   */\n      tag_124\n      jump\t// in\n    tag_255:\n        /* \"#utility.yul\":11728:11819   */\n      tag_256\n        /* \"#utility.yul\":11777:11818   */\n      tag_257\n        /* \"#utility.yul\":11801:11817   */\n      dup3\n        /* \"#utility.yul\":11777:11818   */\n      tag_125\n      jump\t// in\n    tag_257:\n        /* \"#utility.yul\":11769:11775   */\n      dup5\n        /* \"#utility.yul\":11762:11766   */\n      dup5\n        /* \"#utility.yul\":11756:11767   */\n      sload\n        /* \"#utility.yul\":11728:11819   */\n      tag_122\n      jump\t// in\n    tag_256:\n        /* \"#utility.yul\":11722:11726   */\n      dup3\n        /* \"#utility.yul\":11715:11820   */\n      sstore\n        /* \"#utility.yul\":11633:11826   */\n      pop\n        /* \"#utility.yul\":11557:11826   */\n      pop\n      pop\n      pop\n      jump\t// out\n        /* \"#utility.yul\":11832:11905   */\n    tag_127:\n        /* \"#utility.yul\":11877:11880   */\n      0x00\n        /* \"#utility.yul\":11898:11899   */\n      0x00\n        /* \"#utility.yul\":11891:11899   */\n      swap1\n      pop\n        /* \"#utility.yul\":11832:11905   */\n      swap1\n      jump\t// out\n        /* \"#utility.yul\":11911:12100   */\n    tag_128:\n        /* \"#utility.yul\":11988:12020   */\n      tag_260\n      tag_127\n      jump\t// in\n    tag_260:\n        /* \"#utility.yul\":12029:12094   */\n      tag_261\n        /* \"#utility.yul\":12087:12093   */\n      dup2\n        /* \"#utility.yul\":12079:12085   */\n      dup5\n        /* \"#utility.yul\":12073:12077   */\n      dup5\n        /* \"#utility.yul\":12029:12094   */\n      tag_126\n      jump\t// in\n    tag_261:\n        /* \"#utility.yul\":11964:12100   */\n      pop\n        /* \"#utility.yul\":11911:12100   */\n      pop\n      pop\n      jump\t// out\n        /* \"#utility.yul\":12106:12292   */\n    tag_129:\n        /* \"#utility.yul\":12166:12286   */\n    tag_263:\n        /* \"#utility.yul\":12183:12186   */\n      dup2\n        /* \"#utility.yul\":12176:12181   */\n      dup2\n        /* \"#utility.yul\":12173:12187   */\n      lt\n        /* \"#utility.yul\":12166:12286   */\n      iszero\n      tag_265\n      jumpi\n        /* \"#utility.yul\":12237:12276   */\n      tag_266\n        /* \"#utility.yul\":12274:12275   */\n      0x00\n        /* \"#utility.yul\":12267:12272   */\n      dup3\n        /* \"#utility.yul\":12237:12276   */\n      tag_128\n      jump\t// in\n    tag_266:\n        /* \"#utility.yul\":12210:12211   */\n      0x01\n        /* \"#utility.yul\":12203:12208   */\n      dup2\n        /* \"#utility.yul\":12199:12212   */\n      add\n        /* \"#utility.yul\":12190:12212   */\n      swap1\n      pop\n        /* \"#utility.yul\":12166:12286   */\n      jump(tag_263)\n    tag_265:\n        /* \"#utility.yul\":12106:12292   */\n      pop\n      pop\n      jump\t// out\n        /* \"#utility.yul\":12298:12841   */\n    tag_130:\n        /* \"#utility.yul\":12399:12401   */\n      0x1f\n        /* \"#utility.yul\":12394:12397   */\n      dup3\n        /* \"#utility.yul\":12391:12402   */\n      gt\n        /* \"#utility.yul\":12388:12834   */\n      iszero\n      tag_268\n      jumpi\n        /* \"#utility.yul\":12433:12471   */\n      tag_269\n        /* \"#utility.yul\":12465:12470   */\n      dup2\n        /* \"#utility.yul\":12433:12471   */\n      tag_119\n      jump\t// in\n    tag_269:\n        /* \"#utility.yul\":12517:12546   */\n      tag_270\n        /* \"#utility.yul\":12535:12545   */\n      dup5\n        /* \"#utility.yul\":12517:12546   */\n      tag_120\n      jump\t// in\n    tag_270:\n        /* \"#utility.yul\":12507:12515   */\n      dup2\n        /* \"#utility.yul\":12503:12547   */\n      add\n        /* \"#utility.yul\":12700:12702   */\n      0x20\n        /* \"#utility.yul\":12688:12698   */\n      dup6\n        /* \"#utility.yul\":12685:12703   */\n      lt\n        /* \"#utility.yul\":12682:12731   */\n      iszero\n      tag_271\n      jumpi\n        /* \"#utility.yul\":12721:12729   */\n      dup2\n        /* \"#utility.yul\":12706:12729   */\n      swap1\n      pop\n        /* \"#utility.yul\":12682:12731   */\n    tag_271:\n        /* \"#utility.yul\":12744:12824   */\n      tag_272\n        /* \"#utility.yul\":12800:12822   */\n      tag_273\n        /* \"#utility.yul\":12818:12821   */\n      dup6\n        /* \"#utility.yul\":12800:12822   */\n      tag_120\n      jump\t// in\n    tag_273:\n        /* \"#utility.yul\":12790:12798   */\n      dup4\n        /* \"#utility.yul\":12786:12823   */\n      add\n        /* \"#utility.yul\":12773:12784   */\n      dup3\n        /* \"#utility.yul\":12744:12824   */\n      tag_129\n      jump\t// in\n    tag_272:\n        /* \"#utility.yul\":12403:12834   */\n      pop\n      pop\n        /* \"#utility.yul\":12388:12834   */\n    tag_268:\n        /* \"#utility.yul\":12298:12841   */\n      pop\n      pop\n      pop\n      jump\t// out\n        /* \"#utility.yul\":12847:12964   */\n    tag_131:\n        /* \"#utility.yul\":12901:12909   */\n      0x00\n        /* \"#utility.yul\":12951:12956   */\n      dup3\n        /* \"#utility.yul\":12945:12949   */\n      dup3\n        /* \"#utility.yul\":12941:12957   */\n      shr\n        /* \"#utility.yul\":12920:12957   */\n      swap1\n      pop\n        /* \"#utility.yul\":12847:12964   */\n      swap3\n      swap2\n      pop\n      pop\n      jump\t// out\n        /* \"#utility.yul\":12970:13139   */\n    tag_132:\n        /* \"#utility.yul\":13014:13020   */\n      0x00\n        /* \"#utility.yul\":13047:13098   */\n      tag_276\n        /* \"#utility.yul\":13095:13096   */\n      0x00\n        /* \"#utility.yul\":13091:13097   */\n      not\n        /* \"#utility.yul\":13083:13088   */\n      dup5\n        /* \"#utility.yul\":13080:13081   */\n      0x08\n        /* \"#utility.yul\":13076:13089   */\n      mul\n        /* \"#utility.yul\":13047:13098   */\n      tag_131\n      jump\t// in\n    tag_276:\n        /* \"#utility.yul\":13043:13099   */\n      not\n        /* \"#utility.yul\":13128:13132   */\n      dup1\n        /* \"#utility.yul\":13122:13126   */\n      dup4\n        /* \"#utility.yul\":13118:13133   */\n      and\n        /* \"#utility.yul\":13108:13133   */\n      swap2\n      pop\n        /* \"#utility.yul\":13021:13139   */\n      pop\n        /* \"#utility.yul\":12970:13139   */\n      swap3\n      swap2\n      pop\n      pop\n      jump\t// out\n        /* \"#utility.yul\":13144:13439   */\n    tag_133:\n        /* \"#utility.yul\":13220:13224   */\n      0x00\n        /* \"#utility.yul\":13366:13395   */\n      tag_278\n        /* \"#utility.yul\":13391:13394   */\n      dup4\n        /* \"#utility.yul\":13385:13389   */\n      dup4\n        /* \"#utility.yul\":13366:13395   */\n      tag_132\n      jump\t// in\n    tag_278:\n        /* \"#utility.yul\":13358:13395   */\n      swap2\n      pop\n        /* \"#utility.yul\":13428:13431   */\n      dup3\n        /* \"#utility.yul\":13425:13426   */\n      0x02\n        /* \"#utility.yul\":13421:13432   */\n      mul\n        /* \"#utility.yul\":13415:13419   */\n      dup3\n        /* \"#utility.yul\":13412:13433   */\n      or\n        /* \"#utility.yul\":13404:13433   */\n      swap1\n      pop\n        /* \"#utility.yul\":13144:13439   */\n      swap3\n      swap2\n      pop\n      pop\n      jump\t// out\n        /* \"#utility.yul\":13444:14839   */\n    tag_82:\n        /* \"#utility.yul\":13561:13598   */\n      tag_280\n        /* \"#utility.yul\":13594:13597   */\n      dup3\n        /* \"#utility.yul\":13561:13598   */\n      tag_93\n      jump\t// in\n    tag_280:\n        /* \"#utility.yul\":13663:13681   */\n      0xffffffffffffffff\n        /* \"#utility.yul\":13655:13661   */\n      dup2\n        /* \"#utility.yul\":13652:13682   */\n      gt\n        /* \"#utility.yul\":13649:13705   */\n      iszero\n      tag_281\n      jumpi\n        /* \"#utility.yul\":13685:13703   */\n      tag_282\n      tag_107\n      jump\t// in\n    tag_282:\n        /* \"#utility.yul\":13649:13705   */\n    tag_281:\n        /* \"#utility.yul\":13729:13767   */\n      tag_283\n        /* \"#utility.yul\":13761:13765   */\n      dup3\n        /* \"#utility.yul\":13755:13766   */\n      sload\n        /* \"#utility.yul\":13729:13767   */\n      tag_54\n      jump\t// in\n    tag_283:\n        /* \"#utility.yul\":13814:13881   */\n      tag_284\n        /* \"#utility.yul\":13874:13880   */\n      dup3\n        /* \"#utility.yul\":13866:13872   */\n      dup3\n        /* \"#utility.yul\":13860:13864   */\n      dup6\n        /* \"#utility.yul\":13814:13881   */\n      tag_130\n      jump\t// in\n    tag_284:\n        /* \"#utility.yul\":13908:13909   */\n      0x00\n        /* \"#utility.yul\":13932:13936   */\n      0x20\n        /* \"#utility.yul\":13919:13936   */\n      swap1\n      pop\n        /* \"#utility.yul\":13964:13966   */\n      0x1f\n        /* \"#utility.yul\":13956:13962   */\n      dup4\n        /* \"#utility.yul\":13953:13967   */\n      gt\n        /* \"#utility.yul\":13981:13982   */\n      0x01\n        /* \"#utility.yul\":13976:14594   */\n      dup2\n      eq\n      tag_286\n      jumpi\n        /* \"#utility.yul\":14638:14639   */\n      0x00\n        /* \"#utility.yul\":14655:14661   */\n      dup5\n        /* \"#utility.yul\":14652:14729   */\n      iszero\n      tag_287\n      jumpi\n        /* \"#utility.yul\":14704:14713   */\n      dup3\n        /* \"#utility.yul\":14699:14702   */\n      dup8\n        /* \"#utility.yul\":14695:14714   */\n      add\n        /* \"#utility.yul\":14689:14715   */\n      mload\n        /* \"#utility.yul\":14680:14715   */\n      swap1\n      pop\n        /* \"#utility.yul\":14652:14729   */\n    tag_287:\n        /* \"#utility.yul\":14755:14822   */\n      tag_288\n        /* \"#utility.yul\":14815:14821   */\n      dup6\n        /* \"#utility.yul\":14808:14813   */\n      dup3\n        /* \"#utility.yul\":14755:14822   */\n      tag_133\n      jump\t// in\n    tag_288:\n        /* \"#utility.yul\":14749:14753   */\n      dup7\n        /* \"#utility.yul\":14742:14823   */\n      sstore\n        /* \"#utility.yul\":14611:14833   */\n      pop\n        /* \"#utility.yul\":13946:14833   */\n      jump(tag_285)\n        /* \"#utility.yul\":13976:14594   */\n    tag_286:\n        /* \"#utility.yul\":14028:14032   */\n      0x1f\n        /* \"#utility.yul\":14024:14033   */\n      not\n        /* \"#utility.yul\":14016:14022   */\n      dup5\n        /* \"#utility.yul\":14012:14034   */\n      and\n        /* \"#utility.yul\":14062:14099   */\n      tag_289\n        /* \"#utility.yul\":14094:14098   */\n      dup7\n        /* \"#utility.yul\":14062:14099   */\n      tag_119\n      jump\t// in\n    tag_289:\n        /* \"#utility.yul\":14121:14122   */\n      0x00\n        /* \"#utility.yul\":14135:14343   */\n    tag_290:\n        /* \"#utility.yul\":14149:14156   */\n      dup3\n        /* \"#utility.yul\":14146:14147   */\n      dup2\n        /* \"#utility.yul\":14143:14157   */\n      lt\n        /* \"#utility.yul\":14135:14343   */\n      iszero\n      tag_292\n      jumpi\n        /* \"#utility.yul\":14228:14237   */\n      dup5\n        /* \"#utility.yul\":14223:14226   */\n      dup10\n        /* \"#utility.yul\":14219:14238   */\n      add\n        /* \"#utility.yul\":14213:14239   */\n      mload\n        /* \"#utility.yul\":14205:14211   */\n      dup3\n        /* \"#utility.yul\":14198:14240   */\n      sstore\n        /* \"#utility.yul\":14279:14280   */\n      0x01\n        /* \"#utility.yul\":14271:14277   */\n      dup3\n        /* \"#utility.yul\":14267:14281   */\n      add\n        /* \"#utility.yul\":14257:14281   */\n      swap2\n      pop\n        /* \"#utility.yul\":14326:14328   */\n      0x20\n        /* \"#utility.yul\":14315:14324   */\n      dup6\n        /* \"#utility.yul\":14311:14329   */\n      add\n        /* \"#utility.yul\":14298:14329   */\n      swap5\n      pop\n        /* \"#utility.yul\":14172:14176   */\n      0x20\n        /* \"#utility.yul\":14169:14170   */\n      dup2\n        /* \"#utility.yul\":14165:14177   */\n      add\n        /* \"#utility.yul\":14160:14177   */\n      swap1\n      pop\n        /* \"#utility.yul\":14135:14343   */\n      jump(tag_290)\n    tag_292:\n        /* \"#utility.yul\":14371:14377   */\n      dup7\n        /* \"#utility.yul\":14362:14369   */\n      dup4\n        /* \"#utility.yul\":14359:14378   */\n      lt\n        /* \"#utility.yul\":14356:14535   */\n      iszero\n      tag_293\n      jumpi\n        /* \"#utility.yul\":14429:14438   */\n      dup5\n        /* \"#utility.yul\":14424:14427   */\n      dup10\n        /* \"#utility.yul\":14420:14439   */\n      add\n        /* \"#utility.yul\":14414:14440   */\n      mload\n        /* \"#utility.yul\":14472:14520   */\n      tag_294\n        /* \"#utility.yul\":14514:14518   */\n      0x1f\n        /* \"#utility.yul\":14506:14512   */\n      dup10\n        /* \"#utility.yul\":14502:14519   */\n      and\n        /* \"#utility.yul\":14491:14500   */\n      dup3\n        /* \"#utility.yul\":14472:14520   */\n      tag_132\n      jump\t// in\n    tag_294:\n        /* \"#utility.yul\":14464:14470   */\n      dup4\n        /* \"#utility.yul\":14457:14521   */\n      sstore\n        /* \"#utility.yul\":14379:14535   */\n      pop\n        /* \"#utility.yul\":14356:14535   */\n    tag_293:\n        /* \"#utility.yul\":14581:14582   */\n      0x01\n        /* \"#utility.yul\":14577:14578   */\n      0x02\n        /* \"#utility.yul\":14569:14575   */\n      dup9\n        /* \"#utility.yul\":14565:14579   */\n      mul\n        /* \"#utility.yul\":14561:14583   */\n      add\n        /* \"#utility.yul\":14555:14559   */\n      dup9\n        /* \"#utility.yul\":14548:14584   */\n      sstore\n        /* \"#utility.yul\":13983:14594   */\n      pop\n      pop\n      pop\n        /* \"#utility.yul\":13946:14833   */\n    tag_285:\n      pop\n        /* \"#utility.yul\":13536:14839   */\n      pop\n      pop\n      pop\n        /* \"#utility.yul\":13444:14839   */\n      pop\n      pop\n      jump\t// out\n        /* \"#utility.yul\":14845:15025   */\n    tag_134:\n        /* \"#utility.yul\":14893:14970   */\n      0x4e487b7100000000000000000000000000000000000000000000000000000000\n        /* \"#utility.yul\":14890:14891   */\n      0x00\n        /* \"#utility.yul\":14883:14971   */\n      mstore\n        /* \"#utility.yul\":14990:14994   */\n      0x11\n        /* \"#utility.yul\":14987:14988   */\n      0x04\n        /* \"#utility.yul\":14980:14995   */\n      mstore\n        /* \"#utility.yul\":15014:15018   */\n      0x24\n        /* \"#utility.yul\":15011:15012   */\n      0x00\n        /* \"#utility.yul\":15004:15019   */\n      revert\n        /* \"#utility.yul\":15031:15264   */\n    tag_85:\n        /* \"#utility.yul\":15070:15073   */\n      0x00\n        /* \"#utility.yul\":15093:15117   */\n      tag_297\n        /* \"#utility.yul\":15111:15116   */\n      dup3\n        /* \"#utility.yul\":15093:15117   */\n      tag_89\n      jump\t// in\n    tag_297:\n        /* \"#utility.yul\":15084:15117   */\n      swap2\n      pop\n        /* \"#utility.yul\":15139:15205   */\n      0xffffffffffffffffffffffffffffffffffffffffffffffffffffffffffffffff\n        /* \"#utility.yul\":15132:15137   */\n      dup3\n        /* \"#utility.yul\":15129:15206   */\n      sub\n        /* \"#utility.yul\":15126:15229   */\n      tag_298\n      jumpi\n        /* \"#utility.yul\":15209:15227   */\n      tag_299\n      tag_134\n      jump\t// in\n    tag_299:\n        /* \"#utility.yul\":15126:15229   */\n    tag_298:\n        /* \"#utility.yul\":15256:15257   */\n      0x01\n        /* \"#utility.yul\":15249:15254   */\n      dup3\n        /* \"#utility.yul\":15245:15258   */\n      add\n        /* \"#utility.yul\":15238:15258   */\n      swap1\n      pop\n        /* \"#utility.yul\":15031:15264   */\n      swap2\n      swap1\n      pop\n      jump\t// out\n\n    auxdata: 0xa2646970667358221220fb3730e38249074dd0ec6ba461609d569f160f956470bc196343e379f016e29164736f6c634300081f0033\n}\n",
				"bytecode": {
					"linkReferences": {},
					"object": "6080604052348015600e575f5ffd5b50335f5f6101000a81548173ffffffffffffffffffffffffffffffffffffffff021916908373ffffffffffffffffffffffffffffffffffffffff160217905550610fa78061005b5f395ff3fe608060405234801561000f575f5ffd5b5060043610610091575f3560e01c8063642f916311610064578063642f9163146101235780638da5cb5b146101555780639852bf8e14610173578063b2dd5c0714610191578063c1bea1db146101c157610091565b806306ead22e146100955780631aa3a008146100c85780631c9f7bb9146100d257806328bcb51a14610105575b5f5ffd5b6100af60048036038101906100aa919061077a565b6101dd565b6040516100bf949392919061083e565b60405180910390f35b6100d06102aa565b005b6100ec60048036038101906100e7919061077a565b61038b565b6040516100fc949392919061083e565b60405180910390f35b61010d610449565b60405161011a9190610888565b60405180910390f35b61013d6004803603810190610138919061077a565b610452565b60405161014c939291906108a1565b60405180910390f35b61015d61054f565b60405161016a919061091c565b60405180910390f35b61017b610573565b6040516101889190610888565b60405180910390f35b6101ab60048036038101906101a6919061095f565b610579565b6040516101b8919061098a565b60405180910390f35b6101db60048036038101906101d69190610acf565b610596565b005b600281815481106101ec575f80fd5b905f5260205f2090600402015f91509050805f01549080600101805461021190610b68565b80601f016020809104026020016040519081016040528092919081815260200182805461023d90610b68565b80156102885780601f1061025f57610100808354040283529160200191610288565b820191905f5260205f20905b81548152906001019060200180831161026b57829003601f168201915b505050505090806002015490806003015f9054906101000a900460ff16905084565b60045f3373ffffffffffffffffffffffffffffffffffffffff1673ffffffffffffffffffffffffffffffffffffffff1681526020019081526020015f205f9054906101000a900460ff1615610334576040517f08c379a000000000000000000000000000000000000000000000000000000000815260040161032b90610be2565b60405180910390fd5b600160045f3373ffffffffffffffffffffffffffffffffffffffff1673ffffffffffffffffffffffffffffffffffffffff1681526020019081526020015f205f6101000a81548160ff021916908315150217905550565b6003602052805f5260405f205f91509050805f0154908060010180546103b090610b68565b80601f01602080910402602001604051908101604052809291908181526020018280546103dc90610b68565b80156104275780601f106103fe57610100808354040283529160200191610427565b820191905f5260205f20905b81548152906001019060200180831161040a57829003601f168201915b505050505090806002015490806003015f9054906101000a900460ff16905084565b5f600154905090565b60605f5f5f60035f8681526020019081526020015f206040518060800160405290815f820154815260200160018201805461048c90610b68565b80601f01602080910402602001604051908101604052809291908181526020018280546104b890610b68565b80156105035780601f106104da57610100808354040283529160200191610503565b820191905f5260205f20905b8154815290600101906020018083116104e657829003601f168201915b5050505050815260200160028201548152602001600382015f9054906101000a900460ff1615151515815250509050806020015181604001518260600151935093509350509193909250565b5f5f9054906101000a900473ffffffffffffffffffffffffffffffffffffffff1681565b60015481565b6004602052805f5260405f205f915054906101000a900460ff1681565b5f5f9054906101000a900473ffffffffffffffffffffffffffffffffffffffff1673ffffffffffffffffffffffffffffffffffffffff163373ffffffffffffffffffffffffffffffffffffffff1614610624576040517f08c379a000000000000000000000000000000000000000000000000000000000815260040161061b90610c70565b60405180910390fd5b5f6040518060800160405280858152602001848152602001838152602001600115158152509050600281908060018154018082558091505060019003905f5260205f2090600402015f909190919091505f820151815f015560208201518160010190816106919190610e2e565b50604082015181600201556060820151816003015f6101000a81548160ff02191690831515021790555050508060035f8681526020019081526020015f205f820151815f015560208201518160010190816106ec9190610e2e565b50604082015181600201556060820151816003015f6101000a81548160ff02191690831515021790555090505060015f81548092919061072b90610f2a565b919050555050505050565b5f604051905090565b5f5ffd5b5f5ffd5b5f819050919050565b61075981610747565b8114610763575f5ffd5b50565b5f8135905061077481610750565b92915050565b5f6020828403121561078f5761078e61073f565b5b5f61079c84828501610766565b91505092915050565b6107ae81610747565b82525050565b5f81519050919050565b5f82825260208201905092915050565b8281835e5f83830152505050565b5f601f19601f8301169050919050565b5f6107f6826107b4565b61080081856107be565b93506108108185602086016107ce565b610819816107dc565b840191505092915050565b5f8115159050919050565b61083881610824565b82525050565b5f6080820190506108515f8301876107a5565b818103602083015261086381866107ec565b905061087260408301856107a5565b61087f606083018461082f565b95945050505050565b5f60208201905061089b5f8301846107a5565b92915050565b5f6060820190508181035f8301526108b981866107ec565b90506108c860208301856107a5565b6108d5604083018461082f565b949350505050565b5f73ffffffffffffffffffffffffffffffffffffffff82169050919050565b5f610906826108dd565b9050919050565b610916816108fc565b82525050565b5f60208201905061092f5f83018461090d565b92915050565b61093e816108fc565b8114610948575f5ffd5b50565b5f8135905061095981610935565b92915050565b5f602082840312156109745761097361073f565b5b5f6109818482850161094b565b91505092915050565b5f60208201905061099d5f83018461082f565b92915050565b5f5ffd5b5f5ffd5b7f4e487b71000000000000000000000000000000000000000000000000000000005f52604160045260245ffd5b6109e1826107dc565b810181811067ffffffffffffffff82111715610a00576109ff6109ab565b5b80604052505050565b5f610a12610736565b9050610a1e82826109d8565b919050565b5f67ffffffffffffffff821115610a3d57610a3c6109ab565b5b610a46826107dc565b9050602081019050919050565b828183375f83830152505050565b5f610a73610a6e84610a23565b610a09565b905082815260208101848484011115610a8f57610a8e6109a7565b5b610a9a848285610a53565b509392505050565b5f82601f830112610ab657610ab56109a3565b5b8135610ac6848260208601610a61565b91505092915050565b5f5f5f60608486031215610ae657610ae561073f565b5b5f610af386828701610766565b935050602084013567ffffffffffffffff811115610b1457610b13610743565b5b610b2086828701610aa2565b9250506040610b3186828701610766565b9150509250925092565b7f4e487b71000000000000000000000000000000000000000000000000000000005f52602260045260245ffd5b5f6002820490506001821680610b7f57607f821691505b602082108103610b9257610b91610b3b565b5b50919050565b7f416c7265616479207265676973746572656400000000000000000000000000005f82015250565b5f610bcc6012836107be565b9150610bd782610b98565b602082019050919050565b5f6020820190508181035f830152610bf981610bc0565b9050919050565b7f4f6e6c79206f776e65722063616e20706572666f726d207468697320616374695f8201527f6f6e000000000000000000000000000000000000000000000000000000000000602082015250565b5f610c5a6022836107be565b9150610c6582610c00565b604082019050919050565b5f6020820190508181035f830152610c8781610c4e565b9050919050565b5f819050815f5260205f209050919050565b5f6020601f8301049050919050565b5f82821b905092915050565b5f60088302610cea7fffffffffffffffffffffffffffffffffffffffffffffffffffffffffffffffff82610caf565b610cf48683610caf565b95508019841693508086168417925050509392505050565b5f819050919050565b5f610d2f610d2a610d2584610747565b610d0c565b610747565b9050919050565b5f819050919050565b610d4883610d15565b610d5c610d5482610d36565b848454610cbb565b825550505050565b5f5f905090565b610d73610d64565b610d7e818484610d3f565b505050565b5b81811015610da157610d965f82610d6b565b600181019050610d84565b5050565b601f821115610de657610db781610c8e565b610dc084610ca0565b81016020851015610dcf578190505b610de3610ddb85610ca0565b830182610d83565b50505b505050565b5f82821c905092915050565b5f610e065f1984600802610deb565b1980831691505092915050565b5f610e1e8383610df7565b9150826002028217905092915050565b610e37826107b4565b67ffffffffffffffff811115610e5057610e4f6109ab565b5b610e5a8254610b68565b610e65828285610da5565b5f60209050601f831160018114610e96575f8415610e84578287015190505b610e8e8582610e13565b865550610ef5565b601f198416610ea486610c8e565b5f5b82811015610ecb57848901518255600182019150602085019450602081019050610ea6565b86831015610ee85784890151610ee4601f891682610df7565b8355505b6001600288020188555050505b505050505050565b7f4e487b71000000000000000000000000000000000000000000000000000000005f52601160045260245ffd5b5f610f3482610747565b91507fffffffffffffffffffffffffffffffffffffffffffffffffffffffffffffffff8203610f6657610f65610efd565b5b60018201905091905056fea2646970667358221220fb3730e38249074dd0ec6ba461609d569f160f956470bc196343e379f016e29164736f6c634300081f0033",
					"opcodes": "PUSH1 0x80 PUSH1 0x40 MSTORE CALLVALUE DUP1 ISZERO PUSH1 0xE JUMPI PUSH0 PUSH0 REVERT JUMPDEST POP CALLER PUSH0 PUSH0 PUSH2 0x100 EXP DUP2 SLOAD DUP2 PUSH20 0xFFFFFFFFFFFFFFFFFFFFFFFFFFFFFFFFFFFFFFFF MUL NOT AND SWAP1 DUP4 PUSH20 0xFFFFFFFFFFFFFFFFFFFFFFFFFFFFFFFFFFFFFFFF AND MUL OR SWAP1 SSTORE POP PUSH2 0xFA7 DUP1 PUSH2 0x5B PUSH0 CODECOPY PUSH0 RETURN INVALID PUSH1 0x80 PUSH1 0x40 MSTORE CALLVALUE DUP1 ISZERO PUSH2 0xF JUMPI PUSH0 PUSH0 REVERT JUMPDEST POP PUSH1 0x4 CALLDATASIZE LT PUSH2 0x91 JUMPI PUSH0 CALLDATALOAD PUSH1 0xE0 SHR DUP1 PUSH4 0x642F9163 GT PUSH2 0x64 JUMPI DUP1 PUSH4 0x642F9163 EQ PUSH2 0x123 JUMPI DUP1 PUSH4 0x8DA5CB5B EQ PUSH2 0x155 JUMPI DUP1 PUSH4 0x9852BF8E EQ PUSH2 0x173 JUMPI DUP1 PUSH4 0xB2DD5C07 EQ PUSH2 0x191 JUMPI DUP1 PUSH4 0xC1BEA1DB EQ PUSH2 0x1C1 JUMPI PUSH2 0x91 JUMP JUMPDEST DUP1 PUSH4 0x6EAD22E EQ PUSH2 0x95 JUMPI DUP1 PUSH4 0x1AA3A008 EQ PUSH2 0xC8 JUMPI DUP1 PUSH4 0x1C9F7BB9 EQ PUSH2 0xD2 JUMPI DUP1 PUSH4 0x28BCB51A EQ PUSH2 0x105 JUMPI JUMPDEST PUSH0 PUSH0 REVERT JUMPDEST PUSH2 0xAF PUSH1 0x4 DUP1 CALLDATASIZE SUB DUP2 ADD SWAP1 PUSH2 0xAA SWAP2 SWAP1 PUSH2 0x77A JUMP JUMPDEST PUSH2 0x1DD JUMP JUMPDEST PUSH1 0x40 MLOAD PUSH2 0xBF SWAP5 SWAP4 SWAP3 SWAP2 SWAP1 PUSH2 0x83E JUMP JUMPDEST PUSH1 0x40 MLOAD DUP1 SWAP2 SUB SWAP1 RETURN JUMPDEST PUSH2 0xD0 PUSH2 0x2AA JUMP JUMPDEST STOP JUMPDEST PUSH2 0xEC PUSH1 0x4 DUP1 CALLDATASIZE SUB DUP2 ADD SWAP1 PUSH2 0xE7 SWAP2 SWAP1 PUSH2 0x77A JUMP JUMPDEST PUSH2 0x38B JUMP JUMPDEST PUSH1 0x40 MLOAD PUSH2 0xFC SWAP5 SWAP4 SWAP3 SWAP2 SWAP1 PUSH2 0x83E JUMP JUMPDEST PUSH1 0x40 MLOAD DUP1 SWAP2 SUB SWAP1 RETURN JUMPDEST PUSH2 0x10D PUSH2 0x449 JUMP JUMPDEST PUSH1 0x40 MLOAD PUSH2 0x11A SWAP2 SWAP1 PUSH2 0x888 JUMP JUMPDEST PUSH1 0x40 MLOAD DUP1 SWAP2 SUB SWAP1 RETURN JUMPDEST PUSH2 0x13D PUSH1 0x4 DUP1 CALLDATASIZE SUB DUP2 ADD SWAP1 PUSH2 0x138 SWAP2 SWAP1 PUSH2 0x77A JUMP JUMPDEST PUSH2 0x452 JUMP JUMPDEST PUSH1 0x40 MLOAD PUSH2 0x14C SWAP4 SWAP3 SWAP2 SWAP1 PUSH2 0x8A1 JUMP JUMPDEST PUSH1 0x40 MLOAD DUP1 SWAP2 SUB SWAP1 RETURN JUMPDEST PUSH2 0x15D PUSH2 0x54F JUMP JUMPDEST PUSH1 0x40 MLOAD PUSH2 0x16A SWAP2 SWAP1 PUSH2 0x91C JUMP JUMPDEST PUSH1 0x40 MLOAD DUP1 SWAP2 SUB SWAP1 RETURN JUMPDEST PUSH2 0x17B PUSH2 0x573 JUMP JUMPDEST PUSH1 0x40 MLOAD PUSH2 0x188 SWAP2 SWAP1 PUSH2 0x888 JUMP JUMPDEST PUSH1 0x40 MLOAD DUP1 SWAP2 SUB SWAP1 RETURN JUMPDEST PUSH2 0x1AB PUSH1 0x4 DUP1 CALLDATASIZE SUB DUP2 ADD SWAP1 PUSH2 0x1A6 SWAP2 SWAP1 PUSH2 0x95F JUMP JUMPDEST PUSH2 0x579 JUMP JUMPDEST PUSH1 0x40 MLOAD PUSH2 0x1B8 SWAP2 SWAP1 PUSH2 0x98A JUMP JUMPDEST PUSH1 0x40 MLOAD DUP1 SWAP2 SUB SWAP1 RETURN JUMPDEST PUSH2 0x1DB PUSH1 0x4 DUP1 CALLDATASIZE SUB DUP2 ADD SWAP1 PUSH2 0x1D6 SWAP2 SWAP1 PUSH2 0xACF JUMP JUMPDEST PUSH2 0x596 JUMP JUMPDEST STOP JUMPDEST PUSH1 0x2 DUP2 DUP2 SLOAD DUP2 LT PUSH2 0x1EC JUMPI PUSH0 DUP1 REVERT JUMPDEST SWAP1 PUSH0 MSTORE PUSH1 0x20 PUSH0 KECCAK256 SWAP1 PUSH1 0x4 MUL ADD PUSH0 SWAP2 POP SWAP1 POP DUP1 PUSH0 ADD SLOAD SWAP1 DUP1 PUSH1 0x1 ADD DUP1 SLOAD PUSH2 0x211 SWAP1 PUSH2 0xB68 JUMP JUMPDEST DUP1 PUSH1 0x1F ADD PUSH1 0x20 DUP1 SWAP2 DIV MUL PUSH1 0x20 ADD PUSH1 0x40 MLOAD SWAP1 DUP2 ADD PUSH1 0x40 MSTORE DUP1 SWAP3 SWAP2 SWAP1 DUP2 DUP2 MSTORE PUSH1 0x20 ADD DUP3 DUP1 SLOAD PUSH2 0x23D SWAP1 PUSH2 0xB68 JUMP JUMPDEST DUP1 ISZERO PUSH2 0x288 JUMPI DUP1 PUSH1 0x1F LT PUSH2 0x25F JUMPI PUSH2 0x100 DUP1 DUP4 SLOAD DIV MUL DUP4 MSTORE SWAP2 PUSH1 0x20 ADD SWAP2 PUSH2 0x288 JUMP JUMPDEST DUP3 ADD SWAP2 SWAP1 PUSH0 MSTORE PUSH1 0x20 PUSH0 KECCAK256 SWAP1 JUMPDEST DUP2 SLOAD DUP2 MSTORE SWAP1 PUSH1 0x1 ADD SWAP1 PUSH1 0x20 ADD DUP1 DUP4 GT PUSH2 0x26B JUMPI DUP3 SWAP1 SUB PUSH1 0x1F AND DUP3 ADD SWAP2 JUMPDEST POP POP POP POP POP SWAP1 DUP1 PUSH1 0x2 ADD SLOAD SWAP1 DUP1 PUSH1 0x3 ADD PUSH0 SWAP1 SLOAD SWAP1 PUSH2 0x100 EXP SWAP1 DIV PUSH1 0xFF AND SWAP1 POP DUP5 JUMP JUMPDEST PUSH1 0x4 PUSH0 CALLER PUSH20 0xFFFFFFFFFFFFFFFFFFFFFFFFFFFFFFFFFFFFFFFF AND PUSH20 0xFFFFFFFFFFFFFFFFFFFFFFFFFFFFFFFFFFFFFFFF AND DUP2 MSTORE PUSH1 0x20 ADD SWAP1 DUP2 MSTORE PUSH1 0x20 ADD PUSH0 KECCAK256 PUSH0 SWAP1 SLOAD SWAP1 PUSH2 0x100 EXP SWAP1 DIV PUSH1 0xFF AND ISZERO PUSH2 0x334 JUMPI PUSH1 0x40 MLOAD PUSH32 0x8C379A000000000000000000000000000000000000000000000000000000000 DUP2 MSTORE PUSH1 0x4 ADD PUSH2 0x32B SWAP1 PUSH2 0xBE2 JUMP JUMPDEST PUSH1 0x40 MLOAD DUP1 SWAP2 SUB SWAP1 REVERT JUMPDEST PUSH1 0x1 PUSH1 0x4 PUSH0 CALLER PUSH20 0xFFFFFFFFFFFFFFFFFFFFFFFFFFFFFFFFFFFFFFFF AND PUSH20 0xFFFFFFFFFFFFFFFFFFFFFFFFFFFFFFFFFFFFFFFF AND DUP2 MSTORE PUSH1 0x20 ADD SWAP1 DUP2 MSTORE PUSH1 0x20 ADD PUSH0 KECCAK256 PUSH0 PUSH2 0x100 EXP DUP2 SLOAD DUP2 PUSH1 0xFF MUL NOT AND SWAP1 DUP4 ISZERO ISZERO MUL OR SWAP1 SSTORE POP JUMP JUMPDEST PUSH1 0x3 PUSH1 0x20 MSTORE DUP1 PUSH0 MSTORE PUSH1 0x40 PUSH0 KECCAK256 PUSH0 SWAP2 POP SWAP1 POP DUP1 PUSH0 ADD SLOAD SWAP1 DUP1 PUSH1 0x1 ADD DUP1 SLOAD PUSH2 0x3B0 SWAP1 PUSH2 0xB68 JUMP JUMPDEST DUP1 PUSH1 0x1F ADD PUSH1 0x20 DUP1 SWAP2 DIV MUL PUSH1 0x20 ADD PUSH1 0x40 MLOAD SWAP1 DUP2 ADD PUSH1 0x40 MSTORE DUP1 SWAP3 SWAP2 SWAP1 DUP2 DUP2 MSTORE PUSH1 0x20 ADD DUP3 DUP1 SLOAD PUSH2 0x3DC SWAP1 PUSH2 0xB68 JUMP JUMPDEST DUP1 ISZERO PUSH2 0x427 JUMPI DUP1 PUSH1 0x1F LT PUSH2 0x3FE JUMPI PUSH2 0x100 DUP1 DUP4 SLOAD DIV MUL DUP4 MSTORE SWAP2 PUSH1 0x20 ADD SWAP2 PUSH2 0x427 JUMP JUMPDEST DUP3 ADD SWAP2 SWAP1 PUSH0 MSTORE PUSH1 0x20 PUSH0 KECCAK256 SWAP1 JUMPDEST DUP2 SLOAD DUP2 MSTORE SWAP1 PUSH1 0x1 ADD SWAP1 PUSH1 0x20 ADD DUP1 DUP4 GT PUSH2 0x40A JUMPI DUP3 SWAP1 SUB PUSH1 0x1F AND DUP3 ADD SWAP2 JUMPDEST POP POP POP POP POP SWAP1 DUP1 PUSH1 0x2 ADD SLOAD SWAP1 DUP1 PUSH1 0x3 ADD PUSH0 SWAP1 SLOAD SWAP1 PUSH2 0x100 EXP SWAP1 DIV PUSH1 0xFF AND SWAP1 POP DUP5 JUMP JUMPDEST PUSH0 PUSH1 0x1 SLOAD SWAP1 POP SWAP1 JUMP JUMPDEST PUSH1 0x60 PUSH0 PUSH0 PUSH0 PUSH1 0x3 PUSH0 DUP7 DUP2 MSTORE PUSH1 0x20 ADD SWAP1 DUP2 MSTORE PUSH1 0x20 ADD PUSH0 KECCAK256 PUSH1 0x40 MLOAD DUP1 PUSH1 0x80 ADD PUSH1 0x40 MSTORE SWAP1 DUP2 PUSH0 DUP3 ADD SLOAD DUP2 MSTORE PUSH1 0x20 ADD PUSH1 0x1 DUP3 ADD DUP1 SLOAD PUSH2 0x48C SWAP1 PUSH2 0xB68 JUMP JUMPDEST DUP1 PUSH1 0x1F ADD PUSH1 0x20 DUP1 SWAP2 DIV MUL PUSH1 0x20 ADD PUSH1 0x40 MLOAD SWAP1 DUP2 ADD PUSH1 0x40 MSTORE DUP1 SWAP3 SWAP2 SWAP1 DUP2 DUP2 MSTORE PUSH1 0x20 ADD DUP3 DUP1 SLOAD PUSH2 0x4B8 SWAP1 PUSH2 0xB68 JUMP JUMPDEST DUP1 ISZERO PUSH2 0x503 JUMPI DUP1 PUSH1 0x1F LT PUSH2 0x4DA JUMPI PUSH2 0x100 DUP1 DUP4 SLOAD DIV MUL DUP4 MSTORE SWAP2 PUSH1 0x20 ADD SWAP2 PUSH2 0x503 JUMP JUMPDEST DUP3 ADD SWAP2 SWAP1 PUSH0 MSTORE PUSH1 0x20 PUSH0 KECCAK256 SWAP1 JUMPDEST DUP2 SLOAD DUP2 MSTORE SWAP1 PUSH1 0x1 ADD SWAP1 PUSH1 0x20 ADD DUP1 DUP4 GT PUSH2 0x4E6 JUMPI DUP3 SWAP1 SUB PUSH1 0x1F AND DUP3 ADD SWAP2 JUMPDEST POP POP POP POP POP DUP2 MSTORE PUSH1 0x20 ADD PUSH1 0x2 DUP3 ADD SLOAD DUP2 MSTORE PUSH1 0x20 ADD PUSH1 0x3 DUP3 ADD PUSH0 SWAP1 SLOAD SWAP1 PUSH2 0x100 EXP SWAP1 DIV PUSH1 0xFF AND ISZERO ISZERO ISZERO ISZERO DUP2 MSTORE POP POP SWAP1 POP DUP1 PUSH1 0x20 ADD MLOAD DUP2 PUSH1 0x40 ADD MLOAD DUP3 PUSH1 0x60 ADD MLOAD SWAP4 POP SWAP4 POP SWAP4 POP POP SWAP2 SWAP4 SWAP1 SWAP3 POP JUMP JUMPDEST PUSH0 PUSH0 SWAP1 SLOAD SWAP1 PUSH2 0x100 EXP SWAP1 DIV PUSH20 0xFFFFFFFFFFFFFFFFFFFFFFFFFFFFFFFFFFFFFFFF AND DUP2 JUMP JUMPDEST PUSH1 0x1 SLOAD DUP2 JUMP JUMPDEST PUSH1 0x4 PUSH1 0x20 MSTORE DUP1 PUSH0 MSTORE PUSH1 0x40 PUSH0 KECCAK256 PUSH0 SWAP2 POP SLOAD SWAP1 PUSH2 0x100 EXP SWAP1 DIV PUSH1 0xFF AND DUP2 JUMP JUMPDEST PUSH0 PUSH0 SWAP1 SLOAD SWAP1 PUSH2 0x100 EXP SWAP1 DIV PUSH20 0xFFFFFFFFFFFFFFFFFFFFFFFFFFFFFFFFFFFFFFFF AND PUSH20 0xFFFFFFFFFFFFFFFFFFFFFFFFFFFFFFFFFFFFFFFF AND CALLER PUSH20 0xFFFFFFFFFFFFFFFFFFFFFFFFFFFFFFFFFFFFFFFF AND EQ PUSH2 0x624 JUMPI PUSH1 0x40 MLOAD PUSH32 0x8C379A000000000000000000000000000000000000000000000000000000000 DUP2 MSTORE PUSH1 0x4 ADD PUSH2 0x61B SWAP1 PUSH2 0xC70 JUMP JUMPDEST PUSH1 0x40 MLOAD DUP1 SWAP2 SUB SWAP1 REVERT JUMPDEST PUSH0 PUSH1 0x40 MLOAD DUP1 PUSH1 0x80 ADD PUSH1 0x40 MSTORE DUP1 DUP6 DUP2 MSTORE PUSH1 0x20 ADD DUP5 DUP2 MSTORE PUSH1 0x20 ADD DUP4 DUP2 MSTORE PUSH1 0x20 ADD PUSH1 0x1 ISZERO ISZERO DUP2 MSTORE POP SWAP1 POP PUSH1 0x2 DUP2 SWAP1 DUP1 PUSH1 0x1 DUP2 SLOAD ADD DUP1 DUP3 SSTORE DUP1 SWAP2 POP POP PUSH1 0x1 SWAP1 SUB SWAP1 PUSH0 MSTORE PUSH1 0x20 PUSH0 KECCAK256 SWAP1 PUSH1 0x4 MUL ADD PUSH0 SWAP1 SWAP2 SWAP1 SWAP2 SWAP1 SWAP2 POP PUSH0 DUP3 ADD MLOAD DUP2 PUSH0 ADD SSTORE PUSH1 0x20 DUP3 ADD MLOAD DUP2 PUSH1 0x1 ADD SWAP1 DUP2 PUSH2 0x691 SWAP2 SWAP1 PUSH2 0xE2E JUMP JUMPDEST POP PUSH1 0x40 DUP3 ADD MLOAD DUP2 PUSH1 0x2 ADD SSTORE PUSH1 0x60 DUP3 ADD MLOAD DUP2 PUSH1 0x3 ADD PUSH0 PUSH2 0x100 EXP DUP2 SLOAD DUP2 PUSH1 0xFF MUL NOT AND SWAP1 DUP4 ISZERO ISZERO MUL OR SWAP1 SSTORE POP POP POP DUP1 PUSH1 0x3 PUSH0 DUP7 DUP2 MSTORE PUSH1 0x20 ADD SWAP1 DUP2 MSTORE PUSH1 0x20 ADD PUSH0 KECCAK256 PUSH0 DUP3 ADD MLOAD DUP2 PUSH0 ADD SSTORE PUSH1 0x20 DUP3 ADD MLOAD DUP2 PUSH1 0x1 ADD SWAP1 DUP2 PUSH2 0x6EC SWAP2 SWAP1 PUSH2 0xE2E JUMP JUMPDEST POP PUSH1 0x40 DUP3 ADD MLOAD DUP2 PUSH1 0x2 ADD SSTORE PUSH1 0x60 DUP3 ADD MLOAD DUP2 PUSH1 0x3 ADD PUSH0 PUSH2 0x100 EXP DUP2 SLOAD DUP2 PUSH1 0xFF MUL NOT AND SWAP1 DUP4 ISZERO ISZERO MUL OR SWAP1 SSTORE POP SWAP1 POP POP PUSH1 0x1 PUSH0 DUP2 SLOAD DUP1 SWAP3 SWAP2 SWAP1 PUSH2 0x72B SWAP1 PUSH2 0xF2A JUMP JUMPDEST SWAP2 SWAP1 POP SSTORE POP POP POP POP POP JUMP JUMPDEST PUSH0 PUSH1 0x40 MLOAD SWAP1 POP SWAP1 JUMP JUMPDEST PUSH0 PUSH0 REVERT JUMPDEST PUSH0 PUSH0 REVERT JUMPDEST PUSH0 DUP2 SWAP1 POP SWAP2 SWAP1 POP JUMP JUMPDEST PUSH2 0x759 DUP2 PUSH2 0x747 JUMP JUMPDEST DUP2 EQ PUSH2 0x763 JUMPI PUSH0 PUSH0 REVERT JUMPDEST POP JUMP JUMPDEST PUSH0 DUP2 CALLDATALOAD SWAP1 POP PUSH2 0x774 DUP2 PUSH2 0x750 JUMP JUMPDEST SWAP3 SWAP2 POP POP JUMP JUMPDEST PUSH0 PUSH1 0x20 DUP3 DUP5 SUB SLT ISZERO PUSH2 0x78F JUMPI PUSH2 0x78E PUSH2 0x73F JUMP JUMPDEST JUMPDEST PUSH0 PUSH2 0x79C DUP5 DUP3 DUP6 ADD PUSH2 0x766 JUMP JUMPDEST SWAP2 POP POP SWAP3 SWAP2 POP POP JUMP JUMPDEST PUSH2 0x7AE DUP2 PUSH2 0x747 JUMP JUMPDEST DUP3 MSTORE POP POP JUMP JUMPDEST PUSH0 DUP2 MLOAD SWAP1 POP SWAP2 SWAP1 POP JUMP JUMPDEST PUSH0 DUP3 DUP3 MSTORE PUSH1 0x20 DUP3 ADD SWAP1 POP SWAP3 SWAP2 POP POP JUMP JUMPDEST DUP3 DUP2 DUP4 MCOPY PUSH0 DUP4 DUP4 ADD MSTORE POP POP POP JUMP JUMPDEST PUSH0 PUSH1 0x1F NOT PUSH1 0x1F DUP4 ADD AND SWAP1 POP SWAP2 SWAP1 POP JUMP JUMPDEST PUSH0 PUSH2 0x7F6 DUP3 PUSH2 0x7B4 JUMP JUMPDEST PUSH2 0x800 DUP2 DUP6 PUSH2 0x7BE JUMP JUMPDEST SWAP4 POP PUSH2 0x810 DUP2 DUP6 PUSH1 0x20 DUP7 ADD PUSH2 0x7CE JUMP JUMPDEST PUSH2 0x819 DUP2 PUSH2 0x7DC JUMP JUMPDEST DUP5 ADD SWAP2 POP POP SWAP3 SWAP2 POP POP JUMP JUMPDEST PUSH0 DUP2 ISZERO ISZERO SWAP1 POP SWAP2 SWAP1 POP JUMP JUMPDEST PUSH2 0x838 DUP2 PUSH2 0x824 JUMP JUMPDEST DUP3 MSTORE POP POP JUMP JUMPDEST PUSH0 PUSH1 0x80 DUP3 ADD SWAP1 POP PUSH2 0x851 PUSH0 DUP4 ADD DUP8 PUSH2 0x7A5 JUMP JUMPDEST DUP2 DUP2 SUB PUSH1 0x20 DUP4 ADD MSTORE PUSH2 0x863 DUP2 DUP7 PUSH2 0x7EC JUMP JUMPDEST SWAP1 POP PUSH2 0x872 PUSH1 0x40 DUP4 ADD DUP6 PUSH2 0x7A5 JUMP JUMPDEST PUSH2 0x87F PUSH1 0x60 DUP4 ADD DUP5 PUSH2 0x82F JUMP JUMPDEST SWAP6 SWAP5 POP POP POP POP POP JUMP JUMPDEST PUSH0 PUSH1 0x20 DUP3 ADD SWAP1 POP PUSH2 0x89B PUSH0 DUP4 ADD DUP5 PUSH2 0x7A5 JUMP JUMPDEST SWAP3 SWAP2 POP POP JUMP JUMPDEST PUSH0 PUSH1 0x60 DUP3 ADD SWAP1 POP DUP2 DUP2 SUB PUSH0 DUP4 ADD MSTORE PUSH2 0x8B9 DUP2 DUP7 PUSH2 0x7EC JUMP JUMPDEST SWAP1 POP PUSH2 0x8C8 PUSH1 0x20 DUP4 ADD DUP6 PUSH2 0x7A5 JUMP JUMPDEST PUSH2 0x8D5 PUSH1 0x40 DUP4 ADD DUP5 PUSH2 0x82F JUMP JUMPDEST SWAP5 SWAP4 POP POP POP POP JUMP JUMPDEST PUSH0 PUSH20 0xFFFFFFFFFFFFFFFFFFFFFFFFFFFFFFFFFFFFFFFF DUP3 AND SWAP1 POP SWAP2 SWAP1 POP JUMP JUMPDEST PUSH0 PUSH2 0x906 DUP3 PUSH2 0x8DD JUMP JUMPDEST SWAP1 POP SWAP2 SWAP1 POP JUMP JUMPDEST PUSH2 0x916 DUP2 PUSH2 0x8FC JUMP JUMPDEST DUP3 MSTORE POP POP JUMP JUMPDEST PUSH0 PUSH1 0x20 DUP3 ADD SWAP1 POP PUSH2 0x92F PUSH0 DUP4 ADD DUP5 PUSH2 0x90D JUMP JUMPDEST SWAP3 SWAP2 POP POP JUMP JUMPDEST PUSH2 0x93E DUP2 PUSH2 0x8FC JUMP JUMPDEST DUP2 EQ PUSH2 0x948 JUMPI PUSH0 PUSH0 REVERT JUMPDEST POP JUMP JUMPDEST PUSH0 DUP2 CALLDATALOAD SWAP1 POP PUSH2 0x959 DUP2 PUSH2 0x935 JUMP JUMPDEST SWAP3 SWAP2 POP POP JUMP JUMPDEST PUSH0 PUSH1 0x20 DUP3 DUP5 SUB SLT ISZERO PUSH2 0x974 JUMPI PUSH2 0x973 PUSH2 0x73F JUMP JUMPDEST JUMPDEST PUSH0 PUSH2 0x981 DUP5 DUP3 DUP6 ADD PUSH2 0x94B JUMP JUMPDEST SWAP2 POP POP SWAP3 SWAP2 POP POP JUMP JUMPDEST PUSH0 PUSH1 0x20 DUP3 ADD SWAP1 POP PUSH2 0x99D PUSH0 DUP4 ADD DUP5 PUSH2 0x82F JUMP JUMPDEST SWAP3 SWAP2 POP POP JUMP JUMPDEST PUSH0 PUSH0 REVERT JUMPDEST PUSH0 PUSH0 REVERT JUMPDEST PUSH32 0x4E487B7100000000000000000000000000000000000000000000000000000000 PUSH0 MSTORE PUSH1 0x41 PUSH1 0x4 MSTORE PUSH1 0x24 PUSH0 REVERT JUMPDEST PUSH2 0x9E1 DUP3 PUSH2 0x7DC JUMP JUMPDEST DUP2 ADD DUP2 DUP2 LT PUSH8 0xFFFFFFFFFFFFFFFF DUP3 GT OR ISZERO PUSH2 0xA00 JUMPI PUSH2 0x9FF PUSH2 0x9AB JUMP JUMPDEST JUMPDEST DUP1 PUSH1 0x40 MSTORE POP POP POP JUMP JUMPDEST PUSH0 PUSH2 0xA12 PUSH2 0x736 JUMP JUMPDEST SWAP1 POP PUSH2 0xA1E DUP3 DUP3 PUSH2 0x9D8 JUMP JUMPDEST SWAP2 SWAP1 POP JUMP JUMPDEST PUSH0 PUSH8 0xFFFFFFFFFFFFFFFF DUP3 GT ISZERO PUSH2 0xA3D JUMPI PUSH2 0xA3C PUSH2 0x9AB JUMP JUMPDEST JUMPDEST PUSH2 0xA46 DUP3 PUSH2 0x7DC JUMP JUMPDEST SWAP1 POP PUSH1 0x20 DUP2 ADD SWAP1 POP SWAP2 SWAP1 POP JUMP JUMPDEST DUP3 DUP2 DUP4 CALLDATACOPY PUSH0 DUP4 DUP4 ADD MSTORE POP POP POP JUMP JUMPDEST PUSH0 PUSH2 0xA73 PUSH2 0xA6E DUP5 PUSH2 0xA23 JUMP JUMPDEST PUSH2 0xA09 JUMP JUMPDEST SWAP1 POP DUP3 DUP2 MSTORE PUSH1 0x20 DUP2 ADD DUP5 DUP5 DUP5 ADD GT ISZERO PUSH2 0xA8F JUMPI PUSH2 0xA8E PUSH2 0x9A7 JUMP JUMPDEST JUMPDEST PUSH2 0xA9A DUP5 DUP3 DUP6 PUSH2 0xA53 JUMP JUMPDEST POP SWAP4 SWAP3 POP POP POP JUMP JUMPDEST PUSH0 DUP3 PUSH1 0x1F DUP4 ADD SLT PUSH2 0xAB6 JUMPI PUSH2 0xAB5 PUSH2 0x9A3 JUMP JUMPDEST JUMPDEST DUP2 CALLDATALOAD PUSH2 0xAC6 DUP5 DUP3 PUSH1 0x20 DUP7 ADD PUSH2 0xA61 JUMP JUMPDEST SWAP2 POP POP SWAP3 SWAP2 POP POP JUMP JUMPDEST PUSH0 PUSH0 PUSH0 PUSH1 0x60 DUP5 DUP7 SUB SLT ISZERO PUSH2 0xAE6 JUMPI PUSH2 0xAE5 PUSH2 0x73F JUMP JUMPDEST JUMPDEST PUSH0 PUSH2 0xAF3 DUP7 DUP3 DUP8 ADD PUSH2 0x766 JUMP JUMPDEST SWAP4 POP POP PUSH1 0x20 DUP5 ADD CALLDATALOAD PUSH8 0xFFFFFFFFFFFFFFFF DUP2 GT ISZERO PUSH2 0xB14 JUMPI PUSH2 0xB13 PUSH2 0x743 JUMP JUMPDEST JUMPDEST PUSH2 0xB20 DUP7 DUP3 DUP8 ADD PUSH2 0xAA2 JUMP JUMPDEST SWAP3 POP POP PUSH1 0x40 PUSH2 0xB31 DUP7 DUP3 DUP8 ADD PUSH2 0x766 JUMP JUMPDEST SWAP2 POP POP SWAP3 POP SWAP3 POP SWAP3 JUMP JUMPDEST PUSH32 0x4E487B7100000000000000000000000000000000000000000000000000000000 PUSH0 MSTORE PUSH1 0x22 PUSH1 0x4 MSTORE PUSH1 0x24 PUSH0 REVERT JUMPDEST PUSH0 PUSH1 0x2 DUP3 DIV SWAP1 POP PUSH1 0x1 DUP3 AND DUP1 PUSH2 0xB7F JUMPI PUSH1 0x7F DUP3 AND SWAP2 POP JUMPDEST PUSH1 0x20 DUP3 LT DUP2 SUB PUSH2 0xB92 JUMPI PUSH2 0xB91 PUSH2 0xB3B JUMP JUMPDEST JUMPDEST POP SWAP2 SWAP1 POP JUMP JUMPDEST PUSH32 0x416C726561647920726567697374657265640000000000000000000000000000 PUSH0 DUP3 ADD MSTORE POP JUMP JUMPDEST PUSH0 PUSH2 0xBCC PUSH1 0x12 DUP4 PUSH2 0x7BE JUMP JUMPDEST SWAP2 POP PUSH2 0xBD7 DUP3 PUSH2 0xB98 JUMP JUMPDEST PUSH1 0x20 DUP3 ADD SWAP1 POP SWAP2 SWAP1 POP JUMP JUMPDEST PUSH0 PUSH1 0x20 DUP3 ADD SWAP1 POP DUP2 DUP2 SUB PUSH0 DUP4 ADD MSTORE PUSH2 0xBF9 DUP2 PUSH2 0xBC0 JUMP JUMPDEST SWAP1 POP SWAP2 SWAP1 POP JUMP JUMPDEST PUSH32 0x4F6E6C79206F776E65722063616E20706572666F726D20746869732061637469 PUSH0 DUP3 ADD MSTORE PUSH32 0x6F6E000000000000000000000000000000000000000000000000000000000000 PUSH1 0x20 DUP3 ADD MSTORE POP JUMP JUMPDEST PUSH0 PUSH2 0xC5A PUSH1 0x22 DUP4 PUSH2 0x7BE JUMP JUMPDEST SWAP2 POP PUSH2 0xC65 DUP3 PUSH2 0xC00 JUMP JUMPDEST PUSH1 0x40 DUP3 ADD SWAP1 POP SWAP2 SWAP1 POP JUMP JUMPDEST PUSH0 PUSH1 0x20 DUP3 ADD SWAP1 POP DUP2 DUP2 SUB PUSH0 DUP4 ADD MSTORE PUSH2 0xC87 DUP2 PUSH2 0xC4E JUMP JUMPDEST SWAP1 POP SWAP2 SWAP1 POP JUMP JUMPDEST PUSH0 DUP2 SWAP1 POP DUP2 PUSH0 MSTORE PUSH1 0x20 PUSH0 KECCAK256 SWAP1 POP SWAP2 SWAP1 POP JUMP JUMPDEST PUSH0 PUSH1 0x20 PUSH1 0x1F DUP4 ADD DIV SWAP1 POP SWAP2 SWAP1 POP JUMP JUMPDEST PUSH0 DUP3 DUP3 SHL SWAP1 POP SWAP3 SWAP2 POP POP JUMP JUMPDEST PUSH0 PUSH1 0x8 DUP4 MUL PUSH2 0xCEA PUSH32 0xFFFFFFFFFFFFFFFFFFFFFFFFFFFFFFFFFFFFFFFFFFFFFFFFFFFFFFFFFFFFFFFF DUP3 PUSH2 0xCAF JUMP JUMPDEST PUSH2 0xCF4 DUP7 DUP4 PUSH2 0xCAF JUMP JUMPDEST SWAP6 POP DUP1 NOT DUP5 AND SWAP4 POP DUP1 DUP7 AND DUP5 OR SWAP3 POP POP POP SWAP4 SWAP3 POP POP POP JUMP JUMPDEST PUSH0 DUP2 SWAP1 POP SWAP2 SWAP1 POP JUMP JUMPDEST PUSH0 PUSH2 0xD2F PUSH2 0xD2A PUSH2 0xD25 DUP5 PUSH2 0x747 JUMP JUMPDEST PUSH2 0xD0C JUMP JUMPDEST PUSH2 0x747 JUMP JUMPDEST SWAP1 POP SWAP2 SWAP1 POP JUMP JUMPDEST PUSH0 DUP2 SWAP1 POP SWAP2 SWAP1 POP JUMP JUMPDEST PUSH2 0xD48 DUP4 PUSH2 0xD15 JUMP JUMPDEST PUSH2 0xD5C PUSH2 0xD54 DUP3 PUSH2 0xD36 JUMP JUMPDEST DUP5 DUP5 SLOAD PUSH2 0xCBB JUMP JUMPDEST DUP3 SSTORE POP POP POP POP JUMP JUMPDEST PUSH0 PUSH0 SWAP1 POP SWAP1 JUMP JUMPDEST PUSH2 0xD73 PUSH2 0xD64 JUMP JUMPDEST PUSH2 0xD7E DUP2 DUP5 DUP5 PUSH2 0xD3F JUMP JUMPDEST POP POP POP JUMP JUMPDEST JUMPDEST DUP2 DUP2 LT ISZERO PUSH2 0xDA1 JUMPI PUSH2 0xD96 PUSH0 DUP3 PUSH2 0xD6B JUMP JUMPDEST PUSH1 0x1 DUP2 ADD SWAP1 POP PUSH2 0xD84 JUMP JUMPDEST POP POP JUMP JUMPDEST PUSH1 0x1F DUP3 GT ISZERO PUSH2 0xDE6 JUMPI PUSH2 0xDB7 DUP2 PUSH2 0xC8E JUMP JUMPDEST PUSH2 0xDC0 DUP5 PUSH2 0xCA0 JUMP JUMPDEST DUP2 ADD PUSH1 0x20 DUP6 LT ISZERO PUSH2 0xDCF JUMPI DUP2 SWAP1 POP JUMPDEST PUSH2 0xDE3 PUSH2 0xDDB DUP6 PUSH2 0xCA0 JUMP JUMPDEST DUP4 ADD DUP3 PUSH2 0xD83 JUMP JUMPDEST POP POP JUMPDEST POP POP POP JUMP JUMPDEST PUSH0 DUP3 DUP3 SHR SWAP1 POP SWAP3 SWAP2 POP POP JUMP JUMPDEST PUSH0 PUSH2 0xE06 PUSH0 NOT DUP5 PUSH1 0x8 MUL PUSH2 0xDEB JUMP JUMPDEST NOT DUP1 DUP4 AND SWAP2 POP POP SWAP3 SWAP2 POP POP JUMP JUMPDEST PUSH0 PUSH2 0xE1E DUP4 DUP4 PUSH2 0xDF7 JUMP JUMPDEST SWAP2 POP DUP3 PUSH1 0x2 MUL DUP3 OR SWAP1 POP SWAP3 SWAP2 POP POP JUMP JUMPDEST PUSH2 0xE37 DUP3 PUSH2 0x7B4 JUMP JUMPDEST PUSH8 0xFFFFFFFFFFFFFFFF DUP2 GT ISZERO PUSH2 0xE50 JUMPI PUSH2 0xE4F PUSH2 0x9AB JUMP JUMPDEST JUMPDEST PUSH2 0xE5A DUP3 SLOAD PUSH2 0xB68 JUMP JUMPDEST PUSH2 0xE65 DUP3 DUP3 DUP6 PUSH2 0xDA5 JUMP JUMPDEST PUSH0 PUSH1 0x20 SWAP1 POP PUSH1 0x1F DUP4 GT PUSH1 0x1 DUP2 EQ PUSH2 0xE96 JUMPI PUSH0 DUP5 ISZERO PUSH2 0xE84 JUMPI DUP3 DUP8 ADD MLOAD SWAP1 POP JUMPDEST PUSH2 0xE8E DUP6 DUP3 PUSH2 0xE13 JUMP JUMPDEST DUP7 SSTORE POP PUSH2 0xEF5 JUMP JUMPDEST PUSH1 0x1F NOT DUP5 AND PUSH2 0xEA4 DUP7 PUSH2 0xC8E JUMP JUMPDEST PUSH0 JUMPDEST DUP3 DUP2 LT ISZERO PUSH2 0xECB JUMPI DUP5 DUP10 ADD MLOAD DUP3 SSTORE PUSH1 0x1 DUP3 ADD SWAP2 POP PUSH1 0x20 DUP6 ADD SWAP5 POP PUSH1 0x20 DUP2 ADD SWAP1 POP PUSH2 0xEA6 JUMP JUMPDEST DUP7 DUP4 LT ISZERO PUSH2 0xEE8 JUMPI DUP5 DUP10 ADD MLOAD PUSH2 0xEE4 PUSH1 0x1F DUP10 AND DUP3 PUSH2 0xDF7 JUMP JUMPDEST DUP4 SSTORE POP JUMPDEST PUSH1 0x1 PUSH1 0x2 DUP9 MUL ADD DUP9 SSTORE POP POP POP JUMPDEST POP POP POP POP POP POP JUMP JUMPDEST PUSH32 0x4E487B7100000000000000000000000000000000000000000000000000000000 PUSH0 MSTORE PUSH1 0x11 PUSH1 0x4 MSTORE PUSH1 0x24 PUSH0 REVERT JUMPDEST PUSH0 PUSH2 0xF34 DUP3 PUSH2 0x747 JUMP JUMPDEST SWAP2 POP PUSH32 0xFFFFFFFFFFFFFFFFFFFFFFFFFFFFFFFFFFFFFFFFFFFFFFFFFFFFFFFFFFFFFFFF DUP3 SUB PUSH2 0xF66 JUMPI PUSH2 0xF65 PUSH2 0xEFD JUMP JUMPDEST JUMPDEST PUSH1 0x1 DUP3 ADD SWAP1 POP SWAP2 SWAP1 POP JUMP INVALID LOG2 PUSH5 0x6970667358 0x22 SLT KECCAK256 EXTSTATICCALL CALLDATACOPY ADDRESS CALLF 0x8249 SMOD 0x4D 0xD0 EOFCREATE 0x6B LOG4 PUSH2 0x609D JUMP SWAP16 AND 0xF SWAP6 PUSH5 0x70BC196343 CALLF 0x79F0 AND 0xE2 SWAP2 PUSH5 0x736F6C6343 STOP ADDMOD 0x1F STOP CALLER "
				},
				"gasEstimates": {
					"creation": {
						"codeDepositCost": "801400",
						"executionCost": "25100",
						"totalCost": "826500"
					},
					"external": {
						"addStudent(uint256,string,uint256)": "infinite",
						"getStudent(uint256)": "infinite",
						"getTotalStudents()": "2499",
						"owner()": "2529",
						"register()": "26761",
						"registered(address)": "2899",
						"studentById(uint256)": "infinite",
						"students(uint256)": "infinite",
						"totalStudents()": "2469"
					}
				},
				"methodIdentifiers": {
					"addStudent(uint256,string,uint256)": "c1bea1db",
					"getStudent(uint256)": "642f9163",
					"getTotalStudents()": "28bcb51a",
					"owner()": "8da5cb5b",
					"register()": "1aa3a008",
					"registered(address)": "b2dd5c07",
					"studentById(uint256)": "1c9f7bb9",
					"students(uint256)": "06ead22e",
					"totalStudents()": "9852bf8e"
				}
			},
			"storageLayout": {
				"storage": [
					{
						"astId": 3,
						"contract": "Smart_Contract.sol:StudentManagement",
						"label": "owner",
						"offset": 0,
						"slot": "0",
						"type": "t_address"
					},
					{
						"astId": 5,
						"contract": "Smart_Contract.sol:StudentManagement",
						"label": "totalStudents",
						"offset": 0,
						"slot": "1",
						"type": "t_uint256"
					},
					{
						"astId": 18,
						"contract": "Smart_Contract.sol:StudentManagement",
						"label": "students",
						"offset": 0,
						"slot": "2",
						"type": "t_array(t_struct(Student)14_storage)dyn_storage"
					},
					{
						"astId": 23,
						"contract": "Smart_Contract.sol:StudentManagement",
						"label": "studentById",
						"offset": 0,
						"slot": "3",
						"type": "t_mapping(t_uint256,t_struct(Student)14_storage)"
					},
					{
						"astId": 27,
						"contract": "Smart_Contract.sol:StudentManagement",
						"label": "registered",
						"offset": 0,
						"slot": "4",
						"type": "t_mapping(t_address,t_bool)"
					}
				],
				"types": {
					"t_address": {
						"encoding": "inplace",
						"label": "address",
						"numberOfBytes": "20"
					},
					"t_array(t_struct(Student)14_storage)dyn_storage": {
						"base": "t_struct(Student)14_storage",
						"encoding": "dynamic_array",
						"label": "struct StudentManagement.Student[]",
						"numberOfBytes": "32"
					},
					"t_bool": {
						"encoding": "inplace",
						"label": "bool",
						"numberOfBytes": "1"
					},
					"t_mapping(t_address,t_bool)": {
						"encoding": "mapping",
						"key": "t_address",
						"label": "mapping(address => bool)",
						"numberOfBytes": "32",
						"value": "t_bool"
					},
					"t_mapping(t_uint256,t_struct(Student)14_storage)": {
						"encoding": "mapping",
						"key": "t_uint256",
						"label": "mapping(uint256 => struct StudentManagement.Student)",
						"numberOfBytes": "32",
						"value": "t_struct(Student)14_storage"
					},
					"t_string_storage": {
						"encoding": "bytes",
						"label": "string",
						"numberOfBytes": "32"
					},
					"t_struct(Student)14_storage": {
						"encoding": "inplace",
						"label": "struct StudentManagement.Student",
						"members": [
							{
								"astId": 7,
								"contract": "Smart_Contract.sol:StudentManagement",
								"label": "id",
								"offset": 0,
								"slot": "0",
								"type": "t_uint256"
							},
							{
								"astId": 9,
								"contract": "Smart_Contract.sol:StudentManagement",
								"label": "name",
								"offset": 0,
								"slot": "1",
								"type": "t_string_storage"
							},
							{
								"astId": 11,
								"contract": "Smart_Contract.sol:StudentManagement",
								"label": "age",
								"offset": 0,
								"slot": "2",
								"type": "t_uint256"
							},
							{
								"astId": 13,
								"contract": "Smart_Contract.sol:StudentManagement",
								"label": "isEnrolled",
								"offset": 0,
								"slot": "3",
								"type": "t_bool"
							}
						],
						"numberOfBytes": "128"
					},
					"t_uint256": {
						"encoding": "inplace",
						"label": "uint256",
						"numberOfBytes": "32"
					}
				}
			},
			"userdoc": {
				"kind": "user",
				"methods": {},
				"version": 1
			}
		}
	}
}