{
	"crowdfunding.sol": {
		"CrowdFunding": {
			"abi": [
				{
					"inputs": [
						{
							"internalType": "uint256",
							"name": "_goal",
							"type": "uint256"
						},
						{
							"internalType": "uint256",
							"name": "_min",
							"type": "uint256"
						}
					],
					"stateMutability": "nonpayable",
					"type": "constructor"
				},
				{
					"inputs": [
						{
							"internalType": "uint256",
							"name": "_amount",
							"type": "uint256"
						}
					],
					"name": "fund",
					"outputs": [],
					"stateMutability": "nonpayable",
					"type": "function"
				},
				{
					"inputs": [],
					"name": "getBalance",
					"outputs": [
						{
							"internalType": "uint256",
							"name": "",
							"type": "uint256"
						}
					],
					"stateMutability": "view",
					"type": "function"
				},
				{
					"inputs": [],
					"name": "goal",
					"outputs": [
						{
							"internalType": "uint256",
							"name": "",
							"type": "uint256"
						}
					],
					"stateMutability": "view",
					"type": "function"
				},
				{
					"inputs": [
						{
							"internalType": "uint256",
							"name": "_amount",
							"type": "uint256"
						}
					],
					"name": "refund",
					"outputs": [
						{
							"internalType": "uint256",
							"name": "",
							"type": "uint256"
						}
					],
					"stateMutability": "view",
					"type": "function"
				},
				{
					"inputs": [],
					"name": "total_balance",
					"outputs": [
						{
							"internalType": "uint256",
							"name": "",
							"type": "uint256"
						}
					],
					"stateMutability": "view",
					"type": "function"
				},
				{
					"inputs": [],
					"name": "totalfund",
					"outputs": [
						{
							"internalType": "uint256",
							"name": "",
							"type": "uint256"
						}
					],
					"stateMutability": "view",
					"type": "function"
				},
				{
					"inputs": [
						{
							"internalType": "uint256",
							"name": "_amount",
							"type": "uint256"
						}
					],
					"name": "withdraw",
					"outputs": [],
					"stateMutability": "nonpayable",
					"type": "function"
				}
			],
			"devdoc": {
				"kind": "dev",
				"methods": {},
				"version": 1
			},
			"evm": {
				"assembly": "    /* \"crowdfunding.sol\":60:718  contract CrowdFunding {\r... */\n  mstore(0x40, 0x80)\n    /* \"crowdfunding.sol\":357:361  2000 */\n  0x07d0\n    /* \"crowdfunding.sol\":329:361  uint public total_balance = 2000 */\n  0x04\n  sstore\n    /* \"crowdfunding.sol\":175:222  constructor (uint _goal,uint _min){\r... */\n  callvalue\n  dup1\n  iszero\n  tag_1\n  jumpi\n  0x00\n  dup1\n  revert\ntag_1:\n  pop\n  mload(0x40)\n  sub(codesize, bytecodeSize)\n  dup1\n  bytecodeSize\n  dup4\n  codecopy\n  dup2\n  dup2\n  add\n  0x40\n  mstore\n  dup2\n  add\n  swap1\n  tag_2\n  swap2\n  swap1\n  tag_3\n  jump\t// in\ntag_2:\n  pop\n  pop\n    /* \"crowdfunding.sol\":60:718  contract CrowdFunding {\r... */\n  jump(tag_6)\n    /* \"#utility.yul\":7:150   */\ntag_8:\n  0x00\n    /* \"#utility.yul\":95:101   */\n  dup2\n    /* \"#utility.yul\":89:102   */\n  mload\n    /* \"#utility.yul\":80:102   */\n  swap1\n  pop\n    /* \"#utility.yul\":111:144   */\n  tag_10\n    /* \"#utility.yul\":138:143   */\n  dup2\n    /* \"#utility.yul\":111:144   */\n  tag_11\n  jump\t// in\ntag_10:\n    /* \"#utility.yul\":70:150   */\n  swap3\n  swap2\n  pop\n  pop\n  jump\t// out\n    /* \"#utility.yul\":156:596   */\ntag_3:\n  0x00\n  dup1\n    /* \"#utility.yul\":292:294   */\n  0x40\n    /* \"#utility.yul\":280:289   */\n  dup4\n    /* \"#utility.yul\":271:278   */\n  dup6\n    /* \"#utility.yul\":267:290   */\n  sub\n    /* \"#utility.yul\":263:295   */\n  slt\n    /* \"#utility.yul\":260:262   */\n  iszero\n  tag_13\n  jumpi\n    /* \"#utility.yul\":308:309   */\n  0x00\n    /* \"#utility.yul\":305:306   */\n  dup1\n    /* \"#utility.yul\":298:310   */\n  revert\n    /* \"#utility.yul\":260:262   */\ntag_13:\n    /* \"#utility.yul\":351:352   */\n  0x00\n    /* \"#utility.yul\":376:440   */\n  tag_14\n    /* \"#utility.yul\":432:439   */\n  dup6\n    /* \"#utility.yul\":423:429   */\n  dup3\n    /* \"#utility.yul\":412:421   */\n  dup7\n    /* \"#utility.yul\":408:430   */\n  add\n    /* \"#utility.yul\":376:440   */\n  tag_8\n  jump\t// in\ntag_14:\n    /* \"#utility.yul\":366:440   */\n  swap3\n  pop\n    /* \"#utility.yul\":322:450   */\n  pop\n    /* \"#utility.yul\":489:491   */\n  0x20\n    /* \"#utility.yul\":515:579   */\n  tag_15\n    /* \"#utility.yul\":571:578   */\n  dup6\n    /* \"#utility.yul\":562:568   */\n  dup3\n    /* \"#utility.yul\":551:560   */\n  dup7\n    /* \"#utility.yul\":547:569   */\n  add\n    /* \"#utility.yul\":515:579   */\n  tag_8\n  jump\t// in\ntag_15:\n    /* \"#utility.yul\":505:579   */\n  swap2\n  pop\n    /* \"#utility.yul\":460:589   */\n  pop\n    /* \"#utility.yul\":250:596   */\n  swap3\n  pop\n  swap3\n  swap1\n  pop\n  jump\t// out\n    /* \"#utility.yul\":602:679   */\ntag_16:\n  0x00\n    /* \"#utility.yul\":668:673   */\n  dup2\n    /* \"#utility.yul\":657:673   */\n  swap1\n  pop\n    /* \"#utility.yul\":647:679   */\n  swap2\n  swap1\n  pop\n  jump\t// out\n    /* \"#utility.yul\":685:807   */\ntag_11:\n    /* \"#utility.yul\":758:782   */\n  tag_19\n    /* \"#utility.yul\":776:781   */\n  dup2\n    /* \"#utility.yul\":758:782   */\n  tag_16\n  jump\t// in\ntag_19:\n    /* \"#utility.yul\":751:756   */\n  dup2\n    /* \"#utility.yul\":748:783   */\n  eq\n    /* \"#utility.yul\":738:740   */\n  tag_20\n  jumpi\n    /* \"#utility.yul\":797:798   */\n  0x00\n    /* \"#utility.yul\":794:795   */\n  dup1\n    /* \"#utility.yul\":787:799   */\n  revert\n    /* \"#utility.yul\":738:740   */\ntag_20:\n    /* \"#utility.yul\":728:807   */\n  pop\n  jump\t// out\n    /* \"crowdfunding.sol\":60:718  contract CrowdFunding {\r... */\ntag_6:\n  dataSize(sub_0)\n  dup1\n  dataOffset(sub_0)\n  0x00\n  codecopy\n  0x00\n  return\nstop\n\nsub_0: assembly {\n        /* \"crowdfunding.sol\":60:718  contract CrowdFunding {\r... */\n      mstore(0x40, 0x80)\n      callvalue\n      dup1\n      iszero\n      tag_1\n      jumpi\n      0x00\n      dup1\n      revert\n    tag_1:\n      pop\n      jumpi(tag_2, lt(calldatasize, 0x04))\n      shr(0xe0, calldataload(0x00))\n      dup1\n      0x40193883\n      gt\n      tag_10\n      jumpi\n      dup1\n      0x40193883\n      eq\n      tag_6\n      jumpi\n      dup1\n      0x5c409866\n      eq\n      tag_7\n      jumpi\n      dup1\n      0xca1d209d\n      eq\n      tag_8\n      jumpi\n      dup1\n      0xd2ff791f\n      eq\n      tag_9\n      jumpi\n      jump(tag_2)\n    tag_10:\n      dup1\n      0x12065fe0\n      eq\n      tag_3\n      jumpi\n      dup1\n      0x278ecde1\n      eq\n      tag_4\n      jumpi\n      dup1\n      0x2e1a7d4d\n      eq\n      tag_5\n      jumpi\n    tag_2:\n      0x00\n      dup1\n      revert\n        /* \"crowdfunding.sol\":520:602  function getBalance() public view returns (uint) {\r... */\n    tag_3:\n      tag_11\n      tag_12\n      jump\t// in\n    tag_11:\n      mload(0x40)\n      tag_13\n      swap2\n      swap1\n      tag_14\n      jump\t// in\n    tag_13:\n      mload(0x40)\n      dup1\n      swap2\n      sub\n      swap1\n      return\n        /* \"crowdfunding.sol\":606:715  function refund(uint _amount) public view returns (uint) {\r... */\n    tag_4:\n      tag_15\n      0x04\n      dup1\n      calldatasize\n      sub\n      dup2\n      add\n      swap1\n      tag_16\n      swap2\n      swap1\n      tag_17\n      jump\t// in\n    tag_16:\n      tag_18\n      jump\t// in\n    tag_15:\n      mload(0x40)\n      tag_19\n      swap2\n      swap1\n      tag_14\n      jump\t// in\n    tag_19:\n      mload(0x40)\n      dup1\n      swap2\n      sub\n      swap1\n      return\n        /* \"crowdfunding.sol\":440:516  function withdraw(uint _amount) public {\r... */\n    tag_5:\n      tag_20\n      0x04\n      dup1\n      calldatasize\n      sub\n      dup2\n      add\n      swap1\n      tag_21\n      swap2\n      swap1\n      tag_17\n      jump\t// in\n    tag_21:\n      tag_22\n      jump\t// in\n    tag_20:\n      stop\n        /* \"crowdfunding.sol\":108:124  uint public goal */\n    tag_6:\n      tag_23\n      tag_24\n      jump\t// in\n    tag_23:\n      mload(0x40)\n      tag_25\n      swap2\n      swap1\n      tag_14\n      jump\t// in\n    tag_25:\n      mload(0x40)\n      dup1\n      swap2\n      sub\n      swap1\n      return\n        /* \"crowdfunding.sol\":129:150  uint public totalfund */\n    tag_7:\n      tag_26\n      tag_27\n      jump\t// in\n    tag_26:\n      mload(0x40)\n      tag_28\n      swap2\n      swap1\n      tag_14\n      jump\t// in\n    tag_28:\n      mload(0x40)\n      dup1\n      swap2\n      sub\n      swap1\n      return\n        /* \"crowdfunding.sol\":366:437  function fund (uint _amount) public  {\r... */\n    tag_8:\n      tag_29\n      0x04\n      dup1\n      calldatasize\n      sub\n      dup2\n      add\n      swap1\n      tag_30\n      swap2\n      swap1\n      tag_17\n      jump\t// in\n    tag_30:\n      tag_31\n      jump\t// in\n    tag_29:\n      stop\n        /* \"crowdfunding.sol\":329:361  uint public total_balance = 2000 */\n    tag_9:\n      tag_32\n      tag_33\n      jump\t// in\n    tag_32:\n      mload(0x40)\n      tag_34\n      swap2\n      swap1\n      tag_14\n      jump\t// in\n    tag_34:\n      mload(0x40)\n      dup1\n      swap2\n      sub\n      swap1\n      return\n        /* \"crowdfunding.sol\":520:602  function getBalance() public view returns (uint) {\r... */\n    tag_12:\n        /* \"crowdfunding.sol\":563:567  uint */\n      0x00\n        /* \"crowdfunding.sol\":583:596  total_balance */\n      sload(0x04)\n        /* \"crowdfunding.sol\":576:596  return total_balance */\n      swap1\n      pop\n        /* \"crowdfunding.sol\":520:602  function getBalance() public view returns (uint) {\r... */\n      swap1\n      jump\t// out\n        /* \"crowdfunding.sol\":606:715  function refund(uint _amount) public view returns (uint) {\r... */\n    tag_18:\n        /* \"crowdfunding.sol\":657:661  uint */\n      0x00\n        /* \"crowdfunding.sol\":694:701  _amount */\n      dup2\n        /* \"crowdfunding.sol\":678:691  total_balance */\n      sload(0x04)\n        /* \"crowdfunding.sol\":678:701  total_balance - _amount */\n      tag_37\n      swap2\n      swap1\n      tag_38\n      jump\t// in\n    tag_37:\n        /* \"crowdfunding.sol\":670:702  return (total_balance - _amount) */\n      swap1\n      pop\n        /* \"crowdfunding.sol\":606:715  function refund(uint _amount) public view returns (uint) {\r... */\n      swap2\n      swap1\n      pop\n      jump\t// out\n        /* \"crowdfunding.sol\":440:516  function withdraw(uint _amount) public {\r... */\n    tag_22:\n        /* \"crowdfunding.sol\":503:510  _amount */\n      dup1\n        /* \"crowdfunding.sol\":486:499  total_balance */\n      0x04\n      0x00\n        /* \"crowdfunding.sol\":486:510  total_balance -= _amount */\n      dup3\n      dup3\n      sload\n      tag_40\n      swap2\n      swap1\n      tag_38\n      jump\t// in\n    tag_40:\n      swap3\n      pop\n      pop\n      dup2\n      swap1\n      sstore\n      pop\n        /* \"crowdfunding.sol\":440:516  function withdraw(uint _amount) public {\r... */\n      pop\n      jump\t// out\n        /* \"crowdfunding.sol\":108:124  uint public goal */\n    tag_24:\n      sload(0x01)\n      dup2\n      jump\t// out\n        /* \"crowdfunding.sol\":129:150  uint public totalfund */\n    tag_27:\n      sload(0x02)\n      dup2\n      jump\t// out\n        /* \"crowdfunding.sol\":366:437  function fund (uint _amount) public  {\r... */\n    tag_31:\n        /* \"crowdfunding.sol\":425:432  _amount */\n      dup1\n        /* \"crowdfunding.sol\":408:421  total_balance */\n      0x04\n      0x00\n        /* \"crowdfunding.sol\":408:432  total_balance += _amount */\n      dup3\n      dup3\n      sload\n      tag_42\n      swap2\n      swap1\n      tag_43\n      jump\t// in\n    tag_42:\n      swap3\n      pop\n      pop\n      dup2\n      swap1\n      sstore\n      pop\n        /* \"crowdfunding.sol\":366:437  function fund (uint _amount) public  {\r... */\n      pop\n      jump\t// out\n        /* \"crowdfunding.sol\":329:361  uint public total_balance = 2000 */\n    tag_33:\n      sload(0x04)\n      dup2\n      jump\t// out\n        /* \"#utility.yul\":7:146   */\n    tag_45:\n      0x00\n        /* \"#utility.yul\":91:97   */\n      dup2\n        /* \"#utility.yul\":78:98   */\n      calldataload\n        /* \"#utility.yul\":69:98   */\n      swap1\n      pop\n        /* \"#utility.yul\":107:140   */\n      tag_47\n        /* \"#utility.yul\":134:139   */\n      dup2\n        /* \"#utility.yul\":107:140   */\n      tag_48\n      jump\t// in\n    tag_47:\n        /* \"#utility.yul\":59:146   */\n      swap3\n      swap2\n      pop\n      pop\n      jump\t// out\n        /* \"#utility.yul\":152:414   */\n    tag_17:\n      0x00\n        /* \"#utility.yul\":260:262   */\n      0x20\n        /* \"#utility.yul\":248:257   */\n      dup3\n        /* \"#utility.yul\":239:246   */\n      dup5\n        /* \"#utility.yul\":235:258   */\n      sub\n        /* \"#utility.yul\":231:263   */\n      slt\n        /* \"#utility.yul\":228:230   */\n      iszero\n      tag_50\n      jumpi\n        /* \"#utility.yul\":276:277   */\n      0x00\n        /* \"#utility.yul\":273:274   */\n      dup1\n        /* \"#utility.yul\":266:278   */\n      revert\n        /* \"#utility.yul\":228:230   */\n    tag_50:\n        /* \"#utility.yul\":319:320   */\n      0x00\n        /* \"#utility.yul\":344:397   */\n      tag_51\n        /* \"#utility.yul\":389:396   */\n      dup5\n        /* \"#utility.yul\":380:386   */\n      dup3\n        /* \"#utility.yul\":369:378   */\n      dup6\n        /* \"#utility.yul\":365:387   */\n      add\n        /* \"#utility.yul\":344:397   */\n      tag_45\n      jump\t// in\n    tag_51:\n        /* \"#utility.yul\":334:397   */\n      swap2\n      pop\n        /* \"#utility.yul\":290:407   */\n      pop\n        /* \"#utility.yul\":218:414   */\n      swap3\n      swap2\n      pop\n      pop\n      jump\t// out\n        /* \"#utility.yul\":420:538   */\n    tag_52:\n        /* \"#utility.yul\":507:531   */\n      tag_54\n        /* \"#utility.yul\":525:530   */\n      dup2\n        /* \"#utility.yul\":507:531   */\n      tag_55\n      jump\t// in\n    tag_54:\n        /* \"#utility.yul\":502:505   */\n      dup3\n        /* \"#utility.yul\":495:532   */\n      mstore\n        /* \"#utility.yul\":485:538   */\n      pop\n      pop\n      jump\t// out\n        /* \"#utility.yul\":544:766   */\n    tag_14:\n      0x00\n        /* \"#utility.yul\":675:677   */\n      0x20\n        /* \"#utility.yul\":664:673   */\n      dup3\n        /* \"#utility.yul\":660:678   */\n      add\n        /* \"#utility.yul\":652:678   */\n      swap1\n      pop\n        /* \"#utility.yul\":688:759   */\n      tag_57\n        /* \"#utility.yul\":756:757   */\n      0x00\n        /* \"#utility.yul\":745:754   */\n      dup4\n        /* \"#utility.yul\":741:758   */\n      add\n        /* \"#utility.yul\":732:738   */\n      dup5\n        /* \"#utility.yul\":688:759   */\n      tag_52\n      jump\t// in\n    tag_57:\n        /* \"#utility.yul\":642:766   */\n      swap3\n      swap2\n      pop\n      pop\n      jump\t// out\n        /* \"#utility.yul\":772:1077   */\n    tag_43:\n      0x00\n        /* \"#utility.yul\":831:851   */\n      tag_59\n        /* \"#utility.yul\":849:850   */\n      dup3\n        /* \"#utility.yul\":831:851   */\n      tag_55\n      jump\t// in\n    tag_59:\n        /* \"#utility.yul\":826:851   */\n      swap2\n      pop\n        /* \"#utility.yul\":865:885   */\n      tag_60\n        /* \"#utility.yul\":883:884   */\n      dup4\n        /* \"#utility.yul\":865:885   */\n      tag_55\n      jump\t// in\n    tag_60:\n        /* \"#utility.yul\":860:885   */\n      swap3\n      pop\n        /* \"#utility.yul\":1019:1020   */\n      dup3\n        /* \"#utility.yul\":951:1017   */\n      0xffffffffffffffffffffffffffffffffffffffffffffffffffffffffffffffff\n        /* \"#utility.yul\":947:1021   */\n      sub\n        /* \"#utility.yul\":944:945   */\n      dup3\n        /* \"#utility.yul\":941:1022   */\n      gt\n        /* \"#utility.yul\":938:940   */\n      iszero\n      tag_61\n      jumpi\n        /* \"#utility.yul\":1025:1043   */\n      tag_62\n      tag_63\n      jump\t// in\n    tag_62:\n        /* \"#utility.yul\":938:940   */\n    tag_61:\n        /* \"#utility.yul\":1069:1070   */\n      dup3\n        /* \"#utility.yul\":1066:1067   */\n      dup3\n        /* \"#utility.yul\":1062:1071   */\n      add\n        /* \"#utility.yul\":1055:1071   */\n      swap1\n      pop\n        /* \"#utility.yul\":816:1077   */\n      swap3\n      swap2\n      pop\n      pop\n      jump\t// out\n        /* \"#utility.yul\":1083:1274   */\n    tag_38:\n      0x00\n        /* \"#utility.yul\":1143:1163   */\n      tag_65\n        /* \"#utility.yul\":1161:1162   */\n      dup3\n        /* \"#utility.yul\":1143:1163   */\n      tag_55\n      jump\t// in\n    tag_65:\n        /* \"#utility.yul\":1138:1163   */\n      swap2\n      pop\n        /* \"#utility.yul\":1177:1197   */\n      tag_66\n        /* \"#utility.yul\":1195:1196   */\n      dup4\n        /* \"#utility.yul\":1177:1197   */\n      tag_55\n      jump\t// in\n    tag_66:\n        /* \"#utility.yul\":1172:1197   */\n      swap3\n      pop\n        /* \"#utility.yul\":1216:1217   */\n      dup3\n        /* \"#utility.yul\":1213:1214   */\n      dup3\n        /* \"#utility.yul\":1210:1218   */\n      lt\n        /* \"#utility.yul\":1207:1209   */\n      iszero\n      tag_67\n      jumpi\n        /* \"#utility.yul\":1221:1239   */\n      tag_68\n      tag_63\n      jump\t// in\n    tag_68:\n        /* \"#utility.yul\":1207:1209   */\n    tag_67:\n        /* \"#utility.yul\":1266:1267   */\n      dup3\n        /* \"#utility.yul\":1263:1264   */\n      dup3\n        /* \"#utility.yul\":1259:1268   */\n      sub\n        /* \"#utility.yul\":1251:1268   */\n      swap1\n      pop\n        /* \"#utility.yul\":1128:1274   */\n      swap3\n      swap2\n      pop\n      pop\n      jump\t// out\n        /* \"#utility.yul\":1280:1357   */\n    tag_55:\n      0x00\n        /* \"#utility.yul\":1346:1351   */\n      dup2\n        /* \"#utility.yul\":1335:1351   */\n      swap1\n      pop\n        /* \"#utility.yul\":1325:1357   */\n      swap2\n      swap1\n      pop\n      jump\t// out\n        /* \"#utility.yul\":1363:1543   */\n    tag_63:\n        /* \"#utility.yul\":1411:1488   */\n      0x4e487b7100000000000000000000000000000000000000000000000000000000\n        /* \"#utility.yul\":1408:1409   */\n      0x00\n        /* \"#utility.yul\":1401:1489   */\n      mstore\n        /* \"#utility.yul\":1508:1512   */\n      0x11\n        /* \"#utility.yul\":1505:1506   */\n      0x04\n        /* \"#utility.yul\":1498:1513   */\n      mstore\n        /* \"#utility.yul\":1532:1536   */\n      0x24\n        /* \"#utility.yul\":1529:1530   */\n      0x00\n        /* \"#utility.yul\":1522:1537   */\n      revert\n        /* \"#utility.yul\":1549:1671   */\n    tag_48:\n        /* \"#utility.yul\":1622:1646   */\n      tag_72\n        /* \"#utility.yul\":1640:1645   */\n      dup2\n        /* \"#utility.yul\":1622:1646   */\n      tag_55\n      jump\t// in\n    tag_72:\n        /* \"#utility.yul\":1615:1620   */\n      dup2\n        /* \"#utility.yul\":1612:1647   */\n      eq\n        /* \"#utility.yul\":1602:1604   */\n      tag_73\n      jumpi\n        /* \"#utility.yul\":1661:1662   */\n      0x00\n        /* \"#utility.yul\":1658:1659   */\n      dup1\n        /* \"#utility.yul\":1651:1663   */\n      revert\n        /* \"#utility.yul\":1602:1604   */\n    tag_73:\n        /* \"#utility.yul\":1592:1671   */\n      pop\n      jump\t// out\n\n    auxdata: 0xa2646970667358221220f9d695bc0959467be7f2a844b0adf0bd100b2b3ddac9cbf984774a72f9be18f464736f6c63430008000033\n}\n",
				"bytecode": {
					"linkReferences": {},
					"object": "60806040526107d060045534801561001657600080fd5b5060405161040538038061040583398181016040528101906100389190610054565b50506100b1565b60008151905061004e8161009a565b92915050565b6000806040838503121561006757600080fd5b60006100758582860161003f565b92505060206100868582860161003f565b9150509250929050565b6000819050919050565b6100a381610090565b81146100ae57600080fd5b50565b610345806100c06000396000f3fe608060405234801561001057600080fd5b506004361061007d5760003560e01c8063401938831161005b57806340193883146100ec5780635c4098661461010a578063ca1d209d14610128578063d2ff791f146101445761007d565b806312065fe014610082578063278ecde1146100a05780632e1a7d4d146100d0575b600080fd5b61008a610162565b604051610097919061021a565b60405180910390f35b6100ba60048036038101906100b591906101e2565b61016c565b6040516100c7919061021a565b60405180910390f35b6100ea60048036038101906100e591906101e2565b610183565b005b6100f461019f565b604051610101919061021a565b60405180910390f35b6101126101a5565b60405161011f919061021a565b60405180910390f35b610142600480360381019061013d91906101e2565b6101ab565b005b61014c6101c7565b604051610159919061021a565b60405180910390f35b6000600454905090565b60008160045461017c919061028b565b9050919050565b8060046000828254610195919061028b565b9250508190555050565b60015481565b60025481565b80600460008282546101bd9190610235565b9250508190555050565b60045481565b6000813590506101dc816102f8565b92915050565b6000602082840312156101f457600080fd5b6000610202848285016101cd565b91505092915050565b610214816102bf565b82525050565b600060208201905061022f600083018461020b565b92915050565b6000610240826102bf565b915061024b836102bf565b9250827fffffffffffffffffffffffffffffffffffffffffffffffffffffffffffffffff038211156102805761027f6102c9565b5b828201905092915050565b6000610296826102bf565b91506102a1836102bf565b9250828210156102b4576102b36102c9565b5b828203905092915050565b6000819050919050565b7f4e487b7100000000000000000000000000000000000000000000000000000000600052601160045260246000fd5b610301816102bf565b811461030c57600080fd5b5056fea2646970667358221220f9d695bc0959467be7f2a844b0adf0bd100b2b3ddac9cbf984774a72f9be18f464736f6c63430008000033",
					"opcodes": "PUSH1 0x80 PUSH1 0x40 MSTORE PUSH2 0x7D0 PUSH1 0x4 SSTORE CALLVALUE DUP1 ISZERO PUSH2 0x16 JUMPI PUSH1 0x0 DUP1 REVERT JUMPDEST POP PUSH1 0x40 MLOAD PUSH2 0x405 CODESIZE SUB DUP1 PUSH2 0x405 DUP4 CODECOPY DUP2 DUP2 ADD PUSH1 0x40 MSTORE DUP2 ADD SWAP1 PUSH2 0x38 SWAP2 SWAP1 PUSH2 0x54 JUMP JUMPDEST POP POP PUSH2 0xB1 JUMP JUMPDEST PUSH1 0x0 DUP2 MLOAD SWAP1 POP PUSH2 0x4E DUP2 PUSH2 0x9A JUMP JUMPDEST SWAP3 SWAP2 POP POP JUMP JUMPDEST PUSH1 0x0 DUP1 PUSH1 0x40 DUP4 DUP6 SUB SLT ISZERO PUSH2 0x67 JUMPI PUSH1 0x0 DUP1 REVERT JUMPDEST PUSH1 0x0 PUSH2 0x75 DUP6 DUP3 DUP7 ADD PUSH2 0x3F JUMP JUMPDEST SWAP3 POP POP PUSH1 0x20 PUSH2 0x86 DUP6 DUP3 DUP7 ADD PUSH2 0x3F JUMP JUMPDEST SWAP2 POP POP SWAP3 POP SWAP3 SWAP1 POP JUMP JUMPDEST PUSH1 0x0 DUP2 SWAP1 POP SWAP2 SWAP1 POP JUMP JUMPDEST PUSH2 0xA3 DUP2 PUSH2 0x90 JUMP JUMPDEST DUP2 EQ PUSH2 0xAE JUMPI PUSH1 0x0 DUP1 REVERT JUMPDEST POP JUMP JUMPDEST PUSH2 0x345 DUP1 PUSH2 0xC0 PUSH1 0x0 CODECOPY PUSH1 0x0 RETURN INVALID PUSH1 0x80 PUSH1 0x40 MSTORE CALLVALUE DUP1 ISZERO PUSH2 0x10 JUMPI PUSH1 0x0 DUP1 REVERT JUMPDEST POP PUSH1 0x4 CALLDATASIZE LT PUSH2 0x7D JUMPI PUSH1 0x0 CALLDATALOAD PUSH1 0xE0 SHR DUP1 PUSH4 0x40193883 GT PUSH2 0x5B JUMPI DUP1 PUSH4 0x40193883 EQ PUSH2 0xEC JUMPI DUP1 PUSH4 0x5C409866 EQ PUSH2 0x10A JUMPI DUP1 PUSH4 0xCA1D209D EQ PUSH2 0x128 JUMPI DUP1 PUSH4 0xD2FF791F EQ PUSH2 0x144 JUMPI PUSH2 0x7D JUMP JUMPDEST DUP1 PUSH4 0x12065FE0 EQ PUSH2 0x82 JUMPI DUP1 PUSH4 0x278ECDE1 EQ PUSH2 0xA0 JUMPI DUP1 PUSH4 0x2E1A7D4D EQ PUSH2 0xD0 JUMPI JUMPDEST PUSH1 0x0 DUP1 REVERT JUMPDEST PUSH2 0x8A PUSH2 0x162 JUMP JUMPDEST PUSH1 0x40 MLOAD PUSH2 0x97 SWAP2 SWAP1 PUSH2 0x21A JUMP JUMPDEST PUSH1 0x40 MLOAD DUP1 SWAP2 SUB SWAP1 RETURN JUMPDEST PUSH2 0xBA PUSH1 0x4 DUP1 CALLDATASIZE SUB DUP2 ADD SWAP1 PUSH2 0xB5 SWAP2 SWAP1 PUSH2 0x1E2 JUMP JUMPDEST PUSH2 0x16C JUMP JUMPDEST PUSH1 0x40 MLOAD PUSH2 0xC7 SWAP2 SWAP1 PUSH2 0x21A JUMP JUMPDEST PUSH1 0x40 MLOAD DUP1 SWAP2 SUB SWAP1 RETURN JUMPDEST PUSH2 0xEA PUSH1 0x4 DUP1 CALLDATASIZE SUB DUP2 ADD SWAP1 PUSH2 0xE5 SWAP2 SWAP1 PUSH2 0x1E2 JUMP JUMPDEST PUSH2 0x183 JUMP JUMPDEST STOP JUMPDEST PUSH2 0xF4 PUSH2 0x19F JUMP JUMPDEST PUSH1 0x40 MLOAD PUSH2 0x101 SWAP2 SWAP1 PUSH2 0x21A JUMP JUMPDEST PUSH1 0x40 MLOAD DUP1 SWAP2 SUB SWAP1 RETURN JUMPDEST PUSH2 0x112 PUSH2 0x1A5 JUMP JUMPDEST PUSH1 0x40 MLOAD PUSH2 0x11F SWAP2 SWAP1 PUSH2 0x21A JUMP JUMPDEST PUSH1 0x40 MLOAD DUP1 SWAP2 SUB SWAP1 RETURN JUMPDEST PUSH2 0x142 PUSH1 0x4 DUP1 CALLDATASIZE SUB DUP2 ADD SWAP1 PUSH2 0x13D SWAP2 SWAP1 PUSH2 0x1E2 JUMP JUMPDEST PUSH2 0x1AB JUMP JUMPDEST STOP JUMPDEST PUSH2 0x14C PUSH2 0x1C7 JUMP JUMPDEST PUSH1 0x40 MLOAD PUSH2 0x159 SWAP2 SWAP1 PUSH2 0x21A JUMP JUMPDEST PUSH1 0x40 MLOAD DUP1 SWAP2 SUB SWAP1 RETURN JUMPDEST PUSH1 0x0 PUSH1 0x4 SLOAD SWAP1 POP SWAP1 JUMP JUMPDEST PUSH1 0x0 DUP2 PUSH1 0x4 SLOAD PUSH2 0x17C SWAP2 SWAP1 PUSH2 0x28B JUMP JUMPDEST SWAP1 POP SWAP2 SWAP1 POP JUMP JUMPDEST DUP1 PUSH1 0x4 PUSH1 0x0 DUP3 DUP3 SLOAD PUSH2 0x195 SWAP2 SWAP1 PUSH2 0x28B JUMP JUMPDEST SWAP3 POP POP DUP2 SWAP1 SSTORE POP POP JUMP JUMPDEST PUSH1 0x1 SLOAD DUP2 JUMP JUMPDEST PUSH1 0x2 SLOAD DUP2 JUMP JUMPDEST DUP1 PUSH1 0x4 PUSH1 0x0 DUP3 DUP3 SLOAD PUSH2 0x1BD SWAP2 SWAP1 PUSH2 0x235 JUMP JUMPDEST SWAP3 POP POP DUP2 SWAP1 SSTORE POP POP JUMP JUMPDEST PUSH1 0x4 SLOAD DUP2 JUMP JUMPDEST PUSH1 0x0 DUP2 CALLDATALOAD SWAP1 POP PUSH2 0x1DC DUP2 PUSH2 0x2F8 JUMP JUMPDEST SWAP3 SWAP2 POP POP JUMP JUMPDEST PUSH1 0x0 PUSH1 0x20 DUP3 DUP5 SUB SLT ISZERO PUSH2 0x1F4 JUMPI PUSH1 0x0 DUP1 REVERT JUMPDEST PUSH1 0x0 PUSH2 0x202 DUP5 DUP3 DUP6 ADD PUSH2 0x1CD JUMP JUMPDEST SWAP2 POP POP SWAP3 SWAP2 POP POP JUMP JUMPDEST PUSH2 0x214 DUP2 PUSH2 0x2BF JUMP JUMPDEST DUP3 MSTORE POP POP JUMP JUMPDEST PUSH1 0x0 PUSH1 0x20 DUP3 ADD SWAP1 POP PUSH2 0x22F PUSH1 0x0 DUP4 ADD DUP5 PUSH2 0x20B JUMP JUMPDEST SWAP3 SWAP2 POP POP JUMP JUMPDEST PUSH1 0x0 PUSH2 0x240 DUP3 PUSH2 0x2BF JUMP JUMPDEST SWAP2 POP PUSH2 0x24B DUP4 PUSH2 0x2BF JUMP JUMPDEST SWAP3 POP DUP3 PUSH32 0xFFFFFFFFFFFFFFFFFFFFFFFFFFFFFFFFFFFFFFFFFFFFFFFFFFFFFFFFFFFFFFFF SUB DUP3 GT ISZERO PUSH2 0x280 JUMPI PUSH2 0x27F PUSH2 0x2C9 JUMP JUMPDEST JUMPDEST DUP3 DUP3 ADD SWAP1 POP SWAP3 SWAP2 POP POP JUMP JUMPDEST PUSH1 0x0 PUSH2 0x296 DUP3 PUSH2 0x2BF JUMP JUMPDEST SWAP2 POP PUSH2 0x2A1 DUP4 PUSH2 0x2BF JUMP JUMPDEST SWAP3 POP DUP3 DUP3 LT ISZERO PUSH2 0x2B4 JUMPI PUSH2 0x2B3 PUSH2 0x2C9 JUMP JUMPDEST JUMPDEST DUP3 DUP3 SUB SWAP1 POP SWAP3 SWAP2 POP POP JUMP JUMPDEST PUSH1 0x0 DUP2 SWAP1 POP SWAP2 SWAP1 POP JUMP JUMPDEST PUSH32 0x4E487B7100000000000000000000000000000000000000000000000000000000 PUSH1 0x0 MSTORE PUSH1 0x11 PUSH1 0x4 MSTORE PUSH1 0x24 PUSH1 0x0 REVERT JUMPDEST PUSH2 0x301 DUP2 PUSH2 0x2BF JUMP JUMPDEST DUP2 EQ PUSH2 0x30C JUMPI PUSH1 0x0 DUP1 REVERT JUMPDEST POP JUMP INVALID LOG2 PUSH5 0x6970667358 0x22 SLT KECCAK256 0xF9 0xD6 SWAP6 0xBC MULMOD MSIZE CHAINID PUSH28 0xE7F2A844B0ADF0BD100B2B3DDAC9CBF984774A72F9BE18F464736F6C PUSH4 0x43000800 STOP CALLER "
				},
				"gasEstimates": {
					"creation": {
						"codeDepositCost": "167400",
						"executionCost": "infinite",
						"totalCost": "infinite"
					},
					"external": {
						"fund(uint256)": "infinite",
						"getBalance()": "1138",
						"goal()": "1129",
						"refund(uint256)": "infinite",
						"total_balance()": "1195",
						"totalfund()": "1151",
						"withdraw(uint256)": "infinite"
					}
				},
				"methodIdentifiers": {
					"fund(uint256)": "ca1d209d",
					"getBalance()": "12065fe0",
					"goal()": "40193883",
					"refund(uint256)": "278ecde1",
					"total_balance()": "d2ff791f",
					"totalfund()": "5c409866",
					"withdraw(uint256)": "2e1a7d4d"
				}
			},
			"storageLayout": {
				"storage": [
					{
						"astId": 3,
						"contract": "crowdfunding.sol:CrowdFunding",
						"label": "owner",
						"offset": 0,
						"slot": "0",
						"type": "t_address"
					},
					{
						"astId": 5,
						"contract": "crowdfunding.sol:CrowdFunding",
						"label": "goal",
						"offset": 0,
						"slot": "1",
						"type": "t_uint256"
					},
					{
						"astId": 7,
						"contract": "crowdfunding.sol:CrowdFunding",
						"label": "totalfund",
						"offset": 0,
						"slot": "2",
						"type": "t_uint256"
					},
					{
						"astId": 9,
						"contract": "crowdfunding.sol:CrowdFunding",
						"label": "deadline",
						"offset": 0,
						"slot": "3",
						"type": "t_uint256"
					},
					{
						"astId": 20,
						"contract": "crowdfunding.sol:CrowdFunding",
						"label": "total_balance",
						"offset": 0,
						"slot": "4",
						"type": "t_uint256"
					}
				],
				"types": {
					"t_address": {
						"encoding": "inplace",
						"label": "address",
						"numberOfBytes": "20"
					},
					"t_uint256": {
						"encoding": "inplace",
						"label": "uint256",
						"numberOfBytes": "32"
					}
				}
			},
			"userdoc": {
				"kind": "user",
				"methods": {},
				"version": 1
			}
		}
	}
}