{
	"data": {
		"bytecode": {
			"linkReferences": {},
			"object": "6080604052348015600e575f5ffd5b5061024b8061001c5f395ff3fe608060405234801561000f575f5ffd5b506004361061003f575f3560e01c80631aae65771461004357806397b8d364146100615780639abeb8641461007d575b5f5ffd5b61004b610087565b6040516100589190610187565b60405180910390f35b61007b600480360381019061007691906101d7565b610099565b005b6100856100e9565b005b60015f9054906101000a900460ff1681565b8060048111156100ac576100ab610114565b5b5f5f8481526020019081526020015f206001015f6101000a81548160ff021916908360048111156100e0576100df610114565b5b02179055505050565b6001805f6101000a81548160ff0219169083600481111561010d5761010c610114565b5b0217905550565b7f4e487b71000000000000000000000000000000000000000000000000000000005f52602160045260245ffd5b6005811061015257610151610114565b5b50565b5f81905061016282610141565b919050565b5f61017182610155565b9050919050565b61018181610167565b82525050565b5f60208201905061019a5f830184610178565b92915050565b5f5ffd5b5f819050919050565b6101b6816101a4565b81146101c0575f5ffd5b50565b5f813590506101d1816101ad565b92915050565b5f5f604083850312156101ed576101ec6101a0565b5b5f6101fa858286016101c3565b925050602061020b858286016101c3565b915050925092905056fea2646970667358221220faff5bef198558e466d5b1b0a5a7dbf735198dd241e4c306f106479dd33c2cb464736f6c634300081f0033",
			"opcodes": "PUSH1 0x80 PUSH1 0x40 MSTORE CALLVALUE DUP1 ISZERO PUSH1 0xE JUMPI PUSH0 PUSH0 REVERT JUMPDEST POP PUSH2 0x24B DUP1 PUSH2 0x1C PUSH0 CODECOPY PUSH0 RETURN INVALID PUSH1 0x80 PUSH1 0x40 MSTORE CALLVALUE DUP1 ISZERO PUSH2 0xF JUMPI PUSH0 PUSH0 REVERT JUMPDEST POP PUSH1 0x4 CALLDATASIZE LT PUSH2 0x3F JUMPI PUSH0 CALLDATALOAD PUSH1 0xE0 SHR DUP1 PUSH4 0x1AAE6577 EQ PUSH2 0x43 JUMPI DUP1 PUSH4 0x97B8D364 EQ PUSH2 0x61 JUMPI DUP1 PUSH4 0x9ABEB864 EQ PUSH2 0x7D JUMPI JUMPDEST PUSH0 PUSH0 REVERT JUMPDEST PUSH2 0x4B PUSH2 0x87 JUMP JUMPDEST PUSH1 0x40 MLOAD PUSH2 0x58 SWAP2 SWAP1 PUSH2 0x187 JUMP JUMPDEST PUSH1 0x40 MLOAD DUP1 SWAP2 SUB SWAP1 RETURN JUMPDEST PUSH2 0x7B PUSH1 0x4 DUP1 CALLDATASIZE SUB DUP2 ADD SWAP1 PUSH2 0x76 SWAP2 SWAP1 PUSH2 0x1D7 JUMP JUMPDEST PUSH2 0x99 JUMP JUMPDEST STOP JUMPDEST PUSH2 0x85 PUSH2 0xE9 JUMP JUMPDEST STOP JUMPDEST PUSH1 0x1 PUSH0 SWAP1 SLOAD SWAP1 PUSH2 0x100 EXP SWAP1 DIV PUSH1 0xFF AND DUP2 JUMP JUMPDEST DUP1 PUSH1 0x4 DUP2 GT ISZERO PUSH2 0xAC JUMPI PUSH2 0xAB PUSH2 0x114 JUMP JUMPDEST JUMPDEST PUSH0 PUSH0 DUP5 DUP2 MSTORE PUSH1 0x20 ADD SWAP1 DUP2 MSTORE PUSH1 0x20 ADD PUSH0 KECCAK256 PUSH1 0x1 ADD PUSH0 PUSH2 0x100 EXP DUP2 SLOAD DUP2 PUSH1 0xFF MUL NOT AND SWAP1 DUP4 PUSH1 0x4 DUP2 GT ISZERO PUSH2 0xE0 JUMPI PUSH2 0xDF PUSH2 0x114 JUMP JUMPDEST JUMPDEST MUL OR SWAP1 SSTORE POP POP POP JUMP JUMPDEST PUSH1 0x1 DUP1 PUSH0 PUSH2 0x100 EXP DUP2 SLOAD DUP2 PUSH1 0xFF MUL NOT AND SWAP1 DUP4 PUSH1 0x4 DUP2 GT ISZERO PUSH2 0x10D JUMPI PUSH2 0x10C PUSH2 0x114 JUMP JUMPDEST JUMPDEST MUL OR SWAP1 SSTORE POP JUMP JUMPDEST PUSH32 0x4E487B7100000000000000000000000000000000000000000000000000000000 PUSH0 MSTORE PUSH1 0x21 PUSH1 0x4 MSTORE PUSH1 0x24 PUSH0 REVERT JUMPDEST PUSH1 0x5 DUP2 LT PUSH2 0x152 JUMPI PUSH2 0x151 PUSH2 0x114 JUMP JUMPDEST JUMPDEST POP JUMP JUMPDEST PUSH0 DUP2 SWAP1 POP PUSH2 0x162 DUP3 PUSH2 0x141 JUMP JUMPDEST SWAP2 SWAP1 POP JUMP JUMPDEST PUSH0 PUSH2 0x171 DUP3 PUSH2 0x155 JUMP JUMPDEST SWAP1 POP SWAP2 SWAP1 POP JUMP JUMPDEST PUSH2 0x181 DUP2 PUSH2 0x167 JUMP JUMPDEST DUP3 MSTORE POP POP JUMP JUMPDEST PUSH0 PUSH1 0x20 DUP3 ADD SWAP1 POP PUSH2 0x19A PUSH0 DUP4 ADD DUP5 PUSH2 0x178 JUMP JUMPDEST SWAP3 SWAP2 POP POP JUMP JUMPDEST PUSH0 PUSH0 REVERT JUMPDEST PUSH0 DUP2 SWAP1 POP SWAP2 SWAP1 POP JUMP JUMPDEST PUSH2 0x1B6 DUP2 PUSH2 0x1A4 JUMP JUMPDEST DUP2 EQ PUSH2 0x1C0 JUMPI PUSH0 PUSH0 REVERT JUMPDEST POP JUMP JUMPDEST PUSH0 DUP2 CALLDATALOAD SWAP1 POP PUSH2 0x1D1 DUP2 PUSH2 0x1AD JUMP JUMPDEST SWAP3 SWAP2 POP POP JUMP JUMPDEST PUSH0 PUSH0 PUSH1 0x40 DUP4 DUP6 SUB SLT ISZERO PUSH2 0x1ED JUMPI PUSH2 0x1EC PUSH2 0x1A0 JUMP JUMPDEST JUMPDEST PUSH0 PUSH2 0x1FA DUP6 DUP3 DUP7 ADD PUSH2 0x1C3 JUMP JUMPDEST SWAP3 POP POP PUSH1 0x20 PUSH2 0x20B DUP6 DUP3 DUP7 ADD PUSH2 0x1C3 JUMP JUMPDEST SWAP2 POP POP SWAP3 POP SWAP3 SWAP1 POP JUMP INVALID LOG2 PUSH5 0x6970667358 0x22 SLT KECCAK256 STATICCALL SELFDESTRUCT JUMPDEST 0xEF NOT DUP6 PC RETF PUSH7 0xD5B1B0A5A7DBF7 CALLDATALOAD NOT DUP14 0xD2 COINBASE RETF 0xC3 MOD CALL MOD SELFBALANCE SWAP14 0xD3 EXTCODECOPY 0x2C 0xB4 PUSH5 0x736F6C6343 STOP ADDMOD 0x1F STOP CALLER "
		},
		"gasEstimates": {
			"creation": {
				"codeDepositCost": "117400",
				"executionCost": "163",
				"totalCost": "117563"
			},
			"external": {
				"Car_types()": "2532",
				"Default_type()": "24451",
				"update_type(uint256,uint256)": "infinite"
			}
		},
		"methodIdentifiers": {
			"Car_types()": "1aae6577",
			"Default_type()": "9abeb864",
			"update_type(uint256,uint256)": "97b8d364"
		}
	},
	"abi": [
		{
			"inputs": [],
			"name": "Car_types",
			"outputs": [
				{
					"internalType": "enum Car_showroom.Car_type",
					"name": "",
					"type": "uint8"
				}
			],
			"stateMutability": "view",
			"type": "function"
		},
		{
			"inputs": [],
			"name": "Default_type",
			"outputs": [],
			"stateMutability": "nonpayable",
			"type": "function"
		},
		{
			"inputs": [
				{
					"internalType": "uint256",
					"name": "_id",
					"type": "uint256"
				},
				{
					"internalType": "uint256",
					"name": "_type",
					"type": "uint256"
				}
			],
			"name": "update_type",
			"outputs": [],
			"stateMutability": "nonpayable",
			"type": "function"
		}
	]
}