{
	"data": {
		"bytecode": {
			"linkReferences": {},
			"object": "608060405234801561001057600080fd5b50610619806100206000396000f3fe608060405234801561001057600080fd5b50600436106100365760003560e01c80633e4f8eab1461003b578063e69bfc841461006c575b600080fd5b61005560048036038101906100509190610383565b61009d565b604051610063929190610432565b60405180910390f35b6100866004803603810190610081919061032f565b610151565b604051610094929190610432565b60405180910390f35b60606000826002819055506100b28585610151565b505060006002548180546100c59061052b565b80601f01602080910402602001604051908101604052809291908181526020018280546100f19061052b565b801561013e5780601f106101135761010080835404028352916020019161013e565b820191906000526020600020905b81548152906001019060200180831161012157829003601f168201915b5050505050915091509150935093915050565b60606000836000908051906020019061016b92919061020f565b508260018190555060006001548180546101849061052b565b80601f01602080910402602001604051908101604052809291908181526020018280546101b09061052b565b80156101fd5780601f106101d2576101008083540402835291602001916101fd565b820191906000526020600020905b8154815290600101906020018083116101e057829003601f168201915b50505050509150915091509250929050565b82805461021b9061052b565b90600052602060002090601f01602090048101928261023d5760008555610284565b82601f1061025657805160ff1916838001178555610284565b82800160010185558215610284579182015b82811115610283578251825591602001919060010190610268565b5b5090506102919190610295565b5090565b5b808211156102ae576000816000905550600101610296565b5090565b60006102c56102c084610493565b610462565b9050828152602081018484840111156102dd57600080fd5b6102e88482856104e9565b509392505050565b600082601f83011261030157600080fd5b81356103118482602086016102b2565b91505092915050565b600081359050610329816105cc565b92915050565b6000806040838503121561034257600080fd5b600083013567ffffffffffffffff81111561035c57600080fd5b610368858286016102f0565b92505060206103798582860161031a565b9150509250929050565b60008060006060848603121561039857600080fd5b600084013567ffffffffffffffff8111156103b257600080fd5b6103be868287016102f0565b93505060206103cf8682870161031a565b92505060406103e08682870161031a565b9150509250925092565b60006103f5826104c3565b6103ff81856104ce565b935061040f8185602086016104f8565b610418816105bb565b840191505092915050565b61042c816104df565b82525050565b6000604082019050818103600083015261044c81856103ea565b905061045b6020830184610423565b9392505050565b6000604051905081810181811067ffffffffffffffff821117156104895761048861058c565b5b8060405250919050565b600067ffffffffffffffff8211156104ae576104ad61058c565b5b601f19601f8301169050602081019050919050565b600081519050919050565b600082825260208201905092915050565b6000819050919050565b82818337600083830152505050565b60005b838110156105165780820151818401526020810190506104fb565b83811115610525576000848401525b50505050565b6000600282049050600182168061054357607f821691505b602082108114156105575761055661055d565b5b50919050565b7f4e487b7100000000000000000000000000000000000000000000000000000000600052602260045260246000fd5b7f4e487b7100000000000000000000000000000000000000000000000000000000600052604160045260246000fd5b6000601f19601f8301169050919050565b6105d5816104df565b81146105e057600080fd5b5056fea2646970667358221220419a4687ace8906667451bf230dd473a98b2e439b2bdf6dc7b81f2bc0f4dade964736f6c63430008000033",
			"opcodes": "PUSH1 0x80 PUSH1 0x40 MSTORE CALLVALUE DUP1 ISZERO PUSH2 0x10 JUMPI PUSH1 0x0 DUP1 REVERT JUMPDEST POP PUSH2 0x619 DUP1 PUSH2 0x20 PUSH1 0x0 CODECOPY PUSH1 0x0 RETURN INVALID PUSH1 0x80 PUSH1 0x40 MSTORE CALLVALUE DUP1 ISZERO PUSH2 0x10 JUMPI PUSH1 0x0 DUP1 REVERT JUMPDEST POP PUSH1 0x4 CALLDATASIZE LT PUSH2 0x36 JUMPI PUSH1 0x0 CALLDATALOAD PUSH1 0xE0 SHR DUP1 PUSH4 0x3E4F8EAB EQ PUSH2 0x3B JUMPI DUP1 PUSH4 0xE69BFC84 EQ PUSH2 0x6C JUMPI JUMPDEST PUSH1 0x0 DUP1 REVERT JUMPDEST PUSH2 0x55 PUSH1 0x4 DUP1 CALLDATASIZE SUB DUP2 ADD SWAP1 PUSH2 0x50 SWAP2 SWAP1 PUSH2 0x383 JUMP JUMPDEST PUSH2 0x9D JUMP JUMPDEST PUSH1 0x40 MLOAD PUSH2 0x63 SWAP3 SWAP2 SWAP1 PUSH2 0x432 JUMP JUMPDEST PUSH1 0x40 MLOAD DUP1 SWAP2 SUB SWAP1 RETURN JUMPDEST PUSH2 0x86 PUSH1 0x4 DUP1 CALLDATASIZE SUB DUP2 ADD SWAP1 PUSH2 0x81 SWAP2 SWAP1 PUSH2 0x32F JUMP JUMPDEST PUSH2 0x151 JUMP JUMPDEST PUSH1 0x40 MLOAD PUSH2 0x94 SWAP3 SWAP2 SWAP1 PUSH2 0x432 JUMP JUMPDEST PUSH1 0x40 MLOAD DUP1 SWAP2 SUB SWAP1 RETURN JUMPDEST PUSH1 0x60 PUSH1 0x0 DUP3 PUSH1 0x2 DUP2 SWAP1 SSTORE POP PUSH2 0xB2 DUP6 DUP6 PUSH2 0x151 JUMP JUMPDEST POP POP PUSH1 0x0 PUSH1 0x2 SLOAD DUP2 DUP1 SLOAD PUSH2 0xC5 SWAP1 PUSH2 0x52B JUMP JUMPDEST DUP1 PUSH1 0x1F ADD PUSH1 0x20 DUP1 SWAP2 DIV MUL PUSH1 0x20 ADD PUSH1 0x40 MLOAD SWAP1 DUP2 ADD PUSH1 0x40 MSTORE DUP1 SWAP3 SWAP2 SWAP1 DUP2 DUP2 MSTORE PUSH1 0x20 ADD DUP3 DUP1 SLOAD PUSH2 0xF1 SWAP1 PUSH2 0x52B JUMP JUMPDEST DUP1 ISZERO PUSH2 0x13E JUMPI DUP1 PUSH1 0x1F LT PUSH2 0x113 JUMPI PUSH2 0x100 DUP1 DUP4 SLOAD DIV MUL DUP4 MSTORE SWAP2 PUSH1 0x20 ADD SWAP2 PUSH2 0x13E JUMP JUMPDEST DUP3 ADD SWAP2 SWAP1 PUSH1 0x0 MSTORE PUSH1 0x20 PUSH1 0x0 KECCAK256 SWAP1 JUMPDEST DUP2 SLOAD DUP2 MSTORE SWAP1 PUSH1 0x1 ADD SWAP1 PUSH1 0x20 ADD DUP1 DUP4 GT PUSH2 0x121 JUMPI DUP3 SWAP1 SUB PUSH1 0x1F AND DUP3 ADD SWAP2 JUMPDEST POP POP POP POP POP SWAP2 POP SWAP2 POP SWAP2 POP SWAP4 POP SWAP4 SWAP2 POP POP JUMP JUMPDEST PUSH1 0x60 PUSH1 0x0 DUP4 PUSH1 0x0 SWAP1 DUP1 MLOAD SWAP1 PUSH1 0x20 ADD SWAP1 PUSH2 0x16B SWAP3 SWAP2 SWAP1 PUSH2 0x20F JUMP JUMPDEST POP DUP3 PUSH1 0x1 DUP2 SWAP1 SSTORE POP PUSH1 0x0 PUSH1 0x1 SLOAD DUP2 DUP1 SLOAD PUSH2 0x184 SWAP1 PUSH2 0x52B JUMP JUMPDEST DUP1 PUSH1 0x1F ADD PUSH1 0x20 DUP1 SWAP2 DIV MUL PUSH1 0x20 ADD PUSH1 0x40 MLOAD SWAP1 DUP2 ADD PUSH1 0x40 MSTORE DUP1 SWAP3 SWAP2 SWAP1 DUP2 DUP2 MSTORE PUSH1 0x20 ADD DUP3 DUP1 SLOAD PUSH2 0x1B0 SWAP1 PUSH2 0x52B JUMP JUMPDEST DUP1 ISZERO PUSH2 0x1FD JUMPI DUP1 PUSH1 0x1F LT PUSH2 0x1D2 JUMPI PUSH2 0x100 DUP1 DUP4 SLOAD DIV MUL DUP4 MSTORE SWAP2 PUSH1 0x20 ADD SWAP2 PUSH2 0x1FD JUMP JUMPDEST DUP3 ADD SWAP2 SWAP1 PUSH1 0x0 MSTORE PUSH1 0x20 PUSH1 0x0 KECCAK256 SWAP1 JUMPDEST DUP2 SLOAD DUP2 MSTORE SWAP1 PUSH1 0x1 ADD SWAP1 PUSH1 0x20 ADD DUP1 DUP4 GT PUSH2 0x1E0 JUMPI DUP3 SWAP1 SUB PUSH1 0x1F AND DUP3 ADD SWAP2 JUMPDEST POP POP POP POP POP SWAP2 POP SWAP2 POP SWAP2 POP SWAP3 POP SWAP3 SWAP1 POP JUMP JUMPDEST DUP3 DUP1 SLOAD PUSH2 0x21B SWAP1 PUSH2 0x52B JUMP JUMPDEST SWAP1 PUSH1 0x0 MSTORE PUSH1 0x20 PUSH1 0x0 KECCAK256 SWAP1 PUSH1 0x1F ADD PUSH1 0x20 SWAP1 DIV DUP2 ADD SWAP3 DUP3 PUSH2 0x23D JUMPI PUSH1 0x0 DUP6 SSTORE PUSH2 0x284 JUMP JUMPDEST DUP3 PUSH1 0x1F LT PUSH2 0x256 JUMPI DUP1 MLOAD PUSH1 0xFF NOT AND DUP4 DUP1 ADD OR DUP6 SSTORE PUSH2 0x284 JUMP JUMPDEST DUP3 DUP1 ADD PUSH1 0x1 ADD DUP6 SSTORE DUP3 ISZERO PUSH2 0x284 JUMPI SWAP2 DUP3 ADD JUMPDEST DUP3 DUP2 GT ISZERO PUSH2 0x283 JUMPI DUP3 MLOAD DUP3 SSTORE SWAP2 PUSH1 0x20 ADD SWAP2 SWAP1 PUSH1 0x1 ADD SWAP1 PUSH2 0x268 JUMP JUMPDEST JUMPDEST POP SWAP1 POP PUSH2 0x291 SWAP2 SWAP1 PUSH2 0x295 JUMP JUMPDEST POP SWAP1 JUMP JUMPDEST JUMPDEST DUP1 DUP3 GT ISZERO PUSH2 0x2AE JUMPI PUSH1 0x0 DUP2 PUSH1 0x0 SWAP1 SSTORE POP PUSH1 0x1 ADD PUSH2 0x296 JUMP JUMPDEST POP SWAP1 JUMP JUMPDEST PUSH1 0x0 PUSH2 0x2C5 PUSH2 0x2C0 DUP5 PUSH2 0x493 JUMP JUMPDEST PUSH2 0x462 JUMP JUMPDEST SWAP1 POP DUP3 DUP2 MSTORE PUSH1 0x20 DUP2 ADD DUP5 DUP5 DUP5 ADD GT ISZERO PUSH2 0x2DD JUMPI PUSH1 0x0 DUP1 REVERT JUMPDEST PUSH2 0x2E8 DUP5 DUP3 DUP6 PUSH2 0x4E9 JUMP JUMPDEST POP SWAP4 SWAP3 POP POP POP JUMP JUMPDEST PUSH1 0x0 DUP3 PUSH1 0x1F DUP4 ADD SLT PUSH2 0x301 JUMPI PUSH1 0x0 DUP1 REVERT JUMPDEST DUP2 CALLDATALOAD PUSH2 0x311 DUP5 DUP3 PUSH1 0x20 DUP7 ADD PUSH2 0x2B2 JUMP JUMPDEST SWAP2 POP POP SWAP3 SWAP2 POP POP JUMP JUMPDEST PUSH1 0x0 DUP2 CALLDATALOAD SWAP1 POP PUSH2 0x329 DUP2 PUSH2 0x5CC JUMP JUMPDEST SWAP3 SWAP2 POP POP JUMP JUMPDEST PUSH1 0x0 DUP1 PUSH1 0x40 DUP4 DUP6 SUB SLT ISZERO PUSH2 0x342 JUMPI PUSH1 0x0 DUP1 REVERT JUMPDEST PUSH1 0x0 DUP4 ADD CALLDATALOAD PUSH8 0xFFFFFFFFFFFFFFFF DUP2 GT ISZERO PUSH2 0x35C JUMPI PUSH1 0x0 DUP1 REVERT JUMPDEST PUSH2 0x368 DUP6 DUP3 DUP7 ADD PUSH2 0x2F0 JUMP JUMPDEST SWAP3 POP POP PUSH1 0x20 PUSH2 0x379 DUP6 DUP3 DUP7 ADD PUSH2 0x31A JUMP JUMPDEST SWAP2 POP POP SWAP3 POP SWAP3 SWAP1 POP JUMP JUMPDEST PUSH1 0x0 DUP1 PUSH1 0x0 PUSH1 0x60 DUP5 DUP7 SUB SLT ISZERO PUSH2 0x398 JUMPI PUSH1 0x0 DUP1 REVERT JUMPDEST PUSH1 0x0 DUP5 ADD CALLDATALOAD PUSH8 0xFFFFFFFFFFFFFFFF DUP2 GT ISZERO PUSH2 0x3B2 JUMPI PUSH1 0x0 DUP1 REVERT JUMPDEST PUSH2 0x3BE DUP7 DUP3 DUP8 ADD PUSH2 0x2F0 JUMP JUMPDEST SWAP4 POP POP PUSH1 0x20 PUSH2 0x3CF DUP7 DUP3 DUP8 ADD PUSH2 0x31A JUMP JUMPDEST SWAP3 POP POP PUSH1 0x40 PUSH2 0x3E0 DUP7 DUP3 DUP8 ADD PUSH2 0x31A JUMP JUMPDEST SWAP2 POP POP SWAP3 POP SWAP3 POP SWAP3 JUMP JUMPDEST PUSH1 0x0 PUSH2 0x3F5 DUP3 PUSH2 0x4C3 JUMP JUMPDEST PUSH2 0x3FF DUP2 DUP6 PUSH2 0x4CE JUMP JUMPDEST SWAP4 POP PUSH2 0x40F DUP2 DUP6 PUSH1 0x20 DUP7 ADD PUSH2 0x4F8 JUMP JUMPDEST PUSH2 0x418 DUP2 PUSH2 0x5BB JUMP JUMPDEST DUP5 ADD SWAP2 POP POP SWAP3 SWAP2 POP POP JUMP JUMPDEST PUSH2 0x42C DUP2 PUSH2 0x4DF JUMP JUMPDEST DUP3 MSTORE POP POP JUMP JUMPDEST PUSH1 0x0 PUSH1 0x40 DUP3 ADD SWAP1 POP DUP2 DUP2 SUB PUSH1 0x0 DUP4 ADD MSTORE PUSH2 0x44C DUP2 DUP6 PUSH2 0x3EA JUMP JUMPDEST SWAP1 POP PUSH2 0x45B PUSH1 0x20 DUP4 ADD DUP5 PUSH2 0x423 JUMP JUMPDEST SWAP4 SWAP3 POP POP POP JUMP JUMPDEST PUSH1 0x0 PUSH1 0x40 MLOAD SWAP1 POP DUP2 DUP2 ADD DUP2 DUP2 LT PUSH8 0xFFFFFFFFFFFFFFFF DUP3 GT OR ISZERO PUSH2 0x489 JUMPI PUSH2 0x488 PUSH2 0x58C JUMP JUMPDEST JUMPDEST DUP1 PUSH1 0x40 MSTORE POP SWAP2 SWAP1 POP JUMP JUMPDEST PUSH1 0x0 PUSH8 0xFFFFFFFFFFFFFFFF DUP3 GT ISZERO PUSH2 0x4AE JUMPI PUSH2 0x4AD PUSH2 0x58C JUMP JUMPDEST JUMPDEST PUSH1 0x1F NOT PUSH1 0x1F DUP4 ADD AND SWAP1 POP PUSH1 0x20 DUP2 ADD SWAP1 POP SWAP2 SWAP1 POP JUMP JUMPDEST PUSH1 0x0 DUP2 MLOAD SWAP1 POP SWAP2 SWAP1 POP JUMP JUMPDEST PUSH1 0x0 DUP3 DUP3 MSTORE PUSH1 0x20 DUP3 ADD SWAP1 POP SWAP3 SWAP2 POP POP JUMP JUMPDEST PUSH1 0x0 DUP2 SWAP1 POP SWAP2 SWAP1 POP JUMP JUMPDEST DUP3 DUP2 DUP4 CALLDATACOPY PUSH1 0x0 DUP4 DUP4 ADD MSTORE POP POP POP JUMP JUMPDEST PUSH1 0x0 JUMPDEST DUP4 DUP2 LT ISZERO PUSH2 0x516 JUMPI DUP1 DUP3 ADD MLOAD DUP2 DUP5 ADD MSTORE PUSH1 0x20 DUP2 ADD SWAP1 POP PUSH2 0x4FB JUMP JUMPDEST DUP4 DUP2 GT ISZERO PUSH2 0x525 JUMPI PUSH1 0x0 DUP5 DUP5 ADD MSTORE JUMPDEST POP POP POP POP JUMP JUMPDEST PUSH1 0x0 PUSH1 0x2 DUP3 DIV SWAP1 POP PUSH1 0x1 DUP3 AND DUP1 PUSH2 0x543 JUMPI PUSH1 0x7F DUP3 AND SWAP2 POP JUMPDEST PUSH1 0x20 DUP3 LT DUP2 EQ ISZERO PUSH2 0x557 JUMPI PUSH2 0x556 PUSH2 0x55D JUMP JUMPDEST JUMPDEST POP SWAP2 SWAP1 POP JUMP JUMPDEST PUSH32 0x4E487B7100000000000000000000000000000000000000000000000000000000 PUSH1 0x0 MSTORE PUSH1 0x22 PUSH1 0x4 MSTORE PUSH1 0x24 PUSH1 0x0 REVERT JUMPDEST PUSH32 0x4E487B7100000000000000000000000000000000000000000000000000000000 PUSH1 0x0 MSTORE PUSH1 0x41 PUSH1 0x4 MSTORE PUSH1 0x24 PUSH1 0x0 REVERT JUMPDEST PUSH1 0x0 PUSH1 0x1F NOT PUSH1 0x1F DUP4 ADD AND SWAP1 POP SWAP2 SWAP1 POP JUMP JUMPDEST PUSH2 0x5D5 DUP2 PUSH2 0x4DF JUMP JUMPDEST DUP2 EQ PUSH2 0x5E0 JUMPI PUSH1 0x0 DUP1 REVERT JUMPDEST POP JUMP INVALID LOG2 PUSH5 0x6970667358 0x22 SLT KECCAK256 COINBASE SWAP11 CHAINID DUP8 0xAC 0xE8 SWAP1 PUSH7 0x67451BF230DD47 GASPRICE SWAP9 0xB2 0xE4 CODECOPY 0xB2 0xBD 0xF6 0xDC PUSH28 0x81F2BC0F4DADE964736F6C6343000800003300000000000000000000 "
		},
		"gasEstimates": {
			"creation": {
				"codeDepositCost": "312200",
				"executionCost": "349",
				"totalCost": "312549"
			},
			"external": {
				"Marks(string,uint256,uint256)": "infinite",
				"details(string,uint256)": "infinite"
			}
		},
		"methodIdentifiers": {
			"Marks(string,uint256,uint256)": "3e4f8eab",
			"details(string,uint256)": "e69bfc84"
		}
	},
	"abi": [
		{
			"inputs": [
				{
					"internalType": "string",
					"name": "_name",
					"type": "string"
				},
				{
					"internalType": "uint256",
					"name": "_age",
					"type": "uint256"
				},
				{
					"internalType": "uint256",
					"name": "_marks",
					"type": "uint256"
				}
			],
			"name": "Marks",
			"outputs": [
				{
					"internalType": "string",
					"name": "",
					"type": "string"
				},
				{
					"internalType": "uint256",
					"name": "",
					"type": "uint256"
				}
			],
			"stateMutability": "nonpayable",
			"type": "function"
		},
		{
			"inputs": [
				{
					"internalType": "string",
					"name": "_name",
					"type": "string"
				},
				{
					"internalType": "uint256",
					"name": "_age",
					"type": "uint256"
				}
			],
			"name": "details",
			"outputs": [
				{
					"internalType": "string",
					"name": "",
					"type": "string"
				},
				{
					"internalType": "uint256",
					"name": "",
					"type": "uint256"
				}
			],
			"stateMutability": "nonpayable",
			"type": "function"
		}
	]
}