{
	"data": {
		"bytecode": {
			"linkReferences": {},
			"object": "6080604052348015600e575f5ffd5b5061083e8061001c5f395ff3fe608060405234801561000f575f5ffd5b506004361061003f575f3560e01c806311989b1a146100435780637fc4517814610063578063cb50a67014610095575b5f5ffd5b61004b6100b1565b60405161005a93929190610302565b60405180910390f35b61007d60048036038101906100789190610379565b61014d565b60405161008c93929190610302565b60405180910390f35b6100af60048036038101906100aa91906104d0565b610208565b005b5f805f0154908060010180546100c690610569565b80601f01602080910402602001604051908101604052809291908181526020018280546100f290610569565b801561013d5780601f106101145761010080835404028352916020019161013d565b820191905f5260205f20905b81548152906001019060200180831161012057829003601f168201915b5050505050908060020154905083565b6003818154811061015c575f80fd5b905f5260205f2090600302015f91509050805f01549080600101805461018190610569565b80601f01602080910402602001604051908101604052809291908181526020018280546101ad90610569565b80156101f85780601f106101cf576101008083540402835291602001916101f8565b820191905f5260205f20905b8154815290600101906020018083116101db57829003601f168201915b5050505050908060020154905083565b6003604051806060016040528085815260200184815260200183815250908060018154018082558091505060019003905f5260205f2090600302015f909190919091505f820151815f015560208201518160010190816102689190610739565b50604082015181600201555050505050565b5f819050919050565b61028c8161027a565b82525050565b5f81519050919050565b5f82825260208201905092915050565b8281835e5f83830152505050565b5f601f19601f8301169050919050565b5f6102d482610292565b6102de818561029c565b93506102ee8185602086016102ac565b6102f7816102ba565b840191505092915050565b5f6060820190506103155f830186610283565b818103602083015261032781856102ca565b90506103366040830184610283565b949350505050565b5f604051905090565b5f5ffd5b5f5ffd5b6103588161027a565b8114610362575f5ffd5b50565b5f813590506103738161034f565b92915050565b5f6020828403121561038e5761038d610347565b5b5f61039b84828501610365565b91505092915050565b5f5ffd5b5f5ffd5b7f4e487b71000000000000000000000000000000000000000000000000000000005f52604160045260245ffd5b6103e2826102ba565b810181811067ffffffffffffffff82111715610401576104006103ac565b5b80604052505050565b5f61041361033e565b905061041f82826103d9565b919050565b5f67ffffffffffffffff82111561043e5761043d6103ac565b5b610447826102ba565b9050602081019050919050565b828183375f83830152505050565b5f61047461046f84610424565b61040a565b9050828152602081018484840111156104905761048f6103a8565b5b61049b848285610454565b509392505050565b5f82601f8301126104b7576104b66103a4565b5b81356104c7848260208601610462565b91505092915050565b5f5f5f606084860312156104e7576104e6610347565b5b5f6104f486828701610365565b935050602084013567ffffffffffffffff8111156105155761051461034b565b5b610521868287016104a3565b925050604061053286828701610365565b9150509250925092565b7f4e487b71000000000000000000000000000000000000000000000000000000005f52602260045260245ffd5b5f600282049050600182168061058057607f821691505b6020821081036105935761059261053c565b5b50919050565b5f819050815f5260205f209050919050565b5f6020601f8301049050919050565b5f82821b905092915050565b5f600883026105f57fffffffffffffffffffffffffffffffffffffffffffffffffffffffffffffffff826105ba565b6105ff86836105ba565b95508019841693508086168417925050509392505050565b5f819050919050565b5f61063a6106356106308461027a565b610617565b61027a565b9050919050565b5f819050919050565b61065383610620565b61066761065f82610641565b8484546105c6565b825550505050565b5f5f905090565b61067e61066f565b61068981848461064a565b505050565b5b818110156106ac576106a15f82610676565b60018101905061068f565b5050565b601f8211156106f1576106c281610599565b6106cb846105ab565b810160208510156106da578190505b6106ee6106e6856105ab565b83018261068e565b50505b505050565b5f82821c905092915050565b5f6107115f19846008026106f6565b1980831691505092915050565b5f6107298383610702565b9150826002028217905092915050565b61074282610292565b67ffffffffffffffff81111561075b5761075a6103ac565b5b6107658254610569565b6107708282856106b0565b5f60209050601f8311600181146107a1575f841561078f578287015190505b610799858261071e565b865550610800565b601f1984166107af86610599565b5f5b828110156107d6578489015182556001820191506020850194506020810190506107b1565b868310156107f357848901516107ef601f891682610702565b8355505b6001600288020188555050505b50505050505056fea2646970667358221220ecd71b7e8b4187b1b375e75c701887625c5d647b5d37dc70d91890573c499a1464736f6c634300081f0033",
			"opcodes": "PUSH1 0x80 PUSH1 0x40 MSTORE CALLVALUE DUP1 ISZERO PUSH1 0xE JUMPI PUSH0 PUSH0 REVERT JUMPDEST POP PUSH2 0x83E DUP1 PUSH2 0x1C PUSH0 CODECOPY PUSH0 RETURN INVALID PUSH1 0x80 PUSH1 0x40 MSTORE CALLVALUE DUP1 ISZERO PUSH2 0xF JUMPI PUSH0 PUSH0 REVERT JUMPDEST POP PUSH1 0x4 CALLDATASIZE LT PUSH2 0x3F JUMPI PUSH0 CALLDATALOAD PUSH1 0xE0 SHR DUP1 PUSH4 0x11989B1A EQ PUSH2 0x43 JUMPI DUP1 PUSH4 0x7FC45178 EQ PUSH2 0x63 JUMPI DUP1 PUSH4 0xCB50A670 EQ PUSH2 0x95 JUMPI JUMPDEST PUSH0 PUSH0 REVERT JUMPDEST PUSH2 0x4B PUSH2 0xB1 JUMP JUMPDEST PUSH1 0x40 MLOAD PUSH2 0x5A SWAP4 SWAP3 SWAP2 SWAP1 PUSH2 0x302 JUMP JUMPDEST PUSH1 0x40 MLOAD DUP1 SWAP2 SUB SWAP1 RETURN JUMPDEST PUSH2 0x7D PUSH1 0x4 DUP1 CALLDATASIZE SUB DUP2 ADD SWAP1 PUSH2 0x78 SWAP2 SWAP1 PUSH2 0x379 JUMP JUMPDEST PUSH2 0x14D JUMP JUMPDEST PUSH1 0x40 MLOAD PUSH2 0x8C SWAP4 SWAP3 SWAP2 SWAP1 PUSH2 0x302 JUMP JUMPDEST PUSH1 0x40 MLOAD DUP1 SWAP2 SUB SWAP1 RETURN JUMPDEST PUSH2 0xAF PUSH1 0x4 DUP1 CALLDATASIZE SUB DUP2 ADD SWAP1 PUSH2 0xAA SWAP2 SWAP1 PUSH2 0x4D0 JUMP JUMPDEST PUSH2 0x208 JUMP JUMPDEST STOP JUMPDEST PUSH0 DUP1 PUSH0 ADD SLOAD SWAP1 DUP1 PUSH1 0x1 ADD DUP1 SLOAD PUSH2 0xC6 SWAP1 PUSH2 0x569 JUMP JUMPDEST DUP1 PUSH1 0x1F ADD PUSH1 0x20 DUP1 SWAP2 DIV MUL PUSH1 0x20 ADD PUSH1 0x40 MLOAD SWAP1 DUP2 ADD PUSH1 0x40 MSTORE DUP1 SWAP3 SWAP2 SWAP1 DUP2 DUP2 MSTORE PUSH1 0x20 ADD DUP3 DUP1 SLOAD PUSH2 0xF2 SWAP1 PUSH2 0x569 JUMP JUMPDEST DUP1 ISZERO PUSH2 0x13D JUMPI DUP1 PUSH1 0x1F LT PUSH2 0x114 JUMPI PUSH2 0x100 DUP1 DUP4 SLOAD DIV MUL DUP4 MSTORE SWAP2 PUSH1 0x20 ADD SWAP2 PUSH2 0x13D JUMP JUMPDEST DUP3 ADD SWAP2 SWAP1 PUSH0 MSTORE PUSH1 0x20 PUSH0 KECCAK256 SWAP1 JUMPDEST DUP2 SLOAD DUP2 MSTORE SWAP1 PUSH1 0x1 ADD SWAP1 PUSH1 0x20 ADD DUP1 DUP4 GT PUSH2 0x120 JUMPI DUP3 SWAP1 SUB PUSH1 0x1F AND DUP3 ADD SWAP2 JUMPDEST POP POP POP POP POP SWAP1 DUP1 PUSH1 0x2 ADD SLOAD SWAP1 POP DUP4 JUMP JUMPDEST PUSH1 0x3 DUP2 DUP2 SLOAD DUP2 LT PUSH2 0x15C JUMPI PUSH0 DUP1 REVERT JUMPDEST SWAP1 PUSH0 MSTORE PUSH1 0x20 PUSH0 KECCAK256 SWAP1 PUSH1 0x3 MUL ADD PUSH0 SWAP2 POP SWAP1 POP DUP1 PUSH0 ADD SLOAD SWAP1 DUP1 PUSH1 0x1 ADD DUP1 SLOAD PUSH2 0x181 SWAP1 PUSH2 0x569 JUMP JUMPDEST DUP1 PUSH1 0x1F ADD PUSH1 0x20 DUP1 SWAP2 DIV MUL PUSH1 0x20 ADD PUSH1 0x40 MLOAD SWAP1 DUP2 ADD PUSH1 0x40 MSTORE DUP1 SWAP3 SWAP2 SWAP1 DUP2 DUP2 MSTORE PUSH1 0x20 ADD DUP3 DUP1 SLOAD PUSH2 0x1AD SWAP1 PUSH2 0x569 JUMP JUMPDEST DUP1 ISZERO PUSH2 0x1F8 JUMPI DUP1 PUSH1 0x1F LT PUSH2 0x1CF JUMPI PUSH2 0x100 DUP1 DUP4 SLOAD DIV MUL DUP4 MSTORE SWAP2 PUSH1 0x20 ADD SWAP2 PUSH2 0x1F8 JUMP JUMPDEST DUP3 ADD SWAP2 SWAP1 PUSH0 MSTORE PUSH1 0x20 PUSH0 KECCAK256 SWAP1 JUMPDEST DUP2 SLOAD DUP2 MSTORE SWAP1 PUSH1 0x1 ADD SWAP1 PUSH1 0x20 ADD DUP1 DUP4 GT PUSH2 0x1DB JUMPI DUP3 SWAP1 SUB PUSH1 0x1F AND DUP3 ADD SWAP2 JUMPDEST POP POP POP POP POP SWAP1 DUP1 PUSH1 0x2 ADD SLOAD SWAP1 POP DUP4 JUMP JUMPDEST PUSH1 0x3 PUSH1 0x40 MLOAD DUP1 PUSH1 0x60 ADD PUSH1 0x40 MSTORE DUP1 DUP6 DUP2 MSTORE PUSH1 0x20 ADD DUP5 DUP2 MSTORE PUSH1 0x20 ADD DUP4 DUP2 MSTORE POP SWAP1 DUP1 PUSH1 0x1 DUP2 SLOAD ADD DUP1 DUP3 SSTORE DUP1 SWAP2 POP POP PUSH1 0x1 SWAP1 SUB SWAP1 PUSH0 MSTORE PUSH1 0x20 PUSH0 KECCAK256 SWAP1 PUSH1 0x3 MUL ADD PUSH0 SWAP1 SWAP2 SWAP1 SWAP2 SWAP1 SWAP2 POP PUSH0 DUP3 ADD MLOAD DUP2 PUSH0 ADD SSTORE PUSH1 0x20 DUP3 ADD MLOAD DUP2 PUSH1 0x1 ADD SWAP1 DUP2 PUSH2 0x268 SWAP2 SWAP1 PUSH2 0x739 JUMP JUMPDEST POP PUSH1 0x40 DUP3 ADD MLOAD DUP2 PUSH1 0x2 ADD SSTORE POP POP POP POP POP JUMP JUMPDEST PUSH0 DUP2 SWAP1 POP SWAP2 SWAP1 POP JUMP JUMPDEST PUSH2 0x28C DUP2 PUSH2 0x27A JUMP JUMPDEST DUP3 MSTORE POP POP JUMP JUMPDEST PUSH0 DUP2 MLOAD SWAP1 POP SWAP2 SWAP1 POP JUMP JUMPDEST PUSH0 DUP3 DUP3 MSTORE PUSH1 0x20 DUP3 ADD SWAP1 POP SWAP3 SWAP2 POP POP JUMP JUMPDEST DUP3 DUP2 DUP4 MCOPY PUSH0 DUP4 DUP4 ADD MSTORE POP POP POP JUMP JUMPDEST PUSH0 PUSH1 0x1F NOT PUSH1 0x1F DUP4 ADD AND SWAP1 POP SWAP2 SWAP1 POP JUMP JUMPDEST PUSH0 PUSH2 0x2D4 DUP3 PUSH2 0x292 JUMP JUMPDEST PUSH2 0x2DE DUP2 DUP6 PUSH2 0x29C JUMP JUMPDEST SWAP4 POP PUSH2 0x2EE DUP2 DUP6 PUSH1 0x20 DUP7 ADD PUSH2 0x2AC JUMP JUMPDEST PUSH2 0x2F7 DUP2 PUSH2 0x2BA JUMP JUMPDEST DUP5 ADD SWAP2 POP POP SWAP3 SWAP2 POP POP JUMP JUMPDEST PUSH0 PUSH1 0x60 DUP3 ADD SWAP1 POP PUSH2 0x315 PUSH0 DUP4 ADD DUP7 PUSH2 0x283 JUMP JUMPDEST DUP2 DUP2 SUB PUSH1 0x20 DUP4 ADD MSTORE PUSH2 0x327 DUP2 DUP6 PUSH2 0x2CA JUMP JUMPDEST SWAP1 POP PUSH2 0x336 PUSH1 0x40 DUP4 ADD DUP5 PUSH2 0x283 JUMP JUMPDEST SWAP5 SWAP4 POP POP POP POP JUMP JUMPDEST PUSH0 PUSH1 0x40 MLOAD SWAP1 POP SWAP1 JUMP JUMPDEST PUSH0 PUSH0 REVERT JUMPDEST PUSH0 PUSH0 REVERT JUMPDEST PUSH2 0x358 DUP2 PUSH2 0x27A JUMP JUMPDEST DUP2 EQ PUSH2 0x362 JUMPI PUSH0 PUSH0 REVERT JUMPDEST POP JUMP JUMPDEST PUSH0 DUP2 CALLDATALOAD SWAP1 POP PUSH2 0x373 DUP2 PUSH2 0x34F JUMP JUMPDEST SWAP3 SWAP2 POP POP JUMP JUMPDEST PUSH0 PUSH1 0x20 DUP3 DUP5 SUB SLT ISZERO PUSH2 0x38E JUMPI PUSH2 0x38D PUSH2 0x347 JUMP JUMPDEST JUMPDEST PUSH0 PUSH2 0x39B DUP5 DUP3 DUP6 ADD PUSH2 0x365 JUMP JUMPDEST SWAP2 POP POP SWAP3 SWAP2 POP POP JUMP JUMPDEST PUSH0 PUSH0 REVERT JUMPDEST PUSH0 PUSH0 REVERT JUMPDEST PUSH32 0x4E487B7100000000000000000000000000000000000000000000000000000000 PUSH0 MSTORE PUSH1 0x41 PUSH1 0x4 MSTORE PUSH1 0x24 PUSH0 REVERT JUMPDEST PUSH2 0x3E2 DUP3 PUSH2 0x2BA JUMP JUMPDEST DUP2 ADD DUP2 DUP2 LT PUSH8 0xFFFFFFFFFFFFFFFF DUP3 GT OR ISZERO PUSH2 0x401 JUMPI PUSH2 0x400 PUSH2 0x3AC JUMP JUMPDEST JUMPDEST DUP1 PUSH1 0x40 MSTORE POP POP POP JUMP JUMPDEST PUSH0 PUSH2 0x413 PUSH2 0x33E JUMP JUMPDEST SWAP1 POP PUSH2 0x41F DUP3 DUP3 PUSH2 0x3D9 JUMP JUMPDEST SWAP2 SWAP1 POP JUMP JUMPDEST PUSH0 PUSH8 0xFFFFFFFFFFFFFFFF DUP3 GT ISZERO PUSH2 0x43E JUMPI PUSH2 0x43D PUSH2 0x3AC JUMP JUMPDEST JUMPDEST PUSH2 0x447 DUP3 PUSH2 0x2BA JUMP JUMPDEST SWAP1 POP PUSH1 0x20 DUP2 ADD SWAP1 POP SWAP2 SWAP1 POP JUMP JUMPDEST DUP3 DUP2 DUP4 CALLDATACOPY PUSH0 DUP4 DUP4 ADD MSTORE POP POP POP JUMP JUMPDEST PUSH0 PUSH2 0x474 PUSH2 0x46F DUP5 PUSH2 0x424 JUMP JUMPDEST PUSH2 0x40A JUMP JUMPDEST SWAP1 POP DUP3 DUP2 MSTORE PUSH1 0x20 DUP2 ADD DUP5 DUP5 DUP5 ADD GT ISZERO PUSH2 0x490 JUMPI PUSH2 0x48F PUSH2 0x3A8 JUMP JUMPDEST JUMPDEST PUSH2 0x49B DUP5 DUP3 DUP6 PUSH2 0x454 JUMP JUMPDEST POP SWAP4 SWAP3 POP POP POP JUMP JUMPDEST PUSH0 DUP3 PUSH1 0x1F DUP4 ADD SLT PUSH2 0x4B7 JUMPI PUSH2 0x4B6 PUSH2 0x3A4 JUMP JUMPDEST JUMPDEST DUP2 CALLDATALOAD PUSH2 0x4C7 DUP5 DUP3 PUSH1 0x20 DUP7 ADD PUSH2 0x462 JUMP JUMPDEST SWAP2 POP POP SWAP3 SWAP2 POP POP JUMP JUMPDEST PUSH0 PUSH0 PUSH0 PUSH1 0x60 DUP5 DUP7 SUB SLT ISZERO PUSH2 0x4E7 JUMPI PUSH2 0x4E6 PUSH2 0x347 JUMP JUMPDEST JUMPDEST PUSH0 PUSH2 0x4F4 DUP7 DUP3 DUP8 ADD PUSH2 0x365 JUMP JUMPDEST SWAP4 POP POP PUSH1 0x20 DUP5 ADD CALLDATALOAD PUSH8 0xFFFFFFFFFFFFFFFF DUP2 GT ISZERO PUSH2 0x515 JUMPI PUSH2 0x514 PUSH2 0x34B JUMP JUMPDEST JUMPDEST PUSH2 0x521 DUP7 DUP3 DUP8 ADD PUSH2 0x4A3 JUMP JUMPDEST SWAP3 POP POP PUSH1 0x40 PUSH2 0x532 DUP7 DUP3 DUP8 ADD PUSH2 0x365 JUMP JUMPDEST SWAP2 POP POP SWAP3 POP SWAP3 POP SWAP3 JUMP JUMPDEST PUSH32 0x4E487B7100000000000000000000000000000000000000000000000000000000 PUSH0 MSTORE PUSH1 0x22 PUSH1 0x4 MSTORE PUSH1 0x24 PUSH0 REVERT JUMPDEST PUSH0 PUSH1 0x2 DUP3 DIV SWAP1 POP PUSH1 0x1 DUP3 AND DUP1 PUSH2 0x580 JUMPI PUSH1 0x7F DUP3 AND SWAP2 POP JUMPDEST PUSH1 0x20 DUP3 LT DUP2 SUB PUSH2 0x593 JUMPI PUSH2 0x592 PUSH2 0x53C JUMP JUMPDEST JUMPDEST POP SWAP2 SWAP1 POP JUMP JUMPDEST PUSH0 DUP2 SWAP1 POP DUP2 PUSH0 MSTORE PUSH1 0x20 PUSH0 KECCAK256 SWAP1 POP SWAP2 SWAP1 POP JUMP JUMPDEST PUSH0 PUSH1 0x20 PUSH1 0x1F DUP4 ADD DIV SWAP1 POP SWAP2 SWAP1 POP JUMP JUMPDEST PUSH0 DUP3 DUP3 SHL SWAP1 POP SWAP3 SWAP2 POP POP JUMP JUMPDEST PUSH0 PUSH1 0x8 DUP4 MUL PUSH2 0x5F5 PUSH32 0xFFFFFFFFFFFFFFFFFFFFFFFFFFFFFFFFFFFFFFFFFFFFFFFFFFFFFFFFFFFFFFFF DUP3 PUSH2 0x5BA JUMP JUMPDEST PUSH2 0x5FF DUP7 DUP4 PUSH2 0x5BA JUMP JUMPDEST SWAP6 POP DUP1 NOT DUP5 AND SWAP4 POP DUP1 DUP7 AND DUP5 OR SWAP3 POP POP POP SWAP4 SWAP3 POP POP POP JUMP JUMPDEST PUSH0 DUP2 SWAP1 POP SWAP2 SWAP1 POP JUMP JUMPDEST PUSH0 PUSH2 0x63A PUSH2 0x635 PUSH2 0x630 DUP5 PUSH2 0x27A JUMP JUMPDEST PUSH2 0x617 JUMP JUMPDEST PUSH2 0x27A JUMP JUMPDEST SWAP1 POP SWAP2 SWAP1 POP JUMP JUMPDEST PUSH0 DUP2 SWAP1 POP SWAP2 SWAP1 POP JUMP JUMPDEST PUSH2 0x653 DUP4 PUSH2 0x620 JUMP JUMPDEST PUSH2 0x667 PUSH2 0x65F DUP3 PUSH2 0x641 JUMP JUMPDEST DUP5 DUP5 SLOAD PUSH2 0x5C6 JUMP JUMPDEST DUP3 SSTORE POP POP POP POP JUMP JUMPDEST PUSH0 PUSH0 SWAP1 POP SWAP1 JUMP JUMPDEST PUSH2 0x67E PUSH2 0x66F JUMP JUMPDEST PUSH2 0x689 DUP2 DUP5 DUP5 PUSH2 0x64A JUMP JUMPDEST POP POP POP JUMP JUMPDEST JUMPDEST DUP2 DUP2 LT ISZERO PUSH2 0x6AC JUMPI PUSH2 0x6A1 PUSH0 DUP3 PUSH2 0x676 JUMP JUMPDEST PUSH1 0x1 DUP2 ADD SWAP1 POP PUSH2 0x68F JUMP JUMPDEST POP POP JUMP JUMPDEST PUSH1 0x1F DUP3 GT ISZERO PUSH2 0x6F1 JUMPI PUSH2 0x6C2 DUP2 PUSH2 0x599 JUMP JUMPDEST PUSH2 0x6CB DUP5 PUSH2 0x5AB JUMP JUMPDEST DUP2 ADD PUSH1 0x20 DUP6 LT ISZERO PUSH2 0x6DA JUMPI DUP2 SWAP1 POP JUMPDEST PUSH2 0x6EE PUSH2 0x6E6 DUP6 PUSH2 0x5AB JUMP JUMPDEST DUP4 ADD DUP3 PUSH2 0x68E JUMP JUMPDEST POP POP JUMPDEST POP POP POP JUMP JUMPDEST PUSH0 DUP3 DUP3 SHR SWAP1 POP SWAP3 SWAP2 POP POP JUMP JUMPDEST PUSH0 PUSH2 0x711 PUSH0 NOT DUP5 PUSH1 0x8 MUL PUSH2 0x6F6 JUMP JUMPDEST NOT DUP1 DUP4 AND SWAP2 POP POP SWAP3 SWAP2 POP POP JUMP JUMPDEST PUSH0 PUSH2 0x729 DUP4 DUP4 PUSH2 0x702 JUMP JUMPDEST SWAP2 POP DUP3 PUSH1 0x2 MUL DUP3 OR SWAP1 POP SWAP3 SWAP2 POP POP JUMP JUMPDEST PUSH2 0x742 DUP3 PUSH2 0x292 JUMP JUMPDEST PUSH8 0xFFFFFFFFFFFFFFFF DUP2 GT ISZERO PUSH2 0x75B JUMPI PUSH2 0x75A PUSH2 0x3AC JUMP JUMPDEST JUMPDEST PUSH2 0x765 DUP3 SLOAD PUSH2 0x569 JUMP JUMPDEST PUSH2 0x770 DUP3 DUP3 DUP6 PUSH2 0x6B0 JUMP JUMPDEST PUSH0 PUSH1 0x20 SWAP1 POP PUSH1 0x1F DUP4 GT PUSH1 0x1 DUP2 EQ PUSH2 0x7A1 JUMPI PUSH0 DUP5 ISZERO PUSH2 0x78F JUMPI DUP3 DUP8 ADD MLOAD SWAP1 POP JUMPDEST PUSH2 0x799 DUP6 DUP3 PUSH2 0x71E JUMP JUMPDEST DUP7 SSTORE POP PUSH2 0x800 JUMP JUMPDEST PUSH1 0x1F NOT DUP5 AND PUSH2 0x7AF DUP7 PUSH2 0x599 JUMP JUMPDEST PUSH0 JUMPDEST DUP3 DUP2 LT ISZERO PUSH2 0x7D6 JUMPI DUP5 DUP10 ADD MLOAD DUP3 SSTORE PUSH1 0x1 DUP3 ADD SWAP2 POP PUSH1 0x20 DUP6 ADD SWAP5 POP PUSH1 0x20 DUP2 ADD SWAP1 POP PUSH2 0x7B1 JUMP JUMPDEST DUP7 DUP4 LT ISZERO PUSH2 0x7F3 JUMPI DUP5 DUP10 ADD MLOAD PUSH2 0x7EF PUSH1 0x1F DUP10 AND DUP3 PUSH2 0x702 JUMP JUMPDEST DUP4 SSTORE POP JUMPDEST PUSH1 0x1 PUSH1 0x2 DUP9 MUL ADD DUP9 SSTORE POP POP POP JUMPDEST POP POP POP POP POP POP JUMP INVALID LOG2 PUSH5 0x6970667358 0x22 SLT KECCAK256 EOFCREATE 0xD7 SHL PUSH31 0x8B4187B1B375E75C701887625C5D647B5D37DC70D91890573C499A1464736F PUSH13 0x634300081F0033000000000000 "
		},
		"gasEstimates": {
			"creation": {
				"codeDepositCost": "422000",
				"executionCost": "453",
				"totalCost": "422453"
			},
			"external": {
				"set_arr(uint256,string,uint256)": "infinite",
				"students1(uint256)": "infinite",
				"studentss1()": "infinite"
			}
		},
		"methodIdentifiers": {
			"set_arr(uint256,string,uint256)": "cb50a670",
			"students1(uint256)": "7fc45178",
			"studentss1()": "11989b1a"
		}
	},
	"abi": [
		{
			"inputs": [
				{
					"internalType": "uint256",
					"name": "_rollno",
					"type": "uint256"
				},
				{
					"internalType": "string",
					"name": "_name",
					"type": "string"
				},
				{
					"internalType": "uint256",
					"name": "_marks",
					"type": "uint256"
				}
			],
			"name": "set_arr",
			"outputs": [],
			"stateMutability": "nonpayable",
			"type": "function"
		},
		{
			"inputs": [
				{
					"internalType": "uint256",
					"name": "",
					"type": "uint256"
				}
			],
			"name": "students1",
			"outputs": [
				{
					"internalType": "uint256",
					"name": "rollno",
					"type": "uint256"
				},
				{
					"internalType": "string",
					"name": "name",
					"type": "string"
				},
				{
					"internalType": "uint256",
					"name": "marks",
					"type": "uint256"
				}
			],
			"stateMutability": "view",
			"type": "function"
		},
		{
			"inputs": [],
			"name": "studentss1",
			"outputs": [
				{
					"internalType": "uint256",
					"name": "rollno",
					"type": "uint256"
				},
				{
					"internalType": "string",
					"name": "name",
					"type": "string"
				},
				{
					"internalType": "uint256",
					"name": "marks",
					"type": "uint256"
				}
			],
			"stateMutability": "view",
			"type": "function"
		}
	]
}