{
	"data": {
		"bytecode": {
			"linkReferences": {},
			"object": "6080604052348015600e575f5ffd5b506108d38061001c5f395ff3fe608060405234801561000f575f5ffd5b506004361061003f575f3560e01c80632cec2b9214610043578063bcbb0ee71461005f578063e8ca64f41461007b575b5f5ffd5b61005d600480360381019061005891906103df565b6100ac565b005b61007960048036038101906100749190610439565b610109565b005b61009560048036038101906100909190610439565b610196565b6040516100a3929190610553565b60405180910390f35b8060028111156100bf576100be6104e0565b5b5f836040516100ce91906105bb565b90815260200160405180910390206001015f6101000a81548160ff02191690836002811115610100576100ff6104e0565b5b02179055505050565b60405180604001604052808281526020015f600281111561012d5761012c6104e0565b5b8152505f8260405161013f91906105bb565b90815260200160405180910390205f820151815f01908161016091906107ce565b506020820151816001015f6101000a81548160ff0219169083600281111561018b5761018a6104e0565b5b021790555090505050565b5f818051602081018201805184825260208301602085012081835280955050505050505f91509050805f0180546101cc906105fe565b80601f01602080910402602001604051908101604052809291908181526020018280546101f8906105fe565b80156102435780601f1061021a57610100808354040283529160200191610243565b820191905f5260205f20905b81548152906001019060200180831161022657829003601f168201915b505050505090806001015f9054906101000a900460ff16905082565b5f604051905090565b5f5ffd5b5f5ffd5b5f5ffd5b5f5ffd5b5f601f19601f8301169050919050565b7f4e487b71000000000000000000000000000000000000000000000000000000005f52604160045260245ffd5b6102be82610278565b810181811067ffffffffffffffff821117156102dd576102dc610288565b5b80604052505050565b5f6102ef61025f565b90506102fb82826102b5565b919050565b5f67ffffffffffffffff82111561031a57610319610288565b5b61032382610278565b9050602081019050919050565b828183375f83830152505050565b5f61035061034b84610300565b6102e6565b90508281526020810184848401111561036c5761036b610274565b5b610377848285610330565b509392505050565b5f82601f83011261039357610392610270565b5b81356103a384826020860161033e565b91505092915050565b5f819050919050565b6103be816103ac565b81146103c8575f5ffd5b50565b5f813590506103d9816103b5565b92915050565b5f5f604083850312156103f5576103f4610268565b5b5f83013567ffffffffffffffff8111156104125761041161026c565b5b61041e8582860161037f565b925050602061042f858286016103cb565b9150509250929050565b5f6020828403121561044e5761044d610268565b5b5f82013567ffffffffffffffff81111561046b5761046a61026c565b5b6104778482850161037f565b91505092915050565b5f81519050919050565b5f82825260208201905092915050565b8281835e5f83830152505050565b5f6104b282610480565b6104bc818561048a565b93506104cc81856020860161049a565b6104d581610278565b840191505092915050565b7f4e487b71000000000000000000000000000000000000000000000000000000005f52602160045260245ffd5b6003811061051e5761051d6104e0565b5b50565b5f81905061052e8261050d565b919050565b5f61053d82610521565b9050919050565b61054d81610533565b82525050565b5f6040820190508181035f83015261056b81856104a8565b905061057a6020830184610544565b9392505050565b5f81905092915050565b5f61059582610480565b61059f8185610581565b93506105af81856020860161049a565b80840191505092915050565b5f6105c6828461058b565b915081905092915050565b7f4e487b71000000000000000000000000000000000000000000000000000000005f52602260045260245ffd5b5f600282049050600182168061061557607f821691505b602082108103610628576106276105d1565b5b50919050565b5f819050815f5260205f209050919050565b5f6020601f8301049050919050565b5f82821b905092915050565b5f6008830261068a7fffffffffffffffffffffffffffffffffffffffffffffffffffffffffffffffff8261064f565b610694868361064f565b95508019841693508086168417925050509392505050565b5f819050919050565b5f6106cf6106ca6106c5846103ac565b6106ac565b6103ac565b9050919050565b5f819050919050565b6106e8836106b5565b6106fc6106f4826106d6565b84845461065b565b825550505050565b5f5f905090565b610713610704565b61071e8184846106df565b505050565b5b81811015610741576107365f8261070b565b600181019050610724565b5050565b601f821115610786576107578161062e565b61076084610640565b8101602085101561076f578190505b61078361077b85610640565b830182610723565b50505b505050565b5f82821c905092915050565b5f6107a65f198460080261078b565b1980831691505092915050565b5f6107be8383610797565b9150826002028217905092915050565b6107d782610480565b67ffffffffffffffff8111156107f0576107ef610288565b5b6107fa82546105fe565b610805828285610745565b5f60209050601f831160018114610836575f8415610824578287015190505b61082e85826107b3565b865550610895565b601f1984166108448661062e565b5f5b8281101561086b57848901518255600182019150602085019450602081019050610846565b868310156108885784890151610884601f891682610797565b8355505b6001600288020188555050505b50505050505056fea26469706673582212205235813ad089acbfaa23b1afa731584f74bb96961b3c70a1f61065fae676448364736f6c634300081f0033",
			"opcodes": "PUSH1 0x80 PUSH1 0x40 MSTORE CALLVALUE DUP1 ISZERO PUSH1 0xE JUMPI PUSH0 PUSH0 REVERT JUMPDEST POP PUSH2 0x8D3 DUP1 PUSH2 0x1C PUSH0 CODECOPY PUSH0 RETURN INVALID PUSH1 0x80 PUSH1 0x40 MSTORE CALLVALUE DUP1 ISZERO PUSH2 0xF JUMPI PUSH0 PUSH0 REVERT JUMPDEST POP PUSH1 0x4 CALLDATASIZE LT PUSH2 0x3F JUMPI PUSH0 CALLDATALOAD PUSH1 0xE0 SHR DUP1 PUSH4 0x2CEC2B92 EQ PUSH2 0x43 JUMPI DUP1 PUSH4 0xBCBB0EE7 EQ PUSH2 0x5F JUMPI DUP1 PUSH4 0xE8CA64F4 EQ PUSH2 0x7B JUMPI JUMPDEST PUSH0 PUSH0 REVERT JUMPDEST PUSH2 0x5D PUSH1 0x4 DUP1 CALLDATASIZE SUB DUP2 ADD SWAP1 PUSH2 0x58 SWAP2 SWAP1 PUSH2 0x3DF JUMP JUMPDEST PUSH2 0xAC JUMP JUMPDEST STOP JUMPDEST PUSH2 0x79 PUSH1 0x4 DUP1 CALLDATASIZE SUB DUP2 ADD SWAP1 PUSH2 0x74 SWAP2 SWAP1 PUSH2 0x439 JUMP JUMPDEST PUSH2 0x109 JUMP JUMPDEST STOP JUMPDEST PUSH2 0x95 PUSH1 0x4 DUP1 CALLDATASIZE SUB DUP2 ADD SWAP1 PUSH2 0x90 SWAP2 SWAP1 PUSH2 0x439 JUMP JUMPDEST PUSH2 0x196 JUMP JUMPDEST PUSH1 0x40 MLOAD PUSH2 0xA3 SWAP3 SWAP2 SWAP1 PUSH2 0x553 JUMP JUMPDEST PUSH1 0x40 MLOAD DUP1 SWAP2 SUB SWAP1 RETURN JUMPDEST DUP1 PUSH1 0x2 DUP2 GT ISZERO PUSH2 0xBF JUMPI PUSH2 0xBE PUSH2 0x4E0 JUMP JUMPDEST JUMPDEST PUSH0 DUP4 PUSH1 0x40 MLOAD PUSH2 0xCE SWAP2 SWAP1 PUSH2 0x5BB JUMP JUMPDEST SWAP1 DUP2 MSTORE PUSH1 0x20 ADD PUSH1 0x40 MLOAD DUP1 SWAP2 SUB SWAP1 KECCAK256 PUSH1 0x1 ADD PUSH0 PUSH2 0x100 EXP DUP2 SLOAD DUP2 PUSH1 0xFF MUL NOT AND SWAP1 DUP4 PUSH1 0x2 DUP2 GT ISZERO PUSH2 0x100 JUMPI PUSH2 0xFF PUSH2 0x4E0 JUMP JUMPDEST JUMPDEST MUL OR SWAP1 SSTORE POP POP POP JUMP JUMPDEST PUSH1 0x40 MLOAD DUP1 PUSH1 0x40 ADD PUSH1 0x40 MSTORE DUP1 DUP3 DUP2 MSTORE PUSH1 0x20 ADD PUSH0 PUSH1 0x2 DUP2 GT ISZERO PUSH2 0x12D JUMPI PUSH2 0x12C PUSH2 0x4E0 JUMP JUMPDEST JUMPDEST DUP2 MSTORE POP PUSH0 DUP3 PUSH1 0x40 MLOAD PUSH2 0x13F SWAP2 SWAP1 PUSH2 0x5BB JUMP JUMPDEST SWAP1 DUP2 MSTORE PUSH1 0x20 ADD PUSH1 0x40 MLOAD DUP1 SWAP2 SUB SWAP1 KECCAK256 PUSH0 DUP3 ADD MLOAD DUP2 PUSH0 ADD SWAP1 DUP2 PUSH2 0x160 SWAP2 SWAP1 PUSH2 0x7CE JUMP JUMPDEST POP PUSH1 0x20 DUP3 ADD MLOAD DUP2 PUSH1 0x1 ADD PUSH0 PUSH2 0x100 EXP DUP2 SLOAD DUP2 PUSH1 0xFF MUL NOT AND SWAP1 DUP4 PUSH1 0x2 DUP2 GT ISZERO PUSH2 0x18B JUMPI PUSH2 0x18A PUSH2 0x4E0 JUMP JUMPDEST JUMPDEST MUL OR SWAP1 SSTORE POP SWAP1 POP POP POP JUMP JUMPDEST PUSH0 DUP2 DUP1 MLOAD PUSH1 0x20 DUP2 ADD DUP3 ADD DUP1 MLOAD DUP5 DUP3 MSTORE PUSH1 0x20 DUP4 ADD PUSH1 0x20 DUP6 ADD KECCAK256 DUP2 DUP4 MSTORE DUP1 SWAP6 POP POP POP POP POP POP PUSH0 SWAP2 POP SWAP1 POP DUP1 PUSH0 ADD DUP1 SLOAD PUSH2 0x1CC SWAP1 PUSH2 0x5FE JUMP JUMPDEST DUP1 PUSH1 0x1F ADD PUSH1 0x20 DUP1 SWAP2 DIV MUL PUSH1 0x20 ADD PUSH1 0x40 MLOAD SWAP1 DUP2 ADD PUSH1 0x40 MSTORE DUP1 SWAP3 SWAP2 SWAP1 DUP2 DUP2 MSTORE PUSH1 0x20 ADD DUP3 DUP1 SLOAD PUSH2 0x1F8 SWAP1 PUSH2 0x5FE JUMP JUMPDEST DUP1 ISZERO PUSH2 0x243 JUMPI DUP1 PUSH1 0x1F LT PUSH2 0x21A JUMPI PUSH2 0x100 DUP1 DUP4 SLOAD DIV MUL DUP4 MSTORE SWAP2 PUSH1 0x20 ADD SWAP2 PUSH2 0x243 JUMP JUMPDEST DUP3 ADD SWAP2 SWAP1 PUSH0 MSTORE PUSH1 0x20 PUSH0 KECCAK256 SWAP1 JUMPDEST DUP2 SLOAD DUP2 MSTORE SWAP1 PUSH1 0x1 ADD SWAP1 PUSH1 0x20 ADD DUP1 DUP4 GT PUSH2 0x226 JUMPI DUP3 SWAP1 SUB PUSH1 0x1F AND DUP3 ADD SWAP2 JUMPDEST POP POP POP POP POP SWAP1 DUP1 PUSH1 0x1 ADD PUSH0 SWAP1 SLOAD SWAP1 PUSH2 0x100 EXP SWAP1 DIV PUSH1 0xFF AND SWAP1 POP DUP3 JUMP JUMPDEST PUSH0 PUSH1 0x40 MLOAD SWAP1 POP SWAP1 JUMP JUMPDEST PUSH0 PUSH0 REVERT JUMPDEST PUSH0 PUSH0 REVERT JUMPDEST PUSH0 PUSH0 REVERT JUMPDEST PUSH0 PUSH0 REVERT JUMPDEST PUSH0 PUSH1 0x1F NOT PUSH1 0x1F DUP4 ADD AND SWAP1 POP SWAP2 SWAP1 POP JUMP JUMPDEST PUSH32 0x4E487B7100000000000000000000000000000000000000000000000000000000 PUSH0 MSTORE PUSH1 0x41 PUSH1 0x4 MSTORE PUSH1 0x24 PUSH0 REVERT JUMPDEST PUSH2 0x2BE DUP3 PUSH2 0x278 JUMP JUMPDEST DUP2 ADD DUP2 DUP2 LT PUSH8 0xFFFFFFFFFFFFFFFF DUP3 GT OR ISZERO PUSH2 0x2DD JUMPI PUSH2 0x2DC PUSH2 0x288 JUMP JUMPDEST JUMPDEST DUP1 PUSH1 0x40 MSTORE POP POP POP JUMP JUMPDEST PUSH0 PUSH2 0x2EF PUSH2 0x25F JUMP JUMPDEST SWAP1 POP PUSH2 0x2FB DUP3 DUP3 PUSH2 0x2B5 JUMP JUMPDEST SWAP2 SWAP1 POP JUMP JUMPDEST PUSH0 PUSH8 0xFFFFFFFFFFFFFFFF DUP3 GT ISZERO PUSH2 0x31A JUMPI PUSH2 0x319 PUSH2 0x288 JUMP JUMPDEST JUMPDEST PUSH2 0x323 DUP3 PUSH2 0x278 JUMP JUMPDEST SWAP1 POP PUSH1 0x20 DUP2 ADD SWAP1 POP SWAP2 SWAP1 POP JUMP JUMPDEST DUP3 DUP2 DUP4 CALLDATACOPY PUSH0 DUP4 DUP4 ADD MSTORE POP POP POP JUMP JUMPDEST PUSH0 PUSH2 0x350 PUSH2 0x34B DUP5 PUSH2 0x300 JUMP JUMPDEST PUSH2 0x2E6 JUMP JUMPDEST SWAP1 POP DUP3 DUP2 MSTORE PUSH1 0x20 DUP2 ADD DUP5 DUP5 DUP5 ADD GT ISZERO PUSH2 0x36C JUMPI PUSH2 0x36B PUSH2 0x274 JUMP JUMPDEST JUMPDEST PUSH2 0x377 DUP5 DUP3 DUP6 PUSH2 0x330 JUMP JUMPDEST POP SWAP4 SWAP3 POP POP POP JUMP JUMPDEST PUSH0 DUP3 PUSH1 0x1F DUP4 ADD SLT PUSH2 0x393 JUMPI PUSH2 0x392 PUSH2 0x270 JUMP JUMPDEST JUMPDEST DUP2 CALLDATALOAD PUSH2 0x3A3 DUP5 DUP3 PUSH1 0x20 DUP7 ADD PUSH2 0x33E JUMP JUMPDEST SWAP2 POP POP SWAP3 SWAP2 POP POP JUMP JUMPDEST PUSH0 DUP2 SWAP1 POP SWAP2 SWAP1 POP JUMP JUMPDEST PUSH2 0x3BE DUP2 PUSH2 0x3AC JUMP JUMPDEST DUP2 EQ PUSH2 0x3C8 JUMPI PUSH0 PUSH0 REVERT JUMPDEST POP JUMP JUMPDEST PUSH0 DUP2 CALLDATALOAD SWAP1 POP PUSH2 0x3D9 DUP2 PUSH2 0x3B5 JUMP JUMPDEST SWAP3 SWAP2 POP POP JUMP JUMPDEST PUSH0 PUSH0 PUSH1 0x40 DUP4 DUP6 SUB SLT ISZERO PUSH2 0x3F5 JUMPI PUSH2 0x3F4 PUSH2 0x268 JUMP JUMPDEST JUMPDEST PUSH0 DUP4 ADD CALLDATALOAD PUSH8 0xFFFFFFFFFFFFFFFF DUP2 GT ISZERO PUSH2 0x412 JUMPI PUSH2 0x411 PUSH2 0x26C JUMP JUMPDEST JUMPDEST PUSH2 0x41E DUP6 DUP3 DUP7 ADD PUSH2 0x37F JUMP JUMPDEST SWAP3 POP POP PUSH1 0x20 PUSH2 0x42F DUP6 DUP3 DUP7 ADD PUSH2 0x3CB JUMP JUMPDEST SWAP2 POP POP SWAP3 POP SWAP3 SWAP1 POP JUMP JUMPDEST PUSH0 PUSH1 0x20 DUP3 DUP5 SUB SLT ISZERO PUSH2 0x44E JUMPI PUSH2 0x44D PUSH2 0x268 JUMP JUMPDEST JUMPDEST PUSH0 DUP3 ADD CALLDATALOAD PUSH8 0xFFFFFFFFFFFFFFFF DUP2 GT ISZERO PUSH2 0x46B JUMPI PUSH2 0x46A PUSH2 0x26C JUMP JUMPDEST JUMPDEST PUSH2 0x477 DUP5 DUP3 DUP6 ADD PUSH2 0x37F JUMP JUMPDEST SWAP2 POP POP SWAP3 SWAP2 POP POP JUMP JUMPDEST PUSH0 DUP2 MLOAD SWAP1 POP SWAP2 SWAP1 POP JUMP JUMPDEST PUSH0 DUP3 DUP3 MSTORE PUSH1 0x20 DUP3 ADD SWAP1 POP SWAP3 SWAP2 POP POP JUMP JUMPDEST DUP3 DUP2 DUP4 MCOPY PUSH0 DUP4 DUP4 ADD MSTORE POP POP POP JUMP JUMPDEST PUSH0 PUSH2 0x4B2 DUP3 PUSH2 0x480 JUMP JUMPDEST PUSH2 0x4BC DUP2 DUP6 PUSH2 0x48A JUMP JUMPDEST SWAP4 POP PUSH2 0x4CC DUP2 DUP6 PUSH1 0x20 DUP7 ADD PUSH2 0x49A JUMP JUMPDEST PUSH2 0x4D5 DUP2 PUSH2 0x278 JUMP JUMPDEST DUP5 ADD SWAP2 POP POP SWAP3 SWAP2 POP POP JUMP JUMPDEST PUSH32 0x4E487B7100000000000000000000000000000000000000000000000000000000 PUSH0 MSTORE PUSH1 0x21 PUSH1 0x4 MSTORE PUSH1 0x24 PUSH0 REVERT JUMPDEST PUSH1 0x3 DUP2 LT PUSH2 0x51E JUMPI PUSH2 0x51D PUSH2 0x4E0 JUMP JUMPDEST JUMPDEST POP JUMP JUMPDEST PUSH0 DUP2 SWAP1 POP PUSH2 0x52E DUP3 PUSH2 0x50D JUMP JUMPDEST SWAP2 SWAP1 POP JUMP JUMPDEST PUSH0 PUSH2 0x53D DUP3 PUSH2 0x521 JUMP JUMPDEST SWAP1 POP SWAP2 SWAP1 POP JUMP JUMPDEST PUSH2 0x54D DUP2 PUSH2 0x533 JUMP JUMPDEST DUP3 MSTORE POP POP JUMP JUMPDEST PUSH0 PUSH1 0x40 DUP3 ADD SWAP1 POP DUP2 DUP2 SUB PUSH0 DUP4 ADD MSTORE PUSH2 0x56B DUP2 DUP6 PUSH2 0x4A8 JUMP JUMPDEST SWAP1 POP PUSH2 0x57A PUSH1 0x20 DUP4 ADD DUP5 PUSH2 0x544 JUMP JUMPDEST SWAP4 SWAP3 POP POP POP JUMP JUMPDEST PUSH0 DUP2 SWAP1 POP SWAP3 SWAP2 POP POP JUMP JUMPDEST PUSH0 PUSH2 0x595 DUP3 PUSH2 0x480 JUMP JUMPDEST PUSH2 0x59F DUP2 DUP6 PUSH2 0x581 JUMP JUMPDEST SWAP4 POP PUSH2 0x5AF DUP2 DUP6 PUSH1 0x20 DUP7 ADD PUSH2 0x49A JUMP JUMPDEST DUP1 DUP5 ADD SWAP2 POP POP SWAP3 SWAP2 POP POP JUMP JUMPDEST PUSH0 PUSH2 0x5C6 DUP3 DUP5 PUSH2 0x58B JUMP JUMPDEST SWAP2 POP DUP2 SWAP1 POP SWAP3 SWAP2 POP POP JUMP JUMPDEST PUSH32 0x4E487B7100000000000000000000000000000000000000000000000000000000 PUSH0 MSTORE PUSH1 0x22 PUSH1 0x4 MSTORE PUSH1 0x24 PUSH0 REVERT JUMPDEST PUSH0 PUSH1 0x2 DUP3 DIV SWAP1 POP PUSH1 0x1 DUP3 AND DUP1 PUSH2 0x615 JUMPI PUSH1 0x7F DUP3 AND SWAP2 POP JUMPDEST PUSH1 0x20 DUP3 LT DUP2 SUB PUSH2 0x628 JUMPI PUSH2 0x627 PUSH2 0x5D1 JUMP JUMPDEST JUMPDEST POP SWAP2 SWAP1 POP JUMP JUMPDEST PUSH0 DUP2 SWAP1 POP DUP2 PUSH0 MSTORE PUSH1 0x20 PUSH0 KECCAK256 SWAP1 POP SWAP2 SWAP1 POP JUMP JUMPDEST PUSH0 PUSH1 0x20 PUSH1 0x1F DUP4 ADD DIV SWAP1 POP SWAP2 SWAP1 POP JUMP JUMPDEST PUSH0 DUP3 DUP3 SHL SWAP1 POP SWAP3 SWAP2 POP POP JUMP JUMPDEST PUSH0 PUSH1 0x8 DUP4 MUL PUSH2 0x68A PUSH32 0xFFFFFFFFFFFFFFFFFFFFFFFFFFFFFFFFFFFFFFFFFFFFFFFFFFFFFFFFFFFFFFFF DUP3 PUSH2 0x64F JUMP JUMPDEST PUSH2 0x694 DUP7 DUP4 PUSH2 0x64F JUMP JUMPDEST SWAP6 POP DUP1 NOT DUP5 AND SWAP4 POP DUP1 DUP7 AND DUP5 OR SWAP3 POP POP POP SWAP4 SWAP3 POP POP POP JUMP JUMPDEST PUSH0 DUP2 SWAP1 POP SWAP2 SWAP1 POP JUMP JUMPDEST PUSH0 PUSH2 0x6CF PUSH2 0x6CA PUSH2 0x6C5 DUP5 PUSH2 0x3AC JUMP JUMPDEST PUSH2 0x6AC JUMP JUMPDEST PUSH2 0x3AC JUMP JUMPDEST SWAP1 POP SWAP2 SWAP1 POP JUMP JUMPDEST PUSH0 DUP2 SWAP1 POP SWAP2 SWAP1 POP JUMP JUMPDEST PUSH2 0x6E8 DUP4 PUSH2 0x6B5 JUMP JUMPDEST PUSH2 0x6FC PUSH2 0x6F4 DUP3 PUSH2 0x6D6 JUMP JUMPDEST DUP5 DUP5 SLOAD PUSH2 0x65B JUMP JUMPDEST DUP3 SSTORE POP POP POP POP JUMP JUMPDEST PUSH0 PUSH0 SWAP1 POP SWAP1 JUMP JUMPDEST PUSH2 0x713 PUSH2 0x704 JUMP JUMPDEST PUSH2 0x71E DUP2 DUP5 DUP5 PUSH2 0x6DF JUMP JUMPDEST POP POP POP JUMP JUMPDEST JUMPDEST DUP2 DUP2 LT ISZERO PUSH2 0x741 JUMPI PUSH2 0x736 PUSH0 DUP3 PUSH2 0x70B JUMP JUMPDEST PUSH1 0x1 DUP2 ADD SWAP1 POP PUSH2 0x724 JUMP JUMPDEST POP POP JUMP JUMPDEST PUSH1 0x1F DUP3 GT ISZERO PUSH2 0x786 JUMPI PUSH2 0x757 DUP2 PUSH2 0x62E JUMP JUMPDEST PUSH2 0x760 DUP5 PUSH2 0x640 JUMP JUMPDEST DUP2 ADD PUSH1 0x20 DUP6 LT ISZERO PUSH2 0x76F JUMPI DUP2 SWAP1 POP JUMPDEST PUSH2 0x783 PUSH2 0x77B DUP6 PUSH2 0x640 JUMP JUMPDEST DUP4 ADD DUP3 PUSH2 0x723 JUMP JUMPDEST POP POP JUMPDEST POP POP POP JUMP JUMPDEST PUSH0 DUP3 DUP3 SHR SWAP1 POP SWAP3 SWAP2 POP POP JUMP JUMPDEST PUSH0 PUSH2 0x7A6 PUSH0 NOT DUP5 PUSH1 0x8 MUL PUSH2 0x78B JUMP JUMPDEST NOT DUP1 DUP4 AND SWAP2 POP POP SWAP3 SWAP2 POP POP JUMP JUMPDEST PUSH0 PUSH2 0x7BE DUP4 DUP4 PUSH2 0x797 JUMP JUMPDEST SWAP2 POP DUP3 PUSH1 0x2 MUL DUP3 OR SWAP1 POP SWAP3 SWAP2 POP POP JUMP JUMPDEST PUSH2 0x7D7 DUP3 PUSH2 0x480 JUMP JUMPDEST PUSH8 0xFFFFFFFFFFFFFFFF DUP2 GT ISZERO PUSH2 0x7F0 JUMPI PUSH2 0x7EF PUSH2 0x288 JUMP JUMPDEST JUMPDEST PUSH2 0x7FA DUP3 SLOAD PUSH2 0x5FE JUMP JUMPDEST PUSH2 0x805 DUP3 DUP3 DUP6 PUSH2 0x745 JUMP JUMPDEST PUSH0 PUSH1 0x20 SWAP1 POP PUSH1 0x1F DUP4 GT PUSH1 0x1 DUP2 EQ PUSH2 0x836 JUMPI PUSH0 DUP5 ISZERO PUSH2 0x824 JUMPI DUP3 DUP8 ADD MLOAD SWAP1 POP JUMPDEST PUSH2 0x82E DUP6 DUP3 PUSH2 0x7B3 JUMP JUMPDEST DUP7 SSTORE POP PUSH2 0x895 JUMP JUMPDEST PUSH1 0x1F NOT DUP5 AND PUSH2 0x844 DUP7 PUSH2 0x62E JUMP JUMPDEST PUSH0 JUMPDEST DUP3 DUP2 LT ISZERO PUSH2 0x86B JUMPI DUP5 DUP10 ADD MLOAD DUP3 SSTORE PUSH1 0x1 DUP3 ADD SWAP2 POP PUSH1 0x20 DUP6 ADD SWAP5 POP PUSH1 0x20 DUP2 ADD SWAP1 POP PUSH2 0x846 JUMP JUMPDEST DUP7 DUP4 LT ISZERO PUSH2 0x888 JUMPI DUP5 DUP10 ADD MLOAD PUSH2 0x884 PUSH1 0x1F DUP10 AND DUP3 PUSH2 0x797 JUMP JUMPDEST DUP4 SSTORE POP JUMPDEST PUSH1 0x1 PUSH1 0x2 DUP9 MUL ADD DUP9 SSTORE POP POP POP JUMPDEST POP POP POP POP POP POP JUMP INVALID LOG2 PUSH5 0x6970667358 0x22 SLT KECCAK256 MSTORE CALLDATALOAD DUP2 GASPRICE 0xD0 DUP10 0xAC 0xBF 0xAA 0x23 0xB1 0xAF 0xA7 BALANCE PC 0x4F PUSH21 0xBB96961B3C70A1F61065FAE676448364736F6C6343 STOP ADDMOD 0x1F STOP CALLER "
		},
		"gasEstimates": {
			"creation": {
				"codeDepositCost": "451800",
				"executionCost": "484",
				"totalCost": "452284"
			},
			"external": {
				"Create_task(string)": "infinite",
				"status(string)": "infinite",
				"update_taskstatus(string,uint256)": "infinite"
			}
		},
		"methodIdentifiers": {
			"Create_task(string)": "bcbb0ee7",
			"status(string)": "e8ca64f4",
			"update_taskstatus(string,uint256)": "2cec2b92"
		}
	},
	"abi": [
		{
			"inputs": [
				{
					"internalType": "string",
					"name": "_name",
					"type": "string"
				}
			],
			"name": "Create_task",
			"outputs": [],
			"stateMutability": "nonpayable",
			"type": "function"
		},
		{
			"inputs": [
				{
					"internalType": "string",
					"name": "",
					"type": "string"
				}
			],
			"name": "status",
			"outputs": [
				{
					"internalType": "string",
					"name": "name",
					"type": "string"
				},
				{
					"internalType": "enum Taskmanager.Status",
					"name": "status",
					"type": "uint8"
				}
			],
			"stateMutability": "view",
			"type": "function"
		},
		{
			"inputs": [
				{
					"internalType": "string",
					"name": "_name",
					"type": "string"
				},
				{
					"internalType": "uint256",
					"name": "_status",
					"type": "uint256"
				}
			],
			"name": "update_taskstatus",
			"outputs": [],
			"stateMutability": "nonpayable",
			"type": "function"
		}
	]
}